{"contracts/EasyGameAdvance.sol":{"EasyGameAdvance":{"abi":[{"inputs":[{"internalType":"address","name":"projectWallet_","type":"address"},{"internalType":"address","name":"treasuryWallet_","type":"address"},{"internalType":"address","name":"operatorWallet_","type":"address"},{"internalType":"address","name":"usdcToken_","type":"address"}],"stateMutability":"nonpayable","type":"constructor"},{"inputs":[{"internalType":"uint8","name":"level","type":"uint8"}],"name":"InvalidLevel","type":"error"},{"inputs":[],"name":"ZeroAddress","type":"error"},{"anonymous":false,"inputs":[{"indexed":true,"internalType":"address","name":"player","type":"address"},{"indexed":true,"internalType":"uint8","name":"level","type":"uint8"},{"indexed":false,"internalType":"uint256","name":"amount","type":"uint256"}],"name":"BoxTokenGranted","type":"event"},{"anonymous":false,"inputs":[{"indexed":true,"internalType":"uint8","name":"level","type":"uint8"},{"indexed":false,"internalType":"uint256","name":"randomSeed","type":"uint256"},{"indexed":false,"internalType":"uint256","name":"totalWeight","type":"uint256"}],"name":"DrawRequested","type":"event"},{"anonymous":false,"inputs":[{"indexed":true,"internalType":"address","name":"winner","type":"address"},{"indexed":true,"internalType":"uint8","name":"level","type":"uint8"},{"indexed":false,"internalType":"uint256","name":"amount","type":"uint256"},{"indexed":false,"internalType":"bool","name":"pending","type":"bool"}],"name":"DrawWon","type":"event"},{"anonymous":false,"inputs":[{"indexed":true,"internalType":"address","name":"player","type":"address"},{"indexed":true,"internalType":"uint8","name":"level","type":"uint8"},{"indexed":false,"internalType":"uint256","name":"value","type":"uint256"},{"indexed":false,"internalType":"uint256","name":"cellId","type":"uint256"}],"name":"LevelActivated","type":"event"},{"anonymous":false,"inputs":[{"indexed":true,"internalType":"uint8","name":"level","type":"uint8"},{"indexed":false,"internalType":"bool","name":"available","type":"bool"}],"name":"LevelAvailabilityChanged","type":"event"},{"anonymous":false,"inputs":[{"indexed":true,"internalType":"address","name":"player","type":"address"},{"indexed":true,"internalType":"uint8","name":"level","type":"uint8"}],"name":"LevelFrozen","type":"event"},{"anonymous":false,"inputs":[{"indexed":true,"internalType":"uint8","name":"level","type":"uint8"},{"indexed":false,"internalType":"uint256","name":"oldPrice","type":"uint256"},{"indexed":false,"internalType":"uint256","name":"newPrice","type":"uint256"}],"name":"LevelPriceChanged","type":"event"},{"anonymous":false,"inputs":[{"indexed":true,"internalType":"address","name":"player","type":"address"},{"indexed":true,"internalType":"uint8","name":"level","type":"uint8"}],"name":"LevelUnfrozen","type":"event"},{"anonymous":false,"inputs":[{"indexed":true,"internalType":"uint8","name":"level","type":"uint8"},{"indexed":false,"internalType":"uint256","name":"oldPrice","type":"uint256"},{"indexed":false,"internalType":"uint256","name":"newPrice","type":"uint256"}],"name":"LevelUsdcPriceChanged","type":"event"},{"anonymous":false,"inputs":[{"indexed":true,"internalType":"address","name":"player","type":"address"},{"indexed":true,"internalType":"uint8","name":"level","type":"uint8"},{"indexed":true,"internalType":"uint256","name":"cellId","type":"uint256"},{"indexed":false,"internalType":"uint256","name":"parentCellId","type":"uint256"}],"name":"MatrixPlaced","type":"event"},{"anonymous":false,"inputs":[{"indexed":true,"internalType":"address","name":"previousOwner","type":"address"},{"indexed":true,"internalType":"address","name":"newOwner","type":"address"}],"name":"OwnershipTransferred","type":"event"},{"anonymous":false,"inputs":[{"indexed":true,"internalType":"address","name":"player","type":"address"},{"indexed":true,"internalType":"uint8","name":"level","type":"uint8"},{"indexed":false,"internalType":"uint256","name":"matrixPrizeAmount","type":"uint256"},{"indexed":false,"internalType":"uint256","name":"directReferralAmount","type":"uint256"},{"indexed":false,"internalType":"uint256","name":"secondLineAmount","type":"uint256"},{"indexed":false,"internalType":"uint256","name":"thirdLineAmount","type":"uint256"},{"indexed":false,"internalType":"uint256","name":"projectFeeAmount","type":"uint256"}],"name":"PaymentSplit","type":"event"},{"anonymous":false,"inputs":[{"indexed":true,"internalType":"address","name":"player","type":"address"},{"indexed":true,"internalType":"uint8","name":"level","type":"uint8"},{"indexed":false,"internalType":"uint256","name":"amount","type":"uint256"}],"name":"PrizeClaimed","type":"event"},{"anonymous":false,"inputs":[{"indexed":true,"internalType":"address","name":"player","type":"address"},{"indexed":true,"internalType":"uint8","name":"level","type":"uint8"},{"indexed":true,"internalType":"uint256","name":"cellId","type":"uint256"},{"indexed":false,"internalType":"uint256","name":"amount","type":"uint256"},{"indexed":false,"internalType":"bool","name":"pending","type":"bool"}],"name":"PrizePositionReached","type":"event"},{"anonymous":false,"inputs":[{"indexed":true,"internalType":"uint8","name":"level","type":"uint8"},{"indexed":false,"internalType":"uint256","name":"amount","type":"uint256"},{"indexed":false,"internalType":"uint256","name":"totalAccrued","type":"uint256"}],"name":"ProjectFeeAccrued","type":"event"},{"anonymous":false,"inputs":[{"indexed":true,"internalType":"address","name":"wallet","type":"address"},{"indexed":false,"internalType":"uint256","name":"amount","type":"uint256"}],"name":"ProjectFeesWithdrawn","type":"event"},{"anonymous":false,"inputs":[{"indexed":true,"internalType":"address","name":"player","type":"address"},{"indexed":true,"internalType":"uint8","name":"level","type":"uint8"},{"indexed":false,"internalType":"uint256","name":"recycleCount","type":"uint256"},{"indexed":false,"internalType":"uint256","name":"newCellId","type":"uint256"}],"name":"Recycled","type":"event"},{"anonymous":false,"inputs":[{"indexed":true,"internalType":"address","name":"inviter","type":"address"},{"indexed":true,"internalType":"address","name":"invitee","type":"address"},{"indexed":true,"internalType":"uint8","name":"level","type":"uint8"},{"indexed":false,"internalType":"uint256","name":"bonusAmount","type":"uint256"},{"indexed":false,"internalType":"uint256","name":"weightAdded","type":"uint256"}],"name":"ReferralBonusAdded","type":"event"},{"anonymous":false,"inputs":[{"indexed":true,"internalType":"address","name":"player","type":"address"},{"indexed":false,"internalType":"uint256","name":"amount","type":"uint256"}],"name":"ReferralBonusClaimed","type":"event"},{"anonymous":false,"inputs":[{"indexed":true,"internalType":"address","name":"inviter","type":"address"},{"indexed":true,"internalType":"address","name":"invitee","type":"address"},{"indexed":true,"internalType":"uint8","name":"level","type":"uint8"},{"indexed":false,"internalType":"uint256","name":"bonusAmount","type":"uint256"},{"indexed":false,"internalType":"uint256","name":"weightAdded","type":"uint256"}],"name":"SecondLineBonusAdded","type":"event"},{"anonymous":false,"inputs":[{"indexed":true,"internalType":"address","name":"inviter","type":"address"},{"indexed":true,"internalType":"address","name":"invitee","type":"address"},{"indexed":true,"internalType":"uint8","name":"level","type":"uint8"},{"indexed":false,"internalType":"uint256","name":"bonusAmount","type":"uint256"},{"indexed":false,"internalType":"uint256","name":"weightAdded","type":"uint256"}],"name":"ThirdLineBonusAdded","type":"event"},{"anonymous":false,"inputs":[{"indexed":true,"internalType":"address","name":"winner","type":"address"},{"indexed":true,"internalType":"uint8","name":"level","type":"uint8"},{"indexed":true,"internalType":"address","name":"token","type":"address"},{"indexed":false,"internalType":"uint256","name":"amount","type":"uint256"},{"indexed":false,"internalType":"bool","name":"pending","type":"bool"}],"name":"TokenDrawWon","type":"event"},{"anonymous":false,"inputs":[{"indexed":true,"internalType":"address","name":"player","type":"address"},{"indexed":true,"internalType":"uint8","name":"level","type":"uint8"},{"indexed":true,"internalType":"address","name":"token","type":"address"},{"indexed":false,"internalType":"uint256","name":"matrixPrizeAmount","type":"uint256"},{"indexed":false,"internalType":"uint256","name":"directReferralAmount","type":"uint256"},{"indexed":false,"internalType":"uint256","name":"secondLineAmount","type":"uint256"},{"indexed":false,"internalType":"uint256","name":"thirdLineAmount","type":"uint256"},{"indexed":false,"internalType":"uint256","name":"projectFeeAmount","type":"uint256"}],"name":"TokenPaymentSplit","type":"event"},{"anonymous":false,"inputs":[{"indexed":true,"internalType":"address","name":"player","type":"address"},{"indexed":true,"internalType":"address","name":"token","type":"address"},{"indexed":true,"internalType":"uint8","name":"level","type":"uint8"},{"indexed":false,"internalType":"uint256","name":"amount","type":"uint256"}],"name":"TokenPrizeClaimed","type":"event"},{"anonymous":false,"inputs":[{"indexed":true,"internalType":"address","name":"player","type":"address"},{"indexed":true,"internalType":"uint8","name":"level","type":"uint8"},{"indexed":true,"internalType":"address","name":"token","type":"address"},{"indexed":false,"internalType":"uint256","name":"cellId","type":"uint256"},{"indexed":false,"internalType":"uint256","name":"amount","type":"uint256"},{"indexed":false,"internalType":"bool","name":"pending","type":"bool"}],"name":"TokenPrizePositionReached","type":"event"},{"anonymous":false,"inputs":[{"indexed":true,"internalType":"address","name":"token","type":"address"},{"indexed":true,"internalType":"uint8","name":"level","type":"uint8"},{"indexed":false,"internalType":"uint256","name":"amount","type":"uint256"},{"indexed":false,"internalType":"uint256","name":"totalAccrued","type":"uint256"}],"name":"TokenProjectFeeAccrued","type":"event"},{"anonymous":false,"inputs":[{"indexed":true,"internalType":"address","name":"token","type":"address"},{"indexed":true,"internalType":"address","name":"wallet","type":"address"},{"indexed":false,"internalType":"uint256","name":"amount","type":"uint256"}],"name":"TokenProjectFeesWithdrawn","type":"event"},{"anonymous":false,"inputs":[{"indexed":true,"internalType":"address","name":"player","type":"address"},{"indexed":true,"internalType":"address","name":"token","type":"address"},{"indexed":false,"internalType":"uint256","name":"amount","type":"uint256"}],"name":"TokenReferralBonusClaimed","type":"event"},{"anonymous":false,"inputs":[{"indexed":true,"internalType":"address","name":"oldToken","type":"address"},{"indexed":true,"internalType":"address","name":"newToken","type":"address"}],"name":"UsdcTokenChanged","type":"event"},{"anonymous":false,"inputs":[{"indexed":false,"internalType":"address","name":"projectWallet","type":"address"},{"indexed":false,"internalType":"address","name":"treasuryWallet","type":"address"},{"indexed":false,"internalType":"address","name":"operatorWallet","type":"address"}],"name":"WalletsChanged","type":"event"},{"anonymous":false,"inputs":[{"indexed":true,"internalType":"address","name":"player","type":"address"},{"indexed":true,"internalType":"uint8","name":"level","type":"uint8"},{"indexed":false,"internalType":"uint256","name":"totalWeight","type":"uint256"}],"name":"WeightUpdated","type":"event"},{"inputs":[],"name":"BASE_ACTIVATION_WEIGHT","outputs":[{"internalType":"uint256","name":"","type":"uint256"}],"stateMutability":"view","type":"function"},{"inputs":[],"name":"BOX_NFT_WEIGHT","outputs":[{"internalType":"uint256","name":"","type":"uint256"}],"stateMutability":"view","type":"function"},{"inputs":[],"name":"BPS","outputs":[{"internalType":"uint256","name":"","type":"uint256"}],"stateMutability":"view","type":"function"},{"inputs":[],"name":"DIRECT_REF_BPS","outputs":[{"internalType":"uint256","name":"","type":"uint256"}],"stateMutability":"view","type":"function"},{"inputs":[],"name":"DIRECT_REF_WEIGHT","outputs":[{"internalType":"uint256","name":"","type":"uint256"}],"stateMutability":"view","type":"function"},{"inputs":[],"name":"DRAW_REWARD_BPS","outputs":[{"internalType":"uint256","name":"","type":"uint256"}],"stateMutability":"view","type":"function"},{"inputs":[],"name":"LEVEL_COUNT","outputs":[{"internalType":"uint8","name":"","type":"uint8"}],"stateMutability":"view","type":"function"},{"inputs":[],"name":"MATRIX_PRIZE_BPS","outputs":[{"internalType":"uint256","name":"","type":"uint256"}],"stateMutability":"view","type":"function"},{"inputs":[],"name":"MAX_BASE_WEIGHT_PER_LEVEL","outputs":[{"internalType":"uint256","name":"","type":"uint256"}],"stateMutability":"view","type":"function"},{"inputs":[],"name":"MAX_LOYALTY_WEIGHT_PER_LEVEL","outputs":[{"internalType":"uint256","name":"","type":"uint256"}],"stateMutability":"view","type":"function"},{"inputs":[],"name":"MAX_MATRIX_WEIGHT_PER_LEVEL","outputs":[{"internalType":"uint256","name":"","type":"uint256"}],"stateMutability":"view","type":"function"},{"inputs":[],"name":"MAX_NFT_WEIGHT_PER_LEVEL","outputs":[{"internalType":"uint256","name":"","type":"uint256"}],"stateMutability":"view","type":"function"},{"inputs":[],"name":"MAX_REFERRAL_WEIGHT_PER_LEVEL","outputs":[{"internalType":"uint256","name":"","type":"uint256"}],"stateMutability":"view","type":"function"},{"inputs":[],"name":"MAX_TOTAL_WEIGHT_PER_LEVEL","outputs":[{"internalType":"uint256","name":"","type":"uint256"}],"stateMutability":"view","type":"function"},{"inputs":[],"name":"PRIZE_POSITION_BPS","outputs":[{"internalType":"uint256","name":"","type":"uint256"}],"stateMutability":"view","type":"function"},{"inputs":[],"name":"PROJECT_FEE_BPS","outputs":[{"internalType":"uint256","name":"","type":"uint256"}],"stateMutability":"view","type":"function"},{"inputs":[],"name":"RECYCLE_MATRIX_WEIGHT","outputs":[{"internalType":"uint256","name":"","type":"uint256"}],"stateMutability":"view","type":"function"},{"inputs":[],"name":"SECOND_REF_BPS","outputs":[{"internalType":"uint256","name":"","type":"uint256"}],"stateMutability":"view","type":"function"},{"inputs":[],"name":"SECOND_REF_WEIGHT","outputs":[{"internalType":"uint256","name":"","type":"uint256"}],"stateMutability":"view","type":"function"},{"inputs":[],"name":"THIRD_REF_BPS","outputs":[{"internalType":"uint256","name":"","type":"uint256"}],"stateMutability":"view","type":"function"},{"inputs":[],"name":"THIRD_REF_WEIGHT","outputs":[{"internalType":"uint256","name":"","type":"uint256"}],"stateMutability":"view","type":"function"},{"inputs":[],"name":"WEEKLY_LOYALTY_WEIGHT","outputs":[{"internalType":"uint256","name":"","type":"uint256"}],"stateMutability":"view","type":"function"},{"inputs":[],"name":"WEIGHT_SCALE","outputs":[{"internalType":"uint256","name":"","type":"uint256"}],"stateMutability":"view","type":"function"},{"inputs":[{"internalType":"uint8","name":"level","type":"uint8"},{"internalType":"address","name":"inviter","type":"address"}],"name":"activateLevel","outputs":[],"stateMutability":"payable","type":"function"},{"inputs":[{"internalType":"uint8","name":"level","type":"uint8"},{"internalType":"address","name":"inviter","type":"address"}],"name":"activateLevelWithUSDC","outputs":[],"stateMutability":"nonpayable","type":"function"},{"inputs":[{"internalType":"uint8","name":"","type":"uint8"}],"name":"activeCellsByLevel","outputs":[{"internalType":"uint256","name":"","type":"uint256"}],"stateMutability":"view","type":"function"},{"inputs":[{"internalType":"uint8","name":"level","type":"uint8"}],"name":"claimPrize","outputs":[],"stateMutability":"nonpayable","type":"function"},{"inputs":[{"internalType":"uint8","name":"level","type":"uint8"}],"name":"claimPrizeUSDC","outputs":[],"stateMutability":"nonpayable","type":"function"},{"inputs":[],"name":"claimReferralBonus","outputs":[],"stateMutability":"nonpayable","type":"function"},{"inputs":[],"name":"claimReferralBonusUSDC","outputs":[],"stateMutability":"nonpayable","type":"function"},{"inputs":[{"internalType":"address","name":"","type":"address"}],"name":"claimablePrizeUsdc","outputs":[{"internalType":"uint256","name":"","type":"uint256"}],"stateMutability":"view","type":"function"},{"inputs":[{"internalType":"address","name":"","type":"address"},{"internalType":"uint8","name":"","type":"uint8"}],"name":"claimablePrizeUsdcByLevel","outputs":[{"internalType":"uint256","name":"","type":"uint256"}],"stateMutability":"view","type":"function"},{"inputs":[{"internalType":"address","name":"","type":"address"}],"name":"claimableReferralBonusUsdc","outputs":[{"internalType":"uint256","name":"","type":"uint256"}],"stateMutability":"view","type":"function"},{"inputs":[{"internalType":"uint8","name":"level","type":"uint8"}],"name":"getLevelMatrixStats","outputs":[{"internalType":"uint256","name":"size","type":"uint256"},{"internalType":"uint256","name":"nextOpenParentId","type":"uint256"}],"stateMutability":"view","type":"function"},{"inputs":[{"internalType":"uint8","name":"level","type":"uint8"}],"name":"getLevelStats","outputs":[{"internalType":"uint256","name":"prizePool","type":"uint256"},{"internalType":"uint256","name":"totalWeight","type":"uint256"},{"internalType":"uint256","name":"activeCells","type":"uint256"},{"internalType":"uint256","name":"nextOpenParent","type":"uint256"},{"internalType":"uint256","name":"nextCell","type":"uint256"}],"stateMutability":"view","type":"function"},{"inputs":[{"internalType":"uint8","name":"level","type":"uint8"}],"name":"getLevelStatsUSDC","outputs":[{"internalType":"uint256","name":"prizePool","type":"uint256"},{"internalType":"uint256","name":"totalWeight","type":"uint256"},{"internalType":"uint256","name":"activeCells","type":"uint256"},{"internalType":"uint256","name":"nextOpenParent","type":"uint256"},{"internalType":"uint256","name":"nextCell","type":"uint256"}],"stateMutability":"view","type":"function"},{"inputs":[{"internalType":"uint8","name":"level","type":"uint8"},{"internalType":"uint256","name":"cellId","type":"uint256"}],"name":"getMatrixNode","outputs":[{"components":[{"internalType":"uint256","name":"cellId","type":"uint256"},{"internalType":"address","name":"player","type":"address"},{"internalType":"uint8","name":"level","type":"uint8"},{"internalType":"uint256","name":"parentCellId","type":"uint256"},{"internalType":"uint256","name":"leftChildCellId","type":"uint256"},{"internalType":"uint256","name":"rightChildCellId","type":"uint256"},{"internalType":"bool","name":"closed","type":"bool"},{"internalType":"bool","name":"prizeCell","type":"bool"}],"internalType":"struct MatrixNode","name":"","type":"tuple"}],"stateMutability":"view","type":"function"},{"inputs":[{"internalType":"uint8","name":"level","type":"uint8"},{"internalType":"uint256","name":"currentCellId","type":"uint256"}],"name":"getNextPrizeCell","outputs":[{"internalType":"uint256","name":"","type":"uint256"}],"stateMutability":"pure","type":"function"},{"inputs":[{"internalType":"address","name":"playerAddress","type":"address"}],"name":"getPlayer","outputs":[{"components":[{"internalType":"bool","name":"exists","type":"bool"},{"internalType":"address","name":"wallet","type":"address"},{"internalType":"address","name":"inviter","type":"address"},{"internalType":"address","name":"secondLine","type":"address"},{"internalType":"address","name":"thirdLine","type":"address"},{"internalType":"uint256","name":"totalTickets","type":"uint256"},{"internalType":"uint256","name":"baseWeight","type":"uint256"},{"internalType":"uint256","name":"referralWeight","type":"uint256"},{"internalType":"uint256","name":"loyaltyWeight","type":"uint256"},{"internalType":"uint256","name":"matrixWeight","type":"uint256"},{"internalType":"uint256","name":"nftWeight","type":"uint256"},{"internalType":"uint256","name":"totalWeight","type":"uint256"},{"internalType":"uint256","name":"boxTokens","type":"uint256"},{"internalType":"uint256","name":"recycleCount","type":"uint256"},{"internalType":"uint256","name":"claimableReferralBonus","type":"uint256"},{"internalType":"uint256","name":"claimablePrize","type":"uint256"},{"internalType":"uint256","name":"pendingPrize","type":"uint256"},{"internalType":"uint256","name":"joinedAt","type":"uint256"},{"internalType":"uint256","name":"lastActiveAt","type":"uint256"}],"internalType":"struct Player","name":"","type":"tuple"}],"stateMutability":"view","type":"function"},{"inputs":[{"internalType":"address","name":"playerAddress","type":"address"},{"internalType":"uint8","name":"level","type":"uint8"}],"name":"getPlayerChance","outputs":[{"internalType":"uint256","name":"chanceBps","type":"uint256"}],"stateMutability":"view","type":"function"},{"inputs":[{"internalType":"address","name":"playerAddress","type":"address"},{"internalType":"uint8","name":"level","type":"uint8"}],"name":"getPlayerLevel","outputs":[{"internalType":"bool","name":"active","type":"bool"},{"internalType":"bool","name":"frozen","type":"bool"},{"internalType":"uint256","name":"cycles","type":"uint256"},{"internalType":"uint256","name":"positionId","type":"uint256"},{"internalType":"uint256","name":"earned","type":"uint256"}],"stateMutability":"view","type":"function"},{"inputs":[{"internalType":"address","name":"playerAddress","type":"address"},{"internalType":"uint8","name":"level","type":"uint8"}],"name":"getPlayerLevelFull","outputs":[{"components":[{"internalType":"bool","name":"active","type":"bool"},{"internalType":"bool","name":"frozen","type":"bool"},{"internalType":"uint256","name":"tickets","type":"uint256"},{"internalType":"uint256","name":"cellId","type":"uint256"},{"internalType":"uint256","name":"parentCellId","type":"uint256"},{"internalType":"uint256","name":"leftChildCellId","type":"uint256"},{"internalType":"uint256","name":"rightChildCellId","type":"uint256"},{"internalType":"uint256","name":"cycleCount","type":"uint256"},{"internalType":"uint256","name":"levelWeight","type":"uint256"},{"internalType":"uint256","name":"claimablePrize","type":"uint256"},{"internalType":"uint256","name":"pendingPrize","type":"uint256"}],"internalType":"struct PlayerLevel","name":"","type":"tuple"}],"stateMutability":"view","type":"function"},{"inputs":[{"internalType":"address","name":"playerAddress","type":"address"},{"internalType":"uint8","name":"level","type":"uint8"}],"name":"getPlayerPosition","outputs":[{"internalType":"uint256","name":"positionId","type":"uint256"},{"internalType":"uint256","name":"parentId","type":"uint256"},{"internalType":"uint256","name":"leftChildId","type":"uint256"},{"internalType":"uint256","name":"rightChildId","type":"uint256"},{"internalType":"uint256","name":"depth","type":"uint256"},{"internalType":"bool","name":"closed","type":"bool"}],"stateMutability":"view","type":"function"},{"inputs":[{"internalType":"address","name":"playerAddress","type":"address"},{"internalType":"uint8","name":"level","type":"uint8"}],"name":"getPlayerTokenRewards","outputs":[{"internalType":"uint256","name":"referralBonus","type":"uint256"},{"internalType":"uint256","name":"claimablePrize","type":"uint256"},{"internalType":"uint256","name":"pendingPrize","type":"uint256"}],"stateMutability":"view","type":"function"},{"inputs":[{"internalType":"address","name":"playerAddress","type":"address"},{"internalType":"uint8","name":"level","type":"uint8"}],"name":"getPlayerWeight","outputs":[{"internalType":"uint256","name":"","type":"uint256"}],"stateMutability":"view","type":"function"},{"inputs":[{"internalType":"address","name":"playerAddress","type":"address"},{"internalType":"uint8","name":"level","type":"uint8"}],"name":"isLevelActive","outputs":[{"internalType":"bool","name":"","type":"bool"}],"stateMutability":"view","type":"function"},{"inputs":[{"internalType":"address","name":"playerAddress","type":"address"},{"internalType":"uint8","name":"level","type":"uint8"}],"name":"isLevelFrozen","outputs":[{"internalType":"bool","name":"","type":"bool"}],"stateMutability":"view","type":"function"},{"inputs":[{"internalType":"uint8","name":"","type":"uint8"}],"name":"levelAvailable","outputs":[{"internalType":"bool","name":"","type":"bool"}],"stateMutability":"view","type":"function"},{"inputs":[{"internalType":"uint8","name":"","type":"uint8"}],"name":"levelMatrixSize","outputs":[{"internalType":"uint256","name":"","type":"uint256"}],"stateMutability":"view","type":"function"},{"inputs":[{"internalType":"uint8","name":"","type":"uint8"}],"name":"levelPrices","outputs":[{"internalType":"uint256","name":"","type":"uint256"}],"stateMutability":"view","type":"function"},{"inputs":[{"internalType":"uint8","name":"","type":"uint8"}],"name":"levelPricesUsdc","outputs":[{"internalType":"uint256","name":"","type":"uint256"}],"stateMutability":"view","type":"function"},{"inputs":[{"internalType":"uint8","name":"","type":"uint8"},{"internalType":"uint256","name":"","type":"uint256"}],"name":"matrixNodes","outputs":[{"internalType":"uint256","name":"cellId","type":"uint256"},{"internalType":"address","name":"player","type":"address"},{"internalType":"uint8","name":"level","type":"uint8"},{"internalType":"uint256","name":"parentCellId","type":"uint256"},{"internalType":"uint256","name":"leftChildCellId","type":"uint256"},{"internalType":"uint256","name":"rightChildCellId","type":"uint256"},{"internalType":"bool","name":"closed","type":"bool"},{"internalType":"bool","name":"prizeCell","type":"bool"}],"stateMutability":"view","type":"function"},{"inputs":[{"internalType":"uint8","name":"","type":"uint8"}],"name":"matrixPrizePools","outputs":[{"internalType":"uint256","name":"","type":"uint256"}],"stateMutability":"view","type":"function"},{"inputs":[{"internalType":"uint8","name":"","type":"uint8"}],"name":"matrixPrizePoolsUsdc","outputs":[{"internalType":"uint256","name":"","type":"uint256"}],"stateMutability":"view","type":"function"},{"inputs":[{"internalType":"uint8","name":"","type":"uint8"}],"name":"nextCellId","outputs":[{"internalType":"uint256","name":"","type":"uint256"}],"stateMutability":"view","type":"function"},{"inputs":[{"internalType":"uint8","name":"","type":"uint8"}],"name":"nextOpenParentCellId","outputs":[{"internalType":"uint256","name":"","type":"uint256"}],"stateMutability":"view","type":"function"},{"inputs":[],"name":"operatorWallet","outputs":[{"internalType":"address","name":"","type":"address"}],"stateMutability":"view","type":"function"},{"inputs":[],"name":"owner","outputs":[{"internalType":"address","name":"","type":"address"}],"stateMutability":"view","type":"function"},{"inputs":[{"internalType":"address","name":"","type":"address"}],"name":"pendingPrizeUsdc","outputs":[{"internalType":"uint256","name":"","type":"uint256"}],"stateMutability":"view","type":"function"},{"inputs":[{"internalType":"address","name":"","type":"address"},{"internalType":"uint8","name":"","type":"uint8"}],"name":"pendingPrizeUsdcByLevel","outputs":[{"internalType":"uint256","name":"","type":"uint256"}],"stateMutability":"view","type":"function"},{"inputs":[{"internalType":"address","name":"","type":"address"},{"internalType":"uint8","name":"","type":"uint8"}],"name":"playerLevels","outputs":[{"internalType":"bool","name":"active","type":"bool"},{"internalType":"bool","name":"frozen","type":"bool"},{"internalType":"uint256","name":"tickets","type":"uint256"},{"internalType":"uint256","name":"cellId","type":"uint256"},{"internalType":"uint256","name":"parentCellId","type":"uint256"},{"internalType":"uint256","name":"leftChildCellId","type":"uint256"},{"internalType":"uint256","name":"rightChildCellId","type":"uint256"},{"internalType":"uint256","name":"cycleCount","type":"uint256"},{"internalType":"uint256","name":"levelWeight","type":"uint256"},{"internalType":"uint256","name":"claimablePrize","type":"uint256"},{"internalType":"uint256","name":"pendingPrize","type":"uint256"}],"stateMutability":"view","type":"function"},{"inputs":[{"internalType":"address","name":"","type":"address"}],"name":"players","outputs":[{"internalType":"bool","name":"exists","type":"bool"},{"internalType":"address","name":"wallet","type":"address"},{"internalType":"address","name":"inviter","type":"address"},{"internalType":"address","name":"secondLine","type":"address"},{"internalType":"address","name":"thirdLine","type":"address"},{"internalType":"uint256","name":"totalTickets","type":"uint256"},{"internalType":"uint256","name":"baseWeight","type":"uint256"},{"internalType":"uint256","name":"referralWeight","type":"uint256"},{"internalType":"uint256","name":"loyaltyWeight","type":"uint256"},{"internalType":"uint256","name":"matrixWeight","type":"uint256"},{"internalType":"uint256","name":"nftWeight","type":"uint256"},{"internalType":"uint256","name":"totalWeight","type":"uint256"},{"internalType":"uint256","name":"boxTokens","type":"uint256"},{"internalType":"uint256","name":"recycleCount","type":"uint256"},{"internalType":"uint256","name":"claimableReferralBonus","type":"uint256"},{"internalType":"uint256","name":"claimablePrize","type":"uint256"},{"internalType":"uint256","name":"pendingPrize","type":"uint256"},{"internalType":"uint256","name":"joinedAt","type":"uint256"},{"internalType":"uint256","name":"lastActiveAt","type":"uint256"}],"stateMutability":"view","type":"function"},{"inputs":[],"name":"projectFeesAccrued","outputs":[{"internalType":"uint256","name":"","type":"uint256"}],"stateMutability":"view","type":"function"},{"inputs":[],"name":"projectFeesAccruedUsdc","outputs":[{"internalType":"uint256","name":"","type":"uint256"}],"stateMutability":"view","type":"function"},{"inputs":[],"name":"projectWallet","outputs":[{"internalType":"address","name":"","type":"address"}],"stateMutability":"view","type":"function"},{"inputs":[{"internalType":"uint8","name":"level","type":"uint8"}],"name":"requestDraw","outputs":[],"stateMutability":"nonpayable","type":"function"},{"inputs":[{"internalType":"uint8","name":"level","type":"uint8"},{"internalType":"bool","name":"available","type":"bool"}],"name":"setLevelAvailable","outputs":[],"stateMutability":"nonpayable","type":"function"},{"inputs":[{"internalType":"uint8","name":"level","type":"uint8"},{"internalType":"uint256","name":"newPrice","type":"uint256"}],"name":"setLevelPrice","outputs":[],"stateMutability":"nonpayable","type":"function"},{"inputs":[{"internalType":"uint8","name":"level","type":"uint8"},{"internalType":"uint256","name":"newPrice","type":"uint256"}],"name":"setLevelPriceUSDC","outputs":[],"stateMutability":"nonpayable","type":"function"},{"inputs":[{"internalType":"address","name":"newToken","type":"address"}],"name":"setUsdcToken","outputs":[],"stateMutability":"nonpayable","type":"function"},{"inputs":[{"internalType":"address","name":"newProjectWallet","type":"address"},{"internalType":"address","name":"newTreasuryWallet","type":"address"},{"internalType":"address","name":"newOperatorWallet","type":"address"}],"name":"setWallets","outputs":[],"stateMutability":"nonpayable","type":"function"},{"inputs":[{"internalType":"uint8","name":"","type":"uint8"}],"name":"totalWeightByLevel","outputs":[{"internalType":"uint256","name":"","type":"uint256"}],"stateMutability":"view","type":"function"},{"inputs":[{"internalType":"address","name":"newOwner","type":"address"}],"name":"transferOwnership","outputs":[],"stateMutability":"nonpayable","type":"function"},{"inputs":[],"name":"treasuryWallet","outputs":[{"internalType":"address","name":"","type":"address"}],"stateMutability":"view","type":"function"},{"inputs":[],"name":"usdcToken","outputs":[{"internalType":"contract IERC20Minimal","name":"","type":"address"}],"stateMutability":"view","type":"function"},{"inputs":[],"name":"withdrawProjectFees","outputs":[],"stateMutability":"nonpayable","type":"function"},{"inputs":[],"name":"withdrawProjectFeesUSDC","outputs":[],"stateMutability":"nonpayable","type":"function"},{"stateMutability":"payable","type":"receive"}],"evm":{"bytecode":{"linkReferences":{},"object":"6080346200037157601f6200496e38819003918201601f1916830191906001600160401b0383118484101762000376578160809285926040958652833981010312620003715762000050826200038c565b602062000060602085016200038c565b906200007c6060620000748688016200038c565b96016200038c565b6001601c819055909590936001600160a01b03908116938415620003605781169182156200036057811696871562000360571680156200034f57849660018060a01b0319926000953385885416178755848854161787558360025416176002558260035416176003556004916004541617600455838352600560205266b1a2bc2ec50000858420556002835266f8b0a10e470000858420556003835267016345785d8a000085842055600483526701f161421c8e000085842055600583526702c68af0bb14000085842055600683526703e2c284391c000085842055600780845267058d15e17628000086852055600884526707a1fe16027700008685205560098452670b1a2bc2ec50000086852055600a8452670f43fc2c04ee000086852055600b84526716345785d8a0000086852055600c8452671e87f85809dc000086852055600d8452672c68af0bb140000086852055600e8452673d0ff0b013b8000086852055600f8452675a34a38fc00a00008685205560108452676f05b59d3b200000868520556011926011855267a688906bd8b0000087862055858552600660205261c3508786205560028552620111708786205560038552620186a08786205560048552620222e0878620556005855262030d408786205560068552620445c0878620556007855262061a808786205560088552620864708786205560098552620c350087862055600a85526210c8e087862055600b855262186a0087862055600c8552622191c087862055600d85526230d40087862055600e85526243238087862055600f855262632ea08786205560108552627a1200878620556011855262b71b00878620556003975b620002ff575b86516145cc9081620003a28239f35b60ff881684811162000348578552818152868520805460ff19168717905560ff97881697881462000335579685019685620002ea565b5050634e487b7160e01b83525260249150fd5b50620002f0565b855163d92e233d60e01b8152600490fd5b865163d92e233d60e01b8152600490fd5b600080fd5b634e487b7160e01b600052604160045260246000fd5b51906001600160a01b0382168203620003715756fe6101006040526004361015610053575b361561001a57600080fd5b60405162461bcd60e51b8152602060048201526011602482015270155cd9481858dd1a5d985d1953195d995b607a1b6044820152606490fd5b60003560e01c806303a65dfa14612a5b57806304eb273414612a275780630e475efd146129c557806311eac8551461299c57806319a085941461297e5780631a1478c3146110255780631d6a884b146129625780631e375ab91461289d57806322fbfe8014612811578063249d39e9146127f457806324bdc3a714610403578063267281741461141157806326e0cfe7146127645780632e50d906146127305780632f5ced0414610431578063306bf6bb1461264b578063308c61091461262e57806331b161a7146103a8578063333fedad146114115780633d5efbae146125675780633f896dd91461241b57806340261fbb146122825780634626402b1461225957806348d46be114611ff75780634a57c6d914611e695780634ca3696c14611dde5780634d69a4cd14611dc25780635042a91f14611da557806350da23dc1461040357806352ebb22714611d6c57806352f5c84e14611d385780635c12cd4b14611a995780635c602d9e146119d15780635d886f221461191d5780636b09f539146118e357806372d686bf146118c657806375b7d7c11461186757806375cb1bd1146116d95780637a7c7a6a146116115780637dcda2d4146115dd5780637f3255a8146115c0578063852f8299146115a357806386b8f4a1146115695780638c5b8ea5146115355780638d2724f9146115015780638da5cb5b146114d85780638eb657c41461141657806390f7c71a1461141157806394cecff8146113725780639b3728e8146103a85780639fef686214611356578063a0978ac2146112b9578063b75b688b1461125a578063b9aee26314611210578063bea99035146111bf578063beb08ab914611196578063c05db4ce14611162578063c7fcb8c314611128578063c864ce561461102a578063c8f17ce314611025578063ce9fffaa14610ff1578063d2a1608014610f9e578063dbba054014610f6a578063e26f7c4614610f4c578063e2eb41ff14610de0578063e69d2ca714610a23578063e8a8bd5c146109ef578063ed270c161461095f578063edfae88314610878578063f178fb1b1461085c578063f2fde38b146107b3578063f4f5058d14610436578063f6d5f69a14610431578063f90ef4ac14610408578063f933513914610403578063f935c2d6146103ad5763f943cbc60361000f575b612b76565b346103fe5760403660031901126103fe576103c6612ab8565b6103ce612ae4565b9060018060a01b0316600052601760205260ff604060002091166000526020526020604060002054604051908152f35b600080fd5b612b21565b346103fe5760003660031901126103fe576003546040516001600160a01b039091168152602090f35b612b5a565b346103fe5760403660031901126103fe5761044f612af4565b610457612ace565b6104656001601c5414612b93565b6002601c556104738261310c565b60ff8216918260005260206007815261049360ff60406000205416612d19565b6004546001600160a01b0390811692906104ae841515612c09565b856000526006835260406000205494851561076e576040516323b872dd60e01b81523360048201528481606481600060249a308c8401528c60448401525af190811561076257600091610735575b50156106fa5761050d903384613014565b93611d7e860290611d7d19878304016106bc57612710809204916103b680890290898204036106e557819004906102588902610257198a8204016106d057819004926101908a029061018f198b8304016106bc57508a857f7a14a1babc4a5ae45f861abaf72c1b5410a6a47bcd895b29db0aa9d61db01d1c86866106328f9a6105d78f9a9c889f9e9a60409d7f84c9aa800e59f9827a5bed559d2f7b6c5e3e446a7ba1a56d2193016565b7bab19f6105d2906105d2936105d29e049d8e978896612c93565b612c93565b9c8d9a3360005260098152600f8d600020918a600052528c6000206105fd898254612dee565b905561061285838d3390600186015416613ea8565b61062586838d3390600286015416613f46565b8a60033392015416613fc2565b61067961064189601354612dee565b9788601355600454169b8c978b519485943398869192608093969594919660a084019784526020840152604083015260608201520152565b0390a4825191825286820152a36040519283528201527fe099ace9cc029768846f2abe32ce8983d72474335b42431e129401c1e9c0886b60403392a36001601c55005b634e487b7160e01b60009081526011600452fd5b83634e487b7160e01b60005260116004526000fd5b82634e487b7160e01b60005260116004526000fd5b60405162461bcd60e51b815260048101859052601481870152731554d110c81d1c985b9cd9995c8819985a5b195960621b6044820152606490fd5b6107559150853d871161075b575b61074d8183612cf7565b810190612e9c565b886104fc565b503d610743565b6040513d6000823e3d90fd5b60405162461bcd60e51b815260048101859052601c60248201527f55534443207072696365206973206e6f7420636f6e66696775726564000000006044820152606490fd5b346103fe5760203660031901126103fe576107cc612ab8565b600054906001600160a01b03808316916107e7338414612bd0565b16918215610826576001600160a01b031916821760009081557f8be0079c531659141344cd1fd0a4f28419497f9722a3daafe3b4186f6b6457e09080a3005b60405162461bcd60e51b815260206004820152600e60248201526d13dddb995c881c995c5d5a5c995960921b6044820152606490fd5b346103fe5760003660031901126103fe576020604051600a8152f35b346103fe5760003660031901126103fe576108976001601c5414612b93565b6002601c553360005260146020526040600020548015610921576004546001600160a01b03906108ca9082161515612c09565b336000526014602052600060408120556108e982338360045416612f61565b60045416906040519081527f6212d3b8329f12cd207169548d7570de1a41c72473a7313c176c13641c39aab760203392a36001601c55005b60405162461bcd60e51b81526020600482015260166024820152754e6f205553444320726566657272616c20626f6e757360501b6044820152606490fd5b346103fe5760403660031901126103fe57610978612af4565b602435908115158092036103fe57602060ff7fdd552374405792741cb7e6993ca7e6dd5400b9e45e80ca256ac09db4009c8937926109c160018060a01b03600054163314612bd0565b6109ca8161310c565b16928360005260078252604060002060ff1981541660ff8316179055604051908152a2005b346103fe5760203660031901126103fe5760ff610a0a612af4565b16600052600f6020526020604060002054604051908152f35b346103fe5760203660031901126103fe57610a3c612af4565b610a5160018060a01b03600054163314612bd0565b610a5f6001601c5414612b93565b6002601c55610a6d8161310c565b60ff811660005260106020526040600020548015610daf5760ff8216600052600e602052604060002054916103e89081840293808504831490151715610d42576127109360ff8216600052600f602052604060002054838102938185041490151715610d4257848104159384158095610da4575b15610d6e5760ff8316600052600e602052604060002054604051602081019144835242604083015243606083015260ff60f81b8660f81b16608083015283608183015260a182015260a1815260e0810181811067ffffffffffffffff821117610d58576040525190209080820660018101809111610d4257610b639085613171565b956001600160a01b03871615610d0a57610cd8575b868504610ca6575b60405191825260208201527f7ef17ebc298cc940dd307a6cde5f8230f0ef2aee27dca2d95320d0e88b042716604060ff851692a26001600160a01b0384166000818152600a6020908152604080832060ff87811680865291845293829020548251968b9004875260081c90931615159185019190915290927fd5e2c127c46eb00d0b5f0c368b3c217878cb46f88b4a6975e501b154542c5c8d9190a3838204610c2b575b6001601c55005b6004546001600160a01b039384166000818152600a6020908152604080832060ff9687168085529083529281902054815199909704895260089690961c9094161515938701939093529316939092917fdf312aec1d512369ede01a73501adadf38c6d2a0708fbdefce0599bcb8f7ff6f91a480808080610c24565b60ff8416600052600f6020526040600020610cc48887048254612c93565b9055610cd38786048588613276565b610b80565b60ff8416600052600e6020526040600020610cf68885048254612c93565b9055610d058784048588613201565b610b78565b60405162461bcd60e51b815260206004820152601060248201526f15da5b9b995c881b9bdd08199bdd5b9960821b6044820152606490fd5b634e487b7160e01b600052601160045260246000fd5b634e487b7160e01b600052604160045260246000fd5b60405162461bcd60e51b815260206004820152600e60248201526d139bc8191c985dc81c995dd85c9960921b6044820152606490fd5b508584041515610ae1565b60405162461bcd60e51b8152602060048201526009602482015268139bc81dd95a59da1d60ba1b6044820152606490fd5b346103fe5760203660031901126103fe576001600160a01b03610e01612ab8565b166000526009602052604060002080808080808080808080808080806011600f600e600d600c600b600a6009600860076006600560048d549d60018060a01b0360018201541660e052600260018060a01b03910154169e600360018060a01b03910154169f01549f01549f01549f01549f01549f01549f01549f01549f01549f01549f01549f01549f6010810154608052015460c05260405160a05260ff8116151560a0515260018060a01b039060081c16602060a051015260e051604060a0510152606060a0510152608060a051015260a08051015260c060a051015260e060a051015261010060a051015261012060a051015261014060a051015261016060a051015261018060a05101526101a060a05101526101c060a05101526101e060a051015261020060a051015260805161022060a051015260c05161024060a051015261026060a051f35b346103fe5760003660031901126103fe576020601354604051908152f35b346103fe5760203660031901126103fe5760ff610f85612af4565b1660005260116020526020604060002054604051908152f35b346103fe5760403660031901126103fe5760c0610fca610fbc612ab8565b610fc4612ae4565b90612dfb565b936040939193519586526020860152604085015260608401526080830152151560a0820152f35b346103fe5760203660031901126103fe5760ff61100c612af4565b16600052600c6020526020604060002054604051908152f35b612b04565b346103fe576020806003193601126103fe57611044612af4565b906110536001601c5414612b93565b6002601c556110618261310c565b33600052600a815260ff60406000209216918260005281526008604060002061109060ff8254841c1615612c55565b019081549182156110f8579060007fe478efad2d93638c429f97678f2517efcafee26463eaf608c398b94a2510eab592553360005260098152600e6040600020016110dc848254612c93565b90556110e88333612eb4565b6040519283523392a36001601c55005b60405162461bcd60e51b81526004810183905260086024820152674e6f207072697a6560c01b6044820152606490fd5b346103fe5760203660031901126103fe576001600160a01b03611149612ab8565b1660005260146020526020604060002054604051908152f35b346103fe5760203660031901126103fe5760ff61117d612af4565b1660005260086020526020604060002054604051908152f35b346103fe5760003660031901126103fe576001546040516001600160a01b039091168152602090f35b346103fe5760403660031901126103fe576111d8612ab8565b6111e0612ae4565b9060018060a01b0316600052601860205260ff604060002091166000526020526020604060002054604051908152f35b346103fe5760203660031901126103fe5760ff61122b612af4565b6112348161310c565b16600052601160205260408060002054600d602052816000205482519182526020820152f35b346103fe5760403660031901126103fe57611273612af4565b6024906112826024359161310c565b6007905b8082111561129957602082604051908152f35b9060018082018092116106d0571b60001981019081116106e55790611286565b346103fe5760403660031901126103fe576112d2612ab8565b6112da612ae4565b906112e48261310c565b60018060a01b0316600052600a60205260ff6040600020911660005260205260a0604060002080549060068101549061132c6002820154916009600882015491015490612dee565b9160ff604051948181161515865260081c1615156020850152604084015260608301526080820152f35b346103fe5760003660031901126103fe57602060405160198152f35b346103fe5760403660031901126103fe5760ff61138d612af4565b16600052600b6020526040600020602435600052602052610100604060002060ff815491600181015490600281015460038201549084600560048501549401549460405197885260018060a01b038116602089015260a01c1660408701526060860152608085015260a0840152818116151560c084015260081c16151560e0820152f35b612b3e565b346103fe5760403660031901126103fe5761142f612af4565b6024359061144860018060a01b03600054163314612bd0565b6114518161310c565b811561149f57604060ff7f68cb741d0779160e141ccf5dd579423de44febc76c0edddcc6167807a3c16af79216928360005260056020528160002090808254925582519182526020820152a2005b60405162461bcd60e51b8152602060048201526011602482015270141c9a58d9481a5cc81c995c5d5a5c9959607a1b6044820152606490fd5b346103fe5760003660031901126103fe576000546040516001600160a01b039091168152602090f35b346103fe5760203660031901126103fe5760ff61151c612af4565b1660005260106020526020604060002054604051908152f35b346103fe5760203660031901126103fe5760ff611550612af4565b16600052600e6020526020604060002054604051908152f35b346103fe5760203660031901126103fe576001600160a01b0361158a612ab8565b1660005260166020526020604060002054604051908152f35b346103fe5760003660031901126103fe5760206040516102588152f35b346103fe5760003660031901126103fe5760206040516101908152f35b346103fe5760403660031901126103fe5760206116096115fb612ab8565b611603612ae4565b90612d65565b604051908152f35b346103fe5760003660031901126103fe576000546001600160a01b039061163b9082163314612bd0565b6116496001601c5414612b93565b6002601c556012549081156116a25760207f95334f2d4e98187a454807e6ec3da804af4da5c99357a7398e2cf2505ac8821891600060125561168f848260015416612eb4565b6001541692604051908152a26001601c55005b60405162461bcd60e51b815260206004820152600f60248201526e4e6f2070726f6a656374206665657360881b6044820152606490fd5b346103fe5760603660031901126103fe576116f2612ab8565b6116fa612ace565b6001600160a01b0360443581811693908490036103fe57819061172282600054163314612bd0565b1691821561182257169081156117dd57821561179857826060927fd2d452a5df03f60ff9bf0ef1fc3498af992b0b6165c03b2f792cf596ee96530a946001600160601b0360a01b8481600154161760015582816002541617600255600354161760035560405192835260208301526040820152a1005b60405162461bcd60e51b815260206004820152601860248201527f4f70657261746f722077616c6c657420726571756972656400000000000000006044820152606490fd5b60405162461bcd60e51b815260206004820152601860248201527f54726561737572792077616c6c657420726571756972656400000000000000006044820152606490fd5b60405162461bcd60e51b815260206004820152601760248201527f50726f6a6563742077616c6c65742072657175697265640000000000000000006044820152606490fd5b346103fe5760403660031901126103fe57611880612ab8565b611888612ae4565b906118928261310c565b60018060a01b0316600052600a60205260ff60406000209116600052602052602060ff604060002054166040519015158152f35b346103fe5760003660031901126103fe576020604051611d7e8152f35b346103fe5760203660031901126103fe576001600160a01b03611904612ab8565b1660005260156020526020604060002054604051908152f35b346103fe5760203660031901126103fe57611936612ab8565b6000546001600160a01b039182916119519083163314612bd0565b1690811561199657600454826001600160601b0360a01b821617600455167f750dce806a7083b5c48405b1310300e4aa4241d21c26cd1348ec6f81324aeb9f600080a3005b60405162461bcd60e51b81526020600482015260136024820152721554d110c81d1bdad95b881c995c5d5a5c9959606a1b6044820152606490fd5b346103fe5760403660031901126103fe576119ea612ab8565b6119f2612ae4565b9060018060a01b0316600052600a60205260ff604060002091166000526020526101606040600020805490600181015490600281015460038201546004830154600584015490600685015492600786015494600960088801549701549760ff6040519a81811615158c5260081c16151560208b015260408a01526060890152608088015260a087015260c086015260e0850152610100840152610120830152610140820152f35b346103fe5760203660031901126103fe57611ab2612ab8565b6000610240604051611ac381612cda565b8281528260208201528260408201528260608201528260808201528260a08201528260c08201528260e08201528261010082015282610120820152826101408201528261016082015282610180820152826101a0820152826101c0820152826101e08201528261020082015282610220820152015260018060a01b031660005260096020526102606040600020610240604051611b5f81612cda565b601183549360ff85161515835260018060a01b038560081c16602084015260018060a01b03600182015416604084015260018060a01b03600282015416606084015260018060a01b036003820154166080840152600481015460a0840152600581015460c0840152600681015460e0840152600781015461010084015260088101546101208401526009810154610140840152600a810154610160840152600b810154610180840152600c8101546101a0840152600d8101546101c0840152600e8101546101e0840152600f810154610200840152601081015461022084015201548282015260ff60405193161515835260018060a01b03602082015116602084015260018060a01b03604082015116604084015260018060a01b03606082015116606084015260018060a01b03608082015116608084015260a081015160a084015260c081015160c084015260e081015160e08401526101008101516101008401526101208101516101208401526101408101516101408401526101608101516101608401526101808101516101808401526101a08101516101a08401526101c08101516101c08401526101e08101516101e08401526102008101516102008401526102208101516102208401520151610240820152f35b346103fe5760203660031901126103fe5760ff611d53612af4565b16600052600d6020526020604060002054604051908152f35b346103fe5760203660031901126103fe5760ff611d87612af4565b166000526007602052602060ff604060002054166040519015158152f35b346103fe5760003660031901126103fe5760206040516113888152f35b346103fe5760003660031901126103fe57602060405160148152f35b346103fe5760403660031901126103fe576060611df9612ab8565b611e01612ae4565b90611e0b8261310c565b60018060a01b03168060005260209060148252604060002054926017835260ff604060002091169081600052835260406000205491600052601883526040600020906000528252604060002054916040519384528301526040820152f35b346103fe5760403660031901126103fe57611e82612af4565b604051602435611e9182612cbd565b60008252600060e060209382858201528260408201528260608201528260808201528260a08201528260c08201520152611eca8361310c565b80151580611fde575b15611faa5760ff6101009316600052600b82526040600020906000528152604060002090604051611f0381612cbd565b82549283825260018101549260018060a01b039060ff81850195838116875281604087019160a01c1681526002850154926060870193845260038601549460808801958652600560048801549760a08a019889520154988460e060c08b019a828d1615158c52019a60081c1615158a526040519a8b52511690890152511660408701525160608601525160808501525160a084015251151560c083015251151560e0820152f35b60405162461bcd60e51b815260048101839052600c60248201526b125b9d985b1a590818d95b1b60a21b6044820152606490fd5b5060ff8316600052600c82526040600020548110611ed3565b60403660031901126103fe5761200b612af4565b612013612ace565b6120216001601c5414612b93565b6002601c5561202f8261310c565b60ff821691826000526020916007835261205060ff60406000205416612d19565b836000526005835260406000205434036122145761206f903383613014565b90611d7e8034029034159034830414811715610d4257612710809204926103b68034029034820414831715610d4257839004906102588034029034820414841715610d4257849004926101909081340291348304141715610d425788957fb85ef11be8aa73fba898a4935afe7d749e354cf349871a27f8934346a1b2e4ff6040958a9561218f7f4b36477d57294a9cd8dbda6c13fa93d36015734ac4eabb6c235f3ee6c9034a4e998b96048097612132826105d2876105d2886105d28d34612c93565b993360005260098152600e8c600020918a600052528b600020612156898254612dee565b905560018060a01b0361217186843384600187015416613cac565b61218387843384600287015416613d67565b60033392015416613e00565b6121d08761219f81601254612dee565b97886012558a519485943398869192608093969594919660a084019784526020840152604083015260608201520152565b0390a3825191825286820152a2604051913483528201527fe099ace9cc029768846f2abe32ce8983d72474335b42431e129401c1e9c0886b60403392a36001601c55005b60405162461bcd60e51b815260048101849052601860248201527f496e636f7272656374207061796d656e7420616d6f756e7400000000000000006044820152606490fd5b346103fe5760003660031901126103fe576002546040516001600160a01b039091168152602090f35b346103fe5760403660031901126103fe5761016061229e612ab8565b6101406122a9612ae4565b91604051926122b784612ca0565b6000845260006020850152600060408501526000606085015260006080850152600060a0850152600060c0850152600060e085015261010091600083860152600084610120968288820152015261230d8261310c565b60018060a01b0316600052600a60205260ff604060002091166000526020526040600020926040519161233f83612ca0565b600985549560ff87161515855260ff8760081c1615156020860152600181015460408601526002810154606086015260038101546080860152600481015460a0860152600581015460c0860152600681015460e086015260078101548386015260088101548486015201548484015260ff60405195161515855260208301511515602086015260408301516040860152606083015160608601526080830151608086015260a083015160a086015260c083015160c086015260e083015160e0860152808301519085015280820151908401520151610140820152f35b346103fe576020806003193601126103fe57612435612af4565b906124446001601c5414612b93565b6002601c556124528261310c565b6004546001600160a01b039061246b9082161515612c09565b33600052600a825260ff604060002093169283600052825261249860ff60406000205460081c1615612c55565b33600052601782526040600020836000528252604060002054908115612532577fcb5b06c056856bb82784094d6a04f2cdd54a8ca5035447b87427f46c8d0981319033600052601784526040600020856000528452600060408120553360005260158452604060002061250c848254612c93565b905561251d83338360045416612f61565b60045416926040519283523392a46001601c55005b60405162461bcd60e51b815260048101849052600d60248201526c4e6f2055534443207072697a6560981b6044820152606490fd5b346103fe5760403660031901126103fe57612580612af4565b6024359061259960018060a01b03600054163314612bd0565b6125a28161310c565b81156125f057604060ff7f3b7a8420bcf2581fac422a359ff730b951e902c11f27da90a7e97da9c068f9a69216928360005260066020528160002090808254925582519182526020820152a2005b60405162461bcd60e51b81526020600482015260166024820152751554d110c81c1c9a58d9481a5cc81c995c5d5a5c995960521b6044820152606490fd5b346103fe5760003660031901126103fe5760206040516103b68152f35b346103fe5760003660031901126103fe576000546001600160a01b03906126759082163314612bd0565b6126836001601c5414612b93565b6002601c55806004541690612699821515612c09565b6013549182156126f457826126b8916000601355836001541690612f61565b7f6f09a29fa95e6ca2c4c5b55c121d7269faf4d531e64e23d432f03e95bb6caa4760208260045416926001541693604051908152a36001601c55005b60405162461bcd60e51b81526020600482015260146024820152734e6f20555344432070726f6a656374206665657360601b6044820152606490fd5b346103fe5760203660031901126103fe5760ff61274b612af4565b1660005260056020526020604060002054604051908152f35b346103fe576020806003193601126103fe5760ff612780612af4565b6127898161310c565b16600052600f8152604060002054601082526127f0604060002054926011815260406000205490600d8152600c604060002054915260406000205491604051958695869192608093969594919660a084019784526020840152604083015260608201520152565b0390f35b346103fe5760003660031901126103fe5760206040516127108152f35b346103fe576020806003193601126103fe5760ff61282d612af4565b6128368161310c565b16600052600e8152604060002054601082526127f0604060002054926011815260406000205490600d8152600c604060002054915260406000205491604051958695869192608093969594919660a084019784526020840152604083015260608201520152565b346103fe5760003660031901126103fe576128bc6001601c5414612b93565b6002601c55336000526009602052600d604060002001548015612929573360005260096020526000600d6040822001556128f68133612eb4565b6040519081527f53473e2a2e0cc6840d80567f104277ea6daa0891e5316836bac38a686b79ea3360203392a26001601c55005b60405162461bcd60e51b81526020600482015260116024820152704e6f20726566657272616c20626f6e757360781b6044820152606490fd5b346103fe5760003660031901126103fe57602060405160118152f35b346103fe5760003660031901126103fe576020601254604051908152f35b346103fe5760003660031901126103fe576004546040516001600160a01b039091168152602090f35b346103fe5760403660031901126103fe576129de612ab8565b6129e6612ae4565b906129f08261310c565b60018060a01b0316600052600a60205260ff60406000209116600052602052602060ff60406000205460081c166040519015158152f35b346103fe5760203660031901126103fe5760ff612a42612af4565b1660005260066020526020604060002054604051908152f35b346103fe5760403660031901126103fe57612a74612ab8565b612a7c612ae4565b90612a868261310c565b60018060a01b0316600052600a60205260ff604060002091166000526020526020600760406000200154604051908152f35b600435906001600160a01b03821682036103fe57565b602435906001600160a01b03821682036103fe57565b6024359060ff821682036103fe57565b6004359060ff821682036103fe57565b346103fe5760003660031901126103fe5760206040516107d08152f35b346103fe5760003660031901126103fe5760206040516101f48152f35b346103fe5760003660031901126103fe57602060405160648152f35b346103fe5760003660031901126103fe57602060405160328152f35b346103fe5760003660031901126103fe5760206040516103e88152f35b15612b9a57565b60405162461bcd60e51b815260206004820152600e60248201526d1499595b9d1c985b9d0818d85b1b60921b6044820152606490fd5b15612bd757565b60405162461bcd60e51b815260206004820152600a60248201526927b7363c9037bbb732b960b11b6044820152606490fd5b15612c1057565b60405162461bcd60e51b815260206004820152601960248201527f5553444320746f6b656e206e6f7420636f6e66696775726564000000000000006044820152606490fd5b15612c5c57565b60405162461bcd60e51b815260206004820152600f60248201526e2632bb32b61034b990333937bd32b760891b6044820152606490fd5b91908203918211610d4257565b610160810190811067ffffffffffffffff821117610d5857604052565b610100810190811067ffffffffffffffff821117610d5857604052565b610260810190811067ffffffffffffffff821117610d5857604052565b90601f8019910116810190811067ffffffffffffffff821117610d5857604052565b15612d2057565b60405162461bcd60e51b815260206004820152601a60248201527f4c6576656c206973206e6f7420617661696c61626c65207965740000000000006044820152606490fd5b9060ff90612d728161310c565b1660009080825260106020526040822054928315612dd95760018060a01b03168252600a6020526040822090825260205260076040822001549061271091828102928184041490151715612dc557500490565b634e487b7160e01b81526011600452602490fd5b5050905090565b9060018201809211610d4257565b91908201809211610d4257565b9190612e068161310c565b60009260018060a01b03168352600a60205260ff60408420911683526020526002604083200154918215612e8f57600b602052604081208382526020526040812080546002820154946003830154916004840154915b600180821115612e77571c94612e7190613e99565b94612e5c565b50509194909392600560ff9101541691959493929190565b8092509180918180918190565b908160209103126103fe575180151581036103fe5790565b8115612f5d57600080808094819460018060a01b03165af1903d15612f57573d9067ffffffffffffffff8211612f435760405191612efc601f8201601f191660200184612cf7565b825260203d92013e5b15612f0c57565b60405162461bcd60e51b815260206004820152600f60248201526e151c985b9cd9995c8819985a5b1959608a1b6044820152606490fd5b634e487b7160e01b81526041600452602490fd5b50612f05565b5050565b821561300f5760405163a9059cbb60e01b81526001600160a01b039283166004820152602481019390935260209183916044918391600091165af190811561076257600091612ff0575b5015612fb357565b60405162461bcd60e51b8152602060048201526015602482015274151bdad95b881d1c985b9cd9995c8819985a5b1959605a1b6044820152606490fd5b613009915060203d60201161075b5761074d8183612cf7565b38612fab565b505050565b9290919260009360018060a01b038416855260096020526040852090600a6020526040862060ff841687526020526040862060ff8154166130c75761305c6001928785613301565b8161ffff1982541617815501805490600182018092116130b3575560048101805490600182018092116130b3576130b194959650556011429101556130a1848261342c565b936130ac8282613829565b613b00565b565b634e487b7160e01b87526011600452602487fd5b60405162461bcd60e51b815260206004820152601760248201527f4c6576656c20697320616c7265616479206163746976650000000000000000006044820152606490fd5b60ff16600181108015613139575b6131215750565b60249060405190633d98c85560e21b82526004820152fd5b506011811161311a565b805482101561315b5760005260206000200190600090565b634e487b7160e01b600052603260045260246000fd5b9060ff600092169081835260209160196020526040936040812081958154965b8781106131a5575050505050505050600090565b6131e36131b28285613143565b905460039190911b1c6001600160a01b03166000818152600a8a528481208882528a52849020600701549095612dee565b93848711156131f55750600101613191565b97505050505050505090565b60409060018060a01b031691600090838252600a60205260ff838320911682526020528181209281526009602052209060ff815460081c166132615761325d916008600e9201613252858254612dee565b905501918254612dee565b9055565b61325d916009600f9201613252858254612dee565b60018060a01b0316906000828152602092600a845260409260ff848420911690818452855260ff8484205460081c166132dc57938161325d9560159385526017835285852090855282528484206132ce888254612dee565b905583525220918254612dee565b938161325d9560169385526018835285852090855282528484206132ce888254612dee565b91825460ff81166133e6576001600160a81b031916600883901b610100600160a81b03161760011783554260108401556001600160a01b0390811691821515908290826133d9575b5050806133c1575b61335a57505050565b600360018401926001600160601b0360a01b93818582541617905560009081526009602052828060016040842001541660028701818782541617905580156000146133af575050935b01921690825416179055565b825260409091206001015416936133a3565b5081600052600960205260ff60406000205416613351565b1683141590508138613349565b50505050565b805468010000000000000000811015610d585761340e91600182018155613143565b60018060a09493941b038084549260031b9316831b921b1916179055565b9190916134468160ff16600052600c602052604060002090565b5415613804575b6134648160ff16600052600c602052604060002090565b5492839161347183612de0565b6134888260ff16600052600c602052604060002090565b55600183036137fa576000905b61349e8461403e565b61351b8160056134ce886134bf8760ff16600052600b602052604060002090565b90600052602052604060002090565b88815560018101805460ff60a01b60a089901b166001600160a81b03199091166001600160a01b038b1617179055866002820155019061ff00825491151560081b169061ff001916179055565b8260036135508461353e8860018060a01b0316600052600a602052604060002090565b9060ff16600052602052604060002090565b876002820155015561356f8260ff166000526011602052604060002090565b6135798154612de0565b90556135928260ff166000526011602052604060002090565b546135aa8360ff166000526008602052604060002090565b556135ee6135ea6135e3866135cc8660ff16600052601a602052604060002090565b9060018060a01b0316600052602052604060002090565b5460ff1690565b1590565b6137aa575b8261364a575b8161363260ff9261362a7fd8a08c0c1f4b5e930e1da0bd0b50635c1f9de780c217ce3fa2a17686579146c89561418e565b878388614226565b60405193845216926001600160a01b031691602090a4565b613665836134bf8460ff16600052600b602052604060002090565b6003810180546136de5760ff928760046136d18761353e6136b760017fd8a08c0c1f4b5e930e1da0bd0b50635c1f9de780c217ce3fa2a17686579146c89b99876136329a55015460018060a01b031690565b6001600160a01b03166000908152600a6020526040902090565b01555b92505091506135f9565b5094506004850180541560001461376d5761373a6001899788613740945561371060058201600160ff19825416179055565b0187600561372b8761353e6136b7865460018060a01b031690565b0155546001600160a01b031690565b8361405f565b7fd8a08c0c1f4b5e930e1da0bd0b50635c1f9de780c217ce3fa2a17686579146c89161363260ff926136d4565b60405162461bcd60e51b815260206004820152601560248201527414185c995b9d08185b1c9958591e4818db1bdcd959605a1b6044820152606490fd5b6137d56137c8856135cc8560ff16600052601a602052604060002090565b805460ff19166001179055565b6137f5846137f08460ff166000526019602052604060002090565b6133ec565b6135f3565b8260011c90613495565b61382461381e8260ff16600052600c602052604060002090565b60019055565b61344d565b6001600160a01b03166000818152601b6020908152604080832060ff9590951680845294825280832084845260098352818420600a8452828520878652845282852082549195909261389361388c600761388286614492565b96019586546143e8565b8094612dee565b9055600586016138a4838254612dee565b9055811561390b578361390091600a7ff3df9e133b197dfbba04af8b589dd996d7080575083d89b81dd8f5fc0377db5a986138e0868854612dee565b8755016138ee858254612dee565b90558981526010875220918254612dee565b9055549051908152a3565b5050505050505050565b60018060a01b031660008181526020601b8152604060ff81842095169485845282528083208484526009835281842093600a84528281208782528452600183822092019081549161396d61388c600761388286614440565b9055600686016138a4838254612dee565b60018060a01b031660008181526020601b8152604060ff81842095169485845282528083208484526009835281842093600a84528281208782528452600183822092019081549161396d61388c600761388286614417565b60018060a01b031660008181526020601b8152604060ff81842095169485845282528083208484526009835281842093600a84528281208782528452600183822092019081549161396d61388c600761388286614469565b60018060a01b031660008181526020601b8152604060ff81842095169485845282528083208484526009835281842093600a845282812087825284526003838220920190815491613a8661388c600761388286614417565b9055600886016138a4838254612dee565b60018060a01b031660008181526020601b8152604060ff81842095169485845282528083208484526009835281842093600a845282812087825284526004838220920190815491613aef61388c6007613882866143b8565b9055600986016138a4838254612dee565b60ff8092169060019160018111156133e657600191835b613b23575b5050505050565b8483169282841015613ca657848691819560018060a01b0385166000818152602090600a8252604080822085835283528082209283549360088a86821c16613b76575b5050505050505050011692613b17565b7fb0f7d96751587de2fbb05ae8bb25971ba7cd777de717eb3698b701d6c77396549561ff0019168255600990818301928684549485613c5b575b509250505086915052601891828252808420878552825280842054613be2575b50505080a33880808080808080613b66565b6015613c519287865284815282862089875281528286205494888752815282862089875281528583812055878652601781528286208987528152828620613c2a868254612dee565b905587865260168152828620613c41868254612c93565b9055878652528320918254612dee565b9055388080613bd0565b5501613c68838254612dee565b9055868552808352600f84862001613c81838254612c93565b90558685528252613c99600e84862001918254612dee565b9055388080808681613bb0565b50613b1c565b9092916001600160a01b038083169290919083158015613d4e575b613d2c579160ff82613d196040947fc0dc322d34d7e6a06259be3bac607c8ba2eb3200163a637ad7f20a70ebc11d7b96886000526009602052600d8760002001613d128b8254612dee565b9055613915565b83519687526064602088015216951693a4565b5091505060ff91925016600052600e60205261325d6040600020918254612dee565b5083600052600960205260ff6040600020541615613cc7565b9092916001600160a01b038083169290919083158015613de7575b613d2c579160ff82613dd46040947f76a46dbe9b38553ba3f9366dde5dfab2ae45ae902483379a3f0cb6eb5b74d42296886000526009602052600d8760002001613dcd8b8254612dee565b905561397e565b83519687526032602088015216951693a4565b5083600052600960205260ff6040600020541615613d82565b9092916001600160a01b038083169290919083158015613e80575b613d2c579160ff82613e6d6040947fb81fbcd4b084ae8778037d60e56c538cebacb837e72623e7b204170addc1e24b96886000526009602052600d8760002001613e668b8254612dee565b90556139d6565b83519687526019602088015216951693a4565b5083600052600960205260ff6040600020541615613e1b565b6000198114610d425760010190565b9092916001600160a01b038083169290919083158015613f2d575b613f0b579160ff82613d196040947fc0dc322d34d7e6a06259be3bac607c8ba2eb3200163a637ad7f20a70ebc11d7b9688600052601460205286600020613d128b8254612dee565b5091505060ff91925016600052600f60205261325d6040600020918254612dee565b5083600052600960205260ff6040600020541615613ec3565b9092916001600160a01b038083169290919083158015613fa9575b613f0b579160ff82613dd46040947f76a46dbe9b38553ba3f9366dde5dfab2ae45ae902483379a3f0cb6eb5b74d4229688600052601460205286600020613dcd8b8254612dee565b5083600052600960205260ff6040600020541615613f61565b9092916001600160a01b038083169290919083158015614025575b613f0b579160ff82613e6d6040947fb81fbcd4b084ae8778037d60e56c538cebacb837e72623e7b204170addc1e24b9688600052601460205286600020613e668b8254612dee565b5083600052600960205260ff6040600020541615613fdd565b6007811015908161404d575090565b905060018101808211610d4257161590565b6001600160a01b0382166000908152600a6020526040902061408290829061353e565b6140906135ea825460ff1690565b61300f57600601916140a28354612de0565b83556001600160a01b0381166000908152600960205260409020600c016140c98154612de0565b90556001600160a01b0381166000908152600960205260409020600b016140f08154612de0565b90556140fc8282613a2e565b6141068282613a97565b614110818361342c565b92546040805191825260208201949094526130b19360ff8416916001600160a01b03841691839183917fbde1dd97b8c6b9fb71194209f50387cccf9ec5cc5c0e9aa18b13c93cf78ce6e891a3604051600181527fc216fcbbb04c29351601c08c37331f5699a51282f48da79353b90ab10ff8948790602090a36144b5565b60ff809116600090808252602091600d83526040918282205494851561421d575b945b818352600c855283832054811080614202575b156141d7576141d290613e99565b6141b1565b91929394508252600c84528282205481106000146141f857600d9093522055565b50600d8193522055565b50600b855283832081845285528560058585200154166141c4565b600195506141af565b921561300f5760ff811691600091838352602091600e8352604080852054936101f494858102908082048714901517156130b35761271080910495888852600f8352838820548181029181830414901517156143a45784918991049680614324575b5050508461429a575050505050505050565b846142e07f57cca56d6aea4f955145b97472f1141f1bb79a9d1bf59ea9dd3ad72466ad54ae966060968a8a52600f8552858a206142d8838254612c93565b90558b613276565b60ff8360018060a01b0380600454169b1698898152600a85528181208b82528552205460081c16918351948552840152151590820152a4388080808080808061390b565b818952600e8452848920614339828254612c93565b905561434681888d613201565b6001600160a01b038b16808a52600a8552858a20838b528552858a2054865192835260081c60ff1615156020830152907ff349ec77f93fc0622775ad3b5561a9ba55f1a991e72df46ed77bc72c724025b890604090a4828738614288565b634e487b7160e01b88526011600452602488fd5b6101f490818110156143e1578103908111610d425780600a116000146143db5790565b50600a90565b5050600090565b90611388918281101561440f578203918211610d42578181111561440a575090565b905090565b505050600090565b6107d090818110156143e1578103908111610d42578060321160001461443a5790565b50603290565b6107d090818110156143e1578103908111610d4257806064116000146144635790565b50606490565b6107d090818110156143e1578103908111610d42578060191160001461448c5790565b50601990565b6103e890818110156143e1578103908111610d4257806064116000146144635790565b60018060a01b03166000818152600a60205260ff6040822093169283825260205260408120906011841080614587575b80614544575b80614535575b6144fb5750505050565b7f9eedad69e1da086c8d70014edef61addc1d62bfdf25b1dcd3484ad720b9707629161010061ff001982541617905580a3388080806133e6565b5060ff825460081c16156144f1565b50828152600a602052604081206001850160ff81116145735760ff16825260205260ff604082205416156144eb565b634e487b7160e01b83526011600452602483fd5b506002600683015410156144e556fea2646970667358221220779180e2b29f75666b9943644a0d24fc1576e91a8e62e91388533cd52483c8cf64736f6c63430008180033","opcodes":"PUSH1 0x80 CALLVALUE PUSH3 0x371 JUMPI PUSH1 0x1F PUSH3 0x496E CODESIZE DUP2 SWAP1 SUB SWAP2 DUP3 ADD PUSH1 0x1F NOT AND DUP4 ADD SWAP2 SWAP1 PUSH1 0x1 PUSH1 0x1 PUSH1 0x40 SHL SUB DUP4 GT DUP5 DUP5 LT OR PUSH3 0x376 JUMPI DUP2 PUSH1 0x80 SWAP3 DUP6 SWAP3 PUSH1 0x40 SWAP6 DUP7 MSTORE DUP4 CODECOPY DUP2 ADD SUB SLT PUSH3 0x371 JUMPI PUSH3 0x50 DUP3 PUSH3 0x38C JUMP JUMPDEST PUSH1 0x20 PUSH3 0x60 PUSH1 0x20 DUP6 ADD PUSH3 0x38C JUMP JUMPDEST SWAP1 PUSH3 0x7C PUSH1 0x60 PUSH3 0x74 DUP7 DUP9 ADD PUSH3 0x38C JUMP JUMPDEST SWAP7 ADD PUSH3 0x38C JUMP JUMPDEST PUSH1 0x1 PUSH1 0x1C DUP2 SWAP1 SSTORE SWAP1 SWAP6 SWAP1 SWAP4 PUSH1 0x1 PUSH1 0x1 PUSH1 0xA0 SHL SUB SWAP1 DUP2 AND SWAP4 DUP5 ISZERO PUSH3 0x360 JUMPI DUP2 AND SWAP2 DUP3 ISZERO PUSH3 0x360 JUMPI DUP2 AND SWAP7 DUP8 ISZERO PUSH3 0x360 JUMPI AND DUP1 ISZERO PUSH3 0x34F JUMPI DUP5 SWAP7 PUSH1 0x1 DUP1 PUSH1 0xA0 SHL SUB NOT SWAP3 PUSH1 0x0 SWAP6 CALLER DUP6 DUP9 SLOAD AND OR DUP8 SSTORE DUP5 DUP9 SLOAD AND OR DUP8 SSTORE DUP4 PUSH1 0x2 SLOAD AND OR PUSH1 0x2 SSTORE DUP3 PUSH1 0x3 SLOAD AND OR PUSH1 0x3 SSTORE PUSH1 0x4 SWAP2 PUSH1 0x4 SLOAD AND OR PUSH1 0x4 SSTORE DUP4 DUP4 MSTORE PUSH1 0x5 PUSH1 0x20 MSTORE PUSH7 0xB1A2BC2EC50000 DUP6 DUP5 KECCAK256 SSTORE PUSH1 0x2 DUP4 MSTORE PUSH7 0xF8B0A10E470000 DUP6 DUP5 KECCAK256 SSTORE PUSH1 0x3 DUP4 MSTORE PUSH8 0x16345785D8A0000 DUP6 DUP5 KECCAK256 SSTORE PUSH1 0x4 DUP4 MSTORE PUSH8 0x1F161421C8E0000 DUP6 DUP5 KECCAK256 SSTORE PUSH1 0x5 DUP4 MSTORE PUSH8 0x2C68AF0BB140000 DUP6 DUP5 KECCAK256 SSTORE PUSH1 0x6 DUP4 MSTORE PUSH8 0x3E2C284391C0000 DUP6 DUP5 KECCAK256 SSTORE PUSH1 0x7 DUP1 DUP5 MSTORE PUSH8 0x58D15E176280000 DUP7 DUP6 KECCAK256 SSTORE PUSH1 0x8 DUP5 MSTORE PUSH8 0x7A1FE1602770000 DUP7 DUP6 KECCAK256 SSTORE PUSH1 0x9 DUP5 MSTORE PUSH8 0xB1A2BC2EC500000 DUP7 DUP6 KECCAK256 SSTORE PUSH1 0xA DUP5 MSTORE PUSH8 0xF43FC2C04EE0000 DUP7 DUP6 KECCAK256 SSTORE PUSH1 0xB DUP5 MSTORE PUSH8 0x16345785D8A00000 DUP7 DUP6 KECCAK256 SSTORE PUSH1 0xC DUP5 MSTORE PUSH8 0x1E87F85809DC0000 DUP7 DUP6 KECCAK256 SSTORE PUSH1 0xD DUP5 MSTORE PUSH8 0x2C68AF0BB1400000 DUP7 DUP6 KECCAK256 SSTORE PUSH1 0xE DUP5 MSTORE PUSH8 0x3D0FF0B013B80000 DUP7 DUP6 KECCAK256 SSTORE PUSH1 0xF DUP5 MSTORE PUSH8 0x5A34A38FC00A0000 DUP7 DUP6 KECCAK256 SSTORE PUSH1 0x10 DUP5 MSTORE PUSH8 0x6F05B59D3B200000 DUP7 DUP6 KECCAK256 SSTORE PUSH1 0x11 SWAP3 PUSH1 0x11 DUP6 MSTORE PUSH8 0xA688906BD8B00000 DUP8 DUP7 KECCAK256 SSTORE DUP6 DUP6 MSTORE PUSH1 0x6 PUSH1 0x20 MSTORE PUSH2 0xC350 DUP8 DUP7 KECCAK256 SSTORE PUSH1 0x2 DUP6 MSTORE PUSH3 0x11170 DUP8 DUP7 KECCAK256 SSTORE PUSH1 0x3 DUP6 MSTORE PUSH3 0x186A0 DUP8 DUP7 KECCAK256 SSTORE PUSH1 0x4 DUP6 MSTORE PUSH3 0x222E0 DUP8 DUP7 KECCAK256 SSTORE PUSH1 0x5 DUP6 MSTORE PUSH3 0x30D40 DUP8 DUP7 KECCAK256 SSTORE PUSH1 0x6 DUP6 MSTORE PUSH3 0x445C0 DUP8 DUP7 KECCAK256 SSTORE PUSH1 0x7 DUP6 MSTORE PUSH3 0x61A80 DUP8 DUP7 KECCAK256 SSTORE PUSH1 0x8 DUP6 MSTORE PUSH3 0x86470 DUP8 DUP7 KECCAK256 SSTORE PUSH1 0x9 DUP6 MSTORE PUSH3 0xC3500 DUP8 DUP7 KECCAK256 SSTORE PUSH1 0xA DUP6 MSTORE PUSH3 0x10C8E0 DUP8 DUP7 KECCAK256 SSTORE PUSH1 0xB DUP6 MSTORE PUSH3 0x186A00 DUP8 DUP7 KECCAK256 SSTORE PUSH1 0xC DUP6 MSTORE PUSH3 0x2191C0 DUP8 DUP7 KECCAK256 SSTORE PUSH1 0xD DUP6 MSTORE PUSH3 0x30D400 DUP8 DUP7 KECCAK256 SSTORE PUSH1 0xE DUP6 MSTORE PUSH3 0x432380 DUP8 DUP7 KECCAK256 SSTORE PUSH1 0xF DUP6 MSTORE PUSH3 0x632EA0 DUP8 DUP7 KECCAK256 SSTORE PUSH1 0x10 DUP6 MSTORE PUSH3 0x7A1200 DUP8 DUP7 KECCAK256 SSTORE PUSH1 0x11 DUP6 MSTORE PUSH3 0xB71B00 DUP8 DUP7 KECCAK256 SSTORE PUSH1 0x3 SWAP8 JUMPDEST PUSH3 0x2FF JUMPI JUMPDEST DUP7 MLOAD PUSH2 0x45CC SWAP1 DUP2 PUSH3 0x3A2 DUP3 CODECOPY RETURN JUMPDEST PUSH1 0xFF DUP9 AND DUP5 DUP2 GT PUSH3 0x348 JUMPI DUP6 MSTORE DUP2 DUP2 MSTORE DUP7 DUP6 KECCAK256 DUP1 SLOAD PUSH1 0xFF NOT AND DUP8 OR SWAP1 SSTORE PUSH1 0xFF SWAP8 DUP9 AND SWAP8 DUP9 EQ PUSH3 0x335 JUMPI SWAP7 DUP6 ADD SWAP7 DUP6 PUSH3 0x2EA JUMP JUMPDEST POP POP PUSH4 0x4E487B71 PUSH1 0xE0 SHL DUP4 MSTORE MSTORE PUSH1 0x24 SWAP2 POP REVERT JUMPDEST POP PUSH3 0x2F0 JUMP JUMPDEST DUP6 MLOAD PUSH4 0xD92E233D PUSH1 0xE0 SHL DUP2 MSTORE PUSH1 0x4 SWAP1 REVERT JUMPDEST DUP7 MLOAD PUSH4 0xD92E233D PUSH1 0xE0 SHL DUP2 MSTORE PUSH1 0x4 SWAP1 REVERT JUMPDEST PUSH1 0x0 DUP1 REVERT JUMPDEST PUSH4 0x4E487B71 PUSH1 0xE0 SHL PUSH1 0x0 MSTORE PUSH1 0x41 PUSH1 0x4 MSTORE PUSH1 0x24 PUSH1 0x0 REVERT JUMPDEST MLOAD SWAP1 PUSH1 0x1 PUSH1 0x1 PUSH1 0xA0 SHL SUB DUP3 AND DUP3 SUB PUSH3 0x371 JUMPI JUMP INVALID PUSH2 0x100 PUSH1 0x40 MSTORE PUSH1 0x4 CALLDATASIZE LT ISZERO PUSH2 0x53 JUMPI JUMPDEST CALLDATASIZE ISZERO PUSH2 0x1A JUMPI PUSH1 0x0 DUP1 REVERT JUMPDEST PUSH1 0x40 MLOAD PUSH3 0x461BCD PUSH1 0xE5 SHL DUP2 MSTORE PUSH1 0x20 PUSH1 0x4 DUP3 ADD MSTORE PUSH1 0x11 PUSH1 0x24 DUP3 ADD MSTORE PUSH17 0x155CD9481858DD1A5D985D1953195D995B PUSH1 0x7A SHL PUSH1 0x44 DUP3 ADD MSTORE PUSH1 0x64 SWAP1 REVERT JUMPDEST PUSH1 0x0 CALLDATALOAD PUSH1 0xE0 SHR DUP1 PUSH4 0x3A65DFA EQ PUSH2 0x2A5B JUMPI DUP1 PUSH4 0x4EB2734 EQ PUSH2 0x2A27 JUMPI DUP1 PUSH4 0xE475EFD EQ PUSH2 0x29C5 JUMPI DUP1 PUSH4 0x11EAC855 EQ PUSH2 0x299C JUMPI DUP1 PUSH4 0x19A08594 EQ PUSH2 0x297E JUMPI DUP1 PUSH4 0x1A1478C3 EQ PUSH2 0x1025 JUMPI DUP1 PUSH4 0x1D6A884B EQ PUSH2 0x2962 JUMPI DUP1 PUSH4 0x1E375AB9 EQ PUSH2 0x289D JUMPI DUP1 PUSH4 0x22FBFE80 EQ PUSH2 0x2811 JUMPI DUP1 PUSH4 0x249D39E9 EQ PUSH2 0x27F4 JUMPI DUP1 PUSH4 0x24BDC3A7 EQ PUSH2 0x403 JUMPI DUP1 PUSH4 0x26728174 EQ PUSH2 0x1411 JUMPI DUP1 PUSH4 0x26E0CFE7 EQ PUSH2 0x2764 JUMPI DUP1 PUSH4 0x2E50D906 EQ PUSH2 0x2730 JUMPI DUP1 PUSH4 0x2F5CED04 EQ PUSH2 0x431 JUMPI DUP1 PUSH4 0x306BF6BB EQ PUSH2 0x264B JUMPI DUP1 PUSH4 0x308C6109 EQ PUSH2 0x262E JUMPI DUP1 PUSH4 0x31B161A7 EQ PUSH2 0x3A8 JUMPI DUP1 PUSH4 0x333FEDAD EQ PUSH2 0x1411 JUMPI DUP1 PUSH4 0x3D5EFBAE EQ PUSH2 0x2567 JUMPI DUP1 PUSH4 0x3F896DD9 EQ PUSH2 0x241B JUMPI DUP1 PUSH4 0x40261FBB EQ PUSH2 0x2282 JUMPI DUP1 PUSH4 0x4626402B EQ PUSH2 0x2259 JUMPI DUP1 PUSH4 0x48D46BE1 EQ PUSH2 0x1FF7 JUMPI DUP1 PUSH4 0x4A57C6D9 EQ PUSH2 0x1E69 JUMPI DUP1 PUSH4 0x4CA3696C EQ PUSH2 0x1DDE JUMPI DUP1 PUSH4 0x4D69A4CD EQ PUSH2 0x1DC2 JUMPI DUP1 PUSH4 0x5042A91F EQ PUSH2 0x1DA5 JUMPI DUP1 PUSH4 0x50DA23DC EQ PUSH2 0x403 JUMPI DUP1 PUSH4 0x52EBB227 EQ PUSH2 0x1D6C JUMPI DUP1 PUSH4 0x52F5C84E EQ PUSH2 0x1D38 JUMPI DUP1 PUSH4 0x5C12CD4B EQ PUSH2 0x1A99 JUMPI DUP1 PUSH4 0x5C602D9E EQ PUSH2 0x19D1 JUMPI DUP1 PUSH4 0x5D886F22 EQ PUSH2 0x191D JUMPI DUP1 PUSH4 0x6B09F539 EQ PUSH2 0x18E3 JUMPI DUP1 PUSH4 0x72D686BF EQ PUSH2 0x18C6 JUMPI DUP1 PUSH4 0x75B7D7C1 EQ PUSH2 0x1867 JUMPI DUP1 PUSH4 0x75CB1BD1 EQ PUSH2 0x16D9 JUMPI DUP1 PUSH4 0x7A7C7A6A EQ PUSH2 0x1611 JUMPI DUP1 PUSH4 0x7DCDA2D4 EQ PUSH2 0x15DD JUMPI DUP1 PUSH4 0x7F3255A8 EQ PUSH2 0x15C0 JUMPI DUP1 PUSH4 0x852F8299 EQ PUSH2 0x15A3 JUMPI DUP1 PUSH4 0x86B8F4A1 EQ PUSH2 0x1569 JUMPI DUP1 PUSH4 0x8C5B8EA5 EQ PUSH2 0x1535 JUMPI DUP1 PUSH4 0x8D2724F9 EQ PUSH2 0x1501 JUMPI DUP1 PUSH4 0x8DA5CB5B EQ PUSH2 0x14D8 JUMPI DUP1 PUSH4 0x8EB657C4 EQ PUSH2 0x1416 JUMPI DUP1 PUSH4 0x90F7C71A EQ PUSH2 0x1411 JUMPI DUP1 PUSH4 0x94CECFF8 EQ PUSH2 0x1372 JUMPI DUP1 PUSH4 0x9B3728E8 EQ PUSH2 0x3A8 JUMPI DUP1 PUSH4 0x9FEF6862 EQ PUSH2 0x1356 JUMPI DUP1 PUSH4 0xA0978AC2 EQ PUSH2 0x12B9 JUMPI DUP1 PUSH4 0xB75B688B EQ PUSH2 0x125A JUMPI DUP1 PUSH4 0xB9AEE263 EQ PUSH2 0x1210 JUMPI DUP1 PUSH4 0xBEA99035 EQ PUSH2 0x11BF JUMPI DUP1 PUSH4 0xBEB08AB9 EQ PUSH2 0x1196 JUMPI DUP1 PUSH4 0xC05DB4CE EQ PUSH2 0x1162 JUMPI DUP1 PUSH4 0xC7FCB8C3 EQ PUSH2 0x1128 JUMPI DUP1 PUSH4 0xC864CE56 EQ PUSH2 0x102A JUMPI DUP1 PUSH4 0xC8F17CE3 EQ PUSH2 0x1025 JUMPI DUP1 PUSH4 0xCE9FFFAA EQ PUSH2 0xFF1 JUMPI DUP1 PUSH4 0xD2A16080 EQ PUSH2 0xF9E JUMPI DUP1 PUSH4 0xDBBA0540 EQ PUSH2 0xF6A JUMPI DUP1 PUSH4 0xE26F7C46 EQ PUSH2 0xF4C JUMPI DUP1 PUSH4 0xE2EB41FF EQ PUSH2 0xDE0 JUMPI DUP1 PUSH4 0xE69D2CA7 EQ PUSH2 0xA23 JUMPI DUP1 PUSH4 0xE8A8BD5C EQ PUSH2 0x9EF JUMPI DUP1 PUSH4 0xED270C16 EQ PUSH2 0x95F JUMPI DUP1 PUSH4 0xEDFAE883 EQ PUSH2 0x878 JUMPI DUP1 PUSH4 0xF178FB1B EQ PUSH2 0x85C JUMPI DUP1 PUSH4 0xF2FDE38B EQ PUSH2 0x7B3 JUMPI DUP1 PUSH4 0xF4F5058D EQ PUSH2 0x436 JUMPI DUP1 PUSH4 0xF6D5F69A EQ PUSH2 0x431 JUMPI DUP1 PUSH4 0xF90EF4AC EQ PUSH2 0x408 JUMPI DUP1 PUSH4 0xF9335139 EQ PUSH2 0x403 JUMPI DUP1 PUSH4 0xF935C2D6 EQ PUSH2 0x3AD JUMPI PUSH4 0xF943CBC6 SUB PUSH2 0xF JUMPI JUMPDEST PUSH2 0x2B76 JUMP JUMPDEST CALLVALUE PUSH2 0x3FE JUMPI PUSH1 0x40 CALLDATASIZE PUSH1 0x3 NOT ADD SLT PUSH2 0x3FE JUMPI PUSH2 0x3C6 PUSH2 0x2AB8 JUMP JUMPDEST PUSH2 0x3CE PUSH2 0x2AE4 JUMP JUMPDEST SWAP1 PUSH1 0x1 DUP1 PUSH1 0xA0 SHL SUB AND PUSH1 0x0 MSTORE PUSH1 0x17 PUSH1 0x20 MSTORE PUSH1 0xFF PUSH1 0x40 PUSH1 0x0 KECCAK256 SWAP2 AND PUSH1 0x0 MSTORE PUSH1 0x20 MSTORE PUSH1 0x20 PUSH1 0x40 PUSH1 0x0 KECCAK256 SLOAD PUSH1 0x40 MLOAD SWAP1 DUP2 MSTORE RETURN JUMPDEST PUSH1 0x0 DUP1 REVERT JUMPDEST PUSH2 0x2B21 JUMP JUMPDEST CALLVALUE PUSH2 0x3FE JUMPI PUSH1 0x0 CALLDATASIZE PUSH1 0x3 NOT ADD SLT PUSH2 0x3FE JUMPI PUSH1 0x3 SLOAD PUSH1 0x40 MLOAD PUSH1 0x1 PUSH1 0x1 PUSH1 0xA0 SHL SUB SWAP1 SWAP2 AND DUP2 MSTORE PUSH1 0x20 SWAP1 RETURN JUMPDEST PUSH2 0x2B5A JUMP JUMPDEST CALLVALUE PUSH2 0x3FE JUMPI PUSH1 0x40 CALLDATASIZE PUSH1 0x3 NOT ADD SLT PUSH2 0x3FE JUMPI PUSH2 0x44F PUSH2 0x2AF4 JUMP JUMPDEST PUSH2 0x457 PUSH2 0x2ACE JUMP JUMPDEST PUSH2 0x465 PUSH1 0x1 PUSH1 0x1C SLOAD EQ PUSH2 0x2B93 JUMP JUMPDEST PUSH1 0x2 PUSH1 0x1C SSTORE PUSH2 0x473 DUP3 PUSH2 0x310C JUMP JUMPDEST PUSH1 0xFF DUP3 AND SWAP2 DUP3 PUSH1 0x0 MSTORE PUSH1 0x20 PUSH1 0x7 DUP2 MSTORE PUSH2 0x493 PUSH1 0xFF PUSH1 0x40 PUSH1 0x0 KECCAK256 SLOAD AND PUSH2 0x2D19 JUMP JUMPDEST PUSH1 0x4 SLOAD PUSH1 0x1 PUSH1 0x1 PUSH1 0xA0 SHL SUB SWAP1 DUP2 AND SWAP3 SWAP1 PUSH2 0x4AE DUP5 ISZERO ISZERO PUSH2 0x2C09 JUMP JUMPDEST DUP6 PUSH1 0x0 MSTORE PUSH1 0x6 DUP4 MSTORE PUSH1 0x40 PUSH1 0x0 KECCAK256 SLOAD SWAP5 DUP6 ISZERO PUSH2 0x76E JUMPI PUSH1 0x40 MLOAD PUSH4 0x23B872DD PUSH1 0xE0 SHL DUP2 MSTORE CALLER PUSH1 0x4 DUP3 ADD MSTORE DUP5 DUP2 PUSH1 0x64 DUP2 PUSH1 0x0 PUSH1 0x24 SWAP11 ADDRESS DUP13 DUP5 ADD MSTORE DUP13 PUSH1 0x44 DUP5 ADD MSTORE GAS CALL SWAP1 DUP2 ISZERO PUSH2 0x762 JUMPI PUSH1 0x0 SWAP2 PUSH2 0x735 JUMPI JUMPDEST POP ISZERO PUSH2 0x6FA JUMPI PUSH2 0x50D SWAP1 CALLER DUP5 PUSH2 0x3014 JUMP JUMPDEST SWAP4 PUSH2 0x1D7E DUP7 MUL SWAP1 PUSH2 0x1D7D NOT DUP8 DUP4 DIV ADD PUSH2 0x6BC JUMPI PUSH2 0x2710 DUP1 SWAP3 DIV SWAP2 PUSH2 0x3B6 DUP1 DUP10 MUL SWAP1 DUP10 DUP3 DIV SUB PUSH2 0x6E5 JUMPI DUP2 SWAP1 DIV SWAP1 PUSH2 0x258 DUP10 MUL PUSH2 0x257 NOT DUP11 DUP3 DIV ADD PUSH2 0x6D0 JUMPI DUP2 SWAP1 DIV SWAP3 PUSH2 0x190 DUP11 MUL SWAP1 PUSH2 0x18F NOT DUP12 DUP4 DIV ADD PUSH2 0x6BC JUMPI POP DUP11 DUP6 PUSH32 0x7A14A1BABC4A5AE45F861ABAF72C1B5410A6A47BCD895B29DB0AA9D61DB01D1C DUP7 DUP7 PUSH2 0x632 DUP16 SWAP11 PUSH2 0x5D7 DUP16 SWAP11 SWAP13 DUP9 SWAP16 SWAP15 SWAP11 PUSH1 0x40 SWAP14 PUSH32 0x84C9AA800E59F9827A5BED559D2F7B6C5E3E446A7BA1A56D2193016565B7BAB1 SWAP16 PUSH2 0x5D2 SWAP1 PUSH2 0x5D2 SWAP4 PUSH2 0x5D2 SWAP15 DIV SWAP14 DUP15 SWAP8 DUP9 SWAP7 PUSH2 0x2C93 JUMP JUMPDEST PUSH2 0x2C93 JUMP JUMPDEST SWAP13 DUP14 SWAP11 CALLER PUSH1 0x0 MSTORE PUSH1 0x9 DUP2 MSTORE PUSH1 0xF DUP14 PUSH1 0x0 KECCAK256 SWAP2 DUP11 PUSH1 0x0 MSTORE MSTORE DUP13 PUSH1 0x0 KECCAK256 PUSH2 0x5FD DUP10 DUP3 SLOAD PUSH2 0x2DEE JUMP JUMPDEST SWAP1 SSTORE PUSH2 0x612 DUP6 DUP4 DUP14 CALLER SWAP1 PUSH1 0x1 DUP7 ADD SLOAD AND PUSH2 0x3EA8 JUMP JUMPDEST PUSH2 0x625 DUP7 DUP4 DUP14 CALLER SWAP1 PUSH1 0x2 DUP7 ADD SLOAD AND PUSH2 0x3F46 JUMP JUMPDEST DUP11 PUSH1 0x3 CALLER SWAP3 ADD SLOAD AND PUSH2 0x3FC2 JUMP JUMPDEST PUSH2 0x679 PUSH2 0x641 DUP10 PUSH1 0x13 SLOAD PUSH2 0x2DEE JUMP JUMPDEST SWAP8 DUP9 PUSH1 0x13 SSTORE PUSH1 0x4 SLOAD AND SWAP12 DUP13 SWAP8 DUP12 MLOAD SWAP5 DUP6 SWAP5 CALLER SWAP9 DUP7 SWAP2 SWAP3 PUSH1 0x80 SWAP4 SWAP7 SWAP6 SWAP5 SWAP2 SWAP7 PUSH1 0xA0 DUP5 ADD SWAP8 DUP5 MSTORE PUSH1 0x20 DUP5 ADD MSTORE PUSH1 0x40 DUP4 ADD MSTORE PUSH1 0x60 DUP3 ADD MSTORE ADD MSTORE JUMP JUMPDEST SUB SWAP1 LOG4 DUP3 MLOAD SWAP2 DUP3 MSTORE DUP7 DUP3 ADD MSTORE LOG3 PUSH1 0x40 MLOAD SWAP3 DUP4 MSTORE DUP3 ADD MSTORE PUSH32 0xE099ACE9CC029768846F2ABE32CE8983D72474335B42431E129401C1E9C0886B PUSH1 0x40 CALLER SWAP3 LOG3 PUSH1 0x1 PUSH1 0x1C SSTORE STOP JUMPDEST PUSH4 0x4E487B71 PUSH1 0xE0 SHL PUSH1 0x0 SWAP1 DUP2 MSTORE PUSH1 0x11 PUSH1 0x4 MSTORE REVERT JUMPDEST DUP4 PUSH4 0x4E487B71 PUSH1 0xE0 SHL PUSH1 0x0 MSTORE PUSH1 0x11 PUSH1 0x4 MSTORE PUSH1 0x0 REVERT JUMPDEST DUP3 PUSH4 0x4E487B71 PUSH1 0xE0 SHL PUSH1 0x0 MSTORE PUSH1 0x11 PUSH1 0x4 MSTORE PUSH1 0x0 REVERT JUMPDEST PUSH1 0x40 MLOAD PUSH3 0x461BCD PUSH1 0xE5 SHL DUP2 MSTORE PUSH1 0x4 DUP2 ADD DUP6 SWAP1 MSTORE PUSH1 0x14 DUP2 DUP8 ADD MSTORE PUSH20 0x1554D110C81D1C985B9CD9995C8819985A5B1959 PUSH1 0x62 SHL PUSH1 0x44 DUP3 ADD MSTORE PUSH1 0x64 SWAP1 REVERT JUMPDEST PUSH2 0x755 SWAP2 POP DUP6 RETURNDATASIZE DUP8 GT PUSH2 0x75B JUMPI JUMPDEST PUSH2 0x74D DUP2 DUP4 PUSH2 0x2CF7 JUMP JUMPDEST DUP2 ADD SWAP1 PUSH2 0x2E9C JUMP JUMPDEST DUP9 PUSH2 0x4FC JUMP JUMPDEST POP RETURNDATASIZE PUSH2 0x743 JUMP JUMPDEST PUSH1 0x40 MLOAD RETURNDATASIZE PUSH1 0x0 DUP3 RETURNDATACOPY RETURNDATASIZE SWAP1 REVERT JUMPDEST PUSH1 0x40 MLOAD PUSH3 0x461BCD PUSH1 0xE5 SHL DUP2 MSTORE PUSH1 0x4 DUP2 ADD DUP6 SWAP1 MSTORE PUSH1 0x1C PUSH1 0x24 DUP3 ADD MSTORE PUSH32 0x55534443207072696365206973206E6F7420636F6E6669677572656400000000 PUSH1 0x44 DUP3 ADD MSTORE PUSH1 0x64 SWAP1 REVERT JUMPDEST CALLVALUE PUSH2 0x3FE JUMPI PUSH1 0x20 CALLDATASIZE PUSH1 0x3 NOT ADD SLT PUSH2 0x3FE JUMPI PUSH2 0x7CC PUSH2 0x2AB8 JUMP JUMPDEST PUSH1 0x0 SLOAD SWAP1 PUSH1 0x1 PUSH1 0x1 PUSH1 0xA0 SHL SUB DUP1 DUP4 AND SWAP2 PUSH2 0x7E7 CALLER DUP5 EQ PUSH2 0x2BD0 JUMP JUMPDEST AND SWAP2 DUP3 ISZERO PUSH2 0x826 JUMPI PUSH1 0x1 PUSH1 0x1 PUSH1 0xA0 SHL SUB NOT AND DUP3 OR PUSH1 0x0 SWAP1 DUP2 SSTORE PUSH32 0x8BE0079C531659141344CD1FD0A4F28419497F9722A3DAAFE3B4186F6B6457E0 SWAP1 DUP1 LOG3 STOP JUMPDEST PUSH1 0x40 MLOAD PUSH3 0x461BCD PUSH1 0xE5 SHL DUP2 MSTORE PUSH1 0x20 PUSH1 0x4 DUP3 ADD MSTORE PUSH1 0xE PUSH1 0x24 DUP3 ADD MSTORE PUSH14 0x13DDDB995C881C995C5D5A5C9959 PUSH1 0x92 SHL PUSH1 0x44 DUP3 ADD MSTORE PUSH1 0x64 SWAP1 REVERT JUMPDEST CALLVALUE PUSH2 0x3FE JUMPI PUSH1 0x0 CALLDATASIZE PUSH1 0x3 NOT ADD SLT PUSH2 0x3FE JUMPI PUSH1 0x20 PUSH1 0x40 MLOAD PUSH1 0xA DUP2 MSTORE RETURN JUMPDEST CALLVALUE PUSH2 0x3FE JUMPI PUSH1 0x0 CALLDATASIZE PUSH1 0x3 NOT ADD SLT PUSH2 0x3FE JUMPI PUSH2 0x897 PUSH1 0x1 PUSH1 0x1C SLOAD EQ PUSH2 0x2B93 JUMP JUMPDEST PUSH1 0x2 PUSH1 0x1C SSTORE CALLER PUSH1 0x0 MSTORE PUSH1 0x14 PUSH1 0x20 MSTORE PUSH1 0x40 PUSH1 0x0 KECCAK256 SLOAD DUP1 ISZERO PUSH2 0x921 JUMPI PUSH1 0x4 SLOAD PUSH1 0x1 PUSH1 0x1 PUSH1 0xA0 SHL SUB SWAP1 PUSH2 0x8CA SWAP1 DUP3 AND ISZERO ISZERO PUSH2 0x2C09 JUMP JUMPDEST CALLER PUSH1 0x0 MSTORE PUSH1 0x14 PUSH1 0x20 MSTORE PUSH1 0x0 PUSH1 0x40 DUP2 KECCAK256 SSTORE PUSH2 0x8E9 DUP3 CALLER DUP4 PUSH1 0x4 SLOAD AND PUSH2 0x2F61 JUMP JUMPDEST PUSH1 0x4 SLOAD AND SWAP1 PUSH1 0x40 MLOAD SWAP1 DUP2 MSTORE PUSH32 0x6212D3B8329F12CD207169548D7570DE1A41C72473A7313C176C13641C39AAB7 PUSH1 0x20 CALLER SWAP3 LOG3 PUSH1 0x1 PUSH1 0x1C SSTORE STOP JUMPDEST PUSH1 0x40 MLOAD PUSH3 0x461BCD PUSH1 0xE5 SHL DUP2 MSTORE PUSH1 0x20 PUSH1 0x4 DUP3 ADD MSTORE PUSH1 0x16 PUSH1 0x24 DUP3 ADD MSTORE PUSH22 0x4E6F205553444320726566657272616C20626F6E7573 PUSH1 0x50 SHL PUSH1 0x44 DUP3 ADD MSTORE PUSH1 0x64 SWAP1 REVERT JUMPDEST CALLVALUE PUSH2 0x3FE JUMPI PUSH1 0x40 CALLDATASIZE PUSH1 0x3 NOT ADD SLT PUSH2 0x3FE JUMPI PUSH2 0x978 PUSH2 0x2AF4 JUMP JUMPDEST PUSH1 0x24 CALLDATALOAD SWAP1 DUP2 ISZERO ISZERO DUP1 SWAP3 SUB PUSH2 0x3FE JUMPI PUSH1 0x20 PUSH1 0xFF PUSH32 0xDD552374405792741CB7E6993CA7E6DD5400B9E45E80CA256AC09DB4009C8937 SWAP3 PUSH2 0x9C1 PUSH1 0x1 DUP1 PUSH1 0xA0 SHL SUB PUSH1 0x0 SLOAD AND CALLER EQ PUSH2 0x2BD0 JUMP JUMPDEST PUSH2 0x9CA DUP2 PUSH2 0x310C JUMP JUMPDEST AND SWAP3 DUP4 PUSH1 0x0 MSTORE PUSH1 0x7 DUP3 MSTORE PUSH1 0x40 PUSH1 0x0 KECCAK256 PUSH1 0xFF NOT DUP2 SLOAD AND PUSH1 0xFF DUP4 AND OR SWAP1 SSTORE PUSH1 0x40 MLOAD SWAP1 DUP2 MSTORE LOG2 STOP JUMPDEST CALLVALUE PUSH2 0x3FE JUMPI PUSH1 0x20 CALLDATASIZE PUSH1 0x3 NOT ADD SLT PUSH2 0x3FE JUMPI PUSH1 0xFF PUSH2 0xA0A PUSH2 0x2AF4 JUMP JUMPDEST AND PUSH1 0x0 MSTORE PUSH1 0xF PUSH1 0x20 MSTORE PUSH1 0x20 PUSH1 0x40 PUSH1 0x0 KECCAK256 SLOAD PUSH1 0x40 MLOAD SWAP1 DUP2 MSTORE RETURN JUMPDEST CALLVALUE PUSH2 0x3FE JUMPI PUSH1 0x20 CALLDATASIZE PUSH1 0x3 NOT ADD SLT PUSH2 0x3FE JUMPI PUSH2 0xA3C PUSH2 0x2AF4 JUMP JUMPDEST PUSH2 0xA51 PUSH1 0x1 DUP1 PUSH1 0xA0 SHL SUB PUSH1 0x0 SLOAD AND CALLER EQ PUSH2 0x2BD0 JUMP JUMPDEST PUSH2 0xA5F PUSH1 0x1 PUSH1 0x1C SLOAD EQ PUSH2 0x2B93 JUMP JUMPDEST PUSH1 0x2 PUSH1 0x1C SSTORE PUSH2 0xA6D DUP2 PUSH2 0x310C JUMP JUMPDEST PUSH1 0xFF DUP2 AND PUSH1 0x0 MSTORE PUSH1 0x10 PUSH1 0x20 MSTORE PUSH1 0x40 PUSH1 0x0 KECCAK256 SLOAD DUP1 ISZERO PUSH2 0xDAF JUMPI PUSH1 0xFF DUP3 AND PUSH1 0x0 MSTORE PUSH1 0xE PUSH1 0x20 MSTORE PUSH1 0x40 PUSH1 0x0 KECCAK256 SLOAD SWAP2 PUSH2 0x3E8 SWAP1 DUP2 DUP5 MUL SWAP4 DUP1 DUP6 DIV DUP4 EQ SWAP1 ISZERO OR ISZERO PUSH2 0xD42 JUMPI PUSH2 0x2710 SWAP4 PUSH1 0xFF DUP3 AND PUSH1 0x0 MSTORE PUSH1 0xF PUSH1 0x20 MSTORE PUSH1 0x40 PUSH1 0x0 KECCAK256 SLOAD DUP4 DUP2 MUL SWAP4 DUP2 DUP6 DIV EQ SWAP1 ISZERO OR ISZERO PUSH2 0xD42 JUMPI DUP5 DUP2 DIV ISZERO SWAP4 DUP5 ISZERO DUP1 SWAP6 PUSH2 0xDA4 JUMPI JUMPDEST ISZERO PUSH2 0xD6E JUMPI PUSH1 0xFF DUP4 AND PUSH1 0x0 MSTORE PUSH1 0xE PUSH1 0x20 MSTORE PUSH1 0x40 PUSH1 0x0 KECCAK256 SLOAD PUSH1 0x40 MLOAD PUSH1 0x20 DUP2 ADD SWAP2 PREVRANDAO DUP4 MSTORE TIMESTAMP PUSH1 0x40 DUP4 ADD MSTORE NUMBER PUSH1 0x60 DUP4 ADD MSTORE PUSH1 0xFF PUSH1 0xF8 SHL DUP7 PUSH1 0xF8 SHL AND PUSH1 0x80 DUP4 ADD MSTORE DUP4 PUSH1 0x81 DUP4 ADD MSTORE PUSH1 0xA1 DUP3 ADD MSTORE PUSH1 0xA1 DUP2 MSTORE PUSH1 0xE0 DUP2 ADD DUP2 DUP2 LT PUSH8 0xFFFFFFFFFFFFFFFF DUP3 GT OR PUSH2 0xD58 JUMPI PUSH1 0x40 MSTORE MLOAD SWAP1 KECCAK256 SWAP1 DUP1 DUP3 MOD PUSH1 0x1 DUP2 ADD DUP1 SWAP2 GT PUSH2 0xD42 JUMPI PUSH2 0xB63 SWAP1 DUP6 PUSH2 0x3171 JUMP JUMPDEST SWAP6 PUSH1 0x1 PUSH1 0x1 PUSH1 0xA0 SHL SUB DUP8 AND ISZERO PUSH2 0xD0A JUMPI PUSH2 0xCD8 JUMPI JUMPDEST DUP7 DUP6 DIV PUSH2 0xCA6 JUMPI JUMPDEST PUSH1 0x40 MLOAD SWAP2 DUP3 MSTORE PUSH1 0x20 DUP3 ADD MSTORE PUSH32 0x7EF17EBC298CC940DD307A6CDE5F8230F0EF2AEE27DCA2D95320D0E88B042716 PUSH1 0x40 PUSH1 0xFF DUP6 AND SWAP3 LOG2 PUSH1 0x1 PUSH1 0x1 PUSH1 0xA0 SHL SUB DUP5 AND PUSH1 0x0 DUP2 DUP2 MSTORE PUSH1 0xA PUSH1 0x20 SWAP1 DUP2 MSTORE PUSH1 0x40 DUP1 DUP4 KECCAK256 PUSH1 0xFF DUP8 DUP2 AND DUP1 DUP7 MSTORE SWAP2 DUP5 MSTORE SWAP4 DUP3 SWAP1 KECCAK256 SLOAD DUP3 MLOAD SWAP7 DUP12 SWAP1 DIV DUP8 MSTORE PUSH1 0x8 SHR SWAP1 SWAP4 AND ISZERO ISZERO SWAP2 DUP6 ADD SWAP2 SWAP1 SWAP2 MSTORE SWAP1 SWAP3 PUSH32 0xD5E2C127C46EB00D0B5F0C368B3C217878CB46F88B4A6975E501B154542C5C8D SWAP2 SWAP1 LOG3 DUP4 DUP3 DIV PUSH2 0xC2B JUMPI JUMPDEST PUSH1 0x1 PUSH1 0x1C SSTORE STOP JUMPDEST PUSH1 0x4 SLOAD PUSH1 0x1 PUSH1 0x1 PUSH1 0xA0 SHL SUB SWAP4 DUP5 AND PUSH1 0x0 DUP2 DUP2 MSTORE PUSH1 0xA PUSH1 0x20 SWAP1 DUP2 MSTORE PUSH1 0x40 DUP1 DUP4 KECCAK256 PUSH1 0xFF SWAP7 DUP8 AND DUP1 DUP6 MSTORE SWAP1 DUP4 MSTORE SWAP3 DUP2 SWAP1 KECCAK256 SLOAD DUP2 MLOAD SWAP10 SWAP1 SWAP8 DIV DUP10 MSTORE PUSH1 0x8 SWAP7 SWAP1 SWAP7 SHR SWAP1 SWAP5 AND ISZERO ISZERO SWAP4 DUP8 ADD SWAP4 SWAP1 SWAP4 MSTORE SWAP4 AND SWAP4 SWAP1 SWAP3 SWAP2 PUSH32 0xDF312AEC1D512369EDE01A73501ADADF38C6D2A0708FBDEFCE0599BCB8F7FF6F SWAP2 LOG4 DUP1 DUP1 DUP1 DUP1 PUSH2 0xC24 JUMP JUMPDEST PUSH1 0xFF DUP5 AND PUSH1 0x0 MSTORE PUSH1 0xF PUSH1 0x20 MSTORE PUSH1 0x40 PUSH1 0x0 KECCAK256 PUSH2 0xCC4 DUP9 DUP8 DIV DUP3 SLOAD PUSH2 0x2C93 JUMP JUMPDEST SWAP1 SSTORE PUSH2 0xCD3 DUP8 DUP7 DIV DUP6 DUP9 PUSH2 0x3276 JUMP JUMPDEST PUSH2 0xB80 JUMP JUMPDEST PUSH1 0xFF DUP5 AND PUSH1 0x0 MSTORE PUSH1 0xE PUSH1 0x20 MSTORE PUSH1 0x40 PUSH1 0x0 KECCAK256 PUSH2 0xCF6 DUP9 DUP6 DIV DUP3 SLOAD PUSH2 0x2C93 JUMP JUMPDEST SWAP1 SSTORE PUSH2 0xD05 DUP8 DUP5 DIV DUP6 DUP9 PUSH2 0x3201 JUMP JUMPDEST PUSH2 0xB78 JUMP JUMPDEST PUSH1 0x40 MLOAD PUSH3 0x461BCD PUSH1 0xE5 SHL DUP2 MSTORE PUSH1 0x20 PUSH1 0x4 DUP3 ADD MSTORE PUSH1 0x10 PUSH1 0x24 DUP3 ADD MSTORE PUSH16 0x15DA5B9B995C881B9BDD08199BDD5B99 PUSH1 0x82 SHL PUSH1 0x44 DUP3 ADD MSTORE PUSH1 0x64 SWAP1 REVERT JUMPDEST PUSH4 0x4E487B71 PUSH1 0xE0 SHL PUSH1 0x0 MSTORE PUSH1 0x11 PUSH1 0x4 MSTORE PUSH1 0x24 PUSH1 0x0 REVERT JUMPDEST PUSH4 0x4E487B71 PUSH1 0xE0 SHL PUSH1 0x0 MSTORE PUSH1 0x41 PUSH1 0x4 MSTORE PUSH1 0x24 PUSH1 0x0 REVERT JUMPDEST PUSH1 0x40 MLOAD PUSH3 0x461BCD PUSH1 0xE5 SHL DUP2 MSTORE PUSH1 0x20 PUSH1 0x4 DUP3 ADD MSTORE PUSH1 0xE PUSH1 0x24 DUP3 ADD MSTORE PUSH14 0x139BC8191C985DC81C995DD85C99 PUSH1 0x92 SHL PUSH1 0x44 DUP3 ADD MSTORE PUSH1 0x64 SWAP1 REVERT JUMPDEST POP DUP6 DUP5 DIV ISZERO ISZERO PUSH2 0xAE1 JUMP JUMPDEST PUSH1 0x40 MLOAD PUSH3 0x461BCD PUSH1 0xE5 SHL DUP2 MSTORE PUSH1 0x20 PUSH1 0x4 DUP3 ADD MSTORE PUSH1 0x9 PUSH1 0x24 DUP3 ADD MSTORE PUSH9 0x139BC81DD95A59DA1D PUSH1 0xBA SHL PUSH1 0x44 DUP3 ADD MSTORE PUSH1 0x64 SWAP1 REVERT JUMPDEST CALLVALUE PUSH2 0x3FE JUMPI PUSH1 0x20 CALLDATASIZE PUSH1 0x3 NOT ADD SLT PUSH2 0x3FE JUMPI PUSH1 0x1 PUSH1 0x1 PUSH1 0xA0 SHL SUB PUSH2 0xE01 PUSH2 0x2AB8 JUMP JUMPDEST AND PUSH1 0x0 MSTORE PUSH1 0x9 PUSH1 0x20 MSTORE PUSH1 0x40 PUSH1 0x0 KECCAK256 DUP1 DUP1 DUP1 DUP1 DUP1 DUP1 DUP1 DUP1 DUP1 DUP1 DUP1 DUP1 DUP1 DUP1 PUSH1 0x11 PUSH1 0xF PUSH1 0xE PUSH1 0xD PUSH1 0xC PUSH1 0xB PUSH1 0xA PUSH1 0x9 PUSH1 0x8 PUSH1 0x7 PUSH1 0x6 PUSH1 0x5 PUSH1 0x4 DUP14 SLOAD SWAP14 PUSH1 0x1 DUP1 PUSH1 0xA0 SHL SUB PUSH1 0x1 DUP3 ADD SLOAD AND PUSH1 0xE0 MSTORE PUSH1 0x2 PUSH1 0x1 DUP1 PUSH1 0xA0 SHL SUB SWAP2 ADD SLOAD AND SWAP15 PUSH1 0x3 PUSH1 0x1 DUP1 PUSH1 0xA0 SHL SUB SWAP2 ADD SLOAD AND SWAP16 ADD SLOAD SWAP16 ADD SLOAD SWAP16 ADD SLOAD SWAP16 ADD SLOAD SWAP16 ADD SLOAD SWAP16 ADD SLOAD SWAP16 ADD SLOAD SWAP16 ADD SLOAD SWAP16 ADD SLOAD SWAP16 ADD SLOAD SWAP16 ADD SLOAD SWAP16 ADD SLOAD SWAP16 PUSH1 0x10 DUP2 ADD SLOAD PUSH1 0x80 MSTORE ADD SLOAD PUSH1 0xC0 MSTORE PUSH1 0x40 MLOAD PUSH1 0xA0 MSTORE PUSH1 0xFF DUP2 AND ISZERO ISZERO PUSH1 0xA0 MLOAD MSTORE PUSH1 0x1 DUP1 PUSH1 0xA0 SHL SUB SWAP1 PUSH1 0x8 SHR AND PUSH1 0x20 PUSH1 0xA0 MLOAD ADD MSTORE PUSH1 0xE0 MLOAD PUSH1 0x40 PUSH1 0xA0 MLOAD ADD MSTORE PUSH1 0x60 PUSH1 0xA0 MLOAD ADD MSTORE PUSH1 0x80 PUSH1 0xA0 MLOAD ADD MSTORE PUSH1 0xA0 DUP1 MLOAD ADD MSTORE PUSH1 0xC0 PUSH1 0xA0 MLOAD ADD MSTORE PUSH1 0xE0 PUSH1 0xA0 MLOAD ADD MSTORE PUSH2 0x100 PUSH1 0xA0 MLOAD ADD MSTORE PUSH2 0x120 PUSH1 0xA0 MLOAD ADD MSTORE PUSH2 0x140 PUSH1 0xA0 MLOAD ADD MSTORE PUSH2 0x160 PUSH1 0xA0 MLOAD ADD MSTORE PUSH2 0x180 PUSH1 0xA0 MLOAD ADD MSTORE PUSH2 0x1A0 PUSH1 0xA0 MLOAD ADD MSTORE PUSH2 0x1C0 PUSH1 0xA0 MLOAD ADD MSTORE PUSH2 0x1E0 PUSH1 0xA0 MLOAD ADD MSTORE PUSH2 0x200 PUSH1 0xA0 MLOAD ADD MSTORE PUSH1 0x80 MLOAD PUSH2 0x220 PUSH1 0xA0 MLOAD ADD MSTORE PUSH1 0xC0 MLOAD PUSH2 0x240 PUSH1 0xA0 MLOAD ADD MSTORE PUSH2 0x260 PUSH1 0xA0 MLOAD RETURN JUMPDEST CALLVALUE PUSH2 0x3FE JUMPI PUSH1 0x0 CALLDATASIZE PUSH1 0x3 NOT ADD SLT PUSH2 0x3FE JUMPI PUSH1 0x20 PUSH1 0x13 SLOAD PUSH1 0x40 MLOAD SWAP1 DUP2 MSTORE RETURN JUMPDEST CALLVALUE PUSH2 0x3FE JUMPI PUSH1 0x20 CALLDATASIZE PUSH1 0x3 NOT ADD SLT PUSH2 0x3FE JUMPI PUSH1 0xFF PUSH2 0xF85 PUSH2 0x2AF4 JUMP JUMPDEST AND PUSH1 0x0 MSTORE PUSH1 0x11 PUSH1 0x20 MSTORE PUSH1 0x20 PUSH1 0x40 PUSH1 0x0 KECCAK256 SLOAD PUSH1 0x40 MLOAD SWAP1 DUP2 MSTORE RETURN JUMPDEST CALLVALUE PUSH2 0x3FE JUMPI PUSH1 0x40 CALLDATASIZE PUSH1 0x3 NOT ADD SLT PUSH2 0x3FE JUMPI PUSH1 0xC0 PUSH2 0xFCA PUSH2 0xFBC PUSH2 0x2AB8 JUMP JUMPDEST PUSH2 0xFC4 PUSH2 0x2AE4 JUMP JUMPDEST SWAP1 PUSH2 0x2DFB JUMP JUMPDEST SWAP4 PUSH1 0x40 SWAP4 SWAP2 SWAP4 MLOAD SWAP6 DUP7 MSTORE PUSH1 0x20 DUP7 ADD MSTORE PUSH1 0x40 DUP6 ADD MSTORE PUSH1 0x60 DUP5 ADD MSTORE PUSH1 0x80 DUP4 ADD MSTORE ISZERO ISZERO PUSH1 0xA0 DUP3 ADD MSTORE RETURN JUMPDEST CALLVALUE PUSH2 0x3FE JUMPI PUSH1 0x20 CALLDATASIZE PUSH1 0x3 NOT ADD SLT PUSH2 0x3FE JUMPI PUSH1 0xFF PUSH2 0x100C PUSH2 0x2AF4 JUMP JUMPDEST AND PUSH1 0x0 MSTORE PUSH1 0xC PUSH1 0x20 MSTORE PUSH1 0x20 PUSH1 0x40 PUSH1 0x0 KECCAK256 SLOAD PUSH1 0x40 MLOAD SWAP1 DUP2 MSTORE RETURN JUMPDEST PUSH2 0x2B04 JUMP JUMPDEST CALLVALUE PUSH2 0x3FE JUMPI PUSH1 0x20 DUP1 PUSH1 0x3 NOT CALLDATASIZE ADD SLT PUSH2 0x3FE JUMPI PUSH2 0x1044 PUSH2 0x2AF4 JUMP JUMPDEST SWAP1 PUSH2 0x1053 PUSH1 0x1 PUSH1 0x1C SLOAD EQ PUSH2 0x2B93 JUMP JUMPDEST PUSH1 0x2 PUSH1 0x1C SSTORE PUSH2 0x1061 DUP3 PUSH2 0x310C JUMP JUMPDEST CALLER PUSH1 0x0 MSTORE PUSH1 0xA DUP2 MSTORE PUSH1 0xFF PUSH1 0x40 PUSH1 0x0 KECCAK256 SWAP3 AND SWAP2 DUP3 PUSH1 0x0 MSTORE DUP2 MSTORE PUSH1 0x8 PUSH1 0x40 PUSH1 0x0 KECCAK256 PUSH2 0x1090 PUSH1 0xFF DUP3 SLOAD DUP5 SHR AND ISZERO PUSH2 0x2C55 JUMP JUMPDEST ADD SWAP1 DUP2 SLOAD SWAP2 DUP3 ISZERO PUSH2 0x10F8 JUMPI SWAP1 PUSH1 0x0 PUSH32 0xE478EFAD2D93638C429F97678F2517EFCAFEE26463EAF608C398B94A2510EAB5 SWAP3 SSTORE CALLER PUSH1 0x0 MSTORE PUSH1 0x9 DUP2 MSTORE PUSH1 0xE PUSH1 0x40 PUSH1 0x0 KECCAK256 ADD PUSH2 0x10DC DUP5 DUP3 SLOAD PUSH2 0x2C93 JUMP JUMPDEST SWAP1 SSTORE PUSH2 0x10E8 DUP4 CALLER PUSH2 0x2EB4 JUMP JUMPDEST PUSH1 0x40 MLOAD SWAP3 DUP4 MSTORE CALLER SWAP3 LOG3 PUSH1 0x1 PUSH1 0x1C SSTORE STOP JUMPDEST PUSH1 0x40 MLOAD PUSH3 0x461BCD PUSH1 0xE5 SHL DUP2 MSTORE PUSH1 0x4 DUP2 ADD DUP4 SWAP1 MSTORE PUSH1 0x8 PUSH1 0x24 DUP3 ADD MSTORE PUSH8 0x4E6F207072697A65 PUSH1 0xC0 SHL PUSH1 0x44 DUP3 ADD MSTORE PUSH1 0x64 SWAP1 REVERT JUMPDEST CALLVALUE PUSH2 0x3FE JUMPI PUSH1 0x20 CALLDATASIZE PUSH1 0x3 NOT ADD SLT PUSH2 0x3FE JUMPI PUSH1 0x1 PUSH1 0x1 PUSH1 0xA0 SHL SUB PUSH2 0x1149 PUSH2 0x2AB8 JUMP JUMPDEST AND PUSH1 0x0 MSTORE PUSH1 0x14 PUSH1 0x20 MSTORE PUSH1 0x20 PUSH1 0x40 PUSH1 0x0 KECCAK256 SLOAD PUSH1 0x40 MLOAD SWAP1 DUP2 MSTORE RETURN JUMPDEST CALLVALUE PUSH2 0x3FE JUMPI PUSH1 0x20 CALLDATASIZE PUSH1 0x3 NOT ADD SLT PUSH2 0x3FE JUMPI PUSH1 0xFF PUSH2 0x117D PUSH2 0x2AF4 JUMP JUMPDEST AND PUSH1 0x0 MSTORE PUSH1 0x8 PUSH1 0x20 MSTORE PUSH1 0x20 PUSH1 0x40 PUSH1 0x0 KECCAK256 SLOAD PUSH1 0x40 MLOAD SWAP1 DUP2 MSTORE RETURN JUMPDEST CALLVALUE PUSH2 0x3FE JUMPI PUSH1 0x0 CALLDATASIZE PUSH1 0x3 NOT ADD SLT PUSH2 0x3FE JUMPI PUSH1 0x1 SLOAD PUSH1 0x40 MLOAD PUSH1 0x1 PUSH1 0x1 PUSH1 0xA0 SHL SUB SWAP1 SWAP2 AND DUP2 MSTORE PUSH1 0x20 SWAP1 RETURN JUMPDEST CALLVALUE PUSH2 0x3FE JUMPI PUSH1 0x40 CALLDATASIZE PUSH1 0x3 NOT ADD SLT PUSH2 0x3FE JUMPI PUSH2 0x11D8 PUSH2 0x2AB8 JUMP JUMPDEST PUSH2 0x11E0 PUSH2 0x2AE4 JUMP JUMPDEST SWAP1 PUSH1 0x1 DUP1 PUSH1 0xA0 SHL SUB AND PUSH1 0x0 MSTORE PUSH1 0x18 PUSH1 0x20 MSTORE PUSH1 0xFF PUSH1 0x40 PUSH1 0x0 KECCAK256 SWAP2 AND PUSH1 0x0 MSTORE PUSH1 0x20 MSTORE PUSH1 0x20 PUSH1 0x40 PUSH1 0x0 KECCAK256 SLOAD PUSH1 0x40 MLOAD SWAP1 DUP2 MSTORE RETURN JUMPDEST CALLVALUE PUSH2 0x3FE JUMPI PUSH1 0x20 CALLDATASIZE PUSH1 0x3 NOT ADD SLT PUSH2 0x3FE JUMPI PUSH1 0xFF PUSH2 0x122B PUSH2 0x2AF4 JUMP JUMPDEST PUSH2 0x1234 DUP2 PUSH2 0x310C JUMP JUMPDEST AND PUSH1 0x0 MSTORE PUSH1 0x11 PUSH1 0x20 MSTORE PUSH1 0x40 DUP1 PUSH1 0x0 KECCAK256 SLOAD PUSH1 0xD PUSH1 0x20 MSTORE DUP2 PUSH1 0x0 KECCAK256 SLOAD DUP3 MLOAD SWAP2 DUP3 MSTORE PUSH1 0x20 DUP3 ADD MSTORE RETURN JUMPDEST CALLVALUE PUSH2 0x3FE JUMPI PUSH1 0x40 CALLDATASIZE PUSH1 0x3 NOT ADD SLT PUSH2 0x3FE JUMPI PUSH2 0x1273 PUSH2 0x2AF4 JUMP JUMPDEST PUSH1 0x24 SWAP1 PUSH2 0x1282 PUSH1 0x24 CALLDATALOAD SWAP2 PUSH2 0x310C JUMP JUMPDEST PUSH1 0x7 SWAP1 JUMPDEST DUP1 DUP3 GT ISZERO PUSH2 0x1299 JUMPI PUSH1 0x20 DUP3 PUSH1 0x40 MLOAD SWAP1 DUP2 MSTORE RETURN JUMPDEST SWAP1 PUSH1 0x1 DUP1 DUP3 ADD DUP1 SWAP3 GT PUSH2 0x6D0 JUMPI SHL PUSH1 0x0 NOT DUP2 ADD SWAP1 DUP2 GT PUSH2 0x6E5 JUMPI SWAP1 PUSH2 0x1286 JUMP JUMPDEST CALLVALUE PUSH2 0x3FE JUMPI PUSH1 0x40 CALLDATASIZE PUSH1 0x3 NOT ADD SLT PUSH2 0x3FE JUMPI PUSH2 0x12D2 PUSH2 0x2AB8 JUMP JUMPDEST PUSH2 0x12DA PUSH2 0x2AE4 JUMP JUMPDEST SWAP1 PUSH2 0x12E4 DUP3 PUSH2 0x310C JUMP JUMPDEST PUSH1 0x1 DUP1 PUSH1 0xA0 SHL SUB AND PUSH1 0x0 MSTORE PUSH1 0xA PUSH1 0x20 MSTORE PUSH1 0xFF PUSH1 0x40 PUSH1 0x0 KECCAK256 SWAP2 AND PUSH1 0x0 MSTORE PUSH1 0x20 MSTORE PUSH1 0xA0 PUSH1 0x40 PUSH1 0x0 KECCAK256 DUP1 SLOAD SWAP1 PUSH1 0x6 DUP2 ADD SLOAD SWAP1 PUSH2 0x132C PUSH1 0x2 DUP3 ADD SLOAD SWAP2 PUSH1 0x9 PUSH1 0x8 DUP3 ADD SLOAD SWAP2 ADD SLOAD SWAP1 PUSH2 0x2DEE JUMP JUMPDEST SWAP2 PUSH1 0xFF PUSH1 0x40 MLOAD SWAP5 DUP2 DUP2 AND ISZERO ISZERO DUP7 MSTORE PUSH1 0x8 SHR AND ISZERO ISZERO PUSH1 0x20 DUP6 ADD MSTORE PUSH1 0x40 DUP5 ADD MSTORE PUSH1 0x60 DUP4 ADD MSTORE PUSH1 0x80 DUP3 ADD MSTORE RETURN JUMPDEST CALLVALUE PUSH2 0x3FE JUMPI PUSH1 0x0 CALLDATASIZE PUSH1 0x3 NOT ADD SLT PUSH2 0x3FE JUMPI PUSH1 0x20 PUSH1 0x40 MLOAD PUSH1 0x19 DUP2 MSTORE RETURN JUMPDEST CALLVALUE PUSH2 0x3FE JUMPI PUSH1 0x40 CALLDATASIZE PUSH1 0x3 NOT ADD SLT PUSH2 0x3FE JUMPI PUSH1 0xFF PUSH2 0x138D PUSH2 0x2AF4 JUMP JUMPDEST AND PUSH1 0x0 MSTORE PUSH1 0xB PUSH1 0x20 MSTORE PUSH1 0x40 PUSH1 0x0 KECCAK256 PUSH1 0x24 CALLDATALOAD PUSH1 0x0 MSTORE PUSH1 0x20 MSTORE PUSH2 0x100 PUSH1 0x40 PUSH1 0x0 KECCAK256 PUSH1 0xFF DUP2 SLOAD SWAP2 PUSH1 0x1 DUP2 ADD SLOAD SWAP1 PUSH1 0x2 DUP2 ADD SLOAD PUSH1 0x3 DUP3 ADD SLOAD SWAP1 DUP5 PUSH1 0x5 PUSH1 0x4 DUP6 ADD SLOAD SWAP5 ADD SLOAD SWAP5 PUSH1 0x40 MLOAD SWAP8 DUP9 MSTORE PUSH1 0x1 DUP1 PUSH1 0xA0 SHL SUB DUP2 AND PUSH1 0x20 DUP10 ADD MSTORE PUSH1 0xA0 SHR AND PUSH1 0x40 DUP8 ADD MSTORE PUSH1 0x60 DUP7 ADD MSTORE PUSH1 0x80 DUP6 ADD MSTORE PUSH1 0xA0 DUP5 ADD MSTORE DUP2 DUP2 AND ISZERO ISZERO PUSH1 0xC0 DUP5 ADD MSTORE PUSH1 0x8 SHR AND ISZERO ISZERO PUSH1 0xE0 DUP3 ADD MSTORE RETURN JUMPDEST PUSH2 0x2B3E JUMP JUMPDEST CALLVALUE PUSH2 0x3FE JUMPI PUSH1 0x40 CALLDATASIZE PUSH1 0x3 NOT ADD SLT PUSH2 0x3FE JUMPI PUSH2 0x142F PUSH2 0x2AF4 JUMP JUMPDEST PUSH1 0x24 CALLDATALOAD SWAP1 PUSH2 0x1448 PUSH1 0x1 DUP1 PUSH1 0xA0 SHL SUB PUSH1 0x0 SLOAD AND CALLER EQ PUSH2 0x2BD0 JUMP JUMPDEST PUSH2 0x1451 DUP2 PUSH2 0x310C JUMP JUMPDEST DUP2 ISZERO PUSH2 0x149F JUMPI PUSH1 0x40 PUSH1 0xFF PUSH32 0x68CB741D0779160E141CCF5DD579423DE44FEBC76C0EDDDCC6167807A3C16AF7 SWAP3 AND SWAP3 DUP4 PUSH1 0x0 MSTORE PUSH1 0x5 PUSH1 0x20 MSTORE DUP2 PUSH1 0x0 KECCAK256 SWAP1 DUP1 DUP3 SLOAD SWAP3 SSTORE DUP3 MLOAD SWAP2 DUP3 MSTORE PUSH1 0x20 DUP3 ADD MSTORE LOG2 STOP JUMPDEST PUSH1 0x40 MLOAD PUSH3 0x461BCD PUSH1 0xE5 SHL DUP2 MSTORE PUSH1 0x20 PUSH1 0x4 DUP3 ADD MSTORE PUSH1 0x11 PUSH1 0x24 DUP3 ADD MSTORE PUSH17 0x141C9A58D9481A5CC81C995C5D5A5C9959 PUSH1 0x7A SHL PUSH1 0x44 DUP3 ADD MSTORE PUSH1 0x64 SWAP1 REVERT JUMPDEST CALLVALUE PUSH2 0x3FE JUMPI PUSH1 0x0 CALLDATASIZE PUSH1 0x3 NOT ADD SLT PUSH2 0x3FE JUMPI PUSH1 0x0 SLOAD PUSH1 0x40 MLOAD PUSH1 0x1 PUSH1 0x1 PUSH1 0xA0 SHL SUB SWAP1 SWAP2 AND DUP2 MSTORE PUSH1 0x20 SWAP1 RETURN JUMPDEST CALLVALUE PUSH2 0x3FE JUMPI PUSH1 0x20 CALLDATASIZE PUSH1 0x3 NOT ADD SLT PUSH2 0x3FE JUMPI PUSH1 0xFF PUSH2 0x151C PUSH2 0x2AF4 JUMP JUMPDEST AND PUSH1 0x0 MSTORE PUSH1 0x10 PUSH1 0x20 MSTORE PUSH1 0x20 PUSH1 0x40 PUSH1 0x0 KECCAK256 SLOAD PUSH1 0x40 MLOAD SWAP1 DUP2 MSTORE RETURN JUMPDEST CALLVALUE PUSH2 0x3FE JUMPI PUSH1 0x20 CALLDATASIZE PUSH1 0x3 NOT ADD SLT PUSH2 0x3FE JUMPI PUSH1 0xFF PUSH2 0x1550 PUSH2 0x2AF4 JUMP JUMPDEST AND PUSH1 0x0 MSTORE PUSH1 0xE PUSH1 0x20 MSTORE PUSH1 0x20 PUSH1 0x40 PUSH1 0x0 KECCAK256 SLOAD PUSH1 0x40 MLOAD SWAP1 DUP2 MSTORE RETURN JUMPDEST CALLVALUE PUSH2 0x3FE JUMPI PUSH1 0x20 CALLDATASIZE PUSH1 0x3 NOT ADD SLT PUSH2 0x3FE JUMPI PUSH1 0x1 PUSH1 0x1 PUSH1 0xA0 SHL SUB PUSH2 0x158A PUSH2 0x2AB8 JUMP JUMPDEST AND PUSH1 0x0 MSTORE PUSH1 0x16 PUSH1 0x20 MSTORE PUSH1 0x20 PUSH1 0x40 PUSH1 0x0 KECCAK256 SLOAD PUSH1 0x40 MLOAD SWAP1 DUP2 MSTORE RETURN JUMPDEST CALLVALUE PUSH2 0x3FE JUMPI PUSH1 0x0 CALLDATASIZE PUSH1 0x3 NOT ADD SLT PUSH2 0x3FE JUMPI PUSH1 0x20 PUSH1 0x40 MLOAD PUSH2 0x258 DUP2 MSTORE RETURN JUMPDEST CALLVALUE PUSH2 0x3FE JUMPI PUSH1 0x0 CALLDATASIZE PUSH1 0x3 NOT ADD SLT PUSH2 0x3FE JUMPI PUSH1 0x20 PUSH1 0x40 MLOAD PUSH2 0x190 DUP2 MSTORE RETURN JUMPDEST CALLVALUE PUSH2 0x3FE JUMPI PUSH1 0x40 CALLDATASIZE PUSH1 0x3 NOT ADD SLT PUSH2 0x3FE JUMPI PUSH1 0x20 PUSH2 0x1609 PUSH2 0x15FB PUSH2 0x2AB8 JUMP JUMPDEST PUSH2 0x1603 PUSH2 0x2AE4 JUMP JUMPDEST SWAP1 PUSH2 0x2D65 JUMP JUMPDEST PUSH1 0x40 MLOAD SWAP1 DUP2 MSTORE RETURN JUMPDEST CALLVALUE PUSH2 0x3FE JUMPI PUSH1 0x0 CALLDATASIZE PUSH1 0x3 NOT ADD SLT PUSH2 0x3FE JUMPI PUSH1 0x0 SLOAD PUSH1 0x1 PUSH1 0x1 PUSH1 0xA0 SHL SUB SWAP1 PUSH2 0x163B SWAP1 DUP3 AND CALLER EQ PUSH2 0x2BD0 JUMP JUMPDEST PUSH2 0x1649 PUSH1 0x1 PUSH1 0x1C SLOAD EQ PUSH2 0x2B93 JUMP JUMPDEST PUSH1 0x2 PUSH1 0x1C SSTORE PUSH1 0x12 SLOAD SWAP1 DUP2 ISZERO PUSH2 0x16A2 JUMPI PUSH1 0x20 PUSH32 0x95334F2D4E98187A454807E6EC3DA804AF4DA5C99357A7398E2CF2505AC88218 SWAP2 PUSH1 0x0 PUSH1 0x12 SSTORE PUSH2 0x168F DUP5 DUP3 PUSH1 0x1 SLOAD AND PUSH2 0x2EB4 JUMP JUMPDEST PUSH1 0x1 SLOAD AND SWAP3 PUSH1 0x40 MLOAD SWAP1 DUP2 MSTORE LOG2 PUSH1 0x1 PUSH1 0x1C SSTORE STOP JUMPDEST PUSH1 0x40 MLOAD PUSH3 0x461BCD PUSH1 0xE5 SHL DUP2 MSTORE PUSH1 0x20 PUSH1 0x4 DUP3 ADD MSTORE PUSH1 0xF PUSH1 0x24 DUP3 ADD MSTORE PUSH15 0x4E6F2070726F6A6563742066656573 PUSH1 0x88 SHL PUSH1 0x44 DUP3 ADD MSTORE PUSH1 0x64 SWAP1 REVERT JUMPDEST CALLVALUE PUSH2 0x3FE JUMPI PUSH1 0x60 CALLDATASIZE PUSH1 0x3 NOT ADD SLT PUSH2 0x3FE JUMPI PUSH2 0x16F2 PUSH2 0x2AB8 JUMP JUMPDEST PUSH2 0x16FA PUSH2 0x2ACE JUMP JUMPDEST PUSH1 0x1 PUSH1 0x1 PUSH1 0xA0 SHL SUB PUSH1 0x44 CALLDATALOAD DUP2 DUP2 AND SWAP4 SWAP1 DUP5 SWAP1 SUB PUSH2 0x3FE JUMPI DUP2 SWAP1 PUSH2 0x1722 DUP3 PUSH1 0x0 SLOAD AND CALLER EQ PUSH2 0x2BD0 JUMP JUMPDEST AND SWAP2 DUP3 ISZERO PUSH2 0x1822 JUMPI AND SWAP1 DUP2 ISZERO PUSH2 0x17DD JUMPI DUP3 ISZERO PUSH2 0x1798 JUMPI DUP3 PUSH1 0x60 SWAP3 PUSH32 0xD2D452A5DF03F60FF9BF0EF1FC3498AF992B0B6165C03B2F792CF596EE96530A SWAP5 PUSH1 0x1 PUSH1 0x1 PUSH1 0x60 SHL SUB PUSH1 0xA0 SHL DUP5 DUP2 PUSH1 0x1 SLOAD AND OR PUSH1 0x1 SSTORE DUP3 DUP2 PUSH1 0x2 SLOAD AND OR PUSH1 0x2 SSTORE PUSH1 0x3 SLOAD AND OR PUSH1 0x3 SSTORE PUSH1 0x40 MLOAD SWAP3 DUP4 MSTORE PUSH1 0x20 DUP4 ADD MSTORE PUSH1 0x40 DUP3 ADD MSTORE LOG1 STOP JUMPDEST PUSH1 0x40 MLOAD PUSH3 0x461BCD PUSH1 0xE5 SHL DUP2 MSTORE PUSH1 0x20 PUSH1 0x4 DUP3 ADD MSTORE PUSH1 0x18 PUSH1 0x24 DUP3 ADD MSTORE PUSH32 0x4F70657261746F722077616C6C65742072657175697265640000000000000000 PUSH1 0x44 DUP3 ADD MSTORE PUSH1 0x64 SWAP1 REVERT JUMPDEST PUSH1 0x40 MLOAD PUSH3 0x461BCD PUSH1 0xE5 SHL DUP2 MSTORE PUSH1 0x20 PUSH1 0x4 DUP3 ADD MSTORE PUSH1 0x18 PUSH1 0x24 DUP3 ADD MSTORE PUSH32 0x54726561737572792077616C6C65742072657175697265640000000000000000 PUSH1 0x44 DUP3 ADD MSTORE PUSH1 0x64 SWAP1 REVERT JUMPDEST PUSH1 0x40 MLOAD PUSH3 0x461BCD PUSH1 0xE5 SHL DUP2 MSTORE PUSH1 0x20 PUSH1 0x4 DUP3 ADD MSTORE PUSH1 0x17 PUSH1 0x24 DUP3 ADD MSTORE PUSH32 0x50726F6A6563742077616C6C6574207265717569726564000000000000000000 PUSH1 0x44 DUP3 ADD MSTORE PUSH1 0x64 SWAP1 REVERT JUMPDEST CALLVALUE PUSH2 0x3FE JUMPI PUSH1 0x40 CALLDATASIZE PUSH1 0x3 NOT ADD SLT PUSH2 0x3FE JUMPI PUSH2 0x1880 PUSH2 0x2AB8 JUMP JUMPDEST PUSH2 0x1888 PUSH2 0x2AE4 JUMP JUMPDEST SWAP1 PUSH2 0x1892 DUP3 PUSH2 0x310C JUMP JUMPDEST PUSH1 0x1 DUP1 PUSH1 0xA0 SHL SUB AND PUSH1 0x0 MSTORE PUSH1 0xA PUSH1 0x20 MSTORE PUSH1 0xFF PUSH1 0x40 PUSH1 0x0 KECCAK256 SWAP2 AND PUSH1 0x0 MSTORE PUSH1 0x20 MSTORE PUSH1 0x20 PUSH1 0xFF PUSH1 0x40 PUSH1 0x0 KECCAK256 SLOAD AND PUSH1 0x40 MLOAD SWAP1 ISZERO ISZERO DUP2 MSTORE RETURN JUMPDEST CALLVALUE PUSH2 0x3FE JUMPI PUSH1 0x0 CALLDATASIZE PUSH1 0x3 NOT ADD SLT PUSH2 0x3FE JUMPI PUSH1 0x20 PUSH1 0x40 MLOAD PUSH2 0x1D7E DUP2 MSTORE RETURN JUMPDEST CALLVALUE PUSH2 0x3FE JUMPI PUSH1 0x20 CALLDATASIZE PUSH1 0x3 NOT ADD SLT PUSH2 0x3FE JUMPI PUSH1 0x1 PUSH1 0x1 PUSH1 0xA0 SHL SUB PUSH2 0x1904 PUSH2 0x2AB8 JUMP JUMPDEST AND PUSH1 0x0 MSTORE PUSH1 0x15 PUSH1 0x20 MSTORE PUSH1 0x20 PUSH1 0x40 PUSH1 0x0 KECCAK256 SLOAD PUSH1 0x40 MLOAD SWAP1 DUP2 MSTORE RETURN JUMPDEST CALLVALUE PUSH2 0x3FE JUMPI PUSH1 0x20 CALLDATASIZE PUSH1 0x3 NOT ADD SLT PUSH2 0x3FE JUMPI PUSH2 0x1936 PUSH2 0x2AB8 JUMP JUMPDEST PUSH1 0x0 SLOAD PUSH1 0x1 PUSH1 0x1 PUSH1 0xA0 SHL SUB SWAP2 DUP3 SWAP2 PUSH2 0x1951 SWAP1 DUP4 AND CALLER EQ PUSH2 0x2BD0 JUMP JUMPDEST AND SWAP1 DUP2 ISZERO PUSH2 0x1996 JUMPI PUSH1 0x4 SLOAD DUP3 PUSH1 0x1 PUSH1 0x1 PUSH1 0x60 SHL SUB PUSH1 0xA0 SHL DUP3 AND OR PUSH1 0x4 SSTORE AND PUSH32 0x750DCE806A7083B5C48405B1310300E4AA4241D21C26CD1348EC6F81324AEB9F PUSH1 0x0 DUP1 LOG3 STOP JUMPDEST PUSH1 0x40 MLOAD PUSH3 0x461BCD PUSH1 0xE5 SHL DUP2 MSTORE PUSH1 0x20 PUSH1 0x4 DUP3 ADD MSTORE PUSH1 0x13 PUSH1 0x24 DUP3 ADD MSTORE PUSH19 0x1554D110C81D1BDAD95B881C995C5D5A5C9959 PUSH1 0x6A SHL PUSH1 0x44 DUP3 ADD MSTORE PUSH1 0x64 SWAP1 REVERT JUMPDEST CALLVALUE PUSH2 0x3FE JUMPI PUSH1 0x40 CALLDATASIZE PUSH1 0x3 NOT ADD SLT PUSH2 0x3FE JUMPI PUSH2 0x19EA PUSH2 0x2AB8 JUMP JUMPDEST PUSH2 0x19F2 PUSH2 0x2AE4 JUMP JUMPDEST SWAP1 PUSH1 0x1 DUP1 PUSH1 0xA0 SHL SUB AND PUSH1 0x0 MSTORE PUSH1 0xA PUSH1 0x20 MSTORE PUSH1 0xFF PUSH1 0x40 PUSH1 0x0 KECCAK256 SWAP2 AND PUSH1 0x0 MSTORE PUSH1 0x20 MSTORE PUSH2 0x160 PUSH1 0x40 PUSH1 0x0 KECCAK256 DUP1 SLOAD SWAP1 PUSH1 0x1 DUP2 ADD SLOAD SWAP1 PUSH1 0x2 DUP2 ADD SLOAD PUSH1 0x3 DUP3 ADD SLOAD PUSH1 0x4 DUP4 ADD SLOAD PUSH1 0x5 DUP5 ADD SLOAD SWAP1 PUSH1 0x6 DUP6 ADD SLOAD SWAP3 PUSH1 0x7 DUP7 ADD SLOAD SWAP5 PUSH1 0x9 PUSH1 0x8 DUP9 ADD SLOAD SWAP8 ADD SLOAD SWAP8 PUSH1 0xFF PUSH1 0x40 MLOAD SWAP11 DUP2 DUP2 AND ISZERO ISZERO DUP13 MSTORE PUSH1 0x8 SHR AND ISZERO ISZERO PUSH1 0x20 DUP12 ADD MSTORE PUSH1 0x40 DUP11 ADD MSTORE PUSH1 0x60 DUP10 ADD MSTORE PUSH1 0x80 DUP9 ADD MSTORE PUSH1 0xA0 DUP8 ADD MSTORE PUSH1 0xC0 DUP7 ADD MSTORE PUSH1 0xE0 DUP6 ADD MSTORE PUSH2 0x100 DUP5 ADD MSTORE PUSH2 0x120 DUP4 ADD MSTORE PUSH2 0x140 DUP3 ADD MSTORE RETURN JUMPDEST CALLVALUE PUSH2 0x3FE JUMPI PUSH1 0x20 CALLDATASIZE PUSH1 0x3 NOT ADD SLT PUSH2 0x3FE JUMPI PUSH2 0x1AB2 PUSH2 0x2AB8 JUMP JUMPDEST PUSH1 0x0 PUSH2 0x240 PUSH1 0x40 MLOAD PUSH2 0x1AC3 DUP2 PUSH2 0x2CDA JUMP JUMPDEST DUP3 DUP2 MSTORE DUP3 PUSH1 0x20 DUP3 ADD MSTORE DUP3 PUSH1 0x40 DUP3 ADD MSTORE DUP3 PUSH1 0x60 DUP3 ADD MSTORE DUP3 PUSH1 0x80 DUP3 ADD MSTORE DUP3 PUSH1 0xA0 DUP3 ADD MSTORE DUP3 PUSH1 0xC0 DUP3 ADD MSTORE DUP3 PUSH1 0xE0 DUP3 ADD MSTORE DUP3 PUSH2 0x100 DUP3 ADD MSTORE DUP3 PUSH2 0x120 DUP3 ADD MSTORE DUP3 PUSH2 0x140 DUP3 ADD MSTORE DUP3 PUSH2 0x160 DUP3 ADD MSTORE DUP3 PUSH2 0x180 DUP3 ADD MSTORE DUP3 PUSH2 0x1A0 DUP3 ADD MSTORE DUP3 PUSH2 0x1C0 DUP3 ADD MSTORE DUP3 PUSH2 0x1E0 DUP3 ADD MSTORE DUP3 PUSH2 0x200 DUP3 ADD MSTORE DUP3 PUSH2 0x220 DUP3 ADD MSTORE ADD MSTORE PUSH1 0x1 DUP1 PUSH1 0xA0 SHL SUB AND PUSH1 0x0 MSTORE PUSH1 0x9 PUSH1 0x20 MSTORE PUSH2 0x260 PUSH1 0x40 PUSH1 0x0 KECCAK256 PUSH2 0x240 PUSH1 0x40 MLOAD PUSH2 0x1B5F DUP2 PUSH2 0x2CDA JUMP JUMPDEST PUSH1 0x11 DUP4 SLOAD SWAP4 PUSH1 0xFF DUP6 AND ISZERO ISZERO DUP4 MSTORE PUSH1 0x1 DUP1 PUSH1 0xA0 SHL SUB DUP6 PUSH1 0x8 SHR AND PUSH1 0x20 DUP5 ADD MSTORE PUSH1 0x1 DUP1 PUSH1 0xA0 SHL SUB PUSH1 0x1 DUP3 ADD SLOAD AND PUSH1 0x40 DUP5 ADD MSTORE PUSH1 0x1 DUP1 PUSH1 0xA0 SHL SUB PUSH1 0x2 DUP3 ADD SLOAD AND PUSH1 0x60 DUP5 ADD MSTORE PUSH1 0x1 DUP1 PUSH1 0xA0 SHL SUB PUSH1 0x3 DUP3 ADD SLOAD AND PUSH1 0x80 DUP5 ADD MSTORE PUSH1 0x4 DUP2 ADD SLOAD PUSH1 0xA0 DUP5 ADD MSTORE PUSH1 0x5 DUP2 ADD SLOAD PUSH1 0xC0 DUP5 ADD MSTORE PUSH1 0x6 DUP2 ADD SLOAD PUSH1 0xE0 DUP5 ADD MSTORE PUSH1 0x7 DUP2 ADD SLOAD PUSH2 0x100 DUP5 ADD MSTORE PUSH1 0x8 DUP2 ADD SLOAD PUSH2 0x120 DUP5 ADD MSTORE PUSH1 0x9 DUP2 ADD SLOAD PUSH2 0x140 DUP5 ADD MSTORE PUSH1 0xA DUP2 ADD SLOAD PUSH2 0x160 DUP5 ADD MSTORE PUSH1 0xB DUP2 ADD SLOAD PUSH2 0x180 DUP5 ADD MSTORE PUSH1 0xC DUP2 ADD SLOAD PUSH2 0x1A0 DUP5 ADD MSTORE PUSH1 0xD DUP2 ADD SLOAD PUSH2 0x1C0 DUP5 ADD MSTORE PUSH1 0xE DUP2 ADD SLOAD PUSH2 0x1E0 DUP5 ADD MSTORE PUSH1 0xF DUP2 ADD SLOAD PUSH2 0x200 DUP5 ADD MSTORE PUSH1 0x10 DUP2 ADD SLOAD PUSH2 0x220 DUP5 ADD MSTORE ADD SLOAD DUP3 DUP3 ADD MSTORE PUSH1 0xFF PUSH1 0x40 MLOAD SWAP4 AND ISZERO ISZERO DUP4 MSTORE PUSH1 0x1 DUP1 PUSH1 0xA0 SHL SUB PUSH1 0x20 DUP3 ADD MLOAD AND PUSH1 0x20 DUP5 ADD MSTORE PUSH1 0x1 DUP1 PUSH1 0xA0 SHL SUB PUSH1 0x40 DUP3 ADD MLOAD AND PUSH1 0x40 DUP5 ADD MSTORE PUSH1 0x1 DUP1 PUSH1 0xA0 SHL SUB PUSH1 0x60 DUP3 ADD MLOAD AND PUSH1 0x60 DUP5 ADD MSTORE PUSH1 0x1 DUP1 PUSH1 0xA0 SHL SUB PUSH1 0x80 DUP3 ADD MLOAD AND PUSH1 0x80 DUP5 ADD MSTORE PUSH1 0xA0 DUP2 ADD MLOAD PUSH1 0xA0 DUP5 ADD MSTORE PUSH1 0xC0 DUP2 ADD MLOAD PUSH1 0xC0 DUP5 ADD MSTORE PUSH1 0xE0 DUP2 ADD MLOAD PUSH1 0xE0 DUP5 ADD MSTORE PUSH2 0x100 DUP2 ADD MLOAD PUSH2 0x100 DUP5 ADD MSTORE PUSH2 0x120 DUP2 ADD MLOAD PUSH2 0x120 DUP5 ADD MSTORE PUSH2 0x140 DUP2 ADD MLOAD PUSH2 0x140 DUP5 ADD MSTORE PUSH2 0x160 DUP2 ADD MLOAD PUSH2 0x160 DUP5 ADD MSTORE PUSH2 0x180 DUP2 ADD MLOAD PUSH2 0x180 DUP5 ADD MSTORE PUSH2 0x1A0 DUP2 ADD MLOAD PUSH2 0x1A0 DUP5 ADD MSTORE PUSH2 0x1C0 DUP2 ADD MLOAD PUSH2 0x1C0 DUP5 ADD MSTORE PUSH2 0x1E0 DUP2 ADD MLOAD PUSH2 0x1E0 DUP5 ADD MSTORE PUSH2 0x200 DUP2 ADD MLOAD PUSH2 0x200 DUP5 ADD MSTORE PUSH2 0x220 DUP2 ADD MLOAD PUSH2 0x220 DUP5 ADD MSTORE ADD MLOAD PUSH2 0x240 DUP3 ADD MSTORE RETURN JUMPDEST CALLVALUE PUSH2 0x3FE JUMPI PUSH1 0x20 CALLDATASIZE PUSH1 0x3 NOT ADD SLT PUSH2 0x3FE JUMPI PUSH1 0xFF PUSH2 0x1D53 PUSH2 0x2AF4 JUMP JUMPDEST AND PUSH1 0x0 MSTORE PUSH1 0xD PUSH1 0x20 MSTORE PUSH1 0x20 PUSH1 0x40 PUSH1 0x0 KECCAK256 SLOAD PUSH1 0x40 MLOAD SWAP1 DUP2 MSTORE RETURN JUMPDEST CALLVALUE PUSH2 0x3FE JUMPI PUSH1 0x20 CALLDATASIZE PUSH1 0x3 NOT ADD SLT PUSH2 0x3FE JUMPI PUSH1 0xFF PUSH2 0x1D87 PUSH2 0x2AF4 JUMP JUMPDEST AND PUSH1 0x0 MSTORE PUSH1 0x7 PUSH1 0x20 MSTORE PUSH1 0x20 PUSH1 0xFF PUSH1 0x40 PUSH1 0x0 KECCAK256 SLOAD AND PUSH1 0x40 MLOAD SWAP1 ISZERO ISZERO DUP2 MSTORE RETURN JUMPDEST CALLVALUE PUSH2 0x3FE JUMPI PUSH1 0x0 CALLDATASIZE PUSH1 0x3 NOT ADD SLT PUSH2 0x3FE JUMPI PUSH1 0x20 PUSH1 0x40 MLOAD PUSH2 0x1388 DUP2 MSTORE RETURN JUMPDEST CALLVALUE PUSH2 0x3FE JUMPI PUSH1 0x0 CALLDATASIZE PUSH1 0x3 NOT ADD SLT PUSH2 0x3FE JUMPI PUSH1 0x20 PUSH1 0x40 MLOAD PUSH1 0x14 DUP2 MSTORE RETURN JUMPDEST CALLVALUE PUSH2 0x3FE JUMPI PUSH1 0x40 CALLDATASIZE PUSH1 0x3 NOT ADD SLT PUSH2 0x3FE JUMPI PUSH1 0x60 PUSH2 0x1DF9 PUSH2 0x2AB8 JUMP JUMPDEST PUSH2 0x1E01 PUSH2 0x2AE4 JUMP JUMPDEST SWAP1 PUSH2 0x1E0B DUP3 PUSH2 0x310C JUMP JUMPDEST PUSH1 0x1 DUP1 PUSH1 0xA0 SHL SUB AND DUP1 PUSH1 0x0 MSTORE PUSH1 0x20 SWAP1 PUSH1 0x14 DUP3 MSTORE PUSH1 0x40 PUSH1 0x0 KECCAK256 SLOAD SWAP3 PUSH1 0x17 DUP4 MSTORE PUSH1 0xFF PUSH1 0x40 PUSH1 0x0 KECCAK256 SWAP2 AND SWAP1 DUP2 PUSH1 0x0 MSTORE DUP4 MSTORE PUSH1 0x40 PUSH1 0x0 KECCAK256 SLOAD SWAP2 PUSH1 0x0 MSTORE PUSH1 0x18 DUP4 MSTORE PUSH1 0x40 PUSH1 0x0 KECCAK256 SWAP1 PUSH1 0x0 MSTORE DUP3 MSTORE PUSH1 0x40 PUSH1 0x0 KECCAK256 SLOAD SWAP2 PUSH1 0x40 MLOAD SWAP4 DUP5 MSTORE DUP4 ADD MSTORE PUSH1 0x40 DUP3 ADD MSTORE RETURN JUMPDEST CALLVALUE PUSH2 0x3FE JUMPI PUSH1 0x40 CALLDATASIZE PUSH1 0x3 NOT ADD SLT PUSH2 0x3FE JUMPI PUSH2 0x1E82 PUSH2 0x2AF4 JUMP JUMPDEST PUSH1 0x40 MLOAD PUSH1 0x24 CALLDATALOAD PUSH2 0x1E91 DUP3 PUSH2 0x2CBD JUMP JUMPDEST PUSH1 0x0 DUP3 MSTORE PUSH1 0x0 PUSH1 0xE0 PUSH1 0x20 SWAP4 DUP3 DUP6 DUP3 ADD MSTORE DUP3 PUSH1 0x40 DUP3 ADD MSTORE DUP3 PUSH1 0x60 DUP3 ADD MSTORE DUP3 PUSH1 0x80 DUP3 ADD MSTORE DUP3 PUSH1 0xA0 DUP3 ADD MSTORE DUP3 PUSH1 0xC0 DUP3 ADD MSTORE ADD MSTORE PUSH2 0x1ECA DUP4 PUSH2 0x310C JUMP JUMPDEST DUP1 ISZERO ISZERO DUP1 PUSH2 0x1FDE JUMPI JUMPDEST ISZERO PUSH2 0x1FAA JUMPI PUSH1 0xFF PUSH2 0x100 SWAP4 AND PUSH1 0x0 MSTORE PUSH1 0xB DUP3 MSTORE PUSH1 0x40 PUSH1 0x0 KECCAK256 SWAP1 PUSH1 0x0 MSTORE DUP2 MSTORE PUSH1 0x40 PUSH1 0x0 KECCAK256 SWAP1 PUSH1 0x40 MLOAD PUSH2 0x1F03 DUP2 PUSH2 0x2CBD JUMP JUMPDEST DUP3 SLOAD SWAP3 DUP4 DUP3 MSTORE PUSH1 0x1 DUP2 ADD SLOAD SWAP3 PUSH1 0x1 DUP1 PUSH1 0xA0 SHL SUB SWAP1 PUSH1 0xFF DUP2 DUP6 ADD SWAP6 DUP4 DUP2 AND DUP8 MSTORE DUP2 PUSH1 0x40 DUP8 ADD SWAP2 PUSH1 0xA0 SHR AND DUP2 MSTORE PUSH1 0x2 DUP6 ADD SLOAD SWAP3 PUSH1 0x60 DUP8 ADD SWAP4 DUP5 MSTORE PUSH1 0x3 DUP7 ADD SLOAD SWAP5 PUSH1 0x80 DUP9 ADD SWAP6 DUP7 MSTORE PUSH1 0x5 PUSH1 0x4 DUP9 ADD SLOAD SWAP8 PUSH1 0xA0 DUP11 ADD SWAP9 DUP10 MSTORE ADD SLOAD SWAP9 DUP5 PUSH1 0xE0 PUSH1 0xC0 DUP12 ADD SWAP11 DUP3 DUP14 AND ISZERO ISZERO DUP13 MSTORE ADD SWAP11 PUSH1 0x8 SHR AND ISZERO ISZERO DUP11 MSTORE PUSH1 0x40 MLOAD SWAP11 DUP12 MSTORE MLOAD AND SWAP1 DUP10 ADD MSTORE MLOAD AND PUSH1 0x40 DUP8 ADD MSTORE MLOAD PUSH1 0x60 DUP7 ADD MSTORE MLOAD PUSH1 0x80 DUP6 ADD MSTORE MLOAD PUSH1 0xA0 DUP5 ADD MSTORE MLOAD ISZERO ISZERO PUSH1 0xC0 DUP4 ADD MSTORE MLOAD ISZERO ISZERO PUSH1 0xE0 DUP3 ADD MSTORE RETURN JUMPDEST PUSH1 0x40 MLOAD PUSH3 0x461BCD PUSH1 0xE5 SHL DUP2 MSTORE PUSH1 0x4 DUP2 ADD DUP4 SWAP1 MSTORE PUSH1 0xC PUSH1 0x24 DUP3 ADD MSTORE PUSH12 0x125B9D985B1A590818D95B1B PUSH1 0xA2 SHL PUSH1 0x44 DUP3 ADD MSTORE PUSH1 0x64 SWAP1 REVERT JUMPDEST POP PUSH1 0xFF DUP4 AND PUSH1 0x0 MSTORE PUSH1 0xC DUP3 MSTORE PUSH1 0x40 PUSH1 0x0 KECCAK256 SLOAD DUP2 LT PUSH2 0x1ED3 JUMP JUMPDEST PUSH1 0x40 CALLDATASIZE PUSH1 0x3 NOT ADD SLT PUSH2 0x3FE JUMPI PUSH2 0x200B PUSH2 0x2AF4 JUMP JUMPDEST PUSH2 0x2013 PUSH2 0x2ACE JUMP JUMPDEST PUSH2 0x2021 PUSH1 0x1 PUSH1 0x1C SLOAD EQ PUSH2 0x2B93 JUMP JUMPDEST PUSH1 0x2 PUSH1 0x1C SSTORE PUSH2 0x202F DUP3 PUSH2 0x310C JUMP JUMPDEST PUSH1 0xFF DUP3 AND SWAP2 DUP3 PUSH1 0x0 MSTORE PUSH1 0x20 SWAP2 PUSH1 0x7 DUP4 MSTORE PUSH2 0x2050 PUSH1 0xFF PUSH1 0x40 PUSH1 0x0 KECCAK256 SLOAD AND PUSH2 0x2D19 JUMP JUMPDEST DUP4 PUSH1 0x0 MSTORE PUSH1 0x5 DUP4 MSTORE PUSH1 0x40 PUSH1 0x0 KECCAK256 SLOAD CALLVALUE SUB PUSH2 0x2214 JUMPI PUSH2 0x206F SWAP1 CALLER DUP4 PUSH2 0x3014 JUMP JUMPDEST SWAP1 PUSH2 0x1D7E DUP1 CALLVALUE MUL SWAP1 CALLVALUE ISZERO SWAP1 CALLVALUE DUP4 DIV EQ DUP2 OR ISZERO PUSH2 0xD42 JUMPI PUSH2 0x2710 DUP1 SWAP3 DIV SWAP3 PUSH2 0x3B6 DUP1 CALLVALUE MUL SWAP1 CALLVALUE DUP3 DIV EQ DUP4 OR ISZERO PUSH2 0xD42 JUMPI DUP4 SWAP1 DIV SWAP1 PUSH2 0x258 DUP1 CALLVALUE MUL SWAP1 CALLVALUE DUP3 DIV EQ DUP5 OR ISZERO PUSH2 0xD42 JUMPI DUP5 SWAP1 DIV SWAP3 PUSH2 0x190 SWAP1 DUP2 CALLVALUE MUL SWAP2 CALLVALUE DUP4 DIV EQ OR ISZERO PUSH2 0xD42 JUMPI DUP9 SWAP6 PUSH32 0xB85EF11BE8AA73FBA898A4935AFE7D749E354CF349871A27F8934346A1B2E4FF PUSH1 0x40 SWAP6 DUP11 SWAP6 PUSH2 0x218F PUSH32 0x4B36477D57294A9CD8DBDA6C13FA93D36015734AC4EABB6C235F3EE6C9034A4E SWAP10 DUP12 SWAP7 DIV DUP1 SWAP8 PUSH2 0x2132 DUP3 PUSH2 0x5D2 DUP8 PUSH2 0x5D2 DUP9 PUSH2 0x5D2 DUP14 CALLVALUE PUSH2 0x2C93 JUMP JUMPDEST SWAP10 CALLER PUSH1 0x0 MSTORE PUSH1 0x9 DUP2 MSTORE PUSH1 0xE DUP13 PUSH1 0x0 KECCAK256 SWAP2 DUP11 PUSH1 0x0 MSTORE MSTORE DUP12 PUSH1 0x0 KECCAK256 PUSH2 0x2156 DUP10 DUP3 SLOAD PUSH2 0x2DEE JUMP JUMPDEST SWAP1 SSTORE PUSH1 0x1 DUP1 PUSH1 0xA0 SHL SUB PUSH2 0x2171 DUP7 DUP5 CALLER DUP5 PUSH1 0x1 DUP8 ADD SLOAD AND PUSH2 0x3CAC JUMP JUMPDEST PUSH2 0x2183 DUP8 DUP5 CALLER DUP5 PUSH1 0x2 DUP8 ADD SLOAD AND PUSH2 0x3D67 JUMP JUMPDEST PUSH1 0x3 CALLER SWAP3 ADD SLOAD AND PUSH2 0x3E00 JUMP JUMPDEST PUSH2 0x21D0 DUP8 PUSH2 0x219F DUP2 PUSH1 0x12 SLOAD PUSH2 0x2DEE JUMP JUMPDEST SWAP8 DUP9 PUSH1 0x12 SSTORE DUP11 MLOAD SWAP5 DUP6 SWAP5 CALLER SWAP9 DUP7 SWAP2 SWAP3 PUSH1 0x80 SWAP4 SWAP7 SWAP6 SWAP5 SWAP2 SWAP7 PUSH1 0xA0 DUP5 ADD SWAP8 DUP5 MSTORE PUSH1 0x20 DUP5 ADD MSTORE PUSH1 0x40 DUP4 ADD MSTORE PUSH1 0x60 DUP3 ADD MSTORE ADD MSTORE JUMP JUMPDEST SUB SWAP1 LOG3 DUP3 MLOAD SWAP2 DUP3 MSTORE DUP7 DUP3 ADD MSTORE LOG2 PUSH1 0x40 MLOAD SWAP2 CALLVALUE DUP4 MSTORE DUP3 ADD MSTORE PUSH32 0xE099ACE9CC029768846F2ABE32CE8983D72474335B42431E129401C1E9C0886B PUSH1 0x40 CALLER SWAP3 LOG3 PUSH1 0x1 PUSH1 0x1C SSTORE STOP JUMPDEST PUSH1 0x40 MLOAD PUSH3 0x461BCD PUSH1 0xE5 SHL DUP2 MSTORE PUSH1 0x4 DUP2 ADD DUP5 SWAP1 MSTORE PUSH1 0x18 PUSH1 0x24 DUP3 ADD MSTORE PUSH32 0x496E636F7272656374207061796D656E7420616D6F756E740000000000000000 PUSH1 0x44 DUP3 ADD MSTORE PUSH1 0x64 SWAP1 REVERT JUMPDEST CALLVALUE PUSH2 0x3FE JUMPI PUSH1 0x0 CALLDATASIZE PUSH1 0x3 NOT ADD SLT PUSH2 0x3FE JUMPI PUSH1 0x2 SLOAD PUSH1 0x40 MLOAD PUSH1 0x1 PUSH1 0x1 PUSH1 0xA0 SHL SUB SWAP1 SWAP2 AND DUP2 MSTORE PUSH1 0x20 SWAP1 RETURN JUMPDEST CALLVALUE PUSH2 0x3FE JUMPI PUSH1 0x40 CALLDATASIZE PUSH1 0x3 NOT ADD SLT PUSH2 0x3FE JUMPI PUSH2 0x160 PUSH2 0x229E PUSH2 0x2AB8 JUMP JUMPDEST PUSH2 0x140 PUSH2 0x22A9 PUSH2 0x2AE4 JUMP JUMPDEST SWAP2 PUSH1 0x40 MLOAD SWAP3 PUSH2 0x22B7 DUP5 PUSH2 0x2CA0 JUMP JUMPDEST PUSH1 0x0 DUP5 MSTORE PUSH1 0x0 PUSH1 0x20 DUP6 ADD MSTORE PUSH1 0x0 PUSH1 0x40 DUP6 ADD MSTORE PUSH1 0x0 PUSH1 0x60 DUP6 ADD MSTORE PUSH1 0x0 PUSH1 0x80 DUP6 ADD MSTORE PUSH1 0x0 PUSH1 0xA0 DUP6 ADD MSTORE PUSH1 0x0 PUSH1 0xC0 DUP6 ADD MSTORE PUSH1 0x0 PUSH1 0xE0 DUP6 ADD MSTORE PUSH2 0x100 SWAP2 PUSH1 0x0 DUP4 DUP7 ADD MSTORE PUSH1 0x0 DUP5 PUSH2 0x120 SWAP7 DUP3 DUP9 DUP3 ADD MSTORE ADD MSTORE PUSH2 0x230D DUP3 PUSH2 0x310C JUMP JUMPDEST PUSH1 0x1 DUP1 PUSH1 0xA0 SHL SUB AND PUSH1 0x0 MSTORE PUSH1 0xA PUSH1 0x20 MSTORE PUSH1 0xFF PUSH1 0x40 PUSH1 0x0 KECCAK256 SWAP2 AND PUSH1 0x0 MSTORE PUSH1 0x20 MSTORE PUSH1 0x40 PUSH1 0x0 KECCAK256 SWAP3 PUSH1 0x40 MLOAD SWAP2 PUSH2 0x233F DUP4 PUSH2 0x2CA0 JUMP JUMPDEST PUSH1 0x9 DUP6 SLOAD SWAP6 PUSH1 0xFF DUP8 AND ISZERO ISZERO DUP6 MSTORE PUSH1 0xFF DUP8 PUSH1 0x8 SHR AND ISZERO ISZERO PUSH1 0x20 DUP7 ADD MSTORE PUSH1 0x1 DUP2 ADD SLOAD PUSH1 0x40 DUP7 ADD MSTORE PUSH1 0x2 DUP2 ADD SLOAD PUSH1 0x60 DUP7 ADD MSTORE PUSH1 0x3 DUP2 ADD SLOAD PUSH1 0x80 DUP7 ADD MSTORE PUSH1 0x4 DUP2 ADD SLOAD PUSH1 0xA0 DUP7 ADD MSTORE PUSH1 0x5 DUP2 ADD SLOAD PUSH1 0xC0 DUP7 ADD MSTORE PUSH1 0x6 DUP2 ADD SLOAD PUSH1 0xE0 DUP7 ADD MSTORE PUSH1 0x7 DUP2 ADD SLOAD DUP4 DUP7 ADD MSTORE PUSH1 0x8 DUP2 ADD SLOAD DUP5 DUP7 ADD MSTORE ADD SLOAD DUP5 DUP5 ADD MSTORE PUSH1 0xFF PUSH1 0x40 MLOAD SWAP6 AND ISZERO ISZERO DUP6 MSTORE PUSH1 0x20 DUP4 ADD MLOAD ISZERO ISZERO PUSH1 0x20 DUP7 ADD MSTORE PUSH1 0x40 DUP4 ADD MLOAD PUSH1 0x40 DUP7 ADD MSTORE PUSH1 0x60 DUP4 ADD MLOAD PUSH1 0x60 DUP7 ADD MSTORE PUSH1 0x80 DUP4 ADD MLOAD PUSH1 0x80 DUP7 ADD MSTORE PUSH1 0xA0 DUP4 ADD MLOAD PUSH1 0xA0 DUP7 ADD MSTORE PUSH1 0xC0 DUP4 ADD MLOAD PUSH1 0xC0 DUP7 ADD MSTORE PUSH1 0xE0 DUP4 ADD MLOAD PUSH1 0xE0 DUP7 ADD MSTORE DUP1 DUP4 ADD MLOAD SWAP1 DUP6 ADD MSTORE DUP1 DUP3 ADD MLOAD SWAP1 DUP5 ADD MSTORE ADD MLOAD PUSH2 0x140 DUP3 ADD MSTORE RETURN JUMPDEST CALLVALUE PUSH2 0x3FE JUMPI PUSH1 0x20 DUP1 PUSH1 0x3 NOT CALLDATASIZE ADD SLT PUSH2 0x3FE JUMPI PUSH2 0x2435 PUSH2 0x2AF4 JUMP JUMPDEST SWAP1 PUSH2 0x2444 PUSH1 0x1 PUSH1 0x1C SLOAD EQ PUSH2 0x2B93 JUMP JUMPDEST PUSH1 0x2 PUSH1 0x1C SSTORE PUSH2 0x2452 DUP3 PUSH2 0x310C JUMP JUMPDEST PUSH1 0x4 SLOAD PUSH1 0x1 PUSH1 0x1 PUSH1 0xA0 SHL SUB SWAP1 PUSH2 0x246B SWAP1 DUP3 AND ISZERO ISZERO PUSH2 0x2C09 JUMP JUMPDEST CALLER PUSH1 0x0 MSTORE PUSH1 0xA DUP3 MSTORE PUSH1 0xFF PUSH1 0x40 PUSH1 0x0 KECCAK256 SWAP4 AND SWAP3 DUP4 PUSH1 0x0 MSTORE DUP3 MSTORE PUSH2 0x2498 PUSH1 0xFF PUSH1 0x40 PUSH1 0x0 KECCAK256 SLOAD PUSH1 0x8 SHR AND ISZERO PUSH2 0x2C55 JUMP JUMPDEST CALLER PUSH1 0x0 MSTORE PUSH1 0x17 DUP3 MSTORE PUSH1 0x40 PUSH1 0x0 KECCAK256 DUP4 PUSH1 0x0 MSTORE DUP3 MSTORE PUSH1 0x40 PUSH1 0x0 KECCAK256 SLOAD SWAP1 DUP2 ISZERO PUSH2 0x2532 JUMPI PUSH32 0xCB5B06C056856BB82784094D6A04F2CDD54A8CA5035447B87427F46C8D098131 SWAP1 CALLER PUSH1 0x0 MSTORE PUSH1 0x17 DUP5 MSTORE PUSH1 0x40 PUSH1 0x0 KECCAK256 DUP6 PUSH1 0x0 MSTORE DUP5 MSTORE PUSH1 0x0 PUSH1 0x40 DUP2 KECCAK256 SSTORE CALLER PUSH1 0x0 MSTORE PUSH1 0x15 DUP5 MSTORE PUSH1 0x40 PUSH1 0x0 KECCAK256 PUSH2 0x250C DUP5 DUP3 SLOAD PUSH2 0x2C93 JUMP JUMPDEST SWAP1 SSTORE PUSH2 0x251D DUP4 CALLER DUP4 PUSH1 0x4 SLOAD AND PUSH2 0x2F61 JUMP JUMPDEST PUSH1 0x4 SLOAD AND SWAP3 PUSH1 0x40 MLOAD SWAP3 DUP4 MSTORE CALLER SWAP3 LOG4 PUSH1 0x1 PUSH1 0x1C SSTORE STOP JUMPDEST PUSH1 0x40 MLOAD PUSH3 0x461BCD PUSH1 0xE5 SHL DUP2 MSTORE PUSH1 0x4 DUP2 ADD DUP5 SWAP1 MSTORE PUSH1 0xD PUSH1 0x24 DUP3 ADD MSTORE PUSH13 0x4E6F2055534443207072697A65 PUSH1 0x98 SHL PUSH1 0x44 DUP3 ADD MSTORE PUSH1 0x64 SWAP1 REVERT JUMPDEST CALLVALUE PUSH2 0x3FE JUMPI PUSH1 0x40 CALLDATASIZE PUSH1 0x3 NOT ADD SLT PUSH2 0x3FE JUMPI PUSH2 0x2580 PUSH2 0x2AF4 JUMP JUMPDEST PUSH1 0x24 CALLDATALOAD SWAP1 PUSH2 0x2599 PUSH1 0x1 DUP1 PUSH1 0xA0 SHL SUB PUSH1 0x0 SLOAD AND CALLER EQ PUSH2 0x2BD0 JUMP JUMPDEST PUSH2 0x25A2 DUP2 PUSH2 0x310C JUMP JUMPDEST DUP2 ISZERO PUSH2 0x25F0 JUMPI PUSH1 0x40 PUSH1 0xFF PUSH32 0x3B7A8420BCF2581FAC422A359FF730B951E902C11F27DA90A7E97DA9C068F9A6 SWAP3 AND SWAP3 DUP4 PUSH1 0x0 MSTORE PUSH1 0x6 PUSH1 0x20 MSTORE DUP2 PUSH1 0x0 KECCAK256 SWAP1 DUP1 DUP3 SLOAD SWAP3 SSTORE DUP3 MLOAD SWAP2 DUP3 MSTORE PUSH1 0x20 DUP3 ADD MSTORE LOG2 STOP JUMPDEST PUSH1 0x40 MLOAD PUSH3 0x461BCD PUSH1 0xE5 SHL DUP2 MSTORE PUSH1 0x20 PUSH1 0x4 DUP3 ADD MSTORE PUSH1 0x16 PUSH1 0x24 DUP3 ADD MSTORE PUSH22 0x1554D110C81C1C9A58D9481A5CC81C995C5D5A5C9959 PUSH1 0x52 SHL PUSH1 0x44 DUP3 ADD MSTORE PUSH1 0x64 SWAP1 REVERT JUMPDEST CALLVALUE PUSH2 0x3FE JUMPI PUSH1 0x0 CALLDATASIZE PUSH1 0x3 NOT ADD SLT PUSH2 0x3FE JUMPI PUSH1 0x20 PUSH1 0x40 MLOAD PUSH2 0x3B6 DUP2 MSTORE RETURN JUMPDEST CALLVALUE PUSH2 0x3FE JUMPI PUSH1 0x0 CALLDATASIZE PUSH1 0x3 NOT ADD SLT PUSH2 0x3FE JUMPI PUSH1 0x0 SLOAD PUSH1 0x1 PUSH1 0x1 PUSH1 0xA0 SHL SUB SWAP1 PUSH2 0x2675 SWAP1 DUP3 AND CALLER EQ PUSH2 0x2BD0 JUMP JUMPDEST PUSH2 0x2683 PUSH1 0x1 PUSH1 0x1C SLOAD EQ PUSH2 0x2B93 JUMP JUMPDEST PUSH1 0x2 PUSH1 0x1C SSTORE DUP1 PUSH1 0x4 SLOAD AND SWAP1 PUSH2 0x2699 DUP3 ISZERO ISZERO PUSH2 0x2C09 JUMP JUMPDEST PUSH1 0x13 SLOAD SWAP2 DUP3 ISZERO PUSH2 0x26F4 JUMPI DUP3 PUSH2 0x26B8 SWAP2 PUSH1 0x0 PUSH1 0x13 SSTORE DUP4 PUSH1 0x1 SLOAD AND SWAP1 PUSH2 0x2F61 JUMP JUMPDEST PUSH32 0x6F09A29FA95E6CA2C4C5B55C121D7269FAF4D531E64E23D432F03E95BB6CAA47 PUSH1 0x20 DUP3 PUSH1 0x4 SLOAD AND SWAP3 PUSH1 0x1 SLOAD AND SWAP4 PUSH1 0x40 MLOAD SWAP1 DUP2 MSTORE LOG3 PUSH1 0x1 PUSH1 0x1C SSTORE STOP JUMPDEST PUSH1 0x40 MLOAD PUSH3 0x461BCD PUSH1 0xE5 SHL DUP2 MSTORE PUSH1 0x20 PUSH1 0x4 DUP3 ADD MSTORE PUSH1 0x14 PUSH1 0x24 DUP3 ADD MSTORE PUSH20 0x4E6F20555344432070726F6A6563742066656573 PUSH1 0x60 SHL PUSH1 0x44 DUP3 ADD MSTORE PUSH1 0x64 SWAP1 REVERT JUMPDEST CALLVALUE PUSH2 0x3FE JUMPI PUSH1 0x20 CALLDATASIZE PUSH1 0x3 NOT ADD SLT PUSH2 0x3FE JUMPI PUSH1 0xFF PUSH2 0x274B PUSH2 0x2AF4 JUMP JUMPDEST AND PUSH1 0x0 MSTORE PUSH1 0x5 PUSH1 0x20 MSTORE PUSH1 0x20 PUSH1 0x40 PUSH1 0x0 KECCAK256 SLOAD PUSH1 0x40 MLOAD SWAP1 DUP2 MSTORE RETURN JUMPDEST CALLVALUE PUSH2 0x3FE JUMPI PUSH1 0x20 DUP1 PUSH1 0x3 NOT CALLDATASIZE ADD SLT PUSH2 0x3FE JUMPI PUSH1 0xFF PUSH2 0x2780 PUSH2 0x2AF4 JUMP JUMPDEST PUSH2 0x2789 DUP2 PUSH2 0x310C JUMP JUMPDEST AND PUSH1 0x0 MSTORE PUSH1 0xF DUP2 MSTORE PUSH1 0x40 PUSH1 0x0 KECCAK256 SLOAD PUSH1 0x10 DUP3 MSTORE PUSH2 0x27F0 PUSH1 0x40 PUSH1 0x0 KECCAK256 SLOAD SWAP3 PUSH1 0x11 DUP2 MSTORE PUSH1 0x40 PUSH1 0x0 KECCAK256 SLOAD SWAP1 PUSH1 0xD DUP2 MSTORE PUSH1 0xC PUSH1 0x40 PUSH1 0x0 KECCAK256 SLOAD SWAP2 MSTORE PUSH1 0x40 PUSH1 0x0 KECCAK256 SLOAD SWAP2 PUSH1 0x40 MLOAD SWAP6 DUP7 SWAP6 DUP7 SWAP2 SWAP3 PUSH1 0x80 SWAP4 SWAP7 SWAP6 SWAP5 SWAP2 SWAP7 PUSH1 0xA0 DUP5 ADD SWAP8 DUP5 MSTORE PUSH1 0x20 DUP5 ADD MSTORE PUSH1 0x40 DUP4 ADD MSTORE PUSH1 0x60 DUP3 ADD MSTORE ADD MSTORE JUMP JUMPDEST SUB SWAP1 RETURN JUMPDEST CALLVALUE PUSH2 0x3FE JUMPI PUSH1 0x0 CALLDATASIZE PUSH1 0x3 NOT ADD SLT PUSH2 0x3FE JUMPI PUSH1 0x20 PUSH1 0x40 MLOAD PUSH2 0x2710 DUP2 MSTORE RETURN JUMPDEST CALLVALUE PUSH2 0x3FE JUMPI PUSH1 0x20 DUP1 PUSH1 0x3 NOT CALLDATASIZE ADD SLT PUSH2 0x3FE JUMPI PUSH1 0xFF PUSH2 0x282D PUSH2 0x2AF4 JUMP JUMPDEST PUSH2 0x2836 DUP2 PUSH2 0x310C JUMP JUMPDEST AND PUSH1 0x0 MSTORE PUSH1 0xE DUP2 MSTORE PUSH1 0x40 PUSH1 0x0 KECCAK256 SLOAD PUSH1 0x10 DUP3 MSTORE PUSH2 0x27F0 PUSH1 0x40 PUSH1 0x0 KECCAK256 SLOAD SWAP3 PUSH1 0x11 DUP2 MSTORE PUSH1 0x40 PUSH1 0x0 KECCAK256 SLOAD SWAP1 PUSH1 0xD DUP2 MSTORE PUSH1 0xC PUSH1 0x40 PUSH1 0x0 KECCAK256 SLOAD SWAP2 MSTORE PUSH1 0x40 PUSH1 0x0 KECCAK256 SLOAD SWAP2 PUSH1 0x40 MLOAD SWAP6 DUP7 SWAP6 DUP7 SWAP2 SWAP3 PUSH1 0x80 SWAP4 SWAP7 SWAP6 SWAP5 SWAP2 SWAP7 PUSH1 0xA0 DUP5 ADD SWAP8 DUP5 MSTORE PUSH1 0x20 DUP5 ADD MSTORE PUSH1 0x40 DUP4 ADD MSTORE PUSH1 0x60 DUP3 ADD MSTORE ADD MSTORE JUMP JUMPDEST CALLVALUE PUSH2 0x3FE JUMPI PUSH1 0x0 CALLDATASIZE PUSH1 0x3 NOT ADD SLT PUSH2 0x3FE JUMPI PUSH2 0x28BC PUSH1 0x1 PUSH1 0x1C SLOAD EQ PUSH2 0x2B93 JUMP JUMPDEST PUSH1 0x2 PUSH1 0x1C SSTORE CALLER PUSH1 0x0 MSTORE PUSH1 0x9 PUSH1 0x20 MSTORE PUSH1 0xD PUSH1 0x40 PUSH1 0x0 KECCAK256 ADD SLOAD DUP1 ISZERO PUSH2 0x2929 JUMPI CALLER PUSH1 0x0 MSTORE PUSH1 0x9 PUSH1 0x20 MSTORE PUSH1 0x0 PUSH1 0xD PUSH1 0x40 DUP3 KECCAK256 ADD SSTORE PUSH2 0x28F6 DUP2 CALLER PUSH2 0x2EB4 JUMP JUMPDEST PUSH1 0x40 MLOAD SWAP1 DUP2 MSTORE PUSH32 0x53473E2A2E0CC6840D80567F104277EA6DAA0891E5316836BAC38A686B79EA33 PUSH1 0x20 CALLER SWAP3 LOG2 PUSH1 0x1 PUSH1 0x1C SSTORE STOP JUMPDEST PUSH1 0x40 MLOAD PUSH3 0x461BCD PUSH1 0xE5 SHL DUP2 MSTORE PUSH1 0x20 PUSH1 0x4 DUP3 ADD MSTORE PUSH1 0x11 PUSH1 0x24 DUP3 ADD MSTORE PUSH17 0x4E6F20726566657272616C20626F6E7573 PUSH1 0x78 SHL PUSH1 0x44 DUP3 ADD MSTORE PUSH1 0x64 SWAP1 REVERT JUMPDEST CALLVALUE PUSH2 0x3FE JUMPI PUSH1 0x0 CALLDATASIZE PUSH1 0x3 NOT ADD SLT PUSH2 0x3FE JUMPI PUSH1 0x20 PUSH1 0x40 MLOAD PUSH1 0x11 DUP2 MSTORE RETURN JUMPDEST CALLVALUE PUSH2 0x3FE JUMPI PUSH1 0x0 CALLDATASIZE PUSH1 0x3 NOT ADD SLT PUSH2 0x3FE JUMPI PUSH1 0x20 PUSH1 0x12 SLOAD PUSH1 0x40 MLOAD SWAP1 DUP2 MSTORE RETURN JUMPDEST CALLVALUE PUSH2 0x3FE JUMPI PUSH1 0x0 CALLDATASIZE PUSH1 0x3 NOT ADD SLT PUSH2 0x3FE JUMPI PUSH1 0x4 SLOAD PUSH1 0x40 MLOAD PUSH1 0x1 PUSH1 0x1 PUSH1 0xA0 SHL SUB SWAP1 SWAP2 AND DUP2 MSTORE PUSH1 0x20 SWAP1 RETURN JUMPDEST CALLVALUE PUSH2 0x3FE JUMPI PUSH1 0x40 CALLDATASIZE PUSH1 0x3 NOT ADD SLT PUSH2 0x3FE JUMPI PUSH2 0x29DE PUSH2 0x2AB8 JUMP JUMPDEST PUSH2 0x29E6 PUSH2 0x2AE4 JUMP JUMPDEST SWAP1 PUSH2 0x29F0 DUP3 PUSH2 0x310C JUMP JUMPDEST PUSH1 0x1 DUP1 PUSH1 0xA0 SHL SUB AND PUSH1 0x0 MSTORE PUSH1 0xA PUSH1 0x20 MSTORE PUSH1 0xFF PUSH1 0x40 PUSH1 0x0 KECCAK256 SWAP2 AND PUSH1 0x0 MSTORE PUSH1 0x20 MSTORE PUSH1 0x20 PUSH1 0xFF PUSH1 0x40 PUSH1 0x0 KECCAK256 SLOAD PUSH1 0x8 SHR AND PUSH1 0x40 MLOAD SWAP1 ISZERO ISZERO DUP2 MSTORE RETURN JUMPDEST CALLVALUE PUSH2 0x3FE JUMPI PUSH1 0x20 CALLDATASIZE PUSH1 0x3 NOT ADD SLT PUSH2 0x3FE JUMPI PUSH1 0xFF PUSH2 0x2A42 PUSH2 0x2AF4 JUMP JUMPDEST AND PUSH1 0x0 MSTORE PUSH1 0x6 PUSH1 0x20 MSTORE PUSH1 0x20 PUSH1 0x40 PUSH1 0x0 KECCAK256 SLOAD PUSH1 0x40 MLOAD SWAP1 DUP2 MSTORE RETURN JUMPDEST CALLVALUE PUSH2 0x3FE JUMPI PUSH1 0x40 CALLDATASIZE PUSH1 0x3 NOT ADD SLT PUSH2 0x3FE JUMPI PUSH2 0x2A74 PUSH2 0x2AB8 JUMP JUMPDEST PUSH2 0x2A7C PUSH2 0x2AE4 JUMP JUMPDEST SWAP1 PUSH2 0x2A86 DUP3 PUSH2 0x310C JUMP JUMPDEST PUSH1 0x1 DUP1 PUSH1 0xA0 SHL SUB AND PUSH1 0x0 MSTORE PUSH1 0xA PUSH1 0x20 MSTORE PUSH1 0xFF PUSH1 0x40 PUSH1 0x0 KECCAK256 SWAP2 AND PUSH1 0x0 MSTORE PUSH1 0x20 MSTORE PUSH1 0x20 PUSH1 0x7 PUSH1 0x40 PUSH1 0x0 KECCAK256 ADD SLOAD PUSH1 0x40 MLOAD SWAP1 DUP2 MSTORE RETURN JUMPDEST PUSH1 0x4 CALLDATALOAD SWAP1 PUSH1 0x1 PUSH1 0x1 PUSH1 0xA0 SHL SUB DUP3 AND DUP3 SUB PUSH2 0x3FE JUMPI JUMP JUMPDEST PUSH1 0x24 CALLDATALOAD SWAP1 PUSH1 0x1 PUSH1 0x1 PUSH1 0xA0 SHL SUB DUP3 AND DUP3 SUB PUSH2 0x3FE JUMPI JUMP JUMPDEST PUSH1 0x24 CALLDATALOAD SWAP1 PUSH1 0xFF DUP3 AND DUP3 SUB PUSH2 0x3FE JUMPI JUMP JUMPDEST PUSH1 0x4 CALLDATALOAD SWAP1 PUSH1 0xFF DUP3 AND DUP3 SUB PUSH2 0x3FE JUMPI JUMP JUMPDEST CALLVALUE PUSH2 0x3FE JUMPI PUSH1 0x0 CALLDATASIZE PUSH1 0x3 NOT ADD SLT PUSH2 0x3FE JUMPI PUSH1 0x20 PUSH1 0x40 MLOAD PUSH2 0x7D0 DUP2 MSTORE RETURN JUMPDEST CALLVALUE PUSH2 0x3FE JUMPI PUSH1 0x0 CALLDATASIZE PUSH1 0x3 NOT ADD SLT PUSH2 0x3FE JUMPI PUSH1 0x20 PUSH1 0x40 MLOAD PUSH2 0x1F4 DUP2 MSTORE RETURN JUMPDEST CALLVALUE PUSH2 0x3FE JUMPI PUSH1 0x0 CALLDATASIZE PUSH1 0x3 NOT ADD SLT PUSH2 0x3FE JUMPI PUSH1 0x20 PUSH1 0x40 MLOAD PUSH1 0x64 DUP2 MSTORE RETURN JUMPDEST CALLVALUE PUSH2 0x3FE JUMPI PUSH1 0x0 CALLDATASIZE PUSH1 0x3 NOT ADD SLT PUSH2 0x3FE JUMPI PUSH1 0x20 PUSH1 0x40 MLOAD PUSH1 0x32 DUP2 MSTORE RETURN JUMPDEST CALLVALUE PUSH2 0x3FE JUMPI PUSH1 0x0 CALLDATASIZE PUSH1 0x3 NOT ADD SLT PUSH2 0x3FE JUMPI PUSH1 0x20 PUSH1 0x40 MLOAD PUSH2 0x3E8 DUP2 MSTORE RETURN JUMPDEST ISZERO PUSH2 0x2B9A JUMPI JUMP JUMPDEST PUSH1 0x40 MLOAD PUSH3 0x461BCD PUSH1 0xE5 SHL DUP2 MSTORE PUSH1 0x20 PUSH1 0x4 DUP3 ADD MSTORE PUSH1 0xE PUSH1 0x24 DUP3 ADD MSTORE PUSH14 0x1499595B9D1C985B9D0818D85B1B PUSH1 0x92 SHL PUSH1 0x44 DUP3 ADD MSTORE PUSH1 0x64 SWAP1 REVERT JUMPDEST ISZERO PUSH2 0x2BD7 JUMPI JUMP JUMPDEST PUSH1 0x40 MLOAD PUSH3 0x461BCD PUSH1 0xE5 SHL DUP2 MSTORE PUSH1 0x20 PUSH1 0x4 DUP3 ADD MSTORE PUSH1 0xA PUSH1 0x24 DUP3 ADD MSTORE PUSH10 0x27B7363C9037BBB732B9 PUSH1 0xB1 SHL PUSH1 0x44 DUP3 ADD MSTORE PUSH1 0x64 SWAP1 REVERT JUMPDEST ISZERO PUSH2 0x2C10 JUMPI JUMP JUMPDEST PUSH1 0x40 MLOAD PUSH3 0x461BCD PUSH1 0xE5 SHL DUP2 MSTORE PUSH1 0x20 PUSH1 0x4 DUP3 ADD MSTORE PUSH1 0x19 PUSH1 0x24 DUP3 ADD MSTORE PUSH32 0x5553444320746F6B656E206E6F7420636F6E6669677572656400000000000000 PUSH1 0x44 DUP3 ADD MSTORE PUSH1 0x64 SWAP1 REVERT JUMPDEST ISZERO PUSH2 0x2C5C JUMPI JUMP JUMPDEST PUSH1 0x40 MLOAD PUSH3 0x461BCD PUSH1 0xE5 SHL DUP2 MSTORE PUSH1 0x20 PUSH1 0x4 DUP3 ADD MSTORE PUSH1 0xF PUSH1 0x24 DUP3 ADD MSTORE PUSH15 0x2632BB32B61034B990333937BD32B7 PUSH1 0x89 SHL PUSH1 0x44 DUP3 ADD MSTORE PUSH1 0x64 SWAP1 REVERT JUMPDEST SWAP2 SWAP1 DUP3 SUB SWAP2 DUP3 GT PUSH2 0xD42 JUMPI JUMP JUMPDEST PUSH2 0x160 DUP2 ADD SWAP1 DUP2 LT PUSH8 0xFFFFFFFFFFFFFFFF DUP3 GT OR PUSH2 0xD58 JUMPI PUSH1 0x40 MSTORE JUMP JUMPDEST PUSH2 0x100 DUP2 ADD SWAP1 DUP2 LT PUSH8 0xFFFFFFFFFFFFFFFF DUP3 GT OR PUSH2 0xD58 JUMPI PUSH1 0x40 MSTORE JUMP JUMPDEST PUSH2 0x260 DUP2 ADD SWAP1 DUP2 LT PUSH8 0xFFFFFFFFFFFFFFFF DUP3 GT OR PUSH2 0xD58 JUMPI PUSH1 0x40 MSTORE JUMP JUMPDEST SWAP1 PUSH1 0x1F DUP1 NOT SWAP2 ADD AND DUP2 ADD SWAP1 DUP2 LT PUSH8 0xFFFFFFFFFFFFFFFF DUP3 GT OR PUSH2 0xD58 JUMPI PUSH1 0x40 MSTORE JUMP JUMPDEST ISZERO PUSH2 0x2D20 JUMPI JUMP JUMPDEST PUSH1 0x40 MLOAD PUSH3 0x461BCD PUSH1 0xE5 SHL DUP2 MSTORE PUSH1 0x20 PUSH1 0x4 DUP3 ADD MSTORE PUSH1 0x1A PUSH1 0x24 DUP3 ADD MSTORE PUSH32 0x4C6576656C206973206E6F7420617661696C61626C6520796574000000000000 PUSH1 0x44 DUP3 ADD MSTORE PUSH1 0x64 SWAP1 REVERT JUMPDEST SWAP1 PUSH1 0xFF SWAP1 PUSH2 0x2D72 DUP2 PUSH2 0x310C JUMP JUMPDEST AND PUSH1 0x0 SWAP1 DUP1 DUP3 MSTORE PUSH1 0x10 PUSH1 0x20 MSTORE PUSH1 0x40 DUP3 KECCAK256 SLOAD SWAP3 DUP4 ISZERO PUSH2 0x2DD9 JUMPI PUSH1 0x1 DUP1 PUSH1 0xA0 SHL SUB AND DUP3 MSTORE PUSH1 0xA PUSH1 0x20 MSTORE PUSH1 0x40 DUP3 KECCAK256 SWAP1 DUP3 MSTORE PUSH1 0x20 MSTORE PUSH1 0x7 PUSH1 0x40 DUP3 KECCAK256 ADD SLOAD SWAP1 PUSH2 0x2710 SWAP2 DUP3 DUP2 MUL SWAP3 DUP2 DUP5 DIV EQ SWAP1 ISZERO OR ISZERO PUSH2 0x2DC5 JUMPI POP DIV SWAP1 JUMP JUMPDEST PUSH4 0x4E487B71 PUSH1 0xE0 SHL DUP2 MSTORE PUSH1 0x11 PUSH1 0x4 MSTORE PUSH1 0x24 SWAP1 REVERT JUMPDEST POP POP SWAP1 POP SWAP1 JUMP JUMPDEST SWAP1 PUSH1 0x1 DUP3 ADD DUP1 SWAP3 GT PUSH2 0xD42 JUMPI JUMP JUMPDEST SWAP2 SWAP1 DUP3 ADD DUP1 SWAP3 GT PUSH2 0xD42 JUMPI JUMP JUMPDEST SWAP2 SWAP1 PUSH2 0x2E06 DUP2 PUSH2 0x310C JUMP JUMPDEST PUSH1 0x0 SWAP3 PUSH1 0x1 DUP1 PUSH1 0xA0 SHL SUB AND DUP4 MSTORE PUSH1 0xA PUSH1 0x20 MSTORE PUSH1 0xFF PUSH1 0x40 DUP5 KECCAK256 SWAP2 AND DUP4 MSTORE PUSH1 0x20 MSTORE PUSH1 0x2 PUSH1 0x40 DUP4 KECCAK256 ADD SLOAD SWAP2 DUP3 ISZERO PUSH2 0x2E8F JUMPI PUSH1 0xB PUSH1 0x20 MSTORE PUSH1 0x40 DUP2 KECCAK256 DUP4 DUP3 MSTORE PUSH1 0x20 MSTORE PUSH1 0x40 DUP2 KECCAK256 DUP1 SLOAD PUSH1 0x2 DUP3 ADD SLOAD SWAP5 PUSH1 0x3 DUP4 ADD SLOAD SWAP2 PUSH1 0x4 DUP5 ADD SLOAD SWAP2 JUMPDEST PUSH1 0x1 DUP1 DUP3 GT ISZERO PUSH2 0x2E77 JUMPI SHR SWAP5 PUSH2 0x2E71 SWAP1 PUSH2 0x3E99 JUMP JUMPDEST SWAP5 PUSH2 0x2E5C JUMP JUMPDEST POP POP SWAP2 SWAP5 SWAP1 SWAP4 SWAP3 PUSH1 0x5 PUSH1 0xFF SWAP2 ADD SLOAD AND SWAP2 SWAP6 SWAP5 SWAP4 SWAP3 SWAP2 SWAP1 JUMP JUMPDEST DUP1 SWAP3 POP SWAP2 DUP1 SWAP2 DUP2 DUP1 SWAP2 DUP2 SWAP1 JUMP JUMPDEST SWAP1 DUP2 PUSH1 0x20 SWAP2 SUB SLT PUSH2 0x3FE JUMPI MLOAD DUP1 ISZERO ISZERO DUP2 SUB PUSH2 0x3FE JUMPI SWAP1 JUMP JUMPDEST DUP2 ISZERO PUSH2 0x2F5D JUMPI PUSH1 0x0 DUP1 DUP1 DUP1 SWAP5 DUP2 SWAP5 PUSH1 0x1 DUP1 PUSH1 0xA0 SHL SUB AND GAS CALL SWAP1 RETURNDATASIZE ISZERO PUSH2 0x2F57 JUMPI RETURNDATASIZE SWAP1 PUSH8 0xFFFFFFFFFFFFFFFF DUP3 GT PUSH2 0x2F43 JUMPI PUSH1 0x40 MLOAD SWAP2 PUSH2 0x2EFC PUSH1 0x1F DUP3 ADD PUSH1 0x1F NOT AND PUSH1 0x20 ADD DUP5 PUSH2 0x2CF7 JUMP JUMPDEST DUP3 MSTORE PUSH1 0x20 RETURNDATASIZE SWAP3 ADD RETURNDATACOPY JUMPDEST ISZERO PUSH2 0x2F0C JUMPI JUMP JUMPDEST PUSH1 0x40 MLOAD PUSH3 0x461BCD PUSH1 0xE5 SHL DUP2 MSTORE PUSH1 0x20 PUSH1 0x4 DUP3 ADD MSTORE PUSH1 0xF PUSH1 0x24 DUP3 ADD MSTORE PUSH15 0x151C985B9CD9995C8819985A5B1959 PUSH1 0x8A SHL PUSH1 0x44 DUP3 ADD MSTORE PUSH1 0x64 SWAP1 REVERT JUMPDEST PUSH4 0x4E487B71 PUSH1 0xE0 SHL DUP2 MSTORE PUSH1 0x41 PUSH1 0x4 MSTORE PUSH1 0x24 SWAP1 REVERT JUMPDEST POP PUSH2 0x2F05 JUMP JUMPDEST POP POP JUMP JUMPDEST DUP3 ISZERO PUSH2 0x300F JUMPI PUSH1 0x40 MLOAD PUSH4 0xA9059CBB PUSH1 0xE0 SHL DUP2 MSTORE PUSH1 0x1 PUSH1 0x1 PUSH1 0xA0 SHL SUB SWAP3 DUP4 AND PUSH1 0x4 DUP3 ADD MSTORE PUSH1 0x24 DUP2 ADD SWAP4 SWAP1 SWAP4 MSTORE PUSH1 0x20 SWAP2 DUP4 SWAP2 PUSH1 0x44 SWAP2 DUP4 SWAP2 PUSH1 0x0 SWAP2 AND GAS CALL SWAP1 DUP2 ISZERO PUSH2 0x762 JUMPI PUSH1 0x0 SWAP2 PUSH2 0x2FF0 JUMPI JUMPDEST POP ISZERO PUSH2 0x2FB3 JUMPI JUMP JUMPDEST PUSH1 0x40 MLOAD PUSH3 0x461BCD PUSH1 0xE5 SHL DUP2 MSTORE PUSH1 0x20 PUSH1 0x4 DUP3 ADD MSTORE PUSH1 0x15 PUSH1 0x24 DUP3 ADD MSTORE PUSH21 0x151BDAD95B881D1C985B9CD9995C8819985A5B1959 PUSH1 0x5A SHL PUSH1 0x44 DUP3 ADD MSTORE PUSH1 0x64 SWAP1 REVERT JUMPDEST PUSH2 0x3009 SWAP2 POP PUSH1 0x20 RETURNDATASIZE PUSH1 0x20 GT PUSH2 0x75B JUMPI PUSH2 0x74D DUP2 DUP4 PUSH2 0x2CF7 JUMP JUMPDEST CODESIZE PUSH2 0x2FAB JUMP JUMPDEST POP POP POP JUMP JUMPDEST SWAP3 SWAP1 SWAP2 SWAP3 PUSH1 0x0 SWAP4 PUSH1 0x1 DUP1 PUSH1 0xA0 SHL SUB DUP5 AND DUP6 MSTORE PUSH1 0x9 PUSH1 0x20 MSTORE PUSH1 0x40 DUP6 KECCAK256 SWAP1 PUSH1 0xA PUSH1 0x20 MSTORE PUSH1 0x40 DUP7 KECCAK256 PUSH1 0xFF DUP5 AND DUP8 MSTORE PUSH1 0x20 MSTORE PUSH1 0x40 DUP7 KECCAK256 PUSH1 0xFF DUP2 SLOAD AND PUSH2 0x30C7 JUMPI PUSH2 0x305C PUSH1 0x1 SWAP3 DUP8 DUP6 PUSH2 0x3301 JUMP JUMPDEST DUP2 PUSH2 0xFFFF NOT DUP3 SLOAD AND OR DUP2 SSTORE ADD DUP1 SLOAD SWAP1 PUSH1 0x1 DUP3 ADD DUP1 SWAP3 GT PUSH2 0x30B3 JUMPI SSTORE PUSH1 0x4 DUP2 ADD DUP1 SLOAD SWAP1 PUSH1 0x1 DUP3 ADD DUP1 SWAP3 GT PUSH2 0x30B3 JUMPI PUSH2 0x30B1 SWAP5 SWAP6 SWAP7 POP SSTORE PUSH1 0x11 TIMESTAMP SWAP2 ADD SSTORE PUSH2 0x30A1 DUP5 DUP3 PUSH2 0x342C JUMP JUMPDEST SWAP4 PUSH2 0x30AC DUP3 DUP3 PUSH2 0x3829 JUMP JUMPDEST PUSH2 0x3B00 JUMP JUMPDEST JUMP JUMPDEST PUSH4 0x4E487B71 PUSH1 0xE0 SHL DUP8 MSTORE PUSH1 0x11 PUSH1 0x4 MSTORE PUSH1 0x24 DUP8 REVERT JUMPDEST PUSH1 0x40 MLOAD PUSH3 0x461BCD PUSH1 0xE5 SHL DUP2 MSTORE PUSH1 0x20 PUSH1 0x4 DUP3 ADD MSTORE PUSH1 0x17 PUSH1 0x24 DUP3 ADD MSTORE PUSH32 0x4C6576656C20697320616C726561647920616374697665000000000000000000 PUSH1 0x44 DUP3 ADD MSTORE PUSH1 0x64 SWAP1 REVERT JUMPDEST PUSH1 0xFF AND PUSH1 0x1 DUP2 LT DUP1 ISZERO PUSH2 0x3139 JUMPI JUMPDEST PUSH2 0x3121 JUMPI POP JUMP JUMPDEST PUSH1 0x24 SWAP1 PUSH1 0x40 MLOAD SWAP1 PUSH4 0x3D98C855 PUSH1 0xE2 SHL DUP3 MSTORE PUSH1 0x4 DUP3 ADD MSTORE REVERT JUMPDEST POP PUSH1 0x11 DUP2 GT PUSH2 0x311A JUMP JUMPDEST DUP1 SLOAD DUP3 LT ISZERO PUSH2 0x315B JUMPI PUSH1 0x0 MSTORE PUSH1 0x20 PUSH1 0x0 KECCAK256 ADD SWAP1 PUSH1 0x0 SWAP1 JUMP JUMPDEST PUSH4 0x4E487B71 PUSH1 0xE0 SHL PUSH1 0x0 MSTORE PUSH1 0x32 PUSH1 0x4 MSTORE PUSH1 0x24 PUSH1 0x0 REVERT JUMPDEST SWAP1 PUSH1 0xFF PUSH1 0x0 SWAP3 AND SWAP1 DUP2 DUP4 MSTORE PUSH1 0x20 SWAP2 PUSH1 0x19 PUSH1 0x20 MSTORE PUSH1 0x40 SWAP4 PUSH1 0x40 DUP2 KECCAK256 DUP2 SWAP6 DUP2 SLOAD SWAP7 JUMPDEST DUP8 DUP2 LT PUSH2 0x31A5 JUMPI POP POP POP POP POP POP POP POP PUSH1 0x0 SWAP1 JUMP JUMPDEST PUSH2 0x31E3 PUSH2 0x31B2 DUP3 DUP6 PUSH2 0x3143 JUMP JUMPDEST SWAP1 SLOAD PUSH1 0x3 SWAP2 SWAP1 SWAP2 SHL SHR PUSH1 0x1 PUSH1 0x1 PUSH1 0xA0 SHL SUB AND PUSH1 0x0 DUP2 DUP2 MSTORE PUSH1 0xA DUP11 MSTORE DUP5 DUP2 KECCAK256 DUP9 DUP3 MSTORE DUP11 MSTORE DUP5 SWAP1 KECCAK256 PUSH1 0x7 ADD SLOAD SWAP1 SWAP6 PUSH2 0x2DEE JUMP JUMPDEST SWAP4 DUP5 DUP8 GT ISZERO PUSH2 0x31F5 JUMPI POP PUSH1 0x1 ADD PUSH2 0x3191 JUMP JUMPDEST SWAP8 POP POP POP POP POP POP POP POP SWAP1 JUMP JUMPDEST PUSH1 0x40 SWAP1 PUSH1 0x1 DUP1 PUSH1 0xA0 SHL SUB AND SWAP2 PUSH1 0x0 SWAP1 DUP4 DUP3 MSTORE PUSH1 0xA PUSH1 0x20 MSTORE PUSH1 0xFF DUP4 DUP4 KECCAK256 SWAP2 AND DUP3 MSTORE PUSH1 0x20 MSTORE DUP2 DUP2 KECCAK256 SWAP3 DUP2 MSTORE PUSH1 0x9 PUSH1 0x20 MSTORE KECCAK256 SWAP1 PUSH1 0xFF DUP2 SLOAD PUSH1 0x8 SHR AND PUSH2 0x3261 JUMPI PUSH2 0x325D SWAP2 PUSH1 0x8 PUSH1 0xE SWAP3 ADD PUSH2 0x3252 DUP6 DUP3 SLOAD PUSH2 0x2DEE JUMP JUMPDEST SWAP1 SSTORE ADD SWAP2 DUP3 SLOAD PUSH2 0x2DEE JUMP JUMPDEST SWAP1 SSTORE JUMP JUMPDEST PUSH2 0x325D SWAP2 PUSH1 0x9 PUSH1 0xF SWAP3 ADD PUSH2 0x3252 DUP6 DUP3 SLOAD PUSH2 0x2DEE JUMP JUMPDEST PUSH1 0x1 DUP1 PUSH1 0xA0 SHL SUB AND SWAP1 PUSH1 0x0 DUP3 DUP2 MSTORE PUSH1 0x20 SWAP3 PUSH1 0xA DUP5 MSTORE PUSH1 0x40 SWAP3 PUSH1 0xFF DUP5 DUP5 KECCAK256 SWAP2 AND SWAP1 DUP2 DUP5 MSTORE DUP6 MSTORE PUSH1 0xFF DUP5 DUP5 KECCAK256 SLOAD PUSH1 0x8 SHR AND PUSH2 0x32DC JUMPI SWAP4 DUP2 PUSH2 0x325D SWAP6 PUSH1 0x15 SWAP4 DUP6 MSTORE PUSH1 0x17 DUP4 MSTORE DUP6 DUP6 KECCAK256 SWAP1 DUP6 MSTORE DUP3 MSTORE DUP5 DUP5 KECCAK256 PUSH2 0x32CE DUP9 DUP3 SLOAD PUSH2 0x2DEE JUMP JUMPDEST SWAP1 SSTORE DUP4 MSTORE MSTORE KECCAK256 SWAP2 DUP3 SLOAD PUSH2 0x2DEE JUMP JUMPDEST SWAP4 DUP2 PUSH2 0x325D SWAP6 PUSH1 0x16 SWAP4 DUP6 MSTORE PUSH1 0x18 DUP4 MSTORE DUP6 DUP6 KECCAK256 SWAP1 DUP6 MSTORE DUP3 MSTORE DUP5 DUP5 KECCAK256 PUSH2 0x32CE DUP9 DUP3 SLOAD PUSH2 0x2DEE JUMP JUMPDEST SWAP2 DUP3 SLOAD PUSH1 0xFF DUP2 AND PUSH2 0x33E6 JUMPI PUSH1 0x1 PUSH1 0x1 PUSH1 0xA8 SHL SUB NOT AND PUSH1 0x8 DUP4 SWAP1 SHL PUSH2 0x100 PUSH1 0x1 PUSH1 0xA8 SHL SUB AND OR PUSH1 0x1 OR DUP4 SSTORE TIMESTAMP PUSH1 0x10 DUP5 ADD SSTORE PUSH1 0x1 PUSH1 0x1 PUSH1 0xA0 SHL SUB SWAP1 DUP2 AND SWAP2 DUP3 ISZERO ISZERO SWAP1 DUP3 SWAP1 DUP3 PUSH2 0x33D9 JUMPI JUMPDEST POP POP DUP1 PUSH2 0x33C1 JUMPI JUMPDEST PUSH2 0x335A JUMPI POP POP POP JUMP JUMPDEST PUSH1 0x3 PUSH1 0x1 DUP5 ADD SWAP3 PUSH1 0x1 PUSH1 0x1 PUSH1 0x60 SHL SUB PUSH1 0xA0 SHL SWAP4 DUP2 DUP6 DUP3 SLOAD AND OR SWAP1 SSTORE PUSH1 0x0 SWAP1 DUP2 MSTORE PUSH1 0x9 PUSH1 0x20 MSTORE DUP3 DUP1 PUSH1 0x1 PUSH1 0x40 DUP5 KECCAK256 ADD SLOAD AND PUSH1 0x2 DUP8 ADD DUP2 DUP8 DUP3 SLOAD AND OR SWAP1 SSTORE DUP1 ISZERO PUSH1 0x0 EQ PUSH2 0x33AF JUMPI POP POP SWAP4 JUMPDEST ADD SWAP3 AND SWAP1 DUP3 SLOAD AND OR SWAP1 SSTORE JUMP JUMPDEST DUP3 MSTORE PUSH1 0x40 SWAP1 SWAP2 KECCAK256 PUSH1 0x1 ADD SLOAD AND SWAP4 PUSH2 0x33A3 JUMP JUMPDEST POP DUP2 PUSH1 0x0 MSTORE PUSH1 0x9 PUSH1 0x20 MSTORE PUSH1 0xFF PUSH1 0x40 PUSH1 0x0 KECCAK256 SLOAD AND PUSH2 0x3351 JUMP JUMPDEST AND DUP4 EQ ISZERO SWAP1 POP DUP2 CODESIZE PUSH2 0x3349 JUMP JUMPDEST POP POP POP POP JUMP JUMPDEST DUP1 SLOAD PUSH9 0x10000000000000000 DUP2 LT ISZERO PUSH2 0xD58 JUMPI PUSH2 0x340E SWAP2 PUSH1 0x1 DUP3 ADD DUP2 SSTORE PUSH2 0x3143 JUMP JUMPDEST PUSH1 0x1 DUP1 PUSH1 0xA0 SWAP5 SWAP4 SWAP5 SHL SUB DUP1 DUP5 SLOAD SWAP3 PUSH1 0x3 SHL SWAP4 AND DUP4 SHL SWAP3 SHL NOT AND OR SWAP1 SSTORE JUMP JUMPDEST SWAP2 SWAP1 SWAP2 PUSH2 0x3446 DUP2 PUSH1 0xFF AND PUSH1 0x0 MSTORE PUSH1 0xC PUSH1 0x20 MSTORE PUSH1 0x40 PUSH1 0x0 KECCAK256 SWAP1 JUMP JUMPDEST SLOAD ISZERO PUSH2 0x3804 JUMPI JUMPDEST PUSH2 0x3464 DUP2 PUSH1 0xFF AND PUSH1 0x0 MSTORE PUSH1 0xC PUSH1 0x20 MSTORE PUSH1 0x40 PUSH1 0x0 KECCAK256 SWAP1 JUMP JUMPDEST SLOAD SWAP3 DUP4 SWAP2 PUSH2 0x3471 DUP4 PUSH2 0x2DE0 JUMP JUMPDEST PUSH2 0x3488 DUP3 PUSH1 0xFF AND PUSH1 0x0 MSTORE PUSH1 0xC PUSH1 0x20 MSTORE PUSH1 0x40 PUSH1 0x0 KECCAK256 SWAP1 JUMP JUMPDEST SSTORE PUSH1 0x1 DUP4 SUB PUSH2 0x37FA JUMPI PUSH1 0x0 SWAP1 JUMPDEST PUSH2 0x349E DUP5 PUSH2 0x403E JUMP JUMPDEST PUSH2 0x351B DUP2 PUSH1 0x5 PUSH2 0x34CE DUP9 PUSH2 0x34BF DUP8 PUSH1 0xFF AND PUSH1 0x0 MSTORE PUSH1 0xB PUSH1 0x20 MSTORE PUSH1 0x40 PUSH1 0x0 KECCAK256 SWAP1 JUMP JUMPDEST SWAP1 PUSH1 0x0 MSTORE PUSH1 0x20 MSTORE PUSH1 0x40 PUSH1 0x0 KECCAK256 SWAP1 JUMP JUMPDEST DUP9 DUP2 SSTORE PUSH1 0x1 DUP2 ADD DUP1 SLOAD PUSH1 0xFF PUSH1 0xA0 SHL PUSH1 0xA0 DUP10 SWAP1 SHL AND PUSH1 0x1 PUSH1 0x1 PUSH1 0xA8 SHL SUB NOT SWAP1 SWAP2 AND PUSH1 0x1 PUSH1 0x1 PUSH1 0xA0 SHL SUB DUP12 AND OR OR SWAP1 SSTORE DUP7 PUSH1 0x2 DUP3 ADD SSTORE ADD SWAP1 PUSH2 0xFF00 DUP3 SLOAD SWAP2 ISZERO ISZERO PUSH1 0x8 SHL AND SWAP1 PUSH2 0xFF00 NOT AND OR SWAP1 SSTORE JUMP JUMPDEST DUP3 PUSH1 0x3 PUSH2 0x3550 DUP5 PUSH2 0x353E DUP9 PUSH1 0x1 DUP1 PUSH1 0xA0 SHL SUB AND PUSH1 0x0 MSTORE PUSH1 0xA PUSH1 0x20 MSTORE PUSH1 0x40 PUSH1 0x0 KECCAK256 SWAP1 JUMP JUMPDEST SWAP1 PUSH1 0xFF AND PUSH1 0x0 MSTORE PUSH1 0x20 MSTORE PUSH1 0x40 PUSH1 0x0 KECCAK256 SWAP1 JUMP JUMPDEST DUP8 PUSH1 0x2 DUP3 ADD SSTORE ADD SSTORE PUSH2 0x356F DUP3 PUSH1 0xFF AND PUSH1 0x0 MSTORE PUSH1 0x11 PUSH1 0x20 MSTORE PUSH1 0x40 PUSH1 0x0 KECCAK256 SWAP1 JUMP JUMPDEST PUSH2 0x3579 DUP2 SLOAD PUSH2 0x2DE0 JUMP JUMPDEST SWAP1 SSTORE PUSH2 0x3592 DUP3 PUSH1 0xFF AND PUSH1 0x0 MSTORE PUSH1 0x11 PUSH1 0x20 MSTORE PUSH1 0x40 PUSH1 0x0 KECCAK256 SWAP1 JUMP JUMPDEST SLOAD PUSH2 0x35AA DUP4 PUSH1 0xFF AND PUSH1 0x0 MSTORE PUSH1 0x8 PUSH1 0x20 MSTORE PUSH1 0x40 PUSH1 0x0 KECCAK256 SWAP1 JUMP JUMPDEST SSTORE PUSH2 0x35EE PUSH2 0x35EA PUSH2 0x35E3 DUP7 PUSH2 0x35CC DUP7 PUSH1 0xFF AND PUSH1 0x0 MSTORE PUSH1 0x1A PUSH1 0x20 MSTORE PUSH1 0x40 PUSH1 0x0 KECCAK256 SWAP1 JUMP JUMPDEST SWAP1 PUSH1 0x1 DUP1 PUSH1 0xA0 SHL SUB AND PUSH1 0x0 MSTORE PUSH1 0x20 MSTORE PUSH1 0x40 PUSH1 0x0 KECCAK256 SWAP1 JUMP JUMPDEST SLOAD PUSH1 0xFF AND SWAP1 JUMP JUMPDEST ISZERO SWAP1 JUMP JUMPDEST PUSH2 0x37AA JUMPI JUMPDEST DUP3 PUSH2 0x364A JUMPI JUMPDEST DUP2 PUSH2 0x3632 PUSH1 0xFF SWAP3 PUSH2 0x362A PUSH32 0xD8A08C0C1F4B5E930E1DA0BD0B50635C1F9DE780C217CE3FA2A17686579146C8 SWAP6 PUSH2 0x418E JUMP JUMPDEST DUP8 DUP4 DUP9 PUSH2 0x4226 JUMP JUMPDEST PUSH1 0x40 MLOAD SWAP4 DUP5 MSTORE AND SWAP3 PUSH1 0x1 PUSH1 0x1 PUSH1 0xA0 SHL SUB AND SWAP2 PUSH1 0x20 SWAP1 LOG4 JUMP JUMPDEST PUSH2 0x3665 DUP4 PUSH2 0x34BF DUP5 PUSH1 0xFF AND PUSH1 0x0 MSTORE PUSH1 0xB PUSH1 0x20 MSTORE PUSH1 0x40 PUSH1 0x0 KECCAK256 SWAP1 JUMP JUMPDEST PUSH1 0x3 DUP2 ADD DUP1 SLOAD PUSH2 0x36DE JUMPI PUSH1 0xFF SWAP3 DUP8 PUSH1 0x4 PUSH2 0x36D1 DUP8 PUSH2 0x353E PUSH2 0x36B7 PUSH1 0x1 PUSH32 0xD8A08C0C1F4B5E930E1DA0BD0B50635C1F9DE780C217CE3FA2A17686579146C8 SWAP12 SWAP10 DUP8 PUSH2 0x3632 SWAP11 SSTORE ADD SLOAD PUSH1 0x1 DUP1 PUSH1 0xA0 SHL SUB AND SWAP1 JUMP JUMPDEST PUSH1 0x1 PUSH1 0x1 PUSH1 0xA0 SHL SUB AND PUSH1 0x0 SWAP1 DUP2 MSTORE PUSH1 0xA PUSH1 0x20 MSTORE PUSH1 0x40 SWAP1 KECCAK256 SWAP1 JUMP JUMPDEST ADD SSTORE JUMPDEST SWAP3 POP POP SWAP2 POP PUSH2 0x35F9 JUMP JUMPDEST POP SWAP5 POP PUSH1 0x4 DUP6 ADD DUP1 SLOAD ISZERO PUSH1 0x0 EQ PUSH2 0x376D JUMPI PUSH2 0x373A PUSH1 0x1 DUP10 SWAP8 DUP9 PUSH2 0x3740 SWAP5 SSTORE PUSH2 0x3710 PUSH1 0x5 DUP3 ADD PUSH1 0x1 PUSH1 0xFF NOT DUP3 SLOAD AND OR SWAP1 SSTORE JUMP JUMPDEST ADD DUP8 PUSH1 0x5 PUSH2 0x372B DUP8 PUSH2 0x353E PUSH2 0x36B7 DUP7 SLOAD PUSH1 0x1 DUP1 PUSH1 0xA0 SHL SUB AND SWAP1 JUMP JUMPDEST ADD SSTORE SLOAD PUSH1 0x1 PUSH1 0x1 PUSH1 0xA0 SHL SUB AND SWAP1 JUMP JUMPDEST DUP4 PUSH2 0x405F JUMP JUMPDEST PUSH32 0xD8A08C0C1F4B5E930E1DA0BD0B50635C1F9DE780C217CE3FA2A17686579146C8 SWAP2 PUSH2 0x3632 PUSH1 0xFF SWAP3 PUSH2 0x36D4 JUMP JUMPDEST PUSH1 0x40 MLOAD PUSH3 0x461BCD PUSH1 0xE5 SHL DUP2 MSTORE PUSH1 0x20 PUSH1 0x4 DUP3 ADD MSTORE PUSH1 0x15 PUSH1 0x24 DUP3 ADD MSTORE PUSH21 0x14185C995B9D08185B1C9958591E4818DB1BDCD959 PUSH1 0x5A SHL PUSH1 0x44 DUP3 ADD MSTORE PUSH1 0x64 SWAP1 REVERT JUMPDEST PUSH2 0x37D5 PUSH2 0x37C8 DUP6 PUSH2 0x35CC DUP6 PUSH1 0xFF AND PUSH1 0x0 MSTORE PUSH1 0x1A PUSH1 0x20 MSTORE PUSH1 0x40 PUSH1 0x0 KECCAK256 SWAP1 JUMP JUMPDEST DUP1 SLOAD PUSH1 0xFF NOT AND PUSH1 0x1 OR SWAP1 SSTORE JUMP JUMPDEST PUSH2 0x37F5 DUP5 PUSH2 0x37F0 DUP5 PUSH1 0xFF AND PUSH1 0x0 MSTORE PUSH1 0x19 PUSH1 0x20 MSTORE PUSH1 0x40 PUSH1 0x0 KECCAK256 SWAP1 JUMP JUMPDEST PUSH2 0x33EC JUMP JUMPDEST PUSH2 0x35F3 JUMP JUMPDEST DUP3 PUSH1 0x1 SHR SWAP1 PUSH2 0x3495 JUMP JUMPDEST PUSH2 0x3824 PUSH2 0x381E DUP3 PUSH1 0xFF AND PUSH1 0x0 MSTORE PUSH1 0xC PUSH1 0x20 MSTORE PUSH1 0x40 PUSH1 0x0 KECCAK256 SWAP1 JUMP JUMPDEST PUSH1 0x1 SWAP1 SSTORE JUMP JUMPDEST PUSH2 0x344D JUMP JUMPDEST PUSH1 0x1 PUSH1 0x1 PUSH1 0xA0 SHL SUB AND PUSH1 0x0 DUP2 DUP2 MSTORE PUSH1 0x1B PUSH1 0x20 SWAP1 DUP2 MSTORE PUSH1 0x40 DUP1 DUP4 KECCAK256 PUSH1 0xFF SWAP6 SWAP1 SWAP6 AND DUP1 DUP5 MSTORE SWAP5 DUP3 MSTORE DUP1 DUP4 KECCAK256 DUP5 DUP5 MSTORE PUSH1 0x9 DUP4 MSTORE DUP2 DUP5 KECCAK256 PUSH1 0xA DUP5 MSTORE DUP3 DUP6 KECCAK256 DUP8 DUP7 MSTORE DUP5 MSTORE DUP3 DUP6 KECCAK256 DUP3 SLOAD SWAP2 SWAP6 SWAP1 SWAP3 PUSH2 0x3893 PUSH2 0x388C PUSH1 0x7 PUSH2 0x3882 DUP7 PUSH2 0x4492 JUMP JUMPDEST SWAP7 ADD SWAP6 DUP7 SLOAD PUSH2 0x43E8 JUMP JUMPDEST DUP1 SWAP5 PUSH2 0x2DEE JUMP JUMPDEST SWAP1 SSTORE PUSH1 0x5 DUP7 ADD PUSH2 0x38A4 DUP4 DUP3 SLOAD PUSH2 0x2DEE JUMP JUMPDEST SWAP1 SSTORE DUP2 ISZERO PUSH2 0x390B JUMPI DUP4 PUSH2 0x3900 SWAP2 PUSH1 0xA PUSH32 0xF3DF9E133B197DFBBA04AF8B589DD996D7080575083D89B81DD8F5FC0377DB5A SWAP9 PUSH2 0x38E0 DUP7 DUP9 SLOAD PUSH2 0x2DEE JUMP JUMPDEST DUP8 SSTORE ADD PUSH2 0x38EE DUP6 DUP3 SLOAD PUSH2 0x2DEE JUMP JUMPDEST SWAP1 SSTORE DUP10 DUP2 MSTORE PUSH1 0x10 DUP8 MSTORE KECCAK256 SWAP2 DUP3 SLOAD PUSH2 0x2DEE JUMP JUMPDEST SWAP1 SSTORE SLOAD SWAP1 MLOAD SWAP1 DUP2 MSTORE LOG3 JUMP JUMPDEST POP POP POP POP POP POP POP POP JUMP JUMPDEST PUSH1 0x1 DUP1 PUSH1 0xA0 SHL SUB AND PUSH1 0x0 DUP2 DUP2 MSTORE PUSH1 0x20 PUSH1 0x1B DUP2 MSTORE PUSH1 0x40 PUSH1 0xFF DUP2 DUP5 KECCAK256 SWAP6 AND SWAP5 DUP6 DUP5 MSTORE DUP3 MSTORE DUP1 DUP4 KECCAK256 DUP5 DUP5 MSTORE PUSH1 0x9 DUP4 MSTORE DUP2 DUP5 KECCAK256 SWAP4 PUSH1 0xA DUP5 MSTORE DUP3 DUP2 KECCAK256 DUP8 DUP3 MSTORE DUP5 MSTORE PUSH1 0x1 DUP4 DUP3 KECCAK256 SWAP3 ADD SWAP1 DUP2 SLOAD SWAP2 PUSH2 0x396D PUSH2 0x388C PUSH1 0x7 PUSH2 0x3882 DUP7 PUSH2 0x4440 JUMP JUMPDEST SWAP1 SSTORE PUSH1 0x6 DUP7 ADD PUSH2 0x38A4 DUP4 DUP3 SLOAD PUSH2 0x2DEE JUMP JUMPDEST PUSH1 0x1 DUP1 PUSH1 0xA0 SHL SUB AND PUSH1 0x0 DUP2 DUP2 MSTORE PUSH1 0x20 PUSH1 0x1B DUP2 MSTORE PUSH1 0x40 PUSH1 0xFF DUP2 DUP5 KECCAK256 SWAP6 AND SWAP5 DUP6 DUP5 MSTORE DUP3 MSTORE DUP1 DUP4 KECCAK256 DUP5 DUP5 MSTORE PUSH1 0x9 DUP4 MSTORE DUP2 DUP5 KECCAK256 SWAP4 PUSH1 0xA DUP5 MSTORE DUP3 DUP2 KECCAK256 DUP8 DUP3 MSTORE DUP5 MSTORE PUSH1 0x1 DUP4 DUP3 KECCAK256 SWAP3 ADD SWAP1 DUP2 SLOAD SWAP2 PUSH2 0x396D PUSH2 0x388C PUSH1 0x7 PUSH2 0x3882 DUP7 PUSH2 0x4417 JUMP JUMPDEST PUSH1 0x1 DUP1 PUSH1 0xA0 SHL SUB AND PUSH1 0x0 DUP2 DUP2 MSTORE PUSH1 0x20 PUSH1 0x1B DUP2 MSTORE PUSH1 0x40 PUSH1 0xFF DUP2 DUP5 KECCAK256 SWAP6 AND SWAP5 DUP6 DUP5 MSTORE DUP3 MSTORE DUP1 DUP4 KECCAK256 DUP5 DUP5 MSTORE PUSH1 0x9 DUP4 MSTORE DUP2 DUP5 KECCAK256 SWAP4 PUSH1 0xA DUP5 MSTORE DUP3 DUP2 KECCAK256 DUP8 DUP3 MSTORE DUP5 MSTORE PUSH1 0x1 DUP4 DUP3 KECCAK256 SWAP3 ADD SWAP1 DUP2 SLOAD SWAP2 PUSH2 0x396D PUSH2 0x388C PUSH1 0x7 PUSH2 0x3882 DUP7 PUSH2 0x4469 JUMP JUMPDEST PUSH1 0x1 DUP1 PUSH1 0xA0 SHL SUB AND PUSH1 0x0 DUP2 DUP2 MSTORE PUSH1 0x20 PUSH1 0x1B DUP2 MSTORE PUSH1 0x40 PUSH1 0xFF DUP2 DUP5 KECCAK256 SWAP6 AND SWAP5 DUP6 DUP5 MSTORE DUP3 MSTORE DUP1 DUP4 KECCAK256 DUP5 DUP5 MSTORE PUSH1 0x9 DUP4 MSTORE DUP2 DUP5 KECCAK256 SWAP4 PUSH1 0xA DUP5 MSTORE DUP3 DUP2 KECCAK256 DUP8 DUP3 MSTORE DUP5 MSTORE PUSH1 0x3 DUP4 DUP3 KECCAK256 SWAP3 ADD SWAP1 DUP2 SLOAD SWAP2 PUSH2 0x3A86 PUSH2 0x388C PUSH1 0x7 PUSH2 0x3882 DUP7 PUSH2 0x4417 JUMP JUMPDEST SWAP1 SSTORE PUSH1 0x8 DUP7 ADD PUSH2 0x38A4 DUP4 DUP3 SLOAD PUSH2 0x2DEE JUMP JUMPDEST PUSH1 0x1 DUP1 PUSH1 0xA0 SHL SUB AND PUSH1 0x0 DUP2 DUP2 MSTORE PUSH1 0x20 PUSH1 0x1B DUP2 MSTORE PUSH1 0x40 PUSH1 0xFF DUP2 DUP5 KECCAK256 SWAP6 AND SWAP5 DUP6 DUP5 MSTORE DUP3 MSTORE DUP1 DUP4 KECCAK256 DUP5 DUP5 MSTORE PUSH1 0x9 DUP4 MSTORE DUP2 DUP5 KECCAK256 SWAP4 PUSH1 0xA DUP5 MSTORE DUP3 DUP2 KECCAK256 DUP8 DUP3 MSTORE DUP5 MSTORE PUSH1 0x4 DUP4 DUP3 KECCAK256 SWAP3 ADD SWAP1 DUP2 SLOAD SWAP2 PUSH2 0x3AEF PUSH2 0x388C PUSH1 0x7 PUSH2 0x3882 DUP7 PUSH2 0x43B8 JUMP JUMPDEST SWAP1 SSTORE PUSH1 0x9 DUP7 ADD PUSH2 0x38A4 DUP4 DUP3 SLOAD PUSH2 0x2DEE JUMP JUMPDEST PUSH1 0xFF DUP1 SWAP3 AND SWAP1 PUSH1 0x1 SWAP2 PUSH1 0x1 DUP2 GT ISZERO PUSH2 0x33E6 JUMPI PUSH1 0x1 SWAP2 DUP4 JUMPDEST PUSH2 0x3B23 JUMPI JUMPDEST POP POP POP POP POP JUMP JUMPDEST DUP5 DUP4 AND SWAP3 DUP3 DUP5 LT ISZERO PUSH2 0x3CA6 JUMPI DUP5 DUP7 SWAP2 DUP2 SWAP6 PUSH1 0x1 DUP1 PUSH1 0xA0 SHL SUB DUP6 AND PUSH1 0x0 DUP2 DUP2 MSTORE PUSH1 0x20 SWAP1 PUSH1 0xA DUP3 MSTORE PUSH1 0x40 DUP1 DUP3 KECCAK256 DUP6 DUP4 MSTORE DUP4 MSTORE DUP1 DUP3 KECCAK256 SWAP3 DUP4 SLOAD SWAP4 PUSH1 0x8 DUP11 DUP7 DUP3 SHR AND PUSH2 0x3B76 JUMPI JUMPDEST POP POP POP POP POP POP POP POP ADD AND SWAP3 PUSH2 0x3B17 JUMP JUMPDEST PUSH32 0xB0F7D96751587DE2FBB05AE8BB25971BA7CD777DE717EB3698B701D6C7739654 SWAP6 PUSH2 0xFF00 NOT AND DUP3 SSTORE PUSH1 0x9 SWAP1 DUP2 DUP4 ADD SWAP3 DUP7 DUP5 SLOAD SWAP5 DUP6 PUSH2 0x3C5B JUMPI JUMPDEST POP SWAP3 POP POP POP DUP7 SWAP2 POP MSTORE PUSH1 0x18 SWAP2 DUP3 DUP3 MSTORE DUP1 DUP5 KECCAK256 DUP8 DUP6 MSTORE DUP3 MSTORE DUP1 DUP5 KECCAK256 SLOAD PUSH2 0x3BE2 JUMPI JUMPDEST POP POP POP DUP1 LOG3 CODESIZE DUP1 DUP1 DUP1 DUP1 DUP1 DUP1 DUP1 PUSH2 0x3B66 JUMP JUMPDEST PUSH1 0x15 PUSH2 0x3C51 SWAP3 DUP8 DUP7 MSTORE DUP5 DUP2 MSTORE DUP3 DUP7 KECCAK256 DUP10 DUP8 MSTORE DUP2 MSTORE DUP3 DUP7 KECCAK256 SLOAD SWAP5 DUP9 DUP8 MSTORE DUP2 MSTORE DUP3 DUP7 KECCAK256 DUP10 DUP8 MSTORE DUP2 MSTORE DUP6 DUP4 DUP2 KECCAK256 SSTORE DUP8 DUP7 MSTORE PUSH1 0x17 DUP2 MSTORE DUP3 DUP7 KECCAK256 DUP10 DUP8 MSTORE DUP2 MSTORE DUP3 DUP7 KECCAK256 PUSH2 0x3C2A DUP7 DUP3 SLOAD PUSH2 0x2DEE JUMP JUMPDEST SWAP1 SSTORE DUP8 DUP7 MSTORE PUSH1 0x16 DUP2 MSTORE DUP3 DUP7 KECCAK256 PUSH2 0x3C41 DUP7 DUP3 SLOAD PUSH2 0x2C93 JUMP JUMPDEST SWAP1 SSTORE DUP8 DUP7 MSTORE MSTORE DUP4 KECCAK256 SWAP2 DUP3 SLOAD PUSH2 0x2DEE JUMP JUMPDEST SWAP1 SSTORE CODESIZE DUP1 DUP1 PUSH2 0x3BD0 JUMP JUMPDEST SSTORE ADD PUSH2 0x3C68 DUP4 DUP3 SLOAD PUSH2 0x2DEE JUMP JUMPDEST SWAP1 SSTORE DUP7 DUP6 MSTORE DUP1 DUP4 MSTORE PUSH1 0xF DUP5 DUP7 KECCAK256 ADD PUSH2 0x3C81 DUP4 DUP3 SLOAD PUSH2 0x2C93 JUMP JUMPDEST SWAP1 SSTORE DUP7 DUP6 MSTORE DUP3 MSTORE PUSH2 0x3C99 PUSH1 0xE DUP5 DUP7 KECCAK256 ADD SWAP2 DUP3 SLOAD PUSH2 0x2DEE JUMP JUMPDEST SWAP1 SSTORE CODESIZE DUP1 DUP1 DUP1 DUP7 DUP2 PUSH2 0x3BB0 JUMP JUMPDEST POP PUSH2 0x3B1C JUMP JUMPDEST SWAP1 SWAP3 SWAP2 PUSH1 0x1 PUSH1 0x1 PUSH1 0xA0 SHL SUB DUP1 DUP4 AND SWAP3 SWAP1 SWAP2 SWAP1 DUP4 ISZERO DUP1 ISZERO PUSH2 0x3D4E JUMPI JUMPDEST PUSH2 0x3D2C JUMPI SWAP2 PUSH1 0xFF DUP3 PUSH2 0x3D19 PUSH1 0x40 SWAP5 PUSH32 0xC0DC322D34D7E6A06259BE3BAC607C8BA2EB3200163A637AD7F20A70EBC11D7B SWAP7 DUP9 PUSH1 0x0 MSTORE PUSH1 0x9 PUSH1 0x20 MSTORE PUSH1 0xD DUP8 PUSH1 0x0 KECCAK256 ADD PUSH2 0x3D12 DUP12 DUP3 SLOAD PUSH2 0x2DEE JUMP JUMPDEST SWAP1 SSTORE PUSH2 0x3915 JUMP JUMPDEST DUP4 MLOAD SWAP7 DUP8 MSTORE PUSH1 0x64 PUSH1 0x20 DUP9 ADD MSTORE AND SWAP6 AND SWAP4 LOG4 JUMP JUMPDEST POP SWAP2 POP POP PUSH1 0xFF SWAP2 SWAP3 POP AND PUSH1 0x0 MSTORE PUSH1 0xE PUSH1 0x20 MSTORE PUSH2 0x325D PUSH1 0x40 PUSH1 0x0 KECCAK256 SWAP2 DUP3 SLOAD PUSH2 0x2DEE JUMP JUMPDEST POP DUP4 PUSH1 0x0 MSTORE PUSH1 0x9 PUSH1 0x20 MSTORE PUSH1 0xFF PUSH1 0x40 PUSH1 0x0 KECCAK256 SLOAD AND ISZERO PUSH2 0x3CC7 JUMP JUMPDEST SWAP1 SWAP3 SWAP2 PUSH1 0x1 PUSH1 0x1 PUSH1 0xA0 SHL SUB DUP1 DUP4 AND SWAP3 SWAP1 SWAP2 SWAP1 DUP4 ISZERO DUP1 ISZERO PUSH2 0x3DE7 JUMPI JUMPDEST PUSH2 0x3D2C JUMPI SWAP2 PUSH1 0xFF DUP3 PUSH2 0x3DD4 PUSH1 0x40 SWAP5 PUSH32 0x76A46DBE9B38553BA3F9366DDE5DFAB2AE45AE902483379A3F0CB6EB5B74D422 SWAP7 DUP9 PUSH1 0x0 MSTORE PUSH1 0x9 PUSH1 0x20 MSTORE PUSH1 0xD DUP8 PUSH1 0x0 KECCAK256 ADD PUSH2 0x3DCD DUP12 DUP3 SLOAD PUSH2 0x2DEE JUMP JUMPDEST SWAP1 SSTORE PUSH2 0x397E JUMP JUMPDEST DUP4 MLOAD SWAP7 DUP8 MSTORE PUSH1 0x32 PUSH1 0x20 DUP9 ADD MSTORE AND SWAP6 AND SWAP4 LOG4 JUMP JUMPDEST POP DUP4 PUSH1 0x0 MSTORE PUSH1 0x9 PUSH1 0x20 MSTORE PUSH1 0xFF PUSH1 0x40 PUSH1 0x0 KECCAK256 SLOAD AND ISZERO PUSH2 0x3D82 JUMP JUMPDEST SWAP1 SWAP3 SWAP2 PUSH1 0x1 PUSH1 0x1 PUSH1 0xA0 SHL SUB DUP1 DUP4 AND SWAP3 SWAP1 SWAP2 SWAP1 DUP4 ISZERO DUP1 ISZERO PUSH2 0x3E80 JUMPI JUMPDEST PUSH2 0x3D2C JUMPI SWAP2 PUSH1 0xFF DUP3 PUSH2 0x3E6D PUSH1 0x40 SWAP5 PUSH32 0xB81FBCD4B084AE8778037D60E56C538CEBACB837E72623E7B204170ADDC1E24B SWAP7 DUP9 PUSH1 0x0 MSTORE PUSH1 0x9 PUSH1 0x20 MSTORE PUSH1 0xD DUP8 PUSH1 0x0 KECCAK256 ADD PUSH2 0x3E66 DUP12 DUP3 SLOAD PUSH2 0x2DEE JUMP JUMPDEST SWAP1 SSTORE PUSH2 0x39D6 JUMP JUMPDEST DUP4 MLOAD SWAP7 DUP8 MSTORE PUSH1 0x19 PUSH1 0x20 DUP9 ADD MSTORE AND SWAP6 AND SWAP4 LOG4 JUMP JUMPDEST POP DUP4 PUSH1 0x0 MSTORE PUSH1 0x9 PUSH1 0x20 MSTORE PUSH1 0xFF PUSH1 0x40 PUSH1 0x0 KECCAK256 SLOAD AND ISZERO PUSH2 0x3E1B JUMP JUMPDEST PUSH1 0x0 NOT DUP2 EQ PUSH2 0xD42 JUMPI PUSH1 0x1 ADD SWAP1 JUMP JUMPDEST SWAP1 SWAP3 SWAP2 PUSH1 0x1 PUSH1 0x1 PUSH1 0xA0 SHL SUB DUP1 DUP4 AND SWAP3 SWAP1 SWAP2 SWAP1 DUP4 ISZERO DUP1 ISZERO PUSH2 0x3F2D JUMPI JUMPDEST PUSH2 0x3F0B JUMPI SWAP2 PUSH1 0xFF DUP3 PUSH2 0x3D19 PUSH1 0x40 SWAP5 PUSH32 0xC0DC322D34D7E6A06259BE3BAC607C8BA2EB3200163A637AD7F20A70EBC11D7B SWAP7 DUP9 PUSH1 0x0 MSTORE PUSH1 0x14 PUSH1 0x20 MSTORE DUP7 PUSH1 0x0 KECCAK256 PUSH2 0x3D12 DUP12 DUP3 SLOAD PUSH2 0x2DEE JUMP JUMPDEST POP SWAP2 POP POP PUSH1 0xFF SWAP2 SWAP3 POP AND PUSH1 0x0 MSTORE PUSH1 0xF PUSH1 0x20 MSTORE PUSH2 0x325D PUSH1 0x40 PUSH1 0x0 KECCAK256 SWAP2 DUP3 SLOAD PUSH2 0x2DEE JUMP JUMPDEST POP DUP4 PUSH1 0x0 MSTORE PUSH1 0x9 PUSH1 0x20 MSTORE PUSH1 0xFF PUSH1 0x40 PUSH1 0x0 KECCAK256 SLOAD AND ISZERO PUSH2 0x3EC3 JUMP JUMPDEST SWAP1 SWAP3 SWAP2 PUSH1 0x1 PUSH1 0x1 PUSH1 0xA0 SHL SUB DUP1 DUP4 AND SWAP3 SWAP1 SWAP2 SWAP1 DUP4 ISZERO DUP1 ISZERO PUSH2 0x3FA9 JUMPI JUMPDEST PUSH2 0x3F0B JUMPI SWAP2 PUSH1 0xFF DUP3 PUSH2 0x3DD4 PUSH1 0x40 SWAP5 PUSH32 0x76A46DBE9B38553BA3F9366DDE5DFAB2AE45AE902483379A3F0CB6EB5B74D422 SWAP7 DUP9 PUSH1 0x0 MSTORE PUSH1 0x14 PUSH1 0x20 MSTORE DUP7 PUSH1 0x0 KECCAK256 PUSH2 0x3DCD DUP12 DUP3 SLOAD PUSH2 0x2DEE JUMP JUMPDEST POP DUP4 PUSH1 0x0 MSTORE PUSH1 0x9 PUSH1 0x20 MSTORE PUSH1 0xFF PUSH1 0x40 PUSH1 0x0 KECCAK256 SLOAD AND ISZERO PUSH2 0x3F61 JUMP JUMPDEST SWAP1 SWAP3 SWAP2 PUSH1 0x1 PUSH1 0x1 PUSH1 0xA0 SHL SUB DUP1 DUP4 AND SWAP3 SWAP1 SWAP2 SWAP1 DUP4 ISZERO DUP1 ISZERO PUSH2 0x4025 JUMPI JUMPDEST PUSH2 0x3F0B JUMPI SWAP2 PUSH1 0xFF DUP3 PUSH2 0x3E6D PUSH1 0x40 SWAP5 PUSH32 0xB81FBCD4B084AE8778037D60E56C538CEBACB837E72623E7B204170ADDC1E24B SWAP7 DUP9 PUSH1 0x0 MSTORE PUSH1 0x14 PUSH1 0x20 MSTORE DUP7 PUSH1 0x0 KECCAK256 PUSH2 0x3E66 DUP12 DUP3 SLOAD PUSH2 0x2DEE JUMP JUMPDEST POP DUP4 PUSH1 0x0 MSTORE PUSH1 0x9 PUSH1 0x20 MSTORE PUSH1 0xFF PUSH1 0x40 PUSH1 0x0 KECCAK256 SLOAD AND ISZERO PUSH2 0x3FDD JUMP JUMPDEST PUSH1 0x7 DUP2 LT ISZERO SWAP1 DUP2 PUSH2 0x404D JUMPI POP SWAP1 JUMP JUMPDEST SWAP1 POP PUSH1 0x1 DUP2 ADD DUP1 DUP3 GT PUSH2 0xD42 JUMPI AND ISZERO SWAP1 JUMP JUMPDEST PUSH1 0x1 PUSH1 0x1 PUSH1 0xA0 SHL SUB DUP3 AND PUSH1 0x0 SWAP1 DUP2 MSTORE PUSH1 0xA PUSH1 0x20 MSTORE PUSH1 0x40 SWAP1 KECCAK256 PUSH2 0x4082 SWAP1 DUP3 SWAP1 PUSH2 0x353E JUMP JUMPDEST PUSH2 0x4090 PUSH2 0x35EA DUP3 SLOAD PUSH1 0xFF AND SWAP1 JUMP JUMPDEST PUSH2 0x300F JUMPI PUSH1 0x6 ADD SWAP2 PUSH2 0x40A2 DUP4 SLOAD PUSH2 0x2DE0 JUMP JUMPDEST DUP4 SSTORE PUSH1 0x1 PUSH1 0x1 PUSH1 0xA0 SHL SUB DUP2 AND PUSH1 0x0 SWAP1 DUP2 MSTORE PUSH1 0x9 PUSH1 0x20 MSTORE PUSH1 0x40 SWAP1 KECCAK256 PUSH1 0xC ADD PUSH2 0x40C9 DUP2 SLOAD PUSH2 0x2DE0 JUMP JUMPDEST SWAP1 SSTORE PUSH1 0x1 PUSH1 0x1 PUSH1 0xA0 SHL SUB DUP2 AND PUSH1 0x0 SWAP1 DUP2 MSTORE PUSH1 0x9 PUSH1 0x20 MSTORE PUSH1 0x40 SWAP1 KECCAK256 PUSH1 0xB ADD PUSH2 0x40F0 DUP2 SLOAD PUSH2 0x2DE0 JUMP JUMPDEST SWAP1 SSTORE PUSH2 0x40FC DUP3 DUP3 PUSH2 0x3A2E JUMP JUMPDEST PUSH2 0x4106 DUP3 DUP3 PUSH2 0x3A97 JUMP JUMPDEST PUSH2 0x4110 DUP2 DUP4 PUSH2 0x342C JUMP JUMPDEST SWAP3 SLOAD PUSH1 0x40 DUP1 MLOAD SWAP2 DUP3 MSTORE PUSH1 0x20 DUP3 ADD SWAP5 SWAP1 SWAP5 MSTORE PUSH2 0x30B1 SWAP4 PUSH1 0xFF DUP5 AND SWAP2 PUSH1 0x1 PUSH1 0x1 PUSH1 0xA0 SHL SUB DUP5 AND SWAP2 DUP4 SWAP2 DUP4 SWAP2 PUSH32 0xBDE1DD97B8C6B9FB71194209F50387CCCF9EC5CC5C0E9AA18B13C93CF78CE6E8 SWAP2 LOG3 PUSH1 0x40 MLOAD PUSH1 0x1 DUP2 MSTORE PUSH32 0xC216FCBBB04C29351601C08C37331F5699A51282F48DA79353B90AB10FF89487 SWAP1 PUSH1 0x20 SWAP1 LOG3 PUSH2 0x44B5 JUMP JUMPDEST PUSH1 0xFF DUP1 SWAP2 AND PUSH1 0x0 SWAP1 DUP1 DUP3 MSTORE PUSH1 0x20 SWAP2 PUSH1 0xD DUP4 MSTORE PUSH1 0x40 SWAP2 DUP3 DUP3 KECCAK256 SLOAD SWAP5 DUP6 ISZERO PUSH2 0x421D JUMPI JUMPDEST SWAP5 JUMPDEST DUP2 DUP4 MSTORE PUSH1 0xC DUP6 MSTORE DUP4 DUP4 KECCAK256 SLOAD DUP2 LT DUP1 PUSH2 0x4202 JUMPI JUMPDEST ISZERO PUSH2 0x41D7 JUMPI PUSH2 0x41D2 SWAP1 PUSH2 0x3E99 JUMP JUMPDEST PUSH2 0x41B1 JUMP JUMPDEST SWAP2 SWAP3 SWAP4 SWAP5 POP DUP3 MSTORE PUSH1 0xC DUP5 MSTORE DUP3 DUP3 KECCAK256 SLOAD DUP2 LT PUSH1 0x0 EQ PUSH2 0x41F8 JUMPI PUSH1 0xD SWAP1 SWAP4 MSTORE KECCAK256 SSTORE JUMP JUMPDEST POP PUSH1 0xD DUP2 SWAP4 MSTORE KECCAK256 SSTORE JUMP JUMPDEST POP PUSH1 0xB DUP6 MSTORE DUP4 DUP4 KECCAK256 DUP2 DUP5 MSTORE DUP6 MSTORE DUP6 PUSH1 0x5 DUP6 DUP6 KECCAK256 ADD SLOAD AND PUSH2 0x41C4 JUMP JUMPDEST PUSH1 0x1 SWAP6 POP PUSH2 0x41AF JUMP JUMPDEST SWAP3 ISZERO PUSH2 0x300F JUMPI PUSH1 0xFF DUP2 AND SWAP2 PUSH1 0x0 SWAP2 DUP4 DUP4 MSTORE PUSH1 0x20 SWAP2 PUSH1 0xE DUP4 MSTORE PUSH1 0x40 DUP1 DUP6 KECCAK256 SLOAD SWAP4 PUSH2 0x1F4 SWAP5 DUP6 DUP2 MUL SWAP1 DUP1 DUP3 DIV DUP8 EQ SWAP1 ISZERO OR ISZERO PUSH2 0x30B3 JUMPI PUSH2 0x2710 DUP1 SWAP2 DIV SWAP6 DUP9 DUP9 MSTORE PUSH1 0xF DUP4 MSTORE DUP4 DUP9 KECCAK256 SLOAD DUP2 DUP2 MUL SWAP2 DUP2 DUP4 DIV EQ SWAP1 ISZERO OR ISZERO PUSH2 0x43A4 JUMPI DUP5 SWAP2 DUP10 SWAP2 DIV SWAP7 DUP1 PUSH2 0x4324 JUMPI JUMPDEST POP POP POP DUP5 PUSH2 0x429A JUMPI POP POP POP POP POP POP POP POP JUMP JUMPDEST DUP5 PUSH2 0x42E0 PUSH32 0x57CCA56D6AEA4F955145B97472F1141F1BB79A9D1BF59EA9DD3AD72466AD54AE SWAP7 PUSH1 0x60 SWAP7 DUP11 DUP11 MSTORE PUSH1 0xF DUP6 MSTORE DUP6 DUP11 KECCAK256 PUSH2 0x42D8 DUP4 DUP3 SLOAD PUSH2 0x2C93 JUMP JUMPDEST SWAP1 SSTORE DUP12 PUSH2 0x3276 JUMP JUMPDEST PUSH1 0xFF DUP4 PUSH1 0x1 DUP1 PUSH1 0xA0 SHL SUB DUP1 PUSH1 0x4 SLOAD AND SWAP12 AND SWAP9 DUP10 DUP2 MSTORE PUSH1 0xA DUP6 MSTORE DUP2 DUP2 KECCAK256 DUP12 DUP3 MSTORE DUP6 MSTORE KECCAK256 SLOAD PUSH1 0x8 SHR AND SWAP2 DUP4 MLOAD SWAP5 DUP6 MSTORE DUP5 ADD MSTORE ISZERO ISZERO SWAP1 DUP3 ADD MSTORE LOG4 CODESIZE DUP1 DUP1 DUP1 DUP1 DUP1 DUP1 DUP1 PUSH2 0x390B JUMP JUMPDEST DUP2 DUP10 MSTORE PUSH1 0xE DUP5 MSTORE DUP5 DUP10 KECCAK256 PUSH2 0x4339 DUP3 DUP3 SLOAD PUSH2 0x2C93 JUMP JUMPDEST SWAP1 SSTORE PUSH2 0x4346 DUP2 DUP9 DUP14 PUSH2 0x3201 JUMP JUMPDEST PUSH1 0x1 PUSH1 0x1 PUSH1 0xA0 SHL SUB DUP12 AND DUP1 DUP11 MSTORE PUSH1 0xA DUP6 MSTORE DUP6 DUP11 KECCAK256 DUP4 DUP12 MSTORE DUP6 MSTORE DUP6 DUP11 KECCAK256 SLOAD DUP7 MLOAD SWAP3 DUP4 MSTORE PUSH1 0x8 SHR PUSH1 0xFF AND ISZERO ISZERO PUSH1 0x20 DUP4 ADD MSTORE SWAP1 PUSH32 0xF349EC77F93FC0622775AD3B5561A9BA55F1A991E72DF46ED77BC72C724025B8 SWAP1 PUSH1 0x40 SWAP1 LOG4 DUP3 DUP8 CODESIZE PUSH2 0x4288 JUMP JUMPDEST PUSH4 0x4E487B71 PUSH1 0xE0 SHL DUP9 MSTORE PUSH1 0x11 PUSH1 0x4 MSTORE PUSH1 0x24 DUP9 REVERT JUMPDEST PUSH2 0x1F4 SWAP1 DUP2 DUP2 LT ISZERO PUSH2 0x43E1 JUMPI DUP2 SUB SWAP1 DUP2 GT PUSH2 0xD42 JUMPI DUP1 PUSH1 0xA GT PUSH1 0x0 EQ PUSH2 0x43DB JUMPI SWAP1 JUMP JUMPDEST POP PUSH1 0xA SWAP1 JUMP JUMPDEST POP POP PUSH1 0x0 SWAP1 JUMP JUMPDEST SWAP1 PUSH2 0x1388 SWAP2 DUP3 DUP2 LT ISZERO PUSH2 0x440F JUMPI DUP3 SUB SWAP2 DUP3 GT PUSH2 0xD42 JUMPI DUP2 DUP2 GT ISZERO PUSH2 0x440A JUMPI POP SWAP1 JUMP JUMPDEST SWAP1 POP SWAP1 JUMP JUMPDEST POP POP POP PUSH1 0x0 SWAP1 JUMP JUMPDEST PUSH2 0x7D0 SWAP1 DUP2 DUP2 LT ISZERO PUSH2 0x43E1 JUMPI DUP2 SUB SWAP1 DUP2 GT PUSH2 0xD42 JUMPI DUP1 PUSH1 0x32 GT PUSH1 0x0 EQ PUSH2 0x443A JUMPI SWAP1 JUMP JUMPDEST POP PUSH1 0x32 SWAP1 JUMP JUMPDEST PUSH2 0x7D0 SWAP1 DUP2 DUP2 LT ISZERO PUSH2 0x43E1 JUMPI DUP2 SUB SWAP1 DUP2 GT PUSH2 0xD42 JUMPI DUP1 PUSH1 0x64 GT PUSH1 0x0 EQ PUSH2 0x4463 JUMPI SWAP1 JUMP JUMPDEST POP PUSH1 0x64 SWAP1 JUMP JUMPDEST PUSH2 0x7D0 SWAP1 DUP2 DUP2 LT ISZERO PUSH2 0x43E1 JUMPI DUP2 SUB SWAP1 DUP2 GT PUSH2 0xD42 JUMPI DUP1 PUSH1 0x19 GT PUSH1 0x0 EQ PUSH2 0x448C JUMPI SWAP1 JUMP JUMPDEST POP PUSH1 0x19 SWAP1 JUMP JUMPDEST PUSH2 0x3E8 SWAP1 DUP2 DUP2 LT ISZERO PUSH2 0x43E1 JUMPI DUP2 SUB SWAP1 DUP2 GT PUSH2 0xD42 JUMPI DUP1 PUSH1 0x64 GT PUSH1 0x0 EQ PUSH2 0x4463 JUMPI SWAP1 JUMP JUMPDEST PUSH1 0x1 DUP1 PUSH1 0xA0 SHL SUB AND PUSH1 0x0 DUP2 DUP2 MSTORE PUSH1 0xA PUSH1 0x20 MSTORE PUSH1 0xFF PUSH1 0x40 DUP3 KECCAK256 SWAP4 AND SWAP3 DUP4 DUP3 MSTORE PUSH1 0x20 MSTORE PUSH1 0x40 DUP2 KECCAK256 SWAP1 PUSH1 0x11 DUP5 LT DUP1 PUSH2 0x4587 JUMPI JUMPDEST DUP1 PUSH2 0x4544 JUMPI JUMPDEST DUP1 PUSH2 0x4535 JUMPI JUMPDEST PUSH2 0x44FB JUMPI POP POP POP POP JUMP JUMPDEST PUSH32 0x9EEDAD69E1DA086C8D70014EDEF61ADDC1D62BFDF25B1DCD3484AD720B970762 SWAP2 PUSH2 0x100 PUSH2 0xFF00 NOT DUP3 SLOAD AND OR SWAP1 SSTORE DUP1 LOG3 CODESIZE DUP1 DUP1 DUP1 PUSH2 0x33E6 JUMP JUMPDEST POP PUSH1 0xFF DUP3 SLOAD PUSH1 0x8 SHR AND ISZERO PUSH2 0x44F1 JUMP JUMPDEST POP DUP3 DUP2 MSTORE PUSH1 0xA PUSH1 0x20 MSTORE PUSH1 0x40 DUP2 KECCAK256 PUSH1 0x1 DUP6 ADD PUSH1 0xFF DUP2 GT PUSH2 0x4573 JUMPI PUSH1 0xFF AND DUP3 MSTORE PUSH1 0x20 MSTORE PUSH1 0xFF PUSH1 0x40 DUP3 KECCAK256 SLOAD AND ISZERO PUSH2 0x44EB JUMP JUMPDEST PUSH4 0x4E487B71 PUSH1 0xE0 SHL DUP4 MSTORE PUSH1 0x11 PUSH1 0x4 MSTORE PUSH1 0x24 DUP4 REVERT JUMPDEST POP PUSH1 0x2 PUSH1 0x6 DUP4 ADD SLOAD LT ISZERO PUSH2 0x44E5 JUMP INVALID LOG2 PUSH5 0x6970667358 0x22 SLT KECCAK256 PUSH24 0x9180E2B29F75666B9943644A0D24FC1576E91A8E62E91388 MSTORE8 EXTCODECOPY 0xD5 0x24 DUP4 0xC8 0xCF PUSH5 0x736F6C6343 STOP ADDMOD XOR STOP CALLER "},"methodIdentifiers":{"BASE_ACTIVATION_WEIGHT()":"90f7c71a","BOX_NFT_WEIGHT()":"f178fb1b","BPS()":"249d39e9","DIRECT_REF_BPS()":"308c6109","DIRECT_REF_WEIGHT()":"26728174","DRAW_REWARD_BPS()":"9b3728e8","LEVEL_COUNT()":"1d6a884b","MATRIX_PRIZE_BPS()":"72d686bf","MAX_BASE_WEIGHT_PER_LEVEL()":"f943cbc6","MAX_LOYALTY_WEIGHT_PER_LEVEL()":"31b161a7","MAX_MATRIX_WEIGHT_PER_LEVEL()":"1a1478c3","MAX_NFT_WEIGHT_PER_LEVEL()":"50da23dc","MAX_REFERRAL_WEIGHT_PER_LEVEL()":"c8f17ce3","MAX_TOTAL_WEIGHT_PER_LEVEL()":"5042a91f","PRIZE_POSITION_BPS()":"24bdc3a7","PROJECT_FEE_BPS()":"f9335139","RECYCLE_MATRIX_WEIGHT()":"2f5ced04","SECOND_REF_BPS()":"852f8299","SECOND_REF_WEIGHT()":"f6d5f69a","THIRD_REF_BPS()":"7f3255a8","THIRD_REF_WEIGHT()":"9fef6862","WEEKLY_LOYALTY_WEIGHT()":"4d69a4cd","WEIGHT_SCALE()":"333fedad","activateLevel(uint8,address)":"48d46be1","activateLevelWithUSDC(uint8,address)":"f4f5058d","activeCellsByLevel(uint8)":"dbba0540","claimPrize(uint8)":"c864ce56","claimPrizeUSDC(uint8)":"3f896dd9","claimReferralBonus()":"1e375ab9","claimReferralBonusUSDC()":"edfae883","claimablePrizeUsdc(address)":"6b09f539","claimablePrizeUsdcByLevel(address,uint8)":"f935c2d6","claimableReferralBonusUsdc(address)":"c7fcb8c3","getLevelMatrixStats(uint8)":"b9aee263","getLevelStats(uint8)":"22fbfe80","getLevelStatsUSDC(uint8)":"26e0cfe7","getMatrixNode(uint8,uint256)":"4a57c6d9","getNextPrizeCell(uint8,uint256)":"b75b688b","getPlayer(address)":"5c12cd4b","getPlayerChance(address,uint8)":"7dcda2d4","getPlayerLevel(address,uint8)":"a0978ac2","getPlayerLevelFull(address,uint8)":"40261fbb","getPlayerPosition(address,uint8)":"d2a16080","getPlayerTokenRewards(address,uint8)":"4ca3696c","getPlayerWeight(address,uint8)":"03a65dfa","isLevelActive(address,uint8)":"75b7d7c1","isLevelFrozen(address,uint8)":"0e475efd","levelAvailable(uint8)":"52ebb227","levelMatrixSize(uint8)":"c05db4ce","levelPrices(uint8)":"2e50d906","levelPricesUsdc(uint8)":"04eb2734","matrixNodes(uint8,uint256)":"94cecff8","matrixPrizePools(uint8)":"8c5b8ea5","matrixPrizePoolsUsdc(uint8)":"e8a8bd5c","nextCellId(uint8)":"ce9fffaa","nextOpenParentCellId(uint8)":"52f5c84e","operatorWallet()":"f90ef4ac","owner()":"8da5cb5b","pendingPrizeUsdc(address)":"86b8f4a1","pendingPrizeUsdcByLevel(address,uint8)":"bea99035","playerLevels(address,uint8)":"5c602d9e","players(address)":"e2eb41ff","projectFeesAccrued()":"19a08594","projectFeesAccruedUsdc()":"e26f7c46","projectWallet()":"beb08ab9","requestDraw(uint8)":"e69d2ca7","setLevelAvailable(uint8,bool)":"ed270c16","setLevelPrice(uint8,uint256)":"8eb657c4","setLevelPriceUSDC(uint8,uint256)":"3d5efbae","setUsdcToken(address)":"5d886f22","setWallets(address,address,address)":"75cb1bd1","totalWeightByLevel(uint8)":"8d2724f9","transferOwnership(address)":"f2fde38b","treasuryWallet()":"4626402b","usdcToken()":"11eac855","withdrawProjectFees()":"7a7c7a6a","withdrawProjectFeesUSDC()":"306bf6bb"}}}}}