{"contracts/EasyGameAdvance.sol":{"EasyGameAdvance":{"abi":[{"inputs":[{"internalType":"address","name":"projectWallet_","type":"address"},{"internalType":"address","name":"treasuryWallet_","type":"address"},{"internalType":"address","name":"operatorWallet_","type":"address"},{"internalType":"address","name":"usdcToken_","type":"address"}],"stateMutability":"nonpayable","type":"constructor"},{"inputs":[{"internalType":"uint8","name":"level","type":"uint8"}],"name":"InvalidLevel","type":"error"},{"inputs":[],"name":"ZeroAddress","type":"error"},{"anonymous":false,"inputs":[{"indexed":true,"internalType":"address","name":"player","type":"address"},{"indexed":true,"internalType":"uint8","name":"level","type":"uint8"},{"indexed":false,"internalType":"uint256","name":"amount","type":"uint256"}],"name":"BoxTokenGranted","type":"event"},{"anonymous":false,"inputs":[{"indexed":true,"internalType":"uint8","name":"level","type":"uint8"},{"indexed":false,"internalType":"uint256","name":"randomSeed","type":"uint256"},{"indexed":false,"internalType":"uint256","name":"totalWeight","type":"uint256"}],"name":"DrawRequested","type":"event"},{"anonymous":false,"inputs":[{"indexed":true,"internalType":"address","name":"winner","type":"address"},{"indexed":true,"internalType":"uint8","name":"level","type":"uint8"},{"indexed":false,"internalType":"uint256","name":"amount","type":"uint256"},{"indexed":false,"internalType":"bool","name":"pending","type":"bool"}],"name":"DrawWon","type":"event"},{"anonymous":false,"inputs":[{"indexed":true,"internalType":"address","name":"player","type":"address"},{"indexed":true,"internalType":"uint8","name":"level","type":"uint8"},{"indexed":false,"internalType":"uint256","name":"value","type":"uint256"},{"indexed":false,"internalType":"uint256","name":"cellId","type":"uint256"}],"name":"LevelActivated","type":"event"},{"anonymous":false,"inputs":[{"indexed":true,"internalType":"uint8","name":"level","type":"uint8"},{"indexed":false,"internalType":"bool","name":"available","type":"bool"}],"name":"LevelAvailabilityChanged","type":"event"},{"anonymous":false,"inputs":[{"indexed":true,"internalType":"address","name":"player","type":"address"},{"indexed":true,"internalType":"uint8","name":"level","type":"uint8"}],"name":"LevelFrozen","type":"event"},{"anonymous":false,"inputs":[{"indexed":true,"internalType":"uint8","name":"level","type":"uint8"},{"indexed":false,"internalType":"uint256","name":"oldPrice","type":"uint256"},{"indexed":false,"internalType":"uint256","name":"newPrice","type":"uint256"}],"name":"LevelPriceChanged","type":"event"},{"anonymous":false,"inputs":[{"indexed":true,"internalType":"address","name":"player","type":"address"},{"indexed":true,"internalType":"uint8","name":"level","type":"uint8"}],"name":"LevelUnfrozen","type":"event"},{"anonymous":false,"inputs":[{"indexed":true,"internalType":"uint8","name":"level","type":"uint8"},{"indexed":false,"internalType":"uint256","name":"oldPrice","type":"uint256"},{"indexed":false,"internalType":"uint256","name":"newPrice","type":"uint256"}],"name":"LevelUsdcPriceChanged","type":"event"},{"anonymous":false,"inputs":[{"indexed":true,"internalType":"address","name":"player","type":"address"},{"indexed":true,"internalType":"uint8","name":"level","type":"uint8"},{"indexed":true,"internalType":"uint256","name":"cellId","type":"uint256"},{"indexed":false,"internalType":"uint256","name":"parentCellId","type":"uint256"}],"name":"MatrixPlaced","type":"event"},{"anonymous":false,"inputs":[{"indexed":true,"internalType":"address","name":"previousOwner","type":"address"},{"indexed":true,"internalType":"address","name":"newOwner","type":"address"}],"name":"OwnershipTransferred","type":"event"},{"anonymous":false,"inputs":[{"indexed":true,"internalType":"address","name":"player","type":"address"},{"indexed":true,"internalType":"uint8","name":"level","type":"uint8"},{"indexed":false,"internalType":"uint256","name":"matrixPrizeAmount","type":"uint256"},{"indexed":false,"internalType":"uint256","name":"directReferralAmount","type":"uint256"},{"indexed":false,"internalType":"uint256","name":"secondLineAmount","type":"uint256"},{"indexed":false,"internalType":"uint256","name":"thirdLineAmount","type":"uint256"},{"indexed":false,"internalType":"uint256","name":"projectFeeAmount","type":"uint256"}],"name":"PaymentSplit","type":"event"},{"anonymous":false,"inputs":[{"indexed":true,"internalType":"address","name":"player","type":"address"},{"indexed":true,"internalType":"uint8","name":"level","type":"uint8"},{"indexed":false,"internalType":"uint256","name":"amount","type":"uint256"}],"name":"PrizeClaimed","type":"event"},{"anonymous":false,"inputs":[{"indexed":true,"internalType":"address","name":"player","type":"address"},{"indexed":true,"internalType":"uint8","name":"level","type":"uint8"},{"indexed":true,"internalType":"uint256","name":"cellId","type":"uint256"},{"indexed":false,"internalType":"uint256","name":"amount","type":"uint256"},{"indexed":false,"internalType":"bool","name":"pending","type":"bool"}],"name":"PrizePositionReached","type":"event"},{"anonymous":false,"inputs":[{"indexed":true,"internalType":"uint8","name":"level","type":"uint8"},{"indexed":false,"internalType":"uint256","name":"amount","type":"uint256"},{"indexed":false,"internalType":"uint256","name":"totalAccrued","type":"uint256"}],"name":"ProjectFeeAccrued","type":"event"},{"anonymous":false,"inputs":[{"indexed":true,"internalType":"address","name":"wallet","type":"address"},{"indexed":false,"internalType":"uint256","name":"amount","type":"uint256"}],"name":"ProjectFeesWithdrawn","type":"event"},{"anonymous":false,"inputs":[{"indexed":true,"internalType":"address","name":"player","type":"address"},{"indexed":true,"internalType":"uint8","name":"level","type":"uint8"},{"indexed":false,"internalType":"uint256","name":"recycleCount","type":"uint256"},{"indexed":false,"internalType":"uint256","name":"newCellId","type":"uint256"}],"name":"Recycled","type":"event"},{"anonymous":false,"inputs":[{"indexed":true,"internalType":"address","name":"inviter","type":"address"},{"indexed":true,"internalType":"address","name":"invitee","type":"address"},{"indexed":true,"internalType":"uint8","name":"level","type":"uint8"},{"indexed":false,"internalType":"uint256","name":"bonusAmount","type":"uint256"},{"indexed":false,"internalType":"uint256","name":"weightAdded","type":"uint256"}],"name":"ReferralBonusAdded","type":"event"},{"anonymous":false,"inputs":[{"indexed":true,"internalType":"address","name":"player","type":"address"},{"indexed":false,"internalType":"uint256","name":"amount","type":"uint256"}],"name":"ReferralBonusClaimed","type":"event"},{"anonymous":false,"inputs":[{"indexed":true,"internalType":"address","name":"inviter","type":"address"},{"indexed":true,"internalType":"address","name":"invitee","type":"address"},{"indexed":true,"internalType":"uint8","name":"level","type":"uint8"},{"indexed":false,"internalType":"uint256","name":"bonusAmount","type":"uint256"},{"indexed":false,"internalType":"uint256","name":"weightAdded","type":"uint256"}],"name":"SecondLineBonusAdded","type":"event"},{"anonymous":false,"inputs":[{"indexed":true,"internalType":"address","name":"inviter","type":"address"},{"indexed":true,"internalType":"address","name":"invitee","type":"address"},{"indexed":true,"internalType":"uint8","name":"level","type":"uint8"},{"indexed":false,"internalType":"uint256","name":"bonusAmount","type":"uint256"},{"indexed":false,"internalType":"uint256","name":"weightAdded","type":"uint256"}],"name":"ThirdLineBonusAdded","type":"event"},{"anonymous":false,"inputs":[{"indexed":true,"internalType":"address","name":"winner","type":"address"},{"indexed":true,"internalType":"uint8","name":"level","type":"uint8"},{"indexed":true,"internalType":"address","name":"token","type":"address"},{"indexed":false,"internalType":"uint256","name":"amount","type":"uint256"},{"indexed":false,"internalType":"bool","name":"pending","type":"bool"}],"name":"TokenDrawWon","type":"event"},{"anonymous":false,"inputs":[{"indexed":true,"internalType":"address","name":"player","type":"address"},{"indexed":true,"internalType":"uint8","name":"level","type":"uint8"},{"indexed":true,"internalType":"address","name":"token","type":"address"},{"indexed":false,"internalType":"uint256","name":"matrixPrizeAmount","type":"uint256"},{"indexed":false,"internalType":"uint256","name":"directReferralAmount","type":"uint256"},{"indexed":false,"internalType":"uint256","name":"secondLineAmount","type":"uint256"},{"indexed":false,"internalType":"uint256","name":"thirdLineAmount","type":"uint256"},{"indexed":false,"internalType":"uint256","name":"projectFeeAmount","type":"uint256"}],"name":"TokenPaymentSplit","type":"event"},{"anonymous":false,"inputs":[{"indexed":true,"internalType":"address","name":"player","type":"address"},{"indexed":true,"internalType":"address","name":"token","type":"address"},{"indexed":true,"internalType":"uint8","name":"level","type":"uint8"},{"indexed":false,"internalType":"uint256","name":"amount","type":"uint256"}],"name":"TokenPrizeClaimed","type":"event"},{"anonymous":false,"inputs":[{"indexed":true,"internalType":"address","name":"player","type":"address"},{"indexed":true,"internalType":"uint8","name":"level","type":"uint8"},{"indexed":true,"internalType":"address","name":"token","type":"address"},{"indexed":false,"internalType":"uint256","name":"cellId","type":"uint256"},{"indexed":false,"internalType":"uint256","name":"amount","type":"uint256"},{"indexed":false,"internalType":"bool","name":"pending","type":"bool"}],"name":"TokenPrizePositionReached","type":"event"},{"anonymous":false,"inputs":[{"indexed":true,"internalType":"address","name":"token","type":"address"},{"indexed":true,"internalType":"uint8","name":"level","type":"uint8"},{"indexed":false,"internalType":"uint256","name":"amount","type":"uint256"},{"indexed":false,"internalType":"uint256","name":"totalAccrued","type":"uint256"}],"name":"TokenProjectFeeAccrued","type":"event"},{"anonymous":false,"inputs":[{"indexed":true,"internalType":"address","name":"token","type":"address"},{"indexed":true,"internalType":"address","name":"wallet","type":"address"},{"indexed":false,"internalType":"uint256","name":"amount","type":"uint256"}],"name":"TokenProjectFeesWithdrawn","type":"event"},{"anonymous":false,"inputs":[{"indexed":true,"internalType":"address","name":"player","type":"address"},{"indexed":true,"internalType":"address","name":"token","type":"address"},{"indexed":false,"internalType":"uint256","name":"amount","type":"uint256"}],"name":"TokenReferralBonusClaimed","type":"event"},{"anonymous":false,"inputs":[{"indexed":true,"internalType":"address","name":"oldToken","type":"address"},{"indexed":true,"internalType":"address","name":"newToken","type":"address"}],"name":"UsdcTokenChanged","type":"event"},{"anonymous":false,"inputs":[{"indexed":false,"internalType":"address","name":"projectWallet","type":"address"},{"indexed":false,"internalType":"address","name":"treasuryWallet","type":"address"},{"indexed":false,"internalType":"address","name":"operatorWallet","type":"address"}],"name":"WalletsChanged","type":"event"},{"anonymous":false,"inputs":[{"indexed":true,"internalType":"address","name":"player","type":"address"},{"indexed":true,"internalType":"uint8","name":"level","type":"uint8"},{"indexed":false,"internalType":"uint256","name":"totalWeight","type":"uint256"}],"name":"WeightUpdated","type":"event"},{"inputs":[],"name":"BASE_ACTIVATION_WEIGHT","outputs":[{"internalType":"uint256","name":"","type":"uint256"}],"stateMutability":"view","type":"function"},{"inputs":[],"name":"BOX_NFT_WEIGHT","outputs":[{"internalType":"uint256","name":"","type":"uint256"}],"stateMutability":"view","type":"function"},{"inputs":[],"name":"BPS","outputs":[{"internalType":"uint256","name":"","type":"uint256"}],"stateMutability":"view","type":"function"},{"inputs":[],"name":"DIRECT_REF_BPS","outputs":[{"internalType":"uint256","name":"","type":"uint256"}],"stateMutability":"view","type":"function"},{"inputs":[],"name":"DIRECT_REF_WEIGHT","outputs":[{"internalType":"uint256","name":"","type":"uint256"}],"stateMutability":"view","type":"function"},{"inputs":[],"name":"DRAW_REWARD_BPS","outputs":[{"internalType":"uint256","name":"","type":"uint256"}],"stateMutability":"view","type":"function"},{"inputs":[],"name":"LEVEL_COUNT","outputs":[{"internalType":"uint8","name":"","type":"uint8"}],"stateMutability":"view","type":"function"},{"inputs":[],"name":"MATRIX_PRIZE_BPS","outputs":[{"internalType":"uint256","name":"","type":"uint256"}],"stateMutability":"view","type":"function"},{"inputs":[],"name":"MAX_BASE_WEIGHT_PER_LEVEL","outputs":[{"internalType":"uint256","name":"","type":"uint256"}],"stateMutability":"view","type":"function"},{"inputs":[],"name":"MAX_LOYALTY_WEIGHT_PER_LEVEL","outputs":[{"internalType":"uint256","name":"","type":"uint256"}],"stateMutability":"view","type":"function"},{"inputs":[],"name":"MAX_MATRIX_WEIGHT_PER_LEVEL","outputs":[{"internalType":"uint256","name":"","type":"uint256"}],"stateMutability":"view","type":"function"},{"inputs":[],"name":"MAX_NFT_WEIGHT_PER_LEVEL","outputs":[{"internalType":"uint256","name":"","type":"uint256"}],"stateMutability":"view","type":"function"},{"inputs":[],"name":"MAX_REFERRAL_WEIGHT_PER_LEVEL","outputs":[{"internalType":"uint256","name":"","type":"uint256"}],"stateMutability":"view","type":"function"},{"inputs":[],"name":"MAX_TOTAL_WEIGHT_PER_LEVEL","outputs":[{"internalType":"uint256","name":"","type":"uint256"}],"stateMutability":"view","type":"function"},{"inputs":[],"name":"PRIZE_POSITION_BPS","outputs":[{"internalType":"uint256","name":"","type":"uint256"}],"stateMutability":"view","type":"function"},{"inputs":[],"name":"PROJECT_FEE_BPS","outputs":[{"internalType":"uint256","name":"","type":"uint256"}],"stateMutability":"view","type":"function"},{"inputs":[],"name":"RECYCLE_MATRIX_WEIGHT","outputs":[{"internalType":"uint256","name":"","type":"uint256"}],"stateMutability":"view","type":"function"},{"inputs":[],"name":"SECOND_REF_BPS","outputs":[{"internalType":"uint256","name":"","type":"uint256"}],"stateMutability":"view","type":"function"},{"inputs":[],"name":"SECOND_REF_WEIGHT","outputs":[{"internalType":"uint256","name":"","type":"uint256"}],"stateMutability":"view","type":"function"},{"inputs":[],"name":"THIRD_REF_BPS","outputs":[{"internalType":"uint256","name":"","type":"uint256"}],"stateMutability":"view","type":"function"},{"inputs":[],"name":"THIRD_REF_WEIGHT","outputs":[{"internalType":"uint256","name":"","type":"uint256"}],"stateMutability":"view","type":"function"},{"inputs":[],"name":"WEEKLY_LOYALTY_WEIGHT","outputs":[{"internalType":"uint256","name":"","type":"uint256"}],"stateMutability":"view","type":"function"},{"inputs":[],"name":"WEIGHT_SCALE","outputs":[{"internalType":"uint256","name":"","type":"uint256"}],"stateMutability":"view","type":"function"},{"inputs":[{"internalType":"uint8","name":"level","type":"uint8"},{"internalType":"address","name":"inviter","type":"address"}],"name":"activateLevel","outputs":[],"stateMutability":"payable","type":"function"},{"inputs":[{"internalType":"uint8","name":"level","type":"uint8"},{"internalType":"address","name":"inviter","type":"address"}],"name":"activateLevelWithUSDC","outputs":[],"stateMutability":"nonpayable","type":"function"},{"inputs":[{"internalType":"uint8","name":"","type":"uint8"}],"name":"activeCellsByLevel","outputs":[{"internalType":"uint256","name":"","type":"uint256"}],"stateMutability":"view","type":"function"},{"inputs":[{"internalType":"uint8","name":"level","type":"uint8"}],"name":"claimPrize","outputs":[],"stateMutability":"nonpayable","type":"function"},{"inputs":[{"internalType":"uint8","name":"level","type":"uint8"}],"name":"claimPrizeUSDC","outputs":[],"stateMutability":"nonpayable","type":"function"},{"inputs":[],"name":"claimReferralBonus","outputs":[],"stateMutability":"nonpayable","type":"function"},{"inputs":[],"name":"claimReferralBonusUSDC","outputs":[],"stateMutability":"nonpayable","type":"function"},{"inputs":[{"internalType":"address","name":"","type":"address"}],"name":"claimablePrizeUsdc","outputs":[{"internalType":"uint256","name":"","type":"uint256"}],"stateMutability":"view","type":"function"},{"inputs":[{"internalType":"address","name":"","type":"address"},{"internalType":"uint8","name":"","type":"uint8"}],"name":"claimablePrizeUsdcByLevel","outputs":[{"internalType":"uint256","name":"","type":"uint256"}],"stateMutability":"view","type":"function"},{"inputs":[{"internalType":"address","name":"","type":"address"}],"name":"claimableReferralBonusUsdc","outputs":[{"internalType":"uint256","name":"","type":"uint256"}],"stateMutability":"view","type":"function"},{"inputs":[{"internalType":"uint8","name":"level","type":"uint8"}],"name":"getLevelMatrixStats","outputs":[{"internalType":"uint256","name":"size","type":"uint256"},{"internalType":"uint256","name":"nextOpenParentId","type":"uint256"}],"stateMutability":"view","type":"function"},{"inputs":[{"internalType":"uint8","name":"level","type":"uint8"}],"name":"getLevelStats","outputs":[{"internalType":"uint256","name":"prizePool","type":"uint256"},{"internalType":"uint256","name":"totalWeight","type":"uint256"},{"internalType":"uint256","name":"activeCells","type":"uint256"},{"internalType":"uint256","name":"nextOpenParent","type":"uint256"},{"internalType":"uint256","name":"nextCell","type":"uint256"}],"stateMutability":"view","type":"function"},{"inputs":[{"internalType":"uint8","name":"level","type":"uint8"}],"name":"getLevelStatsUSDC","outputs":[{"internalType":"uint256","name":"prizePool","type":"uint256"},{"internalType":"uint256","name":"totalWeight","type":"uint256"},{"internalType":"uint256","name":"activeCells","type":"uint256"},{"internalType":"uint256","name":"nextOpenParent","type":"uint256"},{"internalType":"uint256","name":"nextCell","type":"uint256"}],"stateMutability":"view","type":"function"},{"inputs":[{"internalType":"uint8","name":"level","type":"uint8"},{"internalType":"uint256","name":"cellId","type":"uint256"}],"name":"getMatrixNode","outputs":[{"components":[{"internalType":"uint256","name":"cellId","type":"uint256"},{"internalType":"address","name":"player","type":"address"},{"internalType":"uint8","name":"level","type":"uint8"},{"internalType":"uint256","name":"parentCellId","type":"uint256"},{"internalType":"uint256","name":"leftChildCellId","type":"uint256"},{"internalType":"uint256","name":"rightChildCellId","type":"uint256"},{"internalType":"bool","name":"closed","type":"bool"},{"internalType":"bool","name":"prizeCell","type":"bool"}],"internalType":"struct MatrixNode","name":"","type":"tuple"}],"stateMutability":"view","type":"function"},{"inputs":[{"internalType":"uint8","name":"level","type":"uint8"},{"internalType":"uint256","name":"currentCellId","type":"uint256"}],"name":"getNextPrizeCell","outputs":[{"internalType":"uint256","name":"","type":"uint256"}],"stateMutability":"pure","type":"function"},{"inputs":[{"internalType":"address","name":"playerAddress","type":"address"}],"name":"getPlayer","outputs":[{"components":[{"internalType":"bool","name":"exists","type":"bool"},{"internalType":"address","name":"wallet","type":"address"},{"internalType":"address","name":"inviter","type":"address"},{"internalType":"address","name":"secondLine","type":"address"},{"internalType":"address","name":"thirdLine","type":"address"},{"internalType":"uint256","name":"totalTickets","type":"uint256"},{"internalType":"uint256","name":"baseWeight","type":"uint256"},{"internalType":"uint256","name":"referralWeight","type":"uint256"},{"internalType":"uint256","name":"loyaltyWeight","type":"uint256"},{"internalType":"uint256","name":"matrixWeight","type":"uint256"},{"internalType":"uint256","name":"nftWeight","type":"uint256"},{"internalType":"uint256","name":"totalWeight","type":"uint256"},{"internalType":"uint256","name":"boxTokens","type":"uint256"},{"internalType":"uint256","name":"recycleCount","type":"uint256"},{"internalType":"uint256","name":"claimableReferralBonus","type":"uint256"},{"internalType":"uint256","name":"claimablePrize","type":"uint256"},{"internalType":"uint256","name":"pendingPrize","type":"uint256"},{"internalType":"uint256","name":"joinedAt","type":"uint256"},{"internalType":"uint256","name":"lastActiveAt","type":"uint256"}],"internalType":"struct Player","name":"","type":"tuple"}],"stateMutability":"view","type":"function"},{"inputs":[{"internalType":"address","name":"playerAddress","type":"address"},{"internalType":"uint8","name":"level","type":"uint8"}],"name":"getPlayerChance","outputs":[{"internalType":"uint256","name":"chanceBps","type":"uint256"}],"stateMutability":"view","type":"function"},{"inputs":[{"internalType":"address","name":"playerAddress","type":"address"},{"internalType":"uint8","name":"level","type":"uint8"}],"name":"getPlayerLevel","outputs":[{"internalType":"bool","name":"active","type":"bool"},{"internalType":"bool","name":"frozen","type":"bool"},{"internalType":"uint256","name":"cycles","type":"uint256"},{"internalType":"uint256","name":"positionId","type":"uint256"},{"internalType":"uint256","name":"earned","type":"uint256"}],"stateMutability":"view","type":"function"},{"inputs":[{"internalType":"address","name":"playerAddress","type":"address"},{"internalType":"uint8","name":"level","type":"uint8"}],"name":"getPlayerLevelFull","outputs":[{"components":[{"internalType":"bool","name":"active","type":"bool"},{"internalType":"bool","name":"frozen","type":"bool"},{"internalType":"uint256","name":"tickets","type":"uint256"},{"internalType":"uint256","name":"cellId","type":"uint256"},{"internalType":"uint256","name":"parentCellId","type":"uint256"},{"internalType":"uint256","name":"leftChildCellId","type":"uint256"},{"internalType":"uint256","name":"rightChildCellId","type":"uint256"},{"internalType":"uint256","name":"cycleCount","type":"uint256"},{"internalType":"uint256","name":"levelWeight","type":"uint256"},{"internalType":"uint256","name":"claimablePrize","type":"uint256"},{"internalType":"uint256","name":"pendingPrize","type":"uint256"}],"internalType":"struct PlayerLevel","name":"","type":"tuple"}],"stateMutability":"view","type":"function"},{"inputs":[{"internalType":"address","name":"playerAddress","type":"address"},{"internalType":"uint8","name":"level","type":"uint8"}],"name":"getPlayerPosition","outputs":[{"internalType":"uint256","name":"positionId","type":"uint256"},{"internalType":"uint256","name":"parentId","type":"uint256"},{"internalType":"uint256","name":"leftChildId","type":"uint256"},{"internalType":"uint256","name":"rightChildId","type":"uint256"},{"internalType":"uint256","name":"depth","type":"uint256"},{"internalType":"bool","name":"closed","type":"bool"}],"stateMutability":"view","type":"function"},{"inputs":[{"internalType":"address","name":"playerAddress","type":"address"},{"internalType":"uint8","name":"level","type":"uint8"}],"name":"getPlayerTokenRewards","outputs":[{"internalType":"uint256","name":"referralBonus","type":"uint256"},{"internalType":"uint256","name":"claimablePrize","type":"uint256"},{"internalType":"uint256","name":"pendingPrize","type":"uint256"}],"stateMutability":"view","type":"function"},{"inputs":[{"internalType":"address","name":"playerAddress","type":"address"},{"internalType":"uint8","name":"level","type":"uint8"}],"name":"getPlayerWeight","outputs":[{"internalType":"uint256","name":"","type":"uint256"}],"stateMutability":"view","type":"function"},{"inputs":[{"internalType":"address","name":"playerAddress","type":"address"},{"internalType":"uint8","name":"level","type":"uint8"}],"name":"isLevelActive","outputs":[{"internalType":"bool","name":"","type":"bool"}],"stateMutability":"view","type":"function"},{"inputs":[{"internalType":"address","name":"playerAddress","type":"address"},{"internalType":"uint8","name":"level","type":"uint8"}],"name":"isLevelFrozen","outputs":[{"internalType":"bool","name":"","type":"bool"}],"stateMutability":"view","type":"function"},{"inputs":[{"internalType":"uint8","name":"","type":"uint8"}],"name":"levelAvailable","outputs":[{"internalType":"bool","name":"","type":"bool"}],"stateMutability":"view","type":"function"},{"inputs":[{"internalType":"uint8","name":"","type":"uint8"}],"name":"levelMatrixSize","outputs":[{"internalType":"uint256","name":"","type":"uint256"}],"stateMutability":"view","type":"function"},{"inputs":[{"internalType":"uint8","name":"","type":"uint8"}],"name":"levelPrices","outputs":[{"internalType":"uint256","name":"","type":"uint256"}],"stateMutability":"view","type":"function"},{"inputs":[{"internalType":"uint8","name":"","type":"uint8"}],"name":"levelPricesUsdc","outputs":[{"internalType":"uint256","name":"","type":"uint256"}],"stateMutability":"view","type":"function"},{"inputs":[{"internalType":"uint8","name":"","type":"uint8"},{"internalType":"uint256","name":"","type":"uint256"}],"name":"matrixNodes","outputs":[{"internalType":"uint256","name":"cellId","type":"uint256"},{"internalType":"address","name":"player","type":"address"},{"internalType":"uint8","name":"level","type":"uint8"},{"internalType":"uint256","name":"parentCellId","type":"uint256"},{"internalType":"uint256","name":"leftChildCellId","type":"uint256"},{"internalType":"uint256","name":"rightChildCellId","type":"uint256"},{"internalType":"bool","name":"closed","type":"bool"},{"internalType":"bool","name":"prizeCell","type":"bool"}],"stateMutability":"view","type":"function"},{"inputs":[{"internalType":"uint8","name":"","type":"uint8"}],"name":"matrixPrizePools","outputs":[{"internalType":"uint256","name":"","type":"uint256"}],"stateMutability":"view","type":"function"},{"inputs":[{"internalType":"uint8","name":"","type":"uint8"}],"name":"matrixPrizePoolsUsdc","outputs":[{"internalType":"uint256","name":"","type":"uint256"}],"stateMutability":"view","type":"function"},{"inputs":[{"internalType":"uint8","name":"","type":"uint8"}],"name":"nextCellId","outputs":[{"internalType":"uint256","name":"","type":"uint256"}],"stateMutability":"view","type":"function"},{"inputs":[{"internalType":"uint8","name":"","type":"uint8"}],"name":"nextOpenParentCellId","outputs":[{"internalType":"uint256","name":"","type":"uint256"}],"stateMutability":"view","type":"function"},{"inputs":[],"name":"operatorWallet","outputs":[{"internalType":"address","name":"","type":"address"}],"stateMutability":"view","type":"function"},{"inputs":[],"name":"owner","outputs":[{"internalType":"address","name":"","type":"address"}],"stateMutability":"view","type":"function"},{"inputs":[{"internalType":"address","name":"","type":"address"}],"name":"pendingPrizeUsdc","outputs":[{"internalType":"uint256","name":"","type":"uint256"}],"stateMutability":"view","type":"function"},{"inputs":[{"internalType":"address","name":"","type":"address"},{"internalType":"uint8","name":"","type":"uint8"}],"name":"pendingPrizeUsdcByLevel","outputs":[{"internalType":"uint256","name":"","type":"uint256"}],"stateMutability":"view","type":"function"},{"inputs":[{"internalType":"address","name":"","type":"address"},{"internalType":"uint8","name":"","type":"uint8"}],"name":"playerLevels","outputs":[{"internalType":"bool","name":"active","type":"bool"},{"internalType":"bool","name":"frozen","type":"bool"},{"internalType":"uint256","name":"tickets","type":"uint256"},{"internalType":"uint256","name":"cellId","type":"uint256"},{"internalType":"uint256","name":"parentCellId","type":"uint256"},{"internalType":"uint256","name":"leftChildCellId","type":"uint256"},{"internalType":"uint256","name":"rightChildCellId","type":"uint256"},{"internalType":"uint256","name":"cycleCount","type":"uint256"},{"internalType":"uint256","name":"levelWeight","type":"uint256"},{"internalType":"uint256","name":"claimablePrize","type":"uint256"},{"internalType":"uint256","name":"pendingPrize","type":"uint256"}],"stateMutability":"view","type":"function"},{"inputs":[{"internalType":"address","name":"","type":"address"}],"name":"players","outputs":[{"internalType":"bool","name":"exists","type":"bool"},{"internalType":"address","name":"wallet","type":"address"},{"internalType":"address","name":"inviter","type":"address"},{"internalType":"address","name":"secondLine","type":"address"},{"internalType":"address","name":"thirdLine","type":"address"},{"internalType":"uint256","name":"totalTickets","type":"uint256"},{"internalType":"uint256","name":"baseWeight","type":"uint256"},{"internalType":"uint256","name":"referralWeight","type":"uint256"},{"internalType":"uint256","name":"loyaltyWeight","type":"uint256"},{"internalType":"uint256","name":"matrixWeight","type":"uint256"},{"internalType":"uint256","name":"nftWeight","type":"uint256"},{"internalType":"uint256","name":"totalWeight","type":"uint256"},{"internalType":"uint256","name":"boxTokens","type":"uint256"},{"internalType":"uint256","name":"recycleCount","type":"uint256"},{"internalType":"uint256","name":"claimableReferralBonus","type":"uint256"},{"internalType":"uint256","name":"claimablePrize","type":"uint256"},{"internalType":"uint256","name":"pendingPrize","type":"uint256"},{"internalType":"uint256","name":"joinedAt","type":"uint256"},{"internalType":"uint256","name":"lastActiveAt","type":"uint256"}],"stateMutability":"view","type":"function"},{"inputs":[],"name":"projectFeesAccrued","outputs":[{"internalType":"uint256","name":"","type":"uint256"}],"stateMutability":"view","type":"function"},{"inputs":[],"name":"projectFeesAccruedUsdc","outputs":[{"internalType":"uint256","name":"","type":"uint256"}],"stateMutability":"view","type":"function"},{"inputs":[],"name":"projectWallet","outputs":[{"internalType":"address","name":"","type":"address"}],"stateMutability":"view","type":"function"},{"inputs":[{"internalType":"uint8","name":"level","type":"uint8"}],"name":"requestDraw","outputs":[],"stateMutability":"nonpayable","type":"function"},{"inputs":[{"internalType":"uint8","name":"level","type":"uint8"},{"internalType":"bool","name":"available","type":"bool"}],"name":"setLevelAvailable","outputs":[],"stateMutability":"nonpayable","type":"function"},{"inputs":[{"internalType":"uint8","name":"level","type":"uint8"},{"internalType":"uint256","name":"newPrice","type":"uint256"}],"name":"setLevelPrice","outputs":[],"stateMutability":"nonpayable","type":"function"},{"inputs":[{"internalType":"uint8","name":"level","type":"uint8"},{"internalType":"uint256","name":"newPrice","type":"uint256"}],"name":"setLevelPriceUSDC","outputs":[],"stateMutability":"nonpayable","type":"function"},{"inputs":[{"internalType":"address","name":"newToken","type":"address"}],"name":"setUsdcToken","outputs":[],"stateMutability":"nonpayable","type":"function"},{"inputs":[{"internalType":"address","name":"newProjectWallet","type":"address"},{"internalType":"address","name":"newTreasuryWallet","type":"address"},{"internalType":"address","name":"newOperatorWallet","type":"address"}],"name":"setWallets","outputs":[],"stateMutability":"nonpayable","type":"function"},{"inputs":[{"internalType":"uint8","name":"","type":"uint8"}],"name":"totalWeightByLevel","outputs":[{"internalType":"uint256","name":"","type":"uint256"}],"stateMutability":"view","type":"function"},{"inputs":[{"internalType":"address","name":"newOwner","type":"address"}],"name":"transferOwnership","outputs":[],"stateMutability":"nonpayable","type":"function"},{"inputs":[],"name":"treasuryWallet","outputs":[{"internalType":"address","name":"","type":"address"}],"stateMutability":"view","type":"function"},{"inputs":[],"name":"usdcToken","outputs":[{"internalType":"contract IERC20Minimal","name":"","type":"address"}],"stateMutability":"view","type":"function"},{"inputs":[],"name":"withdrawProjectFees","outputs":[],"stateMutability":"nonpayable","type":"function"},{"inputs":[],"name":"withdrawProjectFeesUSDC","outputs":[],"stateMutability":"nonpayable","type":"function"},{"stateMutability":"payable","type":"receive"}],"evm":{"bytecode":{"linkReferences":{},"object":"6080346106d257601f614e9438819003918201601f19168301916001600160401b038311848410176106d7578084926080946040528339810103126106d257610047816106ed565b610053602083016106ed565b9161006c6060610065604084016106ed565b92016106ed565b6001601c556001600160a01b039092169283156106c1576001600160a01b03169081156106c1576001600160a01b03169182156106c1576001600160a01b03169283156106c157600080546001600160a01b0319908116331782556001805482169390931790925560028054831693909317909255600380548216939093178355600480549091169390931790925566b1a2bc2ec500007f1471eb6eb2c5e789fc3de43f8ce62938c7d1836ec861730447e2ada8fd81017b5566f8b0a10e4700007f89832631fb3c3307a103ba2c84ab569c64d6182a18893dcd163f0f1c2090733a5567016345785d8a00007fa9bc9a3a348c357ba16b37005d7e6b3236198c0e939f4af8c5f19b8deeb8ebc0556701f161421c8e00007f3eec716f11ba9e820c81ca75eb978ffb45831ef8b7a53e5e422c26008e1ca6d5556702c68af0bb1400007f458b30c2d72bfd2c6317304a4594ecbafe5f729d3111b65fdc3a33bd48e5432d556703e2c284391c00007f069400f22b28c6c362558d92f66163cec5671cba50b61abd2eecfcd0eaeac5185567058d15e1762800007feddb6698d7c569ff62ff64f1f1492bf14a54594835ba0faac91f84b4f5d81460556707a1fe16027700007ffb33122aa9f93cc639ebe80a7bc4784c11e6053dde89c6f4f7e268c6a623da1e55670b1a2bc2ec5000007fc0a4a8be475dfebc377ebef2d7c4ff47656f572a08dd92b81017efcdba0febe155670f43fc2c04ee00007fa18b128af1c8fc61ff46f02d146e54546f34d340574cf2cef6a753cba6b6701d556716345785d8a000007f40f28f99a40bc9f6beea1013afdbc3cdcc689eb76b82c4de06c0acf1e1932ed555671e87f85809dc00007ff907e7e6656fa73566b18c1215272fe9fca2c55c552e62c923e21e000ac4b4e655672c68af0bb14000007f03145c75015e7a856ecd94c41432ef3cb669d6360af23433588937fefdfac82555673d0ff0b013b800007f783638979e3582b3ffd6d53fc06c949ac31d1ac75a5e2c3531fbe1f91045eb5355675a34a38fc00a00007f58f00e8ecc6f5419941dd0bafec65a4cc188d31713fb1fe224257460930df8af55676f05b59d3b2000007f8b32256db898364c465749decac34aee435952ffe1739257aa5b0235e266d9c55567a688906bd8b000007fb4e18992ad424cdedc46668609f2bafcf665a8d99577618d5923c69264d9cf5f55600660205261c3507f3e5fec24aa4dc4e5aee2e025e51e1392c72a2500577559fae9665c6d52bd6a3155620111707f8819ef417987f8ae7a81f42cdfb18815282fe989326fbff903d13cf0e03ace2955620186a07f75f96ab15d697e93042dc45b5c896c4b27e89bb6eaf39475c5c371cb2513f7d255620222e07fc5069e24aaadb2addc3e52e868fcf3f4f8acf5a87e24300992fd4540c2a87eed5562030d407fbfd358e93f18da3ed276c3afdbdba00b8f0b6008a03476a6a86bd6320ee6938b55620445c07f697b2bd7bb2984c4e0dc14c79c987d37818484a62958b9c45a0e8b962f20650f5562061a807f4ced6d0d36392b04cc5d8761b1327b3bbba6e1089c77f60a9a9ca18e05e4f00e55620864707fb8d683c9d414f481826f3e7fe14b3ac6ae8c73450778287390c4bb8cb9f2e80b55620c35007fca4d0c6c94a9477136dd41a99cc19ecbe441c8f6609efe7c6fa65be007a47323556210c8e07f4da38fc8e544afc56a4c2a17752b8ddb67d8e23ac4583c9029d2e2d1dbe6c9885562186a007f85291c2e7881182c13e19eca9b58927ebfdc2c5d04882018eeb33d8241d3571155622191c07f0b94fa1b86997cc1f1148bfbe25b674e8cefc7cc6f976aa8d7c7966bd4cca347556230d4007f248457bacb20e239ae314d8db91c0f270e453c28ee138c84f97aea6cfcf9a49955624323807faca6cdb4b5fe0ec50731a73f714dd191dc1911bfeb3f9eeb9e94ed0f6065ef8d5562632ea07ff130046d53bc87538ab17e4752ba5f5082985eecc06ccb932c5a55e8242dd50255627a12007f6fac4587033fa036e2426ad0134940d3a683633cc2b2b7862f39195344f163d155601190915262b71b007f84a4048ee77615560f9afb39551a46e123dd0dd6c928af241dc565271d032569555b60ff811690601182116106b25760ff9160005260076020526040600020600183198254161790551660ff811461069c57600101610664565b634e487b7160e01b600052601160045260246000fd5b60405161479290816107028239f35b63d92e233d60e01b60005260046000fd5b600080fd5b634e487b7160e01b600052604160045260246000fd5b51906001600160a01b03821682036106d25756fe6101006040526004361015610053575b361561001a57600080fd5b60405162461bcd60e51b8152602060048201526011602482015270155cd9481858dd1a5d985d1953195d995b607a1b6044820152606490fd5b60003560e01c806303a65dfa14612c0857806304eb273414612bd45780630e475efd14612b6257806311eac85514612b3957806319a0859414612b1b5780631a1478c31461106d5780631d6a884b14612aff5780631e375ab914612a3a57806322fbfe80146129ad578063249d39e91461299057806324bdc3a71461040357806326728174146114b057806326e0cfe7146129035780632e50d906146128cf5780632f5ced0414610431578063306bf6bb146127d4578063308c6109146127b757806331b161a7146103a8578063333fedad146114b05780633d5efbae146126d55780633f896dd91461256457806340261fbb146123d05780634626402b146123a757806348d46be1146121175780634a57c6d914611f745780634ca3696c14611ee25780634d69a4cd14611ec65780635042a91f14611ea957806350da23dc1461040357806352ebb22714611e7057806352f5c84e14611e3c5780635c12cd4b14611b9d5780635c602d9e14611ad75780635d886f2214611a1b5780636b09f539146119e157806372d686bf146119c457806375b7d7c11461195557806375cb1bd1146117a05780637a7c7a6a146116cb5780637dcda2d4146116975780637f3255a81461167a578063852f82991461165d57806386b8f4a1146116235780638c5b8ea5146115ef5780638d2724f9146115bb5780638da5cb5b146115925780638eb657c4146114b557806390f7c71a146114b057806394cecff8146114115780639b3728e8146103a85780639fef6862146113f5578063a0978ac214611348578063b75b688b146112c7578063b9aee26314611267578063bea9903514611216578063beb08ab9146111ed578063c05db4ce146111b9578063c7fcb8c31461117f578063c864ce5614611072578063c8f17ce31461106d578063ce9fffaa14611039578063d2a1608014610fe6578063dbba054014610fb2578063e26f7c4614610f94578063e2eb41ff14610e28578063e69d2ca714610a95578063e8a8bd5c14610a61578063ed270c16146109ab578063edfae883146108b4578063f178fb1b14610898578063f2fde38b146107e8578063f4f5058d14610436578063f6d5f69a14610431578063f90ef4ac14610408578063f933513914610403578063f935c2d6146103ad5763f943cbc60361000f575b612d33565b346103fe5760403660031901126103fe576103c6612c75565b6103ce612ca1565b9060018060a01b0316600052601760205260ff604060002091166000526020526020604060002054604051908152f35b600080fd5b612cde565b346103fe5760003660031901126103fe576003546040516001600160a01b039091168152602090f35b612d17565b346103fe5760403660031901126103fe5761044f612cb1565b610457612c8b565b6104656001601c5414612d50565b6002601c5560ff8216916001831080156107de575b6107c95782600052600760205261049860ff60406000205416612eec565b6004546001600160a01b0316916104b0831515612dc6565b8360005260066020526040600020549283156107845760206000916064604051809481936323b872dd60e01b83523360048401523060248401528960448401525af190811561077857600091610749575b501561070d576105129033836131ef565b90611d7e8302838104611d7e036106f7576127109004906103b684028481046103b6036106f7576127109004906102588502858104610258036106f757612710900491610190860293868504610190036106f757876127108196049283868261057b868d612e50565b9061058591612e50565b9061058f91612e50565b9061059991612e50565b943360005260096020528460406000209184600052600f6020526040600020868154906105c591612fbf565b905560018301546105e4908590839033906001600160a01b03166140b1565b6002830154610601908a90839033906001600160a01b031661414b565b60039092015461061c929033906001600160a01b03166141e3565b846013549061062a91612fbf565b6013819055600454604080519586526020860193909352918401969096526060830193909352608082018490526001600160a01b039092169391849133907f7a14a1babc4a5ae45f861abaf72c1b5410a6a47bcd895b29db0aa9d61db01d1c9060a090a4604051918252602082015260407f84c9aa800e59f9827a5bed559d2f7b6c5e3e446a7ba1a56d2193016565b7bab191a36040519182526020820152339060407fe099ace9cc029768846f2abe32ce8983d72474335b42431e129401c1e9c0886b91a36001601c55005b634e487b7160e01b600052601160045260246000fd5b60405162461bcd60e51b81526020600482015260146024820152731554d110c81d1c985b9cd9995c8819985a5b195960621b6044820152606490fd5b61076b915060203d602011610771575b6107638183612eca565b810190613088565b85610501565b503d610759565b6040513d6000823e3d90fd5b60405162461bcd60e51b815260206004820152601c60248201527f55534443207072696365206973206e6f7420636f6e66696775726564000000006044820152606490fd5b82633d98c85560e21b60005260045260246000fd5b506011831161047a565b346103fe5760203660031901126103fe57610801612c75565b600054906001600160a01b0382169061081b338314612d8d565b6001600160a01b0316918215610862576001600160a01b031916821760009081557f8be0079c531659141344cd1fd0a4f28419497f9722a3daafe3b4186f6b6457e09080a3005b60405162461bcd60e51b815260206004820152600e60248201526d13dddb995c881c995c5d5a5c995960921b6044820152606490fd5b346103fe5760003660031901126103fe576020604051600a8152f35b346103fe5760003660031901126103fe576108d36001601c5414612d50565b6002601c55336000526014602052604060002054801561096d57600454610904906001600160a01b03161515612dc6565b3360008181526014602052604081205560045461092b9183916001600160a01b031661313a565b6004546040519182526001600160a01b03169033907f6212d3b8329f12cd207169548d7570de1a41c72473a7313c176c13641c39aab790602090a36001601c55005b60405162461bcd60e51b81526020600482015260166024820152754e6f205553444320726566657272616c20626f6e757360501b6044820152606490fd5b346103fe5760403660031901126103fe576109c4612cb1565b602435908115158092036103fe5760ff906109ea60018060a01b03600054163314612d8d565b1690600182108015610a57575b610a425760207fdd552374405792741cb7e6993ca7e6dd5400b9e45e80ca256ac09db4009c8937918360005260078252604060002060ff1981541660ff8316179055604051908152a2005b50633d98c85560e21b60005260045260246000fd5b50601182116109f7565b346103fe5760203660031901126103fe5760ff610a7c612cb1565b16600052600f6020526020604060002054604051908152f35b346103fe5760203660031901126103fe57610aae612cb1565b610ac360018060a01b03600054163314612d8d565b610ad16001601c5414612d50565b6002601c5560ff8116600181108015610e1e575b610e0a57806000526010602052604060002054908115610dd95780600052600e6020526040600020546103e88102908082046103e814901517156106f75761271090049181600052600f6020526040600020546103e88102908082046103e814901517156106f75761271090049280159485158096610dd0575b15610d9a5783600052600e602052604060002054604051602081019144835242604083015243606083015260ff60f81b8460f81b16608083015285608183015260a182015260a18152610bb360c182612eca565b5190209560009684810660018101809111610d8657610bd290846132fe565b6001600160a01b038116959094908615610d4e577f7ef17ebc298cc940dd307a6cde5f8230f0ef2aee27dca2d95320d0e88b04271660407fd5e2c127c46eb00d0b5f0c368b3c217878cb46f88b4a6975e501b154542c5c8d948a97938d8d868c898f9c998e9a610d25575b5050508115159c8d610cfc575b5050505082519182526020820152a2828952600a60209081526040808b20868c528252808b2054815193845260081c60ff1615159183019190915290a3610c95575b836001601c5580f35b600454818552600a60209081526040808720858852825280872054815196875260081c60ff161515918601919091526001600160a01b03909116937fdf312aec1d512369ede01a73501adadf38c6d2a0708fbdefce0599bcb8f7ff6f9190a4818080610c8c565b86848a610d1c9652600f60205220610d15848254612e50565b9055613403565b8d8d3880610c4a565b610d46928b8752600e602052898720610d3f848254612e50565b905561338a565b8c8982610c3d565b60405162461bcd60e51b815260206004820152601060248201526f15da5b9b995c881b9bdd08199bdd5b9960821b6044820152606490fd5b634e487b7160e01b89526011600452602489fd5b60405162461bcd60e51b815260206004820152600e60248201526d139bc8191c985dc81c995dd85c9960921b6044820152606490fd5b50841515610b5f565b60405162461bcd60e51b8152602060048201526009602482015268139bc81dd95a59da1d60ba1b6044820152606490fd5b633d98c85560e21b60005260045260246000fd5b5060118111610ae5565b346103fe5760203660031901126103fe576001600160a01b03610e49612c75565b166000526009602052604060002080808080808080808080808080806011600f600e600d600c600b600a6009600860076006600560048d549d60018060a01b0360018201541660e052600260018060a01b03910154169e600360018060a01b03910154169f01549f01549f01549f01549f01549f01549f01549f01549f01549f01549f01549f01549f6010810154608052015460c05260405160a05260ff8116151560a0515260018060a01b039060081c16602060a051015260e051604060a0510152606060a0510152608060a051015260a08051015260c060a051015260e060a051015261010060a051015261012060a051015261014060a051015261016060a051015261018060a05101526101a060a05101526101c060a05101526101e060a051015261020060a051015260805161022060a051015260c05161024060a051015261026060a051f35b346103fe5760003660031901126103fe576020601354604051908152f35b346103fe5760203660031901126103fe5760ff610fcd612cb1565b1660005260116020526020604060002054604051908152f35b346103fe5760403660031901126103fe5760c0611012611004612c75565b61100c612ca1565b90612fcc565b936040939193519586526020860152604085015260608401526080830152151560a0820152f35b346103fe5760203660031901126103fe5760ff611054612cb1565b16600052600c6020526020604060002054604051908152f35b612cc1565b346103fe5760203660031901126103fe5760ff61108d612cb1565b61109b6001601c5414612d50565b6002601c5516600181108015611175575b610e0a5733600052600a602052604060002081600052602052600860406000206110dc60ff8254841c1615612e12565b0180549081156111455760009055336000526009602052600e604060002001611106828254612e50565b905561111281336130a0565b6040519081527fe478efad2d93638c429f97678f2517efcafee26463eaf608c398b94a2510eab560203392a36001601c55005b60405162461bcd60e51b81526020600482015260086024820152674e6f207072697a6560c01b6044820152606490fd5b50601181116110ac565b346103fe5760203660031901126103fe576001600160a01b036111a0612c75565b1660005260146020526020604060002054604051908152f35b346103fe5760203660031901126103fe5760ff6111d4612cb1565b1660005260086020526020604060002054604051908152f35b346103fe5760003660031901126103fe576001546040516001600160a01b039091168152602090f35b346103fe5760403660031901126103fe5761122f612c75565b611237612ca1565b9060018060a01b0316600052601860205260ff604060002091166000526020526020604060002054604051908152f35b346103fe5760203660031901126103fe5760ff611282612cb1565b166001811080156112bd575b610e0a57806040916000526011602052816000205490600052600d602052816000205482519182526020820152f35b506011811161128e565b346103fe5760403660031901126103fe576112e0612cb1565b60ff602435911660018110801561133e575b610e0a575060075b8181111561130d57602090604051908152f35b600181018091116106f75760011b6000198101908111156112fa57634e487b7160e01b600052601160045260246000fd5b50601181116112f2565b346103fe5760403660031901126103fe57611361612c75565b60ff61136b612ca1565b16906001821080156113eb575b610a42576001600160a01b03166000908152600a6020908152604080832093835292905220805460068201546002830154600884015460099094015460a0946113c19190612fbf565b9160ff604051948181161515865260081c1615156020850152604084015260608301526080820152f35b5060118211611378565b346103fe5760003660031901126103fe57602060405160198152f35b346103fe5760403660031901126103fe5760ff61142c612cb1565b16600052600b6020526040600020602435600052602052610100604060002060ff815491600181015490600281015460038201549084600560048501549401549460405197885260018060a01b038116602089015260a01c1660408701526060860152608085015260a0840152818116151560c084015260081c16151560e0820152f35b612cfb565b346103fe5760403660031901126103fe576114ce612cb1565b60ff602435916114e960018060a01b03600054163314612d8d565b1690600182108015611588575b610a4257801561154f5760407f68cb741d0779160e141ccf5dd579423de44febc76c0edddcc6167807a3c16af79183600052600560205281600020549084600052600560205280836000205582519182526020820152a2005b60405162461bcd60e51b8152602060048201526011602482015270141c9a58d9481a5cc81c995c5d5a5c9959607a1b6044820152606490fd5b50601182116114f6565b346103fe5760003660031901126103fe576000546040516001600160a01b039091168152602090f35b346103fe5760203660031901126103fe5760ff6115d6612cb1565b1660005260106020526020604060002054604051908152f35b346103fe5760203660031901126103fe5760ff61160a612cb1565b16600052600e6020526020604060002054604051908152f35b346103fe5760203660031901126103fe576001600160a01b03611644612c75565b1660005260166020526020604060002054604051908152f35b346103fe5760003660031901126103fe5760206040516102588152f35b346103fe5760003660031901126103fe5760206040516101908152f35b346103fe5760403660031901126103fe5760206116c36116b5612c75565b6116bd612ca1565b90612f38565b604051908152f35b346103fe5760003660031901126103fe576116f160018060a01b03600054163314612d8d565b6116ff6001601c5414612d50565b6002601c5560125480156117695760006012556001546117299082906001600160a01b03166130a0565b6001546040519182526001600160a01b0316907f95334f2d4e98187a454807e6ec3da804af4da5c99357a7398e2cf2505ac8821890602090a26001601c55005b60405162461bcd60e51b815260206004820152600f60248201526e4e6f2070726f6a656374206665657360881b6044820152606490fd5b346103fe5760603660031901126103fe576117b9612c75565b6117c1612c8b565b6044356001600160a01b03811692908390036103fe576117ec60018060a01b03600054163314612d8d565b6001600160a01b0316908115611910576001600160a01b03169081156118cb578215611886577fd2d452a5df03f60ff9bf0ef1fc3498af992b0b6165c03b2f792cf596ee96530a92606092826001600160601b0360a01b6001541617600155806001600160601b0360a01b6002541617600255816001600160601b0360a01b600354161760035560405192835260208301526040820152a1005b60405162461bcd60e51b815260206004820152601860248201527f4f70657261746f722077616c6c657420726571756972656400000000000000006044820152606490fd5b60405162461bcd60e51b815260206004820152601860248201527f54726561737572792077616c6c657420726571756972656400000000000000006044820152606490fd5b60405162461bcd60e51b815260206004820152601760248201527f50726f6a6563742077616c6c65742072657175697265640000000000000000006044820152606490fd5b346103fe5760403660031901126103fe5761196e612c75565b60ff611978612ca1565b16906001821080156119ba575b610a425760018060a01b0316600052600a602052604060002090600052602052602060ff604060002054166040519015158152f35b5060118211611985565b346103fe5760003660031901126103fe576020604051611d7e8152f35b346103fe5760203660031901126103fe576001600160a01b03611a02612c75565b1660005260156020526020604060002054604051908152f35b346103fe5760203660031901126103fe57611a34612c75565b611a4960018060a01b03600054163314612d8d565b6001600160a01b03168015611a9c57600480546001600160a01b0319811683179091556001600160a01b03167f750dce806a7083b5c48405b1310300e4aa4241d21c26cd1348ec6f81324aeb9f600080a3005b60405162461bcd60e51b81526020600482015260136024820152721554d110c81d1bdad95b881c995c5d5a5c9959606a1b6044820152606490fd5b346103fe5760403660031901126103fe576101606040611af5612c75565b611afd612ca1565b9060018060a01b0316600052600a6020528160002060ff60009216825260205220805490600181015490600281015460038201546004830154600584015490600685015492600786015494600960088801549701549760ff6040519a81811615158c5260081c16151560208b015260408a01526060890152608088015260a087015260c086015260e0850152610100840152610120830152610140820152f35b346103fe5760203660031901126103fe57611bb6612c75565b6000610240604051611bc781612ead565b8281528260208201528260408201528260608201528260808201528260a08201528260c08201528260e08201528261010082015282610120820152826101408201528261016082015282610180820152826101a0820152826101c0820152826101e08201528261020082015282610220820152015260018060a01b031660005260096020526102606040600020610240604051611c6381612ead565b601183549360ff85161515835260018060a01b038560081c16602084015260018060a01b03600182015416604084015260018060a01b03600282015416606084015260018060a01b036003820154166080840152600481015460a0840152600581015460c0840152600681015460e0840152600781015461010084015260088101546101208401526009810154610140840152600a810154610160840152600b810154610180840152600c8101546101a0840152600d8101546101c0840152600e8101546101e0840152600f810154610200840152601081015461022084015201548282015260ff60405193161515835260018060a01b03602082015116602084015260018060a01b03604082015116604084015260018060a01b03606082015116606084015260018060a01b03608082015116608084015260a081015160a084015260c081015160c084015260e081015160e08401526101008101516101008401526101208101516101208401526101408101516101408401526101608101516101608401526101808101516101808401526101a08101516101a08401526101c08101516101c08401526101e08101516101e08401526102008101516102008401526102208101516102208401520151610240820152f35b346103fe5760203660031901126103fe5760ff611e57612cb1565b16600052600d6020526020604060002054604051908152f35b346103fe5760203660031901126103fe5760ff611e8b612cb1565b166000526007602052602060ff604060002054166040519015158152f35b346103fe5760003660031901126103fe5760206040516113888152f35b346103fe5760003660031901126103fe57602060405160148152f35b346103fe5760403660031901126103fe57611efb612c75565b60ff611f05612ca1565b1690600182108015611f6a575b610a42576001600160a01b031660008181526014602090815260408083205460178352818420868552835281842054948452601883528184209584529482529182902054825194855290840192909252820152606090f35b5060118211611f12565b346103fe5760403660031901126103fe57611f8d612cb1565b60ff60243591600060e0604051611fa381612e90565b8281528260208201528260408201528260608201528260808201528260a08201528260c082015201521660018110801561210d575b610e0a57811515806120f6575b156120c257600052600b60205260406000209060005260205261010060406000206040519061201382612e90565b805491828152600182015491602082019260018060a01b038116845260ff604084019160a01c16815260028201546060840190815260ff60038401549260808601938452600560048601549560a088019687520154968260e060c0890198828b1615158a52019860081c161515885260405198895260018060a01b039051166020890152511660408701525160608601525160808501525160a084015251151560c083015251151560e0820152f35b60405162461bcd60e51b815260206004820152600c60248201526b125b9d985b1a590818d95b1b60a21b6044820152606490fd5b5080600052600c6020526040600020548210611fe5565b5060118111611fd8565b60403660031901126103fe5761212b612cb1565b612133612c8b565b906121426001601c5414612d50565b6002601c5560ff81169160018310801561239d575b6107c95782600052600760205261217560ff60406000205416612eec565b8260005260056020526040600020543403612358576121959033836131ef565b90611d7e3402341590348104611d7e148217156106f7576127109004906103b634023481046103b6148217156106f7576127109004926102583402348104610258148317156106f7576127109004936101903402923484046101901417156106f757867f4b36477d57294a9cd8dbda6c13fa93d36015734ac4eabb6c235f3ee6c9034a4e947fb85ef11be8aa73fba898a4935afe7d749e354cf349871a27f8934346a1b2e4ff829761271060409704946122d0866122648161225f8661225f8761225f8c34612e50565b612e50565b983360005260096020528a60002088600052600e6020528b60002061228a898254612fbf565b90556122a485833360018060a01b03600186015416613e94565b6122bc86833360018060a01b03600286015416613f53565b6003015433906001600160a01b031661400a565b612311876122e081601254612fbf565b97886012558a519485943398869192608093969594919660a084019784526020840152604083015260608201520152565b0390a382519182526020820152a26040519034825260208201527fe099ace9cc029768846f2abe32ce8983d72474335b42431e129401c1e9c0886b60403392a36001601c55005b60405162461bcd60e51b815260206004820152601860248201527f496e636f7272656374207061796d656e7420616d6f756e7400000000000000006044820152606490fd5b5060118311612157565b346103fe5760003660031901126103fe576002546040516001600160a01b039091168152602090f35b346103fe5760403660031901126103fe576123e9612c75565b60ff6123f3612ca1565b600061014060405161240481612e5d565b8281528260208201528260408201528260608201528260808201528260a08201528260c08201528260e082015282610100820152826101208201520152169060018210801561255a575b610a42576101609160409160018060a01b0316600052600a6020528160002060009182526020522060405161248281612e5d565b81549160ff831615159283835260ff602084019160081c161515815260018201546040840190815260028301546060850190815260038401546080860190815260048501549060a0870191825260058601549260c0880193845260068701549460e089019586526007880154966101008a01978852610140600960088b01549a6101208d019b8c5201549a01998a526040519a8b5251151560208b01525160408a01525160608901525160808801525160a08701525160c08601525160e0850152516101008401525161012083015251610140820152f35b506011821161244e565b346103fe5760203660031901126103fe5760ff61257f612cb1565b61258d6001601c5414612d50565b6002601c55166001811080156126cb575b610e0a576004546125b9906001600160a01b03161515612dc6565b33600052600a6020526040600020816000526020526125e360ff60406000205460081c1615612e12565b336000526017602052604060002081600052602052604060002054801561269657336000526017602052604060002082600052602052600060408120553360005260156020526040600020612639828254612e50565b905560045461265490829033906001600160a01b031661313a565b6004546040519182526001600160a01b03169033907fcb5b06c056856bb82784094d6a04f2cdd54a8ca5035447b87427f46c8d09813190602090a46001601c55005b60405162461bcd60e51b815260206004820152600d60248201526c4e6f2055534443207072697a6560981b6044820152606490fd5b506011811161259e565b346103fe5760403660031901126103fe576126ee612cb1565b60ff6024359161270960018060a01b03600054163314612d8d565b16906001821080156127ad575b610a4257801561276f5760407f3b7a8420bcf2581fac422a359ff730b951e902c11f27da90a7e97da9c068f9a69183600052600660205281600020549084600052600660205280836000205582519182526020820152a2005b60405162461bcd60e51b81526020600482015260166024820152751554d110c81c1c9a58d9481a5cc81c995c5d5a5c995960521b6044820152606490fd5b5060118211612716565b346103fe5760003660031901126103fe5760206040516103b68152f35b346103fe5760003660031901126103fe576127fa60018060a01b03600054163314612d8d565b6128086001601c5414612d50565b6002601c556004546001600160a01b0316612824811515612dc6565b60135490811561289357600060135560015461284b9183916001600160a01b03169061313a565b6004546001546040519283526001600160a01b03908116929116907f6f09a29fa95e6ca2c4c5b55c121d7269faf4d531e64e23d432f03e95bb6caa4790602090a36001601c55005b60405162461bcd60e51b81526020600482015260146024820152734e6f20555344432070726f6a656374206665657360601b6044820152606490fd5b346103fe5760203660031901126103fe5760ff6128ea612cb1565b1660005260056020526020604060002054604051908152f35b346103fe5760203660031901126103fe5760ff61291e612cb1565b16600181108015612986575b610e0a576000908152600f602090815260408083205460108352818420546011845282852054600d855283862054600c86529584902054845193845294830191909152918101919091526060810192909252608082015260a090f35b506011811161292a565b346103fe5760003660031901126103fe5760206040516127108152f35b346103fe5760203660031901126103fe5760ff6129c8612cb1565b16600181108015612a30575b610e0a576000908152600e602090815260408083205460108352818420546011845282852054600d855283862054600c86529584902054845193845294830191909152918101919091526060810192909252608082015260a090f35b50601181116129d4565b346103fe5760003660031901126103fe57612a596001601c5414612d50565b6002601c55336000526009602052600d604060002001548015612ac6573360005260096020526000600d604082200155612a9381336130a0565b6040519081527f53473e2a2e0cc6840d80567f104277ea6daa0891e5316836bac38a686b79ea3360203392a26001601c55005b60405162461bcd60e51b81526020600482015260116024820152704e6f20726566657272616c20626f6e757360781b6044820152606490fd5b346103fe5760003660031901126103fe57602060405160118152f35b346103fe5760003660031901126103fe576020601254604051908152f35b346103fe5760003660031901126103fe576004546040516001600160a01b039091168152602090f35b346103fe5760403660031901126103fe57612b7b612c75565b60ff612b85612ca1565b1690600182108015612bca575b610a425760018060a01b0316600052600a602052604060002090600052602052602060ff60406000205460081c166040519015158152f35b5060118211612b92565b346103fe5760203660031901126103fe5760ff612bef612cb1565b1660005260066020526020604060002054604051908152f35b346103fe5760403660031901126103fe57612c21612c75565b60ff612c2b612ca1565b1690600182108015612c6b575b610a425760018060a01b0316600052600a6020526040600020906000526020526020600760406000200154604051908152f35b5060118211612c38565b600435906001600160a01b03821682036103fe57565b602435906001600160a01b03821682036103fe57565b6024359060ff821682036103fe57565b6004359060ff821682036103fe57565b346103fe5760003660031901126103fe5760206040516107d08152f35b346103fe5760003660031901126103fe5760206040516101f48152f35b346103fe5760003660031901126103fe57602060405160648152f35b346103fe5760003660031901126103fe57602060405160328152f35b346103fe5760003660031901126103fe5760206040516103e88152f35b15612d5757565b60405162461bcd60e51b815260206004820152600e60248201526d1499595b9d1c985b9d0818d85b1b60921b6044820152606490fd5b15612d9457565b60405162461bcd60e51b815260206004820152600a60248201526927b7363c9037bbb732b960b11b6044820152606490fd5b15612dcd57565b60405162461bcd60e51b815260206004820152601960248201527f5553444320746f6b656e206e6f7420636f6e66696775726564000000000000006044820152606490fd5b15612e1957565b60405162461bcd60e51b815260206004820152600f60248201526e2632bb32b61034b990333937bd32b760891b6044820152606490fd5b919082039182116106f757565b610160810190811067ffffffffffffffff821117612e7a57604052565b634e487b7160e01b600052604160045260246000fd5b610100810190811067ffffffffffffffff821117612e7a57604052565b610260810190811067ffffffffffffffff821117612e7a57604052565b90601f8019910116810190811067ffffffffffffffff821117612e7a57604052565b15612ef357565b60405162461bcd60e51b815260206004820152601a60248201527f4c6576656c206973206e6f7420617661696c61626c65207965740000000000006044820152606490fd5b9060ff16600181108015612fa7575b610e0a57806000526010602052604060002054918215612f9f5760018060a01b0316600052600a60205260406000209060005260205260076040600020015461271081029080820461271014901517156106f7570490565b505050600090565b5060118111612f47565b90600182018092116106f757565b919082018092116106f757565b919060ff169160018310801561307e575b6107c95760018060a01b0316600052600a60205260406000208260005260205260026040600020015491821561306d57600052600b602052604060002082600052602052604060002091825492600281015493600382015493600483015493926000935b6001811161305a57506005015491959493929160ff1690565b6130679060011c946140a2565b93613041565b506000915081908190819081908190565b5060118311612fdd565b908160209103126103fe575180151581036103fe5790565b8115613136576000918291829182916001600160a01b03165af13d15613131573d67ffffffffffffffff8111612e7a57604051906130e8601f8201601f191660200183612eca565b8152600060203d92013e5b156130fa57565b60405162461bcd60e51b815260206004820152600f60248201526e151c985b9cd9995c8819985a5b1959608a1b6044820152606490fd5b6130f3565b5050565b9180156131ea5760405163a9059cbb60e01b81526001600160a01b03928316600482015260248101919091529160209183916044918391600091165af1908115610778576000916131cb575b501561318e57565b60405162461bcd60e51b8152602060048201526015602482015274151bdad95b881d1c985b9cd9995c8819985a5b1959605a1b6044820152606490fd5b6131e4915060203d602011610771576107638183612eca565b38613186565b505050565b6001600160a01b0382166000908152600960209081526040808320600a835281842060ff8087168652935292208054949695929490911661328b5761323760019287866134b8565b8161ffff1982541617815501805490600182018092116106f7575560048201918254600181018091116106f75761328993556011429101556132798482613616565b936132848282613a19565b613d00565b565b60405162461bcd60e51b815260206004820152601760248201527f4c6576656c20697320616c7265616479206163746976650000000000000000006044820152606490fd5b80548210156132e85760005260206000200190600090565b634e487b7160e01b600052603260045260246000fd5b60009160ff8216600052601960205260406000206000938154945b85811061332b57505050505050600090565b61336e61333882856132d0565b60018060a01b0391549060031b1c169283600052600a602052600760408060002060009060ff8b16825260205220015490612fbf565b91828511156133805750600101613319565b9550505050505090565b60409060018060a01b03169182600052600a6020528160002060ff6000921682526020522090600052600960205260406000209060ff815460081c166133ee576133ea916008600e92016133df858254612fbf565b905501918254612fbf565b9055565b6133ea916009600f92016133df858254612fbf565b60018060a01b03169081600052600a602052604060002060ff821660005260205260ff60406000205460081c166134765781600052601760205260ff60406000209116600052602052604060002061345c838254612fbf565b905560005260156020526133ea6040600020918254612fbf565b81600052601860205260ff60406000209116600052602052604060002061349e838254612fbf565b905560005260166020526133ea6040600020918254612fbf565b91825460ff81166135ca576001600160a81b031916600883901b610100600160a81b03161760011783554260108401556001600160a01b03169081151590816135b6575b508061359e575b61350b575050565b600182810180546001600160a01b0319908116841790915560009283526009602052604090922001546002830180546001600160a01b039092169190921681179091558061357a575060036000915b0180546001600160a01b0319166001600160a01b03909216919091179055565b6000908152600960205260409020600101546001600160a01b03169060039061355a565b5080600052600960205260ff60406000205416613503565b6001600160a01b03168214159050386134fc565b50505050565b805468010000000000000000811015612e7a576135f2916001820181556132d0565b81546001600160a01b0393841660039290921b91821b9390911b1916919091179055565b9190916136308160ff16600052600c602052604060002090565b54156139f4575b61364e8160ff16600052600c602052604060002090565b5492839161365b83612fb1565b6136728260ff16600052600c602052604060002090565b55600183036139e4576000905b6136888461466e565b6137058160056136b8886136a98760ff16600052600b602052604060002090565b90600052602052604060002090565b88815560018101805460ff60a01b60a089901b166001600160a81b03199091166001600160a01b038b1617179055866002820155019061ff00825491151560081b169061ff001916179055565b82600361373a846137288860018060a01b0316600052600a602052604060002090565b9060ff16600052602052604060002090565b87600282015501556137598260ff166000526011602052604060002090565b6137638154612fb1565b905561377c8260ff166000526011602052604060002090565b546137948360ff166000526008602052604060002090565b556137d86137d46137cd866137b68660ff16600052601a602052604060002090565b9060018060a01b0316600052602052604060002090565b5460ff1690565b1590565b613994575b82613834575b8161381c60ff926138147fd8a08c0c1f4b5e930e1da0bd0b50635c1f9de780c217ce3fa2a17686579146c89561438b565b878388614434565b60405193845216926001600160a01b031691602090a4565b61384f836136a98460ff16600052600b602052604060002090565b6003810180546138c85760ff928760046138bb876137286138a160017fd8a08c0c1f4b5e930e1da0bd0b50635c1f9de780c217ce3fa2a17686579146c89b998761381c9a55015460018060a01b031690565b6001600160a01b03166000908152600a6020526040902090565b01555b92505091506137e3565b5094506004850180541560001461395757613924600189978861392a94556138fa60058201600160ff19825416179055565b01876005613915876137286138a1865460018060a01b031690565b0155546001600160a01b031690565b8361425c565b7fd8a08c0c1f4b5e930e1da0bd0b50635c1f9de780c217ce3fa2a17686579146c89161381c60ff926138be565b60405162461bcd60e51b815260206004820152601560248201527414185c995b9d08185b1c9958591e4818db1bdcd959605a1b6044820152606490fd5b6139bf6139b2856137b68560ff16600052601a602052604060002090565b805460ff19166001179055565b6139df846139da8460ff166000526019602052604060002090565b6135d0565b6137dd565b6139ee8360011c90565b9061367f565b613a14613a0e8260ff16600052600c602052604060002090565b60019055565b613637565b6001600160a01b03166000818152601b6020908152604080832060ff861680855290835281842085855260098452828520600a855283862092865291909352922081549491613a82613a7b6007613a7160648a61464a565b9401938454614602565b8097612fbf565b905560058301613a93868254612fbf565b90558415613b055760ff602092600a7ff3df9e133b197dfbba04af8b589dd996d7080575083d89b81dd8f5fc0377db5a95613acf898654612fbf565b855501613add888254612fbf565b905516948560005260108352613af96040600020918254612fbf565b905554604051908152a3565b5050505050565b60009083156135ca5760018060a01b031691828252601b6020526040822060ff821683526020526040822091838152600960205260016040822093858352600a6020526040832060ff8516845260205260408320925001613b77613a7b6007613a718454998a614626565b905560068301613a93868254612fbf565b60018060a01b031680600052601b602052604060002060ff831660005260205260406000209181600052600960205260406000209082600052600a602052604060002060ff821660005260205260406000206032600360009601613c07613c006007613bf684549586614626565b9501948554614602565b8093612fbf565b905560088401613c18828254612fbf565b90558015613c7b57613af9604060ff602095600a7ff3df9e133b197dfbba04af8b589dd996d7080575083d89b81dd8f5fc0377db5a98613c59878954612fbf565b885501613c67868254612fbf565b905516978881526010865220918254612fbf565b505050505050565b60018060a01b031680600052601b602052604060002060ff831660005260205260406000209181600052600960205260406000209082600052600a602052604060002060ff821660005260205260406000206004600a9501613cef613a7b6007613a718454998a6145d2565b905560098301613a93868254612fbf565b9060ff169060018211156131365760015b60ff8116838110156135ca5760ff91600191828060a01b03851680600052600a602052604080600020600090848252602052208054868160081c16613d5c575b505050500116613d11565b61ff00191681556009810180549182613e3c575b5050508060005260186020526040806000206000908482526020522054613dc0575b7fb0f7d96751587de2fbb05ae8bb25971ba7cd777de717eb3698b701d6c7739654600080a338808080613d51565b60008181526018602090815260408083208584528252808320805490849055848452601783528184208685529092529091208054613dff908390612fbf565b90558160005260166020526040600020613e1a828254612e50565b9055816000526015602052613e356040600020918254612fbf565b9055613d92565b60006008925501613e4e828254612fbf565b9055816000526009602052600f604060002001613e6c828254612e50565b9055816000526009602052613e8a600e604060002001918254612fbf565b9055388080613d70565b9092916001600160a01b0382169182158015613f3a575b613f195760ff82613efe60647fc0dc322d34d7e6a06259be3bac607c8ba2eb3200163a637ad7f20a70ebc11d7b95604095886000526009602052600d8760002001613ef78b8254612fbf565b9055613b0c565b82519586526064602087015216946001600160a01b031693a4565b50905060ff91925016600052600e6020526133ea6040600020918254612fbf565b5082600052600960205260ff6040600020541615613eab565b9092916001600160a01b0382169160009083158015613ff3575b613fd4578282613fb860327f76a46dbe9b38553ba3f9366dde5dfab2ae45ae902483379a3f0cb6eb5b74d4229660ff9589604098526009602052600d88862001613ef78c8254612fbf565b5082519586526032602087015216946001600160a01b031693a4565b50906133ea9394506040925060ff168152600e60205220918254612fbf565b50838252600960205260ff60408320541615613f6d565b9092916001600160a01b038216916000908315801561408b575b613fd457828261406f60197fb81fbcd4b084ae8778037d60e56c538cebacb837e72623e7b204170addc1e24b9660ff9589604098526009602052600d88862001613ef78c8254612fbf565b5082519586526019602087015216946001600160a01b031693a4565b50838252600960205260ff60408320541615614024565b60001981146106f75760010190565b9092916001600160a01b0382169182158015614132575b6141115760ff82613efe60647fc0dc322d34d7e6a06259be3bac607c8ba2eb3200163a637ad7f20a70ebc11d7b9560409588600052601460205286600020613ef78b8254612fbf565b50905060ff91925016600052600f6020526133ea6040600020918254612fbf565b5082600052600960205260ff60406000205416156140c8565b9092916001600160a01b03821691600090831580156141cc575b6141ad578282613fb860327f76a46dbe9b38553ba3f9366dde5dfab2ae45ae902483379a3f0cb6eb5b74d4229660ff9589604098526014602052878520613ef78c8254612fbf565b50906133ea9394506040925060ff168152600f60205220918254612fbf565b50838252600960205260ff60408320541615614165565b9092916001600160a01b0382169160009083158015614245575b6141ad57828261406f60197fb81fbcd4b084ae8778037d60e56c538cebacb837e72623e7b204170addc1e24b9660ff9589604098526014602052878520613ef78c8254612fbf565b50838252600960205260ff604083205416156141fd565b6001600160a01b0382166000908152600a6020526040902061427f908290613728565b61428d6137d4825460ff1690565b6131ea576006019161429f8354612fb1565b83556001600160a01b0381166000908152600960205260409020600c016142c68154612fb1565b90556001600160a01b0381166000908152600960205260409020600b016142ed8154612fb1565b90556142f98282613b88565b6143038282613c83565b61430d8183613616565b92546040805191825260208201949094526132899360ff8416916001600160a01b03841691839183917fbde1dd97b8c6b9fb71194209f50387cccf9ec5cc5c0e9aa18b13c93cf78ce6e891a3604051600181527fc216fcbbb04c29351601c08c37331f5699a51282f48da79353b90ab10ff8948790602090a361468f565b60ff1680600052600d60205260406000205490811561442b575b905b81600052600c602052604060002054811080614404575b156143d1576143cc906140a2565b6143a7565b81600052600c60205260406000205481106000146143fb57905b600052600d602052604060002055565b506000906143eb565b5081600052600b60205260406000208160005260205260ff600560406000200154166143be565b600191506143a5565b92156131ea5760ff81169182600052600e6020526040600020546101f48102908082046101f414901517156106f75761271090049183600052600f6020526040600020546101f48102908082046101f414901517156106f757846127108492049480614548575b505050826144aa575050505050565b7f57cca56d6aea4f955145b97472f1141f1bb79a9d1bf59ea9dd3ad72466ad54ae916144f48460609387600052600f60205260406000206144ec838254612e50565b905588613403565b60018060a01b03600454169560018060a01b03169384600052600a60205260406000208660005260205260ff60406000205460081c1690604051928352602083015215156040820152a43880808080613b05565b81600052600e6020526040600020614561828254612e50565b905561456e81858a61338a565b6001600160a01b0388166000818152600a6020908152604080832086845282529182902054825194855260081c60ff1615159084015290917ff349ec77f93fc0622775ad3b5561a9ba55f1a991e72df46ed77bc72c724025b89190a481843861449b565b6101f48110156145fb576101f403906101f482116106f757818111156145f6575090565b905090565b5050600090565b6113888110156145fb57611388039061138882116106f757818111156145f6575090565b6107d08110156145fb576107d003906107d082116106f757818111156145f6575090565b6103e88110156145fb576103e803906103e882116106f757818111156145f6575090565b6007811015908161467d575090565b9050600181018082116106f757161590565b6001600160a01b03166000818152600a6020908152604080832060ff95909516808452949091529020601183108061474d575b8061471a575b8061470b575b6146d757505050565b805461ff0019166101001790557f9eedad69e1da086c8d70014edef61addc1d62bfdf25b1dcd3484ad720b970762600080a3565b5060ff815460081c16156146ce565b5081600052600a60205260406000206001840160ff81116106f75760ff1660005260205260ff60406000205416156146c8565b506002600682015410156146c256fea2646970667358221220ad1d4d407a9e118d0cdc9f1241ba884597aadd53e5d7ea303e1e8333894478bd64736f6c63430008230033","opcodes":"PUSH1 0x80 CALLVALUE PUSH2 0x6D2 JUMPI PUSH1 0x1F PUSH2 0x4E94 CODESIZE DUP2 SWAP1 SUB SWAP2 DUP3 ADD PUSH1 0x1F NOT AND DUP4 ADD SWAP2 PUSH1 0x1 PUSH1 0x1 PUSH1 0x40 SHL SUB DUP4 GT DUP5 DUP5 LT OR PUSH2 0x6D7 JUMPI DUP1 DUP5 SWAP3 PUSH1 0x80 SWAP5 PUSH1 0x40 MSTORE DUP4 CODECOPY DUP2 ADD SUB SLT PUSH2 0x6D2 JUMPI PUSH2 0x47 DUP2 PUSH2 0x6ED JUMP JUMPDEST PUSH2 0x53 PUSH1 0x20 DUP4 ADD PUSH2 0x6ED JUMP JUMPDEST SWAP2 PUSH2 0x6C PUSH1 0x60 PUSH2 0x65 PUSH1 0x40 DUP5 ADD PUSH2 0x6ED JUMP JUMPDEST SWAP3 ADD PUSH2 0x6ED JUMP JUMPDEST PUSH1 0x1 PUSH1 0x1C SSTORE PUSH1 0x1 PUSH1 0x1 PUSH1 0xA0 SHL SUB SWAP1 SWAP3 AND SWAP3 DUP4 ISZERO PUSH2 0x6C1 JUMPI PUSH1 0x1 PUSH1 0x1 PUSH1 0xA0 SHL SUB AND SWAP1 DUP2 ISZERO PUSH2 0x6C1 JUMPI PUSH1 0x1 PUSH1 0x1 PUSH1 0xA0 SHL SUB AND SWAP2 DUP3 ISZERO PUSH2 0x6C1 JUMPI PUSH1 0x1 PUSH1 0x1 PUSH1 0xA0 SHL SUB AND SWAP3 DUP4 ISZERO PUSH2 0x6C1 JUMPI PUSH1 0x0 DUP1 SLOAD PUSH1 0x1 PUSH1 0x1 PUSH1 0xA0 SHL SUB NOT SWAP1 DUP2 AND CALLER OR DUP3 SSTORE PUSH1 0x1 DUP1 SLOAD DUP3 AND SWAP4 SWAP1 SWAP4 OR SWAP1 SWAP3 SSTORE PUSH1 0x2 DUP1 SLOAD DUP4 AND SWAP4 SWAP1 SWAP4 OR SWAP1 SWAP3 SSTORE PUSH1 0x3 DUP1 SLOAD DUP3 AND SWAP4 SWAP1 SWAP4 OR DUP4 SSTORE PUSH1 0x4 DUP1 SLOAD SWAP1 SWAP2 AND SWAP4 SWAP1 SWAP4 OR SWAP1 SWAP3 SSTORE PUSH7 0xB1A2BC2EC50000 PUSH32 0x1471EB6EB2C5E789FC3DE43F8CE62938C7D1836EC861730447E2ADA8FD81017B SSTORE PUSH7 0xF8B0A10E470000 PUSH32 0x89832631FB3C3307A103BA2C84AB569C64D6182A18893DCD163F0F1C2090733A SSTORE PUSH8 0x16345785D8A0000 PUSH32 0xA9BC9A3A348C357BA16B37005D7E6B3236198C0E939F4AF8C5F19B8DEEB8EBC0 SSTORE PUSH8 0x1F161421C8E0000 PUSH32 0x3EEC716F11BA9E820C81CA75EB978FFB45831EF8B7A53E5E422C26008E1CA6D5 SSTORE PUSH8 0x2C68AF0BB140000 PUSH32 0x458B30C2D72BFD2C6317304A4594ECBAFE5F729D3111B65FDC3A33BD48E5432D SSTORE PUSH8 0x3E2C284391C0000 PUSH32 0x69400F22B28C6C362558D92F66163CEC5671CBA50B61ABD2EECFCD0EAEAC518 SSTORE PUSH8 0x58D15E176280000 PUSH32 0xEDDB6698D7C569FF62FF64F1F1492BF14A54594835BA0FAAC91F84B4F5D81460 SSTORE PUSH8 0x7A1FE1602770000 PUSH32 0xFB33122AA9F93CC639EBE80A7BC4784C11E6053DDE89C6F4F7E268C6A623DA1E SSTORE PUSH8 0xB1A2BC2EC500000 PUSH32 0xC0A4A8BE475DFEBC377EBEF2D7C4FF47656F572A08DD92B81017EFCDBA0FEBE1 SSTORE PUSH8 0xF43FC2C04EE0000 PUSH32 0xA18B128AF1C8FC61FF46F02D146E54546F34D340574CF2CEF6A753CBA6B6701D SSTORE PUSH8 0x16345785D8A00000 PUSH32 0x40F28F99A40BC9F6BEEA1013AFDBC3CDCC689EB76B82C4DE06C0ACF1E1932ED5 SSTORE PUSH8 0x1E87F85809DC0000 PUSH32 0xF907E7E6656FA73566B18C1215272FE9FCA2C55C552E62C923E21E000AC4B4E6 SSTORE PUSH8 0x2C68AF0BB1400000 PUSH32 0x3145C75015E7A856ECD94C41432EF3CB669D6360AF23433588937FEFDFAC825 SSTORE PUSH8 0x3D0FF0B013B80000 PUSH32 0x783638979E3582B3FFD6D53FC06C949AC31D1AC75A5E2C3531FBE1F91045EB53 SSTORE PUSH8 0x5A34A38FC00A0000 PUSH32 0x58F00E8ECC6F5419941DD0BAFEC65A4CC188D31713FB1FE224257460930DF8AF SSTORE PUSH8 0x6F05B59D3B200000 PUSH32 0x8B32256DB898364C465749DECAC34AEE435952FFE1739257AA5B0235E266D9C5 SSTORE PUSH8 0xA688906BD8B00000 PUSH32 0xB4E18992AD424CDEDC46668609F2BAFCF665A8D99577618D5923C69264D9CF5F SSTORE PUSH1 0x6 PUSH1 0x20 MSTORE PUSH2 0xC350 PUSH32 0x3E5FEC24AA4DC4E5AEE2E025E51E1392C72A2500577559FAE9665C6D52BD6A31 SSTORE PUSH3 0x11170 PUSH32 0x8819EF417987F8AE7A81F42CDFB18815282FE989326FBFF903D13CF0E03ACE29 SSTORE PUSH3 0x186A0 PUSH32 0x75F96AB15D697E93042DC45B5C896C4B27E89BB6EAF39475C5C371CB2513F7D2 SSTORE PUSH3 0x222E0 PUSH32 0xC5069E24AAADB2ADDC3E52E868FCF3F4F8ACF5A87E24300992FD4540C2A87EED SSTORE PUSH3 0x30D40 PUSH32 0xBFD358E93F18DA3ED276C3AFDBDBA00B8F0B6008A03476A6A86BD6320EE6938B SSTORE PUSH3 0x445C0 PUSH32 0x697B2BD7BB2984C4E0DC14C79C987D37818484A62958B9C45A0E8B962F20650F SSTORE PUSH3 0x61A80 PUSH32 0x4CED6D0D36392B04CC5D8761B1327B3BBBA6E1089C77F60A9A9CA18E05E4F00E SSTORE PUSH3 0x86470 PUSH32 0xB8D683C9D414F481826F3E7FE14B3AC6AE8C73450778287390C4BB8CB9F2E80B SSTORE PUSH3 0xC3500 PUSH32 0xCA4D0C6C94A9477136DD41A99CC19ECBE441C8F6609EFE7C6FA65BE007A47323 SSTORE PUSH3 0x10C8E0 PUSH32 0x4DA38FC8E544AFC56A4C2A17752B8DDB67D8E23AC4583C9029D2E2D1DBE6C988 SSTORE PUSH3 0x186A00 PUSH32 0x85291C2E7881182C13E19ECA9B58927EBFDC2C5D04882018EEB33D8241D35711 SSTORE PUSH3 0x2191C0 PUSH32 0xB94FA1B86997CC1F1148BFBE25B674E8CEFC7CC6F976AA8D7C7966BD4CCA347 SSTORE PUSH3 0x30D400 PUSH32 0x248457BACB20E239AE314D8DB91C0F270E453C28EE138C84F97AEA6CFCF9A499 SSTORE PUSH3 0x432380 PUSH32 0xACA6CDB4B5FE0EC50731A73F714DD191DC1911BFEB3F9EEB9E94ED0F6065EF8D SSTORE PUSH3 0x632EA0 PUSH32 0xF130046D53BC87538AB17E4752BA5F5082985EECC06CCB932C5A55E8242DD502 SSTORE PUSH3 0x7A1200 PUSH32 0x6FAC4587033FA036E2426AD0134940D3A683633CC2B2B7862F39195344F163D1 SSTORE PUSH1 0x11 SWAP1 SWAP2 MSTORE PUSH3 0xB71B00 PUSH32 0x84A4048EE77615560F9AFB39551A46E123DD0DD6C928AF241DC565271D032569 SSTORE JUMPDEST PUSH1 0xFF DUP2 AND SWAP1 PUSH1 0x11 DUP3 GT PUSH2 0x6B2 JUMPI PUSH1 0xFF SWAP2 PUSH1 0x0 MSTORE PUSH1 0x7 PUSH1 0x20 MSTORE PUSH1 0x40 PUSH1 0x0 KECCAK256 PUSH1 0x1 DUP4 NOT DUP3 SLOAD AND OR SWAP1 SSTORE AND PUSH1 0xFF DUP2 EQ PUSH2 0x69C JUMPI PUSH1 0x1 ADD PUSH2 0x664 JUMP JUMPDEST PUSH4 0x4E487B71 PUSH1 0xE0 SHL PUSH1 0x0 MSTORE PUSH1 0x11 PUSH1 0x4 MSTORE PUSH1 0x24 PUSH1 0x0 REVERT JUMPDEST PUSH1 0x40 MLOAD PUSH2 0x4792 SWAP1 DUP2 PUSH2 0x702 DUP3 CODECOPY RETURN JUMPDEST PUSH4 0xD92E233D PUSH1 0xE0 SHL PUSH1 0x0 MSTORE PUSH1 0x4 PUSH1 0x0 REVERT JUMPDEST PUSH1 0x0 DUP1 REVERT JUMPDEST PUSH4 0x4E487B71 PUSH1 0xE0 SHL PUSH1 0x0 MSTORE PUSH1 0x41 PUSH1 0x4 MSTORE PUSH1 0x24 PUSH1 0x0 REVERT JUMPDEST MLOAD SWAP1 PUSH1 0x1 PUSH1 0x1 PUSH1 0xA0 SHL SUB DUP3 AND DUP3 SUB PUSH2 0x6D2 JUMPI JUMP INVALID PUSH2 0x100 PUSH1 0x40 MSTORE PUSH1 0x4 CALLDATASIZE LT ISZERO PUSH2 0x53 JUMPI JUMPDEST CALLDATASIZE ISZERO PUSH2 0x1A JUMPI PUSH1 0x0 DUP1 REVERT JUMPDEST PUSH1 0x40 MLOAD PUSH3 0x461BCD PUSH1 0xE5 SHL DUP2 MSTORE PUSH1 0x20 PUSH1 0x4 DUP3 ADD MSTORE PUSH1 0x11 PUSH1 0x24 DUP3 ADD MSTORE PUSH17 0x155CD9481858DD1A5D985D1953195D995B PUSH1 0x7A SHL PUSH1 0x44 DUP3 ADD MSTORE PUSH1 0x64 SWAP1 REVERT JUMPDEST PUSH1 0x0 CALLDATALOAD PUSH1 0xE0 SHR DUP1 PUSH4 0x3A65DFA EQ PUSH2 0x2C08 JUMPI DUP1 PUSH4 0x4EB2734 EQ PUSH2 0x2BD4 JUMPI DUP1 PUSH4 0xE475EFD EQ PUSH2 0x2B62 JUMPI DUP1 PUSH4 0x11EAC855 EQ PUSH2 0x2B39 JUMPI DUP1 PUSH4 0x19A08594 EQ PUSH2 0x2B1B JUMPI DUP1 PUSH4 0x1A1478C3 EQ PUSH2 0x106D JUMPI DUP1 PUSH4 0x1D6A884B EQ PUSH2 0x2AFF JUMPI DUP1 PUSH4 0x1E375AB9 EQ PUSH2 0x2A3A JUMPI DUP1 PUSH4 0x22FBFE80 EQ PUSH2 0x29AD JUMPI DUP1 PUSH4 0x249D39E9 EQ PUSH2 0x2990 JUMPI DUP1 PUSH4 0x24BDC3A7 EQ PUSH2 0x403 JUMPI DUP1 PUSH4 0x26728174 EQ PUSH2 0x14B0 JUMPI DUP1 PUSH4 0x26E0CFE7 EQ PUSH2 0x2903 JUMPI DUP1 PUSH4 0x2E50D906 EQ PUSH2 0x28CF JUMPI DUP1 PUSH4 0x2F5CED04 EQ PUSH2 0x431 JUMPI DUP1 PUSH4 0x306BF6BB EQ PUSH2 0x27D4 JUMPI DUP1 PUSH4 0x308C6109 EQ PUSH2 0x27B7 JUMPI DUP1 PUSH4 0x31B161A7 EQ PUSH2 0x3A8 JUMPI DUP1 PUSH4 0x333FEDAD EQ PUSH2 0x14B0 JUMPI DUP1 PUSH4 0x3D5EFBAE EQ PUSH2 0x26D5 JUMPI DUP1 PUSH4 0x3F896DD9 EQ PUSH2 0x2564 JUMPI DUP1 PUSH4 0x40261FBB EQ PUSH2 0x23D0 JUMPI DUP1 PUSH4 0x4626402B EQ PUSH2 0x23A7 JUMPI DUP1 PUSH4 0x48D46BE1 EQ PUSH2 0x2117 JUMPI DUP1 PUSH4 0x4A57C6D9 EQ PUSH2 0x1F74 JUMPI DUP1 PUSH4 0x4CA3696C EQ PUSH2 0x1EE2 JUMPI DUP1 PUSH4 0x4D69A4CD EQ PUSH2 0x1EC6 JUMPI DUP1 PUSH4 0x5042A91F EQ PUSH2 0x1EA9 JUMPI DUP1 PUSH4 0x50DA23DC EQ PUSH2 0x403 JUMPI DUP1 PUSH4 0x52EBB227 EQ PUSH2 0x1E70 JUMPI DUP1 PUSH4 0x52F5C84E EQ PUSH2 0x1E3C JUMPI DUP1 PUSH4 0x5C12CD4B EQ PUSH2 0x1B9D JUMPI DUP1 PUSH4 0x5C602D9E EQ PUSH2 0x1AD7 JUMPI DUP1 PUSH4 0x5D886F22 EQ PUSH2 0x1A1B JUMPI DUP1 PUSH4 0x6B09F539 EQ PUSH2 0x19E1 JUMPI DUP1 PUSH4 0x72D686BF EQ PUSH2 0x19C4 JUMPI DUP1 PUSH4 0x75B7D7C1 EQ PUSH2 0x1955 JUMPI DUP1 PUSH4 0x75CB1BD1 EQ PUSH2 0x17A0 JUMPI DUP1 PUSH4 0x7A7C7A6A EQ PUSH2 0x16CB JUMPI DUP1 PUSH4 0x7DCDA2D4 EQ PUSH2 0x1697 JUMPI DUP1 PUSH4 0x7F3255A8 EQ PUSH2 0x167A JUMPI DUP1 PUSH4 0x852F8299 EQ PUSH2 0x165D JUMPI DUP1 PUSH4 0x86B8F4A1 EQ PUSH2 0x1623 JUMPI DUP1 PUSH4 0x8C5B8EA5 EQ PUSH2 0x15EF JUMPI DUP1 PUSH4 0x8D2724F9 EQ PUSH2 0x15BB JUMPI DUP1 PUSH4 0x8DA5CB5B EQ PUSH2 0x1592 JUMPI DUP1 PUSH4 0x8EB657C4 EQ PUSH2 0x14B5 JUMPI DUP1 PUSH4 0x90F7C71A EQ PUSH2 0x14B0 JUMPI DUP1 PUSH4 0x94CECFF8 EQ PUSH2 0x1411 JUMPI DUP1 PUSH4 0x9B3728E8 EQ PUSH2 0x3A8 JUMPI DUP1 PUSH4 0x9FEF6862 EQ PUSH2 0x13F5 JUMPI DUP1 PUSH4 0xA0978AC2 EQ PUSH2 0x1348 JUMPI DUP1 PUSH4 0xB75B688B EQ PUSH2 0x12C7 JUMPI DUP1 PUSH4 0xB9AEE263 EQ PUSH2 0x1267 JUMPI DUP1 PUSH4 0xBEA99035 EQ PUSH2 0x1216 JUMPI DUP1 PUSH4 0xBEB08AB9 EQ PUSH2 0x11ED JUMPI DUP1 PUSH4 0xC05DB4CE EQ PUSH2 0x11B9 JUMPI DUP1 PUSH4 0xC7FCB8C3 EQ PUSH2 0x117F JUMPI DUP1 PUSH4 0xC864CE56 EQ PUSH2 0x1072 JUMPI DUP1 PUSH4 0xC8F17CE3 EQ PUSH2 0x106D JUMPI DUP1 PUSH4 0xCE9FFFAA EQ PUSH2 0x1039 JUMPI DUP1 PUSH4 0xD2A16080 EQ PUSH2 0xFE6 JUMPI DUP1 PUSH4 0xDBBA0540 EQ PUSH2 0xFB2 JUMPI DUP1 PUSH4 0xE26F7C46 EQ PUSH2 0xF94 JUMPI DUP1 PUSH4 0xE2EB41FF EQ PUSH2 0xE28 JUMPI DUP1 PUSH4 0xE69D2CA7 EQ PUSH2 0xA95 JUMPI DUP1 PUSH4 0xE8A8BD5C EQ PUSH2 0xA61 JUMPI DUP1 PUSH4 0xED270C16 EQ PUSH2 0x9AB JUMPI DUP1 PUSH4 0xEDFAE883 EQ PUSH2 0x8B4 JUMPI DUP1 PUSH4 0xF178FB1B EQ PUSH2 0x898 JUMPI DUP1 PUSH4 0xF2FDE38B EQ PUSH2 0x7E8 JUMPI DUP1 PUSH4 0xF4F5058D EQ PUSH2 0x436 JUMPI DUP1 PUSH4 0xF6D5F69A EQ PUSH2 0x431 JUMPI DUP1 PUSH4 0xF90EF4AC EQ PUSH2 0x408 JUMPI DUP1 PUSH4 0xF9335139 EQ PUSH2 0x403 JUMPI DUP1 PUSH4 0xF935C2D6 EQ PUSH2 0x3AD JUMPI PUSH4 0xF943CBC6 SUB PUSH2 0xF JUMPI JUMPDEST PUSH2 0x2D33 JUMP JUMPDEST CALLVALUE PUSH2 0x3FE JUMPI PUSH1 0x40 CALLDATASIZE PUSH1 0x3 NOT ADD SLT PUSH2 0x3FE JUMPI PUSH2 0x3C6 PUSH2 0x2C75 JUMP JUMPDEST PUSH2 0x3CE PUSH2 0x2CA1 JUMP JUMPDEST SWAP1 PUSH1 0x1 DUP1 PUSH1 0xA0 SHL SUB AND PUSH1 0x0 MSTORE PUSH1 0x17 PUSH1 0x20 MSTORE PUSH1 0xFF PUSH1 0x40 PUSH1 0x0 KECCAK256 SWAP2 AND PUSH1 0x0 MSTORE PUSH1 0x20 MSTORE PUSH1 0x20 PUSH1 0x40 PUSH1 0x0 KECCAK256 SLOAD PUSH1 0x40 MLOAD SWAP1 DUP2 MSTORE RETURN JUMPDEST PUSH1 0x0 DUP1 REVERT JUMPDEST PUSH2 0x2CDE JUMP JUMPDEST CALLVALUE PUSH2 0x3FE JUMPI PUSH1 0x0 CALLDATASIZE PUSH1 0x3 NOT ADD SLT PUSH2 0x3FE JUMPI PUSH1 0x3 SLOAD PUSH1 0x40 MLOAD PUSH1 0x1 PUSH1 0x1 PUSH1 0xA0 SHL SUB SWAP1 SWAP2 AND DUP2 MSTORE PUSH1 0x20 SWAP1 RETURN JUMPDEST PUSH2 0x2D17 JUMP JUMPDEST CALLVALUE PUSH2 0x3FE JUMPI PUSH1 0x40 CALLDATASIZE PUSH1 0x3 NOT ADD SLT PUSH2 0x3FE JUMPI PUSH2 0x44F PUSH2 0x2CB1 JUMP JUMPDEST PUSH2 0x457 PUSH2 0x2C8B JUMP JUMPDEST PUSH2 0x465 PUSH1 0x1 PUSH1 0x1C SLOAD EQ PUSH2 0x2D50 JUMP JUMPDEST PUSH1 0x2 PUSH1 0x1C SSTORE PUSH1 0xFF DUP3 AND SWAP2 PUSH1 0x1 DUP4 LT DUP1 ISZERO PUSH2 0x7DE JUMPI JUMPDEST PUSH2 0x7C9 JUMPI DUP3 PUSH1 0x0 MSTORE PUSH1 0x7 PUSH1 0x20 MSTORE PUSH2 0x498 PUSH1 0xFF PUSH1 0x40 PUSH1 0x0 KECCAK256 SLOAD AND PUSH2 0x2EEC JUMP JUMPDEST PUSH1 0x4 SLOAD PUSH1 0x1 PUSH1 0x1 PUSH1 0xA0 SHL SUB AND SWAP2 PUSH2 0x4B0 DUP4 ISZERO ISZERO PUSH2 0x2DC6 JUMP JUMPDEST DUP4 PUSH1 0x0 MSTORE PUSH1 0x6 PUSH1 0x20 MSTORE PUSH1 0x40 PUSH1 0x0 KECCAK256 SLOAD SWAP3 DUP4 ISZERO PUSH2 0x784 JUMPI PUSH1 0x20 PUSH1 0x0 SWAP2 PUSH1 0x64 PUSH1 0x40 MLOAD DUP1 SWAP5 DUP2 SWAP4 PUSH4 0x23B872DD PUSH1 0xE0 SHL DUP4 MSTORE CALLER PUSH1 0x4 DUP5 ADD MSTORE ADDRESS PUSH1 0x24 DUP5 ADD MSTORE DUP10 PUSH1 0x44 DUP5 ADD MSTORE GAS CALL SWAP1 DUP2 ISZERO PUSH2 0x778 JUMPI PUSH1 0x0 SWAP2 PUSH2 0x749 JUMPI JUMPDEST POP ISZERO PUSH2 0x70D JUMPI PUSH2 0x512 SWAP1 CALLER DUP4 PUSH2 0x31EF JUMP JUMPDEST SWAP1 PUSH2 0x1D7E DUP4 MUL DUP4 DUP2 DIV PUSH2 0x1D7E SUB PUSH2 0x6F7 JUMPI PUSH2 0x2710 SWAP1 DIV SWAP1 PUSH2 0x3B6 DUP5 MUL DUP5 DUP2 DIV PUSH2 0x3B6 SUB PUSH2 0x6F7 JUMPI PUSH2 0x2710 SWAP1 DIV SWAP1 PUSH2 0x258 DUP6 MUL DUP6 DUP2 DIV PUSH2 0x258 SUB PUSH2 0x6F7 JUMPI PUSH2 0x2710 SWAP1 DIV SWAP2 PUSH2 0x190 DUP7 MUL SWAP4 DUP7 DUP6 DIV PUSH2 0x190 SUB PUSH2 0x6F7 JUMPI DUP8 PUSH2 0x2710 DUP2 SWAP7 DIV SWAP3 DUP4 DUP7 DUP3 PUSH2 0x57B DUP7 DUP14 PUSH2 0x2E50 JUMP JUMPDEST SWAP1 PUSH2 0x585 SWAP2 PUSH2 0x2E50 JUMP JUMPDEST SWAP1 PUSH2 0x58F SWAP2 PUSH2 0x2E50 JUMP JUMPDEST SWAP1 PUSH2 0x599 SWAP2 PUSH2 0x2E50 JUMP JUMPDEST SWAP5 CALLER PUSH1 0x0 MSTORE PUSH1 0x9 PUSH1 0x20 MSTORE DUP5 PUSH1 0x40 PUSH1 0x0 KECCAK256 SWAP2 DUP5 PUSH1 0x0 MSTORE PUSH1 0xF PUSH1 0x20 MSTORE PUSH1 0x40 PUSH1 0x0 KECCAK256 DUP7 DUP2 SLOAD SWAP1 PUSH2 0x5C5 SWAP2 PUSH2 0x2FBF JUMP JUMPDEST SWAP1 SSTORE PUSH1 0x1 DUP4 ADD SLOAD PUSH2 0x5E4 SWAP1 DUP6 SWAP1 DUP4 SWAP1 CALLER SWAP1 PUSH1 0x1 PUSH1 0x1 PUSH1 0xA0 SHL SUB AND PUSH2 0x40B1 JUMP JUMPDEST PUSH1 0x2 DUP4 ADD SLOAD PUSH2 0x601 SWAP1 DUP11 SWAP1 DUP4 SWAP1 CALLER SWAP1 PUSH1 0x1 PUSH1 0x1 PUSH1 0xA0 SHL SUB AND PUSH2 0x414B JUMP JUMPDEST PUSH1 0x3 SWAP1 SWAP3 ADD SLOAD PUSH2 0x61C SWAP3 SWAP1 CALLER SWAP1 PUSH1 0x1 PUSH1 0x1 PUSH1 0xA0 SHL SUB AND PUSH2 0x41E3 JUMP JUMPDEST DUP5 PUSH1 0x13 SLOAD SWAP1 PUSH2 0x62A SWAP2 PUSH2 0x2FBF JUMP JUMPDEST PUSH1 0x13 DUP2 SWAP1 SSTORE PUSH1 0x4 SLOAD PUSH1 0x40 DUP1 MLOAD SWAP6 DUP7 MSTORE PUSH1 0x20 DUP7 ADD SWAP4 SWAP1 SWAP4 MSTORE SWAP2 DUP5 ADD SWAP7 SWAP1 SWAP7 MSTORE PUSH1 0x60 DUP4 ADD SWAP4 SWAP1 SWAP4 MSTORE PUSH1 0x80 DUP3 ADD DUP5 SWAP1 MSTORE PUSH1 0x1 PUSH1 0x1 PUSH1 0xA0 SHL SUB SWAP1 SWAP3 AND SWAP4 SWAP2 DUP5 SWAP2 CALLER SWAP1 PUSH32 0x7A14A1BABC4A5AE45F861ABAF72C1B5410A6A47BCD895B29DB0AA9D61DB01D1C SWAP1 PUSH1 0xA0 SWAP1 LOG4 PUSH1 0x40 MLOAD SWAP2 DUP3 MSTORE PUSH1 0x20 DUP3 ADD MSTORE PUSH1 0x40 PUSH32 0x84C9AA800E59F9827A5BED559D2F7B6C5E3E446A7BA1A56D2193016565B7BAB1 SWAP2 LOG3 PUSH1 0x40 MLOAD SWAP2 DUP3 MSTORE PUSH1 0x20 DUP3 ADD MSTORE CALLER SWAP1 PUSH1 0x40 PUSH32 0xE099ACE9CC029768846F2ABE32CE8983D72474335B42431E129401C1E9C0886B SWAP2 LOG3 PUSH1 0x1 PUSH1 0x1C SSTORE STOP JUMPDEST PUSH4 0x4E487B71 PUSH1 0xE0 SHL PUSH1 0x0 MSTORE PUSH1 0x11 PUSH1 0x4 MSTORE PUSH1 0x24 PUSH1 0x0 REVERT JUMPDEST PUSH1 0x40 MLOAD PUSH3 0x461BCD PUSH1 0xE5 SHL DUP2 MSTORE PUSH1 0x20 PUSH1 0x4 DUP3 ADD MSTORE PUSH1 0x14 PUSH1 0x24 DUP3 ADD MSTORE PUSH20 0x1554D110C81D1C985B9CD9995C8819985A5B1959 PUSH1 0x62 SHL PUSH1 0x44 DUP3 ADD MSTORE PUSH1 0x64 SWAP1 REVERT JUMPDEST PUSH2 0x76B SWAP2 POP PUSH1 0x20 RETURNDATASIZE PUSH1 0x20 GT PUSH2 0x771 JUMPI JUMPDEST PUSH2 0x763 DUP2 DUP4 PUSH2 0x2ECA JUMP JUMPDEST DUP2 ADD SWAP1 PUSH2 0x3088 JUMP JUMPDEST DUP6 PUSH2 0x501 JUMP JUMPDEST POP RETURNDATASIZE PUSH2 0x759 JUMP JUMPDEST PUSH1 0x40 MLOAD RETURNDATASIZE PUSH1 0x0 DUP3 RETURNDATACOPY RETURNDATASIZE SWAP1 REVERT JUMPDEST PUSH1 0x40 MLOAD PUSH3 0x461BCD PUSH1 0xE5 SHL DUP2 MSTORE PUSH1 0x20 PUSH1 0x4 DUP3 ADD MSTORE PUSH1 0x1C PUSH1 0x24 DUP3 ADD MSTORE PUSH32 0x55534443207072696365206973206E6F7420636F6E6669677572656400000000 PUSH1 0x44 DUP3 ADD MSTORE PUSH1 0x64 SWAP1 REVERT JUMPDEST DUP3 PUSH4 0x3D98C855 PUSH1 0xE2 SHL PUSH1 0x0 MSTORE PUSH1 0x4 MSTORE PUSH1 0x24 PUSH1 0x0 REVERT JUMPDEST POP PUSH1 0x11 DUP4 GT PUSH2 0x47A JUMP JUMPDEST CALLVALUE PUSH2 0x3FE JUMPI PUSH1 0x20 CALLDATASIZE PUSH1 0x3 NOT ADD SLT PUSH2 0x3FE JUMPI PUSH2 0x801 PUSH2 0x2C75 JUMP JUMPDEST PUSH1 0x0 SLOAD SWAP1 PUSH1 0x1 PUSH1 0x1 PUSH1 0xA0 SHL SUB DUP3 AND SWAP1 PUSH2 0x81B CALLER DUP4 EQ PUSH2 0x2D8D JUMP JUMPDEST PUSH1 0x1 PUSH1 0x1 PUSH1 0xA0 SHL SUB AND SWAP2 DUP3 ISZERO PUSH2 0x862 JUMPI PUSH1 0x1 PUSH1 0x1 PUSH1 0xA0 SHL SUB NOT AND DUP3 OR PUSH1 0x0 SWAP1 DUP2 SSTORE PUSH32 0x8BE0079C531659141344CD1FD0A4F28419497F9722A3DAAFE3B4186F6B6457E0 SWAP1 DUP1 LOG3 STOP JUMPDEST PUSH1 0x40 MLOAD PUSH3 0x461BCD PUSH1 0xE5 SHL DUP2 MSTORE PUSH1 0x20 PUSH1 0x4 DUP3 ADD MSTORE PUSH1 0xE PUSH1 0x24 DUP3 ADD MSTORE PUSH14 0x13DDDB995C881C995C5D5A5C9959 PUSH1 0x92 SHL PUSH1 0x44 DUP3 ADD MSTORE PUSH1 0x64 SWAP1 REVERT JUMPDEST CALLVALUE PUSH2 0x3FE JUMPI PUSH1 0x0 CALLDATASIZE PUSH1 0x3 NOT ADD SLT PUSH2 0x3FE JUMPI PUSH1 0x20 PUSH1 0x40 MLOAD PUSH1 0xA DUP2 MSTORE RETURN JUMPDEST CALLVALUE PUSH2 0x3FE JUMPI PUSH1 0x0 CALLDATASIZE PUSH1 0x3 NOT ADD SLT PUSH2 0x3FE JUMPI PUSH2 0x8D3 PUSH1 0x1 PUSH1 0x1C SLOAD EQ PUSH2 0x2D50 JUMP JUMPDEST PUSH1 0x2 PUSH1 0x1C SSTORE CALLER PUSH1 0x0 MSTORE PUSH1 0x14 PUSH1 0x20 MSTORE PUSH1 0x40 PUSH1 0x0 KECCAK256 SLOAD DUP1 ISZERO PUSH2 0x96D JUMPI PUSH1 0x4 SLOAD PUSH2 0x904 SWAP1 PUSH1 0x1 PUSH1 0x1 PUSH1 0xA0 SHL SUB AND ISZERO ISZERO PUSH2 0x2DC6 JUMP JUMPDEST CALLER PUSH1 0x0 DUP2 DUP2 MSTORE PUSH1 0x14 PUSH1 0x20 MSTORE PUSH1 0x40 DUP2 KECCAK256 SSTORE PUSH1 0x4 SLOAD PUSH2 0x92B SWAP2 DUP4 SWAP2 PUSH1 0x1 PUSH1 0x1 PUSH1 0xA0 SHL SUB AND PUSH2 0x313A JUMP JUMPDEST PUSH1 0x4 SLOAD PUSH1 0x40 MLOAD SWAP2 DUP3 MSTORE PUSH1 0x1 PUSH1 0x1 PUSH1 0xA0 SHL SUB AND SWAP1 CALLER SWAP1 PUSH32 0x6212D3B8329F12CD207169548D7570DE1A41C72473A7313C176C13641C39AAB7 SWAP1 PUSH1 0x20 SWAP1 LOG3 PUSH1 0x1 PUSH1 0x1C SSTORE STOP JUMPDEST PUSH1 0x40 MLOAD PUSH3 0x461BCD PUSH1 0xE5 SHL DUP2 MSTORE PUSH1 0x20 PUSH1 0x4 DUP3 ADD MSTORE PUSH1 0x16 PUSH1 0x24 DUP3 ADD MSTORE PUSH22 0x4E6F205553444320726566657272616C20626F6E7573 PUSH1 0x50 SHL PUSH1 0x44 DUP3 ADD MSTORE PUSH1 0x64 SWAP1 REVERT JUMPDEST CALLVALUE PUSH2 0x3FE JUMPI PUSH1 0x40 CALLDATASIZE PUSH1 0x3 NOT ADD SLT PUSH2 0x3FE JUMPI PUSH2 0x9C4 PUSH2 0x2CB1 JUMP JUMPDEST PUSH1 0x24 CALLDATALOAD SWAP1 DUP2 ISZERO ISZERO DUP1 SWAP3 SUB PUSH2 0x3FE JUMPI PUSH1 0xFF SWAP1 PUSH2 0x9EA PUSH1 0x1 DUP1 PUSH1 0xA0 SHL SUB PUSH1 0x0 SLOAD AND CALLER EQ PUSH2 0x2D8D JUMP JUMPDEST AND SWAP1 PUSH1 0x1 DUP3 LT DUP1 ISZERO PUSH2 0xA57 JUMPI JUMPDEST PUSH2 0xA42 JUMPI PUSH1 0x20 PUSH32 0xDD552374405792741CB7E6993CA7E6DD5400B9E45E80CA256AC09DB4009C8937 SWAP2 DUP4 PUSH1 0x0 MSTORE PUSH1 0x7 DUP3 MSTORE PUSH1 0x40 PUSH1 0x0 KECCAK256 PUSH1 0xFF NOT DUP2 SLOAD AND PUSH1 0xFF DUP4 AND OR SWAP1 SSTORE PUSH1 0x40 MLOAD SWAP1 DUP2 MSTORE LOG2 STOP JUMPDEST POP PUSH4 0x3D98C855 PUSH1 0xE2 SHL PUSH1 0x0 MSTORE PUSH1 0x4 MSTORE PUSH1 0x24 PUSH1 0x0 REVERT JUMPDEST POP PUSH1 0x11 DUP3 GT PUSH2 0x9F7 JUMP JUMPDEST CALLVALUE PUSH2 0x3FE JUMPI PUSH1 0x20 CALLDATASIZE PUSH1 0x3 NOT ADD SLT PUSH2 0x3FE JUMPI PUSH1 0xFF PUSH2 0xA7C PUSH2 0x2CB1 JUMP JUMPDEST AND PUSH1 0x0 MSTORE PUSH1 0xF PUSH1 0x20 MSTORE PUSH1 0x20 PUSH1 0x40 PUSH1 0x0 KECCAK256 SLOAD PUSH1 0x40 MLOAD SWAP1 DUP2 MSTORE RETURN JUMPDEST CALLVALUE PUSH2 0x3FE JUMPI PUSH1 0x20 CALLDATASIZE PUSH1 0x3 NOT ADD SLT PUSH2 0x3FE JUMPI PUSH2 0xAAE PUSH2 0x2CB1 JUMP JUMPDEST PUSH2 0xAC3 PUSH1 0x1 DUP1 PUSH1 0xA0 SHL SUB PUSH1 0x0 SLOAD AND CALLER EQ PUSH2 0x2D8D JUMP JUMPDEST PUSH2 0xAD1 PUSH1 0x1 PUSH1 0x1C SLOAD EQ PUSH2 0x2D50 JUMP JUMPDEST PUSH1 0x2 PUSH1 0x1C SSTORE PUSH1 0xFF DUP2 AND PUSH1 0x1 DUP2 LT DUP1 ISZERO PUSH2 0xE1E JUMPI JUMPDEST PUSH2 0xE0A JUMPI DUP1 PUSH1 0x0 MSTORE PUSH1 0x10 PUSH1 0x20 MSTORE PUSH1 0x40 PUSH1 0x0 KECCAK256 SLOAD SWAP1 DUP2 ISZERO PUSH2 0xDD9 JUMPI DUP1 PUSH1 0x0 MSTORE PUSH1 0xE PUSH1 0x20 MSTORE PUSH1 0x40 PUSH1 0x0 KECCAK256 SLOAD PUSH2 0x3E8 DUP2 MUL SWAP1 DUP1 DUP3 DIV PUSH2 0x3E8 EQ SWAP1 ISZERO OR ISZERO PUSH2 0x6F7 JUMPI PUSH2 0x2710 SWAP1 DIV SWAP2 DUP2 PUSH1 0x0 MSTORE PUSH1 0xF PUSH1 0x20 MSTORE PUSH1 0x40 PUSH1 0x0 KECCAK256 SLOAD PUSH2 0x3E8 DUP2 MUL SWAP1 DUP1 DUP3 DIV PUSH2 0x3E8 EQ SWAP1 ISZERO OR ISZERO PUSH2 0x6F7 JUMPI PUSH2 0x2710 SWAP1 DIV SWAP3 DUP1 ISZERO SWAP5 DUP6 ISZERO DUP1 SWAP7 PUSH2 0xDD0 JUMPI JUMPDEST ISZERO PUSH2 0xD9A JUMPI DUP4 PUSH1 0x0 MSTORE PUSH1 0xE PUSH1 0x20 MSTORE PUSH1 0x40 PUSH1 0x0 KECCAK256 SLOAD PUSH1 0x40 MLOAD PUSH1 0x20 DUP2 ADD SWAP2 PREVRANDAO DUP4 MSTORE TIMESTAMP PUSH1 0x40 DUP4 ADD MSTORE NUMBER PUSH1 0x60 DUP4 ADD MSTORE PUSH1 0xFF PUSH1 0xF8 SHL DUP5 PUSH1 0xF8 SHL AND PUSH1 0x80 DUP4 ADD MSTORE DUP6 PUSH1 0x81 DUP4 ADD MSTORE PUSH1 0xA1 DUP3 ADD MSTORE PUSH1 0xA1 DUP2 MSTORE PUSH2 0xBB3 PUSH1 0xC1 DUP3 PUSH2 0x2ECA JUMP JUMPDEST MLOAD SWAP1 KECCAK256 SWAP6 PUSH1 0x0 SWAP7 DUP5 DUP2 MOD PUSH1 0x1 DUP2 ADD DUP1 SWAP2 GT PUSH2 0xD86 JUMPI PUSH2 0xBD2 SWAP1 DUP5 PUSH2 0x32FE JUMP JUMPDEST PUSH1 0x1 PUSH1 0x1 PUSH1 0xA0 SHL SUB DUP2 AND SWAP6 SWAP1 SWAP5 SWAP1 DUP7 ISZERO PUSH2 0xD4E JUMPI PUSH32 0x7EF17EBC298CC940DD307A6CDE5F8230F0EF2AEE27DCA2D95320D0E88B042716 PUSH1 0x40 PUSH32 0xD5E2C127C46EB00D0B5F0C368B3C217878CB46F88B4A6975E501B154542C5C8D SWAP5 DUP11 SWAP8 SWAP4 DUP14 DUP14 DUP7 DUP13 DUP10 DUP16 SWAP13 SWAP10 DUP15 SWAP11 PUSH2 0xD25 JUMPI JUMPDEST POP POP POP DUP2 ISZERO ISZERO SWAP13 DUP14 PUSH2 0xCFC JUMPI JUMPDEST POP POP POP POP DUP3 MLOAD SWAP2 DUP3 MSTORE PUSH1 0x20 DUP3 ADD MSTORE LOG2 DUP3 DUP10 MSTORE PUSH1 0xA PUSH1 0x20 SWAP1 DUP2 MSTORE PUSH1 0x40 DUP1 DUP12 KECCAK256 DUP7 DUP13 MSTORE DUP3 MSTORE DUP1 DUP12 KECCAK256 SLOAD DUP2 MLOAD SWAP4 DUP5 MSTORE PUSH1 0x8 SHR PUSH1 0xFF AND ISZERO ISZERO SWAP2 DUP4 ADD SWAP2 SWAP1 SWAP2 MSTORE SWAP1 LOG3 PUSH2 0xC95 JUMPI JUMPDEST DUP4 PUSH1 0x1 PUSH1 0x1C SSTORE DUP1 RETURN JUMPDEST PUSH1 0x4 SLOAD DUP2 DUP6 MSTORE PUSH1 0xA PUSH1 0x20 SWAP1 DUP2 MSTORE PUSH1 0x40 DUP1 DUP8 KECCAK256 DUP6 DUP9 MSTORE DUP3 MSTORE DUP1 DUP8 KECCAK256 SLOAD DUP2 MLOAD SWAP7 DUP8 MSTORE PUSH1 0x8 SHR PUSH1 0xFF AND ISZERO ISZERO SWAP2 DUP7 ADD SWAP2 SWAP1 SWAP2 MSTORE PUSH1 0x1 PUSH1 0x1 PUSH1 0xA0 SHL SUB SWAP1 SWAP2 AND SWAP4 PUSH32 0xDF312AEC1D512369EDE01A73501ADADF38C6D2A0708FBDEFCE0599BCB8F7FF6F SWAP2 SWAP1 LOG4 DUP2 DUP1 DUP1 PUSH2 0xC8C JUMP JUMPDEST DUP7 DUP5 DUP11 PUSH2 0xD1C SWAP7 MSTORE PUSH1 0xF PUSH1 0x20 MSTORE KECCAK256 PUSH2 0xD15 DUP5 DUP3 SLOAD PUSH2 0x2E50 JUMP JUMPDEST SWAP1 SSTORE PUSH2 0x3403 JUMP JUMPDEST DUP14 DUP14 CODESIZE DUP1 PUSH2 0xC4A JUMP JUMPDEST PUSH2 0xD46 SWAP3 DUP12 DUP8 MSTORE PUSH1 0xE PUSH1 0x20 MSTORE DUP10 DUP8 KECCAK256 PUSH2 0xD3F DUP5 DUP3 SLOAD PUSH2 0x2E50 JUMP JUMPDEST SWAP1 SSTORE PUSH2 0x338A JUMP JUMPDEST DUP13 DUP10 DUP3 PUSH2 0xC3D JUMP JUMPDEST PUSH1 0x40 MLOAD PUSH3 0x461BCD PUSH1 0xE5 SHL DUP2 MSTORE PUSH1 0x20 PUSH1 0x4 DUP3 ADD MSTORE PUSH1 0x10 PUSH1 0x24 DUP3 ADD MSTORE PUSH16 0x15DA5B9B995C881B9BDD08199BDD5B99 PUSH1 0x82 SHL PUSH1 0x44 DUP3 ADD MSTORE PUSH1 0x64 SWAP1 REVERT JUMPDEST PUSH4 0x4E487B71 PUSH1 0xE0 SHL DUP10 MSTORE PUSH1 0x11 PUSH1 0x4 MSTORE PUSH1 0x24 DUP10 REVERT JUMPDEST PUSH1 0x40 MLOAD PUSH3 0x461BCD PUSH1 0xE5 SHL DUP2 MSTORE PUSH1 0x20 PUSH1 0x4 DUP3 ADD MSTORE PUSH1 0xE PUSH1 0x24 DUP3 ADD MSTORE PUSH14 0x139BC8191C985DC81C995DD85C99 PUSH1 0x92 SHL PUSH1 0x44 DUP3 ADD MSTORE PUSH1 0x64 SWAP1 REVERT JUMPDEST POP DUP5 ISZERO ISZERO PUSH2 0xB5F JUMP JUMPDEST PUSH1 0x40 MLOAD PUSH3 0x461BCD PUSH1 0xE5 SHL DUP2 MSTORE PUSH1 0x20 PUSH1 0x4 DUP3 ADD MSTORE PUSH1 0x9 PUSH1 0x24 DUP3 ADD MSTORE PUSH9 0x139BC81DD95A59DA1D PUSH1 0xBA SHL PUSH1 0x44 DUP3 ADD MSTORE PUSH1 0x64 SWAP1 REVERT JUMPDEST PUSH4 0x3D98C855 PUSH1 0xE2 SHL PUSH1 0x0 MSTORE PUSH1 0x4 MSTORE PUSH1 0x24 PUSH1 0x0 REVERT JUMPDEST POP PUSH1 0x11 DUP2 GT PUSH2 0xAE5 JUMP JUMPDEST CALLVALUE PUSH2 0x3FE JUMPI PUSH1 0x20 CALLDATASIZE PUSH1 0x3 NOT ADD SLT PUSH2 0x3FE JUMPI PUSH1 0x1 PUSH1 0x1 PUSH1 0xA0 SHL SUB PUSH2 0xE49 PUSH2 0x2C75 JUMP JUMPDEST AND PUSH1 0x0 MSTORE PUSH1 0x9 PUSH1 0x20 MSTORE PUSH1 0x40 PUSH1 0x0 KECCAK256 DUP1 DUP1 DUP1 DUP1 DUP1 DUP1 DUP1 DUP1 DUP1 DUP1 DUP1 DUP1 DUP1 DUP1 PUSH1 0x11 PUSH1 0xF PUSH1 0xE PUSH1 0xD PUSH1 0xC PUSH1 0xB PUSH1 0xA PUSH1 0x9 PUSH1 0x8 PUSH1 0x7 PUSH1 0x6 PUSH1 0x5 PUSH1 0x4 DUP14 SLOAD SWAP14 PUSH1 0x1 DUP1 PUSH1 0xA0 SHL SUB PUSH1 0x1 DUP3 ADD SLOAD AND PUSH1 0xE0 MSTORE PUSH1 0x2 PUSH1 0x1 DUP1 PUSH1 0xA0 SHL SUB SWAP2 ADD SLOAD AND SWAP15 PUSH1 0x3 PUSH1 0x1 DUP1 PUSH1 0xA0 SHL SUB SWAP2 ADD SLOAD AND SWAP16 ADD SLOAD SWAP16 ADD SLOAD SWAP16 ADD SLOAD SWAP16 ADD SLOAD SWAP16 ADD SLOAD SWAP16 ADD SLOAD SWAP16 ADD SLOAD SWAP16 ADD SLOAD SWAP16 ADD SLOAD SWAP16 ADD SLOAD SWAP16 ADD SLOAD SWAP16 ADD SLOAD SWAP16 PUSH1 0x10 DUP2 ADD SLOAD PUSH1 0x80 MSTORE ADD SLOAD PUSH1 0xC0 MSTORE PUSH1 0x40 MLOAD PUSH1 0xA0 MSTORE PUSH1 0xFF DUP2 AND ISZERO ISZERO PUSH1 0xA0 MLOAD MSTORE PUSH1 0x1 DUP1 PUSH1 0xA0 SHL SUB SWAP1 PUSH1 0x8 SHR AND PUSH1 0x20 PUSH1 0xA0 MLOAD ADD MSTORE PUSH1 0xE0 MLOAD PUSH1 0x40 PUSH1 0xA0 MLOAD ADD MSTORE PUSH1 0x60 PUSH1 0xA0 MLOAD ADD MSTORE PUSH1 0x80 PUSH1 0xA0 MLOAD ADD MSTORE PUSH1 0xA0 DUP1 MLOAD ADD MSTORE PUSH1 0xC0 PUSH1 0xA0 MLOAD ADD MSTORE PUSH1 0xE0 PUSH1 0xA0 MLOAD ADD MSTORE PUSH2 0x100 PUSH1 0xA0 MLOAD ADD MSTORE PUSH2 0x120 PUSH1 0xA0 MLOAD ADD MSTORE PUSH2 0x140 PUSH1 0xA0 MLOAD ADD MSTORE PUSH2 0x160 PUSH1 0xA0 MLOAD ADD MSTORE PUSH2 0x180 PUSH1 0xA0 MLOAD ADD MSTORE PUSH2 0x1A0 PUSH1 0xA0 MLOAD ADD MSTORE PUSH2 0x1C0 PUSH1 0xA0 MLOAD ADD MSTORE PUSH2 0x1E0 PUSH1 0xA0 MLOAD ADD MSTORE PUSH2 0x200 PUSH1 0xA0 MLOAD ADD MSTORE PUSH1 0x80 MLOAD PUSH2 0x220 PUSH1 0xA0 MLOAD ADD MSTORE PUSH1 0xC0 MLOAD PUSH2 0x240 PUSH1 0xA0 MLOAD ADD MSTORE PUSH2 0x260 PUSH1 0xA0 MLOAD RETURN JUMPDEST CALLVALUE PUSH2 0x3FE JUMPI PUSH1 0x0 CALLDATASIZE PUSH1 0x3 NOT ADD SLT PUSH2 0x3FE JUMPI PUSH1 0x20 PUSH1 0x13 SLOAD PUSH1 0x40 MLOAD SWAP1 DUP2 MSTORE RETURN JUMPDEST CALLVALUE PUSH2 0x3FE JUMPI PUSH1 0x20 CALLDATASIZE PUSH1 0x3 NOT ADD SLT PUSH2 0x3FE JUMPI PUSH1 0xFF PUSH2 0xFCD PUSH2 0x2CB1 JUMP JUMPDEST AND PUSH1 0x0 MSTORE PUSH1 0x11 PUSH1 0x20 MSTORE PUSH1 0x20 PUSH1 0x40 PUSH1 0x0 KECCAK256 SLOAD PUSH1 0x40 MLOAD SWAP1 DUP2 MSTORE RETURN JUMPDEST CALLVALUE PUSH2 0x3FE JUMPI PUSH1 0x40 CALLDATASIZE PUSH1 0x3 NOT ADD SLT PUSH2 0x3FE JUMPI PUSH1 0xC0 PUSH2 0x1012 PUSH2 0x1004 PUSH2 0x2C75 JUMP JUMPDEST PUSH2 0x100C PUSH2 0x2CA1 JUMP JUMPDEST SWAP1 PUSH2 0x2FCC JUMP JUMPDEST SWAP4 PUSH1 0x40 SWAP4 SWAP2 SWAP4 MLOAD SWAP6 DUP7 MSTORE PUSH1 0x20 DUP7 ADD MSTORE PUSH1 0x40 DUP6 ADD MSTORE PUSH1 0x60 DUP5 ADD MSTORE PUSH1 0x80 DUP4 ADD MSTORE ISZERO ISZERO PUSH1 0xA0 DUP3 ADD MSTORE RETURN JUMPDEST CALLVALUE PUSH2 0x3FE JUMPI PUSH1 0x20 CALLDATASIZE PUSH1 0x3 NOT ADD SLT PUSH2 0x3FE JUMPI PUSH1 0xFF PUSH2 0x1054 PUSH2 0x2CB1 JUMP JUMPDEST AND PUSH1 0x0 MSTORE PUSH1 0xC PUSH1 0x20 MSTORE PUSH1 0x20 PUSH1 0x40 PUSH1 0x0 KECCAK256 SLOAD PUSH1 0x40 MLOAD SWAP1 DUP2 MSTORE RETURN JUMPDEST PUSH2 0x2CC1 JUMP JUMPDEST CALLVALUE PUSH2 0x3FE JUMPI PUSH1 0x20 CALLDATASIZE PUSH1 0x3 NOT ADD SLT PUSH2 0x3FE JUMPI PUSH1 0xFF PUSH2 0x108D PUSH2 0x2CB1 JUMP JUMPDEST PUSH2 0x109B PUSH1 0x1 PUSH1 0x1C SLOAD EQ PUSH2 0x2D50 JUMP JUMPDEST PUSH1 0x2 PUSH1 0x1C SSTORE AND PUSH1 0x1 DUP2 LT DUP1 ISZERO PUSH2 0x1175 JUMPI JUMPDEST PUSH2 0xE0A JUMPI CALLER PUSH1 0x0 MSTORE PUSH1 0xA PUSH1 0x20 MSTORE PUSH1 0x40 PUSH1 0x0 KECCAK256 DUP2 PUSH1 0x0 MSTORE PUSH1 0x20 MSTORE PUSH1 0x8 PUSH1 0x40 PUSH1 0x0 KECCAK256 PUSH2 0x10DC PUSH1 0xFF DUP3 SLOAD DUP5 SHR AND ISZERO PUSH2 0x2E12 JUMP JUMPDEST ADD DUP1 SLOAD SWAP1 DUP2 ISZERO PUSH2 0x1145 JUMPI PUSH1 0x0 SWAP1 SSTORE CALLER PUSH1 0x0 MSTORE PUSH1 0x9 PUSH1 0x20 MSTORE PUSH1 0xE PUSH1 0x40 PUSH1 0x0 KECCAK256 ADD PUSH2 0x1106 DUP3 DUP3 SLOAD PUSH2 0x2E50 JUMP JUMPDEST SWAP1 SSTORE PUSH2 0x1112 DUP2 CALLER PUSH2 0x30A0 JUMP JUMPDEST PUSH1 0x40 MLOAD SWAP1 DUP2 MSTORE PUSH32 0xE478EFAD2D93638C429F97678F2517EFCAFEE26463EAF608C398B94A2510EAB5 PUSH1 0x20 CALLER SWAP3 LOG3 PUSH1 0x1 PUSH1 0x1C SSTORE STOP JUMPDEST PUSH1 0x40 MLOAD PUSH3 0x461BCD PUSH1 0xE5 SHL DUP2 MSTORE PUSH1 0x20 PUSH1 0x4 DUP3 ADD MSTORE PUSH1 0x8 PUSH1 0x24 DUP3 ADD MSTORE PUSH8 0x4E6F207072697A65 PUSH1 0xC0 SHL PUSH1 0x44 DUP3 ADD MSTORE PUSH1 0x64 SWAP1 REVERT JUMPDEST POP PUSH1 0x11 DUP2 GT PUSH2 0x10AC JUMP JUMPDEST CALLVALUE PUSH2 0x3FE JUMPI PUSH1 0x20 CALLDATASIZE PUSH1 0x3 NOT ADD SLT PUSH2 0x3FE JUMPI PUSH1 0x1 PUSH1 0x1 PUSH1 0xA0 SHL SUB PUSH2 0x11A0 PUSH2 0x2C75 JUMP JUMPDEST AND PUSH1 0x0 MSTORE PUSH1 0x14 PUSH1 0x20 MSTORE PUSH1 0x20 PUSH1 0x40 PUSH1 0x0 KECCAK256 SLOAD PUSH1 0x40 MLOAD SWAP1 DUP2 MSTORE RETURN JUMPDEST CALLVALUE PUSH2 0x3FE JUMPI PUSH1 0x20 CALLDATASIZE PUSH1 0x3 NOT ADD SLT PUSH2 0x3FE JUMPI PUSH1 0xFF PUSH2 0x11D4 PUSH2 0x2CB1 JUMP JUMPDEST AND PUSH1 0x0 MSTORE PUSH1 0x8 PUSH1 0x20 MSTORE PUSH1 0x20 PUSH1 0x40 PUSH1 0x0 KECCAK256 SLOAD PUSH1 0x40 MLOAD SWAP1 DUP2 MSTORE RETURN JUMPDEST CALLVALUE PUSH2 0x3FE JUMPI PUSH1 0x0 CALLDATASIZE PUSH1 0x3 NOT ADD SLT PUSH2 0x3FE JUMPI PUSH1 0x1 SLOAD PUSH1 0x40 MLOAD PUSH1 0x1 PUSH1 0x1 PUSH1 0xA0 SHL SUB SWAP1 SWAP2 AND DUP2 MSTORE PUSH1 0x20 SWAP1 RETURN JUMPDEST CALLVALUE PUSH2 0x3FE JUMPI PUSH1 0x40 CALLDATASIZE PUSH1 0x3 NOT ADD SLT PUSH2 0x3FE JUMPI PUSH2 0x122F PUSH2 0x2C75 JUMP JUMPDEST PUSH2 0x1237 PUSH2 0x2CA1 JUMP JUMPDEST SWAP1 PUSH1 0x1 DUP1 PUSH1 0xA0 SHL SUB AND PUSH1 0x0 MSTORE PUSH1 0x18 PUSH1 0x20 MSTORE PUSH1 0xFF PUSH1 0x40 PUSH1 0x0 KECCAK256 SWAP2 AND PUSH1 0x0 MSTORE PUSH1 0x20 MSTORE PUSH1 0x20 PUSH1 0x40 PUSH1 0x0 KECCAK256 SLOAD PUSH1 0x40 MLOAD SWAP1 DUP2 MSTORE RETURN JUMPDEST CALLVALUE PUSH2 0x3FE JUMPI PUSH1 0x20 CALLDATASIZE PUSH1 0x3 NOT ADD SLT PUSH2 0x3FE JUMPI PUSH1 0xFF PUSH2 0x1282 PUSH2 0x2CB1 JUMP JUMPDEST AND PUSH1 0x1 DUP2 LT DUP1 ISZERO PUSH2 0x12BD JUMPI JUMPDEST PUSH2 0xE0A JUMPI DUP1 PUSH1 0x40 SWAP2 PUSH1 0x0 MSTORE PUSH1 0x11 PUSH1 0x20 MSTORE DUP2 PUSH1 0x0 KECCAK256 SLOAD SWAP1 PUSH1 0x0 MSTORE PUSH1 0xD PUSH1 0x20 MSTORE DUP2 PUSH1 0x0 KECCAK256 SLOAD DUP3 MLOAD SWAP2 DUP3 MSTORE PUSH1 0x20 DUP3 ADD MSTORE RETURN JUMPDEST POP PUSH1 0x11 DUP2 GT PUSH2 0x128E JUMP JUMPDEST CALLVALUE PUSH2 0x3FE JUMPI PUSH1 0x40 CALLDATASIZE PUSH1 0x3 NOT ADD SLT PUSH2 0x3FE JUMPI PUSH2 0x12E0 PUSH2 0x2CB1 JUMP JUMPDEST PUSH1 0xFF PUSH1 0x24 CALLDATALOAD SWAP2 AND PUSH1 0x1 DUP2 LT DUP1 ISZERO PUSH2 0x133E JUMPI JUMPDEST PUSH2 0xE0A JUMPI POP PUSH1 0x7 JUMPDEST DUP2 DUP2 GT ISZERO PUSH2 0x130D JUMPI PUSH1 0x20 SWAP1 PUSH1 0x40 MLOAD SWAP1 DUP2 MSTORE RETURN JUMPDEST PUSH1 0x1 DUP2 ADD DUP1 SWAP2 GT PUSH2 0x6F7 JUMPI PUSH1 0x1 SHL PUSH1 0x0 NOT DUP2 ADD SWAP1 DUP2 GT ISZERO PUSH2 0x12FA JUMPI PUSH4 0x4E487B71 PUSH1 0xE0 SHL PUSH1 0x0 MSTORE PUSH1 0x11 PUSH1 0x4 MSTORE PUSH1 0x24 PUSH1 0x0 REVERT JUMPDEST POP PUSH1 0x11 DUP2 GT PUSH2 0x12F2 JUMP JUMPDEST CALLVALUE PUSH2 0x3FE JUMPI PUSH1 0x40 CALLDATASIZE PUSH1 0x3 NOT ADD SLT PUSH2 0x3FE JUMPI PUSH2 0x1361 PUSH2 0x2C75 JUMP JUMPDEST PUSH1 0xFF PUSH2 0x136B PUSH2 0x2CA1 JUMP JUMPDEST AND SWAP1 PUSH1 0x1 DUP3 LT DUP1 ISZERO PUSH2 0x13EB JUMPI JUMPDEST PUSH2 0xA42 JUMPI PUSH1 0x1 PUSH1 0x1 PUSH1 0xA0 SHL SUB AND PUSH1 0x0 SWAP1 DUP2 MSTORE PUSH1 0xA PUSH1 0x20 SWAP1 DUP2 MSTORE PUSH1 0x40 DUP1 DUP4 KECCAK256 SWAP4 DUP4 MSTORE SWAP3 SWAP1 MSTORE KECCAK256 DUP1 SLOAD PUSH1 0x6 DUP3 ADD SLOAD PUSH1 0x2 DUP4 ADD SLOAD PUSH1 0x8 DUP5 ADD SLOAD PUSH1 0x9 SWAP1 SWAP5 ADD SLOAD PUSH1 0xA0 SWAP5 PUSH2 0x13C1 SWAP2 SWAP1 PUSH2 0x2FBF JUMP JUMPDEST SWAP2 PUSH1 0xFF PUSH1 0x40 MLOAD SWAP5 DUP2 DUP2 AND ISZERO ISZERO DUP7 MSTORE PUSH1 0x8 SHR AND ISZERO ISZERO PUSH1 0x20 DUP6 ADD MSTORE PUSH1 0x40 DUP5 ADD MSTORE PUSH1 0x60 DUP4 ADD MSTORE PUSH1 0x80 DUP3 ADD MSTORE RETURN JUMPDEST POP PUSH1 0x11 DUP3 GT PUSH2 0x1378 JUMP JUMPDEST CALLVALUE PUSH2 0x3FE JUMPI PUSH1 0x0 CALLDATASIZE PUSH1 0x3 NOT ADD SLT PUSH2 0x3FE JUMPI PUSH1 0x20 PUSH1 0x40 MLOAD PUSH1 0x19 DUP2 MSTORE RETURN JUMPDEST CALLVALUE PUSH2 0x3FE JUMPI PUSH1 0x40 CALLDATASIZE PUSH1 0x3 NOT ADD SLT PUSH2 0x3FE JUMPI PUSH1 0xFF PUSH2 0x142C PUSH2 0x2CB1 JUMP JUMPDEST AND PUSH1 0x0 MSTORE PUSH1 0xB PUSH1 0x20 MSTORE PUSH1 0x40 PUSH1 0x0 KECCAK256 PUSH1 0x24 CALLDATALOAD PUSH1 0x0 MSTORE PUSH1 0x20 MSTORE PUSH2 0x100 PUSH1 0x40 PUSH1 0x0 KECCAK256 PUSH1 0xFF DUP2 SLOAD SWAP2 PUSH1 0x1 DUP2 ADD SLOAD SWAP1 PUSH1 0x2 DUP2 ADD SLOAD PUSH1 0x3 DUP3 ADD SLOAD SWAP1 DUP5 PUSH1 0x5 PUSH1 0x4 DUP6 ADD SLOAD SWAP5 ADD SLOAD SWAP5 PUSH1 0x40 MLOAD SWAP8 DUP9 MSTORE PUSH1 0x1 DUP1 PUSH1 0xA0 SHL SUB DUP2 AND PUSH1 0x20 DUP10 ADD MSTORE PUSH1 0xA0 SHR AND PUSH1 0x40 DUP8 ADD MSTORE PUSH1 0x60 DUP7 ADD MSTORE PUSH1 0x80 DUP6 ADD MSTORE PUSH1 0xA0 DUP5 ADD MSTORE DUP2 DUP2 AND ISZERO ISZERO PUSH1 0xC0 DUP5 ADD MSTORE PUSH1 0x8 SHR AND ISZERO ISZERO PUSH1 0xE0 DUP3 ADD MSTORE RETURN JUMPDEST PUSH2 0x2CFB JUMP JUMPDEST CALLVALUE PUSH2 0x3FE JUMPI PUSH1 0x40 CALLDATASIZE PUSH1 0x3 NOT ADD SLT PUSH2 0x3FE JUMPI PUSH2 0x14CE PUSH2 0x2CB1 JUMP JUMPDEST PUSH1 0xFF PUSH1 0x24 CALLDATALOAD SWAP2 PUSH2 0x14E9 PUSH1 0x1 DUP1 PUSH1 0xA0 SHL SUB PUSH1 0x0 SLOAD AND CALLER EQ PUSH2 0x2D8D JUMP JUMPDEST AND SWAP1 PUSH1 0x1 DUP3 LT DUP1 ISZERO PUSH2 0x1588 JUMPI JUMPDEST PUSH2 0xA42 JUMPI DUP1 ISZERO PUSH2 0x154F JUMPI PUSH1 0x40 PUSH32 0x68CB741D0779160E141CCF5DD579423DE44FEBC76C0EDDDCC6167807A3C16AF7 SWAP2 DUP4 PUSH1 0x0 MSTORE PUSH1 0x5 PUSH1 0x20 MSTORE DUP2 PUSH1 0x0 KECCAK256 SLOAD SWAP1 DUP5 PUSH1 0x0 MSTORE PUSH1 0x5 PUSH1 0x20 MSTORE DUP1 DUP4 PUSH1 0x0 KECCAK256 SSTORE DUP3 MLOAD SWAP2 DUP3 MSTORE PUSH1 0x20 DUP3 ADD MSTORE LOG2 STOP JUMPDEST PUSH1 0x40 MLOAD PUSH3 0x461BCD PUSH1 0xE5 SHL DUP2 MSTORE PUSH1 0x20 PUSH1 0x4 DUP3 ADD MSTORE PUSH1 0x11 PUSH1 0x24 DUP3 ADD MSTORE PUSH17 0x141C9A58D9481A5CC81C995C5D5A5C9959 PUSH1 0x7A SHL PUSH1 0x44 DUP3 ADD MSTORE PUSH1 0x64 SWAP1 REVERT JUMPDEST POP PUSH1 0x11 DUP3 GT PUSH2 0x14F6 JUMP JUMPDEST CALLVALUE PUSH2 0x3FE JUMPI PUSH1 0x0 CALLDATASIZE PUSH1 0x3 NOT ADD SLT PUSH2 0x3FE JUMPI PUSH1 0x0 SLOAD PUSH1 0x40 MLOAD PUSH1 0x1 PUSH1 0x1 PUSH1 0xA0 SHL SUB SWAP1 SWAP2 AND DUP2 MSTORE PUSH1 0x20 SWAP1 RETURN JUMPDEST CALLVALUE PUSH2 0x3FE JUMPI PUSH1 0x20 CALLDATASIZE PUSH1 0x3 NOT ADD SLT PUSH2 0x3FE JUMPI PUSH1 0xFF PUSH2 0x15D6 PUSH2 0x2CB1 JUMP JUMPDEST AND PUSH1 0x0 MSTORE PUSH1 0x10 PUSH1 0x20 MSTORE PUSH1 0x20 PUSH1 0x40 PUSH1 0x0 KECCAK256 SLOAD PUSH1 0x40 MLOAD SWAP1 DUP2 MSTORE RETURN JUMPDEST CALLVALUE PUSH2 0x3FE JUMPI PUSH1 0x20 CALLDATASIZE PUSH1 0x3 NOT ADD SLT PUSH2 0x3FE JUMPI PUSH1 0xFF PUSH2 0x160A PUSH2 0x2CB1 JUMP JUMPDEST AND PUSH1 0x0 MSTORE PUSH1 0xE PUSH1 0x20 MSTORE PUSH1 0x20 PUSH1 0x40 PUSH1 0x0 KECCAK256 SLOAD PUSH1 0x40 MLOAD SWAP1 DUP2 MSTORE RETURN JUMPDEST CALLVALUE PUSH2 0x3FE JUMPI PUSH1 0x20 CALLDATASIZE PUSH1 0x3 NOT ADD SLT PUSH2 0x3FE JUMPI PUSH1 0x1 PUSH1 0x1 PUSH1 0xA0 SHL SUB PUSH2 0x1644 PUSH2 0x2C75 JUMP JUMPDEST AND PUSH1 0x0 MSTORE PUSH1 0x16 PUSH1 0x20 MSTORE PUSH1 0x20 PUSH1 0x40 PUSH1 0x0 KECCAK256 SLOAD PUSH1 0x40 MLOAD SWAP1 DUP2 MSTORE RETURN JUMPDEST CALLVALUE PUSH2 0x3FE JUMPI PUSH1 0x0 CALLDATASIZE PUSH1 0x3 NOT ADD SLT PUSH2 0x3FE JUMPI PUSH1 0x20 PUSH1 0x40 MLOAD PUSH2 0x258 DUP2 MSTORE RETURN JUMPDEST CALLVALUE PUSH2 0x3FE JUMPI PUSH1 0x0 CALLDATASIZE PUSH1 0x3 NOT ADD SLT PUSH2 0x3FE JUMPI PUSH1 0x20 PUSH1 0x40 MLOAD PUSH2 0x190 DUP2 MSTORE RETURN JUMPDEST CALLVALUE PUSH2 0x3FE JUMPI PUSH1 0x40 CALLDATASIZE PUSH1 0x3 NOT ADD SLT PUSH2 0x3FE JUMPI PUSH1 0x20 PUSH2 0x16C3 PUSH2 0x16B5 PUSH2 0x2C75 JUMP JUMPDEST PUSH2 0x16BD PUSH2 0x2CA1 JUMP JUMPDEST SWAP1 PUSH2 0x2F38 JUMP JUMPDEST PUSH1 0x40 MLOAD SWAP1 DUP2 MSTORE RETURN JUMPDEST CALLVALUE PUSH2 0x3FE JUMPI PUSH1 0x0 CALLDATASIZE PUSH1 0x3 NOT ADD SLT PUSH2 0x3FE JUMPI PUSH2 0x16F1 PUSH1 0x1 DUP1 PUSH1 0xA0 SHL SUB PUSH1 0x0 SLOAD AND CALLER EQ PUSH2 0x2D8D JUMP JUMPDEST PUSH2 0x16FF PUSH1 0x1 PUSH1 0x1C SLOAD EQ PUSH2 0x2D50 JUMP JUMPDEST PUSH1 0x2 PUSH1 0x1C SSTORE PUSH1 0x12 SLOAD DUP1 ISZERO PUSH2 0x1769 JUMPI PUSH1 0x0 PUSH1 0x12 SSTORE PUSH1 0x1 SLOAD PUSH2 0x1729 SWAP1 DUP3 SWAP1 PUSH1 0x1 PUSH1 0x1 PUSH1 0xA0 SHL SUB AND PUSH2 0x30A0 JUMP JUMPDEST PUSH1 0x1 SLOAD PUSH1 0x40 MLOAD SWAP2 DUP3 MSTORE PUSH1 0x1 PUSH1 0x1 PUSH1 0xA0 SHL SUB AND SWAP1 PUSH32 0x95334F2D4E98187A454807E6EC3DA804AF4DA5C99357A7398E2CF2505AC88218 SWAP1 PUSH1 0x20 SWAP1 LOG2 PUSH1 0x1 PUSH1 0x1C SSTORE STOP JUMPDEST PUSH1 0x40 MLOAD PUSH3 0x461BCD PUSH1 0xE5 SHL DUP2 MSTORE PUSH1 0x20 PUSH1 0x4 DUP3 ADD MSTORE PUSH1 0xF PUSH1 0x24 DUP3 ADD MSTORE PUSH15 0x4E6F2070726F6A6563742066656573 PUSH1 0x88 SHL PUSH1 0x44 DUP3 ADD MSTORE PUSH1 0x64 SWAP1 REVERT JUMPDEST CALLVALUE PUSH2 0x3FE JUMPI PUSH1 0x60 CALLDATASIZE PUSH1 0x3 NOT ADD SLT PUSH2 0x3FE JUMPI PUSH2 0x17B9 PUSH2 0x2C75 JUMP JUMPDEST PUSH2 0x17C1 PUSH2 0x2C8B JUMP JUMPDEST PUSH1 0x44 CALLDATALOAD PUSH1 0x1 PUSH1 0x1 PUSH1 0xA0 SHL SUB DUP2 AND SWAP3 SWAP1 DUP4 SWAP1 SUB PUSH2 0x3FE JUMPI PUSH2 0x17EC PUSH1 0x1 DUP1 PUSH1 0xA0 SHL SUB PUSH1 0x0 SLOAD AND CALLER EQ PUSH2 0x2D8D JUMP JUMPDEST PUSH1 0x1 PUSH1 0x1 PUSH1 0xA0 SHL SUB AND SWAP1 DUP2 ISZERO PUSH2 0x1910 JUMPI PUSH1 0x1 PUSH1 0x1 PUSH1 0xA0 SHL SUB AND SWAP1 DUP2 ISZERO PUSH2 0x18CB JUMPI DUP3 ISZERO PUSH2 0x1886 JUMPI PUSH32 0xD2D452A5DF03F60FF9BF0EF1FC3498AF992B0B6165C03B2F792CF596EE96530A SWAP3 PUSH1 0x60 SWAP3 DUP3 PUSH1 0x1 PUSH1 0x1 PUSH1 0x60 SHL SUB PUSH1 0xA0 SHL PUSH1 0x1 SLOAD AND OR PUSH1 0x1 SSTORE DUP1 PUSH1 0x1 PUSH1 0x1 PUSH1 0x60 SHL SUB PUSH1 0xA0 SHL PUSH1 0x2 SLOAD AND OR PUSH1 0x2 SSTORE DUP2 PUSH1 0x1 PUSH1 0x1 PUSH1 0x60 SHL SUB PUSH1 0xA0 SHL PUSH1 0x3 SLOAD AND OR PUSH1 0x3 SSTORE PUSH1 0x40 MLOAD SWAP3 DUP4 MSTORE PUSH1 0x20 DUP4 ADD MSTORE PUSH1 0x40 DUP3 ADD MSTORE LOG1 STOP JUMPDEST PUSH1 0x40 MLOAD PUSH3 0x461BCD PUSH1 0xE5 SHL DUP2 MSTORE PUSH1 0x20 PUSH1 0x4 DUP3 ADD MSTORE PUSH1 0x18 PUSH1 0x24 DUP3 ADD MSTORE PUSH32 0x4F70657261746F722077616C6C65742072657175697265640000000000000000 PUSH1 0x44 DUP3 ADD MSTORE PUSH1 0x64 SWAP1 REVERT JUMPDEST PUSH1 0x40 MLOAD PUSH3 0x461BCD PUSH1 0xE5 SHL DUP2 MSTORE PUSH1 0x20 PUSH1 0x4 DUP3 ADD MSTORE PUSH1 0x18 PUSH1 0x24 DUP3 ADD MSTORE PUSH32 0x54726561737572792077616C6C65742072657175697265640000000000000000 PUSH1 0x44 DUP3 ADD MSTORE PUSH1 0x64 SWAP1 REVERT JUMPDEST PUSH1 0x40 MLOAD PUSH3 0x461BCD PUSH1 0xE5 SHL DUP2 MSTORE PUSH1 0x20 PUSH1 0x4 DUP3 ADD MSTORE PUSH1 0x17 PUSH1 0x24 DUP3 ADD MSTORE PUSH32 0x50726F6A6563742077616C6C6574207265717569726564000000000000000000 PUSH1 0x44 DUP3 ADD MSTORE PUSH1 0x64 SWAP1 REVERT JUMPDEST CALLVALUE PUSH2 0x3FE JUMPI PUSH1 0x40 CALLDATASIZE PUSH1 0x3 NOT ADD SLT PUSH2 0x3FE JUMPI PUSH2 0x196E PUSH2 0x2C75 JUMP JUMPDEST PUSH1 0xFF PUSH2 0x1978 PUSH2 0x2CA1 JUMP JUMPDEST AND SWAP1 PUSH1 0x1 DUP3 LT DUP1 ISZERO PUSH2 0x19BA JUMPI JUMPDEST PUSH2 0xA42 JUMPI PUSH1 0x1 DUP1 PUSH1 0xA0 SHL SUB AND PUSH1 0x0 MSTORE PUSH1 0xA PUSH1 0x20 MSTORE PUSH1 0x40 PUSH1 0x0 KECCAK256 SWAP1 PUSH1 0x0 MSTORE PUSH1 0x20 MSTORE PUSH1 0x20 PUSH1 0xFF PUSH1 0x40 PUSH1 0x0 KECCAK256 SLOAD AND PUSH1 0x40 MLOAD SWAP1 ISZERO ISZERO DUP2 MSTORE RETURN JUMPDEST POP PUSH1 0x11 DUP3 GT PUSH2 0x1985 JUMP JUMPDEST CALLVALUE PUSH2 0x3FE JUMPI PUSH1 0x0 CALLDATASIZE PUSH1 0x3 NOT ADD SLT PUSH2 0x3FE JUMPI PUSH1 0x20 PUSH1 0x40 MLOAD PUSH2 0x1D7E DUP2 MSTORE RETURN JUMPDEST CALLVALUE PUSH2 0x3FE JUMPI PUSH1 0x20 CALLDATASIZE PUSH1 0x3 NOT ADD SLT PUSH2 0x3FE JUMPI PUSH1 0x1 PUSH1 0x1 PUSH1 0xA0 SHL SUB PUSH2 0x1A02 PUSH2 0x2C75 JUMP JUMPDEST AND PUSH1 0x0 MSTORE PUSH1 0x15 PUSH1 0x20 MSTORE PUSH1 0x20 PUSH1 0x40 PUSH1 0x0 KECCAK256 SLOAD PUSH1 0x40 MLOAD SWAP1 DUP2 MSTORE RETURN JUMPDEST CALLVALUE PUSH2 0x3FE JUMPI PUSH1 0x20 CALLDATASIZE PUSH1 0x3 NOT ADD SLT PUSH2 0x3FE JUMPI PUSH2 0x1A34 PUSH2 0x2C75 JUMP JUMPDEST PUSH2 0x1A49 PUSH1 0x1 DUP1 PUSH1 0xA0 SHL SUB PUSH1 0x0 SLOAD AND CALLER EQ PUSH2 0x2D8D JUMP JUMPDEST PUSH1 0x1 PUSH1 0x1 PUSH1 0xA0 SHL SUB AND DUP1 ISZERO PUSH2 0x1A9C JUMPI PUSH1 0x4 DUP1 SLOAD PUSH1 0x1 PUSH1 0x1 PUSH1 0xA0 SHL SUB NOT DUP2 AND DUP4 OR SWAP1 SWAP2 SSTORE PUSH1 0x1 PUSH1 0x1 PUSH1 0xA0 SHL SUB AND PUSH32 0x750DCE806A7083B5C48405B1310300E4AA4241D21C26CD1348EC6F81324AEB9F PUSH1 0x0 DUP1 LOG3 STOP JUMPDEST PUSH1 0x40 MLOAD PUSH3 0x461BCD PUSH1 0xE5 SHL DUP2 MSTORE PUSH1 0x20 PUSH1 0x4 DUP3 ADD MSTORE PUSH1 0x13 PUSH1 0x24 DUP3 ADD MSTORE PUSH19 0x1554D110C81D1BDAD95B881C995C5D5A5C9959 PUSH1 0x6A SHL PUSH1 0x44 DUP3 ADD MSTORE PUSH1 0x64 SWAP1 REVERT JUMPDEST CALLVALUE PUSH2 0x3FE JUMPI PUSH1 0x40 CALLDATASIZE PUSH1 0x3 NOT ADD SLT PUSH2 0x3FE JUMPI PUSH2 0x160 PUSH1 0x40 PUSH2 0x1AF5 PUSH2 0x2C75 JUMP JUMPDEST PUSH2 0x1AFD PUSH2 0x2CA1 JUMP JUMPDEST SWAP1 PUSH1 0x1 DUP1 PUSH1 0xA0 SHL SUB AND PUSH1 0x0 MSTORE PUSH1 0xA PUSH1 0x20 MSTORE DUP2 PUSH1 0x0 KECCAK256 PUSH1 0xFF PUSH1 0x0 SWAP3 AND DUP3 MSTORE PUSH1 0x20 MSTORE KECCAK256 DUP1 SLOAD SWAP1 PUSH1 0x1 DUP2 ADD SLOAD SWAP1 PUSH1 0x2 DUP2 ADD SLOAD PUSH1 0x3 DUP3 ADD SLOAD PUSH1 0x4 DUP4 ADD SLOAD PUSH1 0x5 DUP5 ADD SLOAD SWAP1 PUSH1 0x6 DUP6 ADD SLOAD SWAP3 PUSH1 0x7 DUP7 ADD SLOAD SWAP5 PUSH1 0x9 PUSH1 0x8 DUP9 ADD SLOAD SWAP8 ADD SLOAD SWAP8 PUSH1 0xFF PUSH1 0x40 MLOAD SWAP11 DUP2 DUP2 AND ISZERO ISZERO DUP13 MSTORE PUSH1 0x8 SHR AND ISZERO ISZERO PUSH1 0x20 DUP12 ADD MSTORE PUSH1 0x40 DUP11 ADD MSTORE PUSH1 0x60 DUP10 ADD MSTORE PUSH1 0x80 DUP9 ADD MSTORE PUSH1 0xA0 DUP8 ADD MSTORE PUSH1 0xC0 DUP7 ADD MSTORE PUSH1 0xE0 DUP6 ADD MSTORE PUSH2 0x100 DUP5 ADD MSTORE PUSH2 0x120 DUP4 ADD MSTORE PUSH2 0x140 DUP3 ADD MSTORE RETURN JUMPDEST CALLVALUE PUSH2 0x3FE JUMPI PUSH1 0x20 CALLDATASIZE PUSH1 0x3 NOT ADD SLT PUSH2 0x3FE JUMPI PUSH2 0x1BB6 PUSH2 0x2C75 JUMP JUMPDEST PUSH1 0x0 PUSH2 0x240 PUSH1 0x40 MLOAD PUSH2 0x1BC7 DUP2 PUSH2 0x2EAD JUMP JUMPDEST DUP3 DUP2 MSTORE DUP3 PUSH1 0x20 DUP3 ADD MSTORE DUP3 PUSH1 0x40 DUP3 ADD MSTORE DUP3 PUSH1 0x60 DUP3 ADD MSTORE DUP3 PUSH1 0x80 DUP3 ADD MSTORE DUP3 PUSH1 0xA0 DUP3 ADD MSTORE DUP3 PUSH1 0xC0 DUP3 ADD MSTORE DUP3 PUSH1 0xE0 DUP3 ADD MSTORE DUP3 PUSH2 0x100 DUP3 ADD MSTORE DUP3 PUSH2 0x120 DUP3 ADD MSTORE DUP3 PUSH2 0x140 DUP3 ADD MSTORE DUP3 PUSH2 0x160 DUP3 ADD MSTORE DUP3 PUSH2 0x180 DUP3 ADD MSTORE DUP3 PUSH2 0x1A0 DUP3 ADD MSTORE DUP3 PUSH2 0x1C0 DUP3 ADD MSTORE DUP3 PUSH2 0x1E0 DUP3 ADD MSTORE DUP3 PUSH2 0x200 DUP3 ADD MSTORE DUP3 PUSH2 0x220 DUP3 ADD MSTORE ADD MSTORE PUSH1 0x1 DUP1 PUSH1 0xA0 SHL SUB AND PUSH1 0x0 MSTORE PUSH1 0x9 PUSH1 0x20 MSTORE PUSH2 0x260 PUSH1 0x40 PUSH1 0x0 KECCAK256 PUSH2 0x240 PUSH1 0x40 MLOAD PUSH2 0x1C63 DUP2 PUSH2 0x2EAD JUMP JUMPDEST PUSH1 0x11 DUP4 SLOAD SWAP4 PUSH1 0xFF DUP6 AND ISZERO ISZERO DUP4 MSTORE PUSH1 0x1 DUP1 PUSH1 0xA0 SHL SUB DUP6 PUSH1 0x8 SHR AND PUSH1 0x20 DUP5 ADD MSTORE PUSH1 0x1 DUP1 PUSH1 0xA0 SHL SUB PUSH1 0x1 DUP3 ADD SLOAD AND PUSH1 0x40 DUP5 ADD MSTORE PUSH1 0x1 DUP1 PUSH1 0xA0 SHL SUB PUSH1 0x2 DUP3 ADD SLOAD AND PUSH1 0x60 DUP5 ADD MSTORE PUSH1 0x1 DUP1 PUSH1 0xA0 SHL SUB PUSH1 0x3 DUP3 ADD SLOAD AND PUSH1 0x80 DUP5 ADD MSTORE PUSH1 0x4 DUP2 ADD SLOAD PUSH1 0xA0 DUP5 ADD MSTORE PUSH1 0x5 DUP2 ADD SLOAD PUSH1 0xC0 DUP5 ADD MSTORE PUSH1 0x6 DUP2 ADD SLOAD PUSH1 0xE0 DUP5 ADD MSTORE PUSH1 0x7 DUP2 ADD SLOAD PUSH2 0x100 DUP5 ADD MSTORE PUSH1 0x8 DUP2 ADD SLOAD PUSH2 0x120 DUP5 ADD MSTORE PUSH1 0x9 DUP2 ADD SLOAD PUSH2 0x140 DUP5 ADD MSTORE PUSH1 0xA DUP2 ADD SLOAD PUSH2 0x160 DUP5 ADD MSTORE PUSH1 0xB DUP2 ADD SLOAD PUSH2 0x180 DUP5 ADD MSTORE PUSH1 0xC DUP2 ADD SLOAD PUSH2 0x1A0 DUP5 ADD MSTORE PUSH1 0xD DUP2 ADD SLOAD PUSH2 0x1C0 DUP5 ADD MSTORE PUSH1 0xE DUP2 ADD SLOAD PUSH2 0x1E0 DUP5 ADD MSTORE PUSH1 0xF DUP2 ADD SLOAD PUSH2 0x200 DUP5 ADD MSTORE PUSH1 0x10 DUP2 ADD SLOAD PUSH2 0x220 DUP5 ADD MSTORE ADD SLOAD DUP3 DUP3 ADD MSTORE PUSH1 0xFF PUSH1 0x40 MLOAD SWAP4 AND ISZERO ISZERO DUP4 MSTORE PUSH1 0x1 DUP1 PUSH1 0xA0 SHL SUB PUSH1 0x20 DUP3 ADD MLOAD AND PUSH1 0x20 DUP5 ADD MSTORE PUSH1 0x1 DUP1 PUSH1 0xA0 SHL SUB PUSH1 0x40 DUP3 ADD MLOAD AND PUSH1 0x40 DUP5 ADD MSTORE PUSH1 0x1 DUP1 PUSH1 0xA0 SHL SUB PUSH1 0x60 DUP3 ADD MLOAD AND PUSH1 0x60 DUP5 ADD MSTORE PUSH1 0x1 DUP1 PUSH1 0xA0 SHL SUB PUSH1 0x80 DUP3 ADD MLOAD AND PUSH1 0x80 DUP5 ADD MSTORE PUSH1 0xA0 DUP2 ADD MLOAD PUSH1 0xA0 DUP5 ADD MSTORE PUSH1 0xC0 DUP2 ADD MLOAD PUSH1 0xC0 DUP5 ADD MSTORE PUSH1 0xE0 DUP2 ADD MLOAD PUSH1 0xE0 DUP5 ADD MSTORE PUSH2 0x100 DUP2 ADD MLOAD PUSH2 0x100 DUP5 ADD MSTORE PUSH2 0x120 DUP2 ADD MLOAD PUSH2 0x120 DUP5 ADD MSTORE PUSH2 0x140 DUP2 ADD MLOAD PUSH2 0x140 DUP5 ADD MSTORE PUSH2 0x160 DUP2 ADD MLOAD PUSH2 0x160 DUP5 ADD MSTORE PUSH2 0x180 DUP2 ADD MLOAD PUSH2 0x180 DUP5 ADD MSTORE PUSH2 0x1A0 DUP2 ADD MLOAD PUSH2 0x1A0 DUP5 ADD MSTORE PUSH2 0x1C0 DUP2 ADD MLOAD PUSH2 0x1C0 DUP5 ADD MSTORE PUSH2 0x1E0 DUP2 ADD MLOAD PUSH2 0x1E0 DUP5 ADD MSTORE PUSH2 0x200 DUP2 ADD MLOAD PUSH2 0x200 DUP5 ADD MSTORE PUSH2 0x220 DUP2 ADD MLOAD PUSH2 0x220 DUP5 ADD MSTORE ADD MLOAD PUSH2 0x240 DUP3 ADD MSTORE RETURN JUMPDEST CALLVALUE PUSH2 0x3FE JUMPI PUSH1 0x20 CALLDATASIZE PUSH1 0x3 NOT ADD SLT PUSH2 0x3FE JUMPI PUSH1 0xFF PUSH2 0x1E57 PUSH2 0x2CB1 JUMP JUMPDEST AND PUSH1 0x0 MSTORE PUSH1 0xD PUSH1 0x20 MSTORE PUSH1 0x20 PUSH1 0x40 PUSH1 0x0 KECCAK256 SLOAD PUSH1 0x40 MLOAD SWAP1 DUP2 MSTORE RETURN JUMPDEST CALLVALUE PUSH2 0x3FE JUMPI PUSH1 0x20 CALLDATASIZE PUSH1 0x3 NOT ADD SLT PUSH2 0x3FE JUMPI PUSH1 0xFF PUSH2 0x1E8B PUSH2 0x2CB1 JUMP JUMPDEST AND PUSH1 0x0 MSTORE PUSH1 0x7 PUSH1 0x20 MSTORE PUSH1 0x20 PUSH1 0xFF PUSH1 0x40 PUSH1 0x0 KECCAK256 SLOAD AND PUSH1 0x40 MLOAD SWAP1 ISZERO ISZERO DUP2 MSTORE RETURN JUMPDEST CALLVALUE PUSH2 0x3FE JUMPI PUSH1 0x0 CALLDATASIZE PUSH1 0x3 NOT ADD SLT PUSH2 0x3FE JUMPI PUSH1 0x20 PUSH1 0x40 MLOAD PUSH2 0x1388 DUP2 MSTORE RETURN JUMPDEST CALLVALUE PUSH2 0x3FE JUMPI PUSH1 0x0 CALLDATASIZE PUSH1 0x3 NOT ADD SLT PUSH2 0x3FE JUMPI PUSH1 0x20 PUSH1 0x40 MLOAD PUSH1 0x14 DUP2 MSTORE RETURN JUMPDEST CALLVALUE PUSH2 0x3FE JUMPI PUSH1 0x40 CALLDATASIZE PUSH1 0x3 NOT ADD SLT PUSH2 0x3FE JUMPI PUSH2 0x1EFB PUSH2 0x2C75 JUMP JUMPDEST PUSH1 0xFF PUSH2 0x1F05 PUSH2 0x2CA1 JUMP JUMPDEST AND SWAP1 PUSH1 0x1 DUP3 LT DUP1 ISZERO PUSH2 0x1F6A JUMPI JUMPDEST PUSH2 0xA42 JUMPI PUSH1 0x1 PUSH1 0x1 PUSH1 0xA0 SHL SUB AND PUSH1 0x0 DUP2 DUP2 MSTORE PUSH1 0x14 PUSH1 0x20 SWAP1 DUP2 MSTORE PUSH1 0x40 DUP1 DUP4 KECCAK256 SLOAD PUSH1 0x17 DUP4 MSTORE DUP2 DUP5 KECCAK256 DUP7 DUP6 MSTORE DUP4 MSTORE DUP2 DUP5 KECCAK256 SLOAD SWAP5 DUP5 MSTORE PUSH1 0x18 DUP4 MSTORE DUP2 DUP5 KECCAK256 SWAP6 DUP5 MSTORE SWAP5 DUP3 MSTORE SWAP2 DUP3 SWAP1 KECCAK256 SLOAD DUP3 MLOAD SWAP5 DUP6 MSTORE SWAP1 DUP5 ADD SWAP3 SWAP1 SWAP3 MSTORE DUP3 ADD MSTORE PUSH1 0x60 SWAP1 RETURN JUMPDEST POP PUSH1 0x11 DUP3 GT PUSH2 0x1F12 JUMP JUMPDEST CALLVALUE PUSH2 0x3FE JUMPI PUSH1 0x40 CALLDATASIZE PUSH1 0x3 NOT ADD SLT PUSH2 0x3FE JUMPI PUSH2 0x1F8D PUSH2 0x2CB1 JUMP JUMPDEST PUSH1 0xFF PUSH1 0x24 CALLDATALOAD SWAP2 PUSH1 0x0 PUSH1 0xE0 PUSH1 0x40 MLOAD PUSH2 0x1FA3 DUP2 PUSH2 0x2E90 JUMP JUMPDEST DUP3 DUP2 MSTORE DUP3 PUSH1 0x20 DUP3 ADD MSTORE DUP3 PUSH1 0x40 DUP3 ADD MSTORE DUP3 PUSH1 0x60 DUP3 ADD MSTORE DUP3 PUSH1 0x80 DUP3 ADD MSTORE DUP3 PUSH1 0xA0 DUP3 ADD MSTORE DUP3 PUSH1 0xC0 DUP3 ADD MSTORE ADD MSTORE AND PUSH1 0x1 DUP2 LT DUP1 ISZERO PUSH2 0x210D JUMPI JUMPDEST PUSH2 0xE0A JUMPI DUP2 ISZERO ISZERO DUP1 PUSH2 0x20F6 JUMPI JUMPDEST ISZERO PUSH2 0x20C2 JUMPI PUSH1 0x0 MSTORE PUSH1 0xB PUSH1 0x20 MSTORE PUSH1 0x40 PUSH1 0x0 KECCAK256 SWAP1 PUSH1 0x0 MSTORE PUSH1 0x20 MSTORE PUSH2 0x100 PUSH1 0x40 PUSH1 0x0 KECCAK256 PUSH1 0x40 MLOAD SWAP1 PUSH2 0x2013 DUP3 PUSH2 0x2E90 JUMP JUMPDEST DUP1 SLOAD SWAP2 DUP3 DUP2 MSTORE PUSH1 0x1 DUP3 ADD SLOAD SWAP2 PUSH1 0x20 DUP3 ADD SWAP3 PUSH1 0x1 DUP1 PUSH1 0xA0 SHL SUB DUP2 AND DUP5 MSTORE PUSH1 0xFF PUSH1 0x40 DUP5 ADD SWAP2 PUSH1 0xA0 SHR AND DUP2 MSTORE PUSH1 0x2 DUP3 ADD SLOAD PUSH1 0x60 DUP5 ADD SWAP1 DUP2 MSTORE PUSH1 0xFF PUSH1 0x3 DUP5 ADD SLOAD SWAP3 PUSH1 0x80 DUP7 ADD SWAP4 DUP5 MSTORE PUSH1 0x5 PUSH1 0x4 DUP7 ADD SLOAD SWAP6 PUSH1 0xA0 DUP9 ADD SWAP7 DUP8 MSTORE ADD SLOAD SWAP7 DUP3 PUSH1 0xE0 PUSH1 0xC0 DUP10 ADD SWAP9 DUP3 DUP12 AND ISZERO ISZERO DUP11 MSTORE ADD SWAP9 PUSH1 0x8 SHR AND ISZERO ISZERO DUP9 MSTORE PUSH1 0x40 MLOAD SWAP9 DUP10 MSTORE PUSH1 0x1 DUP1 PUSH1 0xA0 SHL SUB SWAP1 MLOAD AND PUSH1 0x20 DUP10 ADD MSTORE MLOAD AND PUSH1 0x40 DUP8 ADD MSTORE MLOAD PUSH1 0x60 DUP7 ADD MSTORE MLOAD PUSH1 0x80 DUP6 ADD MSTORE MLOAD PUSH1 0xA0 DUP5 ADD MSTORE MLOAD ISZERO ISZERO PUSH1 0xC0 DUP4 ADD MSTORE MLOAD ISZERO ISZERO PUSH1 0xE0 DUP3 ADD MSTORE RETURN JUMPDEST PUSH1 0x40 MLOAD PUSH3 0x461BCD PUSH1 0xE5 SHL DUP2 MSTORE PUSH1 0x20 PUSH1 0x4 DUP3 ADD MSTORE PUSH1 0xC PUSH1 0x24 DUP3 ADD MSTORE PUSH12 0x125B9D985B1A590818D95B1B PUSH1 0xA2 SHL PUSH1 0x44 DUP3 ADD MSTORE PUSH1 0x64 SWAP1 REVERT JUMPDEST POP DUP1 PUSH1 0x0 MSTORE PUSH1 0xC PUSH1 0x20 MSTORE PUSH1 0x40 PUSH1 0x0 KECCAK256 SLOAD DUP3 LT PUSH2 0x1FE5 JUMP JUMPDEST POP PUSH1 0x11 DUP2 GT PUSH2 0x1FD8 JUMP JUMPDEST PUSH1 0x40 CALLDATASIZE PUSH1 0x3 NOT ADD SLT PUSH2 0x3FE JUMPI PUSH2 0x212B PUSH2 0x2CB1 JUMP JUMPDEST PUSH2 0x2133 PUSH2 0x2C8B JUMP JUMPDEST SWAP1 PUSH2 0x2142 PUSH1 0x1 PUSH1 0x1C SLOAD EQ PUSH2 0x2D50 JUMP JUMPDEST PUSH1 0x2 PUSH1 0x1C SSTORE PUSH1 0xFF DUP2 AND SWAP2 PUSH1 0x1 DUP4 LT DUP1 ISZERO PUSH2 0x239D JUMPI JUMPDEST PUSH2 0x7C9 JUMPI DUP3 PUSH1 0x0 MSTORE PUSH1 0x7 PUSH1 0x20 MSTORE PUSH2 0x2175 PUSH1 0xFF PUSH1 0x40 PUSH1 0x0 KECCAK256 SLOAD AND PUSH2 0x2EEC JUMP JUMPDEST DUP3 PUSH1 0x0 MSTORE PUSH1 0x5 PUSH1 0x20 MSTORE PUSH1 0x40 PUSH1 0x0 KECCAK256 SLOAD CALLVALUE SUB PUSH2 0x2358 JUMPI PUSH2 0x2195 SWAP1 CALLER DUP4 PUSH2 0x31EF JUMP JUMPDEST SWAP1 PUSH2 0x1D7E CALLVALUE MUL CALLVALUE ISZERO SWAP1 CALLVALUE DUP2 DIV PUSH2 0x1D7E EQ DUP3 OR ISZERO PUSH2 0x6F7 JUMPI PUSH2 0x2710 SWAP1 DIV SWAP1 PUSH2 0x3B6 CALLVALUE MUL CALLVALUE DUP2 DIV PUSH2 0x3B6 EQ DUP3 OR ISZERO PUSH2 0x6F7 JUMPI PUSH2 0x2710 SWAP1 DIV SWAP3 PUSH2 0x258 CALLVALUE MUL CALLVALUE DUP2 DIV PUSH2 0x258 EQ DUP4 OR ISZERO PUSH2 0x6F7 JUMPI PUSH2 0x2710 SWAP1 DIV SWAP4 PUSH2 0x190 CALLVALUE MUL SWAP3 CALLVALUE DUP5 DIV PUSH2 0x190 EQ OR ISZERO PUSH2 0x6F7 JUMPI DUP7 PUSH32 0x4B36477D57294A9CD8DBDA6C13FA93D36015734AC4EABB6C235F3EE6C9034A4E SWAP5 PUSH32 0xB85EF11BE8AA73FBA898A4935AFE7D749E354CF349871A27F8934346A1B2E4FF DUP3 SWAP8 PUSH2 0x2710 PUSH1 0x40 SWAP8 DIV SWAP5 PUSH2 0x22D0 DUP7 PUSH2 0x2264 DUP2 PUSH2 0x225F DUP7 PUSH2 0x225F DUP8 PUSH2 0x225F DUP13 CALLVALUE PUSH2 0x2E50 JUMP JUMPDEST PUSH2 0x2E50 JUMP JUMPDEST SWAP9 CALLER PUSH1 0x0 MSTORE PUSH1 0x9 PUSH1 0x20 MSTORE DUP11 PUSH1 0x0 KECCAK256 DUP9 PUSH1 0x0 MSTORE PUSH1 0xE PUSH1 0x20 MSTORE DUP12 PUSH1 0x0 KECCAK256 PUSH2 0x228A DUP10 DUP3 SLOAD PUSH2 0x2FBF JUMP JUMPDEST SWAP1 SSTORE PUSH2 0x22A4 DUP6 DUP4 CALLER PUSH1 0x1 DUP1 PUSH1 0xA0 SHL SUB PUSH1 0x1 DUP7 ADD SLOAD AND PUSH2 0x3E94 JUMP JUMPDEST PUSH2 0x22BC DUP7 DUP4 CALLER PUSH1 0x1 DUP1 PUSH1 0xA0 SHL SUB PUSH1 0x2 DUP7 ADD SLOAD AND PUSH2 0x3F53 JUMP JUMPDEST PUSH1 0x3 ADD SLOAD CALLER SWAP1 PUSH1 0x1 PUSH1 0x1 PUSH1 0xA0 SHL SUB AND PUSH2 0x400A JUMP JUMPDEST PUSH2 0x2311 DUP8 PUSH2 0x22E0 DUP2 PUSH1 0x12 SLOAD PUSH2 0x2FBF JUMP JUMPDEST SWAP8 DUP9 PUSH1 0x12 SSTORE DUP11 MLOAD SWAP5 DUP6 SWAP5 CALLER SWAP9 DUP7 SWAP2 SWAP3 PUSH1 0x80 SWAP4 SWAP7 SWAP6 SWAP5 SWAP2 SWAP7 PUSH1 0xA0 DUP5 ADD SWAP8 DUP5 MSTORE PUSH1 0x20 DUP5 ADD MSTORE PUSH1 0x40 DUP4 ADD MSTORE PUSH1 0x60 DUP3 ADD MSTORE ADD MSTORE JUMP JUMPDEST SUB SWAP1 LOG3 DUP3 MLOAD SWAP2 DUP3 MSTORE PUSH1 0x20 DUP3 ADD MSTORE LOG2 PUSH1 0x40 MLOAD SWAP1 CALLVALUE DUP3 MSTORE PUSH1 0x20 DUP3 ADD MSTORE PUSH32 0xE099ACE9CC029768846F2ABE32CE8983D72474335B42431E129401C1E9C0886B PUSH1 0x40 CALLER SWAP3 LOG3 PUSH1 0x1 PUSH1 0x1C SSTORE STOP JUMPDEST PUSH1 0x40 MLOAD PUSH3 0x461BCD PUSH1 0xE5 SHL DUP2 MSTORE PUSH1 0x20 PUSH1 0x4 DUP3 ADD MSTORE PUSH1 0x18 PUSH1 0x24 DUP3 ADD MSTORE PUSH32 0x496E636F7272656374207061796D656E7420616D6F756E740000000000000000 PUSH1 0x44 DUP3 ADD MSTORE PUSH1 0x64 SWAP1 REVERT JUMPDEST POP PUSH1 0x11 DUP4 GT PUSH2 0x2157 JUMP JUMPDEST CALLVALUE PUSH2 0x3FE JUMPI PUSH1 0x0 CALLDATASIZE PUSH1 0x3 NOT ADD SLT PUSH2 0x3FE JUMPI PUSH1 0x2 SLOAD PUSH1 0x40 MLOAD PUSH1 0x1 PUSH1 0x1 PUSH1 0xA0 SHL SUB SWAP1 SWAP2 AND DUP2 MSTORE PUSH1 0x20 SWAP1 RETURN JUMPDEST CALLVALUE PUSH2 0x3FE JUMPI PUSH1 0x40 CALLDATASIZE PUSH1 0x3 NOT ADD SLT PUSH2 0x3FE JUMPI PUSH2 0x23E9 PUSH2 0x2C75 JUMP JUMPDEST PUSH1 0xFF PUSH2 0x23F3 PUSH2 0x2CA1 JUMP JUMPDEST PUSH1 0x0 PUSH2 0x140 PUSH1 0x40 MLOAD PUSH2 0x2404 DUP2 PUSH2 0x2E5D JUMP JUMPDEST DUP3 DUP2 MSTORE DUP3 PUSH1 0x20 DUP3 ADD MSTORE DUP3 PUSH1 0x40 DUP3 ADD MSTORE DUP3 PUSH1 0x60 DUP3 ADD MSTORE DUP3 PUSH1 0x80 DUP3 ADD MSTORE DUP3 PUSH1 0xA0 DUP3 ADD MSTORE DUP3 PUSH1 0xC0 DUP3 ADD MSTORE DUP3 PUSH1 0xE0 DUP3 ADD MSTORE DUP3 PUSH2 0x100 DUP3 ADD MSTORE DUP3 PUSH2 0x120 DUP3 ADD MSTORE ADD MSTORE AND SWAP1 PUSH1 0x1 DUP3 LT DUP1 ISZERO PUSH2 0x255A JUMPI JUMPDEST PUSH2 0xA42 JUMPI PUSH2 0x160 SWAP2 PUSH1 0x40 SWAP2 PUSH1 0x1 DUP1 PUSH1 0xA0 SHL SUB AND PUSH1 0x0 MSTORE PUSH1 0xA PUSH1 0x20 MSTORE DUP2 PUSH1 0x0 KECCAK256 PUSH1 0x0 SWAP2 DUP3 MSTORE PUSH1 0x20 MSTORE KECCAK256 PUSH1 0x40 MLOAD PUSH2 0x2482 DUP2 PUSH2 0x2E5D JUMP JUMPDEST DUP2 SLOAD SWAP2 PUSH1 0xFF DUP4 AND ISZERO ISZERO SWAP3 DUP4 DUP4 MSTORE PUSH1 0xFF PUSH1 0x20 DUP5 ADD SWAP2 PUSH1 0x8 SHR AND ISZERO ISZERO DUP2 MSTORE PUSH1 0x1 DUP3 ADD SLOAD PUSH1 0x40 DUP5 ADD SWAP1 DUP2 MSTORE PUSH1 0x2 DUP4 ADD SLOAD PUSH1 0x60 DUP6 ADD SWAP1 DUP2 MSTORE PUSH1 0x3 DUP5 ADD SLOAD PUSH1 0x80 DUP7 ADD SWAP1 DUP2 MSTORE PUSH1 0x4 DUP6 ADD SLOAD SWAP1 PUSH1 0xA0 DUP8 ADD SWAP2 DUP3 MSTORE PUSH1 0x5 DUP7 ADD SLOAD SWAP3 PUSH1 0xC0 DUP9 ADD SWAP4 DUP5 MSTORE PUSH1 0x6 DUP8 ADD SLOAD SWAP5 PUSH1 0xE0 DUP10 ADD SWAP6 DUP7 MSTORE PUSH1 0x7 DUP9 ADD SLOAD SWAP7 PUSH2 0x100 DUP11 ADD SWAP8 DUP9 MSTORE PUSH2 0x140 PUSH1 0x9 PUSH1 0x8 DUP12 ADD SLOAD SWAP11 PUSH2 0x120 DUP14 ADD SWAP12 DUP13 MSTORE ADD SLOAD SWAP11 ADD SWAP10 DUP11 MSTORE PUSH1 0x40 MLOAD SWAP11 DUP12 MSTORE MLOAD ISZERO ISZERO PUSH1 0x20 DUP12 ADD MSTORE MLOAD PUSH1 0x40 DUP11 ADD MSTORE MLOAD PUSH1 0x60 DUP10 ADD MSTORE MLOAD PUSH1 0x80 DUP9 ADD MSTORE MLOAD PUSH1 0xA0 DUP8 ADD MSTORE MLOAD PUSH1 0xC0 DUP7 ADD MSTORE MLOAD PUSH1 0xE0 DUP6 ADD MSTORE MLOAD PUSH2 0x100 DUP5 ADD MSTORE MLOAD PUSH2 0x120 DUP4 ADD MSTORE MLOAD PUSH2 0x140 DUP3 ADD MSTORE RETURN JUMPDEST POP PUSH1 0x11 DUP3 GT PUSH2 0x244E JUMP JUMPDEST CALLVALUE PUSH2 0x3FE JUMPI PUSH1 0x20 CALLDATASIZE PUSH1 0x3 NOT ADD SLT PUSH2 0x3FE JUMPI PUSH1 0xFF PUSH2 0x257F PUSH2 0x2CB1 JUMP JUMPDEST PUSH2 0x258D PUSH1 0x1 PUSH1 0x1C SLOAD EQ PUSH2 0x2D50 JUMP JUMPDEST PUSH1 0x2 PUSH1 0x1C SSTORE AND PUSH1 0x1 DUP2 LT DUP1 ISZERO PUSH2 0x26CB JUMPI JUMPDEST PUSH2 0xE0A JUMPI PUSH1 0x4 SLOAD PUSH2 0x25B9 SWAP1 PUSH1 0x1 PUSH1 0x1 PUSH1 0xA0 SHL SUB AND ISZERO ISZERO PUSH2 0x2DC6 JUMP JUMPDEST CALLER PUSH1 0x0 MSTORE PUSH1 0xA PUSH1 0x20 MSTORE PUSH1 0x40 PUSH1 0x0 KECCAK256 DUP2 PUSH1 0x0 MSTORE PUSH1 0x20 MSTORE PUSH2 0x25E3 PUSH1 0xFF PUSH1 0x40 PUSH1 0x0 KECCAK256 SLOAD PUSH1 0x8 SHR AND ISZERO PUSH2 0x2E12 JUMP JUMPDEST CALLER PUSH1 0x0 MSTORE PUSH1 0x17 PUSH1 0x20 MSTORE PUSH1 0x40 PUSH1 0x0 KECCAK256 DUP2 PUSH1 0x0 MSTORE PUSH1 0x20 MSTORE PUSH1 0x40 PUSH1 0x0 KECCAK256 SLOAD DUP1 ISZERO PUSH2 0x2696 JUMPI CALLER PUSH1 0x0 MSTORE PUSH1 0x17 PUSH1 0x20 MSTORE PUSH1 0x40 PUSH1 0x0 KECCAK256 DUP3 PUSH1 0x0 MSTORE PUSH1 0x20 MSTORE PUSH1 0x0 PUSH1 0x40 DUP2 KECCAK256 SSTORE CALLER PUSH1 0x0 MSTORE PUSH1 0x15 PUSH1 0x20 MSTORE PUSH1 0x40 PUSH1 0x0 KECCAK256 PUSH2 0x2639 DUP3 DUP3 SLOAD PUSH2 0x2E50 JUMP JUMPDEST SWAP1 SSTORE PUSH1 0x4 SLOAD PUSH2 0x2654 SWAP1 DUP3 SWAP1 CALLER SWAP1 PUSH1 0x1 PUSH1 0x1 PUSH1 0xA0 SHL SUB AND PUSH2 0x313A JUMP JUMPDEST PUSH1 0x4 SLOAD PUSH1 0x40 MLOAD SWAP2 DUP3 MSTORE PUSH1 0x1 PUSH1 0x1 PUSH1 0xA0 SHL SUB AND SWAP1 CALLER SWAP1 PUSH32 0xCB5B06C056856BB82784094D6A04F2CDD54A8CA5035447B87427F46C8D098131 SWAP1 PUSH1 0x20 SWAP1 LOG4 PUSH1 0x1 PUSH1 0x1C SSTORE STOP JUMPDEST PUSH1 0x40 MLOAD PUSH3 0x461BCD PUSH1 0xE5 SHL DUP2 MSTORE PUSH1 0x20 PUSH1 0x4 DUP3 ADD MSTORE PUSH1 0xD PUSH1 0x24 DUP3 ADD MSTORE PUSH13 0x4E6F2055534443207072697A65 PUSH1 0x98 SHL PUSH1 0x44 DUP3 ADD MSTORE PUSH1 0x64 SWAP1 REVERT JUMPDEST POP PUSH1 0x11 DUP2 GT PUSH2 0x259E JUMP JUMPDEST CALLVALUE PUSH2 0x3FE JUMPI PUSH1 0x40 CALLDATASIZE PUSH1 0x3 NOT ADD SLT PUSH2 0x3FE JUMPI PUSH2 0x26EE PUSH2 0x2CB1 JUMP JUMPDEST PUSH1 0xFF PUSH1 0x24 CALLDATALOAD SWAP2 PUSH2 0x2709 PUSH1 0x1 DUP1 PUSH1 0xA0 SHL SUB PUSH1 0x0 SLOAD AND CALLER EQ PUSH2 0x2D8D JUMP JUMPDEST AND SWAP1 PUSH1 0x1 DUP3 LT DUP1 ISZERO PUSH2 0x27AD JUMPI JUMPDEST PUSH2 0xA42 JUMPI DUP1 ISZERO PUSH2 0x276F JUMPI PUSH1 0x40 PUSH32 0x3B7A8420BCF2581FAC422A359FF730B951E902C11F27DA90A7E97DA9C068F9A6 SWAP2 DUP4 PUSH1 0x0 MSTORE PUSH1 0x6 PUSH1 0x20 MSTORE DUP2 PUSH1 0x0 KECCAK256 SLOAD SWAP1 DUP5 PUSH1 0x0 MSTORE PUSH1 0x6 PUSH1 0x20 MSTORE DUP1 DUP4 PUSH1 0x0 KECCAK256 SSTORE DUP3 MLOAD SWAP2 DUP3 MSTORE PUSH1 0x20 DUP3 ADD MSTORE LOG2 STOP JUMPDEST PUSH1 0x40 MLOAD PUSH3 0x461BCD PUSH1 0xE5 SHL DUP2 MSTORE PUSH1 0x20 PUSH1 0x4 DUP3 ADD MSTORE PUSH1 0x16 PUSH1 0x24 DUP3 ADD MSTORE PUSH22 0x1554D110C81C1C9A58D9481A5CC81C995C5D5A5C9959 PUSH1 0x52 SHL PUSH1 0x44 DUP3 ADD MSTORE PUSH1 0x64 SWAP1 REVERT JUMPDEST POP PUSH1 0x11 DUP3 GT PUSH2 0x2716 JUMP JUMPDEST CALLVALUE PUSH2 0x3FE JUMPI PUSH1 0x0 CALLDATASIZE PUSH1 0x3 NOT ADD SLT PUSH2 0x3FE JUMPI PUSH1 0x20 PUSH1 0x40 MLOAD PUSH2 0x3B6 DUP2 MSTORE RETURN JUMPDEST CALLVALUE PUSH2 0x3FE JUMPI PUSH1 0x0 CALLDATASIZE PUSH1 0x3 NOT ADD SLT PUSH2 0x3FE JUMPI PUSH2 0x27FA PUSH1 0x1 DUP1 PUSH1 0xA0 SHL SUB PUSH1 0x0 SLOAD AND CALLER EQ PUSH2 0x2D8D JUMP JUMPDEST PUSH2 0x2808 PUSH1 0x1 PUSH1 0x1C SLOAD EQ PUSH2 0x2D50 JUMP JUMPDEST PUSH1 0x2 PUSH1 0x1C SSTORE PUSH1 0x4 SLOAD PUSH1 0x1 PUSH1 0x1 PUSH1 0xA0 SHL SUB AND PUSH2 0x2824 DUP2 ISZERO ISZERO PUSH2 0x2DC6 JUMP JUMPDEST PUSH1 0x13 SLOAD SWAP1 DUP2 ISZERO PUSH2 0x2893 JUMPI PUSH1 0x0 PUSH1 0x13 SSTORE PUSH1 0x1 SLOAD PUSH2 0x284B SWAP2 DUP4 SWAP2 PUSH1 0x1 PUSH1 0x1 PUSH1 0xA0 SHL SUB AND SWAP1 PUSH2 0x313A JUMP JUMPDEST PUSH1 0x4 SLOAD PUSH1 0x1 SLOAD PUSH1 0x40 MLOAD SWAP3 DUP4 MSTORE PUSH1 0x1 PUSH1 0x1 PUSH1 0xA0 SHL SUB SWAP1 DUP2 AND SWAP3 SWAP2 AND SWAP1 PUSH32 0x6F09A29FA95E6CA2C4C5B55C121D7269FAF4D531E64E23D432F03E95BB6CAA47 SWAP1 PUSH1 0x20 SWAP1 LOG3 PUSH1 0x1 PUSH1 0x1C SSTORE STOP JUMPDEST PUSH1 0x40 MLOAD PUSH3 0x461BCD PUSH1 0xE5 SHL DUP2 MSTORE PUSH1 0x20 PUSH1 0x4 DUP3 ADD MSTORE PUSH1 0x14 PUSH1 0x24 DUP3 ADD MSTORE PUSH20 0x4E6F20555344432070726F6A6563742066656573 PUSH1 0x60 SHL PUSH1 0x44 DUP3 ADD MSTORE PUSH1 0x64 SWAP1 REVERT JUMPDEST CALLVALUE PUSH2 0x3FE JUMPI PUSH1 0x20 CALLDATASIZE PUSH1 0x3 NOT ADD SLT PUSH2 0x3FE JUMPI PUSH1 0xFF PUSH2 0x28EA PUSH2 0x2CB1 JUMP JUMPDEST AND PUSH1 0x0 MSTORE PUSH1 0x5 PUSH1 0x20 MSTORE PUSH1 0x20 PUSH1 0x40 PUSH1 0x0 KECCAK256 SLOAD PUSH1 0x40 MLOAD SWAP1 DUP2 MSTORE RETURN JUMPDEST CALLVALUE PUSH2 0x3FE JUMPI PUSH1 0x20 CALLDATASIZE PUSH1 0x3 NOT ADD SLT PUSH2 0x3FE JUMPI PUSH1 0xFF PUSH2 0x291E PUSH2 0x2CB1 JUMP JUMPDEST AND PUSH1 0x1 DUP2 LT DUP1 ISZERO PUSH2 0x2986 JUMPI JUMPDEST PUSH2 0xE0A JUMPI PUSH1 0x0 SWAP1 DUP2 MSTORE PUSH1 0xF PUSH1 0x20 SWAP1 DUP2 MSTORE PUSH1 0x40 DUP1 DUP4 KECCAK256 SLOAD PUSH1 0x10 DUP4 MSTORE DUP2 DUP5 KECCAK256 SLOAD PUSH1 0x11 DUP5 MSTORE DUP3 DUP6 KECCAK256 SLOAD PUSH1 0xD DUP6 MSTORE DUP4 DUP7 KECCAK256 SLOAD PUSH1 0xC DUP7 MSTORE SWAP6 DUP5 SWAP1 KECCAK256 SLOAD DUP5 MLOAD SWAP4 DUP5 MSTORE SWAP5 DUP4 ADD SWAP2 SWAP1 SWAP2 MSTORE SWAP2 DUP2 ADD SWAP2 SWAP1 SWAP2 MSTORE PUSH1 0x60 DUP2 ADD SWAP3 SWAP1 SWAP3 MSTORE PUSH1 0x80 DUP3 ADD MSTORE PUSH1 0xA0 SWAP1 RETURN JUMPDEST POP PUSH1 0x11 DUP2 GT PUSH2 0x292A JUMP JUMPDEST CALLVALUE PUSH2 0x3FE JUMPI PUSH1 0x0 CALLDATASIZE PUSH1 0x3 NOT ADD SLT PUSH2 0x3FE JUMPI PUSH1 0x20 PUSH1 0x40 MLOAD PUSH2 0x2710 DUP2 MSTORE RETURN JUMPDEST CALLVALUE PUSH2 0x3FE JUMPI PUSH1 0x20 CALLDATASIZE PUSH1 0x3 NOT ADD SLT PUSH2 0x3FE JUMPI PUSH1 0xFF PUSH2 0x29C8 PUSH2 0x2CB1 JUMP JUMPDEST AND PUSH1 0x1 DUP2 LT DUP1 ISZERO PUSH2 0x2A30 JUMPI JUMPDEST PUSH2 0xE0A JUMPI PUSH1 0x0 SWAP1 DUP2 MSTORE PUSH1 0xE PUSH1 0x20 SWAP1 DUP2 MSTORE PUSH1 0x40 DUP1 DUP4 KECCAK256 SLOAD PUSH1 0x10 DUP4 MSTORE DUP2 DUP5 KECCAK256 SLOAD PUSH1 0x11 DUP5 MSTORE DUP3 DUP6 KECCAK256 SLOAD PUSH1 0xD DUP6 MSTORE DUP4 DUP7 KECCAK256 SLOAD PUSH1 0xC DUP7 MSTORE SWAP6 DUP5 SWAP1 KECCAK256 SLOAD DUP5 MLOAD SWAP4 DUP5 MSTORE SWAP5 DUP4 ADD SWAP2 SWAP1 SWAP2 MSTORE SWAP2 DUP2 ADD SWAP2 SWAP1 SWAP2 MSTORE PUSH1 0x60 DUP2 ADD SWAP3 SWAP1 SWAP3 MSTORE PUSH1 0x80 DUP3 ADD MSTORE PUSH1 0xA0 SWAP1 RETURN JUMPDEST POP PUSH1 0x11 DUP2 GT PUSH2 0x29D4 JUMP JUMPDEST CALLVALUE PUSH2 0x3FE JUMPI PUSH1 0x0 CALLDATASIZE PUSH1 0x3 NOT ADD SLT PUSH2 0x3FE JUMPI PUSH2 0x2A59 PUSH1 0x1 PUSH1 0x1C SLOAD EQ PUSH2 0x2D50 JUMP JUMPDEST PUSH1 0x2 PUSH1 0x1C SSTORE CALLER PUSH1 0x0 MSTORE PUSH1 0x9 PUSH1 0x20 MSTORE PUSH1 0xD PUSH1 0x40 PUSH1 0x0 KECCAK256 ADD SLOAD DUP1 ISZERO PUSH2 0x2AC6 JUMPI CALLER PUSH1 0x0 MSTORE PUSH1 0x9 PUSH1 0x20 MSTORE PUSH1 0x0 PUSH1 0xD PUSH1 0x40 DUP3 KECCAK256 ADD SSTORE PUSH2 0x2A93 DUP2 CALLER PUSH2 0x30A0 JUMP JUMPDEST PUSH1 0x40 MLOAD SWAP1 DUP2 MSTORE PUSH32 0x53473E2A2E0CC6840D80567F104277EA6DAA0891E5316836BAC38A686B79EA33 PUSH1 0x20 CALLER SWAP3 LOG2 PUSH1 0x1 PUSH1 0x1C SSTORE STOP JUMPDEST PUSH1 0x40 MLOAD PUSH3 0x461BCD PUSH1 0xE5 SHL DUP2 MSTORE PUSH1 0x20 PUSH1 0x4 DUP3 ADD MSTORE PUSH1 0x11 PUSH1 0x24 DUP3 ADD MSTORE PUSH17 0x4E6F20726566657272616C20626F6E7573 PUSH1 0x78 SHL PUSH1 0x44 DUP3 ADD MSTORE PUSH1 0x64 SWAP1 REVERT JUMPDEST CALLVALUE PUSH2 0x3FE JUMPI PUSH1 0x0 CALLDATASIZE PUSH1 0x3 NOT ADD SLT PUSH2 0x3FE JUMPI PUSH1 0x20 PUSH1 0x40 MLOAD PUSH1 0x11 DUP2 MSTORE RETURN JUMPDEST CALLVALUE PUSH2 0x3FE JUMPI PUSH1 0x0 CALLDATASIZE PUSH1 0x3 NOT ADD SLT PUSH2 0x3FE JUMPI PUSH1 0x20 PUSH1 0x12 SLOAD PUSH1 0x40 MLOAD SWAP1 DUP2 MSTORE RETURN JUMPDEST CALLVALUE PUSH2 0x3FE JUMPI PUSH1 0x0 CALLDATASIZE PUSH1 0x3 NOT ADD SLT PUSH2 0x3FE JUMPI PUSH1 0x4 SLOAD PUSH1 0x40 MLOAD PUSH1 0x1 PUSH1 0x1 PUSH1 0xA0 SHL SUB SWAP1 SWAP2 AND DUP2 MSTORE PUSH1 0x20 SWAP1 RETURN JUMPDEST CALLVALUE PUSH2 0x3FE JUMPI PUSH1 0x40 CALLDATASIZE PUSH1 0x3 NOT ADD SLT PUSH2 0x3FE JUMPI PUSH2 0x2B7B PUSH2 0x2C75 JUMP JUMPDEST PUSH1 0xFF PUSH2 0x2B85 PUSH2 0x2CA1 JUMP JUMPDEST AND SWAP1 PUSH1 0x1 DUP3 LT DUP1 ISZERO PUSH2 0x2BCA JUMPI JUMPDEST PUSH2 0xA42 JUMPI PUSH1 0x1 DUP1 PUSH1 0xA0 SHL SUB AND PUSH1 0x0 MSTORE PUSH1 0xA PUSH1 0x20 MSTORE PUSH1 0x40 PUSH1 0x0 KECCAK256 SWAP1 PUSH1 0x0 MSTORE PUSH1 0x20 MSTORE PUSH1 0x20 PUSH1 0xFF PUSH1 0x40 PUSH1 0x0 KECCAK256 SLOAD PUSH1 0x8 SHR AND PUSH1 0x40 MLOAD SWAP1 ISZERO ISZERO DUP2 MSTORE RETURN JUMPDEST POP PUSH1 0x11 DUP3 GT PUSH2 0x2B92 JUMP JUMPDEST CALLVALUE PUSH2 0x3FE JUMPI PUSH1 0x20 CALLDATASIZE PUSH1 0x3 NOT ADD SLT PUSH2 0x3FE JUMPI PUSH1 0xFF PUSH2 0x2BEF PUSH2 0x2CB1 JUMP JUMPDEST AND PUSH1 0x0 MSTORE PUSH1 0x6 PUSH1 0x20 MSTORE PUSH1 0x20 PUSH1 0x40 PUSH1 0x0 KECCAK256 SLOAD PUSH1 0x40 MLOAD SWAP1 DUP2 MSTORE RETURN JUMPDEST CALLVALUE PUSH2 0x3FE JUMPI PUSH1 0x40 CALLDATASIZE PUSH1 0x3 NOT ADD SLT PUSH2 0x3FE JUMPI PUSH2 0x2C21 PUSH2 0x2C75 JUMP JUMPDEST PUSH1 0xFF PUSH2 0x2C2B PUSH2 0x2CA1 JUMP JUMPDEST AND SWAP1 PUSH1 0x1 DUP3 LT DUP1 ISZERO PUSH2 0x2C6B JUMPI JUMPDEST PUSH2 0xA42 JUMPI PUSH1 0x1 DUP1 PUSH1 0xA0 SHL SUB AND PUSH1 0x0 MSTORE PUSH1 0xA PUSH1 0x20 MSTORE PUSH1 0x40 PUSH1 0x0 KECCAK256 SWAP1 PUSH1 0x0 MSTORE PUSH1 0x20 MSTORE PUSH1 0x20 PUSH1 0x7 PUSH1 0x40 PUSH1 0x0 KECCAK256 ADD SLOAD PUSH1 0x40 MLOAD SWAP1 DUP2 MSTORE RETURN JUMPDEST POP PUSH1 0x11 DUP3 GT PUSH2 0x2C38 JUMP JUMPDEST PUSH1 0x4 CALLDATALOAD SWAP1 PUSH1 0x1 PUSH1 0x1 PUSH1 0xA0 SHL SUB DUP3 AND DUP3 SUB PUSH2 0x3FE JUMPI JUMP JUMPDEST PUSH1 0x24 CALLDATALOAD SWAP1 PUSH1 0x1 PUSH1 0x1 PUSH1 0xA0 SHL SUB DUP3 AND DUP3 SUB PUSH2 0x3FE JUMPI JUMP JUMPDEST PUSH1 0x24 CALLDATALOAD SWAP1 PUSH1 0xFF DUP3 AND DUP3 SUB PUSH2 0x3FE JUMPI JUMP JUMPDEST PUSH1 0x4 CALLDATALOAD SWAP1 PUSH1 0xFF DUP3 AND DUP3 SUB PUSH2 0x3FE JUMPI JUMP JUMPDEST CALLVALUE PUSH2 0x3FE JUMPI PUSH1 0x0 CALLDATASIZE PUSH1 0x3 NOT ADD SLT PUSH2 0x3FE JUMPI PUSH1 0x20 PUSH1 0x40 MLOAD PUSH2 0x7D0 DUP2 MSTORE RETURN JUMPDEST CALLVALUE PUSH2 0x3FE JUMPI PUSH1 0x0 CALLDATASIZE PUSH1 0x3 NOT ADD SLT PUSH2 0x3FE JUMPI PUSH1 0x20 PUSH1 0x40 MLOAD PUSH2 0x1F4 DUP2 MSTORE RETURN JUMPDEST CALLVALUE PUSH2 0x3FE JUMPI PUSH1 0x0 CALLDATASIZE PUSH1 0x3 NOT ADD SLT PUSH2 0x3FE JUMPI PUSH1 0x20 PUSH1 0x40 MLOAD PUSH1 0x64 DUP2 MSTORE RETURN JUMPDEST CALLVALUE PUSH2 0x3FE JUMPI PUSH1 0x0 CALLDATASIZE PUSH1 0x3 NOT ADD SLT PUSH2 0x3FE JUMPI PUSH1 0x20 PUSH1 0x40 MLOAD PUSH1 0x32 DUP2 MSTORE RETURN JUMPDEST CALLVALUE PUSH2 0x3FE JUMPI PUSH1 0x0 CALLDATASIZE PUSH1 0x3 NOT ADD SLT PUSH2 0x3FE JUMPI PUSH1 0x20 PUSH1 0x40 MLOAD PUSH2 0x3E8 DUP2 MSTORE RETURN JUMPDEST ISZERO PUSH2 0x2D57 JUMPI JUMP JUMPDEST PUSH1 0x40 MLOAD PUSH3 0x461BCD PUSH1 0xE5 SHL DUP2 MSTORE PUSH1 0x20 PUSH1 0x4 DUP3 ADD MSTORE PUSH1 0xE PUSH1 0x24 DUP3 ADD MSTORE PUSH14 0x1499595B9D1C985B9D0818D85B1B PUSH1 0x92 SHL PUSH1 0x44 DUP3 ADD MSTORE PUSH1 0x64 SWAP1 REVERT JUMPDEST ISZERO PUSH2 0x2D94 JUMPI JUMP JUMPDEST PUSH1 0x40 MLOAD PUSH3 0x461BCD PUSH1 0xE5 SHL DUP2 MSTORE PUSH1 0x20 PUSH1 0x4 DUP3 ADD MSTORE PUSH1 0xA PUSH1 0x24 DUP3 ADD MSTORE PUSH10 0x27B7363C9037BBB732B9 PUSH1 0xB1 SHL PUSH1 0x44 DUP3 ADD MSTORE PUSH1 0x64 SWAP1 REVERT JUMPDEST ISZERO PUSH2 0x2DCD JUMPI JUMP JUMPDEST PUSH1 0x40 MLOAD PUSH3 0x461BCD PUSH1 0xE5 SHL DUP2 MSTORE PUSH1 0x20 PUSH1 0x4 DUP3 ADD MSTORE PUSH1 0x19 PUSH1 0x24 DUP3 ADD MSTORE PUSH32 0x5553444320746F6B656E206E6F7420636F6E6669677572656400000000000000 PUSH1 0x44 DUP3 ADD MSTORE PUSH1 0x64 SWAP1 REVERT JUMPDEST ISZERO PUSH2 0x2E19 JUMPI JUMP JUMPDEST PUSH1 0x40 MLOAD PUSH3 0x461BCD PUSH1 0xE5 SHL DUP2 MSTORE PUSH1 0x20 PUSH1 0x4 DUP3 ADD MSTORE PUSH1 0xF PUSH1 0x24 DUP3 ADD MSTORE PUSH15 0x2632BB32B61034B990333937BD32B7 PUSH1 0x89 SHL PUSH1 0x44 DUP3 ADD MSTORE PUSH1 0x64 SWAP1 REVERT JUMPDEST SWAP2 SWAP1 DUP3 SUB SWAP2 DUP3 GT PUSH2 0x6F7 JUMPI JUMP JUMPDEST PUSH2 0x160 DUP2 ADD SWAP1 DUP2 LT PUSH8 0xFFFFFFFFFFFFFFFF DUP3 GT OR PUSH2 0x2E7A JUMPI PUSH1 0x40 MSTORE JUMP JUMPDEST PUSH4 0x4E487B71 PUSH1 0xE0 SHL PUSH1 0x0 MSTORE PUSH1 0x41 PUSH1 0x4 MSTORE PUSH1 0x24 PUSH1 0x0 REVERT JUMPDEST PUSH2 0x100 DUP2 ADD SWAP1 DUP2 LT PUSH8 0xFFFFFFFFFFFFFFFF DUP3 GT OR PUSH2 0x2E7A JUMPI PUSH1 0x40 MSTORE JUMP JUMPDEST PUSH2 0x260 DUP2 ADD SWAP1 DUP2 LT PUSH8 0xFFFFFFFFFFFFFFFF DUP3 GT OR PUSH2 0x2E7A JUMPI PUSH1 0x40 MSTORE JUMP JUMPDEST SWAP1 PUSH1 0x1F DUP1 NOT SWAP2 ADD AND DUP2 ADD SWAP1 DUP2 LT PUSH8 0xFFFFFFFFFFFFFFFF DUP3 GT OR PUSH2 0x2E7A JUMPI PUSH1 0x40 MSTORE JUMP JUMPDEST ISZERO PUSH2 0x2EF3 JUMPI JUMP JUMPDEST PUSH1 0x40 MLOAD PUSH3 0x461BCD PUSH1 0xE5 SHL DUP2 MSTORE PUSH1 0x20 PUSH1 0x4 DUP3 ADD MSTORE PUSH1 0x1A PUSH1 0x24 DUP3 ADD MSTORE PUSH32 0x4C6576656C206973206E6F7420617661696C61626C6520796574000000000000 PUSH1 0x44 DUP3 ADD MSTORE PUSH1 0x64 SWAP1 REVERT JUMPDEST SWAP1 PUSH1 0xFF AND PUSH1 0x1 DUP2 LT DUP1 ISZERO PUSH2 0x2FA7 JUMPI JUMPDEST PUSH2 0xE0A JUMPI DUP1 PUSH1 0x0 MSTORE PUSH1 0x10 PUSH1 0x20 MSTORE PUSH1 0x40 PUSH1 0x0 KECCAK256 SLOAD SWAP2 DUP3 ISZERO PUSH2 0x2F9F JUMPI PUSH1 0x1 DUP1 PUSH1 0xA0 SHL SUB AND PUSH1 0x0 MSTORE PUSH1 0xA PUSH1 0x20 MSTORE PUSH1 0x40 PUSH1 0x0 KECCAK256 SWAP1 PUSH1 0x0 MSTORE PUSH1 0x20 MSTORE PUSH1 0x7 PUSH1 0x40 PUSH1 0x0 KECCAK256 ADD SLOAD PUSH2 0x2710 DUP2 MUL SWAP1 DUP1 DUP3 DIV PUSH2 0x2710 EQ SWAP1 ISZERO OR ISZERO PUSH2 0x6F7 JUMPI DIV SWAP1 JUMP JUMPDEST POP POP POP PUSH1 0x0 SWAP1 JUMP JUMPDEST POP PUSH1 0x11 DUP2 GT PUSH2 0x2F47 JUMP JUMPDEST SWAP1 PUSH1 0x1 DUP3 ADD DUP1 SWAP3 GT PUSH2 0x6F7 JUMPI JUMP JUMPDEST SWAP2 SWAP1 DUP3 ADD DUP1 SWAP3 GT PUSH2 0x6F7 JUMPI JUMP JUMPDEST SWAP2 SWAP1 PUSH1 0xFF AND SWAP2 PUSH1 0x1 DUP4 LT DUP1 ISZERO PUSH2 0x307E JUMPI JUMPDEST PUSH2 0x7C9 JUMPI PUSH1 0x1 DUP1 PUSH1 0xA0 SHL SUB AND PUSH1 0x0 MSTORE PUSH1 0xA PUSH1 0x20 MSTORE PUSH1 0x40 PUSH1 0x0 KECCAK256 DUP3 PUSH1 0x0 MSTORE PUSH1 0x20 MSTORE PUSH1 0x2 PUSH1 0x40 PUSH1 0x0 KECCAK256 ADD SLOAD SWAP2 DUP3 ISZERO PUSH2 0x306D JUMPI PUSH1 0x0 MSTORE PUSH1 0xB PUSH1 0x20 MSTORE PUSH1 0x40 PUSH1 0x0 KECCAK256 DUP3 PUSH1 0x0 MSTORE PUSH1 0x20 MSTORE PUSH1 0x40 PUSH1 0x0 KECCAK256 SWAP2 DUP3 SLOAD SWAP3 PUSH1 0x2 DUP2 ADD SLOAD SWAP4 PUSH1 0x3 DUP3 ADD SLOAD SWAP4 PUSH1 0x4 DUP4 ADD SLOAD SWAP4 SWAP3 PUSH1 0x0 SWAP4 JUMPDEST PUSH1 0x1 DUP2 GT PUSH2 0x305A JUMPI POP PUSH1 0x5 ADD SLOAD SWAP2 SWAP6 SWAP5 SWAP4 SWAP3 SWAP2 PUSH1 0xFF AND SWAP1 JUMP JUMPDEST PUSH2 0x3067 SWAP1 PUSH1 0x1 SHR SWAP5 PUSH2 0x40A2 JUMP JUMPDEST SWAP4 PUSH2 0x3041 JUMP JUMPDEST POP PUSH1 0x0 SWAP2 POP DUP2 SWAP1 DUP2 SWAP1 DUP2 SWAP1 DUP2 SWAP1 DUP2 SWAP1 JUMP JUMPDEST POP PUSH1 0x11 DUP4 GT PUSH2 0x2FDD JUMP JUMPDEST SWAP1 DUP2 PUSH1 0x20 SWAP2 SUB SLT PUSH2 0x3FE JUMPI MLOAD DUP1 ISZERO ISZERO DUP2 SUB PUSH2 0x3FE JUMPI SWAP1 JUMP JUMPDEST DUP2 ISZERO PUSH2 0x3136 JUMPI PUSH1 0x0 SWAP2 DUP3 SWAP2 DUP3 SWAP2 DUP3 SWAP2 PUSH1 0x1 PUSH1 0x1 PUSH1 0xA0 SHL SUB AND GAS CALL RETURNDATASIZE ISZERO PUSH2 0x3131 JUMPI RETURNDATASIZE PUSH8 0xFFFFFFFFFFFFFFFF DUP2 GT PUSH2 0x2E7A JUMPI PUSH1 0x40 MLOAD SWAP1 PUSH2 0x30E8 PUSH1 0x1F DUP3 ADD PUSH1 0x1F NOT AND PUSH1 0x20 ADD DUP4 PUSH2 0x2ECA JUMP JUMPDEST DUP2 MSTORE PUSH1 0x0 PUSH1 0x20 RETURNDATASIZE SWAP3 ADD RETURNDATACOPY JUMPDEST ISZERO PUSH2 0x30FA JUMPI JUMP JUMPDEST PUSH1 0x40 MLOAD PUSH3 0x461BCD PUSH1 0xE5 SHL DUP2 MSTORE PUSH1 0x20 PUSH1 0x4 DUP3 ADD MSTORE PUSH1 0xF PUSH1 0x24 DUP3 ADD MSTORE PUSH15 0x151C985B9CD9995C8819985A5B1959 PUSH1 0x8A SHL PUSH1 0x44 DUP3 ADD MSTORE PUSH1 0x64 SWAP1 REVERT JUMPDEST PUSH2 0x30F3 JUMP JUMPDEST POP POP JUMP JUMPDEST SWAP2 DUP1 ISZERO PUSH2 0x31EA JUMPI PUSH1 0x40 MLOAD PUSH4 0xA9059CBB PUSH1 0xE0 SHL DUP2 MSTORE PUSH1 0x1 PUSH1 0x1 PUSH1 0xA0 SHL SUB SWAP3 DUP4 AND PUSH1 0x4 DUP3 ADD MSTORE PUSH1 0x24 DUP2 ADD SWAP2 SWAP1 SWAP2 MSTORE SWAP2 PUSH1 0x20 SWAP2 DUP4 SWAP2 PUSH1 0x44 SWAP2 DUP4 SWAP2 PUSH1 0x0 SWAP2 AND GAS CALL SWAP1 DUP2 ISZERO PUSH2 0x778 JUMPI PUSH1 0x0 SWAP2 PUSH2 0x31CB JUMPI JUMPDEST POP ISZERO PUSH2 0x318E JUMPI JUMP JUMPDEST PUSH1 0x40 MLOAD PUSH3 0x461BCD PUSH1 0xE5 SHL DUP2 MSTORE PUSH1 0x20 PUSH1 0x4 DUP3 ADD MSTORE PUSH1 0x15 PUSH1 0x24 DUP3 ADD MSTORE PUSH21 0x151BDAD95B881D1C985B9CD9995C8819985A5B1959 PUSH1 0x5A SHL PUSH1 0x44 DUP3 ADD MSTORE PUSH1 0x64 SWAP1 REVERT JUMPDEST PUSH2 0x31E4 SWAP2 POP PUSH1 0x20 RETURNDATASIZE PUSH1 0x20 GT PUSH2 0x771 JUMPI PUSH2 0x763 DUP2 DUP4 PUSH2 0x2ECA JUMP JUMPDEST CODESIZE PUSH2 0x3186 JUMP JUMPDEST POP POP POP JUMP JUMPDEST PUSH1 0x1 PUSH1 0x1 PUSH1 0xA0 SHL SUB DUP3 AND PUSH1 0x0 SWAP1 DUP2 MSTORE PUSH1 0x9 PUSH1 0x20 SWAP1 DUP2 MSTORE PUSH1 0x40 DUP1 DUP4 KECCAK256 PUSH1 0xA DUP4 MSTORE DUP2 DUP5 KECCAK256 PUSH1 0xFF DUP1 DUP8 AND DUP7 MSTORE SWAP4 MSTORE SWAP3 KECCAK256 DUP1 SLOAD SWAP5 SWAP7 SWAP6 SWAP3 SWAP5 SWAP1 SWAP2 AND PUSH2 0x328B JUMPI PUSH2 0x3237 PUSH1 0x1 SWAP3 DUP8 DUP7 PUSH2 0x34B8 JUMP JUMPDEST DUP2 PUSH2 0xFFFF NOT DUP3 SLOAD AND OR DUP2 SSTORE ADD DUP1 SLOAD SWAP1 PUSH1 0x1 DUP3 ADD DUP1 SWAP3 GT PUSH2 0x6F7 JUMPI SSTORE PUSH1 0x4 DUP3 ADD SWAP2 DUP3 SLOAD PUSH1 0x1 DUP2 ADD DUP1 SWAP2 GT PUSH2 0x6F7 JUMPI PUSH2 0x3289 SWAP4 SSTORE PUSH1 0x11 TIMESTAMP SWAP2 ADD SSTORE PUSH2 0x3279 DUP5 DUP3 PUSH2 0x3616 JUMP JUMPDEST SWAP4 PUSH2 0x3284 DUP3 DUP3 PUSH2 0x3A19 JUMP JUMPDEST PUSH2 0x3D00 JUMP JUMPDEST JUMP JUMPDEST PUSH1 0x40 MLOAD PUSH3 0x461BCD PUSH1 0xE5 SHL DUP2 MSTORE PUSH1 0x20 PUSH1 0x4 DUP3 ADD MSTORE PUSH1 0x17 PUSH1 0x24 DUP3 ADD MSTORE PUSH32 0x4C6576656C20697320616C726561647920616374697665000000000000000000 PUSH1 0x44 DUP3 ADD MSTORE PUSH1 0x64 SWAP1 REVERT JUMPDEST DUP1 SLOAD DUP3 LT ISZERO PUSH2 0x32E8 JUMPI PUSH1 0x0 MSTORE PUSH1 0x20 PUSH1 0x0 KECCAK256 ADD SWAP1 PUSH1 0x0 SWAP1 JUMP JUMPDEST PUSH4 0x4E487B71 PUSH1 0xE0 SHL PUSH1 0x0 MSTORE PUSH1 0x32 PUSH1 0x4 MSTORE PUSH1 0x24 PUSH1 0x0 REVERT JUMPDEST PUSH1 0x0 SWAP2 PUSH1 0xFF DUP3 AND PUSH1 0x0 MSTORE PUSH1 0x19 PUSH1 0x20 MSTORE PUSH1 0x40 PUSH1 0x0 KECCAK256 PUSH1 0x0 SWAP4 DUP2 SLOAD SWAP5 JUMPDEST DUP6 DUP2 LT PUSH2 0x332B JUMPI POP POP POP POP POP POP PUSH1 0x0 SWAP1 JUMP JUMPDEST PUSH2 0x336E PUSH2 0x3338 DUP3 DUP6 PUSH2 0x32D0 JUMP JUMPDEST PUSH1 0x1 DUP1 PUSH1 0xA0 SHL SUB SWAP2 SLOAD SWAP1 PUSH1 0x3 SHL SHR AND SWAP3 DUP4 PUSH1 0x0 MSTORE PUSH1 0xA PUSH1 0x20 MSTORE PUSH1 0x7 PUSH1 0x40 DUP1 PUSH1 0x0 KECCAK256 PUSH1 0x0 SWAP1 PUSH1 0xFF DUP12 AND DUP3 MSTORE PUSH1 0x20 MSTORE KECCAK256 ADD SLOAD SWAP1 PUSH2 0x2FBF JUMP JUMPDEST SWAP2 DUP3 DUP6 GT ISZERO PUSH2 0x3380 JUMPI POP PUSH1 0x1 ADD PUSH2 0x3319 JUMP JUMPDEST SWAP6 POP POP POP POP POP POP SWAP1 JUMP JUMPDEST PUSH1 0x40 SWAP1 PUSH1 0x1 DUP1 PUSH1 0xA0 SHL SUB AND SWAP2 DUP3 PUSH1 0x0 MSTORE PUSH1 0xA PUSH1 0x20 MSTORE DUP2 PUSH1 0x0 KECCAK256 PUSH1 0xFF PUSH1 0x0 SWAP3 AND DUP3 MSTORE PUSH1 0x20 MSTORE KECCAK256 SWAP1 PUSH1 0x0 MSTORE PUSH1 0x9 PUSH1 0x20 MSTORE PUSH1 0x40 PUSH1 0x0 KECCAK256 SWAP1 PUSH1 0xFF DUP2 SLOAD PUSH1 0x8 SHR AND PUSH2 0x33EE JUMPI PUSH2 0x33EA SWAP2 PUSH1 0x8 PUSH1 0xE SWAP3 ADD PUSH2 0x33DF DUP6 DUP3 SLOAD PUSH2 0x2FBF JUMP JUMPDEST SWAP1 SSTORE ADD SWAP2 DUP3 SLOAD PUSH2 0x2FBF JUMP JUMPDEST SWAP1 SSTORE JUMP JUMPDEST PUSH2 0x33EA SWAP2 PUSH1 0x9 PUSH1 0xF SWAP3 ADD PUSH2 0x33DF DUP6 DUP3 SLOAD PUSH2 0x2FBF JUMP JUMPDEST PUSH1 0x1 DUP1 PUSH1 0xA0 SHL SUB AND SWAP1 DUP2 PUSH1 0x0 MSTORE PUSH1 0xA PUSH1 0x20 MSTORE PUSH1 0x40 PUSH1 0x0 KECCAK256 PUSH1 0xFF DUP3 AND PUSH1 0x0 MSTORE PUSH1 0x20 MSTORE PUSH1 0xFF PUSH1 0x40 PUSH1 0x0 KECCAK256 SLOAD PUSH1 0x8 SHR AND PUSH2 0x3476 JUMPI DUP2 PUSH1 0x0 MSTORE PUSH1 0x17 PUSH1 0x20 MSTORE PUSH1 0xFF PUSH1 0x40 PUSH1 0x0 KECCAK256 SWAP2 AND PUSH1 0x0 MSTORE PUSH1 0x20 MSTORE PUSH1 0x40 PUSH1 0x0 KECCAK256 PUSH2 0x345C DUP4 DUP3 SLOAD PUSH2 0x2FBF JUMP JUMPDEST SWAP1 SSTORE PUSH1 0x0 MSTORE PUSH1 0x15 PUSH1 0x20 MSTORE PUSH2 0x33EA PUSH1 0x40 PUSH1 0x0 KECCAK256 SWAP2 DUP3 SLOAD PUSH2 0x2FBF JUMP JUMPDEST DUP2 PUSH1 0x0 MSTORE PUSH1 0x18 PUSH1 0x20 MSTORE PUSH1 0xFF PUSH1 0x40 PUSH1 0x0 KECCAK256 SWAP2 AND PUSH1 0x0 MSTORE PUSH1 0x20 MSTORE PUSH1 0x40 PUSH1 0x0 KECCAK256 PUSH2 0x349E DUP4 DUP3 SLOAD PUSH2 0x2FBF JUMP JUMPDEST SWAP1 SSTORE PUSH1 0x0 MSTORE PUSH1 0x16 PUSH1 0x20 MSTORE PUSH2 0x33EA PUSH1 0x40 PUSH1 0x0 KECCAK256 SWAP2 DUP3 SLOAD PUSH2 0x2FBF JUMP JUMPDEST SWAP2 DUP3 SLOAD PUSH1 0xFF DUP2 AND PUSH2 0x35CA JUMPI PUSH1 0x1 PUSH1 0x1 PUSH1 0xA8 SHL SUB NOT AND PUSH1 0x8 DUP4 SWAP1 SHL PUSH2 0x100 PUSH1 0x1 PUSH1 0xA8 SHL SUB AND OR PUSH1 0x1 OR DUP4 SSTORE TIMESTAMP PUSH1 0x10 DUP5 ADD SSTORE PUSH1 0x1 PUSH1 0x1 PUSH1 0xA0 SHL SUB AND SWAP1 DUP2 ISZERO ISZERO SWAP1 DUP2 PUSH2 0x35B6 JUMPI JUMPDEST POP DUP1 PUSH2 0x359E JUMPI JUMPDEST PUSH2 0x350B JUMPI POP POP JUMP JUMPDEST PUSH1 0x1 DUP3 DUP2 ADD DUP1 SLOAD PUSH1 0x1 PUSH1 0x1 PUSH1 0xA0 SHL SUB NOT SWAP1 DUP2 AND DUP5 OR SWAP1 SWAP2 SSTORE PUSH1 0x0 SWAP3 DUP4 MSTORE PUSH1 0x9 PUSH1 0x20 MSTORE PUSH1 0x40 SWAP1 SWAP3 KECCAK256 ADD SLOAD PUSH1 0x2 DUP4 ADD DUP1 SLOAD PUSH1 0x1 PUSH1 0x1 PUSH1 0xA0 SHL SUB SWAP1 SWAP3 AND SWAP2 SWAP1 SWAP3 AND DUP2 OR SWAP1 SWAP2 SSTORE DUP1 PUSH2 0x357A JUMPI POP PUSH1 0x3 PUSH1 0x0 SWAP2 JUMPDEST ADD DUP1 SLOAD PUSH1 0x1 PUSH1 0x1 PUSH1 0xA0 SHL SUB NOT AND PUSH1 0x1 PUSH1 0x1 PUSH1 0xA0 SHL SUB SWAP1 SWAP3 AND SWAP2 SWAP1 SWAP2 OR SWAP1 SSTORE JUMP JUMPDEST PUSH1 0x0 SWAP1 DUP2 MSTORE PUSH1 0x9 PUSH1 0x20 MSTORE PUSH1 0x40 SWAP1 KECCAK256 PUSH1 0x1 ADD SLOAD PUSH1 0x1 PUSH1 0x1 PUSH1 0xA0 SHL SUB AND SWAP1 PUSH1 0x3 SWAP1 PUSH2 0x355A JUMP JUMPDEST POP DUP1 PUSH1 0x0 MSTORE PUSH1 0x9 PUSH1 0x20 MSTORE PUSH1 0xFF PUSH1 0x40 PUSH1 0x0 KECCAK256 SLOAD AND PUSH2 0x3503 JUMP JUMPDEST PUSH1 0x1 PUSH1 0x1 PUSH1 0xA0 SHL SUB AND DUP3 EQ ISZERO SWAP1 POP CODESIZE PUSH2 0x34FC JUMP JUMPDEST POP POP POP POP JUMP JUMPDEST DUP1 SLOAD PUSH9 0x10000000000000000 DUP2 LT ISZERO PUSH2 0x2E7A JUMPI PUSH2 0x35F2 SWAP2 PUSH1 0x1 DUP3 ADD DUP2 SSTORE PUSH2 0x32D0 JUMP JUMPDEST DUP2 SLOAD PUSH1 0x1 PUSH1 0x1 PUSH1 0xA0 SHL SUB SWAP4 DUP5 AND PUSH1 0x3 SWAP3 SWAP1 SWAP3 SHL SWAP2 DUP3 SHL SWAP4 SWAP1 SWAP2 SHL NOT AND SWAP2 SWAP1 SWAP2 OR SWAP1 SSTORE JUMP JUMPDEST SWAP2 SWAP1 SWAP2 PUSH2 0x3630 DUP2 PUSH1 0xFF AND PUSH1 0x0 MSTORE PUSH1 0xC PUSH1 0x20 MSTORE PUSH1 0x40 PUSH1 0x0 KECCAK256 SWAP1 JUMP JUMPDEST SLOAD ISZERO PUSH2 0x39F4 JUMPI JUMPDEST PUSH2 0x364E DUP2 PUSH1 0xFF AND PUSH1 0x0 MSTORE PUSH1 0xC PUSH1 0x20 MSTORE PUSH1 0x40 PUSH1 0x0 KECCAK256 SWAP1 JUMP JUMPDEST SLOAD SWAP3 DUP4 SWAP2 PUSH2 0x365B DUP4 PUSH2 0x2FB1 JUMP JUMPDEST PUSH2 0x3672 DUP3 PUSH1 0xFF AND PUSH1 0x0 MSTORE PUSH1 0xC PUSH1 0x20 MSTORE PUSH1 0x40 PUSH1 0x0 KECCAK256 SWAP1 JUMP JUMPDEST SSTORE PUSH1 0x1 DUP4 SUB PUSH2 0x39E4 JUMPI PUSH1 0x0 SWAP1 JUMPDEST PUSH2 0x3688 DUP5 PUSH2 0x466E JUMP JUMPDEST PUSH2 0x3705 DUP2 PUSH1 0x5 PUSH2 0x36B8 DUP9 PUSH2 0x36A9 DUP8 PUSH1 0xFF AND PUSH1 0x0 MSTORE PUSH1 0xB PUSH1 0x20 MSTORE PUSH1 0x40 PUSH1 0x0 KECCAK256 SWAP1 JUMP JUMPDEST SWAP1 PUSH1 0x0 MSTORE PUSH1 0x20 MSTORE PUSH1 0x40 PUSH1 0x0 KECCAK256 SWAP1 JUMP JUMPDEST DUP9 DUP2 SSTORE PUSH1 0x1 DUP2 ADD DUP1 SLOAD PUSH1 0xFF PUSH1 0xA0 SHL PUSH1 0xA0 DUP10 SWAP1 SHL AND PUSH1 0x1 PUSH1 0x1 PUSH1 0xA8 SHL SUB NOT SWAP1 SWAP2 AND PUSH1 0x1 PUSH1 0x1 PUSH1 0xA0 SHL SUB DUP12 AND OR OR SWAP1 SSTORE DUP7 PUSH1 0x2 DUP3 ADD SSTORE ADD SWAP1 PUSH2 0xFF00 DUP3 SLOAD SWAP2 ISZERO ISZERO PUSH1 0x8 SHL AND SWAP1 PUSH2 0xFF00 NOT AND OR SWAP1 SSTORE JUMP JUMPDEST DUP3 PUSH1 0x3 PUSH2 0x373A DUP5 PUSH2 0x3728 DUP9 PUSH1 0x1 DUP1 PUSH1 0xA0 SHL SUB AND PUSH1 0x0 MSTORE PUSH1 0xA PUSH1 0x20 MSTORE PUSH1 0x40 PUSH1 0x0 KECCAK256 SWAP1 JUMP JUMPDEST SWAP1 PUSH1 0xFF AND PUSH1 0x0 MSTORE PUSH1 0x20 MSTORE PUSH1 0x40 PUSH1 0x0 KECCAK256 SWAP1 JUMP JUMPDEST DUP8 PUSH1 0x2 DUP3 ADD SSTORE ADD SSTORE PUSH2 0x3759 DUP3 PUSH1 0xFF AND PUSH1 0x0 MSTORE PUSH1 0x11 PUSH1 0x20 MSTORE PUSH1 0x40 PUSH1 0x0 KECCAK256 SWAP1 JUMP JUMPDEST PUSH2 0x3763 DUP2 SLOAD PUSH2 0x2FB1 JUMP JUMPDEST SWAP1 SSTORE PUSH2 0x377C DUP3 PUSH1 0xFF AND PUSH1 0x0 MSTORE PUSH1 0x11 PUSH1 0x20 MSTORE PUSH1 0x40 PUSH1 0x0 KECCAK256 SWAP1 JUMP JUMPDEST SLOAD PUSH2 0x3794 DUP4 PUSH1 0xFF AND PUSH1 0x0 MSTORE PUSH1 0x8 PUSH1 0x20 MSTORE PUSH1 0x40 PUSH1 0x0 KECCAK256 SWAP1 JUMP JUMPDEST SSTORE PUSH2 0x37D8 PUSH2 0x37D4 PUSH2 0x37CD DUP7 PUSH2 0x37B6 DUP7 PUSH1 0xFF AND PUSH1 0x0 MSTORE PUSH1 0x1A PUSH1 0x20 MSTORE PUSH1 0x40 PUSH1 0x0 KECCAK256 SWAP1 JUMP JUMPDEST SWAP1 PUSH1 0x1 DUP1 PUSH1 0xA0 SHL SUB AND PUSH1 0x0 MSTORE PUSH1 0x20 MSTORE PUSH1 0x40 PUSH1 0x0 KECCAK256 SWAP1 JUMP JUMPDEST SLOAD PUSH1 0xFF AND SWAP1 JUMP JUMPDEST ISZERO SWAP1 JUMP JUMPDEST PUSH2 0x3994 JUMPI JUMPDEST DUP3 PUSH2 0x3834 JUMPI JUMPDEST DUP2 PUSH2 0x381C PUSH1 0xFF SWAP3 PUSH2 0x3814 PUSH32 0xD8A08C0C1F4B5E930E1DA0BD0B50635C1F9DE780C217CE3FA2A17686579146C8 SWAP6 PUSH2 0x438B JUMP JUMPDEST DUP8 DUP4 DUP9 PUSH2 0x4434 JUMP JUMPDEST PUSH1 0x40 MLOAD SWAP4 DUP5 MSTORE AND SWAP3 PUSH1 0x1 PUSH1 0x1 PUSH1 0xA0 SHL SUB AND SWAP2 PUSH1 0x20 SWAP1 LOG4 JUMP JUMPDEST PUSH2 0x384F DUP4 PUSH2 0x36A9 DUP5 PUSH1 0xFF AND PUSH1 0x0 MSTORE PUSH1 0xB PUSH1 0x20 MSTORE PUSH1 0x40 PUSH1 0x0 KECCAK256 SWAP1 JUMP JUMPDEST PUSH1 0x3 DUP2 ADD DUP1 SLOAD PUSH2 0x38C8 JUMPI PUSH1 0xFF SWAP3 DUP8 PUSH1 0x4 PUSH2 0x38BB DUP8 PUSH2 0x3728 PUSH2 0x38A1 PUSH1 0x1 PUSH32 0xD8A08C0C1F4B5E930E1DA0BD0B50635C1F9DE780C217CE3FA2A17686579146C8 SWAP12 SWAP10 DUP8 PUSH2 0x381C SWAP11 SSTORE ADD SLOAD PUSH1 0x1 DUP1 PUSH1 0xA0 SHL SUB AND SWAP1 JUMP JUMPDEST PUSH1 0x1 PUSH1 0x1 PUSH1 0xA0 SHL SUB AND PUSH1 0x0 SWAP1 DUP2 MSTORE PUSH1 0xA PUSH1 0x20 MSTORE PUSH1 0x40 SWAP1 KECCAK256 SWAP1 JUMP JUMPDEST ADD SSTORE JUMPDEST SWAP3 POP POP SWAP2 POP PUSH2 0x37E3 JUMP JUMPDEST POP SWAP5 POP PUSH1 0x4 DUP6 ADD DUP1 SLOAD ISZERO PUSH1 0x0 EQ PUSH2 0x3957 JUMPI PUSH2 0x3924 PUSH1 0x1 DUP10 SWAP8 DUP9 PUSH2 0x392A SWAP5 SSTORE PUSH2 0x38FA PUSH1 0x5 DUP3 ADD PUSH1 0x1 PUSH1 0xFF NOT DUP3 SLOAD AND OR SWAP1 SSTORE JUMP JUMPDEST ADD DUP8 PUSH1 0x5 PUSH2 0x3915 DUP8 PUSH2 0x3728 PUSH2 0x38A1 DUP7 SLOAD PUSH1 0x1 DUP1 PUSH1 0xA0 SHL SUB AND SWAP1 JUMP JUMPDEST ADD SSTORE SLOAD PUSH1 0x1 PUSH1 0x1 PUSH1 0xA0 SHL SUB AND SWAP1 JUMP JUMPDEST DUP4 PUSH2 0x425C JUMP JUMPDEST PUSH32 0xD8A08C0C1F4B5E930E1DA0BD0B50635C1F9DE780C217CE3FA2A17686579146C8 SWAP2 PUSH2 0x381C PUSH1 0xFF SWAP3 PUSH2 0x38BE JUMP JUMPDEST PUSH1 0x40 MLOAD PUSH3 0x461BCD PUSH1 0xE5 SHL DUP2 MSTORE PUSH1 0x20 PUSH1 0x4 DUP3 ADD MSTORE PUSH1 0x15 PUSH1 0x24 DUP3 ADD MSTORE PUSH21 0x14185C995B9D08185B1C9958591E4818DB1BDCD959 PUSH1 0x5A SHL PUSH1 0x44 DUP3 ADD MSTORE PUSH1 0x64 SWAP1 REVERT JUMPDEST PUSH2 0x39BF PUSH2 0x39B2 DUP6 PUSH2 0x37B6 DUP6 PUSH1 0xFF AND PUSH1 0x0 MSTORE PUSH1 0x1A PUSH1 0x20 MSTORE PUSH1 0x40 PUSH1 0x0 KECCAK256 SWAP1 JUMP JUMPDEST DUP1 SLOAD PUSH1 0xFF NOT AND PUSH1 0x1 OR SWAP1 SSTORE JUMP JUMPDEST PUSH2 0x39DF DUP5 PUSH2 0x39DA DUP5 PUSH1 0xFF AND PUSH1 0x0 MSTORE PUSH1 0x19 PUSH1 0x20 MSTORE PUSH1 0x40 PUSH1 0x0 KECCAK256 SWAP1 JUMP JUMPDEST PUSH2 0x35D0 JUMP JUMPDEST PUSH2 0x37DD JUMP JUMPDEST PUSH2 0x39EE DUP4 PUSH1 0x1 SHR SWAP1 JUMP JUMPDEST SWAP1 PUSH2 0x367F JUMP JUMPDEST PUSH2 0x3A14 PUSH2 0x3A0E DUP3 PUSH1 0xFF AND PUSH1 0x0 MSTORE PUSH1 0xC PUSH1 0x20 MSTORE PUSH1 0x40 PUSH1 0x0 KECCAK256 SWAP1 JUMP JUMPDEST PUSH1 0x1 SWAP1 SSTORE JUMP JUMPDEST PUSH2 0x3637 JUMP JUMPDEST PUSH1 0x1 PUSH1 0x1 PUSH1 0xA0 SHL SUB AND PUSH1 0x0 DUP2 DUP2 MSTORE PUSH1 0x1B PUSH1 0x20 SWAP1 DUP2 MSTORE PUSH1 0x40 DUP1 DUP4 KECCAK256 PUSH1 0xFF DUP7 AND DUP1 DUP6 MSTORE SWAP1 DUP4 MSTORE DUP2 DUP5 KECCAK256 DUP6 DUP6 MSTORE PUSH1 0x9 DUP5 MSTORE DUP3 DUP6 KECCAK256 PUSH1 0xA DUP6 MSTORE DUP4 DUP7 KECCAK256 SWAP3 DUP7 MSTORE SWAP2 SWAP1 SWAP4 MSTORE SWAP3 KECCAK256 DUP2 SLOAD SWAP5 SWAP2 PUSH2 0x3A82 PUSH2 0x3A7B PUSH1 0x7 PUSH2 0x3A71 PUSH1 0x64 DUP11 PUSH2 0x464A JUMP JUMPDEST SWAP5 ADD SWAP4 DUP5 SLOAD PUSH2 0x4602 JUMP JUMPDEST DUP1 SWAP8 PUSH2 0x2FBF JUMP JUMPDEST SWAP1 SSTORE PUSH1 0x5 DUP4 ADD PUSH2 0x3A93 DUP7 DUP3 SLOAD PUSH2 0x2FBF JUMP JUMPDEST SWAP1 SSTORE DUP5 ISZERO PUSH2 0x3B05 JUMPI PUSH1 0xFF PUSH1 0x20 SWAP3 PUSH1 0xA PUSH32 0xF3DF9E133B197DFBBA04AF8B589DD996D7080575083D89B81DD8F5FC0377DB5A SWAP6 PUSH2 0x3ACF DUP10 DUP7 SLOAD PUSH2 0x2FBF JUMP JUMPDEST DUP6 SSTORE ADD PUSH2 0x3ADD DUP9 DUP3 SLOAD PUSH2 0x2FBF JUMP JUMPDEST SWAP1 SSTORE AND SWAP5 DUP6 PUSH1 0x0 MSTORE PUSH1 0x10 DUP4 MSTORE PUSH2 0x3AF9 PUSH1 0x40 PUSH1 0x0 KECCAK256 SWAP2 DUP3 SLOAD PUSH2 0x2FBF JUMP JUMPDEST SWAP1 SSTORE SLOAD PUSH1 0x40 MLOAD SWAP1 DUP2 MSTORE LOG3 JUMP JUMPDEST POP POP POP POP POP JUMP JUMPDEST PUSH1 0x0 SWAP1 DUP4 ISZERO PUSH2 0x35CA JUMPI PUSH1 0x1 DUP1 PUSH1 0xA0 SHL SUB AND SWAP2 DUP3 DUP3 MSTORE PUSH1 0x1B PUSH1 0x20 MSTORE PUSH1 0x40 DUP3 KECCAK256 PUSH1 0xFF DUP3 AND DUP4 MSTORE PUSH1 0x20 MSTORE PUSH1 0x40 DUP3 KECCAK256 SWAP2 DUP4 DUP2 MSTORE PUSH1 0x9 PUSH1 0x20 MSTORE PUSH1 0x1 PUSH1 0x40 DUP3 KECCAK256 SWAP4 DUP6 DUP4 MSTORE PUSH1 0xA PUSH1 0x20 MSTORE PUSH1 0x40 DUP4 KECCAK256 PUSH1 0xFF DUP6 AND DUP5 MSTORE PUSH1 0x20 MSTORE PUSH1 0x40 DUP4 KECCAK256 SWAP3 POP ADD PUSH2 0x3B77 PUSH2 0x3A7B PUSH1 0x7 PUSH2 0x3A71 DUP5 SLOAD SWAP10 DUP11 PUSH2 0x4626 JUMP JUMPDEST SWAP1 SSTORE PUSH1 0x6 DUP4 ADD PUSH2 0x3A93 DUP7 DUP3 SLOAD PUSH2 0x2FBF JUMP JUMPDEST PUSH1 0x1 DUP1 PUSH1 0xA0 SHL SUB AND DUP1 PUSH1 0x0 MSTORE PUSH1 0x1B PUSH1 0x20 MSTORE PUSH1 0x40 PUSH1 0x0 KECCAK256 PUSH1 0xFF DUP4 AND PUSH1 0x0 MSTORE PUSH1 0x20 MSTORE PUSH1 0x40 PUSH1 0x0 KECCAK256 SWAP2 DUP2 PUSH1 0x0 MSTORE PUSH1 0x9 PUSH1 0x20 MSTORE PUSH1 0x40 PUSH1 0x0 KECCAK256 SWAP1 DUP3 PUSH1 0x0 MSTORE PUSH1 0xA PUSH1 0x20 MSTORE PUSH1 0x40 PUSH1 0x0 KECCAK256 PUSH1 0xFF DUP3 AND PUSH1 0x0 MSTORE PUSH1 0x20 MSTORE PUSH1 0x40 PUSH1 0x0 KECCAK256 PUSH1 0x32 PUSH1 0x3 PUSH1 0x0 SWAP7 ADD PUSH2 0x3C07 PUSH2 0x3C00 PUSH1 0x7 PUSH2 0x3BF6 DUP5 SLOAD SWAP6 DUP7 PUSH2 0x4626 JUMP JUMPDEST SWAP6 ADD SWAP5 DUP6 SLOAD PUSH2 0x4602 JUMP JUMPDEST DUP1 SWAP4 PUSH2 0x2FBF JUMP JUMPDEST SWAP1 SSTORE PUSH1 0x8 DUP5 ADD PUSH2 0x3C18 DUP3 DUP3 SLOAD PUSH2 0x2FBF JUMP JUMPDEST SWAP1 SSTORE DUP1 ISZERO PUSH2 0x3C7B JUMPI PUSH2 0x3AF9 PUSH1 0x40 PUSH1 0xFF PUSH1 0x20 SWAP6 PUSH1 0xA PUSH32 0xF3DF9E133B197DFBBA04AF8B589DD996D7080575083D89B81DD8F5FC0377DB5A SWAP9 PUSH2 0x3C59 DUP8 DUP10 SLOAD PUSH2 0x2FBF JUMP JUMPDEST DUP9 SSTORE ADD PUSH2 0x3C67 DUP7 DUP3 SLOAD PUSH2 0x2FBF JUMP JUMPDEST SWAP1 SSTORE AND SWAP8 DUP9 DUP2 MSTORE PUSH1 0x10 DUP7 MSTORE KECCAK256 SWAP2 DUP3 SLOAD PUSH2 0x2FBF JUMP JUMPDEST POP POP POP POP POP POP JUMP JUMPDEST PUSH1 0x1 DUP1 PUSH1 0xA0 SHL SUB AND DUP1 PUSH1 0x0 MSTORE PUSH1 0x1B PUSH1 0x20 MSTORE PUSH1 0x40 PUSH1 0x0 KECCAK256 PUSH1 0xFF DUP4 AND PUSH1 0x0 MSTORE PUSH1 0x20 MSTORE PUSH1 0x40 PUSH1 0x0 KECCAK256 SWAP2 DUP2 PUSH1 0x0 MSTORE PUSH1 0x9 PUSH1 0x20 MSTORE PUSH1 0x40 PUSH1 0x0 KECCAK256 SWAP1 DUP3 PUSH1 0x0 MSTORE PUSH1 0xA PUSH1 0x20 MSTORE PUSH1 0x40 PUSH1 0x0 KECCAK256 PUSH1 0xFF DUP3 AND PUSH1 0x0 MSTORE PUSH1 0x20 MSTORE PUSH1 0x40 PUSH1 0x0 KECCAK256 PUSH1 0x4 PUSH1 0xA SWAP6 ADD PUSH2 0x3CEF PUSH2 0x3A7B PUSH1 0x7 PUSH2 0x3A71 DUP5 SLOAD SWAP10 DUP11 PUSH2 0x45D2 JUMP JUMPDEST SWAP1 SSTORE PUSH1 0x9 DUP4 ADD PUSH2 0x3A93 DUP7 DUP3 SLOAD PUSH2 0x2FBF JUMP JUMPDEST SWAP1 PUSH1 0xFF AND SWAP1 PUSH1 0x1 DUP3 GT ISZERO PUSH2 0x3136 JUMPI PUSH1 0x1 JUMPDEST PUSH1 0xFF DUP2 AND DUP4 DUP2 LT ISZERO PUSH2 0x35CA JUMPI PUSH1 0xFF SWAP2 PUSH1 0x1 SWAP2 DUP3 DUP1 PUSH1 0xA0 SHL SUB DUP6 AND DUP1 PUSH1 0x0 MSTORE PUSH1 0xA PUSH1 0x20 MSTORE PUSH1 0x40 DUP1 PUSH1 0x0 KECCAK256 PUSH1 0x0 SWAP1 DUP5 DUP3 MSTORE PUSH1 0x20 MSTORE KECCAK256 DUP1 SLOAD DUP7 DUP2 PUSH1 0x8 SHR AND PUSH2 0x3D5C JUMPI JUMPDEST POP POP POP POP ADD AND PUSH2 0x3D11 JUMP JUMPDEST PUSH2 0xFF00 NOT AND DUP2 SSTORE PUSH1 0x9 DUP2 ADD DUP1 SLOAD SWAP2 DUP3 PUSH2 0x3E3C JUMPI JUMPDEST POP POP POP DUP1 PUSH1 0x0 MSTORE PUSH1 0x18 PUSH1 0x20 MSTORE PUSH1 0x40 DUP1 PUSH1 0x0 KECCAK256 PUSH1 0x0 SWAP1 DUP5 DUP3 MSTORE PUSH1 0x20 MSTORE KECCAK256 SLOAD PUSH2 0x3DC0 JUMPI JUMPDEST PUSH32 0xB0F7D96751587DE2FBB05AE8BB25971BA7CD777DE717EB3698B701D6C7739654 PUSH1 0x0 DUP1 LOG3 CODESIZE DUP1 DUP1 DUP1 PUSH2 0x3D51 JUMP JUMPDEST PUSH1 0x0 DUP2 DUP2 MSTORE PUSH1 0x18 PUSH1 0x20 SWAP1 DUP2 MSTORE PUSH1 0x40 DUP1 DUP4 KECCAK256 DUP6 DUP5 MSTORE DUP3 MSTORE DUP1 DUP4 KECCAK256 DUP1 SLOAD SWAP1 DUP5 SWAP1 SSTORE DUP5 DUP5 MSTORE PUSH1 0x17 DUP4 MSTORE DUP2 DUP5 KECCAK256 DUP7 DUP6 MSTORE SWAP1 SWAP3 MSTORE SWAP1 SWAP2 KECCAK256 DUP1 SLOAD PUSH2 0x3DFF SWAP1 DUP4 SWAP1 PUSH2 0x2FBF JUMP JUMPDEST SWAP1 SSTORE DUP2 PUSH1 0x0 MSTORE PUSH1 0x16 PUSH1 0x20 MSTORE PUSH1 0x40 PUSH1 0x0 KECCAK256 PUSH2 0x3E1A DUP3 DUP3 SLOAD PUSH2 0x2E50 JUMP JUMPDEST SWAP1 SSTORE DUP2 PUSH1 0x0 MSTORE PUSH1 0x15 PUSH1 0x20 MSTORE PUSH2 0x3E35 PUSH1 0x40 PUSH1 0x0 KECCAK256 SWAP2 DUP3 SLOAD PUSH2 0x2FBF JUMP JUMPDEST SWAP1 SSTORE PUSH2 0x3D92 JUMP JUMPDEST PUSH1 0x0 PUSH1 0x8 SWAP3 SSTORE ADD PUSH2 0x3E4E DUP3 DUP3 SLOAD PUSH2 0x2FBF JUMP JUMPDEST SWAP1 SSTORE DUP2 PUSH1 0x0 MSTORE PUSH1 0x9 PUSH1 0x20 MSTORE PUSH1 0xF PUSH1 0x40 PUSH1 0x0 KECCAK256 ADD PUSH2 0x3E6C DUP3 DUP3 SLOAD PUSH2 0x2E50 JUMP JUMPDEST SWAP1 SSTORE DUP2 PUSH1 0x0 MSTORE PUSH1 0x9 PUSH1 0x20 MSTORE PUSH2 0x3E8A PUSH1 0xE PUSH1 0x40 PUSH1 0x0 KECCAK256 ADD SWAP2 DUP3 SLOAD PUSH2 0x2FBF JUMP JUMPDEST SWAP1 SSTORE CODESIZE DUP1 DUP1 PUSH2 0x3D70 JUMP JUMPDEST SWAP1 SWAP3 SWAP2 PUSH1 0x1 PUSH1 0x1 PUSH1 0xA0 SHL SUB DUP3 AND SWAP2 DUP3 ISZERO DUP1 ISZERO PUSH2 0x3F3A JUMPI JUMPDEST PUSH2 0x3F19 JUMPI PUSH1 0xFF DUP3 PUSH2 0x3EFE PUSH1 0x64 PUSH32 0xC0DC322D34D7E6A06259BE3BAC607C8BA2EB3200163A637AD7F20A70EBC11D7B SWAP6 PUSH1 0x40 SWAP6 DUP9 PUSH1 0x0 MSTORE PUSH1 0x9 PUSH1 0x20 MSTORE PUSH1 0xD DUP8 PUSH1 0x0 KECCAK256 ADD PUSH2 0x3EF7 DUP12 DUP3 SLOAD PUSH2 0x2FBF JUMP JUMPDEST SWAP1 SSTORE PUSH2 0x3B0C JUMP JUMPDEST DUP3 MLOAD SWAP6 DUP7 MSTORE PUSH1 0x64 PUSH1 0x20 DUP8 ADD MSTORE AND SWAP5 PUSH1 0x1 PUSH1 0x1 PUSH1 0xA0 SHL SUB AND SWAP4 LOG4 JUMP JUMPDEST POP SWAP1 POP PUSH1 0xFF SWAP2 SWAP3 POP AND PUSH1 0x0 MSTORE PUSH1 0xE PUSH1 0x20 MSTORE PUSH2 0x33EA PUSH1 0x40 PUSH1 0x0 KECCAK256 SWAP2 DUP3 SLOAD PUSH2 0x2FBF JUMP JUMPDEST POP DUP3 PUSH1 0x0 MSTORE PUSH1 0x9 PUSH1 0x20 MSTORE PUSH1 0xFF PUSH1 0x40 PUSH1 0x0 KECCAK256 SLOAD AND ISZERO PUSH2 0x3EAB JUMP JUMPDEST SWAP1 SWAP3 SWAP2 PUSH1 0x1 PUSH1 0x1 PUSH1 0xA0 SHL SUB DUP3 AND SWAP2 PUSH1 0x0 SWAP1 DUP4 ISZERO DUP1 ISZERO PUSH2 0x3FF3 JUMPI JUMPDEST PUSH2 0x3FD4 JUMPI DUP3 DUP3 PUSH2 0x3FB8 PUSH1 0x32 PUSH32 0x76A46DBE9B38553BA3F9366DDE5DFAB2AE45AE902483379A3F0CB6EB5B74D422 SWAP7 PUSH1 0xFF SWAP6 DUP10 PUSH1 0x40 SWAP9 MSTORE PUSH1 0x9 PUSH1 0x20 MSTORE PUSH1 0xD DUP9 DUP7 KECCAK256 ADD PUSH2 0x3EF7 DUP13 DUP3 SLOAD PUSH2 0x2FBF JUMP JUMPDEST POP DUP3 MLOAD SWAP6 DUP7 MSTORE PUSH1 0x32 PUSH1 0x20 DUP8 ADD MSTORE AND SWAP5 PUSH1 0x1 PUSH1 0x1 PUSH1 0xA0 SHL SUB AND SWAP4 LOG4 JUMP JUMPDEST POP SWAP1 PUSH2 0x33EA SWAP4 SWAP5 POP PUSH1 0x40 SWAP3 POP PUSH1 0xFF AND DUP2 MSTORE PUSH1 0xE PUSH1 0x20 MSTORE KECCAK256 SWAP2 DUP3 SLOAD PUSH2 0x2FBF JUMP JUMPDEST POP DUP4 DUP3 MSTORE PUSH1 0x9 PUSH1 0x20 MSTORE PUSH1 0xFF PUSH1 0x40 DUP4 KECCAK256 SLOAD AND ISZERO PUSH2 0x3F6D JUMP JUMPDEST SWAP1 SWAP3 SWAP2 PUSH1 0x1 PUSH1 0x1 PUSH1 0xA0 SHL SUB DUP3 AND SWAP2 PUSH1 0x0 SWAP1 DUP4 ISZERO DUP1 ISZERO PUSH2 0x408B JUMPI JUMPDEST PUSH2 0x3FD4 JUMPI DUP3 DUP3 PUSH2 0x406F PUSH1 0x19 PUSH32 0xB81FBCD4B084AE8778037D60E56C538CEBACB837E72623E7B204170ADDC1E24B SWAP7 PUSH1 0xFF SWAP6 DUP10 PUSH1 0x40 SWAP9 MSTORE PUSH1 0x9 PUSH1 0x20 MSTORE PUSH1 0xD DUP9 DUP7 KECCAK256 ADD PUSH2 0x3EF7 DUP13 DUP3 SLOAD PUSH2 0x2FBF JUMP JUMPDEST POP DUP3 MLOAD SWAP6 DUP7 MSTORE PUSH1 0x19 PUSH1 0x20 DUP8 ADD MSTORE AND SWAP5 PUSH1 0x1 PUSH1 0x1 PUSH1 0xA0 SHL SUB AND SWAP4 LOG4 JUMP JUMPDEST POP DUP4 DUP3 MSTORE PUSH1 0x9 PUSH1 0x20 MSTORE PUSH1 0xFF PUSH1 0x40 DUP4 KECCAK256 SLOAD AND ISZERO PUSH2 0x4024 JUMP JUMPDEST PUSH1 0x0 NOT DUP2 EQ PUSH2 0x6F7 JUMPI PUSH1 0x1 ADD SWAP1 JUMP JUMPDEST SWAP1 SWAP3 SWAP2 PUSH1 0x1 PUSH1 0x1 PUSH1 0xA0 SHL SUB DUP3 AND SWAP2 DUP3 ISZERO DUP1 ISZERO PUSH2 0x4132 JUMPI JUMPDEST PUSH2 0x4111 JUMPI PUSH1 0xFF DUP3 PUSH2 0x3EFE PUSH1 0x64 PUSH32 0xC0DC322D34D7E6A06259BE3BAC607C8BA2EB3200163A637AD7F20A70EBC11D7B SWAP6 PUSH1 0x40 SWAP6 DUP9 PUSH1 0x0 MSTORE PUSH1 0x14 PUSH1 0x20 MSTORE DUP7 PUSH1 0x0 KECCAK256 PUSH2 0x3EF7 DUP12 DUP3 SLOAD PUSH2 0x2FBF JUMP JUMPDEST POP SWAP1 POP PUSH1 0xFF SWAP2 SWAP3 POP AND PUSH1 0x0 MSTORE PUSH1 0xF PUSH1 0x20 MSTORE PUSH2 0x33EA PUSH1 0x40 PUSH1 0x0 KECCAK256 SWAP2 DUP3 SLOAD PUSH2 0x2FBF JUMP JUMPDEST POP DUP3 PUSH1 0x0 MSTORE PUSH1 0x9 PUSH1 0x20 MSTORE PUSH1 0xFF PUSH1 0x40 PUSH1 0x0 KECCAK256 SLOAD AND ISZERO PUSH2 0x40C8 JUMP JUMPDEST SWAP1 SWAP3 SWAP2 PUSH1 0x1 PUSH1 0x1 PUSH1 0xA0 SHL SUB DUP3 AND SWAP2 PUSH1 0x0 SWAP1 DUP4 ISZERO DUP1 ISZERO PUSH2 0x41CC JUMPI JUMPDEST PUSH2 0x41AD JUMPI DUP3 DUP3 PUSH2 0x3FB8 PUSH1 0x32 PUSH32 0x76A46DBE9B38553BA3F9366DDE5DFAB2AE45AE902483379A3F0CB6EB5B74D422 SWAP7 PUSH1 0xFF SWAP6 DUP10 PUSH1 0x40 SWAP9 MSTORE PUSH1 0x14 PUSH1 0x20 MSTORE DUP8 DUP6 KECCAK256 PUSH2 0x3EF7 DUP13 DUP3 SLOAD PUSH2 0x2FBF JUMP JUMPDEST POP SWAP1 PUSH2 0x33EA SWAP4 SWAP5 POP PUSH1 0x40 SWAP3 POP PUSH1 0xFF AND DUP2 MSTORE PUSH1 0xF PUSH1 0x20 MSTORE KECCAK256 SWAP2 DUP3 SLOAD PUSH2 0x2FBF JUMP JUMPDEST POP DUP4 DUP3 MSTORE PUSH1 0x9 PUSH1 0x20 MSTORE PUSH1 0xFF PUSH1 0x40 DUP4 KECCAK256 SLOAD AND ISZERO PUSH2 0x4165 JUMP JUMPDEST SWAP1 SWAP3 SWAP2 PUSH1 0x1 PUSH1 0x1 PUSH1 0xA0 SHL SUB DUP3 AND SWAP2 PUSH1 0x0 SWAP1 DUP4 ISZERO DUP1 ISZERO PUSH2 0x4245 JUMPI JUMPDEST PUSH2 0x41AD JUMPI DUP3 DUP3 PUSH2 0x406F PUSH1 0x19 PUSH32 0xB81FBCD4B084AE8778037D60E56C538CEBACB837E72623E7B204170ADDC1E24B SWAP7 PUSH1 0xFF SWAP6 DUP10 PUSH1 0x40 SWAP9 MSTORE PUSH1 0x14 PUSH1 0x20 MSTORE DUP8 DUP6 KECCAK256 PUSH2 0x3EF7 DUP13 DUP3 SLOAD PUSH2 0x2FBF JUMP JUMPDEST POP DUP4 DUP3 MSTORE PUSH1 0x9 PUSH1 0x20 MSTORE PUSH1 0xFF PUSH1 0x40 DUP4 KECCAK256 SLOAD AND ISZERO PUSH2 0x41FD JUMP JUMPDEST PUSH1 0x1 PUSH1 0x1 PUSH1 0xA0 SHL SUB DUP3 AND PUSH1 0x0 SWAP1 DUP2 MSTORE PUSH1 0xA PUSH1 0x20 MSTORE PUSH1 0x40 SWAP1 KECCAK256 PUSH2 0x427F SWAP1 DUP3 SWAP1 PUSH2 0x3728 JUMP JUMPDEST PUSH2 0x428D PUSH2 0x37D4 DUP3 SLOAD PUSH1 0xFF AND SWAP1 JUMP JUMPDEST PUSH2 0x31EA JUMPI PUSH1 0x6 ADD SWAP2 PUSH2 0x429F DUP4 SLOAD PUSH2 0x2FB1 JUMP JUMPDEST DUP4 SSTORE PUSH1 0x1 PUSH1 0x1 PUSH1 0xA0 SHL SUB DUP2 AND PUSH1 0x0 SWAP1 DUP2 MSTORE PUSH1 0x9 PUSH1 0x20 MSTORE PUSH1 0x40 SWAP1 KECCAK256 PUSH1 0xC ADD PUSH2 0x42C6 DUP2 SLOAD PUSH2 0x2FB1 JUMP JUMPDEST SWAP1 SSTORE PUSH1 0x1 PUSH1 0x1 PUSH1 0xA0 SHL SUB DUP2 AND PUSH1 0x0 SWAP1 DUP2 MSTORE PUSH1 0x9 PUSH1 0x20 MSTORE PUSH1 0x40 SWAP1 KECCAK256 PUSH1 0xB ADD PUSH2 0x42ED DUP2 SLOAD PUSH2 0x2FB1 JUMP JUMPDEST SWAP1 SSTORE PUSH2 0x42F9 DUP3 DUP3 PUSH2 0x3B88 JUMP JUMPDEST PUSH2 0x4303 DUP3 DUP3 PUSH2 0x3C83 JUMP JUMPDEST PUSH2 0x430D DUP2 DUP4 PUSH2 0x3616 JUMP JUMPDEST SWAP3 SLOAD PUSH1 0x40 DUP1 MLOAD SWAP2 DUP3 MSTORE PUSH1 0x20 DUP3 ADD SWAP5 SWAP1 SWAP5 MSTORE PUSH2 0x3289 SWAP4 PUSH1 0xFF DUP5 AND SWAP2 PUSH1 0x1 PUSH1 0x1 PUSH1 0xA0 SHL SUB DUP5 AND SWAP2 DUP4 SWAP2 DUP4 SWAP2 PUSH32 0xBDE1DD97B8C6B9FB71194209F50387CCCF9EC5CC5C0E9AA18B13C93CF78CE6E8 SWAP2 LOG3 PUSH1 0x40 MLOAD PUSH1 0x1 DUP2 MSTORE PUSH32 0xC216FCBBB04C29351601C08C37331F5699A51282F48DA79353B90AB10FF89487 SWAP1 PUSH1 0x20 SWAP1 LOG3 PUSH2 0x468F JUMP JUMPDEST PUSH1 0xFF AND DUP1 PUSH1 0x0 MSTORE PUSH1 0xD PUSH1 0x20 MSTORE PUSH1 0x40 PUSH1 0x0 KECCAK256 SLOAD SWAP1 DUP2 ISZERO PUSH2 0x442B JUMPI JUMPDEST SWAP1 JUMPDEST DUP2 PUSH1 0x0 MSTORE PUSH1 0xC PUSH1 0x20 MSTORE PUSH1 0x40 PUSH1 0x0 KECCAK256 SLOAD DUP2 LT DUP1 PUSH2 0x4404 JUMPI JUMPDEST ISZERO PUSH2 0x43D1 JUMPI PUSH2 0x43CC SWAP1 PUSH2 0x40A2 JUMP JUMPDEST PUSH2 0x43A7 JUMP JUMPDEST DUP2 PUSH1 0x0 MSTORE PUSH1 0xC PUSH1 0x20 MSTORE PUSH1 0x40 PUSH1 0x0 KECCAK256 SLOAD DUP2 LT PUSH1 0x0 EQ PUSH2 0x43FB JUMPI SWAP1 JUMPDEST PUSH1 0x0 MSTORE PUSH1 0xD PUSH1 0x20 MSTORE PUSH1 0x40 PUSH1 0x0 KECCAK256 SSTORE JUMP JUMPDEST POP PUSH1 0x0 SWAP1 PUSH2 0x43EB JUMP JUMPDEST POP DUP2 PUSH1 0x0 MSTORE PUSH1 0xB PUSH1 0x20 MSTORE PUSH1 0x40 PUSH1 0x0 KECCAK256 DUP2 PUSH1 0x0 MSTORE PUSH1 0x20 MSTORE PUSH1 0xFF PUSH1 0x5 PUSH1 0x40 PUSH1 0x0 KECCAK256 ADD SLOAD AND PUSH2 0x43BE JUMP JUMPDEST PUSH1 0x1 SWAP2 POP PUSH2 0x43A5 JUMP JUMPDEST SWAP3 ISZERO PUSH2 0x31EA JUMPI PUSH1 0xFF DUP2 AND SWAP2 DUP3 PUSH1 0x0 MSTORE PUSH1 0xE PUSH1 0x20 MSTORE PUSH1 0x40 PUSH1 0x0 KECCAK256 SLOAD PUSH2 0x1F4 DUP2 MUL SWAP1 DUP1 DUP3 DIV PUSH2 0x1F4 EQ SWAP1 ISZERO OR ISZERO PUSH2 0x6F7 JUMPI PUSH2 0x2710 SWAP1 DIV SWAP2 DUP4 PUSH1 0x0 MSTORE PUSH1 0xF PUSH1 0x20 MSTORE PUSH1 0x40 PUSH1 0x0 KECCAK256 SLOAD PUSH2 0x1F4 DUP2 MUL SWAP1 DUP1 DUP3 DIV PUSH2 0x1F4 EQ SWAP1 ISZERO OR ISZERO PUSH2 0x6F7 JUMPI DUP5 PUSH2 0x2710 DUP5 SWAP3 DIV SWAP5 DUP1 PUSH2 0x4548 JUMPI JUMPDEST POP POP POP DUP3 PUSH2 0x44AA JUMPI POP POP POP POP POP JUMP JUMPDEST PUSH32 0x57CCA56D6AEA4F955145B97472F1141F1BB79A9D1BF59EA9DD3AD72466AD54AE SWAP2 PUSH2 0x44F4 DUP5 PUSH1 0x60 SWAP4 DUP8 PUSH1 0x0 MSTORE PUSH1 0xF PUSH1 0x20 MSTORE PUSH1 0x40 PUSH1 0x0 KECCAK256 PUSH2 0x44EC DUP4 DUP3 SLOAD PUSH2 0x2E50 JUMP JUMPDEST SWAP1 SSTORE DUP9 PUSH2 0x3403 JUMP JUMPDEST PUSH1 0x1 DUP1 PUSH1 0xA0 SHL SUB PUSH1 0x4 SLOAD AND SWAP6 PUSH1 0x1 DUP1 PUSH1 0xA0 SHL SUB AND SWAP4 DUP5 PUSH1 0x0 MSTORE PUSH1 0xA PUSH1 0x20 MSTORE PUSH1 0x40 PUSH1 0x0 KECCAK256 DUP7 PUSH1 0x0 MSTORE PUSH1 0x20 MSTORE PUSH1 0xFF PUSH1 0x40 PUSH1 0x0 KECCAK256 SLOAD PUSH1 0x8 SHR AND SWAP1 PUSH1 0x40 MLOAD SWAP3 DUP4 MSTORE PUSH1 0x20 DUP4 ADD MSTORE ISZERO ISZERO PUSH1 0x40 DUP3 ADD MSTORE LOG4 CODESIZE DUP1 DUP1 DUP1 DUP1 PUSH2 0x3B05 JUMP JUMPDEST DUP2 PUSH1 0x0 MSTORE PUSH1 0xE PUSH1 0x20 MSTORE PUSH1 0x40 PUSH1 0x0 KECCAK256 PUSH2 0x4561 DUP3 DUP3 SLOAD PUSH2 0x2E50 JUMP JUMPDEST SWAP1 SSTORE PUSH2 0x456E DUP2 DUP6 DUP11 PUSH2 0x338A JUMP JUMPDEST PUSH1 0x1 PUSH1 0x1 PUSH1 0xA0 SHL SUB DUP9 AND PUSH1 0x0 DUP2 DUP2 MSTORE PUSH1 0xA PUSH1 0x20 SWAP1 DUP2 MSTORE PUSH1 0x40 DUP1 DUP4 KECCAK256 DUP7 DUP5 MSTORE DUP3 MSTORE SWAP2 DUP3 SWAP1 KECCAK256 SLOAD DUP3 MLOAD SWAP5 DUP6 MSTORE PUSH1 0x8 SHR PUSH1 0xFF AND ISZERO ISZERO SWAP1 DUP5 ADD MSTORE SWAP1 SWAP2 PUSH32 0xF349EC77F93FC0622775AD3B5561A9BA55F1A991E72DF46ED77BC72C724025B8 SWAP2 SWAP1 LOG4 DUP2 DUP5 CODESIZE PUSH2 0x449B JUMP JUMPDEST PUSH2 0x1F4 DUP2 LT ISZERO PUSH2 0x45FB JUMPI PUSH2 0x1F4 SUB SWAP1 PUSH2 0x1F4 DUP3 GT PUSH2 0x6F7 JUMPI DUP2 DUP2 GT ISZERO PUSH2 0x45F6 JUMPI POP SWAP1 JUMP JUMPDEST SWAP1 POP SWAP1 JUMP JUMPDEST POP POP PUSH1 0x0 SWAP1 JUMP JUMPDEST PUSH2 0x1388 DUP2 LT ISZERO PUSH2 0x45FB JUMPI PUSH2 0x1388 SUB SWAP1 PUSH2 0x1388 DUP3 GT PUSH2 0x6F7 JUMPI DUP2 DUP2 GT ISZERO PUSH2 0x45F6 JUMPI POP SWAP1 JUMP JUMPDEST PUSH2 0x7D0 DUP2 LT ISZERO PUSH2 0x45FB JUMPI PUSH2 0x7D0 SUB SWAP1 PUSH2 0x7D0 DUP3 GT PUSH2 0x6F7 JUMPI DUP2 DUP2 GT ISZERO PUSH2 0x45F6 JUMPI POP SWAP1 JUMP JUMPDEST PUSH2 0x3E8 DUP2 LT ISZERO PUSH2 0x45FB JUMPI PUSH2 0x3E8 SUB SWAP1 PUSH2 0x3E8 DUP3 GT PUSH2 0x6F7 JUMPI DUP2 DUP2 GT ISZERO PUSH2 0x45F6 JUMPI POP SWAP1 JUMP JUMPDEST PUSH1 0x7 DUP2 LT ISZERO SWAP1 DUP2 PUSH2 0x467D JUMPI POP SWAP1 JUMP JUMPDEST SWAP1 POP PUSH1 0x1 DUP2 ADD DUP1 DUP3 GT PUSH2 0x6F7 JUMPI AND ISZERO SWAP1 JUMP JUMPDEST PUSH1 0x1 PUSH1 0x1 PUSH1 0xA0 SHL SUB AND PUSH1 0x0 DUP2 DUP2 MSTORE PUSH1 0xA PUSH1 0x20 SWAP1 DUP2 MSTORE PUSH1 0x40 DUP1 DUP4 KECCAK256 PUSH1 0xFF SWAP6 SWAP1 SWAP6 AND DUP1 DUP5 MSTORE SWAP5 SWAP1 SWAP2 MSTORE SWAP1 KECCAK256 PUSH1 0x11 DUP4 LT DUP1 PUSH2 0x474D JUMPI JUMPDEST DUP1 PUSH2 0x471A JUMPI JUMPDEST DUP1 PUSH2 0x470B JUMPI JUMPDEST PUSH2 0x46D7 JUMPI POP POP POP JUMP JUMPDEST DUP1 SLOAD PUSH2 0xFF00 NOT AND PUSH2 0x100 OR SWAP1 SSTORE PUSH32 0x9EEDAD69E1DA086C8D70014EDEF61ADDC1D62BFDF25B1DCD3484AD720B970762 PUSH1 0x0 DUP1 LOG3 JUMP JUMPDEST POP PUSH1 0xFF DUP2 SLOAD PUSH1 0x8 SHR AND ISZERO PUSH2 0x46CE JUMP JUMPDEST POP DUP2 PUSH1 0x0 MSTORE PUSH1 0xA PUSH1 0x20 MSTORE PUSH1 0x40 PUSH1 0x0 KECCAK256 PUSH1 0x1 DUP5 ADD PUSH1 0xFF DUP2 GT PUSH2 0x6F7 JUMPI PUSH1 0xFF AND PUSH1 0x0 MSTORE PUSH1 0x20 MSTORE PUSH1 0xFF PUSH1 0x40 PUSH1 0x0 KECCAK256 SLOAD AND ISZERO PUSH2 0x46C8 JUMP JUMPDEST POP PUSH1 0x2 PUSH1 0x6 DUP3 ADD SLOAD LT ISZERO PUSH2 0x46C2 JUMP INVALID LOG2 PUSH5 0x6970667358 0x22 SLT KECCAK256 0xAD SAR 0x4D BLOCKHASH PUSH27 0x9E118D0CDC9F1241BA884597AADD53E5D7EA303E1E8333894478BD PUSH5 0x736F6C6343 STOP ADDMOD 0x23 STOP CALLER "},"methodIdentifiers":{"BASE_ACTIVATION_WEIGHT()":"90f7c71a","BOX_NFT_WEIGHT()":"f178fb1b","BPS()":"249d39e9","DIRECT_REF_BPS()":"308c6109","DIRECT_REF_WEIGHT()":"26728174","DRAW_REWARD_BPS()":"9b3728e8","LEVEL_COUNT()":"1d6a884b","MATRIX_PRIZE_BPS()":"72d686bf","MAX_BASE_WEIGHT_PER_LEVEL()":"f943cbc6","MAX_LOYALTY_WEIGHT_PER_LEVEL()":"31b161a7","MAX_MATRIX_WEIGHT_PER_LEVEL()":"1a1478c3","MAX_NFT_WEIGHT_PER_LEVEL()":"50da23dc","MAX_REFERRAL_WEIGHT_PER_LEVEL()":"c8f17ce3","MAX_TOTAL_WEIGHT_PER_LEVEL()":"5042a91f","PRIZE_POSITION_BPS()":"24bdc3a7","PROJECT_FEE_BPS()":"f9335139","RECYCLE_MATRIX_WEIGHT()":"2f5ced04","SECOND_REF_BPS()":"852f8299","SECOND_REF_WEIGHT()":"f6d5f69a","THIRD_REF_BPS()":"7f3255a8","THIRD_REF_WEIGHT()":"9fef6862","WEEKLY_LOYALTY_WEIGHT()":"4d69a4cd","WEIGHT_SCALE()":"333fedad","activateLevel(uint8,address)":"48d46be1","activateLevelWithUSDC(uint8,address)":"f4f5058d","activeCellsByLevel(uint8)":"dbba0540","claimPrize(uint8)":"c864ce56","claimPrizeUSDC(uint8)":"3f896dd9","claimReferralBonus()":"1e375ab9","claimReferralBonusUSDC()":"edfae883","claimablePrizeUsdc(address)":"6b09f539","claimablePrizeUsdcByLevel(address,uint8)":"f935c2d6","claimableReferralBonusUsdc(address)":"c7fcb8c3","getLevelMatrixStats(uint8)":"b9aee263","getLevelStats(uint8)":"22fbfe80","getLevelStatsUSDC(uint8)":"26e0cfe7","getMatrixNode(uint8,uint256)":"4a57c6d9","getNextPrizeCell(uint8,uint256)":"b75b688b","getPlayer(address)":"5c12cd4b","getPlayerChance(address,uint8)":"7dcda2d4","getPlayerLevel(address,uint8)":"a0978ac2","getPlayerLevelFull(address,uint8)":"40261fbb","getPlayerPosition(address,uint8)":"d2a16080","getPlayerTokenRewards(address,uint8)":"4ca3696c","getPlayerWeight(address,uint8)":"03a65dfa","isLevelActive(address,uint8)":"75b7d7c1","isLevelFrozen(address,uint8)":"0e475efd","levelAvailable(uint8)":"52ebb227","levelMatrixSize(uint8)":"c05db4ce","levelPrices(uint8)":"2e50d906","levelPricesUsdc(uint8)":"04eb2734","matrixNodes(uint8,uint256)":"94cecff8","matrixPrizePools(uint8)":"8c5b8ea5","matrixPrizePoolsUsdc(uint8)":"e8a8bd5c","nextCellId(uint8)":"ce9fffaa","nextOpenParentCellId(uint8)":"52f5c84e","operatorWallet()":"f90ef4ac","owner()":"8da5cb5b","pendingPrizeUsdc(address)":"86b8f4a1","pendingPrizeUsdcByLevel(address,uint8)":"bea99035","playerLevels(address,uint8)":"5c602d9e","players(address)":"e2eb41ff","projectFeesAccrued()":"19a08594","projectFeesAccruedUsdc()":"e26f7c46","projectWallet()":"beb08ab9","requestDraw(uint8)":"e69d2ca7","setLevelAvailable(uint8,bool)":"ed270c16","setLevelPrice(uint8,uint256)":"8eb657c4","setLevelPriceUSDC(uint8,uint256)":"3d5efbae","setUsdcToken(address)":"5d886f22","setWallets(address,address,address)":"75cb1bd1","totalWeightByLevel(uint8)":"8d2724f9","transferOwnership(address)":"f2fde38b","treasuryWallet()":"4626402b","usdcToken()":"11eac855","withdrawProjectFees()":"7a7c7a6a","withdrawProjectFeesUSDC()":"306bf6bb"}}}}}