{"contracts/EasyGame.sol":{"EasyGame":{"abi":[{"inputs":[{"internalType":"address payable","name":"treasuryAddress","type":"address"}],"stateMutability":"nonpayable","type":"constructor"},{"anonymous":false,"inputs":[{"indexed":true,"internalType":"address","name":"player","type":"address"},{"indexed":true,"internalType":"uint8","name":"level","type":"uint8"},{"indexed":false,"internalType":"uint256","name":"amount","type":"uint256"},{"indexed":true,"internalType":"address","name":"inviter","type":"address"}],"name":"LevelActivated","type":"event"},{"anonymous":false,"inputs":[{"indexed":true,"internalType":"address","name":"player","type":"address"},{"indexed":true,"internalType":"uint8","name":"level","type":"uint8"}],"name":"LevelFrozen","type":"event"},{"anonymous":false,"inputs":[{"indexed":true,"internalType":"uint8","name":"level","type":"uint8"},{"indexed":false,"internalType":"uint256","name":"oldPrice","type":"uint256"},{"indexed":false,"internalType":"uint256","name":"newPrice","type":"uint256"}],"name":"LevelPriceChanged","type":"event"},{"anonymous":false,"inputs":[{"indexed":true,"internalType":"address","name":"player","type":"address"},{"indexed":true,"internalType":"uint8","name":"level","type":"uint8"}],"name":"LevelUnfrozen","type":"event"},{"anonymous":false,"inputs":[{"indexed":true,"internalType":"address","name":"player","type":"address"},{"indexed":true,"internalType":"uint8","name":"level","type":"uint8"},{"indexed":false,"internalType":"uint256","name":"positionId","type":"uint256"},{"indexed":false,"internalType":"uint256","name":"parentId","type":"uint256"}],"name":"MatrixPlaced","type":"event"},{"anonymous":false,"inputs":[{"indexed":true,"internalType":"address","name":"from","type":"address"},{"indexed":true,"internalType":"address","name":"to","type":"address"},{"indexed":true,"internalType":"uint8","name":"level","type":"uint8"},{"indexed":false,"internalType":"uint256","name":"amount","type":"uint256"}],"name":"MatrixRewardPaid","type":"event"},{"anonymous":false,"inputs":[{"indexed":true,"internalType":"address","name":"oldOperatorWallet","type":"address"},{"indexed":true,"internalType":"address","name":"newOperatorWallet","type":"address"}],"name":"OperatorWalletChanged","type":"event"},{"anonymous":false,"inputs":[{"indexed":true,"internalType":"address","name":"player","type":"address"},{"indexed":true,"internalType":"uint8","name":"level","type":"uint8"},{"indexed":false,"internalType":"uint256","name":"cycle","type":"uint256"},{"indexed":false,"internalType":"uint256","name":"newPositionId","type":"uint256"}],"name":"Recycled","type":"event"},{"anonymous":false,"inputs":[{"indexed":true,"internalType":"address","name":"player","type":"address"},{"indexed":true,"internalType":"address","name":"receiver","type":"address"},{"indexed":false,"internalType":"uint8","name":"line","type":"uint8"},{"indexed":false,"internalType":"uint256","name":"amount","type":"uint256"}],"name":"ReferralPaid","type":"event"},{"anonymous":false,"inputs":[{"indexed":true,"internalType":"address","name":"oldTreasury","type":"address"},{"indexed":true,"internalType":"address","name":"newTreasury","type":"address"}],"name":"TreasuryChanged","type":"event"},{"inputs":[],"name":"LEVEL_COUNT","outputs":[{"internalType":"uint8","name":"","type":"uint8"}],"stateMutability":"view","type":"function"},{"inputs":[{"internalType":"uint8","name":"level","type":"uint8"},{"internalType":"address","name":"inviter","type":"address"}],"name":"activateLevel","outputs":[],"stateMutability":"payable","type":"function"},{"inputs":[{"internalType":"uint8","name":"level","type":"uint8"}],"name":"getLevelMatrixStats","outputs":[{"internalType":"uint256","name":"size","type":"uint256"},{"internalType":"uint256","name":"nextOpenParentId","type":"uint256"}],"stateMutability":"view","type":"function"},{"inputs":[{"internalType":"uint8","name":"level","type":"uint8"},{"internalType":"uint256","name":"positionId","type":"uint256"}],"name":"getMatrixNode","outputs":[{"internalType":"address","name":"player","type":"address"},{"internalType":"uint256","name":"parentId","type":"uint256"},{"internalType":"uint256","name":"leftChildId","type":"uint256"},{"internalType":"uint256","name":"rightChildId","type":"uint256"},{"internalType":"uint256","name":"depth","type":"uint256"},{"internalType":"bool","name":"closed","type":"bool"}],"stateMutability":"view","type":"function"},{"inputs":[{"internalType":"address","name":"playerAddress","type":"address"}],"name":"getPlayer","outputs":[{"internalType":"bool","name":"exists","type":"bool"},{"internalType":"address","name":"inviter","type":"address"},{"internalType":"uint8","name":"maxActiveLevel","type":"uint8"},{"internalType":"uint256","name":"totalPaid","type":"uint256"}],"stateMutability":"view","type":"function"},{"inputs":[{"internalType":"address","name":"playerAddress","type":"address"},{"internalType":"uint8","name":"level","type":"uint8"}],"name":"getPlayerLevel","outputs":[{"internalType":"bool","name":"active","type":"bool"},{"internalType":"bool","name":"frozen","type":"bool"},{"internalType":"uint256","name":"cycles","type":"uint256"},{"internalType":"uint256","name":"positionId","type":"uint256"},{"internalType":"uint256","name":"earned","type":"uint256"}],"stateMutability":"view","type":"function"},{"inputs":[{"internalType":"address","name":"playerAddress","type":"address"},{"internalType":"uint8","name":"level","type":"uint8"}],"name":"getPlayerPosition","outputs":[{"internalType":"uint256","name":"positionId","type":"uint256"},{"internalType":"uint256","name":"parentId","type":"uint256"},{"internalType":"uint256","name":"leftChildId","type":"uint256"},{"internalType":"uint256","name":"rightChildId","type":"uint256"},{"internalType":"uint256","name":"depth","type":"uint256"},{"internalType":"bool","name":"closed","type":"bool"}],"stateMutability":"view","type":"function"},{"inputs":[{"internalType":"address","name":"playerAddress","type":"address"},{"internalType":"uint8","name":"level","type":"uint8"}],"name":"isLevelActive","outputs":[{"internalType":"bool","name":"","type":"bool"}],"stateMutability":"view","type":"function"},{"inputs":[{"internalType":"address","name":"playerAddress","type":"address"},{"internalType":"uint8","name":"level","type":"uint8"}],"name":"isLevelFrozen","outputs":[{"internalType":"bool","name":"","type":"bool"}],"stateMutability":"view","type":"function"},{"inputs":[{"internalType":"uint8","name":"","type":"uint8"}],"name":"levelMatrixSize","outputs":[{"internalType":"uint256","name":"","type":"uint256"}],"stateMutability":"view","type":"function"},{"inputs":[{"internalType":"uint8","name":"","type":"uint8"}],"name":"levelPrices","outputs":[{"internalType":"uint256","name":"","type":"uint256"}],"stateMutability":"view","type":"function"},{"inputs":[],"name":"operatorWallet","outputs":[{"internalType":"address payable","name":"","type":"address"}],"stateMutability":"view","type":"function"},{"inputs":[],"name":"owner","outputs":[{"internalType":"address","name":"","type":"address"}],"stateMutability":"view","type":"function"},{"inputs":[{"internalType":"uint8","name":"level","type":"uint8"},{"internalType":"uint256","name":"newPrice","type":"uint256"}],"name":"setLevelPrice","outputs":[],"stateMutability":"nonpayable","type":"function"},{"inputs":[{"internalType":"address payable","name":"newOperatorWallet","type":"address"}],"name":"setOperatorWallet","outputs":[],"stateMutability":"nonpayable","type":"function"},{"inputs":[{"internalType":"address payable","name":"newTreasury","type":"address"}],"name":"setTreasury","outputs":[],"stateMutability":"nonpayable","type":"function"},{"inputs":[{"internalType":"address","name":"newOwner","type":"address"}],"name":"transferOwnership","outputs":[],"stateMutability":"nonpayable","type":"function"},{"inputs":[],"name":"treasury","outputs":[{"internalType":"address payable","name":"","type":"address"}],"stateMutability":"view","type":"function"},{"stateMutability":"payable","type":"receive"}],"evm":{"bytecode":{"linkReferences":{},"object":"608060405234801561001057600080fd5b50604051611e26380380611e2683398101604081905261002f916103a4565b6001600160a01b0381166100895760405162461bcd60e51b815260206004820152601c60248201527f5472656173757279206164647265737320697320726571756972656400000000604482015260640160405180910390fd5b600080546001600160a01b031990811633178255600180546001600160a01b039490941693821684179055600280549091169092179091556003602052662386f26fc100007fa15bc60c955c405d20d9149c709e2460f1c2d9a497496a7f46004d1772c3054c5566354a6ba7a180007fc3a24b0501bd2c13a7e57f2db4369ec4c223447539fc0724a9d55ac4a06ebd4d5566470de4df8200007fcbc4e5fb02c3d1de23a9f1e014b4d2ee5aeaea9505df5e855c9210bf472495af55666a94d74f4300007f83ec6a1f0257b830b5e016457c9cf1435391bf56cc98f369a58a54fe9377246555668e1bc9bf0400007f405aad32e1adbac89bb7f176e338b8fc6e994ca210c9bb7bdca249b4659422505566d529ae9e8600007fc69056f16cbaa3c616b828e333ab7d3a32310765507f8f58359e99ebb7a885f35567013fbe85edc900007ff2c49132ed1cee2a7e75bde50d332a2f81f1d01e5456d8a19d1df09bd561dbd2556701cdda4faccd00007f85aaa47b6dc46495bb8824fad4583769726fea36efd831a35556690b830a8fbe556702c68af0bb1400007f8a8dc4e5242ea8b1ab1d60606dae757e6c2cca9f92a2cced9f72c19960bcb45855670429d069189e00007f9dcb9783ba5cd0b54745f65f4f918525e461e91888c334e5342cb380ac558d535567058d15e1762800007f2d72af3c1b2b2956e6f694fb741556d5ca9524373974378cdbec16afa8b8416455670853a0d2313c00007fd56a60595ebefebed7f22dcee6c2acc61b06cf8c68e84c88677840365d1ff92b55670c7d713b49da00007fa8f2d96126c6d0ad63adabaef7bf5cf47f163fb0c218a473d28f62312d197bcf5567120a871cc00200007fd6ebcc64c739277b117ce359e436534b234b76e914c80ad276abf5b56207893955671bc16d674ec800007ff60b7f6a315ec68a6ac240e69dca53652b38627f709a2caa217d9e18af4d7a60556729a2241af62c00007f47d4745e02b343689a5e7ac121d2a352b7a15c10328a8759fd7d4cf0999002bb5560119052673782dace9d9000007ffc111d09a6e2f0958402cbe16a5aef32c9d8ddb9a4df7271140de57bfed6525a556103d4565b6000602082840312156103b657600080fd5b81516001600160a01b03811681146103cd57600080fd5b9392505050565b611a43806103e36000396000f3fe60806040526004361061010d5760003560e01c80638da5cb5b11610095578063c05db4ce11610064578063c05db4ce1461041d578063d2a160801461044a578063f0f4426014610499578063f2fde38b146104b9578063f90ef4ac146104d957600080fd5b80638da5cb5b1461035e5780638eb657c41461037e578063a0978ac21461039e578063b9aee263146103e857600080fd5b806348d46be1116100dc57806348d46be1146102115780634a57c6d9146102245780635c12cd4b1461027d57806361d027b31461030657806375b7d7c11461033e57600080fd5b80630e475efd1461015857806312513f2a1461018d5780631d6a884b146101af5780632e50d906146101d657600080fd5b366101535760405162461bcd60e51b8152602060048201526011602482015270155cd9481858dd1a5d985d1953195d995b607a1b60448201526064015b60405180910390fd5b600080fd5b34801561016457600080fd5b50610178610173366004611828565b6104f9565b60405190151581526020015b60405180910390f35b34801561019957600080fd5b506101ad6101a836600461185d565b61053a565b005b3480156101bb57600080fd5b506101c4601181565b60405160ff9091168152602001610184565b3480156101e257600080fd5b506102036101f136600461187a565b60036020526000908152604090205481565b604051908152602001610184565b6101ad61021f366004611895565b61060c565b34801561023057600080fd5b5061024461023f3660046118cc565b6108c0565b604080516001600160a01b03909716875260208701959095529385019290925260608401526080830152151560a082015260c001610184565b34801561028957600080fd5b506102d461029836600461185d565b6001600160a01b039081166000908152600560205260409020805460019091015460ff80831694610100840490941693600160a81b9093041691565b6040805194151585526001600160a01b03909316602085015260ff909116918301919091526060820152608001610184565b34801561031257600080fd5b50600154610326906001600160a01b031681565b6040516001600160a01b039091168152602001610184565b34801561034a57600080fd5b50610178610359366004611828565b6109b4565b34801561036a57600080fd5b50600054610326906001600160a01b031681565b34801561038a57600080fd5b506101ad6103993660046118cc565b6109ee565b3480156103aa57600080fd5b506103be6103b9366004611828565b610abe565b6040805195151586529315156020860152928401919091526060830152608082015260a001610184565b3480156103f457600080fd5b5061040861040336600461187a565b610b21565b60408051928352602083019190915201610184565b34801561042957600080fd5b5061020361043836600461187a565b60046020526000908152604090205481565b34801561045657600080fd5b5061046a610465366004611828565b610b51565b6040805196875260208701959095529385019290925260608401526080830152151560a082015260c001610184565b3480156104a557600080fd5b506101ad6104b436600461185d565b610c23565b3480156104c557600080fd5b506101ad6104d436600461185d565b610cf5565b3480156104e557600080fd5b50600254610326906001600160a01b031681565b600061050482610d97565b506001600160a01b038216600090815260066020908152604080832060ff80861685529252909120546101009004165b92915050565b6000546001600160a01b031633146105645760405162461bcd60e51b815260040161014a906118f6565b6001600160a01b0381166105ba5760405162461bcd60e51b815260206004820152601b60248201527f4f70657261746f722077616c6c65742069732072657175697265640000000000604482015260640161014a565b600280546001600160a01b038381166001600160a01b0319831681179093556040519116919082907fffeadf6b52d061bb21846980b2783f41fbe44cbcada3cc30262a06f43f49ff5790600090a35050565b61061582610d97565b60ff821660009081526003602052604090205434146106765760405162461bcd60e51b815260206004820152601860248201527f496e636f7272656374207061796d656e7420616d6f756e740000000000000000604482015260640161014a565b3360009081526005602090815260408083206006835281842060ff8088168652935292208054909116156106ec5760405162461bcd60e51b815260206004820152601760248201527f4c6576656c20697320616c726561647920616374697665000000000000000000604482015260640161014a565b60018460ff161115610776573360009081526006602052604081209061071360018761194d565b60ff9081168252602082019290925260400160002054166107765760405162461bcd60e51b815260206004820152601c60248201527f50726576696f7573206c6576656c206973206e6f742061637469766500000000604482015260640161014a565b815460ff166107f357815460ff191660011782556001600160a01b038316158015906107ab57506001600160a01b0383163314155b80156107cf57506001600160a01b03831660009081526005602052604090205460ff165b156107f3578154610100600160a81b0319166101006001600160a01b038516021782555b805461ffff19166001908117825582018054349190600090610816908490611966565b9091555050815460ff600160a81b9091048116908516111561084957815460ff60a81b1916600160a81b60ff8616021782555b60006108558533610dee565b9050610863338634846110a8565b61086d338661116e565b82546040513481526101009091046001600160a01b03169060ff87169033907fa39f8d2643b307a6345b215d0bb56b5221ecb986b9fa3da427929b7571b92a0d9060200160405180910390a45050505050565b6000806000806000806108d288610d97565b6000871180156108f4575060ff88166000908152600760205260409020548711155b6109335760405162461bcd60e51b815260206004820152601060248201526f24b73b30b634b2103837b9b4ba34b7b760811b604482015260640161014a565b60ff8816600090815260076020526040812061095060018a611979565b815481106109605761096061198c565b60009182526020909120600690910201805460018201546002830154600384015460048501546005909501546001600160a01b039094169b509199509750955090935060ff169150505b9295509295509295565b60006109bf82610d97565b506001600160a01b0391909116600090815260066020908152604080832060ff94851684529091529020541690565b6000546001600160a01b03163314610a185760405162461bcd60e51b815260040161014a906118f6565b610a2182610d97565b60008111610a655760405162461bcd60e51b8152602060048201526011602482015270141c9a58d9481a5cc81c995c5d5a5c9959607a1b604482015260640161014a565b60ff8216600081815260036020908152604091829020805490859055825181815291820185905292917f68cb741d0779160e141ccf5dd579423de44febc76c0edddcc6167807a3c16af7910160405180910390a2505050565b6000806000806000610acf86610d97565b505050506001600160a01b0392909216600090815260066020908152604080832060ff948516845290915290208054600182015460028301546003909301548285169661010090930490941694509290565b600080610b2d83610d97565b505060ff166000908152600760209081526040808320546008909252909120549091565b600080600080600080610b6387610d97565b6001600160a01b038816600090815260066020908152604080832060ff8b16845290915281206002015490819003610bb057600080600080600080965096509650965096509650506109aa565b60ff88166000908152600760205260408120610bcd600184611979565b81548110610bdd57610bdd61198c565b600091825260209091206006909102016001810154600282015460038301546004840154600590940154959e929d50909b50995090975060ff9092169550909350505050565b6000546001600160a01b03163314610c4d5760405162461bcd60e51b815260040161014a906118f6565b6001600160a01b038116610ca35760405162461bcd60e51b815260206004820152601c60248201527f5472656173757279206164647265737320697320726571756972656400000000604482015260640161014a565b600180546001600160a01b038381166001600160a01b0319831681179093556040519116919082907f8c3aa5f43a388513435861bf27dfad7829cd248696fed367c62d441f6295449690600090a35050565b6000546001600160a01b03163314610d1f5760405162461bcd60e51b815260040161014a906118f6565b6001600160a01b038116610d755760405162461bcd60e51b815260206004820152601960248201527f4f776e6572206164647265737320697320726571756972656400000000000000604482015260640161014a565b600080546001600160a01b0319166001600160a01b0392909216919091179055565b60018160ff1610158015610daf5750601160ff821611155b610deb5760405162461bcd60e51b815260206004820152600d60248201526c125b9d985b1a59081b195d995b609a1b604482015260640161014a565b50565b60ff8216600090815260076020526040812080548290819081908103610e8f57835460019081018086556000868152918691610e2a9190611979565b81548110610e3a57610e3a61198c565b6000918252602080832060069290920290910180546001600160a01b0319166001600160a01b038b1617815560048101839055600501805460ff1916905560ff8a168252600890526040902060019055505082545b835460011080610e9d575080155b156110295760ff87166000908152600860205260408120549350839003610ec357600192505b600084610ed1600186611979565b81548110610ee157610ee161198c565b60009182526020909120600690910201600581015490915060ff1615610f495760405162461bcd60e51b815260206004820152601760248201527f4d617472697820706172656e7420697320636c6f736564000000000000000000604482015260640161014a565b6004810154610f59906001611966565b8554600190810180885560008881529295508791610f7691611979565b81548110610f8657610f8661198c565b6000918252602082206006919091020180546001600160a01b0319166001600160a01b038b16178155600181018790556004810186905560058101805460ff1916905587546002850154909550909250849103610fe557600283018190555b80836002015414611025576003830181905560058301805460ff1916600117905561100f8a611219565b8254611025908b906001600160a01b03166112c7565b5050505b6001600160a01b038616600081815260066020908152604080832060ff8c16808552908352818420600201869055885460048452938290209390935580518581529182018790529192917fd8a08c0c1f4b5e930e1da0bd0b50635c1f9de780c217ce3fa2a17686579146c8910160405180910390a39695505050505050565b60ff831660009081526007602052604081206110c5600184611979565b815481106110d5576110d561198c565b9060005260206000209060060201905060006110f585836001015461144d565b90506000612710611108611f40876119a2565b61111291906119b9565b9050611120878388846114f0565b600061112c8887611591565b9050600061113a8284611966565b90508087111561116357600154611163906001600160a01b031661115e838a611979565b6116b1565b505050505050505050565b60018160ff161161117d575050565b6001600160a01b0382166000908152600660205260408120816111a160018561194d565b60ff9081168252602082019290925260400160002080549092506101009004161561121457805461ff00191681556111da60018361194d565b60ff16836001600160a01b03167fb0f7d96751587de2fbb05ae8bb25971ba7cd777de717eb3698b701d6c773965460405160405180910390a35b505050565b60ff8116600090815260076020908152604080832060089092528220549091819003611243575060015b8154811180159061128357508161125b600183611979565b8154811061126b5761126b61198c565b600091825260209091206005600690920201015460ff165b1561129a5780611292816119db565b915050611243565b81548111156112aa5760006112ac565b805b60ff9093166000908152600860205260409020929092555050565b6001600160a01b038116600090815260066020908152604080832060ff808716855292529091208054909116158061130557508054610100900460ff165b1561130f57505050565b60018160010160008282546113249190611966565b90915550600090506113368484610dee565b90508360ff16836001600160a01b03167fbde1dd97b8c6b9fb71194209f50387cccf9ec5cc5c0e9aa18b13c93cf78ce6e8846001015484604051611384929190918252602082015260400190565b60405180910390a3601160ff85161080156113a457506002826001015410155b80156113e857506001600160a01b0383166000908152600660205260408120906113cf8660016119f4565b60ff908116825260208201929092526040016000205416155b80156113fb57508154610100900460ff16155b1561144757815461ff00191661010017825560405160ff8516906001600160a01b038516907f9eedad69e1da086c8d70014edef61addc1d62bfdf25b1dcd3484ad720b97076290600090a35b50505050565b60008160000361146957506001546001600160a01b0316610534565b60ff83166000908152600760205260408120611486600185611979565b815481106114965761149661198c565b60009182526020808320600692830201546001600160a01b0316808452918152604080842060ff808a168652925290922054909250610100900416156114e95750506001546001600160a01b0316610534565b9392505050565b6114fa83826116b1565b6001600160a01b038316600090815260066020908152604080832060ff8616845290915281206003018054839290611533908490611966565b925050819055508160ff16836001600160a01b0316856001600160a01b03167f16ba2b19bb64507cf2c1a04b1f42c44aecacda5b2b3ad30b3e05ffd1a711915b8460405161158391815260200190565b60405180910390a450505050565b6001600160a01b03808316600090815260056020526040812054909161010090910416816115c585836001876103b6611756565b6115cf9082611966565b6002549091506115ee9086906001600160a01b03166000876032611756565b6115f89082611966565b905060006001600160a01b03831615611630576001600160a01b03808416600090815260056020526040902054610100900416611633565b60005b90506116458682600288610258611756565b61164f9083611966565b915060006001600160a01b03821615611687576001600160a01b0380831660009081526005602052604090205461010090041661168a565b60005b905061169c8782600389610190611756565b6116a69084611966565b979650505050505050565b806000036116bd575050565b6000826001600160a01b03168260405160006040518083038185875af1925050503d806000811461170a576040519150601f19603f3d011682016040523d82523d6000602084013e61170f565b606091505b50509050806112145760405162461bcd60e51b8152602060048201526013602482015272115512081d1c985b9cd9995c8819985a5b1959606a1b604482015260640161014a565b60008061271061176a61ffff8516866119a2565b61177491906119b9565b905060006001600160a01b0387161561178d578661179a565b6001546001600160a01b03165b90506117a681836116b1565b6040805160ff88168152602081018490526001600160a01b0380841692908b16917f53aa79cc77a3d2e16f0f104bce3b3da868f1ec7596a2cc49a09f8103982da834910160405180910390a3509695505050505050565b6001600160a01b0381168114610deb57600080fd5b803560ff8116811461182357600080fd5b919050565b6000806040838503121561183b57600080fd5b8235611846816117fd565b915061185460208401611812565b90509250929050565b60006020828403121561186f57600080fd5b81356114e9816117fd565b60006020828403121561188c57600080fd5b6114e982611812565b600080604083850312156118a857600080fd5b6118b183611812565b915060208301356118c1816117fd565b809150509250929050565b600080604083850312156118df57600080fd5b6118e883611812565b946020939093013593505050565b60208082526021908201527f4f6e6c79206f776e65722063616e2063616c6c20746869732066756e6374696f6040820152603760f91b606082015260800190565b634e487b7160e01b600052601160045260246000fd5b60ff828116828216039081111561053457610534611937565b8082018082111561053457610534611937565b8181038181111561053457610534611937565b634e487b7160e01b600052603260045260246000fd5b808202811582820484141761053457610534611937565b6000826119d657634e487b7160e01b600052601260045260246000fd5b500490565b6000600182016119ed576119ed611937565b5060010190565b60ff81811683821601908111156105345761053461193756fea2646970667358221220fa81604f6c43147362d59837ce0f2c99de98377fddcbdbba74576d057cfd84fd64736f6c63430008180033","opcodes":"PUSH1 0x80 PUSH1 0x40 MSTORE CALLVALUE DUP1 ISZERO PUSH2 0x10 JUMPI PUSH1 0x0 DUP1 REVERT JUMPDEST POP PUSH1 0x40 MLOAD PUSH2 0x1E26 CODESIZE SUB DUP1 PUSH2 0x1E26 DUP4 CODECOPY DUP2 ADD PUSH1 0x40 DUP2 SWAP1 MSTORE PUSH2 0x2F SWAP2 PUSH2 0x3A4 JUMP JUMPDEST PUSH1 0x1 PUSH1 0x1 PUSH1 0xA0 SHL SUB DUP2 AND PUSH2 0x89 JUMPI PUSH1 0x40 MLOAD PUSH3 0x461BCD PUSH1 0xE5 SHL DUP2 MSTORE PUSH1 0x20 PUSH1 0x4 DUP3 ADD MSTORE PUSH1 0x1C PUSH1 0x24 DUP3 ADD MSTORE PUSH32 0x5472656173757279206164647265737320697320726571756972656400000000 PUSH1 0x44 DUP3 ADD MSTORE PUSH1 0x64 ADD PUSH1 0x40 MLOAD DUP1 SWAP2 SUB SWAP1 REVERT JUMPDEST PUSH1 0x0 DUP1 SLOAD PUSH1 0x1 PUSH1 0x1 PUSH1 0xA0 SHL SUB NOT SWAP1 DUP2 AND CALLER OR DUP3 SSTORE PUSH1 0x1 DUP1 SLOAD PUSH1 0x1 PUSH1 0x1 PUSH1 0xA0 SHL SUB SWAP5 SWAP1 SWAP5 AND SWAP4 DUP3 AND DUP5 OR SWAP1 SSTORE PUSH1 0x2 DUP1 SLOAD SWAP1 SWAP2 AND SWAP1 SWAP3 OR SWAP1 SWAP2 SSTORE PUSH1 0x3 PUSH1 0x20 MSTORE PUSH7 0x2386F26FC10000 PUSH32 0xA15BC60C955C405D20D9149C709E2460F1C2D9A497496A7F46004D1772C3054C SSTORE PUSH7 0x354A6BA7A18000 PUSH32 0xC3A24B0501BD2C13A7E57F2DB4369EC4C223447539FC0724A9D55AC4A06EBD4D SSTORE PUSH7 0x470DE4DF820000 PUSH32 0xCBC4E5FB02C3D1DE23A9F1E014B4D2EE5AEAEA9505DF5E855C9210BF472495AF SSTORE PUSH7 0x6A94D74F430000 PUSH32 0x83EC6A1F0257B830B5E016457C9CF1435391BF56CC98F369A58A54FE93772465 SSTORE PUSH7 0x8E1BC9BF040000 PUSH32 0x405AAD32E1ADBAC89BB7F176E338B8FC6E994CA210C9BB7BDCA249B465942250 SSTORE PUSH7 0xD529AE9E860000 PUSH32 0xC69056F16CBAA3C616B828E333AB7D3A32310765507F8F58359E99EBB7A885F3 SSTORE PUSH8 0x13FBE85EDC90000 PUSH32 0xF2C49132ED1CEE2A7E75BDE50D332A2F81F1D01E5456D8A19D1DF09BD561DBD2 SSTORE PUSH8 0x1CDDA4FACCD0000 PUSH32 0x85AAA47B6DC46495BB8824FAD4583769726FEA36EFD831A35556690B830A8FBE SSTORE PUSH8 0x2C68AF0BB140000 PUSH32 0x8A8DC4E5242EA8B1AB1D60606DAE757E6C2CCA9F92A2CCED9F72C19960BCB458 SSTORE PUSH8 0x429D069189E0000 PUSH32 0x9DCB9783BA5CD0B54745F65F4F918525E461E91888C334E5342CB380AC558D53 SSTORE PUSH8 0x58D15E176280000 PUSH32 0x2D72AF3C1B2B2956E6F694FB741556D5CA9524373974378CDBEC16AFA8B84164 SSTORE PUSH8 0x853A0D2313C0000 PUSH32 0xD56A60595EBEFEBED7F22DCEE6C2ACC61B06CF8C68E84C88677840365D1FF92B SSTORE PUSH8 0xC7D713B49DA0000 PUSH32 0xA8F2D96126C6D0AD63ADABAEF7BF5CF47F163FB0C218A473D28F62312D197BCF SSTORE PUSH8 0x120A871CC0020000 PUSH32 0xD6EBCC64C739277B117CE359E436534B234B76E914C80AD276ABF5B562078939 SSTORE PUSH8 0x1BC16D674EC80000 PUSH32 0xF60B7F6A315EC68A6AC240E69DCA53652B38627F709A2CAA217D9E18AF4D7A60 SSTORE PUSH8 0x29A2241AF62C0000 PUSH32 0x47D4745E02B343689A5E7AC121D2A352B7A15C10328A8759FD7D4CF0999002BB SSTORE PUSH1 0x11 SWAP1 MSTORE PUSH8 0x3782DACE9D900000 PUSH32 0xFC111D09A6E2F0958402CBE16A5AEF32C9D8DDB9A4DF7271140DE57BFED6525A SSTORE PUSH2 0x3D4 JUMP JUMPDEST PUSH1 0x0 PUSH1 0x20 DUP3 DUP5 SUB SLT ISZERO PUSH2 0x3B6 JUMPI PUSH1 0x0 DUP1 REVERT JUMPDEST DUP2 MLOAD PUSH1 0x1 PUSH1 0x1 PUSH1 0xA0 SHL SUB DUP2 AND DUP2 EQ PUSH2 0x3CD JUMPI PUSH1 0x0 DUP1 REVERT JUMPDEST SWAP4 SWAP3 POP POP POP JUMP JUMPDEST PUSH2 0x1A43 DUP1 PUSH2 0x3E3 PUSH1 0x0 CODECOPY PUSH1 0x0 RETURN INVALID PUSH1 0x80 PUSH1 0x40 MSTORE PUSH1 0x4 CALLDATASIZE LT PUSH2 0x10D JUMPI PUSH1 0x0 CALLDATALOAD PUSH1 0xE0 SHR DUP1 PUSH4 0x8DA5CB5B GT PUSH2 0x95 JUMPI DUP1 PUSH4 0xC05DB4CE GT PUSH2 0x64 JUMPI DUP1 PUSH4 0xC05DB4CE EQ PUSH2 0x41D JUMPI DUP1 PUSH4 0xD2A16080 EQ PUSH2 0x44A JUMPI DUP1 PUSH4 0xF0F44260 EQ PUSH2 0x499 JUMPI DUP1 PUSH4 0xF2FDE38B EQ PUSH2 0x4B9 JUMPI DUP1 PUSH4 0xF90EF4AC EQ PUSH2 0x4D9 JUMPI PUSH1 0x0 DUP1 REVERT JUMPDEST DUP1 PUSH4 0x8DA5CB5B EQ PUSH2 0x35E JUMPI DUP1 PUSH4 0x8EB657C4 EQ PUSH2 0x37E JUMPI DUP1 PUSH4 0xA0978AC2 EQ PUSH2 0x39E JUMPI DUP1 PUSH4 0xB9AEE263 EQ PUSH2 0x3E8 JUMPI PUSH1 0x0 DUP1 REVERT JUMPDEST DUP1 PUSH4 0x48D46BE1 GT PUSH2 0xDC JUMPI DUP1 PUSH4 0x48D46BE1 EQ PUSH2 0x211 JUMPI DUP1 PUSH4 0x4A57C6D9 EQ PUSH2 0x224 JUMPI DUP1 PUSH4 0x5C12CD4B EQ PUSH2 0x27D JUMPI DUP1 PUSH4 0x61D027B3 EQ PUSH2 0x306 JUMPI DUP1 PUSH4 0x75B7D7C1 EQ PUSH2 0x33E JUMPI PUSH1 0x0 DUP1 REVERT JUMPDEST DUP1 PUSH4 0xE475EFD EQ PUSH2 0x158 JUMPI DUP1 PUSH4 0x12513F2A EQ PUSH2 0x18D JUMPI DUP1 PUSH4 0x1D6A884B EQ PUSH2 0x1AF JUMPI DUP1 PUSH4 0x2E50D906 EQ PUSH2 0x1D6 JUMPI PUSH1 0x0 DUP1 REVERT JUMPDEST CALLDATASIZE PUSH2 0x153 JUMPI PUSH1 0x40 MLOAD PUSH3 0x461BCD PUSH1 0xE5 SHL DUP2 MSTORE PUSH1 0x20 PUSH1 0x4 DUP3 ADD MSTORE PUSH1 0x11 PUSH1 0x24 DUP3 ADD MSTORE PUSH17 0x155CD9481858DD1A5D985D1953195D995B PUSH1 0x7A SHL PUSH1 0x44 DUP3 ADD MSTORE PUSH1 0x64 ADD JUMPDEST PUSH1 0x40 MLOAD DUP1 SWAP2 SUB SWAP1 REVERT JUMPDEST PUSH1 0x0 DUP1 REVERT JUMPDEST CALLVALUE DUP1 ISZERO PUSH2 0x164 JUMPI PUSH1 0x0 DUP1 REVERT JUMPDEST POP PUSH2 0x178 PUSH2 0x173 CALLDATASIZE PUSH1 0x4 PUSH2 0x1828 JUMP JUMPDEST PUSH2 0x4F9 JUMP JUMPDEST PUSH1 0x40 MLOAD SWAP1 ISZERO ISZERO DUP2 MSTORE PUSH1 0x20 ADD JUMPDEST PUSH1 0x40 MLOAD DUP1 SWAP2 SUB SWAP1 RETURN JUMPDEST CALLVALUE DUP1 ISZERO PUSH2 0x199 JUMPI PUSH1 0x0 DUP1 REVERT JUMPDEST POP PUSH2 0x1AD PUSH2 0x1A8 CALLDATASIZE PUSH1 0x4 PUSH2 0x185D JUMP JUMPDEST PUSH2 0x53A JUMP JUMPDEST STOP JUMPDEST CALLVALUE DUP1 ISZERO PUSH2 0x1BB JUMPI PUSH1 0x0 DUP1 REVERT JUMPDEST POP PUSH2 0x1C4 PUSH1 0x11 DUP2 JUMP JUMPDEST PUSH1 0x40 MLOAD PUSH1 0xFF SWAP1 SWAP2 AND DUP2 MSTORE PUSH1 0x20 ADD PUSH2 0x184 JUMP JUMPDEST CALLVALUE DUP1 ISZERO PUSH2 0x1E2 JUMPI PUSH1 0x0 DUP1 REVERT JUMPDEST POP PUSH2 0x203 PUSH2 0x1F1 CALLDATASIZE PUSH1 0x4 PUSH2 0x187A JUMP JUMPDEST PUSH1 0x3 PUSH1 0x20 MSTORE PUSH1 0x0 SWAP1 DUP2 MSTORE PUSH1 0x40 SWAP1 KECCAK256 SLOAD DUP2 JUMP JUMPDEST PUSH1 0x40 MLOAD SWAP1 DUP2 MSTORE PUSH1 0x20 ADD PUSH2 0x184 JUMP JUMPDEST PUSH2 0x1AD PUSH2 0x21F CALLDATASIZE PUSH1 0x4 PUSH2 0x1895 JUMP JUMPDEST PUSH2 0x60C JUMP JUMPDEST CALLVALUE DUP1 ISZERO PUSH2 0x230 JUMPI PUSH1 0x0 DUP1 REVERT JUMPDEST POP PUSH2 0x244 PUSH2 0x23F CALLDATASIZE PUSH1 0x4 PUSH2 0x18CC JUMP JUMPDEST PUSH2 0x8C0 JUMP JUMPDEST PUSH1 0x40 DUP1 MLOAD PUSH1 0x1 PUSH1 0x1 PUSH1 0xA0 SHL SUB SWAP1 SWAP8 AND DUP8 MSTORE PUSH1 0x20 DUP8 ADD SWAP6 SWAP1 SWAP6 MSTORE SWAP4 DUP6 ADD SWAP3 SWAP1 SWAP3 MSTORE PUSH1 0x60 DUP5 ADD MSTORE PUSH1 0x80 DUP4 ADD MSTORE ISZERO ISZERO PUSH1 0xA0 DUP3 ADD MSTORE PUSH1 0xC0 ADD PUSH2 0x184 JUMP JUMPDEST CALLVALUE DUP1 ISZERO PUSH2 0x289 JUMPI PUSH1 0x0 DUP1 REVERT JUMPDEST POP PUSH2 0x2D4 PUSH2 0x298 CALLDATASIZE PUSH1 0x4 PUSH2 0x185D JUMP JUMPDEST PUSH1 0x1 PUSH1 0x1 PUSH1 0xA0 SHL SUB SWAP1 DUP2 AND PUSH1 0x0 SWAP1 DUP2 MSTORE PUSH1 0x5 PUSH1 0x20 MSTORE PUSH1 0x40 SWAP1 KECCAK256 DUP1 SLOAD PUSH1 0x1 SWAP1 SWAP2 ADD SLOAD PUSH1 0xFF DUP1 DUP4 AND SWAP5 PUSH2 0x100 DUP5 DIV SWAP1 SWAP5 AND SWAP4 PUSH1 0x1 PUSH1 0xA8 SHL SWAP1 SWAP4 DIV AND SWAP2 JUMP JUMPDEST PUSH1 0x40 DUP1 MLOAD SWAP5 ISZERO ISZERO DUP6 MSTORE PUSH1 0x1 PUSH1 0x1 PUSH1 0xA0 SHL SUB SWAP1 SWAP4 AND PUSH1 0x20 DUP6 ADD MSTORE PUSH1 0xFF SWAP1 SWAP2 AND SWAP2 DUP4 ADD SWAP2 SWAP1 SWAP2 MSTORE PUSH1 0x60 DUP3 ADD MSTORE PUSH1 0x80 ADD PUSH2 0x184 JUMP JUMPDEST CALLVALUE DUP1 ISZERO PUSH2 0x312 JUMPI PUSH1 0x0 DUP1 REVERT JUMPDEST POP PUSH1 0x1 SLOAD PUSH2 0x326 SWAP1 PUSH1 0x1 PUSH1 0x1 PUSH1 0xA0 SHL SUB AND DUP2 JUMP JUMPDEST PUSH1 0x40 MLOAD PUSH1 0x1 PUSH1 0x1 PUSH1 0xA0 SHL SUB SWAP1 SWAP2 AND DUP2 MSTORE PUSH1 0x20 ADD PUSH2 0x184 JUMP JUMPDEST CALLVALUE DUP1 ISZERO PUSH2 0x34A JUMPI PUSH1 0x0 DUP1 REVERT JUMPDEST POP PUSH2 0x178 PUSH2 0x359 CALLDATASIZE PUSH1 0x4 PUSH2 0x1828 JUMP JUMPDEST PUSH2 0x9B4 JUMP JUMPDEST CALLVALUE DUP1 ISZERO PUSH2 0x36A JUMPI PUSH1 0x0 DUP1 REVERT JUMPDEST POP PUSH1 0x0 SLOAD PUSH2 0x326 SWAP1 PUSH1 0x1 PUSH1 0x1 PUSH1 0xA0 SHL SUB AND DUP2 JUMP JUMPDEST CALLVALUE DUP1 ISZERO PUSH2 0x38A JUMPI PUSH1 0x0 DUP1 REVERT JUMPDEST POP PUSH2 0x1AD PUSH2 0x399 CALLDATASIZE PUSH1 0x4 PUSH2 0x18CC JUMP JUMPDEST PUSH2 0x9EE JUMP JUMPDEST CALLVALUE DUP1 ISZERO PUSH2 0x3AA JUMPI PUSH1 0x0 DUP1 REVERT JUMPDEST POP PUSH2 0x3BE PUSH2 0x3B9 CALLDATASIZE PUSH1 0x4 PUSH2 0x1828 JUMP JUMPDEST PUSH2 0xABE JUMP JUMPDEST PUSH1 0x40 DUP1 MLOAD SWAP6 ISZERO ISZERO DUP7 MSTORE SWAP4 ISZERO ISZERO PUSH1 0x20 DUP7 ADD MSTORE SWAP3 DUP5 ADD SWAP2 SWAP1 SWAP2 MSTORE PUSH1 0x60 DUP4 ADD MSTORE PUSH1 0x80 DUP3 ADD MSTORE PUSH1 0xA0 ADD PUSH2 0x184 JUMP JUMPDEST CALLVALUE DUP1 ISZERO PUSH2 0x3F4 JUMPI PUSH1 0x0 DUP1 REVERT JUMPDEST POP PUSH2 0x408 PUSH2 0x403 CALLDATASIZE PUSH1 0x4 PUSH2 0x187A JUMP JUMPDEST PUSH2 0xB21 JUMP JUMPDEST PUSH1 0x40 DUP1 MLOAD SWAP3 DUP4 MSTORE PUSH1 0x20 DUP4 ADD SWAP2 SWAP1 SWAP2 MSTORE ADD PUSH2 0x184 JUMP JUMPDEST CALLVALUE DUP1 ISZERO PUSH2 0x429 JUMPI PUSH1 0x0 DUP1 REVERT JUMPDEST POP PUSH2 0x203 PUSH2 0x438 CALLDATASIZE PUSH1 0x4 PUSH2 0x187A JUMP JUMPDEST PUSH1 0x4 PUSH1 0x20 MSTORE PUSH1 0x0 SWAP1 DUP2 MSTORE PUSH1 0x40 SWAP1 KECCAK256 SLOAD DUP2 JUMP JUMPDEST CALLVALUE DUP1 ISZERO PUSH2 0x456 JUMPI PUSH1 0x0 DUP1 REVERT JUMPDEST POP PUSH2 0x46A PUSH2 0x465 CALLDATASIZE PUSH1 0x4 PUSH2 0x1828 JUMP JUMPDEST PUSH2 0xB51 JUMP JUMPDEST PUSH1 0x40 DUP1 MLOAD SWAP7 DUP8 MSTORE PUSH1 0x20 DUP8 ADD SWAP6 SWAP1 SWAP6 MSTORE SWAP4 DUP6 ADD SWAP3 SWAP1 SWAP3 MSTORE PUSH1 0x60 DUP5 ADD MSTORE PUSH1 0x80 DUP4 ADD MSTORE ISZERO ISZERO PUSH1 0xA0 DUP3 ADD MSTORE PUSH1 0xC0 ADD PUSH2 0x184 JUMP JUMPDEST CALLVALUE DUP1 ISZERO PUSH2 0x4A5 JUMPI PUSH1 0x0 DUP1 REVERT JUMPDEST POP PUSH2 0x1AD PUSH2 0x4B4 CALLDATASIZE PUSH1 0x4 PUSH2 0x185D JUMP JUMPDEST PUSH2 0xC23 JUMP JUMPDEST CALLVALUE DUP1 ISZERO PUSH2 0x4C5 JUMPI PUSH1 0x0 DUP1 REVERT JUMPDEST POP PUSH2 0x1AD PUSH2 0x4D4 CALLDATASIZE PUSH1 0x4 PUSH2 0x185D JUMP JUMPDEST PUSH2 0xCF5 JUMP JUMPDEST CALLVALUE DUP1 ISZERO PUSH2 0x4E5 JUMPI PUSH1 0x0 DUP1 REVERT JUMPDEST POP PUSH1 0x2 SLOAD PUSH2 0x326 SWAP1 PUSH1 0x1 PUSH1 0x1 PUSH1 0xA0 SHL SUB AND DUP2 JUMP JUMPDEST PUSH1 0x0 PUSH2 0x504 DUP3 PUSH2 0xD97 JUMP JUMPDEST POP PUSH1 0x1 PUSH1 0x1 PUSH1 0xA0 SHL SUB DUP3 AND PUSH1 0x0 SWAP1 DUP2 MSTORE PUSH1 0x6 PUSH1 0x20 SWAP1 DUP2 MSTORE PUSH1 0x40 DUP1 DUP4 KECCAK256 PUSH1 0xFF DUP1 DUP7 AND DUP6 MSTORE SWAP3 MSTORE SWAP1 SWAP2 KECCAK256 SLOAD PUSH2 0x100 SWAP1 DIV AND JUMPDEST SWAP3 SWAP2 POP POP JUMP JUMPDEST PUSH1 0x0 SLOAD PUSH1 0x1 PUSH1 0x1 PUSH1 0xA0 SHL SUB AND CALLER EQ PUSH2 0x564 JUMPI PUSH1 0x40 MLOAD PUSH3 0x461BCD PUSH1 0xE5 SHL DUP2 MSTORE PUSH1 0x4 ADD PUSH2 0x14A SWAP1 PUSH2 0x18F6 JUMP JUMPDEST PUSH1 0x1 PUSH1 0x1 PUSH1 0xA0 SHL SUB DUP2 AND PUSH2 0x5BA JUMPI PUSH1 0x40 MLOAD PUSH3 0x461BCD PUSH1 0xE5 SHL DUP2 MSTORE PUSH1 0x20 PUSH1 0x4 DUP3 ADD MSTORE PUSH1 0x1B PUSH1 0x24 DUP3 ADD MSTORE PUSH32 0x4F70657261746F722077616C6C65742069732072657175697265640000000000 PUSH1 0x44 DUP3 ADD MSTORE PUSH1 0x64 ADD PUSH2 0x14A JUMP JUMPDEST PUSH1 0x2 DUP1 SLOAD PUSH1 0x1 PUSH1 0x1 PUSH1 0xA0 SHL SUB DUP4 DUP2 AND PUSH1 0x1 PUSH1 0x1 PUSH1 0xA0 SHL SUB NOT DUP4 AND DUP2 OR SWAP1 SWAP4 SSTORE PUSH1 0x40 MLOAD SWAP2 AND SWAP2 SWAP1 DUP3 SWAP1 PUSH32 0xFFEADF6B52D061BB21846980B2783F41FBE44CBCADA3CC30262A06F43F49FF57 SWAP1 PUSH1 0x0 SWAP1 LOG3 POP POP JUMP JUMPDEST PUSH2 0x615 DUP3 PUSH2 0xD97 JUMP JUMPDEST PUSH1 0xFF DUP3 AND PUSH1 0x0 SWAP1 DUP2 MSTORE PUSH1 0x3 PUSH1 0x20 MSTORE PUSH1 0x40 SWAP1 KECCAK256 SLOAD CALLVALUE EQ PUSH2 0x676 JUMPI PUSH1 0x40 MLOAD PUSH3 0x461BCD PUSH1 0xE5 SHL DUP2 MSTORE PUSH1 0x20 PUSH1 0x4 DUP3 ADD MSTORE PUSH1 0x18 PUSH1 0x24 DUP3 ADD MSTORE PUSH32 0x496E636F7272656374207061796D656E7420616D6F756E740000000000000000 PUSH1 0x44 DUP3 ADD MSTORE PUSH1 0x64 ADD PUSH2 0x14A JUMP JUMPDEST CALLER PUSH1 0x0 SWAP1 DUP2 MSTORE PUSH1 0x5 PUSH1 0x20 SWAP1 DUP2 MSTORE PUSH1 0x40 DUP1 DUP4 KECCAK256 PUSH1 0x6 DUP4 MSTORE DUP2 DUP5 KECCAK256 PUSH1 0xFF DUP1 DUP9 AND DUP7 MSTORE SWAP4 MSTORE SWAP3 KECCAK256 DUP1 SLOAD SWAP1 SWAP2 AND ISZERO PUSH2 0x6EC JUMPI PUSH1 0x40 MLOAD PUSH3 0x461BCD PUSH1 0xE5 SHL DUP2 MSTORE PUSH1 0x20 PUSH1 0x4 DUP3 ADD MSTORE PUSH1 0x17 PUSH1 0x24 DUP3 ADD MSTORE PUSH32 0x4C6576656C20697320616C726561647920616374697665000000000000000000 PUSH1 0x44 DUP3 ADD MSTORE PUSH1 0x64 ADD PUSH2 0x14A JUMP JUMPDEST PUSH1 0x1 DUP5 PUSH1 0xFF AND GT ISZERO PUSH2 0x776 JUMPI CALLER PUSH1 0x0 SWAP1 DUP2 MSTORE PUSH1 0x6 PUSH1 0x20 MSTORE PUSH1 0x40 DUP2 KECCAK256 SWAP1 PUSH2 0x713 PUSH1 0x1 DUP8 PUSH2 0x194D JUMP JUMPDEST PUSH1 0xFF SWAP1 DUP2 AND DUP3 MSTORE PUSH1 0x20 DUP3 ADD SWAP3 SWAP1 SWAP3 MSTORE PUSH1 0x40 ADD PUSH1 0x0 KECCAK256 SLOAD AND PUSH2 0x776 JUMPI PUSH1 0x40 MLOAD PUSH3 0x461BCD PUSH1 0xE5 SHL DUP2 MSTORE PUSH1 0x20 PUSH1 0x4 DUP3 ADD MSTORE PUSH1 0x1C PUSH1 0x24 DUP3 ADD MSTORE PUSH32 0x50726576696F7573206C6576656C206973206E6F742061637469766500000000 PUSH1 0x44 DUP3 ADD MSTORE PUSH1 0x64 ADD PUSH2 0x14A JUMP JUMPDEST DUP2 SLOAD PUSH1 0xFF AND PUSH2 0x7F3 JUMPI DUP2 SLOAD PUSH1 0xFF NOT AND PUSH1 0x1 OR DUP3 SSTORE PUSH1 0x1 PUSH1 0x1 PUSH1 0xA0 SHL SUB DUP4 AND ISZERO DUP1 ISZERO SWAP1 PUSH2 0x7AB JUMPI POP PUSH1 0x1 PUSH1 0x1 PUSH1 0xA0 SHL SUB DUP4 AND CALLER EQ ISZERO JUMPDEST DUP1 ISZERO PUSH2 0x7CF JUMPI POP PUSH1 0x1 PUSH1 0x1 PUSH1 0xA0 SHL SUB DUP4 AND PUSH1 0x0 SWAP1 DUP2 MSTORE PUSH1 0x5 PUSH1 0x20 MSTORE PUSH1 0x40 SWAP1 KECCAK256 SLOAD PUSH1 0xFF AND JUMPDEST ISZERO PUSH2 0x7F3 JUMPI DUP2 SLOAD PUSH2 0x100 PUSH1 0x1 PUSH1 0xA8 SHL SUB NOT AND PUSH2 0x100 PUSH1 0x1 PUSH1 0x1 PUSH1 0xA0 SHL SUB DUP6 AND MUL OR DUP3 SSTORE JUMPDEST DUP1 SLOAD PUSH2 0xFFFF NOT AND PUSH1 0x1 SWAP1 DUP2 OR DUP3 SSTORE DUP3 ADD DUP1 SLOAD CALLVALUE SWAP2 SWAP1 PUSH1 0x0 SWAP1 PUSH2 0x816 SWAP1 DUP5 SWAP1 PUSH2 0x1966 JUMP JUMPDEST SWAP1 SWAP2 SSTORE POP POP DUP2 SLOAD PUSH1 0xFF PUSH1 0x1 PUSH1 0xA8 SHL SWAP1 SWAP2 DIV DUP2 AND SWAP1 DUP6 AND GT ISZERO PUSH2 0x849 JUMPI DUP2 SLOAD PUSH1 0xFF PUSH1 0xA8 SHL NOT AND PUSH1 0x1 PUSH1 0xA8 SHL PUSH1 0xFF DUP7 AND MUL OR DUP3 SSTORE JUMPDEST PUSH1 0x0 PUSH2 0x855 DUP6 CALLER PUSH2 0xDEE JUMP JUMPDEST SWAP1 POP PUSH2 0x863 CALLER DUP7 CALLVALUE DUP5 PUSH2 0x10A8 JUMP JUMPDEST PUSH2 0x86D CALLER DUP7 PUSH2 0x116E JUMP JUMPDEST DUP3 SLOAD PUSH1 0x40 MLOAD CALLVALUE DUP2 MSTORE PUSH2 0x100 SWAP1 SWAP2 DIV PUSH1 0x1 PUSH1 0x1 PUSH1 0xA0 SHL SUB AND SWAP1 PUSH1 0xFF DUP8 AND SWAP1 CALLER SWAP1 PUSH32 0xA39F8D2643B307A6345B215D0BB56B5221ECB986B9FA3DA427929B7571B92A0D SWAP1 PUSH1 0x20 ADD PUSH1 0x40 MLOAD DUP1 SWAP2 SUB SWAP1 LOG4 POP POP POP POP POP JUMP JUMPDEST PUSH1 0x0 DUP1 PUSH1 0x0 DUP1 PUSH1 0x0 DUP1 PUSH2 0x8D2 DUP9 PUSH2 0xD97 JUMP JUMPDEST PUSH1 0x0 DUP8 GT DUP1 ISZERO PUSH2 0x8F4 JUMPI POP PUSH1 0xFF DUP9 AND PUSH1 0x0 SWAP1 DUP2 MSTORE PUSH1 0x7 PUSH1 0x20 MSTORE PUSH1 0x40 SWAP1 KECCAK256 SLOAD DUP8 GT ISZERO JUMPDEST PUSH2 0x933 JUMPI PUSH1 0x40 MLOAD PUSH3 0x461BCD PUSH1 0xE5 SHL DUP2 MSTORE PUSH1 0x20 PUSH1 0x4 DUP3 ADD MSTORE PUSH1 0x10 PUSH1 0x24 DUP3 ADD MSTORE PUSH16 0x24B73B30B634B2103837B9B4BA34B7B7 PUSH1 0x81 SHL PUSH1 0x44 DUP3 ADD MSTORE PUSH1 0x64 ADD PUSH2 0x14A JUMP JUMPDEST PUSH1 0xFF DUP9 AND PUSH1 0x0 SWAP1 DUP2 MSTORE PUSH1 0x7 PUSH1 0x20 MSTORE PUSH1 0x40 DUP2 KECCAK256 PUSH2 0x950 PUSH1 0x1 DUP11 PUSH2 0x1979 JUMP JUMPDEST DUP2 SLOAD DUP2 LT PUSH2 0x960 JUMPI PUSH2 0x960 PUSH2 0x198C JUMP JUMPDEST PUSH1 0x0 SWAP2 DUP3 MSTORE PUSH1 0x20 SWAP1 SWAP2 KECCAK256 PUSH1 0x6 SWAP1 SWAP2 MUL ADD DUP1 SLOAD PUSH1 0x1 DUP3 ADD SLOAD PUSH1 0x2 DUP4 ADD SLOAD PUSH1 0x3 DUP5 ADD SLOAD PUSH1 0x4 DUP6 ADD SLOAD PUSH1 0x5 SWAP1 SWAP6 ADD SLOAD PUSH1 0x1 PUSH1 0x1 PUSH1 0xA0 SHL SUB SWAP1 SWAP5 AND SWAP12 POP SWAP2 SWAP10 POP SWAP8 POP SWAP6 POP SWAP1 SWAP4 POP PUSH1 0xFF AND SWAP2 POP POP JUMPDEST SWAP3 SWAP6 POP SWAP3 SWAP6 POP SWAP3 SWAP6 JUMP JUMPDEST PUSH1 0x0 PUSH2 0x9BF DUP3 PUSH2 0xD97 JUMP JUMPDEST POP PUSH1 0x1 PUSH1 0x1 PUSH1 0xA0 SHL SUB SWAP2 SWAP1 SWAP2 AND PUSH1 0x0 SWAP1 DUP2 MSTORE PUSH1 0x6 PUSH1 0x20 SWAP1 DUP2 MSTORE PUSH1 0x40 DUP1 DUP4 KECCAK256 PUSH1 0xFF SWAP5 DUP6 AND DUP5 MSTORE SWAP1 SWAP2 MSTORE SWAP1 KECCAK256 SLOAD AND SWAP1 JUMP JUMPDEST PUSH1 0x0 SLOAD PUSH1 0x1 PUSH1 0x1 PUSH1 0xA0 SHL SUB AND CALLER EQ PUSH2 0xA18 JUMPI PUSH1 0x40 MLOAD PUSH3 0x461BCD PUSH1 0xE5 SHL DUP2 MSTORE PUSH1 0x4 ADD PUSH2 0x14A SWAP1 PUSH2 0x18F6 JUMP JUMPDEST PUSH2 0xA21 DUP3 PUSH2 0xD97 JUMP JUMPDEST PUSH1 0x0 DUP2 GT PUSH2 0xA65 JUMPI PUSH1 0x40 MLOAD PUSH3 0x461BCD PUSH1 0xE5 SHL DUP2 MSTORE PUSH1 0x20 PUSH1 0x4 DUP3 ADD MSTORE PUSH1 0x11 PUSH1 0x24 DUP3 ADD MSTORE PUSH17 0x141C9A58D9481A5CC81C995C5D5A5C9959 PUSH1 0x7A SHL PUSH1 0x44 DUP3 ADD MSTORE PUSH1 0x64 ADD PUSH2 0x14A JUMP JUMPDEST PUSH1 0xFF DUP3 AND PUSH1 0x0 DUP2 DUP2 MSTORE PUSH1 0x3 PUSH1 0x20 SWAP1 DUP2 MSTORE PUSH1 0x40 SWAP2 DUP3 SWAP1 KECCAK256 DUP1 SLOAD SWAP1 DUP6 SWAP1 SSTORE DUP3 MLOAD DUP2 DUP2 MSTORE SWAP2 DUP3 ADD DUP6 SWAP1 MSTORE SWAP3 SWAP2 PUSH32 0x68CB741D0779160E141CCF5DD579423DE44FEBC76C0EDDDCC6167807A3C16AF7 SWAP2 ADD PUSH1 0x40 MLOAD DUP1 SWAP2 SUB SWAP1 LOG2 POP POP POP JUMP JUMPDEST PUSH1 0x0 DUP1 PUSH1 0x0 DUP1 PUSH1 0x0 PUSH2 0xACF DUP7 PUSH2 0xD97 JUMP JUMPDEST POP POP POP POP PUSH1 0x1 PUSH1 0x1 PUSH1 0xA0 SHL SUB SWAP3 SWAP1 SWAP3 AND PUSH1 0x0 SWAP1 DUP2 MSTORE PUSH1 0x6 PUSH1 0x20 SWAP1 DUP2 MSTORE PUSH1 0x40 DUP1 DUP4 KECCAK256 PUSH1 0xFF SWAP5 DUP6 AND DUP5 MSTORE SWAP1 SWAP2 MSTORE SWAP1 KECCAK256 DUP1 SLOAD PUSH1 0x1 DUP3 ADD SLOAD PUSH1 0x2 DUP4 ADD SLOAD PUSH1 0x3 SWAP1 SWAP4 ADD SLOAD DUP3 DUP6 AND SWAP7 PUSH2 0x100 SWAP1 SWAP4 DIV SWAP1 SWAP5 AND SWAP5 POP SWAP3 SWAP1 JUMP JUMPDEST PUSH1 0x0 DUP1 PUSH2 0xB2D DUP4 PUSH2 0xD97 JUMP JUMPDEST POP POP PUSH1 0xFF AND PUSH1 0x0 SWAP1 DUP2 MSTORE PUSH1 0x7 PUSH1 0x20 SWAP1 DUP2 MSTORE PUSH1 0x40 DUP1 DUP4 KECCAK256 SLOAD PUSH1 0x8 SWAP1 SWAP3 MSTORE SWAP1 SWAP2 KECCAK256 SLOAD SWAP1 SWAP2 JUMP JUMPDEST PUSH1 0x0 DUP1 PUSH1 0x0 DUP1 PUSH1 0x0 DUP1 PUSH2 0xB63 DUP8 PUSH2 0xD97 JUMP JUMPDEST PUSH1 0x1 PUSH1 0x1 PUSH1 0xA0 SHL SUB DUP9 AND PUSH1 0x0 SWAP1 DUP2 MSTORE PUSH1 0x6 PUSH1 0x20 SWAP1 DUP2 MSTORE PUSH1 0x40 DUP1 DUP4 KECCAK256 PUSH1 0xFF DUP12 AND DUP5 MSTORE SWAP1 SWAP2 MSTORE DUP2 KECCAK256 PUSH1 0x2 ADD SLOAD SWAP1 DUP2 SWAP1 SUB PUSH2 0xBB0 JUMPI PUSH1 0x0 DUP1 PUSH1 0x0 DUP1 PUSH1 0x0 DUP1 SWAP7 POP SWAP7 POP SWAP7 POP SWAP7 POP SWAP7 POP SWAP7 POP POP PUSH2 0x9AA JUMP JUMPDEST PUSH1 0xFF DUP9 AND PUSH1 0x0 SWAP1 DUP2 MSTORE PUSH1 0x7 PUSH1 0x20 MSTORE PUSH1 0x40 DUP2 KECCAK256 PUSH2 0xBCD PUSH1 0x1 DUP5 PUSH2 0x1979 JUMP JUMPDEST DUP2 SLOAD DUP2 LT PUSH2 0xBDD JUMPI PUSH2 0xBDD PUSH2 0x198C JUMP JUMPDEST PUSH1 0x0 SWAP2 DUP3 MSTORE PUSH1 0x20 SWAP1 SWAP2 KECCAK256 PUSH1 0x6 SWAP1 SWAP2 MUL ADD PUSH1 0x1 DUP2 ADD SLOAD PUSH1 0x2 DUP3 ADD SLOAD PUSH1 0x3 DUP4 ADD SLOAD PUSH1 0x4 DUP5 ADD SLOAD PUSH1 0x5 SWAP1 SWAP5 ADD SLOAD SWAP6 SWAP15 SWAP3 SWAP14 POP SWAP1 SWAP12 POP SWAP10 POP SWAP1 SWAP8 POP PUSH1 0xFF SWAP1 SWAP3 AND SWAP6 POP SWAP1 SWAP4 POP POP POP POP JUMP JUMPDEST PUSH1 0x0 SLOAD PUSH1 0x1 PUSH1 0x1 PUSH1 0xA0 SHL SUB AND CALLER EQ PUSH2 0xC4D JUMPI PUSH1 0x40 MLOAD PUSH3 0x461BCD PUSH1 0xE5 SHL DUP2 MSTORE PUSH1 0x4 ADD PUSH2 0x14A SWAP1 PUSH2 0x18F6 JUMP JUMPDEST PUSH1 0x1 PUSH1 0x1 PUSH1 0xA0 SHL SUB DUP2 AND PUSH2 0xCA3 JUMPI PUSH1 0x40 MLOAD PUSH3 0x461BCD PUSH1 0xE5 SHL DUP2 MSTORE PUSH1 0x20 PUSH1 0x4 DUP3 ADD MSTORE PUSH1 0x1C PUSH1 0x24 DUP3 ADD MSTORE PUSH32 0x5472656173757279206164647265737320697320726571756972656400000000 PUSH1 0x44 DUP3 ADD MSTORE PUSH1 0x64 ADD PUSH2 0x14A JUMP JUMPDEST PUSH1 0x1 DUP1 SLOAD PUSH1 0x1 PUSH1 0x1 PUSH1 0xA0 SHL SUB DUP4 DUP2 AND PUSH1 0x1 PUSH1 0x1 PUSH1 0xA0 SHL SUB NOT DUP4 AND DUP2 OR SWAP1 SWAP4 SSTORE PUSH1 0x40 MLOAD SWAP2 AND SWAP2 SWAP1 DUP3 SWAP1 PUSH32 0x8C3AA5F43A388513435861BF27DFAD7829CD248696FED367C62D441F62954496 SWAP1 PUSH1 0x0 SWAP1 LOG3 POP POP JUMP JUMPDEST PUSH1 0x0 SLOAD PUSH1 0x1 PUSH1 0x1 PUSH1 0xA0 SHL SUB AND CALLER EQ PUSH2 0xD1F JUMPI PUSH1 0x40 MLOAD PUSH3 0x461BCD PUSH1 0xE5 SHL DUP2 MSTORE PUSH1 0x4 ADD PUSH2 0x14A SWAP1 PUSH2 0x18F6 JUMP JUMPDEST PUSH1 0x1 PUSH1 0x1 PUSH1 0xA0 SHL SUB DUP2 AND PUSH2 0xD75 JUMPI PUSH1 0x40 MLOAD PUSH3 0x461BCD PUSH1 0xE5 SHL DUP2 MSTORE PUSH1 0x20 PUSH1 0x4 DUP3 ADD MSTORE PUSH1 0x19 PUSH1 0x24 DUP3 ADD MSTORE PUSH32 0x4F776E6572206164647265737320697320726571756972656400000000000000 PUSH1 0x44 DUP3 ADD MSTORE PUSH1 0x64 ADD PUSH2 0x14A JUMP JUMPDEST PUSH1 0x0 DUP1 SLOAD PUSH1 0x1 PUSH1 0x1 PUSH1 0xA0 SHL SUB NOT AND PUSH1 0x1 PUSH1 0x1 PUSH1 0xA0 SHL SUB SWAP3 SWAP1 SWAP3 AND SWAP2 SWAP1 SWAP2 OR SWAP1 SSTORE JUMP JUMPDEST PUSH1 0x1 DUP2 PUSH1 0xFF AND LT ISZERO DUP1 ISZERO PUSH2 0xDAF JUMPI POP PUSH1 0x11 PUSH1 0xFF DUP3 AND GT ISZERO JUMPDEST PUSH2 0xDEB JUMPI PUSH1 0x40 MLOAD PUSH3 0x461BCD PUSH1 0xE5 SHL DUP2 MSTORE PUSH1 0x20 PUSH1 0x4 DUP3 ADD MSTORE PUSH1 0xD PUSH1 0x24 DUP3 ADD MSTORE PUSH13 0x125B9D985B1A59081B195D995B PUSH1 0x9A SHL PUSH1 0x44 DUP3 ADD MSTORE PUSH1 0x64 ADD PUSH2 0x14A JUMP JUMPDEST POP JUMP JUMPDEST PUSH1 0xFF DUP3 AND PUSH1 0x0 SWAP1 DUP2 MSTORE PUSH1 0x7 PUSH1 0x20 MSTORE PUSH1 0x40 DUP2 KECCAK256 DUP1 SLOAD DUP3 SWAP1 DUP2 SWAP1 DUP2 SWAP1 DUP2 SUB PUSH2 0xE8F JUMPI DUP4 SLOAD PUSH1 0x1 SWAP1 DUP2 ADD DUP1 DUP7 SSTORE PUSH1 0x0 DUP7 DUP2 MSTORE SWAP2 DUP7 SWAP2 PUSH2 0xE2A SWAP2 SWAP1 PUSH2 0x1979 JUMP JUMPDEST DUP2 SLOAD DUP2 LT PUSH2 0xE3A JUMPI PUSH2 0xE3A PUSH2 0x198C JUMP JUMPDEST PUSH1 0x0 SWAP2 DUP3 MSTORE PUSH1 0x20 DUP1 DUP4 KECCAK256 PUSH1 0x6 SWAP3 SWAP1 SWAP3 MUL SWAP1 SWAP2 ADD DUP1 SLOAD PUSH1 0x1 PUSH1 0x1 PUSH1 0xA0 SHL SUB NOT AND PUSH1 0x1 PUSH1 0x1 PUSH1 0xA0 SHL SUB DUP12 AND OR DUP2 SSTORE PUSH1 0x4 DUP2 ADD DUP4 SWAP1 SSTORE PUSH1 0x5 ADD DUP1 SLOAD PUSH1 0xFF NOT AND SWAP1 SSTORE PUSH1 0xFF DUP11 AND DUP3 MSTORE PUSH1 0x8 SWAP1 MSTORE PUSH1 0x40 SWAP1 KECCAK256 PUSH1 0x1 SWAP1 SSTORE POP POP DUP3 SLOAD JUMPDEST DUP4 SLOAD PUSH1 0x1 LT DUP1 PUSH2 0xE9D JUMPI POP DUP1 ISZERO JUMPDEST ISZERO PUSH2 0x1029 JUMPI PUSH1 0xFF DUP8 AND PUSH1 0x0 SWAP1 DUP2 MSTORE PUSH1 0x8 PUSH1 0x20 MSTORE PUSH1 0x40 DUP2 KECCAK256 SLOAD SWAP4 POP DUP4 SWAP1 SUB PUSH2 0xEC3 JUMPI PUSH1 0x1 SWAP3 POP JUMPDEST PUSH1 0x0 DUP5 PUSH2 0xED1 PUSH1 0x1 DUP7 PUSH2 0x1979 JUMP JUMPDEST DUP2 SLOAD DUP2 LT PUSH2 0xEE1 JUMPI PUSH2 0xEE1 PUSH2 0x198C JUMP JUMPDEST PUSH1 0x0 SWAP2 DUP3 MSTORE PUSH1 0x20 SWAP1 SWAP2 KECCAK256 PUSH1 0x6 SWAP1 SWAP2 MUL ADD PUSH1 0x5 DUP2 ADD SLOAD SWAP1 SWAP2 POP PUSH1 0xFF AND ISZERO PUSH2 0xF49 JUMPI PUSH1 0x40 MLOAD PUSH3 0x461BCD PUSH1 0xE5 SHL DUP2 MSTORE PUSH1 0x20 PUSH1 0x4 DUP3 ADD MSTORE PUSH1 0x17 PUSH1 0x24 DUP3 ADD MSTORE PUSH32 0x4D617472697820706172656E7420697320636C6F736564000000000000000000 PUSH1 0x44 DUP3 ADD MSTORE PUSH1 0x64 ADD PUSH2 0x14A JUMP JUMPDEST PUSH1 0x4 DUP2 ADD SLOAD PUSH2 0xF59 SWAP1 PUSH1 0x1 PUSH2 0x1966 JUMP JUMPDEST DUP6 SLOAD PUSH1 0x1 SWAP1 DUP2 ADD DUP1 DUP9 SSTORE PUSH1 0x0 DUP9 DUP2 MSTORE SWAP3 SWAP6 POP DUP8 SWAP2 PUSH2 0xF76 SWAP2 PUSH2 0x1979 JUMP JUMPDEST DUP2 SLOAD DUP2 LT PUSH2 0xF86 JUMPI PUSH2 0xF86 PUSH2 0x198C JUMP JUMPDEST PUSH1 0x0 SWAP2 DUP3 MSTORE PUSH1 0x20 DUP3 KECCAK256 PUSH1 0x6 SWAP2 SWAP1 SWAP2 MUL ADD DUP1 SLOAD PUSH1 0x1 PUSH1 0x1 PUSH1 0xA0 SHL SUB NOT AND PUSH1 0x1 PUSH1 0x1 PUSH1 0xA0 SHL SUB DUP12 AND OR DUP2 SSTORE PUSH1 0x1 DUP2 ADD DUP8 SWAP1 SSTORE PUSH1 0x4 DUP2 ADD DUP7 SWAP1 SSTORE PUSH1 0x5 DUP2 ADD DUP1 SLOAD PUSH1 0xFF NOT AND SWAP1 SSTORE DUP8 SLOAD PUSH1 0x2 DUP6 ADD SLOAD SWAP1 SWAP6 POP SWAP1 SWAP3 POP DUP5 SWAP2 SUB PUSH2 0xFE5 JUMPI PUSH1 0x2 DUP4 ADD DUP2 SWAP1 SSTORE JUMPDEST DUP1 DUP4 PUSH1 0x2 ADD SLOAD EQ PUSH2 0x1025 JUMPI PUSH1 0x3 DUP4 ADD DUP2 SWAP1 SSTORE PUSH1 0x5 DUP4 ADD DUP1 SLOAD PUSH1 0xFF NOT AND PUSH1 0x1 OR SWAP1 SSTORE PUSH2 0x100F DUP11 PUSH2 0x1219 JUMP JUMPDEST DUP3 SLOAD PUSH2 0x1025 SWAP1 DUP12 SWAP1 PUSH1 0x1 PUSH1 0x1 PUSH1 0xA0 SHL SUB AND PUSH2 0x12C7 JUMP JUMPDEST POP POP POP JUMPDEST PUSH1 0x1 PUSH1 0x1 PUSH1 0xA0 SHL SUB DUP7 AND PUSH1 0x0 DUP2 DUP2 MSTORE PUSH1 0x6 PUSH1 0x20 SWAP1 DUP2 MSTORE PUSH1 0x40 DUP1 DUP4 KECCAK256 PUSH1 0xFF DUP13 AND DUP1 DUP6 MSTORE SWAP1 DUP4 MSTORE DUP2 DUP5 KECCAK256 PUSH1 0x2 ADD DUP7 SWAP1 SSTORE DUP9 SLOAD PUSH1 0x4 DUP5 MSTORE SWAP4 DUP3 SWAP1 KECCAK256 SWAP4 SWAP1 SWAP4 SSTORE DUP1 MLOAD DUP6 DUP2 MSTORE SWAP2 DUP3 ADD DUP8 SWAP1 MSTORE SWAP2 SWAP3 SWAP2 PUSH32 0xD8A08C0C1F4B5E930E1DA0BD0B50635C1F9DE780C217CE3FA2A17686579146C8 SWAP2 ADD PUSH1 0x40 MLOAD DUP1 SWAP2 SUB SWAP1 LOG3 SWAP7 SWAP6 POP POP POP POP POP POP JUMP JUMPDEST PUSH1 0xFF DUP4 AND PUSH1 0x0 SWAP1 DUP2 MSTORE PUSH1 0x7 PUSH1 0x20 MSTORE PUSH1 0x40 DUP2 KECCAK256 PUSH2 0x10C5 PUSH1 0x1 DUP5 PUSH2 0x1979 JUMP JUMPDEST DUP2 SLOAD DUP2 LT PUSH2 0x10D5 JUMPI PUSH2 0x10D5 PUSH2 0x198C JUMP JUMPDEST SWAP1 PUSH1 0x0 MSTORE PUSH1 0x20 PUSH1 0x0 KECCAK256 SWAP1 PUSH1 0x6 MUL ADD SWAP1 POP PUSH1 0x0 PUSH2 0x10F5 DUP6 DUP4 PUSH1 0x1 ADD SLOAD PUSH2 0x144D JUMP JUMPDEST SWAP1 POP PUSH1 0x0 PUSH2 0x2710 PUSH2 0x1108 PUSH2 0x1F40 DUP8 PUSH2 0x19A2 JUMP JUMPDEST PUSH2 0x1112 SWAP2 SWAP1 PUSH2 0x19B9 JUMP JUMPDEST SWAP1 POP PUSH2 0x1120 DUP8 DUP4 DUP9 DUP5 PUSH2 0x14F0 JUMP JUMPDEST PUSH1 0x0 PUSH2 0x112C DUP9 DUP8 PUSH2 0x1591 JUMP JUMPDEST SWAP1 POP PUSH1 0x0 PUSH2 0x113A DUP3 DUP5 PUSH2 0x1966 JUMP JUMPDEST SWAP1 POP DUP1 DUP8 GT ISZERO PUSH2 0x1163 JUMPI PUSH1 0x1 SLOAD PUSH2 0x1163 SWAP1 PUSH1 0x1 PUSH1 0x1 PUSH1 0xA0 SHL SUB AND PUSH2 0x115E DUP4 DUP11 PUSH2 0x1979 JUMP JUMPDEST PUSH2 0x16B1 JUMP JUMPDEST POP POP POP POP POP POP POP POP POP JUMP JUMPDEST PUSH1 0x1 DUP2 PUSH1 0xFF AND GT PUSH2 0x117D JUMPI POP POP JUMP JUMPDEST PUSH1 0x1 PUSH1 0x1 PUSH1 0xA0 SHL SUB DUP3 AND PUSH1 0x0 SWAP1 DUP2 MSTORE PUSH1 0x6 PUSH1 0x20 MSTORE PUSH1 0x40 DUP2 KECCAK256 DUP2 PUSH2 0x11A1 PUSH1 0x1 DUP6 PUSH2 0x194D JUMP JUMPDEST PUSH1 0xFF SWAP1 DUP2 AND DUP3 MSTORE PUSH1 0x20 DUP3 ADD SWAP3 SWAP1 SWAP3 MSTORE PUSH1 0x40 ADD PUSH1 0x0 KECCAK256 DUP1 SLOAD SWAP1 SWAP3 POP PUSH2 0x100 SWAP1 DIV AND ISZERO PUSH2 0x1214 JUMPI DUP1 SLOAD PUSH2 0xFF00 NOT AND DUP2 SSTORE PUSH2 0x11DA PUSH1 0x1 DUP4 PUSH2 0x194D JUMP JUMPDEST PUSH1 0xFF AND DUP4 PUSH1 0x1 PUSH1 0x1 PUSH1 0xA0 SHL SUB AND PUSH32 0xB0F7D96751587DE2FBB05AE8BB25971BA7CD777DE717EB3698B701D6C7739654 PUSH1 0x40 MLOAD PUSH1 0x40 MLOAD DUP1 SWAP2 SUB SWAP1 LOG3 JUMPDEST POP POP POP JUMP JUMPDEST PUSH1 0xFF DUP2 AND PUSH1 0x0 SWAP1 DUP2 MSTORE PUSH1 0x7 PUSH1 0x20 SWAP1 DUP2 MSTORE PUSH1 0x40 DUP1 DUP4 KECCAK256 PUSH1 0x8 SWAP1 SWAP3 MSTORE DUP3 KECCAK256 SLOAD SWAP1 SWAP2 DUP2 SWAP1 SUB PUSH2 0x1243 JUMPI POP PUSH1 0x1 JUMPDEST DUP2 SLOAD DUP2 GT DUP1 ISZERO SWAP1 PUSH2 0x1283 JUMPI POP DUP2 PUSH2 0x125B PUSH1 0x1 DUP4 PUSH2 0x1979 JUMP JUMPDEST DUP2 SLOAD DUP2 LT PUSH2 0x126B JUMPI PUSH2 0x126B PUSH2 0x198C JUMP JUMPDEST PUSH1 0x0 SWAP2 DUP3 MSTORE PUSH1 0x20 SWAP1 SWAP2 KECCAK256 PUSH1 0x5 PUSH1 0x6 SWAP1 SWAP3 MUL ADD ADD SLOAD PUSH1 0xFF AND JUMPDEST ISZERO PUSH2 0x129A JUMPI DUP1 PUSH2 0x1292 DUP2 PUSH2 0x19DB JUMP JUMPDEST SWAP2 POP POP PUSH2 0x1243 JUMP JUMPDEST DUP2 SLOAD DUP2 GT ISZERO PUSH2 0x12AA JUMPI PUSH1 0x0 PUSH2 0x12AC JUMP JUMPDEST DUP1 JUMPDEST PUSH1 0xFF SWAP1 SWAP4 AND PUSH1 0x0 SWAP1 DUP2 MSTORE PUSH1 0x8 PUSH1 0x20 MSTORE PUSH1 0x40 SWAP1 KECCAK256 SWAP3 SWAP1 SWAP3 SSTORE POP POP JUMP JUMPDEST PUSH1 0x1 PUSH1 0x1 PUSH1 0xA0 SHL SUB DUP2 AND PUSH1 0x0 SWAP1 DUP2 MSTORE PUSH1 0x6 PUSH1 0x20 SWAP1 DUP2 MSTORE PUSH1 0x40 DUP1 DUP4 KECCAK256 PUSH1 0xFF DUP1 DUP8 AND DUP6 MSTORE SWAP3 MSTORE SWAP1 SWAP2 KECCAK256 DUP1 SLOAD SWAP1 SWAP2 AND ISZERO DUP1 PUSH2 0x1305 JUMPI POP DUP1 SLOAD PUSH2 0x100 SWAP1 DIV PUSH1 0xFF AND JUMPDEST ISZERO PUSH2 0x130F JUMPI POP POP POP JUMP JUMPDEST PUSH1 0x1 DUP2 PUSH1 0x1 ADD PUSH1 0x0 DUP3 DUP3 SLOAD PUSH2 0x1324 SWAP2 SWAP1 PUSH2 0x1966 JUMP JUMPDEST SWAP1 SWAP2 SSTORE POP PUSH1 0x0 SWAP1 POP PUSH2 0x1336 DUP5 DUP5 PUSH2 0xDEE JUMP JUMPDEST SWAP1 POP DUP4 PUSH1 0xFF AND DUP4 PUSH1 0x1 PUSH1 0x1 PUSH1 0xA0 SHL SUB AND PUSH32 0xBDE1DD97B8C6B9FB71194209F50387CCCF9EC5CC5C0E9AA18B13C93CF78CE6E8 DUP5 PUSH1 0x1 ADD SLOAD DUP5 PUSH1 0x40 MLOAD PUSH2 0x1384 SWAP3 SWAP2 SWAP1 SWAP2 DUP3 MSTORE PUSH1 0x20 DUP3 ADD MSTORE PUSH1 0x40 ADD SWAP1 JUMP JUMPDEST PUSH1 0x40 MLOAD DUP1 SWAP2 SUB SWAP1 LOG3 PUSH1 0x11 PUSH1 0xFF DUP6 AND LT DUP1 ISZERO PUSH2 0x13A4 JUMPI POP PUSH1 0x2 DUP3 PUSH1 0x1 ADD SLOAD LT ISZERO JUMPDEST DUP1 ISZERO PUSH2 0x13E8 JUMPI POP PUSH1 0x1 PUSH1 0x1 PUSH1 0xA0 SHL SUB DUP4 AND PUSH1 0x0 SWAP1 DUP2 MSTORE PUSH1 0x6 PUSH1 0x20 MSTORE PUSH1 0x40 DUP2 KECCAK256 SWAP1 PUSH2 0x13CF DUP7 PUSH1 0x1 PUSH2 0x19F4 JUMP JUMPDEST PUSH1 0xFF SWAP1 DUP2 AND DUP3 MSTORE PUSH1 0x20 DUP3 ADD SWAP3 SWAP1 SWAP3 MSTORE PUSH1 0x40 ADD PUSH1 0x0 KECCAK256 SLOAD AND ISZERO JUMPDEST DUP1 ISZERO PUSH2 0x13FB JUMPI POP DUP2 SLOAD PUSH2 0x100 SWAP1 DIV PUSH1 0xFF AND ISZERO JUMPDEST ISZERO PUSH2 0x1447 JUMPI DUP2 SLOAD PUSH2 0xFF00 NOT AND PUSH2 0x100 OR DUP3 SSTORE PUSH1 0x40 MLOAD PUSH1 0xFF DUP6 AND SWAP1 PUSH1 0x1 PUSH1 0x1 PUSH1 0xA0 SHL SUB DUP6 AND SWAP1 PUSH32 0x9EEDAD69E1DA086C8D70014EDEF61ADDC1D62BFDF25B1DCD3484AD720B970762 SWAP1 PUSH1 0x0 SWAP1 LOG3 JUMPDEST POP POP POP POP JUMP JUMPDEST PUSH1 0x0 DUP2 PUSH1 0x0 SUB PUSH2 0x1469 JUMPI POP PUSH1 0x1 SLOAD PUSH1 0x1 PUSH1 0x1 PUSH1 0xA0 SHL SUB AND PUSH2 0x534 JUMP JUMPDEST PUSH1 0xFF DUP4 AND PUSH1 0x0 SWAP1 DUP2 MSTORE PUSH1 0x7 PUSH1 0x20 MSTORE PUSH1 0x40 DUP2 KECCAK256 PUSH2 0x1486 PUSH1 0x1 DUP6 PUSH2 0x1979 JUMP JUMPDEST DUP2 SLOAD DUP2 LT PUSH2 0x1496 JUMPI PUSH2 0x1496 PUSH2 0x198C JUMP JUMPDEST PUSH1 0x0 SWAP2 DUP3 MSTORE PUSH1 0x20 DUP1 DUP4 KECCAK256 PUSH1 0x6 SWAP3 DUP4 MUL ADD SLOAD PUSH1 0x1 PUSH1 0x1 PUSH1 0xA0 SHL SUB AND DUP1 DUP5 MSTORE SWAP2 DUP2 MSTORE PUSH1 0x40 DUP1 DUP5 KECCAK256 PUSH1 0xFF DUP1 DUP11 AND DUP7 MSTORE SWAP3 MSTORE SWAP1 SWAP3 KECCAK256 SLOAD SWAP1 SWAP3 POP PUSH2 0x100 SWAP1 DIV AND ISZERO PUSH2 0x14E9 JUMPI POP POP PUSH1 0x1 SLOAD PUSH1 0x1 PUSH1 0x1 PUSH1 0xA0 SHL SUB AND PUSH2 0x534 JUMP JUMPDEST SWAP4 SWAP3 POP POP POP JUMP JUMPDEST PUSH2 0x14FA DUP4 DUP3 PUSH2 0x16B1 JUMP JUMPDEST PUSH1 0x1 PUSH1 0x1 PUSH1 0xA0 SHL SUB DUP4 AND PUSH1 0x0 SWAP1 DUP2 MSTORE PUSH1 0x6 PUSH1 0x20 SWAP1 DUP2 MSTORE PUSH1 0x40 DUP1 DUP4 KECCAK256 PUSH1 0xFF DUP7 AND DUP5 MSTORE SWAP1 SWAP2 MSTORE DUP2 KECCAK256 PUSH1 0x3 ADD DUP1 SLOAD DUP4 SWAP3 SWAP1 PUSH2 0x1533 SWAP1 DUP5 SWAP1 PUSH2 0x1966 JUMP JUMPDEST SWAP3 POP POP DUP2 SWAP1 SSTORE POP DUP2 PUSH1 0xFF AND DUP4 PUSH1 0x1 PUSH1 0x1 PUSH1 0xA0 SHL SUB AND DUP6 PUSH1 0x1 PUSH1 0x1 PUSH1 0xA0 SHL SUB AND PUSH32 0x16BA2B19BB64507CF2C1A04B1F42C44AECACDA5B2B3AD30B3E05FFD1A711915B DUP5 PUSH1 0x40 MLOAD PUSH2 0x1583 SWAP2 DUP2 MSTORE PUSH1 0x20 ADD SWAP1 JUMP JUMPDEST PUSH1 0x40 MLOAD DUP1 SWAP2 SUB SWAP1 LOG4 POP POP POP POP JUMP JUMPDEST PUSH1 0x1 PUSH1 0x1 PUSH1 0xA0 SHL SUB DUP1 DUP4 AND PUSH1 0x0 SWAP1 DUP2 MSTORE PUSH1 0x5 PUSH1 0x20 MSTORE PUSH1 0x40 DUP2 KECCAK256 SLOAD SWAP1 SWAP2 PUSH2 0x100 SWAP1 SWAP2 DIV AND DUP2 PUSH2 0x15C5 DUP6 DUP4 PUSH1 0x1 DUP8 PUSH2 0x3B6 PUSH2 0x1756 JUMP JUMPDEST PUSH2 0x15CF SWAP1 DUP3 PUSH2 0x1966 JUMP JUMPDEST PUSH1 0x2 SLOAD SWAP1 SWAP2 POP PUSH2 0x15EE SWAP1 DUP7 SWAP1 PUSH1 0x1 PUSH1 0x1 PUSH1 0xA0 SHL SUB AND PUSH1 0x0 DUP8 PUSH1 0x32 PUSH2 0x1756 JUMP JUMPDEST PUSH2 0x15F8 SWAP1 DUP3 PUSH2 0x1966 JUMP JUMPDEST SWAP1 POP PUSH1 0x0 PUSH1 0x1 PUSH1 0x1 PUSH1 0xA0 SHL SUB DUP4 AND ISZERO PUSH2 0x1630 JUMPI PUSH1 0x1 PUSH1 0x1 PUSH1 0xA0 SHL SUB DUP1 DUP5 AND PUSH1 0x0 SWAP1 DUP2 MSTORE PUSH1 0x5 PUSH1 0x20 MSTORE PUSH1 0x40 SWAP1 KECCAK256 SLOAD PUSH2 0x100 SWAP1 DIV AND PUSH2 0x1633 JUMP JUMPDEST PUSH1 0x0 JUMPDEST SWAP1 POP PUSH2 0x1645 DUP7 DUP3 PUSH1 0x2 DUP9 PUSH2 0x258 PUSH2 0x1756 JUMP JUMPDEST PUSH2 0x164F SWAP1 DUP4 PUSH2 0x1966 JUMP JUMPDEST SWAP2 POP PUSH1 0x0 PUSH1 0x1 PUSH1 0x1 PUSH1 0xA0 SHL SUB DUP3 AND ISZERO PUSH2 0x1687 JUMPI PUSH1 0x1 PUSH1 0x1 PUSH1 0xA0 SHL SUB DUP1 DUP4 AND PUSH1 0x0 SWAP1 DUP2 MSTORE PUSH1 0x5 PUSH1 0x20 MSTORE PUSH1 0x40 SWAP1 KECCAK256 SLOAD PUSH2 0x100 SWAP1 DIV AND PUSH2 0x168A JUMP JUMPDEST PUSH1 0x0 JUMPDEST SWAP1 POP PUSH2 0x169C DUP8 DUP3 PUSH1 0x3 DUP10 PUSH2 0x190 PUSH2 0x1756 JUMP JUMPDEST PUSH2 0x16A6 SWAP1 DUP5 PUSH2 0x1966 JUMP JUMPDEST SWAP8 SWAP7 POP POP POP POP POP POP POP JUMP JUMPDEST DUP1 PUSH1 0x0 SUB PUSH2 0x16BD JUMPI POP POP JUMP JUMPDEST PUSH1 0x0 DUP3 PUSH1 0x1 PUSH1 0x1 PUSH1 0xA0 SHL SUB AND DUP3 PUSH1 0x40 MLOAD PUSH1 0x0 PUSH1 0x40 MLOAD DUP1 DUP4 SUB DUP2 DUP6 DUP8 GAS CALL SWAP3 POP POP POP RETURNDATASIZE DUP1 PUSH1 0x0 DUP2 EQ PUSH2 0x170A JUMPI PUSH1 0x40 MLOAD SWAP2 POP PUSH1 0x1F NOT PUSH1 0x3F RETURNDATASIZE ADD AND DUP3 ADD PUSH1 0x40 MSTORE RETURNDATASIZE DUP3 MSTORE RETURNDATASIZE PUSH1 0x0 PUSH1 0x20 DUP5 ADD RETURNDATACOPY PUSH2 0x170F JUMP JUMPDEST PUSH1 0x60 SWAP2 POP JUMPDEST POP POP SWAP1 POP DUP1 PUSH2 0x1214 JUMPI PUSH1 0x40 MLOAD PUSH3 0x461BCD PUSH1 0xE5 SHL DUP2 MSTORE PUSH1 0x20 PUSH1 0x4 DUP3 ADD MSTORE PUSH1 0x13 PUSH1 0x24 DUP3 ADD MSTORE PUSH19 0x115512081D1C985B9CD9995C8819985A5B1959 PUSH1 0x6A SHL PUSH1 0x44 DUP3 ADD MSTORE PUSH1 0x64 ADD PUSH2 0x14A JUMP JUMPDEST PUSH1 0x0 DUP1 PUSH2 0x2710 PUSH2 0x176A PUSH2 0xFFFF DUP6 AND DUP7 PUSH2 0x19A2 JUMP JUMPDEST PUSH2 0x1774 SWAP2 SWAP1 PUSH2 0x19B9 JUMP JUMPDEST SWAP1 POP PUSH1 0x0 PUSH1 0x1 PUSH1 0x1 PUSH1 0xA0 SHL SUB DUP8 AND ISZERO PUSH2 0x178D JUMPI DUP7 PUSH2 0x179A JUMP JUMPDEST PUSH1 0x1 SLOAD PUSH1 0x1 PUSH1 0x1 PUSH1 0xA0 SHL SUB AND JUMPDEST SWAP1 POP PUSH2 0x17A6 DUP2 DUP4 PUSH2 0x16B1 JUMP JUMPDEST PUSH1 0x40 DUP1 MLOAD PUSH1 0xFF DUP9 AND DUP2 MSTORE PUSH1 0x20 DUP2 ADD DUP5 SWAP1 MSTORE PUSH1 0x1 PUSH1 0x1 PUSH1 0xA0 SHL SUB DUP1 DUP5 AND SWAP3 SWAP1 DUP12 AND SWAP2 PUSH32 0x53AA79CC77A3D2E16F0F104BCE3B3DA868F1EC7596A2CC49A09F8103982DA834 SWAP2 ADD PUSH1 0x40 MLOAD DUP1 SWAP2 SUB SWAP1 LOG3 POP SWAP7 SWAP6 POP POP POP POP POP POP JUMP JUMPDEST PUSH1 0x1 PUSH1 0x1 PUSH1 0xA0 SHL SUB DUP2 AND DUP2 EQ PUSH2 0xDEB JUMPI PUSH1 0x0 DUP1 REVERT JUMPDEST DUP1 CALLDATALOAD PUSH1 0xFF DUP2 AND DUP2 EQ PUSH2 0x1823 JUMPI PUSH1 0x0 DUP1 REVERT JUMPDEST SWAP2 SWAP1 POP JUMP JUMPDEST PUSH1 0x0 DUP1 PUSH1 0x40 DUP4 DUP6 SUB SLT ISZERO PUSH2 0x183B JUMPI PUSH1 0x0 DUP1 REVERT JUMPDEST DUP3 CALLDATALOAD PUSH2 0x1846 DUP2 PUSH2 0x17FD JUMP JUMPDEST SWAP2 POP PUSH2 0x1854 PUSH1 0x20 DUP5 ADD PUSH2 0x1812 JUMP JUMPDEST SWAP1 POP SWAP3 POP SWAP3 SWAP1 POP JUMP JUMPDEST PUSH1 0x0 PUSH1 0x20 DUP3 DUP5 SUB SLT ISZERO PUSH2 0x186F JUMPI PUSH1 0x0 DUP1 REVERT JUMPDEST DUP2 CALLDATALOAD PUSH2 0x14E9 DUP2 PUSH2 0x17FD JUMP JUMPDEST PUSH1 0x0 PUSH1 0x20 DUP3 DUP5 SUB SLT ISZERO PUSH2 0x188C JUMPI PUSH1 0x0 DUP1 REVERT JUMPDEST PUSH2 0x14E9 DUP3 PUSH2 0x1812 JUMP JUMPDEST PUSH1 0x0 DUP1 PUSH1 0x40 DUP4 DUP6 SUB SLT ISZERO PUSH2 0x18A8 JUMPI PUSH1 0x0 DUP1 REVERT JUMPDEST PUSH2 0x18B1 DUP4 PUSH2 0x1812 JUMP JUMPDEST SWAP2 POP PUSH1 0x20 DUP4 ADD CALLDATALOAD PUSH2 0x18C1 DUP2 PUSH2 0x17FD JUMP JUMPDEST DUP1 SWAP2 POP POP SWAP3 POP SWAP3 SWAP1 POP JUMP JUMPDEST PUSH1 0x0 DUP1 PUSH1 0x40 DUP4 DUP6 SUB SLT ISZERO PUSH2 0x18DF JUMPI PUSH1 0x0 DUP1 REVERT JUMPDEST PUSH2 0x18E8 DUP4 PUSH2 0x1812 JUMP JUMPDEST SWAP5 PUSH1 0x20 SWAP4 SWAP1 SWAP4 ADD CALLDATALOAD SWAP4 POP POP POP JUMP JUMPDEST PUSH1 0x20 DUP1 DUP3 MSTORE PUSH1 0x21 SWAP1 DUP3 ADD MSTORE PUSH32 0x4F6E6C79206F776E65722063616E2063616C6C20746869732066756E6374696F PUSH1 0x40 DUP3 ADD MSTORE PUSH1 0x37 PUSH1 0xF9 SHL PUSH1 0x60 DUP3 ADD MSTORE PUSH1 0x80 ADD SWAP1 JUMP JUMPDEST PUSH4 0x4E487B71 PUSH1 0xE0 SHL PUSH1 0x0 MSTORE PUSH1 0x11 PUSH1 0x4 MSTORE PUSH1 0x24 PUSH1 0x0 REVERT JUMPDEST PUSH1 0xFF DUP3 DUP2 AND DUP3 DUP3 AND SUB SWAP1 DUP2 GT ISZERO PUSH2 0x534 JUMPI PUSH2 0x534 PUSH2 0x1937 JUMP JUMPDEST DUP1 DUP3 ADD DUP1 DUP3 GT ISZERO PUSH2 0x534 JUMPI PUSH2 0x534 PUSH2 0x1937 JUMP JUMPDEST DUP2 DUP2 SUB DUP2 DUP2 GT ISZERO PUSH2 0x534 JUMPI PUSH2 0x534 PUSH2 0x1937 JUMP JUMPDEST PUSH4 0x4E487B71 PUSH1 0xE0 SHL PUSH1 0x0 MSTORE PUSH1 0x32 PUSH1 0x4 MSTORE PUSH1 0x24 PUSH1 0x0 REVERT JUMPDEST DUP1 DUP3 MUL DUP2 ISZERO DUP3 DUP3 DIV DUP5 EQ OR PUSH2 0x534 JUMPI PUSH2 0x534 PUSH2 0x1937 JUMP JUMPDEST PUSH1 0x0 DUP3 PUSH2 0x19D6 JUMPI PUSH4 0x4E487B71 PUSH1 0xE0 SHL PUSH1 0x0 MSTORE PUSH1 0x12 PUSH1 0x4 MSTORE PUSH1 0x24 PUSH1 0x0 REVERT JUMPDEST POP DIV SWAP1 JUMP JUMPDEST PUSH1 0x0 PUSH1 0x1 DUP3 ADD PUSH2 0x19ED JUMPI PUSH2 0x19ED PUSH2 0x1937 JUMP JUMPDEST POP PUSH1 0x1 ADD SWAP1 JUMP JUMPDEST PUSH1 0xFF DUP2 DUP2 AND DUP4 DUP3 AND ADD SWAP1 DUP2 GT ISZERO PUSH2 0x534 JUMPI PUSH2 0x534 PUSH2 0x1937 JUMP INVALID LOG2 PUSH5 0x6970667358 0x22 SLT KECCAK256 STATICCALL DUP2 PUSH1 0x4F PUSH13 0x43147362D59837CE0F2C99DE98 CALLDATACOPY PUSH32 0xDDCBDBBA74576D057CFD84FD64736F6C63430008180033000000000000000000 "},"methodIdentifiers":{"LEVEL_COUNT()":"1d6a884b","activateLevel(uint8,address)":"48d46be1","getLevelMatrixStats(uint8)":"b9aee263","getMatrixNode(uint8,uint256)":"4a57c6d9","getPlayer(address)":"5c12cd4b","getPlayerLevel(address,uint8)":"a0978ac2","getPlayerPosition(address,uint8)":"d2a16080","isLevelActive(address,uint8)":"75b7d7c1","isLevelFrozen(address,uint8)":"0e475efd","levelMatrixSize(uint8)":"c05db4ce","levelPrices(uint8)":"2e50d906","operatorWallet()":"f90ef4ac","owner()":"8da5cb5b","setLevelPrice(uint8,uint256)":"8eb657c4","setOperatorWallet(address)":"12513f2a","setTreasury(address)":"f0f44260","transferOwnership(address)":"f2fde38b","treasury()":"61d027b3"}}}}}