{"contracts/Lottery_Advance.sol":{"Lottery":{"abi":[{"inputs":[{"internalType":"string","name":"name","type":"string"},{"internalType":"address","name":"creator","type":"address"}],"stateMutability":"nonpayable","type":"constructor"},{"anonymous":false,"inputs":[{"indexed":false,"internalType":"string","name":"name","type":"string"},{"indexed":false,"internalType":"uint256","name":"entryCount","type":"uint256"}],"name":"PlayerParticipated","type":"event"},{"anonymous":false,"inputs":[{"indexed":false,"internalType":"string","name":"name","type":"string"},{"indexed":false,"internalType":"uint256","name":"entryCount","type":"uint256"}],"name":"WinnerDeclared","type":"event"},{"inputs":[{"internalType":"uint256","name":"maxEntries","type":"uint256"},{"internalType":"uint256","name":"ethRequired","type":"uint256"}],"name":"activateLottery","outputs":[],"stateMutability":"nonpayable","type":"function"},{"inputs":[{"internalType":"uint256","name":"","type":"uint256"}],"name":"addressIndexes","outputs":[{"internalType":"address","name":"","type":"address"}],"stateMutability":"view","type":"function"},{"inputs":[],"name":"declareWinner","outputs":[],"stateMutability":"nonpayable","type":"function"},{"inputs":[],"name":"ethToParticipate","outputs":[{"internalType":"uint256","name":"","type":"uint256"}],"stateMutability":"view","type":"function"},{"inputs":[],"name":"getCurrentWinner","outputs":[{"internalType":"string","name":"","type":"string"},{"internalType":"uint256","name":"","type":"uint256"},{"internalType":"address","name":"","type":"address"}],"stateMutability":"view","type":"function"},{"inputs":[],"name":"getLotterySoldCount","outputs":[{"internalType":"uint256","name":"","type":"uint256"}],"stateMutability":"view","type":"function"},{"inputs":[{"internalType":"address","name":"playerAddress","type":"address"}],"name":"getPlayer","outputs":[{"internalType":"string","name":"","type":"string"},{"internalType":"uint256","name":"","type":"uint256"}],"stateMutability":"view","type":"function"},{"inputs":[],"name":"getPlayers","outputs":[{"internalType":"address[]","name":"","type":"address[]"}],"stateMutability":"view","type":"function"},{"inputs":[],"name":"getWinningPrice","outputs":[{"internalType":"uint256","name":"","type":"uint256"}],"stateMutability":"view","type":"function"},{"inputs":[],"name":"isLotteryLive","outputs":[{"internalType":"bool","name":"","type":"bool"}],"stateMutability":"view","type":"function"},{"inputs":[{"internalType":"uint256","name":"","type":"uint256"}],"name":"lotteryBag","outputs":[{"internalType":"address payable","name":"","type":"address"}],"stateMutability":"view","type":"function"},{"inputs":[],"name":"lotteryName","outputs":[{"internalType":"string","name":"","type":"string"}],"stateMutability":"view","type":"function"},{"inputs":[],"name":"manager","outputs":[{"internalType":"address","name":"","type":"address"}],"stateMutability":"view","type":"function"},{"inputs":[],"name":"maxEntriesForPlayer","outputs":[{"internalType":"uint256","name":"","type":"uint256"}],"stateMutability":"view","type":"function"},{"inputs":[{"internalType":"string","name":"playerName","type":"string"}],"name":"participate","outputs":[],"stateMutability":"payable","type":"function"},{"inputs":[],"name":"winner","outputs":[{"internalType":"string","name":"name","type":"string"},{"internalType":"uint256","name":"entryCount","type":"uint256"},{"internalType":"uint256","name":"index","type":"uint256"},{"internalType":"address","name":"adrs","type":"address"}],"stateMutability":"view","type":"function"},{"stateMutability":"payable","type":"receive"}],"evm":{"bytecode":{"linkReferences":{},"object":"6080604052346102d3576115ea80380380610019816102ed565b9283398101906040818303126102d35780516001600160401b0381116102d357810182601f820112156102d3578051906001600160401b0382116102335761006a601f8301601f19166020016102ed565b93828552602083830101116102d35760005b8281106102d857846020856000828785010152015160018060a01b0381168091036102d35781511561028e57801561024957600180546001600160a01b03191691909117905580516001600160401b03811161023357600054600181811c91168015610229575b602082101461021357601f81116101a2575b50602091601f821160011461013f57918192600092610134575b50508160011b916000199060031b1c1916176000555b6040516112d790816103138239f35b01519050828061010f565b601f1982169260008052806000209160005b85811061018a57508360019510610171575b505050811b01600055610125565b015160001960f88460031b161c19169055828080610163565b91926020600181928685015181550194019201610151565b818111156100f55760008052601f820160051c7f290decd9548b62a8d60345a988386fc84ba6bc95484008f6362f93160ef3e5636020841061020a575b81601f9101920160051c039060005b8281106101fc5750506100f5565b6000828201556001016101ee565b600091506101df565b634e487b7160e01b600052602260045260246000fd5b90607f16906100e3565b634e487b7160e01b600052604160045260246000fd5b60405162461bcd60e51b815260206004820152601b60248201527f4d616e61676572206164647265737320697320726571756972656400000000006044820152606490fd5b60405162461bcd60e51b815260206004820152601860248201527f4c6f7474657279206e616d6520697320726571756972656400000000000000006044820152606490fd5b600080fd5b8060208092840101518282880101520161007c565b6040519190601f01601f191682016001600160401b038111838210176102335760405256fe6080806040526004361015610047575b50361561001b57600080fd5b61004560405161002c60408261098d565b60078152662ab735b737bbb760c91b6020820152610d28565b005b60003560e01c90816310c85fe51461096d5750806314034bd2146105c85780631d27769f1461055a57806323d1414914610478578063329bfc3314610429578063481c6a75146104005780635832d571146103d75780635c12cd4b146103895780635d58a74a1461036b5780637752045b1461034d5780638b5b9ccc14610281578063aa1ddd2014610263578063bdaea326146101bd578063d68895d8146101a1578063dfbf53ae1461014b5763f25266dd14610104573861000f565b34610146576020366003190112610146576004356004548110156101465761012d602091610b15565b905460405160039290921b1c6001600160a01b03168152f35b600080fd5b346101465760003660031901126101465761018d610167610a1b565b60065460075460018060a01b036008541690604051948594608086526080860190610ad4565b926020850152604084015260608301520390f35b3461014657600036600319011261014657602047604051908152f35b3461014657604036600319011261014657600435602435906101ea60018060a01b03600154163314610b61565b60095460ff811661021e5760ff191660011760095580610219575060015b600a5580610214575060015b600b55005b610208565b60405162461bcd60e51b815260206004820152601960248201527f4c6f747465727920697320616c726561647920616374697665000000000000006044820152606490fd5b34610146576000366003190112610146576020600454604051908152f35b34610146576000366003190112610146576040518060206002549283815201809260026000527f405787fa12a823e0f2b7631cc41b3ba8828b3321ca811111fa75cd3aa3bb5ace9060005b81811061032e57505050816102e291038261098d565b6040519182916020830190602084525180915260408301919060005b81811061030c575050500390f35b82516001600160a01b03168452859450602093840193909201916001016102fe565b82546001600160a01b03168452602090930192600192830192016102cc565b34610146576000366003190112610146576020600a54604051908152f35b34610146576000366003190112610146576020600b54604051908152f35b34610146576020366003190112610146576004356001600160a01b0381168103610146576103b96103cd9161116d565b604051928392604084526040840190610ad4565b9060208301520390f35b34610146576020366003190112610146576004356002548110156101465761012d602091610b46565b34610146576000366003190112610146576001546040516001600160a01b039091168152602090f35b346101465760003660031901126101465761046960065460018060a01b036008541690610454610a1b565b91604051938493606085526060850190610ad4565b91602084015260408301520390f35b346101465760003660031901126101465760405160008054610499816109e1565b808452906001811690811561053657506001146104d9575b6104d5836104c18185038261098d565b604051918291602083526020830190610ad4565b0390f35b60008080527f290decd9548b62a8d60345a988386fc84ba6bc95484008f6362f93160ef3e563939250905b80821061051c575090915081016020016104c16104b1565b919260018160209254838588010152019101909291610504565b60ff191660208086019190915291151560051b840190910191506104c190506104b1565b60203660031901126101465760043567ffffffffffffffff81116101465736602382011215610146578060040135610591816109c5565b9061059f604051928361098d565b808252366024828501011161014657602081600092602461004596018386013783010152610d28565b34610146576000366003190112610146576105ee60018060a01b03600154163314610b61565b60045480156109305761062d60405160208101904482524260408201528360608201526060815261062060808261098d565b5190209160009206610b15565b60018060a01b0391549060031b1c169047828252600360205261065260408320610c26565b82825260036020526001604083200154600655826bffffffffffffffffffffffff60a01b600854161760085560209260405161068e858261098d565b8381528336813780519067ffffffffffffffff82116108c557600160401b82116108c557859060045483600455808410610914575b500160048552845b8281106108d9575050506040516106e2858261098d565b8381528336813780519067ffffffffffffffff82116108c557600160401b82116108c5578590600254836002558084106108a9575b50600286528593929101835b82811061086b57505050818093819260ff19600954166009555af13d15610866573d61074e816109c5565b9061075c604051928361098d565b815282843d92013e5b156108295760065460405190604082528293600554610783816109e1565b9081604086015260018116908160001461080757506001146107d0575b509382917fd6d1eeba639254bd05e36261ae299af245328ab997fd9b7823d5fff17f1b74a494958301520390a180f35b6005855281852091955084915b8183106107f2575050820160600193826107a0565b805485840160600152918601916001016107dd565b60ff191660608681019190915291151560051b850190910195508390506107a0565b60405162461bcd60e51b8152600481018390526015602482015274141c9a5e99481d1c985b9cd9995c8819985a5b1959605a1b6044820152606490fd5b610765565b81516001600160a01b03167f405787fa12a823e0f2b7631cc41b3ba8828b3321ca811111fa75cd3aa3bb5ace82015586945090870190600101610723565b6108bf90600288528480858a2001910390610bb9565b87610717565b634e487b7160e01b85526041600452602485fd5b81516001600160a01b03167f8a35acfbc15ff81a39ae7d344fd709f28e8600b4aa8c65c6b64bfe7fe36bd19b820155908601906001016106cb565b61092a90600488528480858a2001910390610bb9565b876106c3565b60405162461bcd60e51b81526020600482015260156024820152744e6f20706c617965727320696e206c6f747465727960581b6044820152606490fd5b346101465760003660031901126101465760209060ff6009541615158152f35b90601f8019910116810190811067ffffffffffffffff8211176109af57604052565b634e487b7160e01b600052604160045260246000fd5b67ffffffffffffffff81116109af57601f01601f191660200190565b90600182811c92168015610a11575b60208310146109fb57565b634e487b7160e01b600052602260045260246000fd5b91607f16916109f0565b6040519060008260055491610a2f836109e1565b8083529260018116908115610ab55750600114610a55575b610a539250038361098d565b565b506005600090815290917f036b6384b5eca791c62761152d0c79bb0604c104a5fb6f4eb0703f3154bb3db05b818310610a99575050906020610a5392820101610a47565b6020919350806001915483858901015201910190918492610a81565b60209250610a5394915060ff191682840152151560051b820101610a47565b919082519283825260005b848110610b00575050826000602080949584010152601f8019910116010190565b80602080928401015182828601015201610adf565b600454811015610b3057600460005260206000200190600090565b634e487b7160e01b600052603260045260246000fd5b600254811015610b3057600260005260206000200190600090565b15610b6857565b60405162461bcd60e51b815260206004820152602360248201527f4f6e6c79206d616e616765722063616e2063616c6c20746869732066756e637460448201526234b7b760e91b6064820152608490fd5b60005b828110610bc857505050565b600082820155600101610bbc565b91601f8211610be457505050565b808211610bf057505050565b610a53926000526020600020916020601f830160051c9210610c1d575b601f82910160051c039101610bb9565b60009150610c0d565b9081600514610d2457610c3982546109e1565b67ffffffffffffffff81116109af57610c5e81610c576005546109e1565b6005610bd6565b600092601f8211600114610ca057610c9092938291600092610c95575b50508160011b916000199060031b1c19161790565b600555565b015490503880610c7b565b83526020832060058452927f036b6384b5eca791c62761152d0c79bb0604c104a5fb6f4eb0703f3154bb3db090601f198316815b818110610d0c575094836001959610610cf3575b505050811b01600555565b015460001960f88460031b161c19169055388080610ce8565b9192600180602092868a015481550194019201610cd4565b9050565b908151156111285760ff60095416156110eb57600b54670de0b6b3a7640000810290808204670de0b6b3a76400001490151715610fc75734036110af57336000526003602052600160406000200154600a54111561107457610d8933611258565b1561104d57336000908152600360205260409020600181810155825167ffffffffffffffff81116109af57610dc881610dc284546109e1565b84610bd6565b6020601f8211600114610fe8578190610df9939495600092610fdd5750508160011b916000199060031b1c19161790565b90555b3360005260036020526003604060002001336bffffffffffffffffffffffff60a01b825416179055600254600160401b8110156109af57610e46816001610e679301600255610b46565b815491926001600160a01b0360039290921b91821b199092163390911b1790565b90556002546000198101908111610fc7573360005260036020526002604060002001555b600454600160401b8110156109af57610e46816001610ead9301600455610b15565b9055336000908152600360205260408082206001810154825192835281549293929091610ed9826109e1565b91826040870152600181169081600014610f825750600114610f27575b505060208301527f76041b6e8130995874e79e751d284536c37242cb014fb0584ede1d1e64ce03c9919081900390a1565b600090815260208120929350915b818310610f6b575050820160600190807f76041b6e8130995874e79e751d284536c37242cb014fb0584ede1d1e64ce03c9610ef6565b805460608487010152602090920191600101610f35565b60ff191660608088019190915292151560051b860190920193508291507f76041b6e8130995874e79e751d284536c37242cb014fb0584ede1d1e64ce03c99050610ef6565b634e487b7160e01b600052601160045260246000fd5b015190503880610c7b565b601f1982169083600052806000209160005b8181106110355750958360019596971061101c575b505050811b019055610dfc565b015160001960f88460031b161c1916905538808061100f565b9192602060018192868b015181550194019201610ffa565b9050336000526003602052600160406000200180549060018201809211610fc75755610e8b565b60405162461bcd60e51b8152602060048201526013602482015272115b9d1c9e481b1a5b5a5d081c995858da1959606a1b6044820152606490fd5b60405162461bcd60e51b8152602060048201526014602482015273125b98dbdc9c9958dd0811551208185b5bdd5b9d60621b6044820152606490fd5b60405162461bcd60e51b81526020600482015260156024820152744c6f7474657279206973206e6f742061637469766560581b6044820152606490fd5b60405162461bcd60e51b815260206004820152601760248201527f506c61796572206e616d652069732072657175697265640000000000000000006044820152606490fd5b61117681611258565b61123f576001600160a01b03166000908152600360205260408082206001810154915181549294939092918391906111ad846109e1565b808452936001811690811561121d57506001146111d6575b506111d29250038261098d565b9190565b90506000929192526020600020906000915b8183106112015750509060206111d292820101386111c5565b60209193508060019154838588010152019101909183926111e8565b9050602092506111d294915060ff191682840152151560051b820101386111c5565b5060405161124e60208261098d565b6000815290600090565b6002541561129b576001600160a01b031660008181526003602052604090206002015461128490610b46565b905460039190911b1c6001600160a01b0316141590565b5060019056fea2646970667358221220475c8d680f174c944b8f2ed3f8f275d34134b8bb718c33ceb87a181a75941ea964736f6c63430008230033","opcodes":"PUSH1 0x80 PUSH1 0x40 MSTORE CALLVALUE PUSH2 0x2D3 JUMPI PUSH2 0x15EA DUP1 CODESIZE SUB DUP1 PUSH2 0x19 DUP2 PUSH2 0x2ED JUMP JUMPDEST SWAP3 DUP4 CODECOPY DUP2 ADD SWAP1 PUSH1 0x40 DUP2 DUP4 SUB SLT PUSH2 0x2D3 JUMPI DUP1 MLOAD PUSH1 0x1 PUSH1 0x1 PUSH1 0x40 SHL SUB DUP2 GT PUSH2 0x2D3 JUMPI DUP2 ADD DUP3 PUSH1 0x1F DUP3 ADD SLT ISZERO PUSH2 0x2D3 JUMPI DUP1 MLOAD SWAP1 PUSH1 0x1 PUSH1 0x1 PUSH1 0x40 SHL SUB DUP3 GT PUSH2 0x233 JUMPI PUSH2 0x6A PUSH1 0x1F DUP4 ADD PUSH1 0x1F NOT AND PUSH1 0x20 ADD PUSH2 0x2ED JUMP JUMPDEST SWAP4 DUP3 DUP6 MSTORE PUSH1 0x20 DUP4 DUP4 ADD ADD GT PUSH2 0x2D3 JUMPI PUSH1 0x0 JUMPDEST DUP3 DUP2 LT PUSH2 0x2D8 JUMPI DUP5 PUSH1 0x20 DUP6 PUSH1 0x0 DUP3 DUP8 DUP6 ADD ADD MSTORE ADD MLOAD PUSH1 0x1 DUP1 PUSH1 0xA0 SHL SUB DUP2 AND DUP1 SWAP2 SUB PUSH2 0x2D3 JUMPI DUP2 MLOAD ISZERO PUSH2 0x28E JUMPI DUP1 ISZERO PUSH2 0x249 JUMPI PUSH1 0x1 DUP1 SLOAD PUSH1 0x1 PUSH1 0x1 PUSH1 0xA0 SHL SUB NOT AND SWAP2 SWAP1 SWAP2 OR SWAP1 SSTORE DUP1 MLOAD PUSH1 0x1 PUSH1 0x1 PUSH1 0x40 SHL SUB DUP2 GT PUSH2 0x233 JUMPI PUSH1 0x0 SLOAD PUSH1 0x1 DUP2 DUP2 SHR SWAP2 AND DUP1 ISZERO PUSH2 0x229 JUMPI JUMPDEST PUSH1 0x20 DUP3 LT EQ PUSH2 0x213 JUMPI PUSH1 0x1F DUP2 GT PUSH2 0x1A2 JUMPI JUMPDEST POP PUSH1 0x20 SWAP2 PUSH1 0x1F DUP3 GT PUSH1 0x1 EQ PUSH2 0x13F JUMPI SWAP2 DUP2 SWAP3 PUSH1 0x0 SWAP3 PUSH2 0x134 JUMPI JUMPDEST POP POP DUP2 PUSH1 0x1 SHL SWAP2 PUSH1 0x0 NOT SWAP1 PUSH1 0x3 SHL SHR NOT AND OR PUSH1 0x0 SSTORE JUMPDEST PUSH1 0x40 MLOAD PUSH2 0x12D7 SWAP1 DUP2 PUSH2 0x313 DUP3 CODECOPY RETURN JUMPDEST ADD MLOAD SWAP1 POP DUP3 DUP1 PUSH2 0x10F JUMP JUMPDEST PUSH1 0x1F NOT DUP3 AND SWAP3 PUSH1 0x0 DUP1 MSTORE DUP1 PUSH1 0x0 KECCAK256 SWAP2 PUSH1 0x0 JUMPDEST DUP6 DUP2 LT PUSH2 0x18A JUMPI POP DUP4 PUSH1 0x1 SWAP6 LT PUSH2 0x171 JUMPI JUMPDEST POP POP POP DUP2 SHL ADD PUSH1 0x0 SSTORE PUSH2 0x125 JUMP JUMPDEST ADD MLOAD PUSH1 0x0 NOT PUSH1 0xF8 DUP5 PUSH1 0x3 SHL AND SHR NOT AND SWAP1 SSTORE DUP3 DUP1 DUP1 PUSH2 0x163 JUMP JUMPDEST SWAP2 SWAP3 PUSH1 0x20 PUSH1 0x1 DUP2 SWAP3 DUP7 DUP6 ADD MLOAD DUP2 SSTORE ADD SWAP5 ADD SWAP3 ADD PUSH2 0x151 JUMP JUMPDEST DUP2 DUP2 GT ISZERO PUSH2 0xF5 JUMPI PUSH1 0x0 DUP1 MSTORE PUSH1 0x1F DUP3 ADD PUSH1 0x5 SHR PUSH32 0x290DECD9548B62A8D60345A988386FC84BA6BC95484008F6362F93160EF3E563 PUSH1 0x20 DUP5 LT PUSH2 0x20A JUMPI JUMPDEST DUP2 PUSH1 0x1F SWAP2 ADD SWAP3 ADD PUSH1 0x5 SHR SUB SWAP1 PUSH1 0x0 JUMPDEST DUP3 DUP2 LT PUSH2 0x1FC JUMPI POP POP PUSH2 0xF5 JUMP JUMPDEST PUSH1 0x0 DUP3 DUP3 ADD SSTORE PUSH1 0x1 ADD PUSH2 0x1EE JUMP JUMPDEST PUSH1 0x0 SWAP2 POP PUSH2 0x1DF JUMP JUMPDEST PUSH4 0x4E487B71 PUSH1 0xE0 SHL PUSH1 0x0 MSTORE PUSH1 0x22 PUSH1 0x4 MSTORE PUSH1 0x24 PUSH1 0x0 REVERT JUMPDEST SWAP1 PUSH1 0x7F AND SWAP1 PUSH2 0xE3 JUMP JUMPDEST PUSH4 0x4E487B71 PUSH1 0xE0 SHL PUSH1 0x0 MSTORE PUSH1 0x41 PUSH1 0x4 MSTORE PUSH1 0x24 PUSH1 0x0 REVERT JUMPDEST PUSH1 0x40 MLOAD PUSH3 0x461BCD PUSH1 0xE5 SHL DUP2 MSTORE PUSH1 0x20 PUSH1 0x4 DUP3 ADD MSTORE PUSH1 0x1B PUSH1 0x24 DUP3 ADD MSTORE PUSH32 0x4D616E6167657220616464726573732069732072657175697265640000000000 PUSH1 0x44 DUP3 ADD MSTORE PUSH1 0x64 SWAP1 REVERT JUMPDEST PUSH1 0x40 MLOAD PUSH3 0x461BCD PUSH1 0xE5 SHL DUP2 MSTORE PUSH1 0x20 PUSH1 0x4 DUP3 ADD MSTORE PUSH1 0x18 PUSH1 0x24 DUP3 ADD MSTORE PUSH32 0x4C6F7474657279206E616D652069732072657175697265640000000000000000 PUSH1 0x44 DUP3 ADD MSTORE PUSH1 0x64 SWAP1 REVERT JUMPDEST PUSH1 0x0 DUP1 REVERT JUMPDEST DUP1 PUSH1 0x20 DUP1 SWAP3 DUP5 ADD ADD MLOAD DUP3 DUP3 DUP9 ADD ADD MSTORE ADD PUSH2 0x7C JUMP JUMPDEST PUSH1 0x40 MLOAD SWAP2 SWAP1 PUSH1 0x1F ADD PUSH1 0x1F NOT AND DUP3 ADD PUSH1 0x1 PUSH1 0x1 PUSH1 0x40 SHL SUB DUP2 GT DUP4 DUP3 LT OR PUSH2 0x233 JUMPI PUSH1 0x40 MSTORE JUMP INVALID PUSH1 0x80 DUP1 PUSH1 0x40 MSTORE PUSH1 0x4 CALLDATASIZE LT ISZERO PUSH2 0x47 JUMPI JUMPDEST POP CALLDATASIZE ISZERO PUSH2 0x1B JUMPI PUSH1 0x0 DUP1 REVERT JUMPDEST PUSH2 0x45 PUSH1 0x40 MLOAD PUSH2 0x2C PUSH1 0x40 DUP3 PUSH2 0x98D JUMP JUMPDEST PUSH1 0x7 DUP2 MSTORE PUSH7 0x2AB735B737BBB7 PUSH1 0xC9 SHL PUSH1 0x20 DUP3 ADD MSTORE PUSH2 0xD28 JUMP JUMPDEST STOP JUMPDEST PUSH1 0x0 CALLDATALOAD PUSH1 0xE0 SHR SWAP1 DUP2 PUSH4 0x10C85FE5 EQ PUSH2 0x96D JUMPI POP DUP1 PUSH4 0x14034BD2 EQ PUSH2 0x5C8 JUMPI DUP1 PUSH4 0x1D27769F EQ PUSH2 0x55A JUMPI DUP1 PUSH4 0x23D14149 EQ PUSH2 0x478 JUMPI DUP1 PUSH4 0x329BFC33 EQ PUSH2 0x429 JUMPI DUP1 PUSH4 0x481C6A75 EQ PUSH2 0x400 JUMPI DUP1 PUSH4 0x5832D571 EQ PUSH2 0x3D7 JUMPI DUP1 PUSH4 0x5C12CD4B EQ PUSH2 0x389 JUMPI DUP1 PUSH4 0x5D58A74A EQ PUSH2 0x36B JUMPI DUP1 PUSH4 0x7752045B EQ PUSH2 0x34D JUMPI DUP1 PUSH4 0x8B5B9CCC EQ PUSH2 0x281 JUMPI DUP1 PUSH4 0xAA1DDD20 EQ PUSH2 0x263 JUMPI DUP1 PUSH4 0xBDAEA326 EQ PUSH2 0x1BD JUMPI DUP1 PUSH4 0xD68895D8 EQ PUSH2 0x1A1 JUMPI DUP1 PUSH4 0xDFBF53AE EQ PUSH2 0x14B JUMPI PUSH4 0xF25266DD EQ PUSH2 0x104 JUMPI CODESIZE PUSH2 0xF JUMP JUMPDEST CALLVALUE PUSH2 0x146 JUMPI PUSH1 0x20 CALLDATASIZE PUSH1 0x3 NOT ADD SLT PUSH2 0x146 JUMPI PUSH1 0x4 CALLDATALOAD PUSH1 0x4 SLOAD DUP2 LT ISZERO PUSH2 0x146 JUMPI PUSH2 0x12D PUSH1 0x20 SWAP2 PUSH2 0xB15 JUMP JUMPDEST SWAP1 SLOAD PUSH1 0x40 MLOAD PUSH1 0x3 SWAP3 SWAP1 SWAP3 SHL SHR PUSH1 0x1 PUSH1 0x1 PUSH1 0xA0 SHL SUB AND DUP2 MSTORE RETURN JUMPDEST PUSH1 0x0 DUP1 REVERT JUMPDEST CALLVALUE PUSH2 0x146 JUMPI PUSH1 0x0 CALLDATASIZE PUSH1 0x3 NOT ADD SLT PUSH2 0x146 JUMPI PUSH2 0x18D PUSH2 0x167 PUSH2 0xA1B JUMP JUMPDEST PUSH1 0x6 SLOAD PUSH1 0x7 SLOAD PUSH1 0x1 DUP1 PUSH1 0xA0 SHL SUB PUSH1 0x8 SLOAD AND SWAP1 PUSH1 0x40 MLOAD SWAP5 DUP6 SWAP5 PUSH1 0x80 DUP7 MSTORE PUSH1 0x80 DUP7 ADD SWAP1 PUSH2 0xAD4 JUMP JUMPDEST SWAP3 PUSH1 0x20 DUP6 ADD MSTORE PUSH1 0x40 DUP5 ADD MSTORE PUSH1 0x60 DUP4 ADD MSTORE SUB SWAP1 RETURN JUMPDEST CALLVALUE PUSH2 0x146 JUMPI PUSH1 0x0 CALLDATASIZE PUSH1 0x3 NOT ADD SLT PUSH2 0x146 JUMPI PUSH1 0x20 SELFBALANCE PUSH1 0x40 MLOAD SWAP1 DUP2 MSTORE RETURN JUMPDEST CALLVALUE PUSH2 0x146 JUMPI PUSH1 0x40 CALLDATASIZE PUSH1 0x3 NOT ADD SLT PUSH2 0x146 JUMPI PUSH1 0x4 CALLDATALOAD PUSH1 0x24 CALLDATALOAD SWAP1 PUSH2 0x1EA PUSH1 0x1 DUP1 PUSH1 0xA0 SHL SUB PUSH1 0x1 SLOAD AND CALLER EQ PUSH2 0xB61 JUMP JUMPDEST PUSH1 0x9 SLOAD PUSH1 0xFF DUP2 AND PUSH2 0x21E JUMPI PUSH1 0xFF NOT AND PUSH1 0x1 OR PUSH1 0x9 SSTORE DUP1 PUSH2 0x219 JUMPI POP PUSH1 0x1 JUMPDEST PUSH1 0xA SSTORE DUP1 PUSH2 0x214 JUMPI POP PUSH1 0x1 JUMPDEST PUSH1 0xB SSTORE STOP JUMPDEST PUSH2 0x208 JUMP JUMPDEST PUSH1 0x40 MLOAD PUSH3 0x461BCD PUSH1 0xE5 SHL DUP2 MSTORE PUSH1 0x20 PUSH1 0x4 DUP3 ADD MSTORE PUSH1 0x19 PUSH1 0x24 DUP3 ADD MSTORE PUSH32 0x4C6F747465727920697320616C72656164792061637469766500000000000000 PUSH1 0x44 DUP3 ADD MSTORE PUSH1 0x64 SWAP1 REVERT JUMPDEST CALLVALUE PUSH2 0x146 JUMPI PUSH1 0x0 CALLDATASIZE PUSH1 0x3 NOT ADD SLT PUSH2 0x146 JUMPI PUSH1 0x20 PUSH1 0x4 SLOAD PUSH1 0x40 MLOAD SWAP1 DUP2 MSTORE RETURN JUMPDEST CALLVALUE PUSH2 0x146 JUMPI PUSH1 0x0 CALLDATASIZE PUSH1 0x3 NOT ADD SLT PUSH2 0x146 JUMPI PUSH1 0x40 MLOAD DUP1 PUSH1 0x20 PUSH1 0x2 SLOAD SWAP3 DUP4 DUP2 MSTORE ADD DUP1 SWAP3 PUSH1 0x2 PUSH1 0x0 MSTORE PUSH32 0x405787FA12A823E0F2B7631CC41B3BA8828B3321CA811111FA75CD3AA3BB5ACE SWAP1 PUSH1 0x0 JUMPDEST DUP2 DUP2 LT PUSH2 0x32E JUMPI POP POP POP DUP2 PUSH2 0x2E2 SWAP2 SUB DUP3 PUSH2 0x98D JUMP JUMPDEST PUSH1 0x40 MLOAD SWAP2 DUP3 SWAP2 PUSH1 0x20 DUP4 ADD SWAP1 PUSH1 0x20 DUP5 MSTORE MLOAD DUP1 SWAP2 MSTORE PUSH1 0x40 DUP4 ADD SWAP2 SWAP1 PUSH1 0x0 JUMPDEST DUP2 DUP2 LT PUSH2 0x30C JUMPI POP POP POP SUB SWAP1 RETURN JUMPDEST DUP3 MLOAD PUSH1 0x1 PUSH1 0x1 PUSH1 0xA0 SHL SUB AND DUP5 MSTORE DUP6 SWAP5 POP PUSH1 0x20 SWAP4 DUP5 ADD SWAP4 SWAP1 SWAP3 ADD SWAP2 PUSH1 0x1 ADD PUSH2 0x2FE JUMP JUMPDEST DUP3 SLOAD PUSH1 0x1 PUSH1 0x1 PUSH1 0xA0 SHL SUB AND DUP5 MSTORE PUSH1 0x20 SWAP1 SWAP4 ADD SWAP3 PUSH1 0x1 SWAP3 DUP4 ADD SWAP3 ADD PUSH2 0x2CC JUMP JUMPDEST CALLVALUE PUSH2 0x146 JUMPI PUSH1 0x0 CALLDATASIZE PUSH1 0x3 NOT ADD SLT PUSH2 0x146 JUMPI PUSH1 0x20 PUSH1 0xA SLOAD PUSH1 0x40 MLOAD SWAP1 DUP2 MSTORE RETURN JUMPDEST CALLVALUE PUSH2 0x146 JUMPI PUSH1 0x0 CALLDATASIZE PUSH1 0x3 NOT ADD SLT PUSH2 0x146 JUMPI PUSH1 0x20 PUSH1 0xB SLOAD PUSH1 0x40 MLOAD SWAP1 DUP2 MSTORE RETURN JUMPDEST CALLVALUE PUSH2 0x146 JUMPI PUSH1 0x20 CALLDATASIZE PUSH1 0x3 NOT ADD SLT PUSH2 0x146 JUMPI PUSH1 0x4 CALLDATALOAD PUSH1 0x1 PUSH1 0x1 PUSH1 0xA0 SHL SUB DUP2 AND DUP2 SUB PUSH2 0x146 JUMPI PUSH2 0x3B9 PUSH2 0x3CD SWAP2 PUSH2 0x116D JUMP JUMPDEST PUSH1 0x40 MLOAD SWAP3 DUP4 SWAP3 PUSH1 0x40 DUP5 MSTORE PUSH1 0x40 DUP5 ADD SWAP1 PUSH2 0xAD4 JUMP JUMPDEST SWAP1 PUSH1 0x20 DUP4 ADD MSTORE SUB SWAP1 RETURN JUMPDEST CALLVALUE PUSH2 0x146 JUMPI PUSH1 0x20 CALLDATASIZE PUSH1 0x3 NOT ADD SLT PUSH2 0x146 JUMPI PUSH1 0x4 CALLDATALOAD PUSH1 0x2 SLOAD DUP2 LT ISZERO PUSH2 0x146 JUMPI PUSH2 0x12D PUSH1 0x20 SWAP2 PUSH2 0xB46 JUMP JUMPDEST CALLVALUE PUSH2 0x146 JUMPI PUSH1 0x0 CALLDATASIZE PUSH1 0x3 NOT ADD SLT PUSH2 0x146 JUMPI PUSH1 0x1 SLOAD PUSH1 0x40 MLOAD PUSH1 0x1 PUSH1 0x1 PUSH1 0xA0 SHL SUB SWAP1 SWAP2 AND DUP2 MSTORE PUSH1 0x20 SWAP1 RETURN JUMPDEST CALLVALUE PUSH2 0x146 JUMPI PUSH1 0x0 CALLDATASIZE PUSH1 0x3 NOT ADD SLT PUSH2 0x146 JUMPI PUSH2 0x469 PUSH1 0x6 SLOAD PUSH1 0x1 DUP1 PUSH1 0xA0 SHL SUB PUSH1 0x8 SLOAD AND SWAP1 PUSH2 0x454 PUSH2 0xA1B JUMP JUMPDEST SWAP2 PUSH1 0x40 MLOAD SWAP4 DUP5 SWAP4 PUSH1 0x60 DUP6 MSTORE PUSH1 0x60 DUP6 ADD SWAP1 PUSH2 0xAD4 JUMP JUMPDEST SWAP2 PUSH1 0x20 DUP5 ADD MSTORE PUSH1 0x40 DUP4 ADD MSTORE SUB SWAP1 RETURN JUMPDEST CALLVALUE PUSH2 0x146 JUMPI PUSH1 0x0 CALLDATASIZE PUSH1 0x3 NOT ADD SLT PUSH2 0x146 JUMPI PUSH1 0x40 MLOAD PUSH1 0x0 DUP1 SLOAD PUSH2 0x499 DUP2 PUSH2 0x9E1 JUMP JUMPDEST DUP1 DUP5 MSTORE SWAP1 PUSH1 0x1 DUP2 AND SWAP1 DUP2 ISZERO PUSH2 0x536 JUMPI POP PUSH1 0x1 EQ PUSH2 0x4D9 JUMPI JUMPDEST PUSH2 0x4D5 DUP4 PUSH2 0x4C1 DUP2 DUP6 SUB DUP3 PUSH2 0x98D JUMP JUMPDEST PUSH1 0x40 MLOAD SWAP2 DUP3 SWAP2 PUSH1 0x20 DUP4 MSTORE PUSH1 0x20 DUP4 ADD SWAP1 PUSH2 0xAD4 JUMP JUMPDEST SUB SWAP1 RETURN JUMPDEST PUSH1 0x0 DUP1 DUP1 MSTORE PUSH32 0x290DECD9548B62A8D60345A988386FC84BA6BC95484008F6362F93160EF3E563 SWAP4 SWAP3 POP SWAP1 JUMPDEST DUP1 DUP3 LT PUSH2 0x51C JUMPI POP SWAP1 SWAP2 POP DUP2 ADD PUSH1 0x20 ADD PUSH2 0x4C1 PUSH2 0x4B1 JUMP JUMPDEST SWAP2 SWAP3 PUSH1 0x1 DUP2 PUSH1 0x20 SWAP3 SLOAD DUP4 DUP6 DUP9 ADD ADD MSTORE ADD SWAP2 ADD SWAP1 SWAP3 SWAP2 PUSH2 0x504 JUMP JUMPDEST PUSH1 0xFF NOT AND PUSH1 0x20 DUP1 DUP7 ADD SWAP2 SWAP1 SWAP2 MSTORE SWAP2 ISZERO ISZERO PUSH1 0x5 SHL DUP5 ADD SWAP1 SWAP2 ADD SWAP2 POP PUSH2 0x4C1 SWAP1 POP PUSH2 0x4B1 JUMP JUMPDEST PUSH1 0x20 CALLDATASIZE PUSH1 0x3 NOT ADD SLT PUSH2 0x146 JUMPI PUSH1 0x4 CALLDATALOAD PUSH8 0xFFFFFFFFFFFFFFFF DUP2 GT PUSH2 0x146 JUMPI CALLDATASIZE PUSH1 0x23 DUP3 ADD SLT ISZERO PUSH2 0x146 JUMPI DUP1 PUSH1 0x4 ADD CALLDATALOAD PUSH2 0x591 DUP2 PUSH2 0x9C5 JUMP JUMPDEST SWAP1 PUSH2 0x59F PUSH1 0x40 MLOAD SWAP3 DUP4 PUSH2 0x98D JUMP JUMPDEST DUP1 DUP3 MSTORE CALLDATASIZE PUSH1 0x24 DUP3 DUP6 ADD ADD GT PUSH2 0x146 JUMPI PUSH1 0x20 DUP2 PUSH1 0x0 SWAP3 PUSH1 0x24 PUSH2 0x45 SWAP7 ADD DUP4 DUP7 ADD CALLDATACOPY DUP4 ADD ADD MSTORE PUSH2 0xD28 JUMP JUMPDEST CALLVALUE PUSH2 0x146 JUMPI PUSH1 0x0 CALLDATASIZE PUSH1 0x3 NOT ADD SLT PUSH2 0x146 JUMPI PUSH2 0x5EE PUSH1 0x1 DUP1 PUSH1 0xA0 SHL SUB PUSH1 0x1 SLOAD AND CALLER EQ PUSH2 0xB61 JUMP JUMPDEST PUSH1 0x4 SLOAD DUP1 ISZERO PUSH2 0x930 JUMPI PUSH2 0x62D PUSH1 0x40 MLOAD PUSH1 0x20 DUP2 ADD SWAP1 PREVRANDAO DUP3 MSTORE TIMESTAMP PUSH1 0x40 DUP3 ADD MSTORE DUP4 PUSH1 0x60 DUP3 ADD MSTORE PUSH1 0x60 DUP2 MSTORE PUSH2 0x620 PUSH1 0x80 DUP3 PUSH2 0x98D JUMP JUMPDEST MLOAD SWAP1 KECCAK256 SWAP2 PUSH1 0x0 SWAP3 MOD PUSH2 0xB15 JUMP JUMPDEST PUSH1 0x1 DUP1 PUSH1 0xA0 SHL SUB SWAP2 SLOAD SWAP1 PUSH1 0x3 SHL SHR AND SWAP1 SELFBALANCE DUP3 DUP3 MSTORE PUSH1 0x3 PUSH1 0x20 MSTORE PUSH2 0x652 PUSH1 0x40 DUP4 KECCAK256 PUSH2 0xC26 JUMP JUMPDEST DUP3 DUP3 MSTORE PUSH1 0x3 PUSH1 0x20 MSTORE PUSH1 0x1 PUSH1 0x40 DUP4 KECCAK256 ADD SLOAD PUSH1 0x6 SSTORE DUP3 PUSH12 0xFFFFFFFFFFFFFFFFFFFFFFFF PUSH1 0xA0 SHL PUSH1 0x8 SLOAD AND OR PUSH1 0x8 SSTORE PUSH1 0x20 SWAP3 PUSH1 0x40 MLOAD PUSH2 0x68E DUP6 DUP3 PUSH2 0x98D JUMP JUMPDEST DUP4 DUP2 MSTORE DUP4 CALLDATASIZE DUP2 CALLDATACOPY DUP1 MLOAD SWAP1 PUSH8 0xFFFFFFFFFFFFFFFF DUP3 GT PUSH2 0x8C5 JUMPI PUSH1 0x1 PUSH1 0x40 SHL DUP3 GT PUSH2 0x8C5 JUMPI DUP6 SWAP1 PUSH1 0x4 SLOAD DUP4 PUSH1 0x4 SSTORE DUP1 DUP5 LT PUSH2 0x914 JUMPI JUMPDEST POP ADD PUSH1 0x4 DUP6 MSTORE DUP5 JUMPDEST DUP3 DUP2 LT PUSH2 0x8D9 JUMPI POP POP POP PUSH1 0x40 MLOAD PUSH2 0x6E2 DUP6 DUP3 PUSH2 0x98D JUMP JUMPDEST DUP4 DUP2 MSTORE DUP4 CALLDATASIZE DUP2 CALLDATACOPY DUP1 MLOAD SWAP1 PUSH8 0xFFFFFFFFFFFFFFFF DUP3 GT PUSH2 0x8C5 JUMPI PUSH1 0x1 PUSH1 0x40 SHL DUP3 GT PUSH2 0x8C5 JUMPI DUP6 SWAP1 PUSH1 0x2 SLOAD DUP4 PUSH1 0x2 SSTORE DUP1 DUP5 LT PUSH2 0x8A9 JUMPI JUMPDEST POP PUSH1 0x2 DUP7 MSTORE DUP6 SWAP4 SWAP3 SWAP2 ADD DUP4 JUMPDEST DUP3 DUP2 LT PUSH2 0x86B JUMPI POP POP POP DUP2 DUP1 SWAP4 DUP2 SWAP3 PUSH1 0xFF NOT PUSH1 0x9 SLOAD AND PUSH1 0x9 SSTORE GAS CALL RETURNDATASIZE ISZERO PUSH2 0x866 JUMPI RETURNDATASIZE PUSH2 0x74E DUP2 PUSH2 0x9C5 JUMP JUMPDEST SWAP1 PUSH2 0x75C PUSH1 0x40 MLOAD SWAP3 DUP4 PUSH2 0x98D JUMP JUMPDEST DUP2 MSTORE DUP3 DUP5 RETURNDATASIZE SWAP3 ADD RETURNDATACOPY JUMPDEST ISZERO PUSH2 0x829 JUMPI PUSH1 0x6 SLOAD PUSH1 0x40 MLOAD SWAP1 PUSH1 0x40 DUP3 MSTORE DUP3 SWAP4 PUSH1 0x5 SLOAD PUSH2 0x783 DUP2 PUSH2 0x9E1 JUMP JUMPDEST SWAP1 DUP2 PUSH1 0x40 DUP7 ADD MSTORE PUSH1 0x1 DUP2 AND SWAP1 DUP2 PUSH1 0x0 EQ PUSH2 0x807 JUMPI POP PUSH1 0x1 EQ PUSH2 0x7D0 JUMPI JUMPDEST POP SWAP4 DUP3 SWAP2 PUSH32 0xD6D1EEBA639254BD05E36261AE299AF245328AB997FD9B7823D5FFF17F1B74A4 SWAP5 SWAP6 DUP4 ADD MSTORE SUB SWAP1 LOG1 DUP1 RETURN JUMPDEST PUSH1 0x5 DUP6 MSTORE DUP2 DUP6 KECCAK256 SWAP2 SWAP6 POP DUP5 SWAP2 JUMPDEST DUP2 DUP4 LT PUSH2 0x7F2 JUMPI POP POP DUP3 ADD PUSH1 0x60 ADD SWAP4 DUP3 PUSH2 0x7A0 JUMP JUMPDEST DUP1 SLOAD DUP6 DUP5 ADD PUSH1 0x60 ADD MSTORE SWAP2 DUP7 ADD SWAP2 PUSH1 0x1 ADD PUSH2 0x7DD JUMP JUMPDEST PUSH1 0xFF NOT AND PUSH1 0x60 DUP7 DUP2 ADD SWAP2 SWAP1 SWAP2 MSTORE SWAP2 ISZERO ISZERO PUSH1 0x5 SHL DUP6 ADD SWAP1 SWAP2 ADD SWAP6 POP DUP4 SWAP1 POP PUSH2 0x7A0 JUMP JUMPDEST PUSH1 0x40 MLOAD PUSH3 0x461BCD PUSH1 0xE5 SHL DUP2 MSTORE PUSH1 0x4 DUP2 ADD DUP4 SWAP1 MSTORE PUSH1 0x15 PUSH1 0x24 DUP3 ADD MSTORE PUSH21 0x141C9A5E99481D1C985B9CD9995C8819985A5B1959 PUSH1 0x5A SHL PUSH1 0x44 DUP3 ADD MSTORE PUSH1 0x64 SWAP1 REVERT JUMPDEST PUSH2 0x765 JUMP JUMPDEST DUP2 MLOAD PUSH1 0x1 PUSH1 0x1 PUSH1 0xA0 SHL SUB AND PUSH32 0x405787FA12A823E0F2B7631CC41B3BA8828B3321CA811111FA75CD3AA3BB5ACE DUP3 ADD SSTORE DUP7 SWAP5 POP SWAP1 DUP8 ADD SWAP1 PUSH1 0x1 ADD PUSH2 0x723 JUMP JUMPDEST PUSH2 0x8BF SWAP1 PUSH1 0x2 DUP9 MSTORE DUP5 DUP1 DUP6 DUP11 KECCAK256 ADD SWAP2 SUB SWAP1 PUSH2 0xBB9 JUMP JUMPDEST DUP8 PUSH2 0x717 JUMP JUMPDEST PUSH4 0x4E487B71 PUSH1 0xE0 SHL DUP6 MSTORE PUSH1 0x41 PUSH1 0x4 MSTORE PUSH1 0x24 DUP6 REVERT JUMPDEST DUP2 MLOAD PUSH1 0x1 PUSH1 0x1 PUSH1 0xA0 SHL SUB AND PUSH32 0x8A35ACFBC15FF81A39AE7D344FD709F28E8600B4AA8C65C6B64BFE7FE36BD19B DUP3 ADD SSTORE SWAP1 DUP7 ADD SWAP1 PUSH1 0x1 ADD PUSH2 0x6CB JUMP JUMPDEST PUSH2 0x92A SWAP1 PUSH1 0x4 DUP9 MSTORE DUP5 DUP1 DUP6 DUP11 KECCAK256 ADD SWAP2 SUB SWAP1 PUSH2 0xBB9 JUMP JUMPDEST DUP8 PUSH2 0x6C3 JUMP JUMPDEST PUSH1 0x40 MLOAD PUSH3 0x461BCD PUSH1 0xE5 SHL DUP2 MSTORE PUSH1 0x20 PUSH1 0x4 DUP3 ADD MSTORE PUSH1 0x15 PUSH1 0x24 DUP3 ADD MSTORE PUSH21 0x4E6F20706C617965727320696E206C6F7474657279 PUSH1 0x58 SHL PUSH1 0x44 DUP3 ADD MSTORE PUSH1 0x64 SWAP1 REVERT JUMPDEST CALLVALUE PUSH2 0x146 JUMPI PUSH1 0x0 CALLDATASIZE PUSH1 0x3 NOT ADD SLT PUSH2 0x146 JUMPI PUSH1 0x20 SWAP1 PUSH1 0xFF PUSH1 0x9 SLOAD AND ISZERO ISZERO DUP2 MSTORE RETURN JUMPDEST SWAP1 PUSH1 0x1F DUP1 NOT SWAP2 ADD AND DUP2 ADD SWAP1 DUP2 LT PUSH8 0xFFFFFFFFFFFFFFFF DUP3 GT OR PUSH2 0x9AF JUMPI PUSH1 0x40 MSTORE JUMP JUMPDEST PUSH4 0x4E487B71 PUSH1 0xE0 SHL PUSH1 0x0 MSTORE PUSH1 0x41 PUSH1 0x4 MSTORE PUSH1 0x24 PUSH1 0x0 REVERT JUMPDEST PUSH8 0xFFFFFFFFFFFFFFFF DUP2 GT PUSH2 0x9AF JUMPI PUSH1 0x1F ADD PUSH1 0x1F NOT AND PUSH1 0x20 ADD SWAP1 JUMP JUMPDEST SWAP1 PUSH1 0x1 DUP3 DUP2 SHR SWAP3 AND DUP1 ISZERO PUSH2 0xA11 JUMPI JUMPDEST PUSH1 0x20 DUP4 LT EQ PUSH2 0x9FB JUMPI JUMP JUMPDEST PUSH4 0x4E487B71 PUSH1 0xE0 SHL PUSH1 0x0 MSTORE PUSH1 0x22 PUSH1 0x4 MSTORE PUSH1 0x24 PUSH1 0x0 REVERT JUMPDEST SWAP2 PUSH1 0x7F AND SWAP2 PUSH2 0x9F0 JUMP JUMPDEST PUSH1 0x40 MLOAD SWAP1 PUSH1 0x0 DUP3 PUSH1 0x5 SLOAD SWAP2 PUSH2 0xA2F DUP4 PUSH2 0x9E1 JUMP JUMPDEST DUP1 DUP4 MSTORE SWAP3 PUSH1 0x1 DUP2 AND SWAP1 DUP2 ISZERO PUSH2 0xAB5 JUMPI POP PUSH1 0x1 EQ PUSH2 0xA55 JUMPI JUMPDEST PUSH2 0xA53 SWAP3 POP SUB DUP4 PUSH2 0x98D JUMP JUMPDEST JUMP JUMPDEST POP PUSH1 0x5 PUSH1 0x0 SWAP1 DUP2 MSTORE SWAP1 SWAP2 PUSH32 0x36B6384B5ECA791C62761152D0C79BB0604C104A5FB6F4EB0703F3154BB3DB0 JUMPDEST DUP2 DUP4 LT PUSH2 0xA99 JUMPI POP POP SWAP1 PUSH1 0x20 PUSH2 0xA53 SWAP3 DUP3 ADD ADD PUSH2 0xA47 JUMP JUMPDEST PUSH1 0x20 SWAP2 SWAP4 POP DUP1 PUSH1 0x1 SWAP2 SLOAD DUP4 DUP6 DUP10 ADD ADD MSTORE ADD SWAP2 ADD SWAP1 SWAP2 DUP5 SWAP3 PUSH2 0xA81 JUMP JUMPDEST PUSH1 0x20 SWAP3 POP PUSH2 0xA53 SWAP5 SWAP2 POP PUSH1 0xFF NOT AND DUP3 DUP5 ADD MSTORE ISZERO ISZERO PUSH1 0x5 SHL DUP3 ADD ADD PUSH2 0xA47 JUMP JUMPDEST SWAP2 SWAP1 DUP3 MLOAD SWAP3 DUP4 DUP3 MSTORE PUSH1 0x0 JUMPDEST DUP5 DUP2 LT PUSH2 0xB00 JUMPI POP POP DUP3 PUSH1 0x0 PUSH1 0x20 DUP1 SWAP5 SWAP6 DUP5 ADD ADD MSTORE PUSH1 0x1F DUP1 NOT SWAP2 ADD AND ADD ADD SWAP1 JUMP JUMPDEST DUP1 PUSH1 0x20 DUP1 SWAP3 DUP5 ADD ADD MLOAD DUP3 DUP3 DUP7 ADD ADD MSTORE ADD PUSH2 0xADF JUMP JUMPDEST PUSH1 0x4 SLOAD DUP2 LT ISZERO PUSH2 0xB30 JUMPI PUSH1 0x4 PUSH1 0x0 MSTORE PUSH1 0x20 PUSH1 0x0 KECCAK256 ADD SWAP1 PUSH1 0x0 SWAP1 JUMP JUMPDEST PUSH4 0x4E487B71 PUSH1 0xE0 SHL PUSH1 0x0 MSTORE PUSH1 0x32 PUSH1 0x4 MSTORE PUSH1 0x24 PUSH1 0x0 REVERT JUMPDEST PUSH1 0x2 SLOAD DUP2 LT ISZERO PUSH2 0xB30 JUMPI PUSH1 0x2 PUSH1 0x0 MSTORE PUSH1 0x20 PUSH1 0x0 KECCAK256 ADD SWAP1 PUSH1 0x0 SWAP1 JUMP JUMPDEST ISZERO PUSH2 0xB68 JUMPI JUMP JUMPDEST PUSH1 0x40 MLOAD PUSH3 0x461BCD PUSH1 0xE5 SHL DUP2 MSTORE PUSH1 0x20 PUSH1 0x4 DUP3 ADD MSTORE PUSH1 0x23 PUSH1 0x24 DUP3 ADD MSTORE PUSH32 0x4F6E6C79206D616E616765722063616E2063616C6C20746869732066756E6374 PUSH1 0x44 DUP3 ADD MSTORE PUSH3 0x34B7B7 PUSH1 0xE9 SHL PUSH1 0x64 DUP3 ADD MSTORE PUSH1 0x84 SWAP1 REVERT JUMPDEST PUSH1 0x0 JUMPDEST DUP3 DUP2 LT PUSH2 0xBC8 JUMPI POP POP POP JUMP JUMPDEST PUSH1 0x0 DUP3 DUP3 ADD SSTORE PUSH1 0x1 ADD PUSH2 0xBBC JUMP JUMPDEST SWAP2 PUSH1 0x1F DUP3 GT PUSH2 0xBE4 JUMPI POP POP POP JUMP JUMPDEST DUP1 DUP3 GT PUSH2 0xBF0 JUMPI POP POP POP JUMP JUMPDEST PUSH2 0xA53 SWAP3 PUSH1 0x0 MSTORE PUSH1 0x20 PUSH1 0x0 KECCAK256 SWAP2 PUSH1 0x20 PUSH1 0x1F DUP4 ADD PUSH1 0x5 SHR SWAP3 LT PUSH2 0xC1D JUMPI JUMPDEST PUSH1 0x1F DUP3 SWAP2 ADD PUSH1 0x5 SHR SUB SWAP2 ADD PUSH2 0xBB9 JUMP JUMPDEST PUSH1 0x0 SWAP2 POP PUSH2 0xC0D JUMP JUMPDEST SWAP1 DUP2 PUSH1 0x5 EQ PUSH2 0xD24 JUMPI PUSH2 0xC39 DUP3 SLOAD PUSH2 0x9E1 JUMP JUMPDEST PUSH8 0xFFFFFFFFFFFFFFFF DUP2 GT PUSH2 0x9AF JUMPI PUSH2 0xC5E DUP2 PUSH2 0xC57 PUSH1 0x5 SLOAD PUSH2 0x9E1 JUMP JUMPDEST PUSH1 0x5 PUSH2 0xBD6 JUMP JUMPDEST PUSH1 0x0 SWAP3 PUSH1 0x1F DUP3 GT PUSH1 0x1 EQ PUSH2 0xCA0 JUMPI PUSH2 0xC90 SWAP3 SWAP4 DUP3 SWAP2 PUSH1 0x0 SWAP3 PUSH2 0xC95 JUMPI JUMPDEST POP POP DUP2 PUSH1 0x1 SHL SWAP2 PUSH1 0x0 NOT SWAP1 PUSH1 0x3 SHL SHR NOT AND OR SWAP1 JUMP JUMPDEST PUSH1 0x5 SSTORE JUMP JUMPDEST ADD SLOAD SWAP1 POP CODESIZE DUP1 PUSH2 0xC7B JUMP JUMPDEST DUP4 MSTORE PUSH1 0x20 DUP4 KECCAK256 PUSH1 0x5 DUP5 MSTORE SWAP3 PUSH32 0x36B6384B5ECA791C62761152D0C79BB0604C104A5FB6F4EB0703F3154BB3DB0 SWAP1 PUSH1 0x1F NOT DUP4 AND DUP2 JUMPDEST DUP2 DUP2 LT PUSH2 0xD0C JUMPI POP SWAP5 DUP4 PUSH1 0x1 SWAP6 SWAP7 LT PUSH2 0xCF3 JUMPI JUMPDEST POP POP POP DUP2 SHL ADD PUSH1 0x5 SSTORE JUMP JUMPDEST ADD SLOAD PUSH1 0x0 NOT PUSH1 0xF8 DUP5 PUSH1 0x3 SHL AND SHR NOT AND SWAP1 SSTORE CODESIZE DUP1 DUP1 PUSH2 0xCE8 JUMP JUMPDEST SWAP2 SWAP3 PUSH1 0x1 DUP1 PUSH1 0x20 SWAP3 DUP7 DUP11 ADD SLOAD DUP2 SSTORE ADD SWAP5 ADD SWAP3 ADD PUSH2 0xCD4 JUMP JUMPDEST SWAP1 POP JUMP JUMPDEST SWAP1 DUP2 MLOAD ISZERO PUSH2 0x1128 JUMPI PUSH1 0xFF PUSH1 0x9 SLOAD AND ISZERO PUSH2 0x10EB JUMPI PUSH1 0xB SLOAD PUSH8 0xDE0B6B3A7640000 DUP2 MUL SWAP1 DUP1 DUP3 DIV PUSH8 0xDE0B6B3A7640000 EQ SWAP1 ISZERO OR ISZERO PUSH2 0xFC7 JUMPI CALLVALUE SUB PUSH2 0x10AF JUMPI CALLER PUSH1 0x0 MSTORE PUSH1 0x3 PUSH1 0x20 MSTORE PUSH1 0x1 PUSH1 0x40 PUSH1 0x0 KECCAK256 ADD SLOAD PUSH1 0xA SLOAD GT ISZERO PUSH2 0x1074 JUMPI PUSH2 0xD89 CALLER PUSH2 0x1258 JUMP JUMPDEST ISZERO PUSH2 0x104D JUMPI CALLER PUSH1 0x0 SWAP1 DUP2 MSTORE PUSH1 0x3 PUSH1 0x20 MSTORE PUSH1 0x40 SWAP1 KECCAK256 PUSH1 0x1 DUP2 DUP2 ADD SSTORE DUP3 MLOAD PUSH8 0xFFFFFFFFFFFFFFFF DUP2 GT PUSH2 0x9AF JUMPI PUSH2 0xDC8 DUP2 PUSH2 0xDC2 DUP5 SLOAD PUSH2 0x9E1 JUMP JUMPDEST DUP5 PUSH2 0xBD6 JUMP JUMPDEST PUSH1 0x20 PUSH1 0x1F DUP3 GT PUSH1 0x1 EQ PUSH2 0xFE8 JUMPI DUP2 SWAP1 PUSH2 0xDF9 SWAP4 SWAP5 SWAP6 PUSH1 0x0 SWAP3 PUSH2 0xFDD JUMPI POP POP DUP2 PUSH1 0x1 SHL SWAP2 PUSH1 0x0 NOT SWAP1 PUSH1 0x3 SHL SHR NOT AND OR SWAP1 JUMP JUMPDEST SWAP1 SSTORE JUMPDEST CALLER PUSH1 0x0 MSTORE PUSH1 0x3 PUSH1 0x20 MSTORE PUSH1 0x3 PUSH1 0x40 PUSH1 0x0 KECCAK256 ADD CALLER PUSH12 0xFFFFFFFFFFFFFFFFFFFFFFFF PUSH1 0xA0 SHL DUP3 SLOAD AND OR SWAP1 SSTORE PUSH1 0x2 SLOAD PUSH1 0x1 PUSH1 0x40 SHL DUP2 LT ISZERO PUSH2 0x9AF JUMPI PUSH2 0xE46 DUP2 PUSH1 0x1 PUSH2 0xE67 SWAP4 ADD PUSH1 0x2 SSTORE PUSH2 0xB46 JUMP JUMPDEST DUP2 SLOAD SWAP2 SWAP3 PUSH1 0x1 PUSH1 0x1 PUSH1 0xA0 SHL SUB PUSH1 0x3 SWAP3 SWAP1 SWAP3 SHL SWAP2 DUP3 SHL NOT SWAP1 SWAP3 AND CALLER SWAP1 SWAP2 SHL OR SWAP1 JUMP JUMPDEST SWAP1 SSTORE PUSH1 0x2 SLOAD PUSH1 0x0 NOT DUP2 ADD SWAP1 DUP2 GT PUSH2 0xFC7 JUMPI CALLER PUSH1 0x0 MSTORE PUSH1 0x3 PUSH1 0x20 MSTORE PUSH1 0x2 PUSH1 0x40 PUSH1 0x0 KECCAK256 ADD SSTORE JUMPDEST PUSH1 0x4 SLOAD PUSH1 0x1 PUSH1 0x40 SHL DUP2 LT ISZERO PUSH2 0x9AF JUMPI PUSH2 0xE46 DUP2 PUSH1 0x1 PUSH2 0xEAD SWAP4 ADD PUSH1 0x4 SSTORE PUSH2 0xB15 JUMP JUMPDEST SWAP1 SSTORE CALLER PUSH1 0x0 SWAP1 DUP2 MSTORE PUSH1 0x3 PUSH1 0x20 MSTORE PUSH1 0x40 DUP1 DUP3 KECCAK256 PUSH1 0x1 DUP2 ADD SLOAD DUP3 MLOAD SWAP3 DUP4 MSTORE DUP2 SLOAD SWAP3 SWAP4 SWAP3 SWAP1 SWAP2 PUSH2 0xED9 DUP3 PUSH2 0x9E1 JUMP JUMPDEST SWAP2 DUP3 PUSH1 0x40 DUP8 ADD MSTORE PUSH1 0x1 DUP2 AND SWAP1 DUP2 PUSH1 0x0 EQ PUSH2 0xF82 JUMPI POP PUSH1 0x1 EQ PUSH2 0xF27 JUMPI JUMPDEST POP POP PUSH1 0x20 DUP4 ADD MSTORE PUSH32 0x76041B6E8130995874E79E751D284536C37242CB014FB0584EDE1D1E64CE03C9 SWAP2 SWAP1 DUP2 SWAP1 SUB SWAP1 LOG1 JUMP JUMPDEST PUSH1 0x0 SWAP1 DUP2 MSTORE PUSH1 0x20 DUP2 KECCAK256 SWAP3 SWAP4 POP SWAP2 JUMPDEST DUP2 DUP4 LT PUSH2 0xF6B JUMPI POP POP DUP3 ADD PUSH1 0x60 ADD SWAP1 DUP1 PUSH32 0x76041B6E8130995874E79E751D284536C37242CB014FB0584EDE1D1E64CE03C9 PUSH2 0xEF6 JUMP JUMPDEST DUP1 SLOAD PUSH1 0x60 DUP5 DUP8 ADD ADD MSTORE PUSH1 0x20 SWAP1 SWAP3 ADD SWAP2 PUSH1 0x1 ADD PUSH2 0xF35 JUMP JUMPDEST PUSH1 0xFF NOT AND PUSH1 0x60 DUP1 DUP9 ADD SWAP2 SWAP1 SWAP2 MSTORE SWAP3 ISZERO ISZERO PUSH1 0x5 SHL DUP7 ADD SWAP1 SWAP3 ADD SWAP4 POP DUP3 SWAP2 POP PUSH32 0x76041B6E8130995874E79E751D284536C37242CB014FB0584EDE1D1E64CE03C9 SWAP1 POP PUSH2 0xEF6 JUMP JUMPDEST PUSH4 0x4E487B71 PUSH1 0xE0 SHL PUSH1 0x0 MSTORE PUSH1 0x11 PUSH1 0x4 MSTORE PUSH1 0x24 PUSH1 0x0 REVERT JUMPDEST ADD MLOAD SWAP1 POP CODESIZE DUP1 PUSH2 0xC7B JUMP JUMPDEST PUSH1 0x1F NOT DUP3 AND SWAP1 DUP4 PUSH1 0x0 MSTORE DUP1 PUSH1 0x0 KECCAK256 SWAP2 PUSH1 0x0 JUMPDEST DUP2 DUP2 LT PUSH2 0x1035 JUMPI POP SWAP6 DUP4 PUSH1 0x1 SWAP6 SWAP7 SWAP8 LT PUSH2 0x101C JUMPI JUMPDEST POP POP POP DUP2 SHL ADD SWAP1 SSTORE PUSH2 0xDFC JUMP JUMPDEST ADD MLOAD PUSH1 0x0 NOT PUSH1 0xF8 DUP5 PUSH1 0x3 SHL AND SHR NOT AND SWAP1 SSTORE CODESIZE DUP1 DUP1 PUSH2 0x100F JUMP JUMPDEST SWAP2 SWAP3 PUSH1 0x20 PUSH1 0x1 DUP2 SWAP3 DUP7 DUP12 ADD MLOAD DUP2 SSTORE ADD SWAP5 ADD SWAP3 ADD PUSH2 0xFFA JUMP JUMPDEST SWAP1 POP CALLER PUSH1 0x0 MSTORE PUSH1 0x3 PUSH1 0x20 MSTORE PUSH1 0x1 PUSH1 0x40 PUSH1 0x0 KECCAK256 ADD DUP1 SLOAD SWAP1 PUSH1 0x1 DUP3 ADD DUP1 SWAP3 GT PUSH2 0xFC7 JUMPI SSTORE PUSH2 0xE8B JUMP JUMPDEST PUSH1 0x40 MLOAD PUSH3 0x461BCD PUSH1 0xE5 SHL DUP2 MSTORE PUSH1 0x20 PUSH1 0x4 DUP3 ADD MSTORE PUSH1 0x13 PUSH1 0x24 DUP3 ADD MSTORE PUSH19 0x115B9D1C9E481B1A5B5A5D081C995858DA1959 PUSH1 0x6A SHL PUSH1 0x44 DUP3 ADD MSTORE PUSH1 0x64 SWAP1 REVERT JUMPDEST PUSH1 0x40 MLOAD PUSH3 0x461BCD PUSH1 0xE5 SHL DUP2 MSTORE PUSH1 0x20 PUSH1 0x4 DUP3 ADD MSTORE PUSH1 0x14 PUSH1 0x24 DUP3 ADD MSTORE PUSH20 0x125B98DBDC9C9958DD0811551208185B5BDD5B9D PUSH1 0x62 SHL PUSH1 0x44 DUP3 ADD MSTORE PUSH1 0x64 SWAP1 REVERT JUMPDEST PUSH1 0x40 MLOAD PUSH3 0x461BCD PUSH1 0xE5 SHL DUP2 MSTORE PUSH1 0x20 PUSH1 0x4 DUP3 ADD MSTORE PUSH1 0x15 PUSH1 0x24 DUP3 ADD MSTORE PUSH21 0x4C6F7474657279206973206E6F7420616374697665 PUSH1 0x58 SHL PUSH1 0x44 DUP3 ADD MSTORE PUSH1 0x64 SWAP1 REVERT JUMPDEST PUSH1 0x40 MLOAD PUSH3 0x461BCD PUSH1 0xE5 SHL DUP2 MSTORE PUSH1 0x20 PUSH1 0x4 DUP3 ADD MSTORE PUSH1 0x17 PUSH1 0x24 DUP3 ADD MSTORE PUSH32 0x506C61796572206E616D65206973207265717569726564000000000000000000 PUSH1 0x44 DUP3 ADD MSTORE PUSH1 0x64 SWAP1 REVERT JUMPDEST PUSH2 0x1176 DUP2 PUSH2 0x1258 JUMP JUMPDEST PUSH2 0x123F JUMPI PUSH1 0x1 PUSH1 0x1 PUSH1 0xA0 SHL SUB AND PUSH1 0x0 SWAP1 DUP2 MSTORE PUSH1 0x3 PUSH1 0x20 MSTORE PUSH1 0x40 DUP1 DUP3 KECCAK256 PUSH1 0x1 DUP2 ADD SLOAD SWAP2 MLOAD DUP2 SLOAD SWAP3 SWAP5 SWAP4 SWAP1 SWAP3 SWAP2 DUP4 SWAP2 SWAP1 PUSH2 0x11AD DUP5 PUSH2 0x9E1 JUMP JUMPDEST DUP1 DUP5 MSTORE SWAP4 PUSH1 0x1 DUP2 AND SWAP1 DUP2 ISZERO PUSH2 0x121D JUMPI POP PUSH1 0x1 EQ PUSH2 0x11D6 JUMPI JUMPDEST POP PUSH2 0x11D2 SWAP3 POP SUB DUP3 PUSH2 0x98D JUMP JUMPDEST SWAP2 SWAP1 JUMP JUMPDEST SWAP1 POP PUSH1 0x0 SWAP3 SWAP2 SWAP3 MSTORE PUSH1 0x20 PUSH1 0x0 KECCAK256 SWAP1 PUSH1 0x0 SWAP2 JUMPDEST DUP2 DUP4 LT PUSH2 0x1201 JUMPI POP POP SWAP1 PUSH1 0x20 PUSH2 0x11D2 SWAP3 DUP3 ADD ADD CODESIZE PUSH2 0x11C5 JUMP JUMPDEST PUSH1 0x20 SWAP2 SWAP4 POP DUP1 PUSH1 0x1 SWAP2 SLOAD DUP4 DUP6 DUP9 ADD ADD MSTORE ADD SWAP2 ADD SWAP1 SWAP2 DUP4 SWAP3 PUSH2 0x11E8 JUMP JUMPDEST SWAP1 POP PUSH1 0x20 SWAP3 POP PUSH2 0x11D2 SWAP5 SWAP2 POP PUSH1 0xFF NOT AND DUP3 DUP5 ADD MSTORE ISZERO ISZERO PUSH1 0x5 SHL DUP3 ADD ADD CODESIZE PUSH2 0x11C5 JUMP JUMPDEST POP PUSH1 0x40 MLOAD PUSH2 0x124E PUSH1 0x20 DUP3 PUSH2 0x98D JUMP JUMPDEST PUSH1 0x0 DUP2 MSTORE SWAP1 PUSH1 0x0 SWAP1 JUMP JUMPDEST PUSH1 0x2 SLOAD ISZERO PUSH2 0x129B JUMPI PUSH1 0x1 PUSH1 0x1 PUSH1 0xA0 SHL SUB AND PUSH1 0x0 DUP2 DUP2 MSTORE PUSH1 0x3 PUSH1 0x20 MSTORE PUSH1 0x40 SWAP1 KECCAK256 PUSH1 0x2 ADD SLOAD PUSH2 0x1284 SWAP1 PUSH2 0xB46 JUMP JUMPDEST SWAP1 SLOAD PUSH1 0x3 SWAP2 SWAP1 SWAP2 SHL SHR PUSH1 0x1 PUSH1 0x1 PUSH1 0xA0 SHL SUB AND EQ ISZERO SWAP1 JUMP JUMPDEST POP PUSH1 0x1 SWAP1 JUMP INVALID LOG2 PUSH5 0x6970667358 0x22 SLT KECCAK256 SELFBALANCE TLOAD DUP14 PUSH9 0xF174C944B8F2ED3F8 CALLCODE PUSH22 0xD34134B8BB718C33CEB87A181A75941EA964736F6C63 NUMBER STOP ADDMOD 0x23 STOP CALLER "},"methodIdentifiers":{"activateLottery(uint256,uint256)":"bdaea326","addressIndexes(uint256)":"5832d571","declareWinner()":"14034bd2","ethToParticipate()":"5d58a74a","getCurrentWinner()":"329bfc33","getLotterySoldCount()":"aa1ddd20","getPlayer(address)":"5c12cd4b","getPlayers()":"8b5b9ccc","getWinningPrice()":"d68895d8","isLotteryLive()":"10c85fe5","lotteryBag(uint256)":"f25266dd","lotteryName()":"23d14149","manager()":"481c6a75","maxEntriesForPlayer()":"7752045b","participate(string)":"1d27769f","winner()":"dfbf53ae"}}}}}