{"contracts/EasyGame.sol":{"EasyGame":{"abi":[{"inputs":[{"internalType":"address payable","name":"treasuryAddress","type":"address"}],"stateMutability":"nonpayable","type":"constructor"},{"anonymous":false,"inputs":[{"indexed":true,"internalType":"address","name":"from","type":"address"},{"indexed":true,"internalType":"address","name":"to","type":"address"},{"indexed":true,"internalType":"uint8","name":"level","type":"uint8"},{"indexed":false,"internalType":"uint256","name":"amount","type":"uint256"}],"name":"BaseRewardPaid","type":"event"},{"anonymous":false,"inputs":[{"indexed":true,"internalType":"address","name":"player","type":"address"},{"indexed":true,"internalType":"uint8","name":"level","type":"uint8"},{"indexed":false,"internalType":"uint256","name":"amount","type":"uint256"},{"indexed":true,"internalType":"address","name":"inviter","type":"address"}],"name":"LevelActivated","type":"event"},{"anonymous":false,"inputs":[{"indexed":true,"internalType":"uint8","name":"level","type":"uint8"},{"indexed":false,"internalType":"bool","name":"available","type":"bool"}],"name":"LevelAvailabilityChanged","type":"event"},{"anonymous":false,"inputs":[{"indexed":true,"internalType":"address","name":"player","type":"address"},{"indexed":true,"internalType":"uint8","name":"level","type":"uint8"}],"name":"LevelFrozen","type":"event"},{"anonymous":false,"inputs":[{"indexed":true,"internalType":"uint8","name":"level","type":"uint8"},{"indexed":false,"internalType":"uint256","name":"oldPrice","type":"uint256"},{"indexed":false,"internalType":"uint256","name":"newPrice","type":"uint256"}],"name":"LevelPriceChanged","type":"event"},{"anonymous":false,"inputs":[{"indexed":true,"internalType":"address","name":"player","type":"address"},{"indexed":true,"internalType":"uint8","name":"level","type":"uint8"}],"name":"LevelUnfrozen","type":"event"},{"anonymous":false,"inputs":[{"indexed":true,"internalType":"address","name":"player","type":"address"},{"indexed":true,"internalType":"uint8","name":"level","type":"uint8"},{"indexed":false,"internalType":"uint256","name":"positionId","type":"uint256"},{"indexed":false,"internalType":"uint256","name":"parentId","type":"uint256"}],"name":"MatrixPlaced","type":"event"},{"anonymous":false,"inputs":[{"indexed":true,"internalType":"address","name":"from","type":"address"},{"indexed":true,"internalType":"address","name":"to","type":"address"},{"indexed":true,"internalType":"uint8","name":"level","type":"uint8"},{"indexed":false,"internalType":"uint256","name":"amount","type":"uint256"}],"name":"MatrixRewardPaid","type":"event"},{"anonymous":false,"inputs":[{"indexed":true,"internalType":"address","name":"player","type":"address"},{"indexed":true,"internalType":"uint8","name":"level","type":"uint8"},{"indexed":false,"internalType":"uint256","name":"cycle","type":"uint256"},{"indexed":false,"internalType":"uint256","name":"newPositionId","type":"uint256"}],"name":"Recycled","type":"event"},{"anonymous":false,"inputs":[{"indexed":true,"internalType":"address","name":"player","type":"address"},{"indexed":true,"internalType":"address","name":"receiver","type":"address"},{"indexed":false,"internalType":"uint8","name":"line","type":"uint8"},{"indexed":false,"internalType":"uint256","name":"amount","type":"uint256"}],"name":"ReferralPaid","type":"event"},{"anonymous":false,"inputs":[{"indexed":true,"internalType":"address","name":"oldTreasury","type":"address"},{"indexed":true,"internalType":"address","name":"newTreasury","type":"address"}],"name":"TreasuryChanged","type":"event"},{"inputs":[],"name":"LEVEL_COUNT","outputs":[{"internalType":"uint8","name":"","type":"uint8"}],"stateMutability":"view","type":"function"},{"inputs":[{"internalType":"uint8","name":"level","type":"uint8"},{"internalType":"address","name":"inviter","type":"address"}],"name":"activateLevel","outputs":[],"stateMutability":"payable","type":"function"},{"inputs":[{"internalType":"uint8","name":"level","type":"uint8"}],"name":"getLevelMatrixStats","outputs":[{"internalType":"uint256","name":"size","type":"uint256"},{"internalType":"uint256","name":"nextOpenParentId","type":"uint256"}],"stateMutability":"view","type":"function"},{"inputs":[{"internalType":"uint8","name":"level","type":"uint8"},{"internalType":"uint256","name":"positionId","type":"uint256"}],"name":"getMatrixNode","outputs":[{"internalType":"address","name":"player","type":"address"},{"internalType":"uint256","name":"parentId","type":"uint256"},{"internalType":"uint256","name":"leftChildId","type":"uint256"},{"internalType":"uint256","name":"rightChildId","type":"uint256"},{"internalType":"uint256","name":"depth","type":"uint256"},{"internalType":"bool","name":"closed","type":"bool"}],"stateMutability":"view","type":"function"},{"inputs":[{"internalType":"address","name":"playerAddress","type":"address"}],"name":"getPlayer","outputs":[{"internalType":"bool","name":"exists","type":"bool"},{"internalType":"address","name":"inviter","type":"address"},{"internalType":"uint8","name":"maxActiveLevel","type":"uint8"},{"internalType":"uint256","name":"totalPaid","type":"uint256"}],"stateMutability":"view","type":"function"},{"inputs":[{"internalType":"address","name":"playerAddress","type":"address"},{"internalType":"uint8","name":"level","type":"uint8"}],"name":"getPlayerLevel","outputs":[{"internalType":"bool","name":"active","type":"bool"},{"internalType":"bool","name":"frozen","type":"bool"},{"internalType":"uint256","name":"cycles","type":"uint256"},{"internalType":"uint256","name":"positionId","type":"uint256"},{"internalType":"uint256","name":"earned","type":"uint256"}],"stateMutability":"view","type":"function"},{"inputs":[{"internalType":"address","name":"playerAddress","type":"address"},{"internalType":"uint8","name":"level","type":"uint8"}],"name":"getPlayerPosition","outputs":[{"internalType":"uint256","name":"positionId","type":"uint256"},{"internalType":"uint256","name":"parentId","type":"uint256"},{"internalType":"uint256","name":"leftChildId","type":"uint256"},{"internalType":"uint256","name":"rightChildId","type":"uint256"},{"internalType":"uint256","name":"depth","type":"uint256"},{"internalType":"bool","name":"closed","type":"bool"}],"stateMutability":"view","type":"function"},{"inputs":[{"internalType":"address","name":"playerAddress","type":"address"},{"internalType":"uint8","name":"level","type":"uint8"}],"name":"isLevelActive","outputs":[{"internalType":"bool","name":"","type":"bool"}],"stateMutability":"view","type":"function"},{"inputs":[{"internalType":"address","name":"playerAddress","type":"address"},{"internalType":"uint8","name":"level","type":"uint8"}],"name":"isLevelFrozen","outputs":[{"internalType":"bool","name":"","type":"bool"}],"stateMutability":"view","type":"function"},{"inputs":[{"internalType":"uint8","name":"","type":"uint8"}],"name":"levelAvailable","outputs":[{"internalType":"bool","name":"","type":"bool"}],"stateMutability":"view","type":"function"},{"inputs":[{"internalType":"uint8","name":"","type":"uint8"}],"name":"levelMatrixSize","outputs":[{"internalType":"uint256","name":"","type":"uint256"}],"stateMutability":"view","type":"function"},{"inputs":[{"internalType":"uint8","name":"","type":"uint8"}],"name":"levelPrices","outputs":[{"internalType":"uint256","name":"","type":"uint256"}],"stateMutability":"view","type":"function"},{"inputs":[],"name":"owner","outputs":[{"internalType":"address","name":"","type":"address"}],"stateMutability":"view","type":"function"},{"inputs":[{"internalType":"uint8","name":"level","type":"uint8"},{"internalType":"bool","name":"available","type":"bool"}],"name":"setLevelAvailable","outputs":[],"stateMutability":"nonpayable","type":"function"},{"inputs":[{"internalType":"uint8","name":"level","type":"uint8"},{"internalType":"uint256","name":"newPrice","type":"uint256"}],"name":"setLevelPrice","outputs":[],"stateMutability":"nonpayable","type":"function"},{"inputs":[{"internalType":"address payable","name":"newTreasury","type":"address"}],"name":"setTreasury","outputs":[],"stateMutability":"nonpayable","type":"function"},{"inputs":[{"internalType":"address","name":"newOwner","type":"address"}],"name":"transferOwnership","outputs":[],"stateMutability":"nonpayable","type":"function"},{"inputs":[],"name":"treasury","outputs":[{"internalType":"address payable","name":"","type":"address"}],"stateMutability":"view","type":"function"},{"stateMutability":"payable","type":"receive"}],"evm":{"bytecode":{"linkReferences":{},"object":"6080346103d557601f611e2938819003918201601f19168301916001600160401b038311848410176103da578084926020946040528339810103126103d557516001600160a01b038116908190036103d557801561039057600080546001600160a01b0319908116331782556001805490911692909217909155600260205266b1a2bc2ec500007fe90b7bceb6e7df5418fb78d8ee546e97c83a08bbccc01a0644d599ccd2a7c2e05566f8b0a10e4700007f679795a0195a1b76cdebb7c51d74e058aee92919b8c3389af86ef24535e8a28c5567016345785d8a00007f88601476d11616a71c5be67555bd1dff4b1cbf21533d2669b768b61518cfe1c3556701f161421c8e00007fee60d0579bcffd98e668647d59fec1ff86a7fb340ce572e844f234ae73a6918f556702c68af0bb1400007fb98b78633099fa36ed8b8680c4f8092689e1e04080eb9cbb077ca38a14d7e384556703e2c284391c00007f59dd4b18488d12f51eda69757a0ed42a2010c14b564330cc74a06895e60c077b5567058d15e1762800007facd8ef244210bb6898e73c48bf820ed8ecc857a3bab8d79c10e4fa92b1e9ca65556707a1fe16027700007f3a5ea591190eeb3f8fcdced843c78df04ec0dfd42f5510375207515664fa0a7555670b1a2bc2ec5000007ff85cc6ffc513dc6cf7d199ef87b7a63cf9defe62251c1c247cd12f1eec7bff2955670f43fc2c04ee00007fd3604db978f6137b0d18816b77b2ce810487a3af08a922e0b184963be5f3adfc556716345785d8a000007fab9952baf6478d8cfb7253ce86a6c53a7b7549582c76210b1581ae682b7e556f55671e87f85809dc00007fbd814762a7e35d5c162a7570d14baa68bd622cabb1ad83d40dd70f8a88aa67c055672c68af0bb14000007feb5d92aa5b18af35c2d0c0d14a538792cf1a66aa06ab9dae49d32446e9063ca155673d0ff0b013b800007f20de3dd312970f46a1d560f6c70f0e5bd10e638b9bb3836368f28838c607ea3e55675a34a38fc00a00007f0353061a88c0592f32d7468be32ff6e5e91e49a3ea3ffb3c4fbe417c36501ba25560109052676f05b59d3b2000007f328b8e687a0a963892a735f0237cb763bbbbf8ba0c1dfe2c221debb32c4bbd895560035b60ff811690601082116103815760ff9160005260046020526040600020600183198254161790551660ff811461036b57600101610333565b634e487b7160e01b600052601160045260246000fd5b604051611a3890816103f18239f35b60405162461bcd60e51b815260206004820152601c60248201527f54726561737572792061646472657373206973207265717569726564000000006044820152606490fd5b600080fd5b634e487b7160e01b600052604160045260246000fdfe60806040526004361015610052575b361561001957600080fd5b60405162461bcd60e51b8152602060048201526011602482015270155cd9481858dd1a5d985d1953195d995b607a1b6044820152606490fd5b60003560e01c80630e475efd14610f955780631d6a884b14610f795780632e50d90614610f4557806348d46be1146107a35780634a57c6d91461069057806352ebb227146106575780635c12cd4b146105f157806361d027b3146105c857806375b7d7c1146105695780638da5cb5b146105405780638eb657c414610473578063a0978ac2146103e8578063b9aee26314610399578063c05db4ce14610365578063d2a1608014610312578063ed270c1614610282578063f0f44260146101b85763f2fde38b0361000e57346101b35760203660031901126101b357610136610ff7565b6000549061014e336001600160a01b03841614611089565b6001600160a01b031690811561016e576001600160a01b03191617600055005b60405162461bcd60e51b815260206004820152601960248201527f4f776e65722061646472657373206973207265717569726564000000000000006044820152606490fd5b600080fd5b346101b35760203660031901126101b3576004356001600160a01b038116908190036101b3576101f360018060a01b03600054163314611089565b801561023d57600180546001600160a01b0319811683179091556001600160a01b03167f8c3aa5f43a388513435861bf27dfad7829cd248696fed367c62d441f62954496600080a3005b60405162461bcd60e51b815260206004820152601c60248201527f54726561737572792061646472657373206973207265717569726564000000006044820152606490fd5b346101b35760403660031901126101b35761029b61101d565b602435908115158092036101b357602060ff7fdd552374405792741cb7e6993ca7e6dd5400b9e45e80ca256ac09db4009c8937926102e460018060a01b03600054163314611089565b6102ed8161117c565b16928360005260048252604060002060ff1981541660ff8316179055604051908152a2005b346101b35760403660031901126101b35760c061033e610330610ff7565b61033861100d565b906110df565b936040939193519586526020860152604085015260608401526080830152151560a0820152f35b346101b35760203660031901126101b35760ff61038061101d565b1660005260036020526020604060002054604051908152f35b346101b35760203660031901126101b357604060ff6103b661101d565b6103bf8161117c565b168060005260076020528160002054906000526008602052816000205482519182526020820152f35b346101b35760403660031901126101b35760a06040610405610ff7565b61040d61100d565b906104178261117c565b600180851b031660005260066020528160002060ff60009216825260205220805490600181015490600360028201549101549160ff604051948181161515865260081c1615156020850152604084015260608301526080820152f35b346101b35760403660031901126101b35761048c61101d565b602435906104a560018060a01b03600054163314611089565b6104ae8161117c565b811561050757604060ff7f68cb741d0779160e141ccf5dd579423de44febc76c0edddcc6167807a3c16af792169283600052600260205281600020549084600052600260205280836000205582519182526020820152a2005b60405162461bcd60e51b8152602060048201526011602482015270141c9a58d9481a5cc81c995c5d5a5c9959607a1b6044820152606490fd5b346101b35760003660031901126101b3576000546040516001600160a01b039091168152602090f35b346101b35760403660031901126101b357610582610ff7565b61058a61100d565b906105948261117c565b60018060a01b0316600052600660205260ff60406000209116600052602052602060ff604060002054166040519015158152f35b346101b35760003660031901126101b3576001546040516001600160a01b039091168152602090f35b346101b35760203660031901126101b3576001600160a01b03610612610ff7565b166000526005602052608060406000206001815491015460ff604051928181161515845260018060a01b038160081c16602085015260a81c1660408301526060820152f35b346101b35760203660031901126101b35760ff61067261101d565b166000526004602052602060ff604060002054166040519015158152f35b346101b35760403660031901126101b3576106a961101d565b602435906106b68161117c565b81151580610788575b156107505760ff1660005260076020526040600020600019820191821161073a5760c0916106ec91611057565b5060018060a01b0381541690600181015490600281015460038201549060ff6005600485015494015416936040519586526020860152604085015260608401526080830152151560a0820152f35b634e487b7160e01b600052601160045260246000fd5b60405162461bcd60e51b815260206004820152601060248201526f24b73b30b634b2103837b9b4ba34b7b760811b6044820152606490fd5b5060ff811660005260076020526040600020548211156106bf565b60403660031901126101b3576107b761101d565b6024356001600160a01b038116918282036101b3576107d58161117c565b60ff81169283600052600460205260ff6040600020541615610f00578360005260026020526040600020543403610ebb5733600090815260056020908152604080832060068352818420888552909252909120805491949092909160ff16610e765760ff85541615610dfc575b5050805461ffff191660019081179091558201805461086290349061103b565b905560ff825460a81c168311610de0575b61087d338261125c565b8360005260076020526040600020600019820182811161073a576108a360019183611057565b500154801591908215610dc6576108bb85600061196e565b926000610514803402903482041434151715610d0e576127109004946001600160a01b0316905080610dc157506001546001600160a01b03165b6108ff85826118d4565b6040805160018152602081018790526001600160a01b039092169133917f53aa79cc77a3d2e16f0f104bce3b3da868f1ec7596a2cc49a09f8103982da83491a360009015610da057505060005b8015928315610d865761096086600061196e565b906000610320803402903482041434151715610d0e576109ee936127109091049291506001600160a01b031680610d8157506001546001600160a01b03165b6109a983826118d4565b6040805160028152602081018590526001600160a01b039092169133917f53aa79cc77a3d2e16f0f104bce3b3da868f1ec7596a2cc49a09f8103982da83491a361103b565b9260009015610d4c57505060005b80610d22575050610a0e83600061196e565b9060006101f4803402903482041434151715610d0e57610a9c936127109091049291506001600160a01b031680610d0957506001546001600160a01b03165b610a5783826118d4565b6040805160038152602081018590526001600160a01b039092169133917f53aa79cc77a3d2e16f0f104bce3b3da868f1ec7596a2cc49a09f8103982da83491a361103b565b611ce83402348104611ce8143415171561073a576127109004916001600160a01b0390610acb903390866116e3565b1691610ad781846118d4565b8260005260066020526040600020866000526020526003604060002001610aff82825461103b565b905560015486906001600160a01b031684141580610d00575b610bf8575b8381610b80956040518581527f36d4c4c7a721a6c7d4bddd2467b91089649fd027c4451f39bc99737e9be776d660203392a46040518381527f16ba2b19bb64507cf2c1a04b1f42c44aecacda5b2b3ad30b3e05ffd1a711915b60203392a461103b565b90813411610bd0575b610b949150336114d2565b5460018060a01b039060081c16906040513481527fa39f8d2643b307a6345b215d0bb56b5221ecb986b9fa3da427929b7571b92a0d60203392a4005b60018060a01b03600154169134039134831161073a57610b9492610bf3916118d4565b610b89565b5082600052600660205260406000208660005260205260016040600020018054906001820180921161073a5755826000526006602052856040806000206000908382526020522093601082109485610cef575b85610cb1575b610b809580610ca2575b610c68575b509350610b1d565b805461ff00191661010017905581817f9eedad69e1da086c8d70014edef61addc1d62bfdf25b1dcd3484ad720b970762600080a388610c60565b5060ff815460081c1615610c5b565b6000828152600660205260409020955060018901925060ff831161073a57610b809560ff8a941660005260205260ff60406000205416159550610c51565b945060026001860154101594610c4b565b50831515610b18565b610a4d565b634e487b7160e01b82526011600452602482fd5b600019810190811161073a57610d3c8591610a0e93611057565b50546001600160a01b031661196e565b6000198201918211610d6d5750610d6560019183611057565b5001546109fc565b634e487b7160e01b81526011600452602490fd5b61099f565b600019820182811161073a5786610d3c6109609286611057565b6000198201918211610d6d5750610db960019183611057565b50015461094c565b6108f5565b600019810181811161073a5785610d3c6108bb9285611057565b815460ff60a81b191660a882901b60ff60a81b16178255610873565b845460ff191660011785558015159081610e6b575b5080610e49575b610e23575b80610842565b8354610100600160a81b03191660089190911b610100600160a81b031617835584610e1d565b506001600160a01b03811660009081526005602052604090205460ff16610e18565b905033141586610e11565b60405162461bcd60e51b815260206004820152601760248201527f4c6576656c20697320616c7265616479206163746976650000000000000000006044820152606490fd5b60405162461bcd60e51b815260206004820152601860248201527f496e636f7272656374207061796d656e7420616d6f756e7400000000000000006044820152606490fd5b60405162461bcd60e51b815260206004820152601a60248201527f4c6576656c206973206e6f7420617661696c61626c65207965740000000000006044820152606490fd5b346101b35760203660031901126101b35760ff610f6061101d565b1660005260026020526020604060002054604051908152f35b346101b35760003660031901126101b357602060405160108152f35b346101b35760403660031901126101b357610fae610ff7565b610fb661100d565b90610fc08261117c565b60018060a01b0316600052600660205260ff60406000209116600052602052602060ff60406000205460081c166040519015158152f35b600435906001600160a01b03821682036101b357565b6024359060ff821682036101b357565b6004359060ff821682036101b357565b906001820180921161073a57565b9190820180921161073a57565b60001981019190821161073a57565b8054821015611073576000526006602060002091020190600090565b634e487b7160e01b600052603260045260246000fd5b1561109057565b60405162461bcd60e51b815260206004820152602160248201527f4f6e6c79206f776e65722063616e2063616c6c20746869732066756e6374696f6044820152603760f91b6064820152608490fd5b6110e88261117c565b60018060a01b03166000526006602052604060002060ff82166000526020526002604060002001549081156111665760ff1660005260076020526040600020600019820182811161073a5761113c91611057565b509160018301549260028101549260038201549260ff600560048501549401541691959493929190565b5050600090600090600090600090600090600090565b60ff16600181101590816111c8575b501561119357565b60405162461bcd60e51b815260206004820152600d60248201526c125b9d985b1a59081b195d995b609a1b6044820152606490fd5b6010915011153861118b565b8054680100000000000000008110156111fa576111f691600182018155611057565b9091565b634e487b7160e01b600052604160045260246000fd5b1561121757565b60405162461bcd60e51b815260206004820152601760248201527f4d617472697820706172656e7420697320636c6f7365640000000000000000006044820152606490fd5b906112748260ff166000526007602052604060002090565b91600090600093805415611459575b60018154118015611451575b611329575b8160ff918660026112ee7fd8a08c0c1f4b5e930e1da0bd0b50635c1f9de780c217ce3fa2a17686579146c8966112dc8a60018060a01b03166000526006602052604060002090565b9060ff16600052602052604060002090565b0155546113088260ff166000526003602052604060002090565b556040805187815260208101959095529116936001600160a01b031692a390565b935090506113448160ff166000526008602052604060002090565b54908115611448575b61135f61135983611048565b85611057565b5093600585019461138061137b611377885460ff1690565b1590565b611210565b6113e16005611392600484015461102d565b61139b856111d4565b50506113b06113aa8654611048565b86611057565b5080546001600160a01b0319166001600160a01b038a161781559087600183015560048201550160ff198154169055565b8154958660028301805415611440575b54036113ff575b5050611294565b8161141d61143392896003611439960155600160ff19825416179055565b6114268561157c565b546001600160a01b031690565b83611618565b38806113f8565b8181556113f1565b6001915061134d565b50841561128f565b9350611464846111d4565b50506114aa600561147e6114788754611048565b87611057565b5080546001600160a01b0319166001600160a01b0387161781556000600482015501805460ff19169055565b6114ca6114c48260ff166000526008602052604060002090565b60019055565b835493611283565b9060ff169060018211156115695760015b60ff8116838110156115635760ff91600191828060a01b038516806000526006602052604080600020600090848252602052208054868160081c1661152e575b5050505001166114e3565b61ff00191690557fb0f7d96751587de2fbb05ae8bb25971ba7cd777de717eb3698b701d6c7739654600080a338808080611523565b50505050565b5050565b600019811461073a5760010190565b60ff1680600052600760205260406000209080600052600860205260406000205491821561160f575b918254905b81811115806115eb575b156115c7576115c29061156d565b6115aa565b91925081116115e257905b6000526008602052604060002055565b506000906115d2565b50600019810181811161073a57600561160660ff9287611057565b500154166115b4565b600192506115a5565b60018060a01b038216908160005260066020526116468160406000209060ff16600052602052604060002090565b92835460ff8116159081156116b3575b5061156357611665908261125c565b7fbde1dd97b8c6b9fb71194209f50387cccf9ec5cc5c0e9aa18b13c93cf78ce6e8916116ae600160ff939601549560405193849316968360209093929193604081019481520152565b0390a3565b60ff915060081c1638611656565b90601f8019910116810190811067ffffffffffffffff8211176111fa57604052565b60ff811660009081526007602052604081209193919290916000198201918481841161073a5760016117158583611057565b50015490815b6118a657505083156118905784546040519160208301934485524260408501526bffffffffffffffffffffffff199060601b16606084015260ff60f81b8860f81b166074840152607583015260958201526095815261177b60b5826116c1565b5190209180600093069060016117918487611057565b5001549184925b82841061181957505050506117af60019184611057565b500154805b6117cc5750506001546001600160a01b031692915050565b6000198101908111610d0e576117e28184611057565b50546001600160a01b03166117f78582611991565b611811575061180860019184611057565b500154806117b4565b935050505090565b600019810190811161187c5761182f8188611057565b50546001600160a01b03168483148061186c575b61186057506001611855819289611057565b500154930192611798565b97505050505050505090565b506118778982611991565b611843565b634e487b7160e01b86526011600452602486fd5b50506001546001600160a01b0316949350505050565b90946118b19061156d565b94600019810190811161073a576118ca60019183611057565b500154908161171b565b8115611569576000918291829182916001600160a01b03165af13d15611969573d67ffffffffffffffff81116111fa576040519061191c601f8201601f1916602001836116c1565b8152600060203d92013e5b1561192e57565b60405162461bcd60e51b8152602060048201526013602482015272115512081d1c985b9cd9995c8819985a5b1959606a1b6044820152606490fd5b611927565b906119799082611991565b156119815790565b506001546001600160a01b031690565b6001600160a01b03168015159190826119d9575b826119af57505090565b909150600052600660205260ff6040600020911660005260205260ff60406000205460081c161590565b8092506000526006602052604060002060ff821660005260205260ff60406000205416916119a556fea26469706673582212204f78704d9448b56d659e71f96787d2dbeec33c2ee59ea87824dae19c0dd24e9e64736f6c63430008230033","opcodes":"PUSH1 0x80 CALLVALUE PUSH2 0x3D5 JUMPI PUSH1 0x1F PUSH2 0x1E29 CODESIZE DUP2 SWAP1 SUB SWAP2 DUP3 ADD PUSH1 0x1F NOT AND DUP4 ADD SWAP2 PUSH1 0x1 PUSH1 0x1 PUSH1 0x40 SHL SUB DUP4 GT DUP5 DUP5 LT OR PUSH2 0x3DA JUMPI DUP1 DUP5 SWAP3 PUSH1 0x20 SWAP5 PUSH1 0x40 MSTORE DUP4 CODECOPY DUP2 ADD SUB SLT PUSH2 0x3D5 JUMPI MLOAD PUSH1 0x1 PUSH1 0x1 PUSH1 0xA0 SHL SUB DUP2 AND SWAP1 DUP2 SWAP1 SUB PUSH2 0x3D5 JUMPI DUP1 ISZERO PUSH2 0x390 JUMPI PUSH1 0x0 DUP1 SLOAD PUSH1 0x1 PUSH1 0x1 PUSH1 0xA0 SHL SUB NOT SWAP1 DUP2 AND CALLER OR DUP3 SSTORE PUSH1 0x1 DUP1 SLOAD SWAP1 SWAP2 AND SWAP3 SWAP1 SWAP3 OR SWAP1 SWAP2 SSTORE PUSH1 0x2 PUSH1 0x20 MSTORE PUSH7 0xB1A2BC2EC50000 PUSH32 0xE90B7BCEB6E7DF5418FB78D8EE546E97C83A08BBCCC01A0644D599CCD2A7C2E0 SSTORE PUSH7 0xF8B0A10E470000 PUSH32 0x679795A0195A1B76CDEBB7C51D74E058AEE92919B8C3389AF86EF24535E8A28C SSTORE PUSH8 0x16345785D8A0000 PUSH32 0x88601476D11616A71C5BE67555BD1DFF4B1CBF21533D2669B768B61518CFE1C3 SSTORE PUSH8 0x1F161421C8E0000 PUSH32 0xEE60D0579BCFFD98E668647D59FEC1FF86A7FB340CE572E844F234AE73A6918F SSTORE PUSH8 0x2C68AF0BB140000 PUSH32 0xB98B78633099FA36ED8B8680C4F8092689E1E04080EB9CBB077CA38A14D7E384 SSTORE PUSH8 0x3E2C284391C0000 PUSH32 0x59DD4B18488D12F51EDA69757A0ED42A2010C14B564330CC74A06895E60C077B SSTORE PUSH8 0x58D15E176280000 PUSH32 0xACD8EF244210BB6898E73C48BF820ED8ECC857A3BAB8D79C10E4FA92B1E9CA65 SSTORE PUSH8 0x7A1FE1602770000 PUSH32 0x3A5EA591190EEB3F8FCDCED843C78DF04EC0DFD42F5510375207515664FA0A75 SSTORE PUSH8 0xB1A2BC2EC500000 PUSH32 0xF85CC6FFC513DC6CF7D199EF87B7A63CF9DEFE62251C1C247CD12F1EEC7BFF29 SSTORE PUSH8 0xF43FC2C04EE0000 PUSH32 0xD3604DB978F6137B0D18816B77B2CE810487A3AF08A922E0B184963BE5F3ADFC SSTORE PUSH8 0x16345785D8A00000 PUSH32 0xAB9952BAF6478D8CFB7253CE86A6C53A7B7549582C76210B1581AE682B7E556F SSTORE PUSH8 0x1E87F85809DC0000 PUSH32 0xBD814762A7E35D5C162A7570D14BAA68BD622CABB1AD83D40DD70F8A88AA67C0 SSTORE PUSH8 0x2C68AF0BB1400000 PUSH32 0xEB5D92AA5B18AF35C2D0C0D14A538792CF1A66AA06AB9DAE49D32446E9063CA1 SSTORE PUSH8 0x3D0FF0B013B80000 PUSH32 0x20DE3DD312970F46A1D560F6C70F0E5BD10E638B9BB3836368F28838C607EA3E SSTORE PUSH8 0x5A34A38FC00A0000 PUSH32 0x353061A88C0592F32D7468BE32FF6E5E91E49A3EA3FFB3C4FBE417C36501BA2 SSTORE PUSH1 0x10 SWAP1 MSTORE PUSH8 0x6F05B59D3B200000 PUSH32 0x328B8E687A0A963892A735F0237CB763BBBBF8BA0C1DFE2C221DEBB32C4BBD89 SSTORE PUSH1 0x3 JUMPDEST PUSH1 0xFF DUP2 AND SWAP1 PUSH1 0x10 DUP3 GT PUSH2 0x381 JUMPI PUSH1 0xFF SWAP2 PUSH1 0x0 MSTORE PUSH1 0x4 PUSH1 0x20 MSTORE PUSH1 0x40 PUSH1 0x0 KECCAK256 PUSH1 0x1 DUP4 NOT DUP3 SLOAD AND OR SWAP1 SSTORE AND PUSH1 0xFF DUP2 EQ PUSH2 0x36B JUMPI PUSH1 0x1 ADD PUSH2 0x333 JUMP JUMPDEST PUSH4 0x4E487B71 PUSH1 0xE0 SHL PUSH1 0x0 MSTORE PUSH1 0x11 PUSH1 0x4 MSTORE PUSH1 0x24 PUSH1 0x0 REVERT JUMPDEST PUSH1 0x40 MLOAD PUSH2 0x1A38 SWAP1 DUP2 PUSH2 0x3F1 DUP3 CODECOPY RETURN JUMPDEST PUSH1 0x40 MLOAD PUSH3 0x461BCD PUSH1 0xE5 SHL DUP2 MSTORE PUSH1 0x20 PUSH1 0x4 DUP3 ADD MSTORE PUSH1 0x1C PUSH1 0x24 DUP3 ADD MSTORE PUSH32 0x5472656173757279206164647265737320697320726571756972656400000000 PUSH1 0x44 DUP3 ADD MSTORE PUSH1 0x64 SWAP1 REVERT JUMPDEST PUSH1 0x0 DUP1 REVERT JUMPDEST PUSH4 0x4E487B71 PUSH1 0xE0 SHL PUSH1 0x0 MSTORE PUSH1 0x41 PUSH1 0x4 MSTORE PUSH1 0x24 PUSH1 0x0 REVERT INVALID PUSH1 0x80 PUSH1 0x40 MSTORE PUSH1 0x4 CALLDATASIZE LT ISZERO PUSH2 0x52 JUMPI JUMPDEST CALLDATASIZE ISZERO PUSH2 0x19 JUMPI PUSH1 0x0 DUP1 REVERT JUMPDEST PUSH1 0x40 MLOAD PUSH3 0x461BCD PUSH1 0xE5 SHL DUP2 MSTORE PUSH1 0x20 PUSH1 0x4 DUP3 ADD MSTORE PUSH1 0x11 PUSH1 0x24 DUP3 ADD MSTORE PUSH17 0x155CD9481858DD1A5D985D1953195D995B PUSH1 0x7A SHL PUSH1 0x44 DUP3 ADD MSTORE PUSH1 0x64 SWAP1 REVERT JUMPDEST PUSH1 0x0 CALLDATALOAD PUSH1 0xE0 SHR DUP1 PUSH4 0xE475EFD EQ PUSH2 0xF95 JUMPI DUP1 PUSH4 0x1D6A884B EQ PUSH2 0xF79 JUMPI DUP1 PUSH4 0x2E50D906 EQ PUSH2 0xF45 JUMPI DUP1 PUSH4 0x48D46BE1 EQ PUSH2 0x7A3 JUMPI DUP1 PUSH4 0x4A57C6D9 EQ PUSH2 0x690 JUMPI DUP1 PUSH4 0x52EBB227 EQ PUSH2 0x657 JUMPI DUP1 PUSH4 0x5C12CD4B EQ PUSH2 0x5F1 JUMPI DUP1 PUSH4 0x61D027B3 EQ PUSH2 0x5C8 JUMPI DUP1 PUSH4 0x75B7D7C1 EQ PUSH2 0x569 JUMPI DUP1 PUSH4 0x8DA5CB5B EQ PUSH2 0x540 JUMPI DUP1 PUSH4 0x8EB657C4 EQ PUSH2 0x473 JUMPI DUP1 PUSH4 0xA0978AC2 EQ PUSH2 0x3E8 JUMPI DUP1 PUSH4 0xB9AEE263 EQ PUSH2 0x399 JUMPI DUP1 PUSH4 0xC05DB4CE EQ PUSH2 0x365 JUMPI DUP1 PUSH4 0xD2A16080 EQ PUSH2 0x312 JUMPI DUP1 PUSH4 0xED270C16 EQ PUSH2 0x282 JUMPI DUP1 PUSH4 0xF0F44260 EQ PUSH2 0x1B8 JUMPI PUSH4 0xF2FDE38B SUB PUSH2 0xE JUMPI CALLVALUE PUSH2 0x1B3 JUMPI PUSH1 0x20 CALLDATASIZE PUSH1 0x3 NOT ADD SLT PUSH2 0x1B3 JUMPI PUSH2 0x136 PUSH2 0xFF7 JUMP JUMPDEST PUSH1 0x0 SLOAD SWAP1 PUSH2 0x14E CALLER PUSH1 0x1 PUSH1 0x1 PUSH1 0xA0 SHL SUB DUP5 AND EQ PUSH2 0x1089 JUMP JUMPDEST PUSH1 0x1 PUSH1 0x1 PUSH1 0xA0 SHL SUB AND SWAP1 DUP2 ISZERO PUSH2 0x16E JUMPI PUSH1 0x1 PUSH1 0x1 PUSH1 0xA0 SHL SUB NOT AND OR PUSH1 0x0 SSTORE STOP JUMPDEST PUSH1 0x40 MLOAD PUSH3 0x461BCD PUSH1 0xE5 SHL DUP2 MSTORE PUSH1 0x20 PUSH1 0x4 DUP3 ADD MSTORE PUSH1 0x19 PUSH1 0x24 DUP3 ADD MSTORE PUSH32 0x4F776E6572206164647265737320697320726571756972656400000000000000 PUSH1 0x44 DUP3 ADD MSTORE PUSH1 0x64 SWAP1 REVERT JUMPDEST PUSH1 0x0 DUP1 REVERT JUMPDEST CALLVALUE PUSH2 0x1B3 JUMPI PUSH1 0x20 CALLDATASIZE PUSH1 0x3 NOT ADD SLT PUSH2 0x1B3 JUMPI PUSH1 0x4 CALLDATALOAD PUSH1 0x1 PUSH1 0x1 PUSH1 0xA0 SHL SUB DUP2 AND SWAP1 DUP2 SWAP1 SUB PUSH2 0x1B3 JUMPI PUSH2 0x1F3 PUSH1 0x1 DUP1 PUSH1 0xA0 SHL SUB PUSH1 0x0 SLOAD AND CALLER EQ PUSH2 0x1089 JUMP JUMPDEST DUP1 ISZERO PUSH2 0x23D JUMPI PUSH1 0x1 DUP1 SLOAD PUSH1 0x1 PUSH1 0x1 PUSH1 0xA0 SHL SUB NOT DUP2 AND DUP4 OR SWAP1 SWAP2 SSTORE PUSH1 0x1 PUSH1 0x1 PUSH1 0xA0 SHL SUB AND PUSH32 0x8C3AA5F43A388513435861BF27DFAD7829CD248696FED367C62D441F62954496 PUSH1 0x0 DUP1 LOG3 STOP JUMPDEST PUSH1 0x40 MLOAD PUSH3 0x461BCD PUSH1 0xE5 SHL DUP2 MSTORE PUSH1 0x20 PUSH1 0x4 DUP3 ADD MSTORE PUSH1 0x1C PUSH1 0x24 DUP3 ADD MSTORE PUSH32 0x5472656173757279206164647265737320697320726571756972656400000000 PUSH1 0x44 DUP3 ADD MSTORE PUSH1 0x64 SWAP1 REVERT JUMPDEST CALLVALUE PUSH2 0x1B3 JUMPI PUSH1 0x40 CALLDATASIZE PUSH1 0x3 NOT ADD SLT PUSH2 0x1B3 JUMPI PUSH2 0x29B PUSH2 0x101D JUMP JUMPDEST PUSH1 0x24 CALLDATALOAD SWAP1 DUP2 ISZERO ISZERO DUP1 SWAP3 SUB PUSH2 0x1B3 JUMPI PUSH1 0x20 PUSH1 0xFF PUSH32 0xDD552374405792741CB7E6993CA7E6DD5400B9E45E80CA256AC09DB4009C8937 SWAP3 PUSH2 0x2E4 PUSH1 0x1 DUP1 PUSH1 0xA0 SHL SUB PUSH1 0x0 SLOAD AND CALLER EQ PUSH2 0x1089 JUMP JUMPDEST PUSH2 0x2ED DUP2 PUSH2 0x117C JUMP JUMPDEST AND SWAP3 DUP4 PUSH1 0x0 MSTORE PUSH1 0x4 DUP3 MSTORE PUSH1 0x40 PUSH1 0x0 KECCAK256 PUSH1 0xFF NOT DUP2 SLOAD AND PUSH1 0xFF DUP4 AND OR SWAP1 SSTORE PUSH1 0x40 MLOAD SWAP1 DUP2 MSTORE LOG2 STOP JUMPDEST CALLVALUE PUSH2 0x1B3 JUMPI PUSH1 0x40 CALLDATASIZE PUSH1 0x3 NOT ADD SLT PUSH2 0x1B3 JUMPI PUSH1 0xC0 PUSH2 0x33E PUSH2 0x330 PUSH2 0xFF7 JUMP JUMPDEST PUSH2 0x338 PUSH2 0x100D JUMP JUMPDEST SWAP1 PUSH2 0x10DF JUMP JUMPDEST SWAP4 PUSH1 0x40 SWAP4 SWAP2 SWAP4 MLOAD SWAP6 DUP7 MSTORE PUSH1 0x20 DUP7 ADD MSTORE PUSH1 0x40 DUP6 ADD MSTORE PUSH1 0x60 DUP5 ADD MSTORE PUSH1 0x80 DUP4 ADD MSTORE ISZERO ISZERO PUSH1 0xA0 DUP3 ADD MSTORE RETURN JUMPDEST CALLVALUE PUSH2 0x1B3 JUMPI PUSH1 0x20 CALLDATASIZE PUSH1 0x3 NOT ADD SLT PUSH2 0x1B3 JUMPI PUSH1 0xFF PUSH2 0x380 PUSH2 0x101D JUMP JUMPDEST AND PUSH1 0x0 MSTORE PUSH1 0x3 PUSH1 0x20 MSTORE PUSH1 0x20 PUSH1 0x40 PUSH1 0x0 KECCAK256 SLOAD PUSH1 0x40 MLOAD SWAP1 DUP2 MSTORE RETURN JUMPDEST CALLVALUE PUSH2 0x1B3 JUMPI PUSH1 0x20 CALLDATASIZE PUSH1 0x3 NOT ADD SLT PUSH2 0x1B3 JUMPI PUSH1 0x40 PUSH1 0xFF PUSH2 0x3B6 PUSH2 0x101D JUMP JUMPDEST PUSH2 0x3BF DUP2 PUSH2 0x117C JUMP JUMPDEST AND DUP1 PUSH1 0x0 MSTORE PUSH1 0x7 PUSH1 0x20 MSTORE DUP2 PUSH1 0x0 KECCAK256 SLOAD SWAP1 PUSH1 0x0 MSTORE PUSH1 0x8 PUSH1 0x20 MSTORE DUP2 PUSH1 0x0 KECCAK256 SLOAD DUP3 MLOAD SWAP2 DUP3 MSTORE PUSH1 0x20 DUP3 ADD MSTORE RETURN JUMPDEST CALLVALUE PUSH2 0x1B3 JUMPI PUSH1 0x40 CALLDATASIZE PUSH1 0x3 NOT ADD SLT PUSH2 0x1B3 JUMPI PUSH1 0xA0 PUSH1 0x40 PUSH2 0x405 PUSH2 0xFF7 JUMP JUMPDEST PUSH2 0x40D PUSH2 0x100D JUMP JUMPDEST SWAP1 PUSH2 0x417 DUP3 PUSH2 0x117C JUMP JUMPDEST PUSH1 0x1 DUP1 DUP6 SHL SUB AND PUSH1 0x0 MSTORE PUSH1 0x6 PUSH1 0x20 MSTORE DUP2 PUSH1 0x0 KECCAK256 PUSH1 0xFF PUSH1 0x0 SWAP3 AND DUP3 MSTORE PUSH1 0x20 MSTORE KECCAK256 DUP1 SLOAD SWAP1 PUSH1 0x1 DUP2 ADD SLOAD SWAP1 PUSH1 0x3 PUSH1 0x2 DUP3 ADD SLOAD SWAP2 ADD SLOAD SWAP2 PUSH1 0xFF PUSH1 0x40 MLOAD SWAP5 DUP2 DUP2 AND ISZERO ISZERO DUP7 MSTORE PUSH1 0x8 SHR AND ISZERO ISZERO PUSH1 0x20 DUP6 ADD MSTORE PUSH1 0x40 DUP5 ADD MSTORE PUSH1 0x60 DUP4 ADD MSTORE PUSH1 0x80 DUP3 ADD MSTORE RETURN JUMPDEST CALLVALUE PUSH2 0x1B3 JUMPI PUSH1 0x40 CALLDATASIZE PUSH1 0x3 NOT ADD SLT PUSH2 0x1B3 JUMPI PUSH2 0x48C PUSH2 0x101D JUMP JUMPDEST PUSH1 0x24 CALLDATALOAD SWAP1 PUSH2 0x4A5 PUSH1 0x1 DUP1 PUSH1 0xA0 SHL SUB PUSH1 0x0 SLOAD AND CALLER EQ PUSH2 0x1089 JUMP JUMPDEST PUSH2 0x4AE DUP2 PUSH2 0x117C JUMP JUMPDEST DUP2 ISZERO PUSH2 0x507 JUMPI PUSH1 0x40 PUSH1 0xFF PUSH32 0x68CB741D0779160E141CCF5DD579423DE44FEBC76C0EDDDCC6167807A3C16AF7 SWAP3 AND SWAP3 DUP4 PUSH1 0x0 MSTORE PUSH1 0x2 PUSH1 0x20 MSTORE DUP2 PUSH1 0x0 KECCAK256 SLOAD SWAP1 DUP5 PUSH1 0x0 MSTORE PUSH1 0x2 PUSH1 0x20 MSTORE DUP1 DUP4 PUSH1 0x0 KECCAK256 SSTORE DUP3 MLOAD SWAP2 DUP3 MSTORE PUSH1 0x20 DUP3 ADD MSTORE LOG2 STOP JUMPDEST PUSH1 0x40 MLOAD PUSH3 0x461BCD PUSH1 0xE5 SHL DUP2 MSTORE PUSH1 0x20 PUSH1 0x4 DUP3 ADD MSTORE PUSH1 0x11 PUSH1 0x24 DUP3 ADD MSTORE PUSH17 0x141C9A58D9481A5CC81C995C5D5A5C9959 PUSH1 0x7A SHL PUSH1 0x44 DUP3 ADD MSTORE PUSH1 0x64 SWAP1 REVERT JUMPDEST CALLVALUE PUSH2 0x1B3 JUMPI PUSH1 0x0 CALLDATASIZE PUSH1 0x3 NOT ADD SLT PUSH2 0x1B3 JUMPI PUSH1 0x0 SLOAD PUSH1 0x40 MLOAD PUSH1 0x1 PUSH1 0x1 PUSH1 0xA0 SHL SUB SWAP1 SWAP2 AND DUP2 MSTORE PUSH1 0x20 SWAP1 RETURN JUMPDEST CALLVALUE PUSH2 0x1B3 JUMPI PUSH1 0x40 CALLDATASIZE PUSH1 0x3 NOT ADD SLT PUSH2 0x1B3 JUMPI PUSH2 0x582 PUSH2 0xFF7 JUMP JUMPDEST PUSH2 0x58A PUSH2 0x100D JUMP JUMPDEST SWAP1 PUSH2 0x594 DUP3 PUSH2 0x117C JUMP JUMPDEST PUSH1 0x1 DUP1 PUSH1 0xA0 SHL SUB AND PUSH1 0x0 MSTORE PUSH1 0x6 PUSH1 0x20 MSTORE PUSH1 0xFF PUSH1 0x40 PUSH1 0x0 KECCAK256 SWAP2 AND PUSH1 0x0 MSTORE PUSH1 0x20 MSTORE PUSH1 0x20 PUSH1 0xFF PUSH1 0x40 PUSH1 0x0 KECCAK256 SLOAD AND PUSH1 0x40 MLOAD SWAP1 ISZERO ISZERO DUP2 MSTORE RETURN JUMPDEST CALLVALUE PUSH2 0x1B3 JUMPI PUSH1 0x0 CALLDATASIZE PUSH1 0x3 NOT ADD SLT PUSH2 0x1B3 JUMPI PUSH1 0x1 SLOAD PUSH1 0x40 MLOAD PUSH1 0x1 PUSH1 0x1 PUSH1 0xA0 SHL SUB SWAP1 SWAP2 AND DUP2 MSTORE PUSH1 0x20 SWAP1 RETURN JUMPDEST CALLVALUE PUSH2 0x1B3 JUMPI PUSH1 0x20 CALLDATASIZE PUSH1 0x3 NOT ADD SLT PUSH2 0x1B3 JUMPI PUSH1 0x1 PUSH1 0x1 PUSH1 0xA0 SHL SUB PUSH2 0x612 PUSH2 0xFF7 JUMP JUMPDEST AND PUSH1 0x0 MSTORE PUSH1 0x5 PUSH1 0x20 MSTORE PUSH1 0x80 PUSH1 0x40 PUSH1 0x0 KECCAK256 PUSH1 0x1 DUP2 SLOAD SWAP2 ADD SLOAD PUSH1 0xFF PUSH1 0x40 MLOAD SWAP3 DUP2 DUP2 AND ISZERO ISZERO DUP5 MSTORE PUSH1 0x1 DUP1 PUSH1 0xA0 SHL SUB DUP2 PUSH1 0x8 SHR AND PUSH1 0x20 DUP6 ADD MSTORE PUSH1 0xA8 SHR AND PUSH1 0x40 DUP4 ADD MSTORE PUSH1 0x60 DUP3 ADD MSTORE RETURN JUMPDEST CALLVALUE PUSH2 0x1B3 JUMPI PUSH1 0x20 CALLDATASIZE PUSH1 0x3 NOT ADD SLT PUSH2 0x1B3 JUMPI PUSH1 0xFF PUSH2 0x672 PUSH2 0x101D JUMP JUMPDEST AND PUSH1 0x0 MSTORE PUSH1 0x4 PUSH1 0x20 MSTORE PUSH1 0x20 PUSH1 0xFF PUSH1 0x40 PUSH1 0x0 KECCAK256 SLOAD AND PUSH1 0x40 MLOAD SWAP1 ISZERO ISZERO DUP2 MSTORE RETURN JUMPDEST CALLVALUE PUSH2 0x1B3 JUMPI PUSH1 0x40 CALLDATASIZE PUSH1 0x3 NOT ADD SLT PUSH2 0x1B3 JUMPI PUSH2 0x6A9 PUSH2 0x101D JUMP JUMPDEST PUSH1 0x24 CALLDATALOAD SWAP1 PUSH2 0x6B6 DUP2 PUSH2 0x117C JUMP JUMPDEST DUP2 ISZERO ISZERO DUP1 PUSH2 0x788 JUMPI JUMPDEST ISZERO PUSH2 0x750 JUMPI PUSH1 0xFF AND PUSH1 0x0 MSTORE PUSH1 0x7 PUSH1 0x20 MSTORE PUSH1 0x40 PUSH1 0x0 KECCAK256 PUSH1 0x0 NOT DUP3 ADD SWAP2 DUP3 GT PUSH2 0x73A JUMPI PUSH1 0xC0 SWAP2 PUSH2 0x6EC SWAP2 PUSH2 0x1057 JUMP JUMPDEST POP PUSH1 0x1 DUP1 PUSH1 0xA0 SHL SUB DUP2 SLOAD AND SWAP1 PUSH1 0x1 DUP2 ADD SLOAD SWAP1 PUSH1 0x2 DUP2 ADD SLOAD PUSH1 0x3 DUP3 ADD SLOAD SWAP1 PUSH1 0xFF PUSH1 0x5 PUSH1 0x4 DUP6 ADD SLOAD SWAP5 ADD SLOAD AND SWAP4 PUSH1 0x40 MLOAD SWAP6 DUP7 MSTORE PUSH1 0x20 DUP7 ADD MSTORE PUSH1 0x40 DUP6 ADD MSTORE PUSH1 0x60 DUP5 ADD MSTORE PUSH1 0x80 DUP4 ADD MSTORE ISZERO ISZERO PUSH1 0xA0 DUP3 ADD MSTORE RETURN JUMPDEST PUSH4 0x4E487B71 PUSH1 0xE0 SHL PUSH1 0x0 MSTORE PUSH1 0x11 PUSH1 0x4 MSTORE PUSH1 0x24 PUSH1 0x0 REVERT JUMPDEST PUSH1 0x40 MLOAD PUSH3 0x461BCD PUSH1 0xE5 SHL DUP2 MSTORE PUSH1 0x20 PUSH1 0x4 DUP3 ADD MSTORE PUSH1 0x10 PUSH1 0x24 DUP3 ADD MSTORE PUSH16 0x24B73B30B634B2103837B9B4BA34B7B7 PUSH1 0x81 SHL PUSH1 0x44 DUP3 ADD MSTORE PUSH1 0x64 SWAP1 REVERT JUMPDEST POP PUSH1 0xFF DUP2 AND PUSH1 0x0 MSTORE PUSH1 0x7 PUSH1 0x20 MSTORE PUSH1 0x40 PUSH1 0x0 KECCAK256 SLOAD DUP3 GT ISZERO PUSH2 0x6BF JUMP JUMPDEST PUSH1 0x40 CALLDATASIZE PUSH1 0x3 NOT ADD SLT PUSH2 0x1B3 JUMPI PUSH2 0x7B7 PUSH2 0x101D JUMP JUMPDEST PUSH1 0x24 CALLDATALOAD PUSH1 0x1 PUSH1 0x1 PUSH1 0xA0 SHL SUB DUP2 AND SWAP2 DUP3 DUP3 SUB PUSH2 0x1B3 JUMPI PUSH2 0x7D5 DUP2 PUSH2 0x117C JUMP JUMPDEST PUSH1 0xFF DUP2 AND SWAP3 DUP4 PUSH1 0x0 MSTORE PUSH1 0x4 PUSH1 0x20 MSTORE PUSH1 0xFF PUSH1 0x40 PUSH1 0x0 KECCAK256 SLOAD AND ISZERO PUSH2 0xF00 JUMPI DUP4 PUSH1 0x0 MSTORE PUSH1 0x2 PUSH1 0x20 MSTORE PUSH1 0x40 PUSH1 0x0 KECCAK256 SLOAD CALLVALUE SUB PUSH2 0xEBB JUMPI CALLER PUSH1 0x0 SWAP1 DUP2 MSTORE PUSH1 0x5 PUSH1 0x20 SWAP1 DUP2 MSTORE PUSH1 0x40 DUP1 DUP4 KECCAK256 PUSH1 0x6 DUP4 MSTORE DUP2 DUP5 KECCAK256 DUP9 DUP6 MSTORE SWAP1 SWAP3 MSTORE SWAP1 SWAP2 KECCAK256 DUP1 SLOAD SWAP2 SWAP5 SWAP1 SWAP3 SWAP1 SWAP2 PUSH1 0xFF AND PUSH2 0xE76 JUMPI PUSH1 0xFF DUP6 SLOAD AND ISZERO PUSH2 0xDFC JUMPI JUMPDEST POP POP DUP1 SLOAD PUSH2 0xFFFF NOT AND PUSH1 0x1 SWAP1 DUP2 OR SWAP1 SWAP2 SSTORE DUP3 ADD DUP1 SLOAD PUSH2 0x862 SWAP1 CALLVALUE SWAP1 PUSH2 0x103B JUMP JUMPDEST SWAP1 SSTORE PUSH1 0xFF DUP3 SLOAD PUSH1 0xA8 SHR AND DUP4 GT PUSH2 0xDE0 JUMPI JUMPDEST PUSH2 0x87D CALLER DUP3 PUSH2 0x125C JUMP JUMPDEST DUP4 PUSH1 0x0 MSTORE PUSH1 0x7 PUSH1 0x20 MSTORE PUSH1 0x40 PUSH1 0x0 KECCAK256 PUSH1 0x0 NOT DUP3 ADD DUP3 DUP2 GT PUSH2 0x73A JUMPI PUSH2 0x8A3 PUSH1 0x1 SWAP2 DUP4 PUSH2 0x1057 JUMP JUMPDEST POP ADD SLOAD DUP1 ISZERO SWAP2 SWAP1 DUP3 ISZERO PUSH2 0xDC6 JUMPI PUSH2 0x8BB DUP6 PUSH1 0x0 PUSH2 0x196E JUMP JUMPDEST SWAP3 PUSH1 0x0 PUSH2 0x514 DUP1 CALLVALUE MUL SWAP1 CALLVALUE DUP3 DIV EQ CALLVALUE ISZERO OR ISZERO PUSH2 0xD0E JUMPI PUSH2 0x2710 SWAP1 DIV SWAP5 PUSH1 0x1 PUSH1 0x1 PUSH1 0xA0 SHL SUB AND SWAP1 POP DUP1 PUSH2 0xDC1 JUMPI POP PUSH1 0x1 SLOAD PUSH1 0x1 PUSH1 0x1 PUSH1 0xA0 SHL SUB AND JUMPDEST PUSH2 0x8FF DUP6 DUP3 PUSH2 0x18D4 JUMP JUMPDEST PUSH1 0x40 DUP1 MLOAD PUSH1 0x1 DUP2 MSTORE PUSH1 0x20 DUP2 ADD DUP8 SWAP1 MSTORE PUSH1 0x1 PUSH1 0x1 PUSH1 0xA0 SHL SUB SWAP1 SWAP3 AND SWAP2 CALLER SWAP2 PUSH32 0x53AA79CC77A3D2E16F0F104BCE3B3DA868F1EC7596A2CC49A09F8103982DA834 SWAP2 LOG3 PUSH1 0x0 SWAP1 ISZERO PUSH2 0xDA0 JUMPI POP POP PUSH1 0x0 JUMPDEST DUP1 ISZERO SWAP3 DUP4 ISZERO PUSH2 0xD86 JUMPI PUSH2 0x960 DUP7 PUSH1 0x0 PUSH2 0x196E JUMP JUMPDEST SWAP1 PUSH1 0x0 PUSH2 0x320 DUP1 CALLVALUE MUL SWAP1 CALLVALUE DUP3 DIV EQ CALLVALUE ISZERO OR ISZERO PUSH2 0xD0E JUMPI PUSH2 0x9EE SWAP4 PUSH2 0x2710 SWAP1 SWAP2 DIV SWAP3 SWAP2 POP PUSH1 0x1 PUSH1 0x1 PUSH1 0xA0 SHL SUB AND DUP1 PUSH2 0xD81 JUMPI POP PUSH1 0x1 SLOAD PUSH1 0x1 PUSH1 0x1 PUSH1 0xA0 SHL SUB AND JUMPDEST PUSH2 0x9A9 DUP4 DUP3 PUSH2 0x18D4 JUMP JUMPDEST PUSH1 0x40 DUP1 MLOAD PUSH1 0x2 DUP2 MSTORE PUSH1 0x20 DUP2 ADD DUP6 SWAP1 MSTORE PUSH1 0x1 PUSH1 0x1 PUSH1 0xA0 SHL SUB SWAP1 SWAP3 AND SWAP2 CALLER SWAP2 PUSH32 0x53AA79CC77A3D2E16F0F104BCE3B3DA868F1EC7596A2CC49A09F8103982DA834 SWAP2 LOG3 PUSH2 0x103B JUMP JUMPDEST SWAP3 PUSH1 0x0 SWAP1 ISZERO PUSH2 0xD4C JUMPI POP POP PUSH1 0x0 JUMPDEST DUP1 PUSH2 0xD22 JUMPI POP POP PUSH2 0xA0E DUP4 PUSH1 0x0 PUSH2 0x196E JUMP JUMPDEST SWAP1 PUSH1 0x0 PUSH2 0x1F4 DUP1 CALLVALUE MUL SWAP1 CALLVALUE DUP3 DIV EQ CALLVALUE ISZERO OR ISZERO PUSH2 0xD0E JUMPI PUSH2 0xA9C SWAP4 PUSH2 0x2710 SWAP1 SWAP2 DIV SWAP3 SWAP2 POP PUSH1 0x1 PUSH1 0x1 PUSH1 0xA0 SHL SUB AND DUP1 PUSH2 0xD09 JUMPI POP PUSH1 0x1 SLOAD PUSH1 0x1 PUSH1 0x1 PUSH1 0xA0 SHL SUB AND JUMPDEST PUSH2 0xA57 DUP4 DUP3 PUSH2 0x18D4 JUMP JUMPDEST PUSH1 0x40 DUP1 MLOAD PUSH1 0x3 DUP2 MSTORE PUSH1 0x20 DUP2 ADD DUP6 SWAP1 MSTORE PUSH1 0x1 PUSH1 0x1 PUSH1 0xA0 SHL SUB SWAP1 SWAP3 AND SWAP2 CALLER SWAP2 PUSH32 0x53AA79CC77A3D2E16F0F104BCE3B3DA868F1EC7596A2CC49A09F8103982DA834 SWAP2 LOG3 PUSH2 0x103B JUMP JUMPDEST PUSH2 0x1CE8 CALLVALUE MUL CALLVALUE DUP2 DIV PUSH2 0x1CE8 EQ CALLVALUE ISZERO OR ISZERO PUSH2 0x73A JUMPI PUSH2 0x2710 SWAP1 DIV SWAP2 PUSH1 0x1 PUSH1 0x1 PUSH1 0xA0 SHL SUB SWAP1 PUSH2 0xACB SWAP1 CALLER SWAP1 DUP7 PUSH2 0x16E3 JUMP JUMPDEST AND SWAP2 PUSH2 0xAD7 DUP2 DUP5 PUSH2 0x18D4 JUMP JUMPDEST DUP3 PUSH1 0x0 MSTORE PUSH1 0x6 PUSH1 0x20 MSTORE PUSH1 0x40 PUSH1 0x0 KECCAK256 DUP7 PUSH1 0x0 MSTORE PUSH1 0x20 MSTORE PUSH1 0x3 PUSH1 0x40 PUSH1 0x0 KECCAK256 ADD PUSH2 0xAFF DUP3 DUP3 SLOAD PUSH2 0x103B JUMP JUMPDEST SWAP1 SSTORE PUSH1 0x1 SLOAD DUP7 SWAP1 PUSH1 0x1 PUSH1 0x1 PUSH1 0xA0 SHL SUB AND DUP5 EQ ISZERO DUP1 PUSH2 0xD00 JUMPI JUMPDEST PUSH2 0xBF8 JUMPI JUMPDEST DUP4 DUP2 PUSH2 0xB80 SWAP6 PUSH1 0x40 MLOAD DUP6 DUP2 MSTORE PUSH32 0x36D4C4C7A721A6C7D4BDDD2467B91089649FD027C4451F39BC99737E9BE776D6 PUSH1 0x20 CALLER SWAP3 LOG4 PUSH1 0x40 MLOAD DUP4 DUP2 MSTORE PUSH32 0x16BA2B19BB64507CF2C1A04B1F42C44AECACDA5B2B3AD30B3E05FFD1A711915B PUSH1 0x20 CALLER SWAP3 LOG4 PUSH2 0x103B JUMP JUMPDEST SWAP1 DUP2 CALLVALUE GT PUSH2 0xBD0 JUMPI JUMPDEST PUSH2 0xB94 SWAP2 POP CALLER PUSH2 0x14D2 JUMP JUMPDEST SLOAD PUSH1 0x1 DUP1 PUSH1 0xA0 SHL SUB SWAP1 PUSH1 0x8 SHR AND SWAP1 PUSH1 0x40 MLOAD CALLVALUE DUP2 MSTORE PUSH32 0xA39F8D2643B307A6345B215D0BB56B5221ECB986B9FA3DA427929B7571B92A0D PUSH1 0x20 CALLER SWAP3 LOG4 STOP JUMPDEST PUSH1 0x1 DUP1 PUSH1 0xA0 SHL SUB PUSH1 0x1 SLOAD AND SWAP2 CALLVALUE SUB SWAP2 CALLVALUE DUP4 GT PUSH2 0x73A JUMPI PUSH2 0xB94 SWAP3 PUSH2 0xBF3 SWAP2 PUSH2 0x18D4 JUMP JUMPDEST PUSH2 0xB89 JUMP JUMPDEST POP DUP3 PUSH1 0x0 MSTORE PUSH1 0x6 PUSH1 0x20 MSTORE PUSH1 0x40 PUSH1 0x0 KECCAK256 DUP7 PUSH1 0x0 MSTORE PUSH1 0x20 MSTORE PUSH1 0x1 PUSH1 0x40 PUSH1 0x0 KECCAK256 ADD DUP1 SLOAD SWAP1 PUSH1 0x1 DUP3 ADD DUP1 SWAP3 GT PUSH2 0x73A JUMPI SSTORE DUP3 PUSH1 0x0 MSTORE PUSH1 0x6 PUSH1 0x20 MSTORE DUP6 PUSH1 0x40 DUP1 PUSH1 0x0 KECCAK256 PUSH1 0x0 SWAP1 DUP4 DUP3 MSTORE PUSH1 0x20 MSTORE KECCAK256 SWAP4 PUSH1 0x10 DUP3 LT SWAP5 DUP6 PUSH2 0xCEF JUMPI JUMPDEST DUP6 PUSH2 0xCB1 JUMPI JUMPDEST PUSH2 0xB80 SWAP6 DUP1 PUSH2 0xCA2 JUMPI JUMPDEST PUSH2 0xC68 JUMPI JUMPDEST POP SWAP4 POP PUSH2 0xB1D JUMP JUMPDEST DUP1 SLOAD PUSH2 0xFF00 NOT AND PUSH2 0x100 OR SWAP1 SSTORE DUP2 DUP2 PUSH32 0x9EEDAD69E1DA086C8D70014EDEF61ADDC1D62BFDF25B1DCD3484AD720B970762 PUSH1 0x0 DUP1 LOG3 DUP9 PUSH2 0xC60 JUMP JUMPDEST POP PUSH1 0xFF DUP2 SLOAD PUSH1 0x8 SHR AND ISZERO PUSH2 0xC5B JUMP JUMPDEST PUSH1 0x0 DUP3 DUP2 MSTORE PUSH1 0x6 PUSH1 0x20 MSTORE PUSH1 0x40 SWAP1 KECCAK256 SWAP6 POP PUSH1 0x1 DUP10 ADD SWAP3 POP PUSH1 0xFF DUP4 GT PUSH2 0x73A JUMPI PUSH2 0xB80 SWAP6 PUSH1 0xFF DUP11 SWAP5 AND PUSH1 0x0 MSTORE PUSH1 0x20 MSTORE PUSH1 0xFF PUSH1 0x40 PUSH1 0x0 KECCAK256 SLOAD AND ISZERO SWAP6 POP PUSH2 0xC51 JUMP JUMPDEST SWAP5 POP PUSH1 0x2 PUSH1 0x1 DUP7 ADD SLOAD LT ISZERO SWAP5 PUSH2 0xC4B JUMP JUMPDEST POP DUP4 ISZERO ISZERO PUSH2 0xB18 JUMP JUMPDEST PUSH2 0xA4D JUMP JUMPDEST PUSH4 0x4E487B71 PUSH1 0xE0 SHL DUP3 MSTORE PUSH1 0x11 PUSH1 0x4 MSTORE PUSH1 0x24 DUP3 REVERT JUMPDEST PUSH1 0x0 NOT DUP2 ADD SWAP1 DUP2 GT PUSH2 0x73A JUMPI PUSH2 0xD3C DUP6 SWAP2 PUSH2 0xA0E SWAP4 PUSH2 0x1057 JUMP JUMPDEST POP SLOAD PUSH1 0x1 PUSH1 0x1 PUSH1 0xA0 SHL SUB AND PUSH2 0x196E JUMP JUMPDEST PUSH1 0x0 NOT DUP3 ADD SWAP2 DUP3 GT PUSH2 0xD6D JUMPI POP PUSH2 0xD65 PUSH1 0x1 SWAP2 DUP4 PUSH2 0x1057 JUMP JUMPDEST POP ADD SLOAD PUSH2 0x9FC JUMP JUMPDEST PUSH4 0x4E487B71 PUSH1 0xE0 SHL DUP2 MSTORE PUSH1 0x11 PUSH1 0x4 MSTORE PUSH1 0x24 SWAP1 REVERT JUMPDEST PUSH2 0x99F JUMP JUMPDEST PUSH1 0x0 NOT DUP3 ADD DUP3 DUP2 GT PUSH2 0x73A JUMPI DUP7 PUSH2 0xD3C PUSH2 0x960 SWAP3 DUP7 PUSH2 0x1057 JUMP JUMPDEST PUSH1 0x0 NOT DUP3 ADD SWAP2 DUP3 GT PUSH2 0xD6D JUMPI POP PUSH2 0xDB9 PUSH1 0x1 SWAP2 DUP4 PUSH2 0x1057 JUMP JUMPDEST POP ADD SLOAD PUSH2 0x94C JUMP JUMPDEST PUSH2 0x8F5 JUMP JUMPDEST PUSH1 0x0 NOT DUP2 ADD DUP2 DUP2 GT PUSH2 0x73A JUMPI DUP6 PUSH2 0xD3C PUSH2 0x8BB SWAP3 DUP6 PUSH2 0x1057 JUMP JUMPDEST DUP2 SLOAD PUSH1 0xFF PUSH1 0xA8 SHL NOT AND PUSH1 0xA8 DUP3 SWAP1 SHL PUSH1 0xFF PUSH1 0xA8 SHL AND OR DUP3 SSTORE PUSH2 0x873 JUMP JUMPDEST DUP5 SLOAD PUSH1 0xFF NOT AND PUSH1 0x1 OR DUP6 SSTORE DUP1 ISZERO ISZERO SWAP1 DUP2 PUSH2 0xE6B JUMPI JUMPDEST POP DUP1 PUSH2 0xE49 JUMPI JUMPDEST PUSH2 0xE23 JUMPI JUMPDEST DUP1 PUSH2 0x842 JUMP JUMPDEST DUP4 SLOAD PUSH2 0x100 PUSH1 0x1 PUSH1 0xA8 SHL SUB NOT AND PUSH1 0x8 SWAP2 SWAP1 SWAP2 SHL PUSH2 0x100 PUSH1 0x1 PUSH1 0xA8 SHL SUB AND OR DUP4 SSTORE DUP5 PUSH2 0xE1D JUMP JUMPDEST POP PUSH1 0x1 PUSH1 0x1 PUSH1 0xA0 SHL SUB DUP2 AND PUSH1 0x0 SWAP1 DUP2 MSTORE PUSH1 0x5 PUSH1 0x20 MSTORE PUSH1 0x40 SWAP1 KECCAK256 SLOAD PUSH1 0xFF AND PUSH2 0xE18 JUMP JUMPDEST SWAP1 POP CALLER EQ ISZERO DUP7 PUSH2 0xE11 JUMP JUMPDEST PUSH1 0x40 MLOAD PUSH3 0x461BCD PUSH1 0xE5 SHL DUP2 MSTORE PUSH1 0x20 PUSH1 0x4 DUP3 ADD MSTORE PUSH1 0x17 PUSH1 0x24 DUP3 ADD MSTORE PUSH32 0x4C6576656C20697320616C726561647920616374697665000000000000000000 PUSH1 0x44 DUP3 ADD MSTORE PUSH1 0x64 SWAP1 REVERT JUMPDEST PUSH1 0x40 MLOAD PUSH3 0x461BCD PUSH1 0xE5 SHL DUP2 MSTORE PUSH1 0x20 PUSH1 0x4 DUP3 ADD MSTORE PUSH1 0x18 PUSH1 0x24 DUP3 ADD MSTORE PUSH32 0x496E636F7272656374207061796D656E7420616D6F756E740000000000000000 PUSH1 0x44 DUP3 ADD MSTORE PUSH1 0x64 SWAP1 REVERT JUMPDEST PUSH1 0x40 MLOAD PUSH3 0x461BCD PUSH1 0xE5 SHL DUP2 MSTORE PUSH1 0x20 PUSH1 0x4 DUP3 ADD MSTORE PUSH1 0x1A PUSH1 0x24 DUP3 ADD MSTORE PUSH32 0x4C6576656C206973206E6F7420617661696C61626C6520796574000000000000 PUSH1 0x44 DUP3 ADD MSTORE PUSH1 0x64 SWAP1 REVERT JUMPDEST CALLVALUE PUSH2 0x1B3 JUMPI PUSH1 0x20 CALLDATASIZE PUSH1 0x3 NOT ADD SLT PUSH2 0x1B3 JUMPI PUSH1 0xFF PUSH2 0xF60 PUSH2 0x101D JUMP JUMPDEST AND PUSH1 0x0 MSTORE PUSH1 0x2 PUSH1 0x20 MSTORE PUSH1 0x20 PUSH1 0x40 PUSH1 0x0 KECCAK256 SLOAD PUSH1 0x40 MLOAD SWAP1 DUP2 MSTORE RETURN JUMPDEST CALLVALUE PUSH2 0x1B3 JUMPI PUSH1 0x0 CALLDATASIZE PUSH1 0x3 NOT ADD SLT PUSH2 0x1B3 JUMPI PUSH1 0x20 PUSH1 0x40 MLOAD PUSH1 0x10 DUP2 MSTORE RETURN JUMPDEST CALLVALUE PUSH2 0x1B3 JUMPI PUSH1 0x40 CALLDATASIZE PUSH1 0x3 NOT ADD SLT PUSH2 0x1B3 JUMPI PUSH2 0xFAE PUSH2 0xFF7 JUMP JUMPDEST PUSH2 0xFB6 PUSH2 0x100D JUMP JUMPDEST SWAP1 PUSH2 0xFC0 DUP3 PUSH2 0x117C JUMP JUMPDEST PUSH1 0x1 DUP1 PUSH1 0xA0 SHL SUB AND PUSH1 0x0 MSTORE PUSH1 0x6 PUSH1 0x20 MSTORE PUSH1 0xFF PUSH1 0x40 PUSH1 0x0 KECCAK256 SWAP2 AND PUSH1 0x0 MSTORE PUSH1 0x20 MSTORE PUSH1 0x20 PUSH1 0xFF PUSH1 0x40 PUSH1 0x0 KECCAK256 SLOAD PUSH1 0x8 SHR AND PUSH1 0x40 MLOAD SWAP1 ISZERO ISZERO DUP2 MSTORE RETURN JUMPDEST PUSH1 0x4 CALLDATALOAD SWAP1 PUSH1 0x1 PUSH1 0x1 PUSH1 0xA0 SHL SUB DUP3 AND DUP3 SUB PUSH2 0x1B3 JUMPI JUMP JUMPDEST PUSH1 0x24 CALLDATALOAD SWAP1 PUSH1 0xFF DUP3 AND DUP3 SUB PUSH2 0x1B3 JUMPI JUMP JUMPDEST PUSH1 0x4 CALLDATALOAD SWAP1 PUSH1 0xFF DUP3 AND DUP3 SUB PUSH2 0x1B3 JUMPI JUMP JUMPDEST SWAP1 PUSH1 0x1 DUP3 ADD DUP1 SWAP3 GT PUSH2 0x73A JUMPI JUMP JUMPDEST SWAP2 SWAP1 DUP3 ADD DUP1 SWAP3 GT PUSH2 0x73A JUMPI JUMP JUMPDEST PUSH1 0x0 NOT DUP2 ADD SWAP2 SWAP1 DUP3 GT PUSH2 0x73A JUMPI JUMP JUMPDEST DUP1 SLOAD DUP3 LT ISZERO PUSH2 0x1073 JUMPI PUSH1 0x0 MSTORE PUSH1 0x6 PUSH1 0x20 PUSH1 0x0 KECCAK256 SWAP2 MUL ADD SWAP1 PUSH1 0x0 SWAP1 JUMP JUMPDEST PUSH4 0x4E487B71 PUSH1 0xE0 SHL PUSH1 0x0 MSTORE PUSH1 0x32 PUSH1 0x4 MSTORE PUSH1 0x24 PUSH1 0x0 REVERT JUMPDEST ISZERO PUSH2 0x1090 JUMPI JUMP JUMPDEST PUSH1 0x40 MLOAD PUSH3 0x461BCD PUSH1 0xE5 SHL DUP2 MSTORE PUSH1 0x20 PUSH1 0x4 DUP3 ADD MSTORE PUSH1 0x21 PUSH1 0x24 DUP3 ADD MSTORE PUSH32 0x4F6E6C79206F776E65722063616E2063616C6C20746869732066756E6374696F PUSH1 0x44 DUP3 ADD MSTORE PUSH1 0x37 PUSH1 0xF9 SHL PUSH1 0x64 DUP3 ADD MSTORE PUSH1 0x84 SWAP1 REVERT JUMPDEST PUSH2 0x10E8 DUP3 PUSH2 0x117C JUMP JUMPDEST PUSH1 0x1 DUP1 PUSH1 0xA0 SHL SUB AND PUSH1 0x0 MSTORE PUSH1 0x6 PUSH1 0x20 MSTORE PUSH1 0x40 PUSH1 0x0 KECCAK256 PUSH1 0xFF DUP3 AND PUSH1 0x0 MSTORE PUSH1 0x20 MSTORE PUSH1 0x2 PUSH1 0x40 PUSH1 0x0 KECCAK256 ADD SLOAD SWAP1 DUP2 ISZERO PUSH2 0x1166 JUMPI PUSH1 0xFF AND PUSH1 0x0 MSTORE PUSH1 0x7 PUSH1 0x20 MSTORE PUSH1 0x40 PUSH1 0x0 KECCAK256 PUSH1 0x0 NOT DUP3 ADD DUP3 DUP2 GT PUSH2 0x73A JUMPI PUSH2 0x113C SWAP2 PUSH2 0x1057 JUMP JUMPDEST POP SWAP2 PUSH1 0x1 DUP4 ADD SLOAD SWAP3 PUSH1 0x2 DUP2 ADD SLOAD SWAP3 PUSH1 0x3 DUP3 ADD SLOAD SWAP3 PUSH1 0xFF PUSH1 0x5 PUSH1 0x4 DUP6 ADD SLOAD SWAP5 ADD SLOAD AND SWAP2 SWAP6 SWAP5 SWAP4 SWAP3 SWAP2 SWAP1 JUMP JUMPDEST POP POP PUSH1 0x0 SWAP1 PUSH1 0x0 SWAP1 PUSH1 0x0 SWAP1 PUSH1 0x0 SWAP1 PUSH1 0x0 SWAP1 PUSH1 0x0 SWAP1 JUMP JUMPDEST PUSH1 0xFF AND PUSH1 0x1 DUP2 LT ISZERO SWAP1 DUP2 PUSH2 0x11C8 JUMPI JUMPDEST POP ISZERO PUSH2 0x1193 JUMPI JUMP JUMPDEST PUSH1 0x40 MLOAD PUSH3 0x461BCD PUSH1 0xE5 SHL DUP2 MSTORE PUSH1 0x20 PUSH1 0x4 DUP3 ADD MSTORE PUSH1 0xD PUSH1 0x24 DUP3 ADD MSTORE PUSH13 0x125B9D985B1A59081B195D995B PUSH1 0x9A SHL PUSH1 0x44 DUP3 ADD MSTORE PUSH1 0x64 SWAP1 REVERT JUMPDEST PUSH1 0x10 SWAP2 POP GT ISZERO CODESIZE PUSH2 0x118B JUMP JUMPDEST DUP1 SLOAD PUSH9 0x10000000000000000 DUP2 LT ISZERO PUSH2 0x11FA JUMPI PUSH2 0x11F6 SWAP2 PUSH1 0x1 DUP3 ADD DUP2 SSTORE PUSH2 0x1057 JUMP JUMPDEST SWAP1 SWAP2 JUMP JUMPDEST PUSH4 0x4E487B71 PUSH1 0xE0 SHL PUSH1 0x0 MSTORE PUSH1 0x41 PUSH1 0x4 MSTORE PUSH1 0x24 PUSH1 0x0 REVERT JUMPDEST ISZERO PUSH2 0x1217 JUMPI JUMP JUMPDEST PUSH1 0x40 MLOAD PUSH3 0x461BCD PUSH1 0xE5 SHL DUP2 MSTORE PUSH1 0x20 PUSH1 0x4 DUP3 ADD MSTORE PUSH1 0x17 PUSH1 0x24 DUP3 ADD MSTORE PUSH32 0x4D617472697820706172656E7420697320636C6F736564000000000000000000 PUSH1 0x44 DUP3 ADD MSTORE PUSH1 0x64 SWAP1 REVERT JUMPDEST SWAP1 PUSH2 0x1274 DUP3 PUSH1 0xFF AND PUSH1 0x0 MSTORE PUSH1 0x7 PUSH1 0x20 MSTORE PUSH1 0x40 PUSH1 0x0 KECCAK256 SWAP1 JUMP JUMPDEST SWAP2 PUSH1 0x0 SWAP1 PUSH1 0x0 SWAP4 DUP1 SLOAD ISZERO PUSH2 0x1459 JUMPI JUMPDEST PUSH1 0x1 DUP2 SLOAD GT DUP1 ISZERO PUSH2 0x1451 JUMPI JUMPDEST PUSH2 0x1329 JUMPI JUMPDEST DUP2 PUSH1 0xFF SWAP2 DUP7 PUSH1 0x2 PUSH2 0x12EE PUSH32 0xD8A08C0C1F4B5E930E1DA0BD0B50635C1F9DE780C217CE3FA2A17686579146C8 SWAP7 PUSH2 0x12DC DUP11 PUSH1 0x1 DUP1 PUSH1 0xA0 SHL SUB AND PUSH1 0x0 MSTORE PUSH1 0x6 PUSH1 0x20 MSTORE PUSH1 0x40 PUSH1 0x0 KECCAK256 SWAP1 JUMP JUMPDEST SWAP1 PUSH1 0xFF AND PUSH1 0x0 MSTORE PUSH1 0x20 MSTORE PUSH1 0x40 PUSH1 0x0 KECCAK256 SWAP1 JUMP JUMPDEST ADD SSTORE SLOAD PUSH2 0x1308 DUP3 PUSH1 0xFF AND PUSH1 0x0 MSTORE PUSH1 0x3 PUSH1 0x20 MSTORE PUSH1 0x40 PUSH1 0x0 KECCAK256 SWAP1 JUMP JUMPDEST SSTORE PUSH1 0x40 DUP1 MLOAD DUP8 DUP2 MSTORE PUSH1 0x20 DUP2 ADD SWAP6 SWAP1 SWAP6 MSTORE SWAP2 AND SWAP4 PUSH1 0x1 PUSH1 0x1 PUSH1 0xA0 SHL SUB AND SWAP3 LOG3 SWAP1 JUMP JUMPDEST SWAP4 POP SWAP1 POP PUSH2 0x1344 DUP2 PUSH1 0xFF AND PUSH1 0x0 MSTORE PUSH1 0x8 PUSH1 0x20 MSTORE PUSH1 0x40 PUSH1 0x0 KECCAK256 SWAP1 JUMP JUMPDEST SLOAD SWAP1 DUP2 ISZERO PUSH2 0x1448 JUMPI JUMPDEST PUSH2 0x135F PUSH2 0x1359 DUP4 PUSH2 0x1048 JUMP JUMPDEST DUP6 PUSH2 0x1057 JUMP JUMPDEST POP SWAP4 PUSH1 0x5 DUP6 ADD SWAP5 PUSH2 0x1380 PUSH2 0x137B PUSH2 0x1377 DUP9 SLOAD PUSH1 0xFF AND SWAP1 JUMP JUMPDEST ISZERO SWAP1 JUMP JUMPDEST PUSH2 0x1210 JUMP JUMPDEST PUSH2 0x13E1 PUSH1 0x5 PUSH2 0x1392 PUSH1 0x4 DUP5 ADD SLOAD PUSH2 0x102D JUMP JUMPDEST PUSH2 0x139B DUP6 PUSH2 0x11D4 JUMP JUMPDEST POP POP PUSH2 0x13B0 PUSH2 0x13AA DUP7 SLOAD PUSH2 0x1048 JUMP JUMPDEST DUP7 PUSH2 0x1057 JUMP JUMPDEST POP DUP1 SLOAD PUSH1 0x1 PUSH1 0x1 PUSH1 0xA0 SHL SUB NOT AND PUSH1 0x1 PUSH1 0x1 PUSH1 0xA0 SHL SUB DUP11 AND OR DUP2 SSTORE SWAP1 DUP8 PUSH1 0x1 DUP4 ADD SSTORE PUSH1 0x4 DUP3 ADD SSTORE ADD PUSH1 0xFF NOT DUP2 SLOAD AND SWAP1 SSTORE JUMP JUMPDEST DUP2 SLOAD SWAP6 DUP7 PUSH1 0x2 DUP4 ADD DUP1 SLOAD ISZERO PUSH2 0x1440 JUMPI JUMPDEST SLOAD SUB PUSH2 0x13FF JUMPI JUMPDEST POP POP PUSH2 0x1294 JUMP JUMPDEST DUP2 PUSH2 0x141D PUSH2 0x1433 SWAP3 DUP10 PUSH1 0x3 PUSH2 0x1439 SWAP7 ADD SSTORE PUSH1 0x1 PUSH1 0xFF NOT DUP3 SLOAD AND OR SWAP1 SSTORE JUMP JUMPDEST PUSH2 0x1426 DUP6 PUSH2 0x157C JUMP JUMPDEST SLOAD PUSH1 0x1 PUSH1 0x1 PUSH1 0xA0 SHL SUB AND SWAP1 JUMP JUMPDEST DUP4 PUSH2 0x1618 JUMP JUMPDEST CODESIZE DUP1 PUSH2 0x13F8 JUMP JUMPDEST DUP2 DUP2 SSTORE PUSH2 0x13F1 JUMP JUMPDEST PUSH1 0x1 SWAP2 POP PUSH2 0x134D JUMP JUMPDEST POP DUP5 ISZERO PUSH2 0x128F JUMP JUMPDEST SWAP4 POP PUSH2 0x1464 DUP5 PUSH2 0x11D4 JUMP JUMPDEST POP POP PUSH2 0x14AA PUSH1 0x5 PUSH2 0x147E PUSH2 0x1478 DUP8 SLOAD PUSH2 0x1048 JUMP JUMPDEST DUP8 PUSH2 0x1057 JUMP JUMPDEST POP DUP1 SLOAD PUSH1 0x1 PUSH1 0x1 PUSH1 0xA0 SHL SUB NOT AND PUSH1 0x1 PUSH1 0x1 PUSH1 0xA0 SHL SUB DUP8 AND OR DUP2 SSTORE PUSH1 0x0 PUSH1 0x4 DUP3 ADD SSTORE ADD DUP1 SLOAD PUSH1 0xFF NOT AND SWAP1 SSTORE JUMP JUMPDEST PUSH2 0x14CA PUSH2 0x14C4 DUP3 PUSH1 0xFF AND PUSH1 0x0 MSTORE PUSH1 0x8 PUSH1 0x20 MSTORE PUSH1 0x40 PUSH1 0x0 KECCAK256 SWAP1 JUMP JUMPDEST PUSH1 0x1 SWAP1 SSTORE JUMP JUMPDEST DUP4 SLOAD SWAP4 PUSH2 0x1283 JUMP JUMPDEST SWAP1 PUSH1 0xFF AND SWAP1 PUSH1 0x1 DUP3 GT ISZERO PUSH2 0x1569 JUMPI PUSH1 0x1 JUMPDEST PUSH1 0xFF DUP2 AND DUP4 DUP2 LT ISZERO PUSH2 0x1563 JUMPI PUSH1 0xFF SWAP2 PUSH1 0x1 SWAP2 DUP3 DUP1 PUSH1 0xA0 SHL SUB DUP6 AND DUP1 PUSH1 0x0 MSTORE PUSH1 0x6 PUSH1 0x20 MSTORE PUSH1 0x40 DUP1 PUSH1 0x0 KECCAK256 PUSH1 0x0 SWAP1 DUP5 DUP3 MSTORE PUSH1 0x20 MSTORE KECCAK256 DUP1 SLOAD DUP7 DUP2 PUSH1 0x8 SHR AND PUSH2 0x152E JUMPI JUMPDEST POP POP POP POP ADD AND PUSH2 0x14E3 JUMP JUMPDEST PUSH2 0xFF00 NOT AND SWAP1 SSTORE PUSH32 0xB0F7D96751587DE2FBB05AE8BB25971BA7CD777DE717EB3698B701D6C7739654 PUSH1 0x0 DUP1 LOG3 CODESIZE DUP1 DUP1 DUP1 PUSH2 0x1523 JUMP JUMPDEST POP POP POP POP JUMP JUMPDEST POP POP JUMP JUMPDEST PUSH1 0x0 NOT DUP2 EQ PUSH2 0x73A JUMPI PUSH1 0x1 ADD SWAP1 JUMP JUMPDEST PUSH1 0xFF AND DUP1 PUSH1 0x0 MSTORE PUSH1 0x7 PUSH1 0x20 MSTORE PUSH1 0x40 PUSH1 0x0 KECCAK256 SWAP1 DUP1 PUSH1 0x0 MSTORE PUSH1 0x8 PUSH1 0x20 MSTORE PUSH1 0x40 PUSH1 0x0 KECCAK256 SLOAD SWAP2 DUP3 ISZERO PUSH2 0x160F JUMPI JUMPDEST SWAP2 DUP3 SLOAD SWAP1 JUMPDEST DUP2 DUP2 GT ISZERO DUP1 PUSH2 0x15EB JUMPI JUMPDEST ISZERO PUSH2 0x15C7 JUMPI PUSH2 0x15C2 SWAP1 PUSH2 0x156D JUMP JUMPDEST PUSH2 0x15AA JUMP JUMPDEST SWAP2 SWAP3 POP DUP2 GT PUSH2 0x15E2 JUMPI SWAP1 JUMPDEST PUSH1 0x0 MSTORE PUSH1 0x8 PUSH1 0x20 MSTORE PUSH1 0x40 PUSH1 0x0 KECCAK256 SSTORE JUMP JUMPDEST POP PUSH1 0x0 SWAP1 PUSH2 0x15D2 JUMP JUMPDEST POP PUSH1 0x0 NOT DUP2 ADD DUP2 DUP2 GT PUSH2 0x73A JUMPI PUSH1 0x5 PUSH2 0x1606 PUSH1 0xFF SWAP3 DUP8 PUSH2 0x1057 JUMP JUMPDEST POP ADD SLOAD AND PUSH2 0x15B4 JUMP JUMPDEST PUSH1 0x1 SWAP3 POP PUSH2 0x15A5 JUMP JUMPDEST PUSH1 0x1 DUP1 PUSH1 0xA0 SHL SUB DUP3 AND SWAP1 DUP2 PUSH1 0x0 MSTORE PUSH1 0x6 PUSH1 0x20 MSTORE PUSH2 0x1646 DUP2 PUSH1 0x40 PUSH1 0x0 KECCAK256 SWAP1 PUSH1 0xFF AND PUSH1 0x0 MSTORE PUSH1 0x20 MSTORE PUSH1 0x40 PUSH1 0x0 KECCAK256 SWAP1 JUMP JUMPDEST SWAP3 DUP4 SLOAD PUSH1 0xFF DUP2 AND ISZERO SWAP1 DUP2 ISZERO PUSH2 0x16B3 JUMPI JUMPDEST POP PUSH2 0x1563 JUMPI PUSH2 0x1665 SWAP1 DUP3 PUSH2 0x125C JUMP JUMPDEST PUSH32 0xBDE1DD97B8C6B9FB71194209F50387CCCF9EC5CC5C0E9AA18B13C93CF78CE6E8 SWAP2 PUSH2 0x16AE PUSH1 0x1 PUSH1 0xFF SWAP4 SWAP7 ADD SLOAD SWAP6 PUSH1 0x40 MLOAD SWAP4 DUP5 SWAP4 AND SWAP7 DUP4 PUSH1 0x20 SWAP1 SWAP4 SWAP3 SWAP2 SWAP4 PUSH1 0x40 DUP2 ADD SWAP5 DUP2 MSTORE ADD MSTORE JUMP JUMPDEST SUB SWAP1 LOG3 JUMP JUMPDEST PUSH1 0xFF SWAP2 POP PUSH1 0x8 SHR AND CODESIZE PUSH2 0x1656 JUMP JUMPDEST SWAP1 PUSH1 0x1F DUP1 NOT SWAP2 ADD AND DUP2 ADD SWAP1 DUP2 LT PUSH8 0xFFFFFFFFFFFFFFFF DUP3 GT OR PUSH2 0x11FA JUMPI PUSH1 0x40 MSTORE JUMP JUMPDEST PUSH1 0xFF DUP2 AND PUSH1 0x0 SWAP1 DUP2 MSTORE PUSH1 0x7 PUSH1 0x20 MSTORE PUSH1 0x40 DUP2 KECCAK256 SWAP2 SWAP4 SWAP2 SWAP3 SWAP1 SWAP2 PUSH1 0x0 NOT DUP3 ADD SWAP2 DUP5 DUP2 DUP5 GT PUSH2 0x73A JUMPI PUSH1 0x1 PUSH2 0x1715 DUP6 DUP4 PUSH2 0x1057 JUMP JUMPDEST POP ADD SLOAD SWAP1 DUP2 JUMPDEST PUSH2 0x18A6 JUMPI POP POP DUP4 ISZERO PUSH2 0x1890 JUMPI DUP5 SLOAD PUSH1 0x40 MLOAD SWAP2 PUSH1 0x20 DUP4 ADD SWAP4 PREVRANDAO DUP6 MSTORE TIMESTAMP PUSH1 0x40 DUP6 ADD MSTORE PUSH12 0xFFFFFFFFFFFFFFFFFFFFFFFF NOT SWAP1 PUSH1 0x60 SHL AND PUSH1 0x60 DUP5 ADD MSTORE PUSH1 0xFF PUSH1 0xF8 SHL DUP9 PUSH1 0xF8 SHL AND PUSH1 0x74 DUP5 ADD MSTORE PUSH1 0x75 DUP4 ADD MSTORE PUSH1 0x95 DUP3 ADD MSTORE PUSH1 0x95 DUP2 MSTORE PUSH2 0x177B PUSH1 0xB5 DUP3 PUSH2 0x16C1 JUMP JUMPDEST MLOAD SWAP1 KECCAK256 SWAP2 DUP1 PUSH1 0x0 SWAP4 MOD SWAP1 PUSH1 0x1 PUSH2 0x1791 DUP5 DUP8 PUSH2 0x1057 JUMP JUMPDEST POP ADD SLOAD SWAP2 DUP5 SWAP3 JUMPDEST DUP3 DUP5 LT PUSH2 0x1819 JUMPI POP POP POP POP PUSH2 0x17AF PUSH1 0x1 SWAP2 DUP5 PUSH2 0x1057 JUMP JUMPDEST POP ADD SLOAD DUP1 JUMPDEST PUSH2 0x17CC JUMPI POP POP PUSH1 0x1 SLOAD PUSH1 0x1 PUSH1 0x1 PUSH1 0xA0 SHL SUB AND SWAP3 SWAP2 POP POP JUMP JUMPDEST PUSH1 0x0 NOT DUP2 ADD SWAP1 DUP2 GT PUSH2 0xD0E JUMPI PUSH2 0x17E2 DUP2 DUP5 PUSH2 0x1057 JUMP JUMPDEST POP SLOAD PUSH1 0x1 PUSH1 0x1 PUSH1 0xA0 SHL SUB AND PUSH2 0x17F7 DUP6 DUP3 PUSH2 0x1991 JUMP JUMPDEST PUSH2 0x1811 JUMPI POP PUSH2 0x1808 PUSH1 0x1 SWAP2 DUP5 PUSH2 0x1057 JUMP JUMPDEST POP ADD SLOAD DUP1 PUSH2 0x17B4 JUMP JUMPDEST SWAP4 POP POP POP POP SWAP1 JUMP JUMPDEST PUSH1 0x0 NOT DUP2 ADD SWAP1 DUP2 GT PUSH2 0x187C JUMPI PUSH2 0x182F DUP2 DUP9 PUSH2 0x1057 JUMP JUMPDEST POP SLOAD PUSH1 0x1 PUSH1 0x1 PUSH1 0xA0 SHL SUB AND DUP5 DUP4 EQ DUP1 PUSH2 0x186C JUMPI JUMPDEST PUSH2 0x1860 JUMPI POP PUSH1 0x1 PUSH2 0x1855 DUP2 SWAP3 DUP10 PUSH2 0x1057 JUMP JUMPDEST POP ADD SLOAD SWAP4 ADD SWAP3 PUSH2 0x1798 JUMP JUMPDEST SWAP8 POP POP POP POP POP POP POP POP SWAP1 JUMP JUMPDEST POP PUSH2 0x1877 DUP10 DUP3 PUSH2 0x1991 JUMP JUMPDEST PUSH2 0x1843 JUMP JUMPDEST PUSH4 0x4E487B71 PUSH1 0xE0 SHL DUP7 MSTORE PUSH1 0x11 PUSH1 0x4 MSTORE PUSH1 0x24 DUP7 REVERT JUMPDEST POP POP PUSH1 0x1 SLOAD PUSH1 0x1 PUSH1 0x1 PUSH1 0xA0 SHL SUB AND SWAP5 SWAP4 POP POP POP POP JUMP JUMPDEST SWAP1 SWAP5 PUSH2 0x18B1 SWAP1 PUSH2 0x156D JUMP JUMPDEST SWAP5 PUSH1 0x0 NOT DUP2 ADD SWAP1 DUP2 GT PUSH2 0x73A JUMPI PUSH2 0x18CA PUSH1 0x1 SWAP2 DUP4 PUSH2 0x1057 JUMP JUMPDEST POP ADD SLOAD SWAP1 DUP2 PUSH2 0x171B JUMP JUMPDEST DUP2 ISZERO PUSH2 0x1569 JUMPI PUSH1 0x0 SWAP2 DUP3 SWAP2 DUP3 SWAP2 DUP3 SWAP2 PUSH1 0x1 PUSH1 0x1 PUSH1 0xA0 SHL SUB AND GAS CALL RETURNDATASIZE ISZERO PUSH2 0x1969 JUMPI RETURNDATASIZE PUSH8 0xFFFFFFFFFFFFFFFF DUP2 GT PUSH2 0x11FA JUMPI PUSH1 0x40 MLOAD SWAP1 PUSH2 0x191C PUSH1 0x1F DUP3 ADD PUSH1 0x1F NOT AND PUSH1 0x20 ADD DUP4 PUSH2 0x16C1 JUMP JUMPDEST DUP2 MSTORE PUSH1 0x0 PUSH1 0x20 RETURNDATASIZE SWAP3 ADD RETURNDATACOPY JUMPDEST ISZERO PUSH2 0x192E JUMPI JUMP JUMPDEST PUSH1 0x40 MLOAD PUSH3 0x461BCD PUSH1 0xE5 SHL DUP2 MSTORE PUSH1 0x20 PUSH1 0x4 DUP3 ADD MSTORE PUSH1 0x13 PUSH1 0x24 DUP3 ADD MSTORE PUSH19 0x115512081D1C985B9CD9995C8819985A5B1959 PUSH1 0x6A SHL PUSH1 0x44 DUP3 ADD MSTORE PUSH1 0x64 SWAP1 REVERT JUMPDEST PUSH2 0x1927 JUMP JUMPDEST SWAP1 PUSH2 0x1979 SWAP1 DUP3 PUSH2 0x1991 JUMP JUMPDEST ISZERO PUSH2 0x1981 JUMPI SWAP1 JUMP JUMPDEST POP PUSH1 0x1 SLOAD PUSH1 0x1 PUSH1 0x1 PUSH1 0xA0 SHL SUB AND SWAP1 JUMP JUMPDEST PUSH1 0x1 PUSH1 0x1 PUSH1 0xA0 SHL SUB AND DUP1 ISZERO ISZERO SWAP2 SWAP1 DUP3 PUSH2 0x19D9 JUMPI JUMPDEST DUP3 PUSH2 0x19AF JUMPI POP POP SWAP1 JUMP JUMPDEST SWAP1 SWAP2 POP PUSH1 0x0 MSTORE PUSH1 0x6 PUSH1 0x20 MSTORE PUSH1 0xFF PUSH1 0x40 PUSH1 0x0 KECCAK256 SWAP2 AND PUSH1 0x0 MSTORE PUSH1 0x20 MSTORE PUSH1 0xFF PUSH1 0x40 PUSH1 0x0 KECCAK256 SLOAD PUSH1 0x8 SHR AND ISZERO SWAP1 JUMP JUMPDEST DUP1 SWAP3 POP PUSH1 0x0 MSTORE PUSH1 0x6 PUSH1 0x20 MSTORE PUSH1 0x40 PUSH1 0x0 KECCAK256 PUSH1 0xFF DUP3 AND PUSH1 0x0 MSTORE PUSH1 0x20 MSTORE PUSH1 0xFF PUSH1 0x40 PUSH1 0x0 KECCAK256 SLOAD AND SWAP2 PUSH2 0x19A5 JUMP INVALID LOG2 PUSH5 0x6970667358 0x22 SLT KECCAK256 0x4F PUSH25 0x704D9448B56D659E71F96787D2DBEEC33C2EE59EA87824DAE1 SWAP13 0xD 0xD2 0x4E SWAP15 PUSH5 0x736F6C6343 STOP ADDMOD 0x23 STOP CALLER "},"methodIdentifiers":{"LEVEL_COUNT()":"1d6a884b","activateLevel(uint8,address)":"48d46be1","getLevelMatrixStats(uint8)":"b9aee263","getMatrixNode(uint8,uint256)":"4a57c6d9","getPlayer(address)":"5c12cd4b","getPlayerLevel(address,uint8)":"a0978ac2","getPlayerPosition(address,uint8)":"d2a16080","isLevelActive(address,uint8)":"75b7d7c1","isLevelFrozen(address,uint8)":"0e475efd","levelAvailable(uint8)":"52ebb227","levelMatrixSize(uint8)":"c05db4ce","levelPrices(uint8)":"2e50d906","owner()":"8da5cb5b","setLevelAvailable(uint8,bool)":"ed270c16","setLevelPrice(uint8,uint256)":"8eb657c4","setTreasury(address)":"f0f44260","transferOwnership(address)":"f2fde38b","treasury()":"61d027b3"}}}}}