{
  "_format": "hh-sol-artifact-1",
  "contractName": "EasyGameAdvance",
  "sourceName": "contracts/EasyGameAdvance.sol",
  "abi": [
    {
      "inputs": [
        {
          "internalType": "address",
          "name": "projectWallet_",
          "type": "address"
        },
        {
          "internalType": "address",
          "name": "treasuryWallet_",
          "type": "address"
        },
        {
          "internalType": "address",
          "name": "operatorWallet_",
          "type": "address"
        },
        {
          "internalType": "address",
          "name": "usdcToken_",
          "type": "address"
        },
        {
          "internalType": "address",
          "name": "roundManager_",
          "type": "address"
        }
      ],
      "stateMutability": "nonpayable",
      "type": "constructor"
    },
    {
      "inputs": [],
      "name": "IncorrectRoundPayment",
      "type": "error"
    },
    {
      "inputs": [
        {
          "internalType": "uint8",
          "name": "level",
          "type": "uint8"
        }
      ],
      "name": "InvalidLevel",
      "type": "error"
    },
    {
      "inputs": [
        {
          "internalType": "uint256",
          "name": "requested",
          "type": "uint256"
        },
        {
          "internalType": "uint256",
          "name": "maximum",
          "type": "uint256"
        }
      ],
      "name": "InvalidRecycleBatch",
      "type": "error"
    },
    {
      "inputs": [
        {
          "internalType": "uint256",
          "name": "roundId",
          "type": "uint256"
        },
        {
          "internalType": "uint256",
          "name": "cellId",
          "type": "uint256"
        }
      ],
      "name": "InvalidRoundCell",
      "type": "error"
    },
    {
      "inputs": [
        {
          "internalType": "uint8",
          "name": "level",
          "type": "uint8"
        }
      ],
      "name": "LevelEmergencyPaused",
      "type": "error"
    },
    {
      "inputs": [
        {
          "internalType": "uint256",
          "name": "roundId",
          "type": "uint256"
        },
        {
          "internalType": "uint256",
          "name": "pending",
          "type": "uint256"
        }
      ],
      "name": "PendingRoundRecycles",
      "type": "error"
    },
    {
      "inputs": [
        {
          "internalType": "uint256",
          "name": "roundId",
          "type": "uint256"
        },
        {
          "internalType": "uint256",
          "name": "parentCellId",
          "type": "uint256"
        }
      ],
      "name": "RoundParentAlreadyClosed",
      "type": "error"
    },
    {
      "inputs": [
        {
          "internalType": "uint256",
          "name": "roundId",
          "type": "uint256"
        },
        {
          "internalType": "address",
          "name": "player",
          "type": "address"
        }
      ],
      "name": "RoundTicketAlreadyActive",
      "type": "error"
    },
    {
      "inputs": [],
      "name": "RoundUsdcDisabled",
      "type": "error"
    },
    {
      "inputs": [],
      "name": "TokenTransferFailed",
      "type": "error"
    },
    {
      "inputs": [],
      "name": "UsdcTokenLocked",
      "type": "error"
    },
    {
      "inputs": [],
      "name": "ZeroAddress",
      "type": "error"
    },
    {
      "anonymous": false,
      "inputs": [
        {
          "indexed": true,
          "internalType": "address",
          "name": "oldGateway",
          "type": "address"
        },
        {
          "indexed": true,
          "internalType": "address",
          "name": "newGateway",
          "type": "address"
        }
      ],
      "name": "BasePayGatewayChanged",
      "type": "event"
    },
    {
      "anonymous": false,
      "inputs": [
        {
          "indexed": true,
          "internalType": "uint8",
          "name": "level",
          "type": "uint8"
        },
        {
          "indexed": false,
          "internalType": "bool",
          "name": "available",
          "type": "bool"
        }
      ],
      "name": "LevelAvailabilityChanged",
      "type": "event"
    },
    {
      "anonymous": false,
      "inputs": [
        {
          "indexed": true,
          "internalType": "address",
          "name": "previousOwner",
          "type": "address"
        },
        {
          "indexed": true,
          "internalType": "address",
          "name": "newOwner",
          "type": "address"
        }
      ],
      "name": "OwnershipTransferred",
      "type": "event"
    },
    {
      "anonymous": false,
      "inputs": [
        {
          "indexed": true,
          "internalType": "address",
          "name": "wallet",
          "type": "address"
        },
        {
          "indexed": false,
          "internalType": "uint256",
          "name": "amount",
          "type": "uint256"
        }
      ],
      "name": "ProjectFeesWithdrawn",
      "type": "event"
    },
    {
      "anonymous": false,
      "inputs": [
        {
          "indexed": true,
          "internalType": "address",
          "name": "player",
          "type": "address"
        },
        {
          "indexed": false,
          "internalType": "uint256",
          "name": "amount",
          "type": "uint256"
        }
      ],
      "name": "ReferralBonusClaimed",
      "type": "event"
    },
    {
      "anonymous": false,
      "inputs": [
        {
          "indexed": true,
          "internalType": "address",
          "name": "player",
          "type": "address"
        },
        {
          "indexed": true,
          "internalType": "uint256",
          "name": "roundId",
          "type": "uint256"
        },
        {
          "indexed": true,
          "internalType": "uint8",
          "name": "level",
          "type": "uint8"
        },
        {
          "indexed": false,
          "internalType": "uint256",
          "name": "amount",
          "type": "uint256"
        },
        {
          "indexed": false,
          "internalType": "uint256",
          "name": "cellId",
          "type": "uint256"
        },
        {
          "indexed": false,
          "internalType": "bool",
          "name": "paidWithUsdc",
          "type": "bool"
        }
      ],
      "name": "RoundActivated",
      "type": "event"
    },
    {
      "anonymous": false,
      "inputs": [
        {
          "indexed": true,
          "internalType": "address",
          "name": "oldManager",
          "type": "address"
        },
        {
          "indexed": true,
          "internalType": "address",
          "name": "newManager",
          "type": "address"
        }
      ],
      "name": "RoundManagerChanged",
      "type": "event"
    },
    {
      "anonymous": false,
      "inputs": [
        {
          "indexed": true,
          "internalType": "address",
          "name": "player",
          "type": "address"
        },
        {
          "indexed": true,
          "internalType": "uint256",
          "name": "roundId",
          "type": "uint256"
        },
        {
          "indexed": true,
          "internalType": "uint256",
          "name": "cellId",
          "type": "uint256"
        },
        {
          "indexed": false,
          "internalType": "uint256",
          "name": "parentCellId",
          "type": "uint256"
        }
      ],
      "name": "RoundMatrixPlaced",
      "type": "event"
    },
    {
      "anonymous": false,
      "inputs": [
        {
          "indexed": true,
          "internalType": "address",
          "name": "player",
          "type": "address"
        },
        {
          "indexed": true,
          "internalType": "uint256",
          "name": "roundId",
          "type": "uint256"
        },
        {
          "indexed": false,
          "internalType": "uint256",
          "name": "matrixPrizeAmount",
          "type": "uint256"
        },
        {
          "indexed": false,
          "internalType": "uint256",
          "name": "directReferralAmount",
          "type": "uint256"
        },
        {
          "indexed": false,
          "internalType": "uint256",
          "name": "secondLineAmount",
          "type": "uint256"
        },
        {
          "indexed": false,
          "internalType": "uint256",
          "name": "thirdLineAmount",
          "type": "uint256"
        },
        {
          "indexed": false,
          "internalType": "uint256",
          "name": "projectFeeAmount",
          "type": "uint256"
        },
        {
          "indexed": false,
          "internalType": "bool",
          "name": "paidWithUsdc",
          "type": "bool"
        }
      ],
      "name": "RoundPaymentSplit",
      "type": "event"
    },
    {
      "anonymous": false,
      "inputs": [
        {
          "indexed": true,
          "internalType": "uint256",
          "name": "roundId",
          "type": "uint256"
        },
        {
          "indexed": true,
          "internalType": "address",
          "name": "settlement",
          "type": "address"
        },
        {
          "indexed": false,
          "internalType": "uint256",
          "name": "ethAmount",
          "type": "uint256"
        },
        {
          "indexed": false,
          "internalType": "uint256",
          "name": "usdcAmount",
          "type": "uint256"
        }
      ],
      "name": "RoundPoolsReleased",
      "type": "event"
    },
    {
      "anonymous": false,
      "inputs": [
        {
          "indexed": true,
          "internalType": "uint256",
          "name": "roundId",
          "type": "uint256"
        },
        {
          "indexed": false,
          "internalType": "uint256",
          "name": "processed",
          "type": "uint256"
        },
        {
          "indexed": false,
          "internalType": "uint256",
          "name": "remaining",
          "type": "uint256"
        }
      ],
      "name": "RoundRecycleBatchProcessed",
      "type": "event"
    },
    {
      "anonymous": false,
      "inputs": [
        {
          "indexed": true,
          "internalType": "address",
          "name": "player",
          "type": "address"
        },
        {
          "indexed": true,
          "internalType": "uint256",
          "name": "roundId",
          "type": "uint256"
        },
        {
          "indexed": false,
          "internalType": "uint256",
          "name": "cycleCount",
          "type": "uint256"
        },
        {
          "indexed": false,
          "internalType": "uint256",
          "name": "newCellId",
          "type": "uint256"
        }
      ],
      "name": "RoundRecycled",
      "type": "event"
    },
    {
      "anonymous": false,
      "inputs": [
        {
          "indexed": true,
          "internalType": "address",
          "name": "player",
          "type": "address"
        },
        {
          "indexed": true,
          "internalType": "uint256",
          "name": "roundId",
          "type": "uint256"
        },
        {
          "indexed": false,
          "internalType": "uint256",
          "name": "totalWeight",
          "type": "uint256"
        }
      ],
      "name": "RoundWeightUpdated",
      "type": "event"
    },
    {
      "anonymous": false,
      "inputs": [
        {
          "indexed": true,
          "internalType": "address",
          "name": "oldSettlement",
          "type": "address"
        },
        {
          "indexed": true,
          "internalType": "address",
          "name": "newSettlement",
          "type": "address"
        }
      ],
      "name": "SettlementContractChanged",
      "type": "event"
    },
    {
      "anonymous": false,
      "inputs": [
        {
          "indexed": true,
          "internalType": "address",
          "name": "token",
          "type": "address"
        },
        {
          "indexed": true,
          "internalType": "address",
          "name": "wallet",
          "type": "address"
        },
        {
          "indexed": false,
          "internalType": "uint256",
          "name": "amount",
          "type": "uint256"
        }
      ],
      "name": "TokenProjectFeesWithdrawn",
      "type": "event"
    },
    {
      "anonymous": false,
      "inputs": [
        {
          "indexed": true,
          "internalType": "address",
          "name": "player",
          "type": "address"
        },
        {
          "indexed": true,
          "internalType": "address",
          "name": "token",
          "type": "address"
        },
        {
          "indexed": false,
          "internalType": "uint256",
          "name": "amount",
          "type": "uint256"
        }
      ],
      "name": "TokenReferralBonusClaimed",
      "type": "event"
    },
    {
      "anonymous": false,
      "inputs": [
        {
          "indexed": true,
          "internalType": "address",
          "name": "oldToken",
          "type": "address"
        },
        {
          "indexed": true,
          "internalType": "address",
          "name": "newToken",
          "type": "address"
        }
      ],
      "name": "UsdcTokenChanged",
      "type": "event"
    },
    {
      "anonymous": false,
      "inputs": [
        {
          "indexed": false,
          "internalType": "address",
          "name": "projectWallet",
          "type": "address"
        },
        {
          "indexed": false,
          "internalType": "address",
          "name": "treasuryWallet",
          "type": "address"
        },
        {
          "indexed": false,
          "internalType": "address",
          "name": "operatorWallet",
          "type": "address"
        }
      ],
      "name": "WalletsChanged",
      "type": "event"
    },
    {
      "inputs": [],
      "name": "BASE_ACTIVATION_WEIGHT",
      "outputs": [
        {
          "internalType": "uint256",
          "name": "",
          "type": "uint256"
        }
      ],
      "stateMutability": "view",
      "type": "function"
    },
    {
      "inputs": [],
      "name": "BOX_NFT_WEIGHT",
      "outputs": [
        {
          "internalType": "uint256",
          "name": "",
          "type": "uint256"
        }
      ],
      "stateMutability": "view",
      "type": "function"
    },
    {
      "inputs": [],
      "name": "BPS",
      "outputs": [
        {
          "internalType": "uint256",
          "name": "",
          "type": "uint256"
        }
      ],
      "stateMutability": "view",
      "type": "function"
    },
    {
      "inputs": [],
      "name": "DIRECT_REF_BPS",
      "outputs": [
        {
          "internalType": "uint256",
          "name": "",
          "type": "uint256"
        }
      ],
      "stateMutability": "view",
      "type": "function"
    },
    {
      "inputs": [],
      "name": "DIRECT_REF_WEIGHT",
      "outputs": [
        {
          "internalType": "uint256",
          "name": "",
          "type": "uint256"
        }
      ],
      "stateMutability": "view",
      "type": "function"
    },
    {
      "inputs": [],
      "name": "LEVEL_COUNT",
      "outputs": [
        {
          "internalType": "uint8",
          "name": "",
          "type": "uint8"
        }
      ],
      "stateMutability": "view",
      "type": "function"
    },
    {
      "inputs": [],
      "name": "MATRIX_PRIZE_BPS",
      "outputs": [
        {
          "internalType": "uint256",
          "name": "",
          "type": "uint256"
        }
      ],
      "stateMutability": "view",
      "type": "function"
    },
    {
      "inputs": [],
      "name": "MAX_BASE_WEIGHT_PER_LEVEL",
      "outputs": [
        {
          "internalType": "uint256",
          "name": "",
          "type": "uint256"
        }
      ],
      "stateMutability": "view",
      "type": "function"
    },
    {
      "inputs": [],
      "name": "MAX_MATRIX_WEIGHT_PER_LEVEL",
      "outputs": [
        {
          "internalType": "uint256",
          "name": "",
          "type": "uint256"
        }
      ],
      "stateMutability": "view",
      "type": "function"
    },
    {
      "inputs": [],
      "name": "MAX_NFT_WEIGHT_PER_LEVEL",
      "outputs": [
        {
          "internalType": "uint256",
          "name": "",
          "type": "uint256"
        }
      ],
      "stateMutability": "view",
      "type": "function"
    },
    {
      "inputs": [],
      "name": "MAX_RECYCLE_STEPS_PER_TX",
      "outputs": [
        {
          "internalType": "uint8",
          "name": "",
          "type": "uint8"
        }
      ],
      "stateMutability": "view",
      "type": "function"
    },
    {
      "inputs": [],
      "name": "MAX_REFERRAL_WEIGHT_PER_LEVEL",
      "outputs": [
        {
          "internalType": "uint256",
          "name": "",
          "type": "uint256"
        }
      ],
      "stateMutability": "view",
      "type": "function"
    },
    {
      "inputs": [],
      "name": "MAX_TOTAL_WEIGHT_PER_LEVEL",
      "outputs": [
        {
          "internalType": "uint256",
          "name": "",
          "type": "uint256"
        }
      ],
      "stateMutability": "view",
      "type": "function"
    },
    {
      "inputs": [],
      "name": "PROJECT_FEE_BPS",
      "outputs": [
        {
          "internalType": "uint256",
          "name": "",
          "type": "uint256"
        }
      ],
      "stateMutability": "view",
      "type": "function"
    },
    {
      "inputs": [],
      "name": "RECYCLE_MATRIX_WEIGHT",
      "outputs": [
        {
          "internalType": "uint256",
          "name": "",
          "type": "uint256"
        }
      ],
      "stateMutability": "view",
      "type": "function"
    },
    {
      "inputs": [],
      "name": "SECOND_REF_BPS",
      "outputs": [
        {
          "internalType": "uint256",
          "name": "",
          "type": "uint256"
        }
      ],
      "stateMutability": "view",
      "type": "function"
    },
    {
      "inputs": [],
      "name": "SECOND_REF_WEIGHT",
      "outputs": [
        {
          "internalType": "uint256",
          "name": "",
          "type": "uint256"
        }
      ],
      "stateMutability": "view",
      "type": "function"
    },
    {
      "inputs": [],
      "name": "THIRD_REF_BPS",
      "outputs": [
        {
          "internalType": "uint256",
          "name": "",
          "type": "uint256"
        }
      ],
      "stateMutability": "view",
      "type": "function"
    },
    {
      "inputs": [],
      "name": "THIRD_REF_WEIGHT",
      "outputs": [
        {
          "internalType": "uint256",
          "name": "",
          "type": "uint256"
        }
      ],
      "stateMutability": "view",
      "type": "function"
    },
    {
      "inputs": [
        {
          "components": [
            {
              "internalType": "uint256",
              "name": "seasonId",
              "type": "uint256"
            },
            {
              "internalType": "uint256",
              "name": "roundId",
              "type": "uint256"
            },
            {
              "internalType": "uint8",
              "name": "level",
              "type": "uint8"
            },
            {
              "internalType": "uint64",
              "name": "startsAt",
              "type": "uint64"
            },
            {
              "internalType": "uint64",
              "name": "entriesCloseAt",
              "type": "uint64"
            },
            {
              "internalType": "uint64",
              "name": "endsAt",
              "type": "uint64"
            },
            {
              "internalType": "uint64",
              "name": "freezeClosesAt",
              "type": "uint64"
            },
            {
              "internalType": "uint32",
              "name": "maxPlayers",
              "type": "uint32"
            },
            {
              "internalType": "uint16",
              "name": "maxWinners",
              "type": "uint16"
            },
            {
              "internalType": "bytes32",
              "name": "winningCellsRoot",
              "type": "bytes32"
            },
            {
              "internalType": "uint256",
              "name": "ethPrice",
              "type": "uint256"
            },
            {
              "internalType": "uint256",
              "name": "usdcPrice",
              "type": "uint256"
            },
            {
              "internalType": "uint16",
              "name": "freezeLimit",
              "type": "uint16"
            },
            {
              "internalType": "uint16",
              "name": "paymentSplitVersion",
              "type": "uint16"
            }
          ],
          "internalType": "struct RoundConfig",
          "name": "config",
          "type": "tuple"
        },
        {
          "internalType": "bytes",
          "name": "signature",
          "type": "bytes"
        },
        {
          "internalType": "address",
          "name": "inviter",
          "type": "address"
        }
      ],
      "name": "activateRound",
      "outputs": [],
      "stateMutability": "payable",
      "type": "function"
    },
    {
      "inputs": [
        {
          "components": [
            {
              "internalType": "uint256",
              "name": "seasonId",
              "type": "uint256"
            },
            {
              "internalType": "uint256",
              "name": "roundId",
              "type": "uint256"
            },
            {
              "internalType": "uint8",
              "name": "level",
              "type": "uint8"
            },
            {
              "internalType": "uint64",
              "name": "startsAt",
              "type": "uint64"
            },
            {
              "internalType": "uint64",
              "name": "entriesCloseAt",
              "type": "uint64"
            },
            {
              "internalType": "uint64",
              "name": "endsAt",
              "type": "uint64"
            },
            {
              "internalType": "uint64",
              "name": "freezeClosesAt",
              "type": "uint64"
            },
            {
              "internalType": "uint32",
              "name": "maxPlayers",
              "type": "uint32"
            },
            {
              "internalType": "uint16",
              "name": "maxWinners",
              "type": "uint16"
            },
            {
              "internalType": "bytes32",
              "name": "winningCellsRoot",
              "type": "bytes32"
            },
            {
              "internalType": "uint256",
              "name": "ethPrice",
              "type": "uint256"
            },
            {
              "internalType": "uint256",
              "name": "usdcPrice",
              "type": "uint256"
            },
            {
              "internalType": "uint16",
              "name": "freezeLimit",
              "type": "uint16"
            },
            {
              "internalType": "uint16",
              "name": "paymentSplitVersion",
              "type": "uint16"
            }
          ],
          "internalType": "struct RoundConfig",
          "name": "config",
          "type": "tuple"
        },
        {
          "internalType": "bytes",
          "name": "signature",
          "type": "bytes"
        },
        {
          "internalType": "address",
          "name": "player",
          "type": "address"
        },
        {
          "internalType": "address",
          "name": "inviter",
          "type": "address"
        }
      ],
      "name": "activateRoundFromBasePay",
      "outputs": [],
      "stateMutability": "nonpayable",
      "type": "function"
    },
    {
      "inputs": [
        {
          "components": [
            {
              "internalType": "uint256",
              "name": "seasonId",
              "type": "uint256"
            },
            {
              "internalType": "uint256",
              "name": "roundId",
              "type": "uint256"
            },
            {
              "internalType": "uint8",
              "name": "level",
              "type": "uint8"
            },
            {
              "internalType": "uint64",
              "name": "startsAt",
              "type": "uint64"
            },
            {
              "internalType": "uint64",
              "name": "entriesCloseAt",
              "type": "uint64"
            },
            {
              "internalType": "uint64",
              "name": "endsAt",
              "type": "uint64"
            },
            {
              "internalType": "uint64",
              "name": "freezeClosesAt",
              "type": "uint64"
            },
            {
              "internalType": "uint32",
              "name": "maxPlayers",
              "type": "uint32"
            },
            {
              "internalType": "uint16",
              "name": "maxWinners",
              "type": "uint16"
            },
            {
              "internalType": "bytes32",
              "name": "winningCellsRoot",
              "type": "bytes32"
            },
            {
              "internalType": "uint256",
              "name": "ethPrice",
              "type": "uint256"
            },
            {
              "internalType": "uint256",
              "name": "usdcPrice",
              "type": "uint256"
            },
            {
              "internalType": "uint16",
              "name": "freezeLimit",
              "type": "uint16"
            },
            {
              "internalType": "uint16",
              "name": "paymentSplitVersion",
              "type": "uint16"
            }
          ],
          "internalType": "struct RoundConfig",
          "name": "config",
          "type": "tuple"
        },
        {
          "internalType": "bytes",
          "name": "signature",
          "type": "bytes"
        },
        {
          "internalType": "address",
          "name": "inviter",
          "type": "address"
        }
      ],
      "name": "activateRoundWithUSDC",
      "outputs": [],
      "stateMutability": "nonpayable",
      "type": "function"
    },
    {
      "inputs": [],
      "name": "basePayGateway",
      "outputs": [
        {
          "internalType": "address",
          "name": "",
          "type": "address"
        }
      ],
      "stateMutability": "view",
      "type": "function"
    },
    {
      "inputs": [],
      "name": "claimReferralBonus",
      "outputs": [],
      "stateMutability": "nonpayable",
      "type": "function"
    },
    {
      "inputs": [],
      "name": "claimReferralBonusUSDC",
      "outputs": [],
      "stateMutability": "nonpayable",
      "type": "function"
    },
    {
      "inputs": [
        {
          "internalType": "address",
          "name": "",
          "type": "address"
        }
      ],
      "name": "claimableReferralBonusUsdc",
      "outputs": [
        {
          "internalType": "uint256",
          "name": "",
          "type": "uint256"
        }
      ],
      "stateMutability": "view",
      "type": "function"
    },
    {
      "inputs": [
        {
          "internalType": "address",
          "name": "playerAddress",
          "type": "address"
        }
      ],
      "name": "getPlayer",
      "outputs": [
        {
          "components": [
            {
              "internalType": "bool",
              "name": "exists",
              "type": "bool"
            },
            {
              "internalType": "address",
              "name": "wallet",
              "type": "address"
            },
            {
              "internalType": "address",
              "name": "inviter",
              "type": "address"
            },
            {
              "internalType": "address",
              "name": "secondLine",
              "type": "address"
            },
            {
              "internalType": "address",
              "name": "thirdLine",
              "type": "address"
            },
            {
              "internalType": "uint256",
              "name": "totalTickets",
              "type": "uint256"
            },
            {
              "internalType": "uint256",
              "name": "baseWeight",
              "type": "uint256"
            },
            {
              "internalType": "uint256",
              "name": "referralWeight",
              "type": "uint256"
            },
            {
              "internalType": "uint256",
              "name": "matrixWeight",
              "type": "uint256"
            },
            {
              "internalType": "uint256",
              "name": "nftWeight",
              "type": "uint256"
            },
            {
              "internalType": "uint256",
              "name": "totalWeight",
              "type": "uint256"
            },
            {
              "internalType": "uint256",
              "name": "boxTokens",
              "type": "uint256"
            },
            {
              "internalType": "uint256",
              "name": "recycleCount",
              "type": "uint256"
            },
            {
              "internalType": "uint256",
              "name": "claimableReferralBonus",
              "type": "uint256"
            },
            {
              "internalType": "uint256",
              "name": "joinedAt",
              "type": "uint256"
            },
            {
              "internalType": "uint256",
              "name": "lastActiveAt",
              "type": "uint256"
            }
          ],
          "internalType": "struct Player",
          "name": "",
          "type": "tuple"
        }
      ],
      "stateMutability": "view",
      "type": "function"
    },
    {
      "inputs": [
        {
          "internalType": "address",
          "name": "playerAddress",
          "type": "address"
        },
        {
          "internalType": "uint256",
          "name": "roundId",
          "type": "uint256"
        }
      ],
      "name": "getPlayerRound",
      "outputs": [
        {
          "components": [
            {
              "internalType": "bool",
              "name": "active",
              "type": "bool"
            },
            {
              "internalType": "uint8",
              "name": "level",
              "type": "uint8"
            },
            {
              "internalType": "uint256",
              "name": "tickets",
              "type": "uint256"
            },
            {
              "internalType": "uint256",
              "name": "cellId",
              "type": "uint256"
            },
            {
              "internalType": "uint256",
              "name": "parentCellId",
              "type": "uint256"
            },
            {
              "internalType": "uint256",
              "name": "leftChildCellId",
              "type": "uint256"
            },
            {
              "internalType": "uint256",
              "name": "rightChildCellId",
              "type": "uint256"
            },
            {
              "internalType": "uint256",
              "name": "cycleCount",
              "type": "uint256"
            },
            {
              "internalType": "uint256",
              "name": "totalWeight",
              "type": "uint256"
            }
          ],
          "internalType": "struct PlayerRound",
          "name": "",
          "type": "tuple"
        }
      ],
      "stateMutability": "view",
      "type": "function"
    },
    {
      "inputs": [
        {
          "internalType": "uint256",
          "name": "roundId",
          "type": "uint256"
        }
      ],
      "name": "getRoundGameStats",
      "outputs": [
        {
          "internalType": "uint256",
          "name": "prizePoolEth",
          "type": "uint256"
        },
        {
          "internalType": "uint256",
          "name": "prizePoolUsdc",
          "type": "uint256"
        },
        {
          "internalType": "uint256",
          "name": "totalWeight",
          "type": "uint256"
        },
        {
          "internalType": "uint256",
          "name": "activeCells",
          "type": "uint256"
        },
        {
          "internalType": "uint256",
          "name": "nextCell",
          "type": "uint256"
        },
        {
          "internalType": "uint256",
          "name": "nextOpenParent",
          "type": "uint256"
        }
      ],
      "stateMutability": "view",
      "type": "function"
    },
    {
      "inputs": [
        {
          "internalType": "uint256",
          "name": "roundId",
          "type": "uint256"
        },
        {
          "internalType": "uint256",
          "name": "cellId",
          "type": "uint256"
        }
      ],
      "name": "getRoundMatrixNode",
      "outputs": [
        {
          "components": [
            {
              "internalType": "uint256",
              "name": "cellId",
              "type": "uint256"
            },
            {
              "internalType": "address",
              "name": "player",
              "type": "address"
            },
            {
              "internalType": "uint8",
              "name": "level",
              "type": "uint8"
            },
            {
              "internalType": "uint256",
              "name": "parentCellId",
              "type": "uint256"
            },
            {
              "internalType": "uint256",
              "name": "leftChildCellId",
              "type": "uint256"
            },
            {
              "internalType": "uint256",
              "name": "rightChildCellId",
              "type": "uint256"
            },
            {
              "internalType": "bool",
              "name": "closed",
              "type": "bool"
            }
          ],
          "internalType": "struct MatrixNode",
          "name": "",
          "type": "tuple"
        }
      ],
      "stateMutability": "view",
      "type": "function"
    },
    {
      "inputs": [
        {
          "internalType": "uint256",
          "name": "roundId",
          "type": "uint256"
        }
      ],
      "name": "getRoundRecycleQueueState",
      "outputs": [
        {
          "internalType": "uint256",
          "name": "head",
          "type": "uint256"
        },
        {
          "internalType": "uint256",
          "name": "tail",
          "type": "uint256"
        },
        {
          "internalType": "uint256",
          "name": "pending",
          "type": "uint256"
        }
      ],
      "stateMutability": "view",
      "type": "function"
    },
    {
      "inputs": [
        {
          "internalType": "uint256",
          "name": "roundId",
          "type": "uint256"
        }
      ],
      "name": "hasPendingRoundRecycles",
      "outputs": [
        {
          "internalType": "bool",
          "name": "",
          "type": "bool"
        }
      ],
      "stateMutability": "view",
      "type": "function"
    },
    {
      "inputs": [
        {
          "internalType": "uint8",
          "name": "",
          "type": "uint8"
        }
      ],
      "name": "levelAvailable",
      "outputs": [
        {
          "internalType": "bool",
          "name": "",
          "type": "bool"
        }
      ],
      "stateMutability": "view",
      "type": "function"
    },
    {
      "inputs": [],
      "name": "operatorWallet",
      "outputs": [
        {
          "internalType": "address",
          "name": "",
          "type": "address"
        }
      ],
      "stateMutability": "view",
      "type": "function"
    },
    {
      "inputs": [],
      "name": "owner",
      "outputs": [
        {
          "internalType": "address",
          "name": "",
          "type": "address"
        }
      ],
      "stateMutability": "view",
      "type": "function"
    },
    {
      "inputs": [
        {
          "internalType": "address",
          "name": "",
          "type": "address"
        },
        {
          "internalType": "uint256",
          "name": "",
          "type": "uint256"
        }
      ],
      "name": "playerRounds",
      "outputs": [
        {
          "internalType": "bool",
          "name": "active",
          "type": "bool"
        },
        {
          "internalType": "uint8",
          "name": "level",
          "type": "uint8"
        },
        {
          "internalType": "uint256",
          "name": "tickets",
          "type": "uint256"
        },
        {
          "internalType": "uint256",
          "name": "cellId",
          "type": "uint256"
        },
        {
          "internalType": "uint256",
          "name": "parentCellId",
          "type": "uint256"
        },
        {
          "internalType": "uint256",
          "name": "leftChildCellId",
          "type": "uint256"
        },
        {
          "internalType": "uint256",
          "name": "rightChildCellId",
          "type": "uint256"
        },
        {
          "internalType": "uint256",
          "name": "cycleCount",
          "type": "uint256"
        },
        {
          "internalType": "uint256",
          "name": "totalWeight",
          "type": "uint256"
        }
      ],
      "stateMutability": "view",
      "type": "function"
    },
    {
      "inputs": [
        {
          "internalType": "address",
          "name": "",
          "type": "address"
        }
      ],
      "name": "players",
      "outputs": [
        {
          "internalType": "bool",
          "name": "exists",
          "type": "bool"
        },
        {
          "internalType": "address",
          "name": "wallet",
          "type": "address"
        },
        {
          "internalType": "address",
          "name": "inviter",
          "type": "address"
        },
        {
          "internalType": "address",
          "name": "secondLine",
          "type": "address"
        },
        {
          "internalType": "address",
          "name": "thirdLine",
          "type": "address"
        },
        {
          "internalType": "uint256",
          "name": "totalTickets",
          "type": "uint256"
        },
        {
          "internalType": "uint256",
          "name": "baseWeight",
          "type": "uint256"
        },
        {
          "internalType": "uint256",
          "name": "referralWeight",
          "type": "uint256"
        },
        {
          "internalType": "uint256",
          "name": "matrixWeight",
          "type": "uint256"
        },
        {
          "internalType": "uint256",
          "name": "nftWeight",
          "type": "uint256"
        },
        {
          "internalType": "uint256",
          "name": "totalWeight",
          "type": "uint256"
        },
        {
          "internalType": "uint256",
          "name": "boxTokens",
          "type": "uint256"
        },
        {
          "internalType": "uint256",
          "name": "recycleCount",
          "type": "uint256"
        },
        {
          "internalType": "uint256",
          "name": "claimableReferralBonus",
          "type": "uint256"
        },
        {
          "internalType": "uint256",
          "name": "joinedAt",
          "type": "uint256"
        },
        {
          "internalType": "uint256",
          "name": "lastActiveAt",
          "type": "uint256"
        }
      ],
      "stateMutability": "view",
      "type": "function"
    },
    {
      "inputs": [
        {
          "internalType": "uint256",
          "name": "roundId",
          "type": "uint256"
        },
        {
          "internalType": "uint256",
          "name": "maxSteps",
          "type": "uint256"
        }
      ],
      "name": "processRoundRecycles",
      "outputs": [
        {
          "internalType": "uint256",
          "name": "processed",
          "type": "uint256"
        },
        {
          "internalType": "uint256",
          "name": "remaining",
          "type": "uint256"
        }
      ],
      "stateMutability": "nonpayable",
      "type": "function"
    },
    {
      "inputs": [],
      "name": "projectFeesAccrued",
      "outputs": [
        {
          "internalType": "uint256",
          "name": "",
          "type": "uint256"
        }
      ],
      "stateMutability": "view",
      "type": "function"
    },
    {
      "inputs": [],
      "name": "projectFeesAccruedUsdc",
      "outputs": [
        {
          "internalType": "uint256",
          "name": "",
          "type": "uint256"
        }
      ],
      "stateMutability": "view",
      "type": "function"
    },
    {
      "inputs": [],
      "name": "projectWallet",
      "outputs": [
        {
          "internalType": "address",
          "name": "",
          "type": "address"
        }
      ],
      "stateMutability": "view",
      "type": "function"
    },
    {
      "inputs": [
        {
          "internalType": "uint256",
          "name": "roundId",
          "type": "uint256"
        }
      ],
      "name": "releaseRoundPools",
      "outputs": [
        {
          "internalType": "uint256",
          "name": "ethAmount",
          "type": "uint256"
        },
        {
          "internalType": "uint256",
          "name": "usdcAmount",
          "type": "uint256"
        }
      ],
      "stateMutability": "nonpayable",
      "type": "function"
    },
    {
      "inputs": [
        {
          "internalType": "uint256",
          "name": "",
          "type": "uint256"
        }
      ],
      "name": "roundActiveCells",
      "outputs": [
        {
          "internalType": "uint256",
          "name": "",
          "type": "uint256"
        }
      ],
      "stateMutability": "view",
      "type": "function"
    },
    {
      "inputs": [],
      "name": "roundManager",
      "outputs": [
        {
          "internalType": "address",
          "name": "",
          "type": "address"
        }
      ],
      "stateMutability": "view",
      "type": "function"
    },
    {
      "inputs": [
        {
          "internalType": "uint256",
          "name": "",
          "type": "uint256"
        },
        {
          "internalType": "uint256",
          "name": "",
          "type": "uint256"
        }
      ],
      "name": "roundMatrixNodes",
      "outputs": [
        {
          "internalType": "uint256",
          "name": "cellId",
          "type": "uint256"
        },
        {
          "internalType": "address",
          "name": "player",
          "type": "address"
        },
        {
          "internalType": "uint8",
          "name": "level",
          "type": "uint8"
        },
        {
          "internalType": "uint256",
          "name": "parentCellId",
          "type": "uint256"
        },
        {
          "internalType": "uint256",
          "name": "leftChildCellId",
          "type": "uint256"
        },
        {
          "internalType": "uint256",
          "name": "rightChildCellId",
          "type": "uint256"
        },
        {
          "internalType": "bool",
          "name": "closed",
          "type": "bool"
        }
      ],
      "stateMutability": "view",
      "type": "function"
    },
    {
      "inputs": [
        {
          "internalType": "uint256",
          "name": "",
          "type": "uint256"
        }
      ],
      "name": "roundNextCellId",
      "outputs": [
        {
          "internalType": "uint256",
          "name": "",
          "type": "uint256"
        }
      ],
      "stateMutability": "view",
      "type": "function"
    },
    {
      "inputs": [
        {
          "internalType": "uint256",
          "name": "",
          "type": "uint256"
        }
      ],
      "name": "roundNextOpenParentCellId",
      "outputs": [
        {
          "internalType": "uint256",
          "name": "",
          "type": "uint256"
        }
      ],
      "stateMutability": "view",
      "type": "function"
    },
    {
      "inputs": [
        {
          "internalType": "uint256",
          "name": "",
          "type": "uint256"
        }
      ],
      "name": "roundPrizePools",
      "outputs": [
        {
          "internalType": "uint256",
          "name": "",
          "type": "uint256"
        }
      ],
      "stateMutability": "view",
      "type": "function"
    },
    {
      "inputs": [
        {
          "internalType": "uint256",
          "name": "",
          "type": "uint256"
        }
      ],
      "name": "roundPrizePoolsUsdc",
      "outputs": [
        {
          "internalType": "uint256",
          "name": "",
          "type": "uint256"
        }
      ],
      "stateMutability": "view",
      "type": "function"
    },
    {
      "inputs": [
        {
          "internalType": "uint256",
          "name": "",
          "type": "uint256"
        }
      ],
      "name": "roundTotalWeight",
      "outputs": [
        {
          "internalType": "uint256",
          "name": "",
          "type": "uint256"
        }
      ],
      "stateMutability": "view",
      "type": "function"
    },
    {
      "inputs": [
        {
          "internalType": "address",
          "name": "newGateway",
          "type": "address"
        }
      ],
      "name": "setBasePayGateway",
      "outputs": [],
      "stateMutability": "nonpayable",
      "type": "function"
    },
    {
      "inputs": [
        {
          "internalType": "uint8",
          "name": "level",
          "type": "uint8"
        },
        {
          "internalType": "bool",
          "name": "available",
          "type": "bool"
        }
      ],
      "name": "setLevelAvailable",
      "outputs": [],
      "stateMutability": "nonpayable",
      "type": "function"
    },
    {
      "inputs": [
        {
          "internalType": "address",
          "name": "newManager",
          "type": "address"
        }
      ],
      "name": "setRoundManager",
      "outputs": [],
      "stateMutability": "nonpayable",
      "type": "function"
    },
    {
      "inputs": [
        {
          "internalType": "address",
          "name": "newSettlement",
          "type": "address"
        }
      ],
      "name": "setSettlementContract",
      "outputs": [],
      "stateMutability": "nonpayable",
      "type": "function"
    },
    {
      "inputs": [
        {
          "internalType": "address",
          "name": "",
          "type": "address"
        }
      ],
      "name": "setUsdcToken",
      "outputs": [],
      "stateMutability": "view",
      "type": "function"
    },
    {
      "inputs": [
        {
          "internalType": "address",
          "name": "newProjectWallet",
          "type": "address"
        },
        {
          "internalType": "address",
          "name": "newTreasuryWallet",
          "type": "address"
        },
        {
          "internalType": "address",
          "name": "newOperatorWallet",
          "type": "address"
        }
      ],
      "name": "setWallets",
      "outputs": [],
      "stateMutability": "nonpayable",
      "type": "function"
    },
    {
      "inputs": [],
      "name": "settlementContract",
      "outputs": [
        {
          "internalType": "address",
          "name": "",
          "type": "address"
        }
      ],
      "stateMutability": "view",
      "type": "function"
    },
    {
      "inputs": [
        {
          "internalType": "address",
          "name": "newOwner",
          "type": "address"
        }
      ],
      "name": "transferOwnership",
      "outputs": [],
      "stateMutability": "nonpayable",
      "type": "function"
    },
    {
      "inputs": [],
      "name": "treasuryWallet",
      "outputs": [
        {
          "internalType": "address",
          "name": "",
          "type": "address"
        }
      ],
      "stateMutability": "view",
      "type": "function"
    },
    {
      "inputs": [],
      "name": "usdcToken",
      "outputs": [
        {
          "internalType": "contract IERC20Minimal",
          "name": "",
          "type": "address"
        }
      ],
      "stateMutability": "view",
      "type": "function"
    },
    {
      "inputs": [],
      "name": "withdrawProjectFees",
      "outputs": [],
      "stateMutability": "nonpayable",
      "type": "function"
    },
    {
      "inputs": [],
      "name": "withdrawProjectFeesUSDC",
      "outputs": [],
      "stateMutability": "nonpayable",
      "type": "function"
    }
  ],
  "bytecode": "0x6080346200019c57601f6200413e38819003918201601f1916830191906001600160401b03831184841017620001a1578160a092859260409586528339810103126200019c576200005082620001b7565b60206200006060208501620001b7565b906200006e848601620001b7565b906200008b60806200008360608901620001b7565b9701620001b7565b60016019819055946001600160a01b039081169485156200018b5781169384156200018b5781169788156200018b5781169182156200018b57169081156200017a579091929660018060a01b031997600095338a88541617875589885416178755886002541617600255876003541617600355866007541617600755600495600454161760045582805b6200012a575b8451613f719081620001cd8239f35b60ff8116601181116200017357835260088252848320805460ff19168517905560ff908116908114620001605783018362000115565b634e487b7160e01b835260118652602483fd5b506200011b565b865163d92e233d60e01b8152600490fd5b875163d92e233d60e01b8152600490fd5b600080fd5b634e487b7160e01b600052604160045260246000fd5b51906001600160a01b03821682036200019c5756fe608080604052600436101561001357600080fd5b60003560e01c90816311eac85514612dea5750806313306da214612d7257806319a0859414612d545780631a1478c3146108645780631d6a884b14612d385780631e375ab914612c73578063249d39e914612c5657806326728174146111ab5780632768a49f14612bb057806328db6c74146125705780632f5ced0414610345578063306bf6bb1461248b578063308c61091461246e57806334601b8914611f525780633719fd0514611eda57806337a8af5014611eae5780633945dbde14611e855780634626402b14611e5c5780634f51f13814611de25780635042a91f14611dc557806350da23dc1461031757806351b7b69e14611d9957806352ebb22714611d6057806354feadc914611cd65780635c12cd4b14611a915780635d886f2214611a505780636793c2cd146119ce57806372d686bf146119b157806375cb1bd1146118365780637a7c7a6a1461176e5780637a966fa2146117375780637c58894d1461123c5780637f3255a81461121f578063852f8299146112025780638ce3d8c8146111d95780638da5cb5b146111b057806390f7c71a146111ab5780639fef68621461118f578063a03d82ec14610fac578063ab4847b414610e6f578063b146326a1461099c578063b70258be14610970578063b93703ef14610944578063beb08ab91461091b578063c236d48f146108ef578063c2c0c9f5146108a3578063c7fcb8c314610869578063c8f17ce314610864578063e26f7c4614610846578063e2eb41ff14610736578063e78a6451146105f5578063e9212a0f146105d9578063ea42418b146105b0578063ed270c16146104f6578063edfae8831461040f578063f178fb1b146103f3578063f2fde38b1461034a578063f6d5f69a14610345578063f90ef4ac1461031c578063f933513914610317578063f943cbc6146102fa5763fa267c47146102c957600080fd5b346102f55760203660031901126102f557600435600052600f6020526020604060002054604051908152f35b600080fd5b346102f55760003660031901126102f55760206040516103e88152f35b612ef8565b346102f55760003660031901126102f5576003546040516001600160a01b039091168152602090f35b612e8a565b346102f55760203660031901126102f557610363612e0e565b600054906001600160a01b038083169161037e338414612f49565b169182156103bd576001600160a01b031916821760009081557f8be0079c531659141344cd1fd0a4f28419497f9722a3daafe3b4186f6b6457e09080a3005b60405162461bcd60e51b815260206004820152600e60248201526d13dddb995c881c995c5d5a5c995960921b6044820152606490fd5b346102f55760003660031901126102f5576020604051600a8152f35b346102f55760003660031901126102f55761042e600160195414612f82565b600260195533600052601860205260406000205480156104b8576007546001600160a01b0390610461908216151561306f565b33600052601860205260006040812055610480823383600754166131e9565b60075416906040519081527f6212d3b8329f12cd207169548d7570de1a41c72473a7313c176c13641c39aab760203392a36001601955005b60405162461bcd60e51b81526020600482015260166024820152754e6f205553444320726566657272616c20626f6e757360501b6044820152606490fd5b346102f55760403660031901126102f55761050f612f15565b602435908115158092036102f55760ff9061053560018060a01b03600054163314612f49565b16906001821080156105a6575b61058d5760207fdd552374405792741cb7e6993ca7e6dd5400b9e45e80ca256ac09db4009c8937918360005260088252604060002060ff1981541660ff8316179055604051908152a2005b604051633d98c85560e21b815260048101839052602490fd5b5060118211610542565b346102f55760003660031901126102f5576005546040516001600160a01b039091168152602090f35b346102f55760003660031901126102f557602060405160048152f35b346102f55760403660031901126102f557610120610611612e0e565b6040519061061e82612ff6565b6000825260006020830152600060408301526000606083015260006080830152600060a0830152600060c0830152600060e083015260006101008093015260018060a01b0316600052600a602052604060002060243560005260205260406000209060405161068c81612ff6565b82549260ff841615159384835260ff602084019160081c1681526001820154604084019081526002830154606085019081526003840154906080860191825260048501549260a0870193845260ff60058701549560c0890196875289600760068a01549960e08c019a8b52015499019889526040519a8b52511660208a01525160408901525160608801525160808701525160a08601525160c08501525160e08401525190820152f35b346102f55760203660031901126102f5576001600160a01b03610757612e0e565b16600052600960205260406000208054600160a01b6001900360018301541691600160a01b60019003600282015416600160a01b600190036003830154166004830154600584015460068501546007860154600887015491600988015493600a89015495600b8a015497600c8b015499600d8c01549b600e01549c6040519e8f9160ff811615158352600160a01b600190039060081c16602083015260408201526060015260808d015260a08c015260c08b015260e08a01526101008901526101208801526101408701526101608601526101808501526101a08401526101c08301526101e082015261020090f35b346102f55760003660031901126102f5576020601754604051908152f35b612e24565b346102f55760203660031901126102f5576001600160a01b0361088a612e0e565b1660005260186020526020604060002054604051908152f35b346102f55760203660031901126102f5576004356000526014602052606060406000205460156020526040600020546108dc82826130cf565b9060405192835260208301526040820152f35b346102f55760203660031901126102f557600435600052600c6020526020604060002054604051908152f35b346102f55760003660031901126102f5576001546040516001600160a01b039091168152602090f35b346102f55760203660031901126102f557600435600052600e6020526020604060002054604051908152f35b346102f55760203660031901126102f557600435600052600d6020526020604060002054604051908152f35b346102f5576109aa36612f33565b6109b8600160195414612f82565b600260195580158015610e65575b610e465760048054604051636fd0763b60e11b81529182018490526001600160a01b031690602081602481855afa908115610d9557600091610e17575b5060088110159081610df35760028114918215610e09575b8215610de2575b505015610da157604051809163cba0b84160e01b82528460048301528160246101c09485935afa918215610d9557600092610c5c575b5050604060ff910151169060008360005260146020526040600020549160156020526040600020545b831080610c53575b15610be35784600052610aea6013928360205260406000208560005260205260018060a01b036040600020541693876000526020526040600020610acc8661329c565b95600052602052604060002060018060a01b0319815416905561329c565b9180600052600a60205260406000208660005260205260406000209060ff825416610b26575b5050846000526015602052604060002054610a81565b6006820154600181018111610bcd576001016006830155806000526009602052600b6040600020018054600181018111610bcd576001019055806000526009602052600a6040600020018054600181018111610bcd578893600080516020613efc833981519152926001604093019055610ba085856138d0565b610baa8585613978565b6006610bb7858b8861352b565b9101549082519182526020820152a38580610b10565b634e487b7160e01b600052601160045260246000fd5b508360409281600052601460205283600020556015602052610c13836000205460146020528460002054906130cf565b907f0b273906422b7b2a8769cc17c72a6270f3ac34095be5d3735eb91c7922fa40a1848051858152846020820152a2600160195582519182526020820152f35b50808210610a89565b8181809394503d8311610d8e575b610c748183613012565b810103126102f5576040519081016001600160401b03811182821017610d78576040528151815260208201516020820152604082015160ff811681036102f5576040820152610cc5606083016130dc565b6060820152610cd6608083016130dc565b6080820152610ce760a083016130dc565b60a0820152610cf860c083016130dc565b60c082015260e08201519063ffffffff821682036102f55760ff9260409260e0830152610100610d298183016130f0565b90830152610120808201519083015261014080820151908301526101608082015190830152610180610d5c8183016130f0565b90830152610d6e6101a08092016130f0565b9082015291610a58565b634e487b7160e01b600052604160045260246000fd5b503d610c6a565b6040513d6000823e3d90fd5b60405162461bcd60e51b8152602060048201526019602482015278526f756e642072656379636c6520756e617661696c61626c6560381b6044820152606490fd5b909150610df3576004148480610a22565b634e487b7160e01b600052602160045260246000fd5b506003811491506000610a1b565b610e39915060203d602011610e3f575b610e318183613012565b8101906130b7565b84610a03565b503d610e27565b60449060405190631084348b60e31b8252600482015260406024820152fd5b50604081116109c6565b346102f557610e7d36612f33565b60405190610e8a82612fdb565b60008252600060c060209382858201528260408201528260608201528260808201528260a0820152015280158015610f95575b610f775760e092600052600b82526040600020906000528152604060002060405190610ee882612fdb565b805492838352600182015460ff60018060a01b039183860193838216855282604088019260a01c168252600286015493606088019485526003870154956080890196875260c085600560048b01549a60a08d019b8c5201541699019815158952604051998a52511690880152511660408601525160608501525160808401525160a083015251151560c0820152f35b8260449160405191631f06e1dd60e31b835260048301526024820152fd5b5082600052600c8252604060002054811015610ebd565b346102f5576020806003193601126102f557600435610fcf600160195414612f82565b60026019556005546001600160a01b03908116330361115857602483826004541660405192838092636fd0763b60e11b82528760048301525afa908115610d955760009161113b575b506008811015610df35760040361110157816000526015835261104a60406000205460148552604060002054906130cf565b92836110e35760409350826000526010815283600020549260118252846000205492601083526000868120556011835260008681205561108e8582600554166130ff565b6110a28482600754168360055416906131e9565b60055416907ff5dce8d14677f13040c40d084c873acb3bb2ff01d06a60cf69b3e81fcc1e35eb8680518781528686820152a360016019558351928352820152f35b60448385604051916304ef50cb60e41b835260048301526024820152fd5b60405162461bcd60e51b8152600481018490526012602482015271526f756e64206973206e6f7420726561647960701b6044820152606490fd5b6111529150843d8611610e3f57610e318183613012565b84611018565b60405162461bcd60e51b815260048101849052600f60248201526e13db9b1e481cd95d1d1b195b595b9d608a1b6044820152606490fd5b346102f55760003660031901126102f557602060405160198152f35b612e41565b346102f55760003660031901126102f5576000546040516001600160a01b039091168152602090f35b346102f55760003660031901126102f5576006546040516001600160a01b039091168152602090f35b346102f55760003660031901126102f55760206040516102588152f35b346102f55760003660031901126102f55760206040516101908152f35b61124536612ea6565b600193926112568560195414612f82565b6002601955610140840135341480159061172a575b6117185733600052600960205260406000209160ff8354166000146117125750818501546001600160a01b0316905b6001600160a01b0382163381149081156116eb575b506116e2575b600480546040805163149374fd60e21b8152883593810193909352602088013560248401528701959192906001600160a01b031660ff6112f488612f25565b166044850152611306606089016131ab565b6001600160401b0390811660648601528061132360808b016131ab565b1660848601528061133660a08b016131ab565b1660a486015261134860c08a016131ab565b1660c485015260e088013563ffffffff81168091036102f5576000859384602096819460e48301528c6113d06101a061138461010084016131bf565b9261ffff809416610104870152610120810135610124870152610140810135610144870152610160810135610164870152836113c361018083016131bf565b16610184870152016131bf565b166101a48301526102206101c4830152806102248301528061024493848401378181018301849052336101e48301526001600160a01b038a16610204830152601f01601f191681010301925af18015610d95576116b7575b5060ff611434846131ce565b16600052600860205260ff604060002054161561169457611456903383613443565b33600052600a602052604060002060208401356000526020526040600020805460ff811661167257859182809261ff0061148f886131ce565b60081b169061ffff191617178155015560048101805490858201809211610bcd5755600e4291015560ff6114fe6114d3336114c9856131ce565b602087013561352b565b926114e26020860135336137d7565b6114f86114ee826131ce565b60208701356132ab565b506131ce565b1690604051906101408401358252602082015260006040820152602083013590600080516020613f1c83398151915260603392a4611d7e8034029134159134840414821715610bcd57612710809304926103b68034029034820414841715610bcd57819004906102588034029034820414851715610bcd57819004906101909485340295348704141715610bcd5760209404906115ac826115a7836115a7876115a78c346130cf565b6130cf565b92858501356000526010865260406000206115c88882546131dc565b905533600052600986526116278360406000206115f48460018060a01b038d840154168b8b0135613c07565b60028101546116119086906001600160a01b03168a8c0135613cc7565b600301546001600160a01b031687890135613d6d565b611633846016546131dc565b60165560405196875285870152604086015260608501526080840152600060a0840152013590600080516020613edc83398151915260c03392a3601955005b60405163c45f473d60e01b815260208601356004820152336024820152604490fd5b602461169f846131ce565b60ff60405191634a525d1b60e01b8352166004820152fd5b602090813d83116116db575b6116cd8183613012565b810103126102f55785611428565b503d6116c3565b600091506112b5565b8015159150816116fd575b50876112af565b905060005260ff6040600020541615876116f6565b9061129a565b6040516335f3c2a160e21b8152600490fd5b506101408401351561126b565b346102f55760203660031901126102f557600435600052601460205260206040600020546015825260406000205411604051908152f35b346102f55760003660031901126102f5576000546001600160a01b03906117989082163314612f49565b6117a6600160195414612f82565b60026019556016549081156117ff5760207f95334f2d4e98187a454807e6ec3da804af4da5c99357a7398e2cf2505ac882189160006016556117ec8482600154166130ff565b6001541692604051908152a26001601955005b60405162461bcd60e51b815260206004820152600f60248201526e4e6f2070726f6a656374206665657360881b6044820152606490fd5b346102f55760603660031901126102f55761184f612e0e565b6024356001600160a01b03818116918290036102f557604435928184168094036102f55761188282600054163314612f49565b1680156119725781156119325782156118f257826060927fd2d452a5df03f60ff9bf0ef1fc3498af992b0b6165c03b2f792cf596ee96530a9460018060a01b03198481600154161760015582816002541617600255600354161760035560405192835260208301526040820152a1005b60405162461bcd60e51b815260206004820152601860248201527713dc195c985d1bdc881dd85b1b195d081c995c5d5a5c995960421b6044820152606490fd5b60405162461bcd60e51b8152602060048201526018602482015277151c99585cdd5c9e481dd85b1b195d081c995c5d5a5c995960421b6044820152606490fd5b60405162461bcd60e51b8152602060048201526017602482015276141c9bda9958dd081dd85b1b195d081c995c5d5a5c9959604a1b6044820152606490fd5b346102f55760003660031901126102f5576020604051611d7e8152f35b346102f5576119dc36612f33565b90600052600b60205260406000209060005260205260e06040600020805490600181015490600281015460038201549060ff8060056004860154950154169460405196875260018060a01b038116602088015260a01c1660408601526060850152608084015260a0830152151560c0820152f35b346102f55760203660031901126102f557611a69612e0e565b50611a7f60018060a01b03600054163314612f49565b60405163c4f64db560e01b8152600490fd5b346102f55760203660031901126102f557611aaa612e0e565b60006101e0604051611abb81612fbf565b8281528260208201528260408201528260608201528260808201528260a08201528260c08201528260e08201528261010082015282610120820152826101408201528261016082015282610180820152826101a0820152826101c0820152015260018060a01b0316600052600960205261020060406000206101e0604051611b4281612fbf565b600e83549360ff85161515835260018060a01b038560081c16602084015260018060a01b03600182015416604084015260018060a01b03600282015416606084015260018060a01b036003820154166080840152600481015460a0840152600581015460c0840152600681015460e0840152600781015461010084015260088101546101208401526009810154610140840152600a810154610160840152600b810154610180840152600c8101546101a0840152600d8101546101c084015201548282015260ff60405193161515835260018060a01b03602082015116602084015260018060a01b03604082015116604084015260018060a01b03606082015116606084015260018060a01b03608082015116608084015260a081015160a084015260c081015160c084015260e081015160e08401526101008101516101008401526101208101516101208401526101408101516101408401526101608101516101608401526101808101516101808401526101a08101516101a08401526101c08101516101c084015201516101e0820152f35b346102f55760203660031901126102f557611cef612e0e565b6000546001600160a01b03918291611d0a9083163314612f49565b16908115611d4e57600680546001600160a01b031981168417909155167ffc16b6f7bdf55fb5a2a42edf5c9522543886143cef3f5580a1b008dbfa4a231f600080a3005b60405163d92e233d60e01b8152600490fd5b346102f55760203660031901126102f55760ff611d7b612f15565b166000526008602052602060ff604060002054166040519015158152f35b346102f55760203660031901126102f55760043560005260106020526020604060002054604051908152f35b346102f55760003660031901126102f55760206040516113888152f35b346102f5576020806003193601126102f55760c090600435600052601081526040600020549060118152604060002054600f8252604060002054600e835260406000205490600c845260406000205492600d85526040600020549460405196875286015260408501526060840152608083015260a0820152f35b346102f55760003660031901126102f5576002546040516001600160a01b039091168152602090f35b346102f55760003660031901126102f5576004546040516001600160a01b039091168152602090f35b346102f55760203660031901126102f55760043560005260116020526020604060002054604051908152f35b346102f55760203660031901126102f557611ef3612e0e565b6000546001600160a01b03918291611f0e9083163314612f49565b16908115611d4e57600580546001600160a01b031981168417909155167fae0b527aec7be2a921fb601477f42ce68cfc9122d8c176909c55cd756e30dfd8600080a3005b346102f557611f6036612ea6565b6001939192611f728560195414612f82565b60026019556101608301351561245c576007546040516323b872dd60e01b81529060209082906001600160a01b031681600081611fb96101608b013530336004850161304d565b03925af1908115610d955760009161242d575b501561241b5733600052600960205260406000209160ff8354166000146124155750818501546001600160a01b0316905b6001600160a01b0382163381149081156123ee575b506123e5575b60018060a01b0360045416946040519163149374fd60e21b83528535600484015260208601359687602485015260ff61205360408901612f25565b166044850152612065606088016131ab565b6001600160401b0390811660648601528061208260808a016131ab565b1660848601528061209560a08a016131ab565b1660a48601526120a760c089016131ab565b1660c485015260e087013563ffffffff811681036102f557600085938460209663ffffffff82951660e48301528b6120e86101a061138461010084016131bf565b166101a48301526102206101c4830152806102248301528061024493848401378181018301849052336101e48301526001600160a01b038a16610204830152601f01601f191681010301925af18015610d95576123ba575b5060ff61214f604085016131ce565b16600052600860205260ff60406000205416156123ac57612171903383613443565b33600052600a6020526040600020836000526020526040600020805460ff811661238d57859182809261ff006121a9604089016131ce565b60081b169061ffff191617178155015560048101805490858201809211610bcd5755600e429101556121e7336121e1604084016131ce565b8461352b565b6121f183336137d7565b612206612200604084016131ce565b846132ab565b508260ff612216604085016131ce565b16916040519061016085013582526020820152856040820152600080516020613f1c83398151915260603392a4610160810135611d7e81029190611d7d1990830401610bcd5761271091829004916101608201356103b68102906103b51990820401610bcd57819004916101608101356102588102906102571990820401610bcd57829004906101608101356101908102919061018f1990830401610bcd576115a7836115a7876115a78a610160996122d49804998a9701356130cf565b9285600052601160205260406000206122ee8682546131dc565b90553360005260096020526123458360406000206123188460018060a01b038c840154168b613b92565b60028101546123329086906001600160a01b03168b613c72565b600301546001600160a01b031688613d18565b612351846017546131dc565b60175560405194855260208501526040840152606083015260808201528260a0820152600080516020613edc83398151915260c03392a3601955005b60405163c45f473d60e01b815260048101869052336024820152604490fd5b602461169f604085016131ce565b602090813d83116123de575b6123d08183613012565b810103126102f55785612140565b503d6123c6565b60009150612018565b801515915081612400575b5087612012565b905060005260ff6040600020541615876123f9565b90611ffd565b60405163022e258160e11b8152600490fd5b61244f915060203d602011612455575b6124478183613012565b810190613035565b86611fcc565b503d61243d565b6040516304c1050d60e01b8152600490fd5b346102f55760003660031901126102f55760206040516103b68152f35b346102f55760003660031901126102f5576000546001600160a01b03906124b59082163314612f49565b6124c3600160195414612f82565b60026019558060075416906124d982151561306f565b60175491821561253457826124f89160006017558360015416906131e9565b7f6f09a29fa95e6ca2c4c5b55c121d7269faf4d531e64e23d432f03e95bb6caa4760208260075416926001541693604051908152a36001601955005b60405162461bcd60e51b81526020600482015260146024820152734e6f20555344432070726f6a656374206665657360601b6044820152606490fd5b346102f557366003190161022081126102f5576101c0136102f5576101c4356001600160401b0381116102f5576125ab903690600401612e5d565b6101e4356001600160a01b03811690036102f557610204356001600160a01b03811690036102f5576125e1600160195414612f82565b60026019556006546001600160a01b03163303612b73576101e4356001600160a01b031615611d4e57610164351561245c576007546040516323b872dd60e01b81529060209082906001600160a01b0316816000816126486101643530336004850161304d565b03925af1908115610d9557600091612b54575b501561241b576101e4356001600160a01b03166000908152600960205260409020805490929060ff1615612b4a5760018301546001600160a01b0316915b6101e4356001600160a01b03908116908416908114908115612b23575b50612b1a575b60018060a01b0360045416916040519263149374fd60e21b84526004356004850152602435602485015260ff60443516604435036102f5576044803560ff16908501526001600160401b03606435908116908190036102f55760648501526084356001600160401b038116908190036102f557608485015260a4356001600160401b038116908190036102f55760a485015260c4356001600160401b038116908190036102f55760c485015260e43563ffffffff81168091036102f55760e48501526101043561ffff811681036102f55761ffff166101048501526101248035908501526101448035908501526101643561016485015261018480359061ffff82168092036102f5578501526101a43561ffff811681036102f557600085938460209661ffff8295166101a48301526102206101c48301528061022483015280610244938484013780820183018490526001600160a01b036101e480358216908401528a16610204830152601f01601f191681010301925af18015610d9557612aef575b5060ff60443516600052600860205260ff6040600020541615612ad25761286b906101e43583613443565b60018060a01b036101e43516600052600a60205260406000206024356000526020526040600020805460ff8116612aa65760019182809261ff0060443560081b169061ffff19161717815501556004810180549060018201809211610bcd5755600e429101556128e36101e43560443560243561352b565b6128f26024356101e4356137d7565b6129006044356024356132ab565b506040519061016435825260208201526001604082015260ff604435169060243590600080516020613f1c833981519152606060018060a01b036101e4351692a4611d7e8061016435029061016435820403610bcd576127106103b6908161016435029161016435830403610bcd576102588061016435029061016435820403610bcd57610190908161016435029161016435830403610bcd578290816129ba8185046115a783850481858b0481878e04610164356130cf565b95602435600052601160205260406000206129d8838a0482546131dc565b90556001600160a01b036101e435811660009081526009602052604090206001810154612a4792612a10918686049116602435613b92565b6002810154612a2e90858704906001600160a01b0316602435613c72565b60030154838704906001600160a01b0316602435613d18565b612a53876017546131dc565b60175581604051980488520460208701520460408501520460608301526080820152600160a082015260243590600080516020613edc83398151915260c060018060a01b036101e4351692a36001601955005b60405163c45f473d60e01b81526024803560048301526101e4356001600160a01b031690820152604490fd5b604051634a525d1b60e01b815260443560ff166004820152602490fd5b602090813d8311612b13575b612b058183613012565b810103126102f55782612840565b503d612afb565b600092506126bc565b801515915081612b35575b50856126b6565b905060005260ff604060002054161585612b2e565b6102043591612699565b612b6d915060203d602011612455576124478183613012565b8361265b565b60405162461bcd60e51b81526020600482015260156024820152744f6e6c79204261736520506179206761746577617960581b6044820152606490fd5b346102f55760403660031901126102f5576001600160a01b03612bd1612e0e565b16600052600a6020526040600020602435600052602052610120604060002080549060018101549060028101546003820154600483015490600584015492600760068601549501549560ff6040519881811615158a5260081c16602089015260408801526060870152608086015260a085015260c084015260e0830152610100820152f35b346102f55760003660031901126102f55760206040516127108152f35b346102f55760003660031901126102f557612c92600160195414612f82565b6002601955336000526009602052600c604060002001548015612cff573360005260096020526000600c604082200155612ccc81336130ff565b6040519081527f53473e2a2e0cc6840d80567f104277ea6daa0891e5316836bac38a686b79ea3360203392a26001601955005b60405162461bcd60e51b81526020600482015260116024820152704e6f20726566657272616c20626f6e757360781b6044820152606490fd5b346102f55760003660031901126102f557602060405160118152f35b346102f55760003660031901126102f5576020601654604051908152f35b346102f55760203660031901126102f557612d8b612e0e565b6000546001600160a01b03918291612da69083163314612f49565b16908115611d4e57600480546001600160a01b031981168417909155167f57b8ff42eaa81bfce68c6ad04d5bf2c7ebca554a63b0ece2bb301a0b2eff716d600080a3005b346102f55760003660031901126102f5576007546001600160a01b03168152602090f35b600435906001600160a01b03821682036102f557565b346102f55760003660031901126102f55760206040516107d08152f35b346102f55760003660031901126102f557602060405160648152f35b9181601f840112156102f5578235916001600160401b0383116102f557602083818601950101116102f557565b346102f55760003660031901126102f557602060405160328152f35b90600319820161020081126102f5576101c0136102f5576004916101c435906001600160401b0382116102f557612edf91600401612e5d565b90916101e4356001600160a01b03811681036102f55790565b346102f55760003660031901126102f55760206040516101f48152f35b6004359060ff821682036102f557565b359060ff821682036102f557565b60409060031901126102f5576004359060243590565b15612f5057565b60405162461bcd60e51b815260206004820152600a60248201526927b7363c9037bbb732b960b11b6044820152606490fd5b15612f8957565b60405162461bcd60e51b815260206004820152600e60248201526d1499595b9d1c985b9d0818d85b1b60921b6044820152606490fd5b61020081019081106001600160401b03821117610d7857604052565b60e081019081106001600160401b03821117610d7857604052565b61012081019081106001600160401b03821117610d7857604052565b601f909101601f19168101906001600160401b03821190821017610d7857604052565b908160209103126102f5575180151581036102f55790565b6001600160a01b03918216815291166020820152604081019190915260600190565b1561307657565b60405162461bcd60e51b81526020600482015260196024820152781554d110c81d1bdad95b881b9bdd0818dbdb999a59dd5c9959603a1b6044820152606490fd5b908160209103126102f5575160088110156102f55790565b91908203918211610bcd57565b51906001600160401b03821682036102f557565b519061ffff821682036102f557565b81156131a757600080808094819460018060a01b03165af1903d156131a1573d906001600160401b03821161318d5760405191613146601f8201601f191660200184613012565b825260203d92013e5b1561315657565b60405162461bcd60e51b815260206004820152600f60248201526e151c985b9cd9995c8819985a5b1959608a1b6044820152606490fd5b634e487b7160e01b81526041600452602490fd5b5061314f565b5050565b35906001600160401b03821682036102f557565b359061ffff821682036102f557565b3560ff811681036102f55790565b91908201809211610bcd57565b82156132975760405163a9059cbb60e01b81526001600160a01b039283166004820152602481019390935260209183916044918391600091165af1908115610d9557600091613278575b501561323b57565b60405162461bcd60e51b8152602060048201526015602482015274151bdad95b881d1c985b9cd9995c8819985a5b1959605a1b6044820152606490fd5b613291915060203d602011612455576124478183613012565b38613233565b505050565b6000198114610bcd5760010190565b90916000809280845260209160148352604095868620549160159560158652888820545b841080613439575b15613426578488526133296013928388528a8a20868b52885260018060a01b038b8b20541693878b5288528a8a2061330e8761329c565b968b5288528a8a2080546001600160a01b031916905561329c565b91808952600a8088528a8a20878b5288528a8a2060ff815416613359575b505050848852868652888820546132cf565b60060190815490600191828101809111613412578355838c526009808b528d8d20600b018054848101919082106133fe5755848d528a528c8c200180549182018092116133ea57889392600080516020613efc833981519152928e92556133c085856138d0565b6133ca8585613978565b6133d584898761352b565b90549082519182528b820152a3388080613347565b634e487b7160e01b8c52601160045260248cfd5b634e487b7160e01b8f52601160045260248ffd5b634e487b7160e01b8d52601160045260248dfd5b9693909794915060149295508352522055565b50600482106132d7565b91825460ff8116613525576001600160a81b031916600883901b610100600160a81b031617600117835542600d8401556001600160a01b039081169182151590829082613518575b505080613500575b61349c57505050565b6003600184019260018060a01b031993818582541617905560009081526009602052828060016040842001541660028701818782541617905580156000146134ee575050935b01921690825416179055565b825260409091206001015416936134e2565b5081600052600960205260ff60406000205416613493565b168314159050813861348b565b50505050565b9290600093808552600c916020600c8152604093848820948554156137ce575b8554956135578761329c565b905585986001988988146000146137c55781935b878352600b8087528484208a855287528484208a8155808d0180546001600160a81b0319166001600160a01b0395861690811760a09b909b1b60ff60a01b169a909a1790556002908101879055888552600a88528585208a865288528585209081018b9055600301869055600e87528484208054919391808e01919082106137b15755856136ba575b50878352600d8652838320549a8b156136b2575b9190825b613665575b50505081869798997f19a57ce1df8ff5b43fd57ebc398733d14bbb0da3e683f28c5b0e32955d8d19c896978352600c865281832054811060001461365e57915b600d8652205551908152a4565b5081613651565b90919a88845281875284842054811080613697575b15613691576136889061329c565b9a91908261360c565b9a613611565b50828752848420818552875260ff600586862001541661367a565b9a508a613608565b888452600b875284842086855287528b8585208b600382018054156000146136fd57550154168352600a8652838320888452865288600485852001555b386135f4565b505090506004810180541560001461379457908b8e9255600581018260ff1982541617905501818154168552600a88528585208a865288528a6005878720015554166015875284842054906013885285852082865288528585209060018060a01b03198254161790558b81018091116137805788845260158752848420556136f7565b634e487b7160e01b84526011600452602484fd5b60448b89895191630cc237c760e31b835260048301526024820152fd5b634e487b7160e01b86526011600452602486fd5b878a1c9361356b565b6001865561354b565b6001600160a01b03166000818152600a6020908152604080832085845282528083205460ff16156138c95783835260128252808320858452825280832092848152600a8352818120868252835281812090845494613843600761383988613ded565b9401938454613dbe565b9182156138be57600080516020613ebc8339815191529685826138b3948b60099552848a5261387587848420956131dc565b9055600583016138868782546131dc565b90556138938688546131dc565b87558b8152600f8952206138a88582546131dc565b9055019182546131dc565b9055549051908152a3565b505050505050505050565b5050505050565b6001600160a01b03166000818152600a6020908152604080832085845282528083205460ff16156138c957838352601282528083208584528252808320848452600a835281842086855283526002828520910193845494613935600761383988613e1d565b9182156138be57600080516020613ebc8339815191529685826138b3948b60099552848a5261396787848420956131dc565b9055600783016138868782546131dc565b6001600160a01b03166000818152600a6020908152604080832085845282528083205460ff16156138c957838352601282528083208584528252808320848452600a8352818420868552835260038285209101938454946139dd600761383988613e46565b9182156138be57600080516020613ebc8339815191529685826138b3948b60099552848a52613a0f87848420956131dc565b9055600883016138868782546131dc565b6001600160a01b03166000818152600a6020908152604080832085845282528083205460ff16156138c957838352601282528083208584528252808320848452600a835281842086855283526001828520910193845494613a85600761383988613e6f565b9182156138be57600080516020613ebc8339815191529685826138b3948b60099552848a52613ab787848420956131dc565b9055600683016138868782546131dc565b6001600160a01b03166000818152600a6020908152604080832085845282528083205460ff16156138c957838352601282528083208584528252808320848452600a835281842086855283526001828520910193845494613a85600761383988613e1d565b6001600160a01b03166000818152600a6020908152604080832085845282528083205460ff16156138c957838352601282528083208584528252808320848452600a835281842086855283526001828520910193845494613a85600761383988613e92565b906001600160a01b03811680158015613bee575b613bd05792613bce936000526018602052613bc760406000209182546131dc565b9055613a20565b565b50506000526011602052613bea60406000209182546131dc565b9055565b5080600052600960205260ff6040600020541615613ba6565b906001600160a01b03811680158015613c59575b613c3f5792613bce936000526009602052613bc7600c6040600020019182546131dc565b50506000526010602052613bea60406000209182546131dc565b5080600052600960205260ff6040600020541615613c1b565b906001600160a01b03811680158015613cae575b613bd05792613bce936000526018602052613ca760406000209182546131dc565b9055613ac8565b5080600052600960205260ff6040600020541615613c86565b906001600160a01b03811680158015613cff575b613c3f5792613bce936000526009602052613ca7600c6040600020019182546131dc565b5080600052600960205260ff6040600020541615613cdb565b906001600160a01b03811680158015613d54575b613bd05792613bce936000526018602052613d4d60406000209182546131dc565b9055613b2d565b5080600052600960205260ff6040600020541615613d2c565b906001600160a01b03811680158015613da5575b613c3f5792613bce936000526009602052613d4d600c6040600020019182546131dc565b5080600052600960205260ff6040600020541615613d81565b906113889182811015613de5578203918211610bcd5781811115613de0575090565b905090565b505050600090565b6103e89081811015613e16578103908111610bcd5780606411600014613e105790565b50606490565b5050600090565b6107d09081811015613e16578103908111610bcd5780603211600014613e405790565b50603290565b6101f49081811015613e16578103908111610bcd5780600a11600014613e695790565b50600a90565b6107d09081811015613e16578103908111610bcd5780606411600014613e105790565b6107d09081811015613e16578103908111610bcd5780601911600014613eb55790565b5060199056fe9de12b3d7a04eb259125d6f36a27a748d7ce92411cdf21da63e0e0394dfeea16c5a523fad910d10f2e95e81baa27487ab1f8867069e11e28424fff2c49ec980de71a25c367057ba6c32bea73ffe6eac519023fe04617b003d4ddc2781cb847cf9e2bd5f99a08e89f06d56896c56146aa32e257d0942bbd7c9b9748a26fd9d4e2a26469706673582212208cd8c7e2a4df263c597f9429ce428c0896cff76542f2c2d5cc277ef925a6599464736f6c63430008180033",
  "linkReferences": {},
  "deployedLinkReferences": {}
}