{
  "_format": "hh-sol-artifact-1",
  "contractName": "EasyGameAdvance",
  "sourceName": "contracts/EasyGameAdvance.sol",
  "abi": [
    {
      "inputs": [
        {
          "internalType": "address",
          "name": "projectWallet_",
          "type": "address"
        },
        {
          "internalType": "address",
          "name": "treasuryWallet_",
          "type": "address"
        },
        {
          "internalType": "address",
          "name": "operatorWallet_",
          "type": "address"
        },
        {
          "internalType": "address",
          "name": "usdcToken_",
          "type": "address"
        },
        {
          "internalType": "address",
          "name": "roundManager_",
          "type": "address"
        }
      ],
      "stateMutability": "nonpayable",
      "type": "constructor"
    },
    {
      "inputs": [],
      "name": "IncorrectRoundPayment",
      "type": "error"
    },
    {
      "inputs": [
        {
          "internalType": "uint8",
          "name": "level",
          "type": "uint8"
        }
      ],
      "name": "InvalidLevel",
      "type": "error"
    },
    {
      "inputs": [
        {
          "internalType": "uint256",
          "name": "roundId",
          "type": "uint256"
        },
        {
          "internalType": "uint256",
          "name": "cellId",
          "type": "uint256"
        }
      ],
      "name": "InvalidRoundCell",
      "type": "error"
    },
    {
      "inputs": [
        {
          "internalType": "uint8",
          "name": "level",
          "type": "uint8"
        }
      ],
      "name": "LevelEmergencyPaused",
      "type": "error"
    },
    {
      "inputs": [
        {
          "internalType": "uint256",
          "name": "roundId",
          "type": "uint256"
        },
        {
          "internalType": "uint256",
          "name": "parentCellId",
          "type": "uint256"
        }
      ],
      "name": "RoundParentAlreadyClosed",
      "type": "error"
    },
    {
      "inputs": [
        {
          "internalType": "uint256",
          "name": "roundId",
          "type": "uint256"
        },
        {
          "internalType": "address",
          "name": "player",
          "type": "address"
        }
      ],
      "name": "RoundTicketAlreadyActive",
      "type": "error"
    },
    {
      "inputs": [],
      "name": "RoundUsdcDisabled",
      "type": "error"
    },
    {
      "inputs": [],
      "name": "TokenTransferFailed",
      "type": "error"
    },
    {
      "inputs": [],
      "name": "ZeroAddress",
      "type": "error"
    },
    {
      "anonymous": false,
      "inputs": [
        {
          "indexed": true,
          "internalType": "address",
          "name": "player",
          "type": "address"
        },
        {
          "indexed": true,
          "internalType": "uint8",
          "name": "level",
          "type": "uint8"
        },
        {
          "indexed": false,
          "internalType": "uint256",
          "name": "amount",
          "type": "uint256"
        }
      ],
      "name": "BoxTokenGranted",
      "type": "event"
    },
    {
      "anonymous": false,
      "inputs": [
        {
          "indexed": false,
          "internalType": "bool",
          "name": "enabled",
          "type": "bool"
        }
      ],
      "name": "LegacyActivationChanged",
      "type": "event"
    },
    {
      "anonymous": false,
      "inputs": [
        {
          "indexed": true,
          "internalType": "address",
          "name": "player",
          "type": "address"
        },
        {
          "indexed": true,
          "internalType": "uint8",
          "name": "level",
          "type": "uint8"
        },
        {
          "indexed": false,
          "internalType": "uint256",
          "name": "value",
          "type": "uint256"
        },
        {
          "indexed": false,
          "internalType": "uint256",
          "name": "cellId",
          "type": "uint256"
        }
      ],
      "name": "LevelActivated",
      "type": "event"
    },
    {
      "anonymous": false,
      "inputs": [
        {
          "indexed": true,
          "internalType": "uint8",
          "name": "level",
          "type": "uint8"
        },
        {
          "indexed": false,
          "internalType": "bool",
          "name": "available",
          "type": "bool"
        }
      ],
      "name": "LevelAvailabilityChanged",
      "type": "event"
    },
    {
      "anonymous": false,
      "inputs": [
        {
          "indexed": true,
          "internalType": "address",
          "name": "player",
          "type": "address"
        },
        {
          "indexed": true,
          "internalType": "uint8",
          "name": "level",
          "type": "uint8"
        }
      ],
      "name": "LevelFrozen",
      "type": "event"
    },
    {
      "anonymous": false,
      "inputs": [
        {
          "indexed": true,
          "internalType": "uint8",
          "name": "level",
          "type": "uint8"
        },
        {
          "indexed": false,
          "internalType": "uint256",
          "name": "oldPrice",
          "type": "uint256"
        },
        {
          "indexed": false,
          "internalType": "uint256",
          "name": "newPrice",
          "type": "uint256"
        }
      ],
      "name": "LevelPriceChanged",
      "type": "event"
    },
    {
      "anonymous": false,
      "inputs": [
        {
          "indexed": true,
          "internalType": "address",
          "name": "player",
          "type": "address"
        },
        {
          "indexed": true,
          "internalType": "uint8",
          "name": "level",
          "type": "uint8"
        }
      ],
      "name": "LevelUnfrozen",
      "type": "event"
    },
    {
      "anonymous": false,
      "inputs": [
        {
          "indexed": true,
          "internalType": "uint8",
          "name": "level",
          "type": "uint8"
        },
        {
          "indexed": false,
          "internalType": "uint256",
          "name": "oldPrice",
          "type": "uint256"
        },
        {
          "indexed": false,
          "internalType": "uint256",
          "name": "newPrice",
          "type": "uint256"
        }
      ],
      "name": "LevelUsdcPriceChanged",
      "type": "event"
    },
    {
      "anonymous": false,
      "inputs": [
        {
          "indexed": true,
          "internalType": "address",
          "name": "player",
          "type": "address"
        },
        {
          "indexed": true,
          "internalType": "uint8",
          "name": "level",
          "type": "uint8"
        },
        {
          "indexed": true,
          "internalType": "uint256",
          "name": "cellId",
          "type": "uint256"
        },
        {
          "indexed": false,
          "internalType": "uint256",
          "name": "parentCellId",
          "type": "uint256"
        }
      ],
      "name": "MatrixPlaced",
      "type": "event"
    },
    {
      "anonymous": false,
      "inputs": [
        {
          "indexed": true,
          "internalType": "address",
          "name": "previousOwner",
          "type": "address"
        },
        {
          "indexed": true,
          "internalType": "address",
          "name": "newOwner",
          "type": "address"
        }
      ],
      "name": "OwnershipTransferred",
      "type": "event"
    },
    {
      "anonymous": false,
      "inputs": [
        {
          "indexed": true,
          "internalType": "address",
          "name": "player",
          "type": "address"
        },
        {
          "indexed": true,
          "internalType": "uint8",
          "name": "level",
          "type": "uint8"
        },
        {
          "indexed": false,
          "internalType": "uint256",
          "name": "matrixPrizeAmount",
          "type": "uint256"
        },
        {
          "indexed": false,
          "internalType": "uint256",
          "name": "directReferralAmount",
          "type": "uint256"
        },
        {
          "indexed": false,
          "internalType": "uint256",
          "name": "secondLineAmount",
          "type": "uint256"
        },
        {
          "indexed": false,
          "internalType": "uint256",
          "name": "thirdLineAmount",
          "type": "uint256"
        },
        {
          "indexed": false,
          "internalType": "uint256",
          "name": "projectFeeAmount",
          "type": "uint256"
        }
      ],
      "name": "PaymentSplit",
      "type": "event"
    },
    {
      "anonymous": false,
      "inputs": [
        {
          "indexed": true,
          "internalType": "address",
          "name": "player",
          "type": "address"
        },
        {
          "indexed": true,
          "internalType": "uint8",
          "name": "level",
          "type": "uint8"
        },
        {
          "indexed": false,
          "internalType": "uint256",
          "name": "amount",
          "type": "uint256"
        }
      ],
      "name": "PrizeClaimed",
      "type": "event"
    },
    {
      "anonymous": false,
      "inputs": [
        {
          "indexed": true,
          "internalType": "address",
          "name": "player",
          "type": "address"
        },
        {
          "indexed": true,
          "internalType": "uint8",
          "name": "level",
          "type": "uint8"
        },
        {
          "indexed": true,
          "internalType": "uint256",
          "name": "cellId",
          "type": "uint256"
        },
        {
          "indexed": false,
          "internalType": "uint256",
          "name": "amount",
          "type": "uint256"
        },
        {
          "indexed": false,
          "internalType": "bool",
          "name": "pending",
          "type": "bool"
        }
      ],
      "name": "PrizePositionReached",
      "type": "event"
    },
    {
      "anonymous": false,
      "inputs": [
        {
          "indexed": true,
          "internalType": "uint8",
          "name": "level",
          "type": "uint8"
        },
        {
          "indexed": false,
          "internalType": "uint256",
          "name": "amount",
          "type": "uint256"
        },
        {
          "indexed": false,
          "internalType": "uint256",
          "name": "totalAccrued",
          "type": "uint256"
        }
      ],
      "name": "ProjectFeeAccrued",
      "type": "event"
    },
    {
      "anonymous": false,
      "inputs": [
        {
          "indexed": true,
          "internalType": "address",
          "name": "wallet",
          "type": "address"
        },
        {
          "indexed": false,
          "internalType": "uint256",
          "name": "amount",
          "type": "uint256"
        }
      ],
      "name": "ProjectFeesWithdrawn",
      "type": "event"
    },
    {
      "anonymous": false,
      "inputs": [
        {
          "indexed": true,
          "internalType": "address",
          "name": "player",
          "type": "address"
        },
        {
          "indexed": true,
          "internalType": "uint8",
          "name": "level",
          "type": "uint8"
        },
        {
          "indexed": true,
          "internalType": "uint256",
          "name": "queueIndex",
          "type": "uint256"
        }
      ],
      "name": "RecycleQueued",
      "type": "event"
    },
    {
      "anonymous": false,
      "inputs": [
        {
          "indexed": true,
          "internalType": "address",
          "name": "player",
          "type": "address"
        },
        {
          "indexed": true,
          "internalType": "uint8",
          "name": "level",
          "type": "uint8"
        },
        {
          "indexed": false,
          "internalType": "uint256",
          "name": "recycleCount",
          "type": "uint256"
        },
        {
          "indexed": false,
          "internalType": "uint256",
          "name": "newCellId",
          "type": "uint256"
        }
      ],
      "name": "Recycled",
      "type": "event"
    },
    {
      "anonymous": false,
      "inputs": [
        {
          "indexed": true,
          "internalType": "address",
          "name": "inviter",
          "type": "address"
        },
        {
          "indexed": true,
          "internalType": "address",
          "name": "invitee",
          "type": "address"
        },
        {
          "indexed": true,
          "internalType": "uint8",
          "name": "level",
          "type": "uint8"
        },
        {
          "indexed": false,
          "internalType": "uint256",
          "name": "bonusAmount",
          "type": "uint256"
        },
        {
          "indexed": false,
          "internalType": "uint256",
          "name": "weightAdded",
          "type": "uint256"
        }
      ],
      "name": "ReferralBonusAdded",
      "type": "event"
    },
    {
      "anonymous": false,
      "inputs": [
        {
          "indexed": true,
          "internalType": "address",
          "name": "player",
          "type": "address"
        },
        {
          "indexed": false,
          "internalType": "uint256",
          "name": "amount",
          "type": "uint256"
        }
      ],
      "name": "ReferralBonusClaimed",
      "type": "event"
    },
    {
      "anonymous": false,
      "inputs": [
        {
          "indexed": true,
          "internalType": "address",
          "name": "player",
          "type": "address"
        },
        {
          "indexed": true,
          "internalType": "uint256",
          "name": "roundId",
          "type": "uint256"
        },
        {
          "indexed": true,
          "internalType": "uint8",
          "name": "level",
          "type": "uint8"
        },
        {
          "indexed": false,
          "internalType": "uint256",
          "name": "amount",
          "type": "uint256"
        },
        {
          "indexed": false,
          "internalType": "uint256",
          "name": "cellId",
          "type": "uint256"
        },
        {
          "indexed": false,
          "internalType": "bool",
          "name": "paidWithUsdc",
          "type": "bool"
        }
      ],
      "name": "RoundActivated",
      "type": "event"
    },
    {
      "anonymous": false,
      "inputs": [
        {
          "indexed": true,
          "internalType": "address",
          "name": "oldManager",
          "type": "address"
        },
        {
          "indexed": true,
          "internalType": "address",
          "name": "newManager",
          "type": "address"
        }
      ],
      "name": "RoundManagerChanged",
      "type": "event"
    },
    {
      "anonymous": false,
      "inputs": [
        {
          "indexed": true,
          "internalType": "address",
          "name": "player",
          "type": "address"
        },
        {
          "indexed": true,
          "internalType": "uint256",
          "name": "roundId",
          "type": "uint256"
        },
        {
          "indexed": true,
          "internalType": "uint256",
          "name": "cellId",
          "type": "uint256"
        },
        {
          "indexed": false,
          "internalType": "uint256",
          "name": "parentCellId",
          "type": "uint256"
        }
      ],
      "name": "RoundMatrixPlaced",
      "type": "event"
    },
    {
      "anonymous": false,
      "inputs": [
        {
          "indexed": true,
          "internalType": "address",
          "name": "player",
          "type": "address"
        },
        {
          "indexed": true,
          "internalType": "uint256",
          "name": "roundId",
          "type": "uint256"
        },
        {
          "indexed": false,
          "internalType": "uint256",
          "name": "matrixPrizeAmount",
          "type": "uint256"
        },
        {
          "indexed": false,
          "internalType": "uint256",
          "name": "directReferralAmount",
          "type": "uint256"
        },
        {
          "indexed": false,
          "internalType": "uint256",
          "name": "secondLineAmount",
          "type": "uint256"
        },
        {
          "indexed": false,
          "internalType": "uint256",
          "name": "thirdLineAmount",
          "type": "uint256"
        },
        {
          "indexed": false,
          "internalType": "uint256",
          "name": "projectFeeAmount",
          "type": "uint256"
        },
        {
          "indexed": false,
          "internalType": "bool",
          "name": "paidWithUsdc",
          "type": "bool"
        }
      ],
      "name": "RoundPaymentSplit",
      "type": "event"
    },
    {
      "anonymous": false,
      "inputs": [
        {
          "indexed": true,
          "internalType": "uint256",
          "name": "roundId",
          "type": "uint256"
        },
        {
          "indexed": true,
          "internalType": "address",
          "name": "settlement",
          "type": "address"
        },
        {
          "indexed": false,
          "internalType": "uint256",
          "name": "ethAmount",
          "type": "uint256"
        },
        {
          "indexed": false,
          "internalType": "uint256",
          "name": "usdcAmount",
          "type": "uint256"
        }
      ],
      "name": "RoundPoolsReleased",
      "type": "event"
    },
    {
      "anonymous": false,
      "inputs": [
        {
          "indexed": true,
          "internalType": "address",
          "name": "player",
          "type": "address"
        },
        {
          "indexed": true,
          "internalType": "uint256",
          "name": "roundId",
          "type": "uint256"
        },
        {
          "indexed": false,
          "internalType": "uint256",
          "name": "cycleCount",
          "type": "uint256"
        },
        {
          "indexed": false,
          "internalType": "uint256",
          "name": "newCellId",
          "type": "uint256"
        }
      ],
      "name": "RoundRecycled",
      "type": "event"
    },
    {
      "anonymous": false,
      "inputs": [
        {
          "indexed": true,
          "internalType": "address",
          "name": "player",
          "type": "address"
        },
        {
          "indexed": true,
          "internalType": "uint256",
          "name": "roundId",
          "type": "uint256"
        },
        {
          "indexed": false,
          "internalType": "uint256",
          "name": "totalWeight",
          "type": "uint256"
        }
      ],
      "name": "RoundWeightUpdated",
      "type": "event"
    },
    {
      "anonymous": false,
      "inputs": [
        {
          "indexed": true,
          "internalType": "address",
          "name": "inviter",
          "type": "address"
        },
        {
          "indexed": true,
          "internalType": "address",
          "name": "invitee",
          "type": "address"
        },
        {
          "indexed": true,
          "internalType": "uint8",
          "name": "level",
          "type": "uint8"
        },
        {
          "indexed": false,
          "internalType": "uint256",
          "name": "bonusAmount",
          "type": "uint256"
        },
        {
          "indexed": false,
          "internalType": "uint256",
          "name": "weightAdded",
          "type": "uint256"
        }
      ],
      "name": "SecondLineBonusAdded",
      "type": "event"
    },
    {
      "anonymous": false,
      "inputs": [
        {
          "indexed": true,
          "internalType": "address",
          "name": "oldSettlement",
          "type": "address"
        },
        {
          "indexed": true,
          "internalType": "address",
          "name": "newSettlement",
          "type": "address"
        }
      ],
      "name": "SettlementContractChanged",
      "type": "event"
    },
    {
      "anonymous": false,
      "inputs": [
        {
          "indexed": true,
          "internalType": "address",
          "name": "inviter",
          "type": "address"
        },
        {
          "indexed": true,
          "internalType": "address",
          "name": "invitee",
          "type": "address"
        },
        {
          "indexed": true,
          "internalType": "uint8",
          "name": "level",
          "type": "uint8"
        },
        {
          "indexed": false,
          "internalType": "uint256",
          "name": "bonusAmount",
          "type": "uint256"
        },
        {
          "indexed": false,
          "internalType": "uint256",
          "name": "weightAdded",
          "type": "uint256"
        }
      ],
      "name": "ThirdLineBonusAdded",
      "type": "event"
    },
    {
      "anonymous": false,
      "inputs": [
        {
          "indexed": true,
          "internalType": "address",
          "name": "player",
          "type": "address"
        },
        {
          "indexed": true,
          "internalType": "uint8",
          "name": "level",
          "type": "uint8"
        },
        {
          "indexed": true,
          "internalType": "address",
          "name": "token",
          "type": "address"
        },
        {
          "indexed": false,
          "internalType": "uint256",
          "name": "matrixPrizeAmount",
          "type": "uint256"
        },
        {
          "indexed": false,
          "internalType": "uint256",
          "name": "directReferralAmount",
          "type": "uint256"
        },
        {
          "indexed": false,
          "internalType": "uint256",
          "name": "secondLineAmount",
          "type": "uint256"
        },
        {
          "indexed": false,
          "internalType": "uint256",
          "name": "thirdLineAmount",
          "type": "uint256"
        },
        {
          "indexed": false,
          "internalType": "uint256",
          "name": "projectFeeAmount",
          "type": "uint256"
        }
      ],
      "name": "TokenPaymentSplit",
      "type": "event"
    },
    {
      "anonymous": false,
      "inputs": [
        {
          "indexed": true,
          "internalType": "address",
          "name": "player",
          "type": "address"
        },
        {
          "indexed": true,
          "internalType": "address",
          "name": "token",
          "type": "address"
        },
        {
          "indexed": true,
          "internalType": "uint8",
          "name": "level",
          "type": "uint8"
        },
        {
          "indexed": false,
          "internalType": "uint256",
          "name": "amount",
          "type": "uint256"
        }
      ],
      "name": "TokenPrizeClaimed",
      "type": "event"
    },
    {
      "anonymous": false,
      "inputs": [
        {
          "indexed": true,
          "internalType": "address",
          "name": "player",
          "type": "address"
        },
        {
          "indexed": true,
          "internalType": "uint8",
          "name": "level",
          "type": "uint8"
        },
        {
          "indexed": true,
          "internalType": "address",
          "name": "token",
          "type": "address"
        },
        {
          "indexed": false,
          "internalType": "uint256",
          "name": "cellId",
          "type": "uint256"
        },
        {
          "indexed": false,
          "internalType": "uint256",
          "name": "amount",
          "type": "uint256"
        },
        {
          "indexed": false,
          "internalType": "bool",
          "name": "pending",
          "type": "bool"
        }
      ],
      "name": "TokenPrizePositionReached",
      "type": "event"
    },
    {
      "anonymous": false,
      "inputs": [
        {
          "indexed": true,
          "internalType": "address",
          "name": "token",
          "type": "address"
        },
        {
          "indexed": true,
          "internalType": "uint8",
          "name": "level",
          "type": "uint8"
        },
        {
          "indexed": false,
          "internalType": "uint256",
          "name": "amount",
          "type": "uint256"
        },
        {
          "indexed": false,
          "internalType": "uint256",
          "name": "totalAccrued",
          "type": "uint256"
        }
      ],
      "name": "TokenProjectFeeAccrued",
      "type": "event"
    },
    {
      "anonymous": false,
      "inputs": [
        {
          "indexed": true,
          "internalType": "address",
          "name": "token",
          "type": "address"
        },
        {
          "indexed": true,
          "internalType": "address",
          "name": "wallet",
          "type": "address"
        },
        {
          "indexed": false,
          "internalType": "uint256",
          "name": "amount",
          "type": "uint256"
        }
      ],
      "name": "TokenProjectFeesWithdrawn",
      "type": "event"
    },
    {
      "anonymous": false,
      "inputs": [
        {
          "indexed": true,
          "internalType": "address",
          "name": "player",
          "type": "address"
        },
        {
          "indexed": true,
          "internalType": "address",
          "name": "token",
          "type": "address"
        },
        {
          "indexed": false,
          "internalType": "uint256",
          "name": "amount",
          "type": "uint256"
        }
      ],
      "name": "TokenReferralBonusClaimed",
      "type": "event"
    },
    {
      "anonymous": false,
      "inputs": [
        {
          "indexed": true,
          "internalType": "address",
          "name": "oldToken",
          "type": "address"
        },
        {
          "indexed": true,
          "internalType": "address",
          "name": "newToken",
          "type": "address"
        }
      ],
      "name": "UsdcTokenChanged",
      "type": "event"
    },
    {
      "anonymous": false,
      "inputs": [
        {
          "indexed": false,
          "internalType": "address",
          "name": "projectWallet",
          "type": "address"
        },
        {
          "indexed": false,
          "internalType": "address",
          "name": "treasuryWallet",
          "type": "address"
        },
        {
          "indexed": false,
          "internalType": "address",
          "name": "operatorWallet",
          "type": "address"
        }
      ],
      "name": "WalletsChanged",
      "type": "event"
    },
    {
      "anonymous": false,
      "inputs": [
        {
          "indexed": true,
          "internalType": "address",
          "name": "player",
          "type": "address"
        },
        {
          "indexed": true,
          "internalType": "uint8",
          "name": "level",
          "type": "uint8"
        },
        {
          "indexed": false,
          "internalType": "uint256",
          "name": "totalWeight",
          "type": "uint256"
        }
      ],
      "name": "WeightUpdated",
      "type": "event"
    },
    {
      "inputs": [],
      "name": "BASE_ACTIVATION_WEIGHT",
      "outputs": [
        {
          "internalType": "uint256",
          "name": "",
          "type": "uint256"
        }
      ],
      "stateMutability": "view",
      "type": "function"
    },
    {
      "inputs": [],
      "name": "BOX_NFT_WEIGHT",
      "outputs": [
        {
          "internalType": "uint256",
          "name": "",
          "type": "uint256"
        }
      ],
      "stateMutability": "view",
      "type": "function"
    },
    {
      "inputs": [],
      "name": "BPS",
      "outputs": [
        {
          "internalType": "uint256",
          "name": "",
          "type": "uint256"
        }
      ],
      "stateMutability": "view",
      "type": "function"
    },
    {
      "inputs": [],
      "name": "DIRECT_REF_BPS",
      "outputs": [
        {
          "internalType": "uint256",
          "name": "",
          "type": "uint256"
        }
      ],
      "stateMutability": "view",
      "type": "function"
    },
    {
      "inputs": [],
      "name": "DIRECT_REF_WEIGHT",
      "outputs": [
        {
          "internalType": "uint256",
          "name": "",
          "type": "uint256"
        }
      ],
      "stateMutability": "view",
      "type": "function"
    },
    {
      "inputs": [],
      "name": "DRAW_REWARD_BPS",
      "outputs": [
        {
          "internalType": "uint256",
          "name": "",
          "type": "uint256"
        }
      ],
      "stateMutability": "view",
      "type": "function"
    },
    {
      "inputs": [],
      "name": "LEVEL_COUNT",
      "outputs": [
        {
          "internalType": "uint8",
          "name": "",
          "type": "uint8"
        }
      ],
      "stateMutability": "view",
      "type": "function"
    },
    {
      "inputs": [],
      "name": "MATRIX_PRIZE_BPS",
      "outputs": [
        {
          "internalType": "uint256",
          "name": "",
          "type": "uint256"
        }
      ],
      "stateMutability": "view",
      "type": "function"
    },
    {
      "inputs": [],
      "name": "MAX_BASE_WEIGHT_PER_LEVEL",
      "outputs": [
        {
          "internalType": "uint256",
          "name": "",
          "type": "uint256"
        }
      ],
      "stateMutability": "view",
      "type": "function"
    },
    {
      "inputs": [],
      "name": "MAX_LOYALTY_WEIGHT_PER_LEVEL",
      "outputs": [
        {
          "internalType": "uint256",
          "name": "",
          "type": "uint256"
        }
      ],
      "stateMutability": "view",
      "type": "function"
    },
    {
      "inputs": [],
      "name": "MAX_MATRIX_WEIGHT_PER_LEVEL",
      "outputs": [
        {
          "internalType": "uint256",
          "name": "",
          "type": "uint256"
        }
      ],
      "stateMutability": "view",
      "type": "function"
    },
    {
      "inputs": [],
      "name": "MAX_NFT_WEIGHT_PER_LEVEL",
      "outputs": [
        {
          "internalType": "uint256",
          "name": "",
          "type": "uint256"
        }
      ],
      "stateMutability": "view",
      "type": "function"
    },
    {
      "inputs": [],
      "name": "MAX_RECYCLE_STEPS_PER_TX",
      "outputs": [
        {
          "internalType": "uint8",
          "name": "",
          "type": "uint8"
        }
      ],
      "stateMutability": "view",
      "type": "function"
    },
    {
      "inputs": [],
      "name": "MAX_REFERRAL_WEIGHT_PER_LEVEL",
      "outputs": [
        {
          "internalType": "uint256",
          "name": "",
          "type": "uint256"
        }
      ],
      "stateMutability": "view",
      "type": "function"
    },
    {
      "inputs": [],
      "name": "MAX_TOTAL_WEIGHT_PER_LEVEL",
      "outputs": [
        {
          "internalType": "uint256",
          "name": "",
          "type": "uint256"
        }
      ],
      "stateMutability": "view",
      "type": "function"
    },
    {
      "inputs": [],
      "name": "PRIZE_POSITION_BPS",
      "outputs": [
        {
          "internalType": "uint256",
          "name": "",
          "type": "uint256"
        }
      ],
      "stateMutability": "view",
      "type": "function"
    },
    {
      "inputs": [],
      "name": "PROJECT_FEE_BPS",
      "outputs": [
        {
          "internalType": "uint256",
          "name": "",
          "type": "uint256"
        }
      ],
      "stateMutability": "view",
      "type": "function"
    },
    {
      "inputs": [],
      "name": "RECYCLE_MATRIX_WEIGHT",
      "outputs": [
        {
          "internalType": "uint256",
          "name": "",
          "type": "uint256"
        }
      ],
      "stateMutability": "view",
      "type": "function"
    },
    {
      "inputs": [],
      "name": "SECOND_REF_BPS",
      "outputs": [
        {
          "internalType": "uint256",
          "name": "",
          "type": "uint256"
        }
      ],
      "stateMutability": "view",
      "type": "function"
    },
    {
      "inputs": [],
      "name": "SECOND_REF_WEIGHT",
      "outputs": [
        {
          "internalType": "uint256",
          "name": "",
          "type": "uint256"
        }
      ],
      "stateMutability": "view",
      "type": "function"
    },
    {
      "inputs": [],
      "name": "THIRD_REF_BPS",
      "outputs": [
        {
          "internalType": "uint256",
          "name": "",
          "type": "uint256"
        }
      ],
      "stateMutability": "view",
      "type": "function"
    },
    {
      "inputs": [],
      "name": "THIRD_REF_WEIGHT",
      "outputs": [
        {
          "internalType": "uint256",
          "name": "",
          "type": "uint256"
        }
      ],
      "stateMutability": "view",
      "type": "function"
    },
    {
      "inputs": [],
      "name": "WEEKLY_LOYALTY_WEIGHT",
      "outputs": [
        {
          "internalType": "uint256",
          "name": "",
          "type": "uint256"
        }
      ],
      "stateMutability": "view",
      "type": "function"
    },
    {
      "inputs": [],
      "name": "WEIGHT_SCALE",
      "outputs": [
        {
          "internalType": "uint256",
          "name": "",
          "type": "uint256"
        }
      ],
      "stateMutability": "view",
      "type": "function"
    },
    {
      "inputs": [
        {
          "components": [
            {
              "internalType": "uint256",
              "name": "seasonId",
              "type": "uint256"
            },
            {
              "internalType": "uint256",
              "name": "roundId",
              "type": "uint256"
            },
            {
              "internalType": "uint8",
              "name": "level",
              "type": "uint8"
            },
            {
              "internalType": "uint64",
              "name": "startsAt",
              "type": "uint64"
            },
            {
              "internalType": "uint64",
              "name": "entriesCloseAt",
              "type": "uint64"
            },
            {
              "internalType": "uint64",
              "name": "endsAt",
              "type": "uint64"
            },
            {
              "internalType": "uint64",
              "name": "freezeClosesAt",
              "type": "uint64"
            },
            {
              "internalType": "uint32",
              "name": "maxPlayers",
              "type": "uint32"
            },
            {
              "internalType": "uint16",
              "name": "maxWinners",
              "type": "uint16"
            },
            {
              "internalType": "bytes32",
              "name": "winningCellsRoot",
              "type": "bytes32"
            },
            {
              "internalType": "uint256",
              "name": "ethPrice",
              "type": "uint256"
            },
            {
              "internalType": "uint256",
              "name": "usdcPrice",
              "type": "uint256"
            },
            {
              "internalType": "uint16",
              "name": "freezeLimit",
              "type": "uint16"
            },
            {
              "internalType": "uint16",
              "name": "paymentSplitVersion",
              "type": "uint16"
            }
          ],
          "internalType": "struct RoundConfig",
          "name": "config",
          "type": "tuple"
        },
        {
          "internalType": "bytes",
          "name": "signature",
          "type": "bytes"
        },
        {
          "internalType": "address",
          "name": "inviter",
          "type": "address"
        }
      ],
      "name": "activateRound",
      "outputs": [],
      "stateMutability": "payable",
      "type": "function"
    },
    {
      "inputs": [
        {
          "components": [
            {
              "internalType": "uint256",
              "name": "seasonId",
              "type": "uint256"
            },
            {
              "internalType": "uint256",
              "name": "roundId",
              "type": "uint256"
            },
            {
              "internalType": "uint8",
              "name": "level",
              "type": "uint8"
            },
            {
              "internalType": "uint64",
              "name": "startsAt",
              "type": "uint64"
            },
            {
              "internalType": "uint64",
              "name": "entriesCloseAt",
              "type": "uint64"
            },
            {
              "internalType": "uint64",
              "name": "endsAt",
              "type": "uint64"
            },
            {
              "internalType": "uint64",
              "name": "freezeClosesAt",
              "type": "uint64"
            },
            {
              "internalType": "uint32",
              "name": "maxPlayers",
              "type": "uint32"
            },
            {
              "internalType": "uint16",
              "name": "maxWinners",
              "type": "uint16"
            },
            {
              "internalType": "bytes32",
              "name": "winningCellsRoot",
              "type": "bytes32"
            },
            {
              "internalType": "uint256",
              "name": "ethPrice",
              "type": "uint256"
            },
            {
              "internalType": "uint256",
              "name": "usdcPrice",
              "type": "uint256"
            },
            {
              "internalType": "uint16",
              "name": "freezeLimit",
              "type": "uint16"
            },
            {
              "internalType": "uint16",
              "name": "paymentSplitVersion",
              "type": "uint16"
            }
          ],
          "internalType": "struct RoundConfig",
          "name": "config",
          "type": "tuple"
        },
        {
          "internalType": "bytes",
          "name": "signature",
          "type": "bytes"
        },
        {
          "internalType": "address",
          "name": "inviter",
          "type": "address"
        }
      ],
      "name": "activateRoundWithUSDC",
      "outputs": [],
      "stateMutability": "nonpayable",
      "type": "function"
    },
    {
      "inputs": [
        {
          "internalType": "uint8",
          "name": "",
          "type": "uint8"
        }
      ],
      "name": "activeCellsByLevel",
      "outputs": [
        {
          "internalType": "uint256",
          "name": "",
          "type": "uint256"
        }
      ],
      "stateMutability": "view",
      "type": "function"
    },
    {
      "inputs": [
        {
          "internalType": "uint8",
          "name": "level",
          "type": "uint8"
        }
      ],
      "name": "claimPrize",
      "outputs": [],
      "stateMutability": "nonpayable",
      "type": "function"
    },
    {
      "inputs": [
        {
          "internalType": "uint8",
          "name": "level",
          "type": "uint8"
        }
      ],
      "name": "claimPrizeUSDC",
      "outputs": [],
      "stateMutability": "nonpayable",
      "type": "function"
    },
    {
      "inputs": [],
      "name": "claimReferralBonus",
      "outputs": [],
      "stateMutability": "nonpayable",
      "type": "function"
    },
    {
      "inputs": [],
      "name": "claimReferralBonusUSDC",
      "outputs": [],
      "stateMutability": "nonpayable",
      "type": "function"
    },
    {
      "inputs": [
        {
          "internalType": "address",
          "name": "",
          "type": "address"
        }
      ],
      "name": "claimablePrizeUsdc",
      "outputs": [
        {
          "internalType": "uint256",
          "name": "",
          "type": "uint256"
        }
      ],
      "stateMutability": "view",
      "type": "function"
    },
    {
      "inputs": [
        {
          "internalType": "address",
          "name": "",
          "type": "address"
        },
        {
          "internalType": "uint8",
          "name": "",
          "type": "uint8"
        }
      ],
      "name": "claimablePrizeUsdcByLevel",
      "outputs": [
        {
          "internalType": "uint256",
          "name": "",
          "type": "uint256"
        }
      ],
      "stateMutability": "view",
      "type": "function"
    },
    {
      "inputs": [
        {
          "internalType": "address",
          "name": "",
          "type": "address"
        }
      ],
      "name": "claimableReferralBonusUsdc",
      "outputs": [
        {
          "internalType": "uint256",
          "name": "",
          "type": "uint256"
        }
      ],
      "stateMutability": "view",
      "type": "function"
    },
    {
      "inputs": [
        {
          "internalType": "uint8",
          "name": "level",
          "type": "uint8"
        }
      ],
      "name": "getLevelMatrixStats",
      "outputs": [
        {
          "internalType": "uint256",
          "name": "size",
          "type": "uint256"
        },
        {
          "internalType": "uint256",
          "name": "nextOpenParentId",
          "type": "uint256"
        }
      ],
      "stateMutability": "view",
      "type": "function"
    },
    {
      "inputs": [
        {
          "internalType": "uint8",
          "name": "level",
          "type": "uint8"
        }
      ],
      "name": "getLevelStats",
      "outputs": [
        {
          "internalType": "uint256",
          "name": "prizePool",
          "type": "uint256"
        },
        {
          "internalType": "uint256",
          "name": "totalWeight",
          "type": "uint256"
        },
        {
          "internalType": "uint256",
          "name": "activeCells",
          "type": "uint256"
        },
        {
          "internalType": "uint256",
          "name": "nextOpenParent",
          "type": "uint256"
        },
        {
          "internalType": "uint256",
          "name": "nextCell",
          "type": "uint256"
        }
      ],
      "stateMutability": "view",
      "type": "function"
    },
    {
      "inputs": [
        {
          "internalType": "uint8",
          "name": "level",
          "type": "uint8"
        }
      ],
      "name": "getLevelStatsUSDC",
      "outputs": [
        {
          "internalType": "uint256",
          "name": "prizePool",
          "type": "uint256"
        },
        {
          "internalType": "uint256",
          "name": "totalWeight",
          "type": "uint256"
        },
        {
          "internalType": "uint256",
          "name": "activeCells",
          "type": "uint256"
        },
        {
          "internalType": "uint256",
          "name": "nextOpenParent",
          "type": "uint256"
        },
        {
          "internalType": "uint256",
          "name": "nextCell",
          "type": "uint256"
        }
      ],
      "stateMutability": "view",
      "type": "function"
    },
    {
      "inputs": [
        {
          "internalType": "uint8",
          "name": "level",
          "type": "uint8"
        },
        {
          "internalType": "uint256",
          "name": "cellId",
          "type": "uint256"
        }
      ],
      "name": "getMatrixNode",
      "outputs": [
        {
          "components": [
            {
              "internalType": "uint256",
              "name": "cellId",
              "type": "uint256"
            },
            {
              "internalType": "address",
              "name": "player",
              "type": "address"
            },
            {
              "internalType": "uint8",
              "name": "level",
              "type": "uint8"
            },
            {
              "internalType": "uint256",
              "name": "parentCellId",
              "type": "uint256"
            },
            {
              "internalType": "uint256",
              "name": "leftChildCellId",
              "type": "uint256"
            },
            {
              "internalType": "uint256",
              "name": "rightChildCellId",
              "type": "uint256"
            },
            {
              "internalType": "bool",
              "name": "closed",
              "type": "bool"
            },
            {
              "internalType": "bool",
              "name": "prizeCell",
              "type": "bool"
            }
          ],
          "internalType": "struct MatrixNode",
          "name": "",
          "type": "tuple"
        }
      ],
      "stateMutability": "view",
      "type": "function"
    },
    {
      "inputs": [
        {
          "internalType": "uint8",
          "name": "level",
          "type": "uint8"
        },
        {
          "internalType": "uint256",
          "name": "currentCellId",
          "type": "uint256"
        }
      ],
      "name": "getNextPrizeCell",
      "outputs": [
        {
          "internalType": "uint256",
          "name": "",
          "type": "uint256"
        }
      ],
      "stateMutability": "pure",
      "type": "function"
    },
    {
      "inputs": [
        {
          "internalType": "uint8",
          "name": "level",
          "type": "uint8"
        }
      ],
      "name": "getPendingRecycleCount",
      "outputs": [
        {
          "internalType": "uint256",
          "name": "",
          "type": "uint256"
        }
      ],
      "stateMutability": "view",
      "type": "function"
    },
    {
      "inputs": [
        {
          "internalType": "address",
          "name": "playerAddress",
          "type": "address"
        }
      ],
      "name": "getPlayer",
      "outputs": [
        {
          "components": [
            {
              "internalType": "bool",
              "name": "exists",
              "type": "bool"
            },
            {
              "internalType": "address",
              "name": "wallet",
              "type": "address"
            },
            {
              "internalType": "address",
              "name": "inviter",
              "type": "address"
            },
            {
              "internalType": "address",
              "name": "secondLine",
              "type": "address"
            },
            {
              "internalType": "address",
              "name": "thirdLine",
              "type": "address"
            },
            {
              "internalType": "uint256",
              "name": "totalTickets",
              "type": "uint256"
            },
            {
              "internalType": "uint256",
              "name": "baseWeight",
              "type": "uint256"
            },
            {
              "internalType": "uint256",
              "name": "referralWeight",
              "type": "uint256"
            },
            {
              "internalType": "uint256",
              "name": "loyaltyWeight",
              "type": "uint256"
            },
            {
              "internalType": "uint256",
              "name": "matrixWeight",
              "type": "uint256"
            },
            {
              "internalType": "uint256",
              "name": "nftWeight",
              "type": "uint256"
            },
            {
              "internalType": "uint256",
              "name": "totalWeight",
              "type": "uint256"
            },
            {
              "internalType": "uint256",
              "name": "boxTokens",
              "type": "uint256"
            },
            {
              "internalType": "uint256",
              "name": "recycleCount",
              "type": "uint256"
            },
            {
              "internalType": "uint256",
              "name": "claimableReferralBonus",
              "type": "uint256"
            },
            {
              "internalType": "uint256",
              "name": "claimablePrize",
              "type": "uint256"
            },
            {
              "internalType": "uint256",
              "name": "pendingPrize",
              "type": "uint256"
            },
            {
              "internalType": "uint256",
              "name": "joinedAt",
              "type": "uint256"
            },
            {
              "internalType": "uint256",
              "name": "lastActiveAt",
              "type": "uint256"
            }
          ],
          "internalType": "struct Player",
          "name": "",
          "type": "tuple"
        }
      ],
      "stateMutability": "view",
      "type": "function"
    },
    {
      "inputs": [
        {
          "internalType": "address",
          "name": "playerAddress",
          "type": "address"
        },
        {
          "internalType": "uint8",
          "name": "level",
          "type": "uint8"
        }
      ],
      "name": "getPlayerChance",
      "outputs": [
        {
          "internalType": "uint256",
          "name": "chanceBps",
          "type": "uint256"
        }
      ],
      "stateMutability": "view",
      "type": "function"
    },
    {
      "inputs": [
        {
          "internalType": "address",
          "name": "playerAddress",
          "type": "address"
        },
        {
          "internalType": "uint8",
          "name": "level",
          "type": "uint8"
        }
      ],
      "name": "getPlayerLevel",
      "outputs": [
        {
          "internalType": "bool",
          "name": "active",
          "type": "bool"
        },
        {
          "internalType": "bool",
          "name": "frozen",
          "type": "bool"
        },
        {
          "internalType": "uint256",
          "name": "cycles",
          "type": "uint256"
        },
        {
          "internalType": "uint256",
          "name": "positionId",
          "type": "uint256"
        },
        {
          "internalType": "uint256",
          "name": "earned",
          "type": "uint256"
        }
      ],
      "stateMutability": "view",
      "type": "function"
    },
    {
      "inputs": [
        {
          "internalType": "address",
          "name": "playerAddress",
          "type": "address"
        },
        {
          "internalType": "uint8",
          "name": "level",
          "type": "uint8"
        }
      ],
      "name": "getPlayerLevelFull",
      "outputs": [
        {
          "components": [
            {
              "internalType": "bool",
              "name": "active",
              "type": "bool"
            },
            {
              "internalType": "bool",
              "name": "frozen",
              "type": "bool"
            },
            {
              "internalType": "uint256",
              "name": "tickets",
              "type": "uint256"
            },
            {
              "internalType": "uint256",
              "name": "cellId",
              "type": "uint256"
            },
            {
              "internalType": "uint256",
              "name": "parentCellId",
              "type": "uint256"
            },
            {
              "internalType": "uint256",
              "name": "leftChildCellId",
              "type": "uint256"
            },
            {
              "internalType": "uint256",
              "name": "rightChildCellId",
              "type": "uint256"
            },
            {
              "internalType": "uint256",
              "name": "cycleCount",
              "type": "uint256"
            },
            {
              "internalType": "uint256",
              "name": "levelWeight",
              "type": "uint256"
            },
            {
              "internalType": "uint256",
              "name": "claimablePrize",
              "type": "uint256"
            },
            {
              "internalType": "uint256",
              "name": "pendingPrize",
              "type": "uint256"
            }
          ],
          "internalType": "struct PlayerLevel",
          "name": "",
          "type": "tuple"
        }
      ],
      "stateMutability": "view",
      "type": "function"
    },
    {
      "inputs": [
        {
          "internalType": "address",
          "name": "playerAddress",
          "type": "address"
        },
        {
          "internalType": "uint8",
          "name": "level",
          "type": "uint8"
        }
      ],
      "name": "getPlayerPosition",
      "outputs": [
        {
          "internalType": "uint256",
          "name": "positionId",
          "type": "uint256"
        },
        {
          "internalType": "uint256",
          "name": "parentId",
          "type": "uint256"
        },
        {
          "internalType": "uint256",
          "name": "leftChildId",
          "type": "uint256"
        },
        {
          "internalType": "uint256",
          "name": "rightChildId",
          "type": "uint256"
        },
        {
          "internalType": "uint256",
          "name": "depth",
          "type": "uint256"
        },
        {
          "internalType": "bool",
          "name": "closed",
          "type": "bool"
        }
      ],
      "stateMutability": "view",
      "type": "function"
    },
    {
      "inputs": [
        {
          "internalType": "address",
          "name": "playerAddress",
          "type": "address"
        },
        {
          "internalType": "uint256",
          "name": "roundId",
          "type": "uint256"
        }
      ],
      "name": "getPlayerRound",
      "outputs": [
        {
          "components": [
            {
              "internalType": "bool",
              "name": "active",
              "type": "bool"
            },
            {
              "internalType": "bool",
              "name": "frozen",
              "type": "bool"
            },
            {
              "internalType": "uint8",
              "name": "level",
              "type": "uint8"
            },
            {
              "internalType": "uint256",
              "name": "tickets",
              "type": "uint256"
            },
            {
              "internalType": "uint256",
              "name": "cellId",
              "type": "uint256"
            },
            {
              "internalType": "uint256",
              "name": "parentCellId",
              "type": "uint256"
            },
            {
              "internalType": "uint256",
              "name": "leftChildCellId",
              "type": "uint256"
            },
            {
              "internalType": "uint256",
              "name": "rightChildCellId",
              "type": "uint256"
            },
            {
              "internalType": "uint256",
              "name": "cycleCount",
              "type": "uint256"
            },
            {
              "internalType": "uint256",
              "name": "totalWeight",
              "type": "uint256"
            },
            {
              "internalType": "uint256",
              "name": "claimablePrize",
              "type": "uint256"
            },
            {
              "internalType": "uint256",
              "name": "pendingPrize",
              "type": "uint256"
            },
            {
              "internalType": "uint256",
              "name": "claimablePrizeUsdc",
              "type": "uint256"
            },
            {
              "internalType": "uint256",
              "name": "pendingPrizeUsdc",
              "type": "uint256"
            }
          ],
          "internalType": "struct PlayerRound",
          "name": "",
          "type": "tuple"
        }
      ],
      "stateMutability": "view",
      "type": "function"
    },
    {
      "inputs": [
        {
          "internalType": "address",
          "name": "playerAddress",
          "type": "address"
        },
        {
          "internalType": "uint8",
          "name": "level",
          "type": "uint8"
        }
      ],
      "name": "getPlayerTokenRewards",
      "outputs": [
        {
          "internalType": "uint256",
          "name": "referralBonus",
          "type": "uint256"
        },
        {
          "internalType": "uint256",
          "name": "claimablePrize",
          "type": "uint256"
        },
        {
          "internalType": "uint256",
          "name": "pendingPrize",
          "type": "uint256"
        }
      ],
      "stateMutability": "view",
      "type": "function"
    },
    {
      "inputs": [
        {
          "internalType": "address",
          "name": "playerAddress",
          "type": "address"
        },
        {
          "internalType": "uint8",
          "name": "level",
          "type": "uint8"
        }
      ],
      "name": "getPlayerWeight",
      "outputs": [
        {
          "internalType": "uint256",
          "name": "",
          "type": "uint256"
        }
      ],
      "stateMutability": "view",
      "type": "function"
    },
    {
      "inputs": [
        {
          "internalType": "uint256",
          "name": "roundId",
          "type": "uint256"
        }
      ],
      "name": "getRoundGameStats",
      "outputs": [
        {
          "internalType": "uint256",
          "name": "prizePoolEth",
          "type": "uint256"
        },
        {
          "internalType": "uint256",
          "name": "prizePoolUsdc",
          "type": "uint256"
        },
        {
          "internalType": "uint256",
          "name": "totalWeight",
          "type": "uint256"
        },
        {
          "internalType": "uint256",
          "name": "activeCells",
          "type": "uint256"
        },
        {
          "internalType": "uint256",
          "name": "nextCell",
          "type": "uint256"
        },
        {
          "internalType": "uint256",
          "name": "nextOpenParent",
          "type": "uint256"
        }
      ],
      "stateMutability": "view",
      "type": "function"
    },
    {
      "inputs": [
        {
          "internalType": "uint256",
          "name": "roundId",
          "type": "uint256"
        },
        {
          "internalType": "uint256",
          "name": "cellId",
          "type": "uint256"
        }
      ],
      "name": "getRoundMatrixNode",
      "outputs": [
        {
          "components": [
            {
              "internalType": "uint256",
              "name": "cellId",
              "type": "uint256"
            },
            {
              "internalType": "address",
              "name": "player",
              "type": "address"
            },
            {
              "internalType": "uint8",
              "name": "level",
              "type": "uint8"
            },
            {
              "internalType": "uint256",
              "name": "parentCellId",
              "type": "uint256"
            },
            {
              "internalType": "uint256",
              "name": "leftChildCellId",
              "type": "uint256"
            },
            {
              "internalType": "uint256",
              "name": "rightChildCellId",
              "type": "uint256"
            },
            {
              "internalType": "bool",
              "name": "closed",
              "type": "bool"
            },
            {
              "internalType": "bool",
              "name": "prizeCell",
              "type": "bool"
            }
          ],
          "internalType": "struct MatrixNode",
          "name": "",
          "type": "tuple"
        }
      ],
      "stateMutability": "view",
      "type": "function"
    },
    {
      "inputs": [
        {
          "internalType": "address",
          "name": "playerAddress",
          "type": "address"
        },
        {
          "internalType": "uint8",
          "name": "level",
          "type": "uint8"
        }
      ],
      "name": "isLevelActive",
      "outputs": [
        {
          "internalType": "bool",
          "name": "",
          "type": "bool"
        }
      ],
      "stateMutability": "view",
      "type": "function"
    },
    {
      "inputs": [
        {
          "internalType": "address",
          "name": "playerAddress",
          "type": "address"
        },
        {
          "internalType": "uint8",
          "name": "level",
          "type": "uint8"
        }
      ],
      "name": "isLevelFrozen",
      "outputs": [
        {
          "internalType": "bool",
          "name": "",
          "type": "bool"
        }
      ],
      "stateMutability": "view",
      "type": "function"
    },
    {
      "inputs": [],
      "name": "legacyActivationEnabled",
      "outputs": [
        {
          "internalType": "bool",
          "name": "",
          "type": "bool"
        }
      ],
      "stateMutability": "view",
      "type": "function"
    },
    {
      "inputs": [
        {
          "internalType": "uint8",
          "name": "",
          "type": "uint8"
        }
      ],
      "name": "levelAvailable",
      "outputs": [
        {
          "internalType": "bool",
          "name": "",
          "type": "bool"
        }
      ],
      "stateMutability": "view",
      "type": "function"
    },
    {
      "inputs": [
        {
          "internalType": "uint8",
          "name": "",
          "type": "uint8"
        }
      ],
      "name": "levelMatrixSize",
      "outputs": [
        {
          "internalType": "uint256",
          "name": "",
          "type": "uint256"
        }
      ],
      "stateMutability": "view",
      "type": "function"
    },
    {
      "inputs": [
        {
          "internalType": "uint8",
          "name": "",
          "type": "uint8"
        }
      ],
      "name": "levelPrices",
      "outputs": [
        {
          "internalType": "uint256",
          "name": "",
          "type": "uint256"
        }
      ],
      "stateMutability": "view",
      "type": "function"
    },
    {
      "inputs": [
        {
          "internalType": "uint8",
          "name": "",
          "type": "uint8"
        }
      ],
      "name": "levelPricesUsdc",
      "outputs": [
        {
          "internalType": "uint256",
          "name": "",
          "type": "uint256"
        }
      ],
      "stateMutability": "view",
      "type": "function"
    },
    {
      "inputs": [
        {
          "internalType": "uint8",
          "name": "",
          "type": "uint8"
        },
        {
          "internalType": "uint256",
          "name": "",
          "type": "uint256"
        }
      ],
      "name": "matrixNodes",
      "outputs": [
        {
          "internalType": "uint256",
          "name": "cellId",
          "type": "uint256"
        },
        {
          "internalType": "address",
          "name": "player",
          "type": "address"
        },
        {
          "internalType": "uint8",
          "name": "level",
          "type": "uint8"
        },
        {
          "internalType": "uint256",
          "name": "parentCellId",
          "type": "uint256"
        },
        {
          "internalType": "uint256",
          "name": "leftChildCellId",
          "type": "uint256"
        },
        {
          "internalType": "uint256",
          "name": "rightChildCellId",
          "type": "uint256"
        },
        {
          "internalType": "bool",
          "name": "closed",
          "type": "bool"
        },
        {
          "internalType": "bool",
          "name": "prizeCell",
          "type": "bool"
        }
      ],
      "stateMutability": "view",
      "type": "function"
    },
    {
      "inputs": [
        {
          "internalType": "uint8",
          "name": "",
          "type": "uint8"
        }
      ],
      "name": "matrixPrizePools",
      "outputs": [
        {
          "internalType": "uint256",
          "name": "",
          "type": "uint256"
        }
      ],
      "stateMutability": "view",
      "type": "function"
    },
    {
      "inputs": [
        {
          "internalType": "uint8",
          "name": "",
          "type": "uint8"
        }
      ],
      "name": "matrixPrizePoolsUsdc",
      "outputs": [
        {
          "internalType": "uint256",
          "name": "",
          "type": "uint256"
        }
      ],
      "stateMutability": "view",
      "type": "function"
    },
    {
      "inputs": [
        {
          "internalType": "uint8",
          "name": "",
          "type": "uint8"
        }
      ],
      "name": "nextCellId",
      "outputs": [
        {
          "internalType": "uint256",
          "name": "",
          "type": "uint256"
        }
      ],
      "stateMutability": "view",
      "type": "function"
    },
    {
      "inputs": [
        {
          "internalType": "uint8",
          "name": "",
          "type": "uint8"
        }
      ],
      "name": "nextOpenParentCellId",
      "outputs": [
        {
          "internalType": "uint256",
          "name": "",
          "type": "uint256"
        }
      ],
      "stateMutability": "view",
      "type": "function"
    },
    {
      "inputs": [],
      "name": "operatorWallet",
      "outputs": [
        {
          "internalType": "address",
          "name": "",
          "type": "address"
        }
      ],
      "stateMutability": "view",
      "type": "function"
    },
    {
      "inputs": [],
      "name": "owner",
      "outputs": [
        {
          "internalType": "address",
          "name": "",
          "type": "address"
        }
      ],
      "stateMutability": "view",
      "type": "function"
    },
    {
      "inputs": [
        {
          "internalType": "address",
          "name": "",
          "type": "address"
        }
      ],
      "name": "pendingPrizeUsdc",
      "outputs": [
        {
          "internalType": "uint256",
          "name": "",
          "type": "uint256"
        }
      ],
      "stateMutability": "view",
      "type": "function"
    },
    {
      "inputs": [
        {
          "internalType": "address",
          "name": "",
          "type": "address"
        },
        {
          "internalType": "uint8",
          "name": "",
          "type": "uint8"
        }
      ],
      "name": "pendingPrizeUsdcByLevel",
      "outputs": [
        {
          "internalType": "uint256",
          "name": "",
          "type": "uint256"
        }
      ],
      "stateMutability": "view",
      "type": "function"
    },
    {
      "inputs": [
        {
          "internalType": "address",
          "name": "",
          "type": "address"
        },
        {
          "internalType": "uint8",
          "name": "",
          "type": "uint8"
        }
      ],
      "name": "playerLevels",
      "outputs": [
        {
          "internalType": "bool",
          "name": "active",
          "type": "bool"
        },
        {
          "internalType": "bool",
          "name": "frozen",
          "type": "bool"
        },
        {
          "internalType": "uint256",
          "name": "tickets",
          "type": "uint256"
        },
        {
          "internalType": "uint256",
          "name": "cellId",
          "type": "uint256"
        },
        {
          "internalType": "uint256",
          "name": "parentCellId",
          "type": "uint256"
        },
        {
          "internalType": "uint256",
          "name": "leftChildCellId",
          "type": "uint256"
        },
        {
          "internalType": "uint256",
          "name": "rightChildCellId",
          "type": "uint256"
        },
        {
          "internalType": "uint256",
          "name": "cycleCount",
          "type": "uint256"
        },
        {
          "internalType": "uint256",
          "name": "levelWeight",
          "type": "uint256"
        },
        {
          "internalType": "uint256",
          "name": "claimablePrize",
          "type": "uint256"
        },
        {
          "internalType": "uint256",
          "name": "pendingPrize",
          "type": "uint256"
        }
      ],
      "stateMutability": "view",
      "type": "function"
    },
    {
      "inputs": [
        {
          "internalType": "address",
          "name": "",
          "type": "address"
        },
        {
          "internalType": "uint256",
          "name": "",
          "type": "uint256"
        }
      ],
      "name": "playerRounds",
      "outputs": [
        {
          "internalType": "bool",
          "name": "active",
          "type": "bool"
        },
        {
          "internalType": "bool",
          "name": "frozen",
          "type": "bool"
        },
        {
          "internalType": "uint8",
          "name": "level",
          "type": "uint8"
        },
        {
          "internalType": "uint256",
          "name": "tickets",
          "type": "uint256"
        },
        {
          "internalType": "uint256",
          "name": "cellId",
          "type": "uint256"
        },
        {
          "internalType": "uint256",
          "name": "parentCellId",
          "type": "uint256"
        },
        {
          "internalType": "uint256",
          "name": "leftChildCellId",
          "type": "uint256"
        },
        {
          "internalType": "uint256",
          "name": "rightChildCellId",
          "type": "uint256"
        },
        {
          "internalType": "uint256",
          "name": "cycleCount",
          "type": "uint256"
        },
        {
          "internalType": "uint256",
          "name": "totalWeight",
          "type": "uint256"
        },
        {
          "internalType": "uint256",
          "name": "claimablePrize",
          "type": "uint256"
        },
        {
          "internalType": "uint256",
          "name": "pendingPrize",
          "type": "uint256"
        },
        {
          "internalType": "uint256",
          "name": "claimablePrizeUsdc",
          "type": "uint256"
        },
        {
          "internalType": "uint256",
          "name": "pendingPrizeUsdc",
          "type": "uint256"
        }
      ],
      "stateMutability": "view",
      "type": "function"
    },
    {
      "inputs": [
        {
          "internalType": "address",
          "name": "",
          "type": "address"
        }
      ],
      "name": "players",
      "outputs": [
        {
          "internalType": "bool",
          "name": "exists",
          "type": "bool"
        },
        {
          "internalType": "address",
          "name": "wallet",
          "type": "address"
        },
        {
          "internalType": "address",
          "name": "inviter",
          "type": "address"
        },
        {
          "internalType": "address",
          "name": "secondLine",
          "type": "address"
        },
        {
          "internalType": "address",
          "name": "thirdLine",
          "type": "address"
        },
        {
          "internalType": "uint256",
          "name": "totalTickets",
          "type": "uint256"
        },
        {
          "internalType": "uint256",
          "name": "baseWeight",
          "type": "uint256"
        },
        {
          "internalType": "uint256",
          "name": "referralWeight",
          "type": "uint256"
        },
        {
          "internalType": "uint256",
          "name": "loyaltyWeight",
          "type": "uint256"
        },
        {
          "internalType": "uint256",
          "name": "matrixWeight",
          "type": "uint256"
        },
        {
          "internalType": "uint256",
          "name": "nftWeight",
          "type": "uint256"
        },
        {
          "internalType": "uint256",
          "name": "totalWeight",
          "type": "uint256"
        },
        {
          "internalType": "uint256",
          "name": "boxTokens",
          "type": "uint256"
        },
        {
          "internalType": "uint256",
          "name": "recycleCount",
          "type": "uint256"
        },
        {
          "internalType": "uint256",
          "name": "claimableReferralBonus",
          "type": "uint256"
        },
        {
          "internalType": "uint256",
          "name": "claimablePrize",
          "type": "uint256"
        },
        {
          "internalType": "uint256",
          "name": "pendingPrize",
          "type": "uint256"
        },
        {
          "internalType": "uint256",
          "name": "joinedAt",
          "type": "uint256"
        },
        {
          "internalType": "uint256",
          "name": "lastActiveAt",
          "type": "uint256"
        }
      ],
      "stateMutability": "view",
      "type": "function"
    },
    {
      "inputs": [],
      "name": "projectFeesAccrued",
      "outputs": [
        {
          "internalType": "uint256",
          "name": "",
          "type": "uint256"
        }
      ],
      "stateMutability": "view",
      "type": "function"
    },
    {
      "inputs": [],
      "name": "projectFeesAccruedUsdc",
      "outputs": [
        {
          "internalType": "uint256",
          "name": "",
          "type": "uint256"
        }
      ],
      "stateMutability": "view",
      "type": "function"
    },
    {
      "inputs": [],
      "name": "projectWallet",
      "outputs": [
        {
          "internalType": "address",
          "name": "",
          "type": "address"
        }
      ],
      "stateMutability": "view",
      "type": "function"
    },
    {
      "inputs": [
        {
          "internalType": "uint256",
          "name": "roundId",
          "type": "uint256"
        }
      ],
      "name": "releaseRoundPools",
      "outputs": [
        {
          "internalType": "uint256",
          "name": "ethAmount",
          "type": "uint256"
        },
        {
          "internalType": "uint256",
          "name": "usdcAmount",
          "type": "uint256"
        }
      ],
      "stateMutability": "nonpayable",
      "type": "function"
    },
    {
      "inputs": [
        {
          "internalType": "uint256",
          "name": "",
          "type": "uint256"
        }
      ],
      "name": "roundActiveCells",
      "outputs": [
        {
          "internalType": "uint256",
          "name": "",
          "type": "uint256"
        }
      ],
      "stateMutability": "view",
      "type": "function"
    },
    {
      "inputs": [],
      "name": "roundManager",
      "outputs": [
        {
          "internalType": "address",
          "name": "",
          "type": "address"
        }
      ],
      "stateMutability": "view",
      "type": "function"
    },
    {
      "inputs": [
        {
          "internalType": "uint256",
          "name": "",
          "type": "uint256"
        },
        {
          "internalType": "uint256",
          "name": "",
          "type": "uint256"
        }
      ],
      "name": "roundMatrixNodes",
      "outputs": [
        {
          "internalType": "uint256",
          "name": "cellId",
          "type": "uint256"
        },
        {
          "internalType": "address",
          "name": "player",
          "type": "address"
        },
        {
          "internalType": "uint8",
          "name": "level",
          "type": "uint8"
        },
        {
          "internalType": "uint256",
          "name": "parentCellId",
          "type": "uint256"
        },
        {
          "internalType": "uint256",
          "name": "leftChildCellId",
          "type": "uint256"
        },
        {
          "internalType": "uint256",
          "name": "rightChildCellId",
          "type": "uint256"
        },
        {
          "internalType": "bool",
          "name": "closed",
          "type": "bool"
        },
        {
          "internalType": "bool",
          "name": "prizeCell",
          "type": "bool"
        }
      ],
      "stateMutability": "view",
      "type": "function"
    },
    {
      "inputs": [
        {
          "internalType": "uint256",
          "name": "",
          "type": "uint256"
        }
      ],
      "name": "roundNextCellId",
      "outputs": [
        {
          "internalType": "uint256",
          "name": "",
          "type": "uint256"
        }
      ],
      "stateMutability": "view",
      "type": "function"
    },
    {
      "inputs": [
        {
          "internalType": "uint256",
          "name": "",
          "type": "uint256"
        }
      ],
      "name": "roundNextOpenParentCellId",
      "outputs": [
        {
          "internalType": "uint256",
          "name": "",
          "type": "uint256"
        }
      ],
      "stateMutability": "view",
      "type": "function"
    },
    {
      "inputs": [
        {
          "internalType": "uint256",
          "name": "",
          "type": "uint256"
        }
      ],
      "name": "roundPrizePools",
      "outputs": [
        {
          "internalType": "uint256",
          "name": "",
          "type": "uint256"
        }
      ],
      "stateMutability": "view",
      "type": "function"
    },
    {
      "inputs": [
        {
          "internalType": "uint256",
          "name": "",
          "type": "uint256"
        }
      ],
      "name": "roundPrizePoolsUsdc",
      "outputs": [
        {
          "internalType": "uint256",
          "name": "",
          "type": "uint256"
        }
      ],
      "stateMutability": "view",
      "type": "function"
    },
    {
      "inputs": [
        {
          "internalType": "uint256",
          "name": "",
          "type": "uint256"
        }
      ],
      "name": "roundTotalWeight",
      "outputs": [
        {
          "internalType": "uint256",
          "name": "",
          "type": "uint256"
        }
      ],
      "stateMutability": "view",
      "type": "function"
    },
    {
      "inputs": [
        {
          "internalType": "bool",
          "name": "enabled",
          "type": "bool"
        }
      ],
      "name": "setLegacyActivationEnabled",
      "outputs": [],
      "stateMutability": "nonpayable",
      "type": "function"
    },
    {
      "inputs": [
        {
          "internalType": "uint8",
          "name": "level",
          "type": "uint8"
        },
        {
          "internalType": "bool",
          "name": "available",
          "type": "bool"
        }
      ],
      "name": "setLevelAvailable",
      "outputs": [],
      "stateMutability": "nonpayable",
      "type": "function"
    },
    {
      "inputs": [
        {
          "internalType": "uint8",
          "name": "level",
          "type": "uint8"
        },
        {
          "internalType": "uint256",
          "name": "newPrice",
          "type": "uint256"
        }
      ],
      "name": "setLevelPrice",
      "outputs": [],
      "stateMutability": "nonpayable",
      "type": "function"
    },
    {
      "inputs": [
        {
          "internalType": "uint8",
          "name": "level",
          "type": "uint8"
        },
        {
          "internalType": "uint256",
          "name": "newPrice",
          "type": "uint256"
        }
      ],
      "name": "setLevelPriceUSDC",
      "outputs": [],
      "stateMutability": "nonpayable",
      "type": "function"
    },
    {
      "inputs": [
        {
          "internalType": "address",
          "name": "newManager",
          "type": "address"
        }
      ],
      "name": "setRoundManager",
      "outputs": [],
      "stateMutability": "nonpayable",
      "type": "function"
    },
    {
      "inputs": [
        {
          "internalType": "address",
          "name": "newSettlement",
          "type": "address"
        }
      ],
      "name": "setSettlementContract",
      "outputs": [],
      "stateMutability": "nonpayable",
      "type": "function"
    },
    {
      "inputs": [
        {
          "internalType": "address",
          "name": "newToken",
          "type": "address"
        }
      ],
      "name": "setUsdcToken",
      "outputs": [],
      "stateMutability": "nonpayable",
      "type": "function"
    },
    {
      "inputs": [
        {
          "internalType": "address",
          "name": "newProjectWallet",
          "type": "address"
        },
        {
          "internalType": "address",
          "name": "newTreasuryWallet",
          "type": "address"
        },
        {
          "internalType": "address",
          "name": "newOperatorWallet",
          "type": "address"
        }
      ],
      "name": "setWallets",
      "outputs": [],
      "stateMutability": "nonpayable",
      "type": "function"
    },
    {
      "inputs": [],
      "name": "settlementContract",
      "outputs": [
        {
          "internalType": "address",
          "name": "",
          "type": "address"
        }
      ],
      "stateMutability": "view",
      "type": "function"
    },
    {
      "inputs": [
        {
          "internalType": "uint8",
          "name": "",
          "type": "uint8"
        }
      ],
      "name": "totalWeightByLevel",
      "outputs": [
        {
          "internalType": "uint256",
          "name": "",
          "type": "uint256"
        }
      ],
      "stateMutability": "view",
      "type": "function"
    },
    {
      "inputs": [
        {
          "internalType": "address",
          "name": "newOwner",
          "type": "address"
        }
      ],
      "name": "transferOwnership",
      "outputs": [],
      "stateMutability": "nonpayable",
      "type": "function"
    },
    {
      "inputs": [],
      "name": "treasuryWallet",
      "outputs": [
        {
          "internalType": "address",
          "name": "",
          "type": "address"
        }
      ],
      "stateMutability": "view",
      "type": "function"
    },
    {
      "inputs": [],
      "name": "usdcToken",
      "outputs": [
        {
          "internalType": "contract IERC20Minimal",
          "name": "",
          "type": "address"
        }
      ],
      "stateMutability": "view",
      "type": "function"
    },
    {
      "inputs": [],
      "name": "withdrawProjectFees",
      "outputs": [],
      "stateMutability": "nonpayable",
      "type": "function"
    },
    {
      "inputs": [],
      "name": "withdrawProjectFeesUSDC",
      "outputs": [],
      "stateMutability": "nonpayable",
      "type": "function"
    }
  ],
  "bytecode": "0x6080346200039d57601f62004c3b38819003918201601f1916830191906001600160401b03831184841017620003a2578160a092859260409586528339810103126200039d576200005082620003b8565b60206200006060208501620003b8565b906200006e848601620003b8565b6200008a60806200008260608901620003b8565b9701620003b8565b6001602b819055946001600160a01b039081169485156200038c5781169283156200038c5781169788156200038c5781169182156200038c57169081156200037b57859760018060a01b031993600096338689541617885585895416178855846002541617600255836003541617600355826006541617600655600491600454161760045560ff60a01b1960055416600555838352600760205266b1a2bc2ec50000858420556002835266f8b0a10e470000858420556003835267016345785d8a000085842055600483526701f161421c8e000085842055600583526702c68af0bb14000085842055600683526703e2c284391c0000858420556007835267058d15e17628000085842055600883526707a1fe1602770000858420556009808452670b1a2bc2ec50000086852055600a8452670f43fc2c04ee000086852055600b84526716345785d8a0000086852055600c8452671e87f85809dc000086852055600d8452672c68af0bb140000086852055600e8452673d0ff0b013b8000086852055600f8452675a34a38fc00a00008685205560108452676f05b59d3b200000868520556011926011855267a688906bd8b0000087862055858552600860205261c3508786205560028552620111708786205560038552620186a08786205560048552620222e0878620556005855262030d408786205560068552620445c0878620556007855262061a808786205560088552620864708786205560098552620c350087862055600a85526210c8e087862055600b855262186a0087862055600c8552622191c087862055600d85526230d40087862055600e85526243238087862055600f855262632ea08786205560108552627a1200878620556011855262b71b00878620556003975b6200032b575b865161486d9081620003ce8239f35b60ff881684811162000374578552818152868520805460ff19168717905560ff9788169788146200036157968501968562000316565b5050634e487b7160e01b83525260249150fd5b506200031c565b865163d92e233d60e01b8152600490fd5b875163d92e233d60e01b8152600490fd5b600080fd5b634e487b7160e01b600052604160045260246000fd5b51906001600160a01b03821682036200039d5756fe610100604052600436101561001357600080fd5b60003560e01c806303a65dfa1461370057806304eb2734146136cc5780630e475efd1461366a57806311eac8551461364157806313306da2146135c957806319a08594146135ac5780631a1478c314610c245780631d6a884b146135905780631e375ab9146134cb57806322fbfe801461345e578063249d39e91461344157806324bdc3a7146104c457806326728174146113c357806326e0cfe7146133d45780632768a49f146132f05780632e50d906146132bc5780632f5ced04146104f2578063306bf6bb146131d7578063308c6109146131ba57806331b161a71461046e578063333fedad146113c357806334601b8914612b645780633719fd0514612ada57806337a8af5014612aae5780633945dbde14612a855780633ac3684c14612a0c5780633d5efbae146129455780633f896dd9146127f957806340261fbb146126605780634626402b146126375780634a57c6d91461257c5780634ca3696c146124f15780634d69a4cd146124d55780634f51f1381461245b5780635042a91f1461243e57806350da23dc146104c457806351b7b69e1461241257806352ebb227146123d957806352f5c84e146123a55780635c12cd4b146121065780635c602d9e1461203e5780635d886f2214611f8b5780636793c2cd14611f185780636b09f53914611ede57806372d686bf14611ec157806375b7d7c114611e6257806375cb1bd114611ce75780637a7c7a6a14611c205780637c58894d146115e15780637dcda2d4146115b55780637f3255a814611598578063852f82991461157b57806386b8f4a1146115415780638b9844051461151b5780638c5b8ea5146114e75780638d2724f9146114b35780638da5cb5b1461148a5780638eb657c4146113c857806390f7c71a146113c357806394cecff8146113415780639b3728e81461046e5780639fef686214611325578063a03d82ec1461114d578063a0978ac2146110b0578063ab4847b414610f66578063b70258be14610f3a578063b75b688b14610eb1578063b93703ef14610e85578063b9aee26314610e3b578063bea9903514610dea578063beb08ab914610dc1578063c05db4ce14610d8d578063c236d48f14610d61578063c7fcb8c314610d27578063c864ce5614610c29578063c8f17ce314610c24578063c963ba1d14610bd4578063ce9fffaa14610ba0578063d2a1608014610b4d578063dbba054014610b19578063e26f7c4614610afb578063e2eb41ff1461098f578063e78a6451146107ac578063e8a8bd5c14610778578063e9212a0f1461075c578063ea42418b14610733578063ed270c16146106a3578063edfae883146105bc578063f178fb1b146105a0578063f2fde38b146104f7578063f6d5f69a146104f2578063f90ef4ac146104c9578063f9335139146104c4578063f935c2d614610473578063f943cbc61461046e5763fa267c471461043d57600080fd5b346104695760203660031901126104695760043560005260196020526020604060002054604051908152f35b600080fd5b613837565b346104695760403660031901126104695761048c61375d565b610494613773565b9060018060a01b0316600052602560205260ff604060002091166000526020526020604060002054604051908152f35b6137e2565b34610469576000366003190112610469576003546040516001600160a01b039091168152602090f35b61381b565b346104695760203660031901126104695761051061375d565b600054906001600160a01b038083169161052b33841461391c565b1691821561056a576001600160a01b031916821760009081557f8be0079c531659141344cd1fd0a4f28419497f9722a3daafe3b4186f6b6457e09080a3005b60405162461bcd60e51b815260206004820152600e60248201526d13dddb995c881c995c5d5a5c995960921b6044820152606490fd5b34610469576000366003190112610469576020604051600a8152f35b34610469576000366003190112610469576105db6001602b5414613955565b6002602b553360005260226020526040600020548015610665576006546001600160a01b039061060e9082161515613992565b3360005260226020526000604081205561062d82338360065416613cf9565b60065416906040519081527f6212d3b8329f12cd207169548d7570de1a41c72473a7313c176c13641c39aab760203392a36001602b55005b60405162461bcd60e51b81526020600482015260166024820152754e6f205553444320726566657272616c20626f6e757360501b6044820152606490fd5b34610469576040366003190112610469576106bc613783565b6024359081151580920361046957602060ff7fdd552374405792741cb7e6993ca7e6dd5400b9e45e80ca256ac09db4009c89379261070560018060a01b0360005416331461391c565b61070e81613ddd565b16928360005260098252604060002060ff1981541660ff8316179055604051908152a2005b34610469576000366003190112610469576005546040516001600160a01b039091168152602090f35b3461046957600036600319011261046957602060405160048152f35b346104695760203660031901126104695760ff610793613783565b1660005260116020526020604060002054604051908152f35b34610469576040366003190112610469576107c561375d565b60006101a06040516107d681613a44565b8281528260208201528260408201528260608201528260808201528260a08201528260c08201528260e08201528261010082015282610120820152826101408201528261016082015282610180820152015260018060a01b0316600052601460205260406000206024356000526020526101c060406000206101a060405161085d81613a44565b600b83549360ff85161515835260ff8560081c161515602084015260ff8560101c1660408401526001810154606084015260028101546080840152600381015460a0840152600481015460c0840152600581015460e08401526006810154610100840152600781015461012084015260088101546101408401526009810154610160840152600a81015461018084015201548282015260ff60405193161515835260208101511515602084015260ff6040820151166040840152606081015160608401526080810151608084015260a081015160a084015260c081015160c084015260e081015160e084015261010081015161010084015261012081015161012084015261014081015161014084015261016081015161016084015261018081015161018084015201516101a0820152f35b34610469576020366003190112610469576001600160a01b036109b061375d565b16600052600b602052604060002080808080808080808080808080806011600f600e600d600c600b600a6009600860076006600560048d549d60018060a01b0360018201541660e052600260018060a01b03910154169e600360018060a01b03910154169f01549f01549f01549f01549f01549f01549f01549f01549f01549f01549f01549f01549f6010810154608052015460c05260405160a05260ff8116151560a0515260018060a01b039060081c16602060a051015260e051604060a0510152606060a0510152608060a051015260a08051015260c060a051015260e060a051015261010060a051015261012060a051015261014060a051015261016060a051015261018060a05101526101a060a05101526101c060a05101526101e060a051015261020060a051015260805161022060a051015260c05161024060a051015261026060a051f35b34610469576000366003190112610469576020602154604051908152f35b346104695760203660031901126104695760ff610b34613783565b1660005260136020526020604060002054604051908152f35b346104695760403660031901126104695760c0610b79610b6b61375d565b610b73613773565b90613bac565b936040939193519586526020860152604085015260608401526080830152151560a0820152f35b346104695760203660031901126104695760ff610bbb613783565b16600052600e6020526020604060002054604051908152f35b346104695760203660031901126104695760ff610bef613783565b610bf881613ddd565b16600052602a6020526020610c1c6040600020546029835260406000205490613ad9565b604051908152f35b6137a1565b346104695760208060031936011261046957610c43613783565b90610c526001602b5414613955565b6002602b55610c6082613ddd565b33600052600c815260ff604060002092169182600052815260086040600020610c8f60ff8254841c1615613a9b565b01908154918215610cf7579060007fe478efad2d93638c429f97678f2517efcafee26463eaf608c398b94a2510eab5925533600052600b8152600e604060002001610cdb848254613ad9565b9055610ce78333613c4d565b6040519283523392a36001602b55005b60405162461bcd60e51b81526004810183905260086024820152674e6f207072697a6560c01b6044820152606490fd5b34610469576020366003190112610469576001600160a01b03610d4861375d565b1660005260226020526020604060002054604051908152f35b346104695760203660031901126104695760043560005260166020526020604060002054604051908152f35b346104695760203660031901126104695760ff610da8613783565b16600052600a6020526020604060002054604051908152f35b34610469576000366003190112610469576001546040516001600160a01b039091168152602090f35b3461046957604036600319011261046957610e0361375d565b610e0b613773565b9060018060a01b0316600052602660205260ff604060002091166000526020526020604060002054604051908152f35b346104695760203660031901126104695760ff610e56613783565b610e5f81613ddd565b16600052601360205260408060002054600f602052816000205482519182526020820152f35b346104695760203660031901126104695760043560005260186020526020604060002054604051908152f35b3461046957604036600319011261046957610eca613783565b602490610ed960243591613ddd565b6007905b80821115610ef057602082604051908152f35b906001808201809211610f25571b6000198101908111610f105790610edd565b82634e487b7160e01b60005260116004526000fd5b83634e487b7160e01b60005260116004526000fd5b346104695760203660031901126104695760043560005260176020526020604060002054604051908152f35b3461046957610f74366138c0565b90610f7d613ae6565b5081158015611098575b61107b576000526015602052604060002090600052602052611077604060002060ff600560405192610fb884613a0c565b8054845282600182015460018060a01b038116602087015260a01c1660408501526002810154606085015260038101546080850152600481015460a08501520154818116151560c084015260081c16151560e08201526040519182918291909160e0806101008301948051845260018060a01b03602082015116602085015260ff6040820151166040850152606081015160608501526080810151608085015260a081015160a085015260c0810151151560c085015201511515910152565b0390f35b60449160405191631f06e1dd60e31b835260048301526024820152fd5b50806000526016602052604060002054821015610f87565b34610469576040366003190112610469576110c961375d565b6110d1613773565b906110db82613ddd565b60018060a01b0316600052600c60205260ff6040600020911660005260205260a060406000208054906006810154906111236002820154916009600882015491015490613b9f565b9160ff604051948181161515865260081c1615156020850152604084015260608301526080820152f35b3461046957602080600319360112610469576004356111706001602b5414613955565b6002602b556005546001600160a01b0390811633036112ee57602483826004541660405192838092636fd0763b60e11b82528760048301525afa9081156112e2576000916112ac575b5060088110156112965760040361125c5760409282600052601a8152836000205492601b8252846000205492601a8352600086812055601b8352600086812055611207858260055416613c4d565b61121b848260065416836005541690613cf9565b60055416907ff5dce8d14677f13040c40d084c873acb3bb2ff01d06a60cf69b3e81fcc1e35eb8680518781528686820152a36001602b558351928352820152f35b60405162461bcd60e51b8152600481018490526012602482015271526f756e64206973206e6f7420726561647960701b6044820152606490fd5b634e487b7160e01b600052602160045260246000fd5b90508381813d83116112db575b6112c38183613a60565b810103126104695751600881101561046957846111b9565b503d6112b9565b6040513d6000823e3d90fd5b60405162461bcd60e51b815260048101849052600f60248201526e13db9b1e481cd95d1d1b195b595b9d608a1b6044820152606490fd5b3461046957600036600319011261046957602060405160198152f35b346104695760403660031901126104695760ff61135c613783565b16600052600d60205260406000206024356000526020526040600020805490611077600182015491600281015493600382015491600560048201549101549260405196879660ff808760081c1696169460ff8260a01c169160018060a01b031690896138d6565b6137ff565b34610469576040366003190112610469576113e1613783565b602435906113fa60018060a01b0360005416331461391c565b61140381613ddd565b811561145157604060ff7f68cb741d0779160e141ccf5dd579423de44febc76c0edddcc6167807a3c16af79216928360005260076020528160002090808254925582519182526020820152a2005b60405162461bcd60e51b8152602060048201526011602482015270141c9a58d9481a5cc81c995c5d5a5c9959607a1b6044820152606490fd5b34610469576000366003190112610469576000546040516001600160a01b039091168152602090f35b346104695760203660031901126104695760ff6114ce613783565b1660005260126020526020604060002054604051908152f35b346104695760203660031901126104695760ff611502613783565b1660005260106020526020604060002054604051908152f35b3461046957600036600319011261046957602060ff60055460a01c166040519015158152f35b34610469576020366003190112610469576001600160a01b0361156261375d565b1660005260246020526020604060002054604051908152f35b346104695760003660031901126104695760206040516102588152f35b346104695760003660031901126104695760206040516101908152f35b34610469576040366003190112610469576020610c1c6115d361375d565b6115db613773565b90613b24565b6115ea36613854565b91906115fa6001602b5414613955565b6002602b556101408401353414801590611c13575b611c015760018060a01b03600454169160405192637db1594f60e01b8452853560048501526020860135602485015260ff61164c60408801613793565b16604485015261165e60608701613dac565b6001600160401b0390811660648601528061167b60808901613dac565b1660848601528061168e60a08901613dac565b1660a48601526116a060c08801613dac565b1660c485015260e086013563ffffffff8116809103610469576000859384602096819460e48301528a6116d66101008201613dc0565b61171461018061ffff938480941661010488015261012081013561012488015261014081013561014488015261016081013561016488015201613dc0565b166101848401526117286101a08d01613dc0565b166101a48301526102006101c4830152806102048301528061022493848401378181018301849052336101e4830152601f01601f191681010301925af180156112e257611bd6575b5060ff61177f60408401613dcf565b16600052600960205260ff6040600020541615611bb05733600052600b6020526117af6040600020913383613e14565b336000526014602052604060002060208301356000526020526040600020805460ff8116611b8e5760019182809262ff00006117ed60408901613dcf565b60101b169062ff00ff191617178155015560048101546001810181116119d55760010160048201556011429101556118353361182b60408401613dcf565b6020840135613f0b565b906118446020820135336141c1565b61185060408201613dcf565b9160006020830135600052601e60205260406000205491601f6020526040600020545b831080611b84575b156119eb576020848101356000818152601d808452604080832088845280865290832054939092529092526001600160a01b0316926118db916118bd86613efc565b95600052602052604060002060018060a01b03198154169055613efc565b918060005260146020526040600020602086013560005260205260406000209060ff82541661191f575b50506020840135600052601f602052604060002054611873565b60068201546001810181116119d557600101600683015580600052600b602052600c60406000200180546001810181116119d557600101905580600052600b602052600b60406000200180546001810181116119d55760010190556119886020870135826142ba565b61199660208701358261431e565b60066119a7828960208a0135613f0b565b9201549160405192835260208301526000805160206147f88339815191526040602088013593a38580611905565b634e487b7160e01b600052601160045260246000fd5b9190506020830135600052601e60205260406000205560ff611a0f60408401613dcf565b169060405190610140840135825260208201526000604082015260208301359060008051602061481883398151915260603392a4611d7e80340291341591348404148217156119d557612710809304926103b680340290348204148417156119d5578190049061025880340290348204148517156119d5578190049061019094853402953487041417156119d5576020940490611abd82611ab883611ab887611ab88c34613ad9565b613ad9565b9285850135600052601a86526040600020611ad9888254613b9f565b905533600052600b8652611b39836040600020611b068460018060a01b036001840154168b8b0135614523565b6002810154611b239086906001600160a01b03168a8c01356145e3565b600301546001600160a01b031687890135614689565b611b44848754613b9f565b865560405196875285870152604086015260608501526080840152600060a08401520135906000805160206147d883398151915260c03392a36001602b55005b506004821061187b565b60405163c45f473d60e01b815260208501356004820152336024820152604490fd5b6024611bbe60408401613dcf565b60ff60405191634a525d1b60e01b8352166004820152fd5b602090813d8311611bfa575b611bec8183613a60565b810103126104695782611770565b503d611be2565b6040516335f3c2a160e21b8152600490fd5b506101408401351561160f565b34610469576000366003190112610469576000546001600160a01b0390611c4a908216331461391c565b611c586001602b5414613955565b6002602b55602054908115611cb05760207f95334f2d4e98187a454807e6ec3da804af4da5c99357a7398e2cf2505ac882189160008255611c9d848260015416613c4d565b6001541692604051908152a26001602b55005b60405162461bcd60e51b815260206004820152600f60248201526e4e6f2070726f6a656374206665657360881b6044820152606490fd5b3461046957606036600319011261046957611d0061375d565b6024356001600160a01b0381811691829003610469576044359281841680940361046957611d338260005416331461391c565b168015611e23578115611de3578215611da357826060927fd2d452a5df03f60ff9bf0ef1fc3498af992b0b6165c03b2f792cf596ee96530a9460018060a01b03198481600154161760015582816002541617600255600354161760035560405192835260208301526040820152a1005b60405162461bcd60e51b815260206004820152601860248201527713dc195c985d1bdc881dd85b1b195d081c995c5d5a5c995960421b6044820152606490fd5b60405162461bcd60e51b8152602060048201526018602482015277151c99585cdd5c9e481dd85b1b195d081c995c5d5a5c995960421b6044820152606490fd5b60405162461bcd60e51b8152602060048201526017602482015276141c9bda9958dd081dd85b1b195d081c995c5d5a5c9959604a1b6044820152606490fd5b3461046957604036600319011261046957611e7b61375d565b611e83613773565b90611e8d82613ddd565b60018060a01b0316600052600c60205260ff60406000209116600052602052602060ff604060002054166040519015158152f35b34610469576000366003190112610469576020604051611d7e8152f35b34610469576020366003190112610469576001600160a01b03611eff61375d565b1660005260236020526020604060002054604051908152f35b3461046957611f26366138c0565b9060005260156020526040600020906000526020526040600020805490611077600182015491600281015493600382015491600560048201549101549260405196879660ff808760081c1696169460ff8260a01c169160018060a01b031690896138d6565b3461046957602036600319011261046957611fa461375d565b6000546001600160a01b03918291611fbf908316331461391c565b1690811561200357600680546001600160a01b031981168417909155167f750dce806a7083b5c48405b1310300e4aa4241d21c26cd1348ec6f81324aeb9f600080a3005b60405162461bcd60e51b81526020600482015260136024820152721554d110c81d1bdad95b881c995c5d5a5c9959606a1b6044820152606490fd5b346104695760403660031901126104695761205761375d565b61205f613773565b9060018060a01b0316600052600c60205260ff604060002091166000526020526101606040600020805490600181015490600281015460038201546004830154600584015490600685015492600786015494600960088801549701549760ff6040519a81811615158c5260081c16151560208b015260408a01526060890152608088015260a087015260c086015260e0850152610100840152610120830152610140820152f35b346104695760203660031901126104695761211f61375d565b600061024060405161213081613a28565b8281528260208201528260408201528260608201528260808201528260a08201528260c08201528260e08201528261010082015282610120820152826101408201528261016082015282610180820152826101a0820152826101c0820152826101e08201528261020082015282610220820152015260018060a01b0316600052600b60205261026060406000206102406040516121cc81613a28565b601183549360ff85161515835260018060a01b038560081c16602084015260018060a01b03600182015416604084015260018060a01b03600282015416606084015260018060a01b036003820154166080840152600481015460a0840152600581015460c0840152600681015460e0840152600781015461010084015260088101546101208401526009810154610140840152600a810154610160840152600b810154610180840152600c8101546101a0840152600d8101546101c0840152600e8101546101e0840152600f810154610200840152601081015461022084015201548282015260ff60405193161515835260018060a01b03602082015116602084015260018060a01b03604082015116604084015260018060a01b03606082015116606084015260018060a01b03608082015116608084015260a081015160a084015260c081015160c084015260e081015160e08401526101008101516101008401526101208101516101208401526101408101516101408401526101608101516101608401526101808101516101808401526101a08101516101a08401526101c08101516101c08401526101e08101516101e08401526102008101516102008401526102208101516102208401520151610240820152f35b346104695760203660031901126104695760ff6123c0613783565b16600052600f6020526020604060002054604051908152f35b346104695760203660031901126104695760ff6123f4613783565b166000526009602052602060ff604060002054166040519015158152f35b3461046957602036600319011261046957600435600052601a6020526020604060002054604051908152f35b346104695760003660031901126104695760206040516113888152f35b34610469576020806003193601126104695760c090600435600052601a815260406000205490601b81526040600020546019825260406000205460188352604060002054906016845260406000205492601785526040600020549460405196875286015260408501526060840152608083015260a0820152f35b3461046957600036600319011261046957602060405160148152f35b3461046957604036600319011261046957606061250c61375d565b612514613773565b9061251e82613ddd565b60018060a01b03168060005260209060228252604060002054926025835260ff604060002091169081600052835260406000205491600052602683526040600020906000528252604060002054916040519384528301526040820152f35b3461046957604036600319011261046957612595613783565b602435906125a1613ae6565b506125ab81613ddd565b8115158061261d575b156125e95760ff16600052600d602052604060002090600052602052611077604060002060ff600560405192610fb884613a0c565b60405162461bcd60e51b815260206004820152600c60248201526b125b9d985b1a590818d95b1b60a21b6044820152606490fd5b5060ff8116600052600e60205260406000205482106125b4565b34610469576000366003190112610469576002546040516001600160a01b039091168152602090f35b346104695760403660031901126104695761016061267c61375d565b610140612687613773565b9160405192612695846139da565b6000845260006020850152600060408501526000606085015260006080850152600060a0850152600060c0850152600060e08501526101009160008386015260008461012096828882015201526126eb82613ddd565b60018060a01b0316600052600c60205260ff604060002091166000526020526040600020926040519161271d836139da565b600985549560ff87161515855260ff8760081c1615156020860152600181015460408601526002810154606086015260038101546080860152600481015460a0860152600581015460c0860152600681015460e086015260078101548386015260088101548486015201548484015260ff60405195161515855260208301511515602086015260408301516040860152606083015160608601526080830151608086015260a083015160a086015260c083015160c086015260e083015160e0860152808301519085015280820151908401520151610140820152f35b346104695760208060031936011261046957612813613783565b906128226001602b5414613955565b6002602b5561283082613ddd565b6006546001600160a01b03906128499082161515613992565b33600052600c825260ff604060002093169283600052825261287660ff60406000205460081c1615613a9b565b33600052602582526040600020836000528252604060002054908115612910577fcb5b06c056856bb82784094d6a04f2cdd54a8ca5035447b87427f46c8d098131903360005260258452604060002085600052845260006040812055336000526023845260406000206128ea848254613ad9565b90556128fb83338360065416613cf9565b60065416926040519283523392a46001602b55005b60405162461bcd60e51b815260048101849052600d60248201526c4e6f2055534443207072697a6560981b6044820152606490fd5b346104695760403660031901126104695761295e613783565b6024359061297760018060a01b0360005416331461391c565b61298081613ddd565b81156129ce57604060ff7f3b7a8420bcf2581fac422a359ff730b951e902c11f27da90a7e97da9c068f9a69216928360005260086020528160002090808254925582519182526020820152a2005b60405162461bcd60e51b81526020600482015260166024820152751554d110c81c1c9a58d9481a5cc81c995c5d5a5c995960521b6044820152606490fd5b34610469576020366003190112610469576004358015158091036104695760207f59eee9122213289e523d1060fc23bf301e7d369abcb2a33ebf3496c81c614f9b91612a6360018060a01b0360005416331461391c565b6005805460ff60a01b191660a083901b60ff60a01b16179055604051908152a1005b34610469576000366003190112610469576004546040516001600160a01b039091168152602090f35b3461046957602036600319011261046957600435600052601b6020526020604060002054604051908152f35b3461046957602036600319011261046957612af361375d565b6000546001600160a01b03918291612b0e908316331461391c565b16908115612b5257600580546001600160a01b031981168417909155167fae0b527aec7be2a921fb601477f42ce68cfc9122d8c176909c55cd756e30dfd8600080a3005b60405163d92e233d60e01b8152600490fd5b3461046957612b7236613854565b9190612b826001602b5414613955565b6002602b55610160840135156131a8576006546040516323b872dd60e01b8152336004820152306024820152610160860135604482015290602090829060649082906000906001600160a01b03165af19081156112e257600091613179575b50156131675760018060a01b03600454169160405192637db1594f60e01b8452853560048501526020860135602485015260ff612c2060408801613793565b166044850152612c3260608701613dac565b6001600160401b03908116606486015280612c4f60808901613dac565b16608486015280612c6260a08901613dac565b1660a4860152612c7460c08801613dac565b1660c485015260e086013563ffffffff8116809103610469576000859384602096819460e48301528a612caa6101008201613dc0565b612ce861018061ffff938480941661010488015261012081013561012488015261014081013561014488015261016081013561016488015201613dc0565b16610184840152612cfc6101a08d01613dc0565b166101a48301526102006101c4830152806102048301528061022493848401378181018301849052336101e4830152601f01601f191681010301925af180156112e25761313c575b5060ff612d5360408401613dcf565b16600052600960205260ff6040600020541615611bb05733600052600b602052612d836040600020913383613e14565b336000526014602052604060002060208301356000526020526040600020805460ff8116611b8e5760019182809262ff0000612dc160408901613dcf565b60101b169062ff00ff191617178155015560048101546001810181116119d5576001016004820155601142910155612dff3361182b60408401613dcf565b90612e0e6020820135336141c1565b612e1a60408201613dcf565b9160006020830135600052601e60205260406000205491601f6020526040600020545b831080613132575b15612f81576020848101356000818152601d808452604080832088845280865290832054939092529092526001600160a01b031692612e87916118bd86613efc565b918060005260146020526040600020602086013560005260205260406000209060ff825416612ecb575b50506020840135600052601f602052604060002054612e3d565b60068201546001810181116119d557600101600683015580600052600b602052600c60406000200180546001810181116119d557600101905580600052600b602052600b60406000200180546001810181116119d5576001019055612f346020870135826142ba565b612f4260208701358261431e565b6006612f53828960208a0135613f0b565b9201549160405192835260208301526000805160206147f88339815191526040602088013593a38580612eb1565b9190506020830135600052601e60205260406000205560ff612fa560408401613dcf565b169060405190610160840135825260208201526001604082015260208301359060008051602061481883398151915260603392a4610160810135611d7e810290611d7d19908204016119d55761271090819004916101608101356103b68102906103b519908204016119d55782900461016082013561025881029061025719908204016119d557839004610190938461016085013502946101608501358604036119d557602094049061306982611ab883611ab887611ab88c6101608c0135613ad9565b9285850135600052601b86526040600020613085888254613b9f565b905533600052600b86526130e58360406000206130b28460018060a01b036001840154168b8b01356144ae565b60028101546130cf9086906001600160a01b03168a8c013561458e565b600301546001600160a01b031687890135614634565b6130f184602154613b9f565b60215560405196875285870152604086015260608501526080840152600160a08401520135906000805160206147d883398151915260c03392a36001602b55005b5060048210612e45565b602090813d8311613160575b6131528183613a60565b810103126104695782612d44565b503d613148565b60405163022e258160e11b8152600490fd5b61319b915060203d6020116131a1575b6131938183613a60565b810190613a83565b85612be1565b503d613189565b6040516304c1050d60e01b8152600490fd5b346104695760003660031901126104695760206040516103b68152f35b34610469576000366003190112610469576000546001600160a01b0390613201908216331461391c565b61320f6001602b5414613955565b6002602b55806006541690613225821515613992565b6021549182156132805782613244916000602155836001541690613cf9565b7f6f09a29fa95e6ca2c4c5b55c121d7269faf4d531e64e23d432f03e95bb6caa4760208260065416926001541693604051908152a36001602b55005b60405162461bcd60e51b81526020600482015260146024820152734e6f20555344432070726f6a656374206665657360601b6044820152606490fd5b346104695760203660031901126104695760ff6132d7613783565b1660005260076020526020604060002054604051908152f35b34610469576040366003190112610469576001600160a01b0361331161375d565b16600052601460205260406000206024356000526020526101c060406000208054906001810154906002810154600382015460048301546005840154600685015490600786015492600887015494600988015496600b600a8a01549901549960ff6040519c8d828216151590528d6020838360081c16151591015260101c1660408d015260608c015260808b015260a08a015260c089015260e08801526101008701526101208601526101408501526101608401526101808301526101a0820152f35b34610469576020806003193601126104695760ff6133f0613783565b6133f981613ddd565b166000526011815260406000205460128252611077604060002054926013815260406000205490600f8152600e604060002054915260406000205491604051958695866137be565b346104695760003660031901126104695760206040516127108152f35b34610469576020806003193601126104695760ff61347a613783565b61348381613ddd565b166000526010815260406000205460128252611077604060002054926013815260406000205490600f8152600e604060002054915260406000205491604051958695866137be565b34610469576000366003190112610469576134ea6001602b5414613955565b6002602b5533600052600b602052600d6040600020015480156135575733600052600b6020526000600d6040822001556135248133613c4d565b6040519081527f53473e2a2e0cc6840d80567f104277ea6daa0891e5316836bac38a686b79ea3360203392a26001602b55005b60405162461bcd60e51b81526020600482015260116024820152704e6f20726566657272616c20626f6e757360781b6044820152606490fd5b3461046957600036600319011261046957602060405160118152f35b346104695760003660031901126104695760208054604051908152f35b34610469576020366003190112610469576135e261375d565b6000546001600160a01b039182916135fd908316331461391c565b16908115612b5257600480546001600160a01b031981168417909155167f57b8ff42eaa81bfce68c6ad04d5bf2c7ebca554a63b0ece2bb301a0b2eff716d600080a3005b34610469576000366003190112610469576006546040516001600160a01b039091168152602090f35b346104695760403660031901126104695761368361375d565b61368b613773565b9061369582613ddd565b60018060a01b0316600052600c60205260ff60406000209116600052602052602060ff60406000205460081c166040519015158152f35b346104695760203660031901126104695760ff6136e7613783565b1660005260086020526020604060002054604051908152f35b346104695760403660031901126104695761371961375d565b613721613773565b9061372b82613ddd565b60018060a01b0316600052600c60205260ff604060002091166000526020526020600760406000200154604051908152f35b600435906001600160a01b038216820361046957565b6024359060ff8216820361046957565b6004359060ff8216820361046957565b359060ff8216820361046957565b346104695760003660031901126104695760206040516107d08152f35b9192608093969594919660a084019784526020840152604083015260608201520152565b346104695760003660031901126104695760206040516101f48152f35b3461046957600036600319011261046957602060405160648152f35b3461046957600036600319011261046957602060405160328152f35b346104695760003660031901126104695760206040516103e88152f35b60031981016102008112610469576101c013610469576004916001600160401b03916101c43590838211610469578060238301121561046957816004013593841161046957602484830101116104695760240191906101e4356001600160a01b03811681036104695790565b6040906003190112610469576004359060243590565b9693909897949160e0969360ff916101008a019b8a5260018060a01b031660208a01521660408801526060870152608086015260a0850152151560c08401521515910152565b1561392357565b60405162461bcd60e51b815260206004820152600a60248201526927b7363c9037bbb732b960b11b6044820152606490fd5b1561395c57565b60405162461bcd60e51b815260206004820152600e60248201526d1499595b9d1c985b9d0818d85b1b60921b6044820152606490fd5b1561399957565b60405162461bcd60e51b81526020600482015260196024820152781554d110c81d1bdad95b881b9bdd0818dbdb999a59dd5c9959603a1b6044820152606490fd5b61016081019081106001600160401b038211176139f657604052565b634e487b7160e01b600052604160045260246000fd5b61010081019081106001600160401b038211176139f657604052565b61026081019081106001600160401b038211176139f657604052565b6101c081019081106001600160401b038211176139f657604052565b601f909101601f19168101906001600160401b038211908210176139f657604052565b90816020910312610469575180151581036104695790565b15613aa257565b60405162461bcd60e51b815260206004820152600f60248201526e2632bb32b61034b990333937bd32b760891b6044820152606490fd5b919082039182116119d557565b60405190613af382613a0c565b8160e06000918281528260208201528260408201528260608201528260808201528260a08201528260c08201520152565b9060ff90613b3181613ddd565b1660009080825260126020526040822054928315613b985760018060a01b03168252600c6020526040822090825260205260076040822001549061271091828102928184041490151715613b8457500490565b634e487b7160e01b81526011600452602490fd5b5050905090565b919082018092116119d557565b9190613bb781613ddd565b60009260018060a01b03168352600c60205260ff60408420911683526020526002604083200154918215613c4057600d602052604081208382526020526040812080546002820154946003830154916004840154915b600180821115613c28571c94613c2290613efc565b94613c0d565b50509194909392600560ff9101541691959493929190565b8092509180918180918190565b8115613cf557600080808094819460018060a01b03165af1903d15613cef573d906001600160401b038211613cdb5760405191613c94601f8201601f191660200184613a60565b825260203d92013e5b15613ca457565b60405162461bcd60e51b815260206004820152600f60248201526e151c985b9cd9995c8819985a5b1959608a1b6044820152606490fd5b634e487b7160e01b81526041600452602490fd5b50613c9d565b5050565b8215613da75760405163a9059cbb60e01b81526001600160a01b039283166004820152602481019390935260209183916044918391600091165af19081156112e257600091613d88575b5015613d4b57565b60405162461bcd60e51b8152602060048201526015602482015274151bdad95b881d1c985b9cd9995c8819985a5b1959605a1b6044820152606490fd5b613da1915060203d6020116131a1576131938183613a60565b38613d43565b505050565b35906001600160401b038216820361046957565b359061ffff8216820361046957565b3560ff811681036104695790565b60ff16600181108015613e0a575b613df25750565b60249060405190633d98c85560e21b82526004820152fd5b5060118111613deb565b91825460ff8116613ef6576001600160a81b031916600883901b610100600160a81b03161760011783554260108401556001600160a01b039081169182151590829082613ee9575b505080613ed1575b613e6d57505050565b6003600184019260018060a01b03199381858254161790556000908152600b60205282806001604084200154166002870181878254161790558015600014613ebf575050935b01921690825416179055565b82526040909120600101541693613eb3565b5081600052600b60205260ff60406000205416613e64565b1683141590508138613e5c565b50505050565b60001981146119d55760010190565b929091600093808552601693602060168152604093848820948554156141b8575b855495613f3887613efc565b905585986001988988146000146141af5781935b878352601591601587528484208a85528752848420918a83558c830160018060a01b03809216998a82549160ff60a01b9060a01b169160018060a81b03191617179055866002840155600580930161ff00198154169055888552601488528585208a865288528660038787208d60028201550155601888528c868620805491820180921161419b5755866140a4575b5088845260178752848420549b8c1561409c575b929190835b61404e575b5050505081869798997f19a57ce1df8ff5b43fd57ebc398733d14bbb0da3e683f28c5b0e32955d8d19c8969783526016865281832054811060001461404757915b60178652205551908152a4565b508161403a565b9091929b89855281885285852054811080614082575b1561407c5761407290613efc565b9b92919083613ff4565b9b613ff9565b50838852858520818652885260ff83878720015416614064565b9b508b613fef565b8985526015885285852087865288528c8686208c600382018054156000146140e75755015416845260148752848420898552875289600486862001555b38613fdb565b505090506004810180541560001461417e57908c8f9255600581018260ff1982541617905501818154168652601489528686208b875289528b600588882001555416601f88528585205490601d895286862082875289528686209060018060a01b03198254161790558c810180911161416a57898552601f8852858520556140e1565b634e487b7160e01b85526011600452602485fd5b60448c8a8a5191630cc237c760e31b835260048301526024820152fd5b634e487b7160e01b87526011600452602487fd5b878a1c93613f4c565b60018655613f2c565b6001600160a01b0316600081815260146020908152604080832085845282528083205460ff16156142b357838352601c825280832085845282528083208484526014835281842086855283528184209080549461422c600761422288614709565b94019384546146da565b9182156142a8578461429d92600a92614266867f9de12b3d7a04eb259125d6f36a27a748d7ce92411cdf21da63e0e0394dfeea169b613b9f565b9055614273858754613b9f565b86558a81526019885281812061428a868254613b9f565b9055898152600b88522001918254613b9f565b9055549051908152a3565b505050505050505050565b5050505050565b6001600160a01b0316600081815260146020908152604080832085845282528083205460ff16156142b357838352601c825280832085845282528083208484526014835281842086855283526003828520910180549461422c600761422288614739565b6001600160a01b0316600081815260146020908152604080832085845282528083205460ff16156142b357838352601c825280832085845282528083208484526014835281842086855283526004828520910180549461422c600761422288614762565b6001600160a01b0316600081815260146020908152604080832085845282528083205460ff16156142b357838352601c825280832085845282528083208484526014835281842086855283526001828520910180549461422c60076142228861478b565b6001600160a01b0316600081815260146020908152604080832085845282528083205460ff16156142b357838352601c825280832085845282528083208484526014835281842086855283526001828520910180549461422c600761422288614739565b6001600160a01b0316600081815260146020908152604080832085845282528083205460ff16156142b357838352601c825280832085845282528083208484526014835281842086855283526001828520910180549461422c6007614222886147ae565b906001600160a01b0381168015801561450a575b6144ec57926144ea9360005260226020526144e36040600020918254613b9f565b9055614382565b565b5050600052601b6020526145066040600020918254613b9f565b9055565b5080600052600b60205260ff60406000205416156144c2565b906001600160a01b03811680158015614575575b61455b57926144ea93600052600b6020526144e3600d604060002001918254613b9f565b5050600052601a6020526145066040600020918254613b9f565b5080600052600b60205260ff6040600020541615614537565b906001600160a01b038116801580156145ca575b6144ec57926144ea9360005260226020526145c36040600020918254613b9f565b90556143e6565b5080600052600b60205260ff60406000205416156145a2565b906001600160a01b0381168015801561461b575b61455b57926144ea93600052600b6020526145c3600d604060002001918254613b9f565b5080600052600b60205260ff60406000205416156145f7565b906001600160a01b03811680158015614670575b6144ec57926144ea9360005260226020526146696040600020918254613b9f565b905561444a565b5080600052600b60205260ff6040600020541615614648565b906001600160a01b038116801580156146c1575b61455b57926144ea93600052600b602052614669600d604060002001918254613b9f565b5080600052600b60205260ff604060002054161561469d565b9061138891828110156147015782039182116119d557818111156146fc575090565b905090565b505050600090565b6103e890818110156147325781039081116119d5578060641160001461472c5790565b50606490565b5050600090565b6107d090818110156147325781039081116119d5578060321160001461475c5790565b50603290565b6101f490818110156147325781039081116119d55780600a116000146147855790565b50600a90565b6107d090818110156147325781039081116119d5578060641160001461472c5790565b6107d090818110156147325781039081116119d557806019116000146147d15790565b5060199056fec5a523fad910d10f2e95e81baa27487ab1f8867069e11e28424fff2c49ec980de71a25c367057ba6c32bea73ffe6eac519023fe04617b003d4ddc2781cb847cf9e2bd5f99a08e89f06d56896c56146aa32e257d0942bbd7c9b9748a26fd9d4e2a264697066735822122002dd27b4bfedc2441f13089cba5c23ee0ae8acc767d154609cea57f557ae9ad164736f6c63430008180033",
  "linkReferences": {},
  "deployedLinkReferences": {}
}