{
  "_format": "hh-sol-artifact-1",
  "contractName": "EasyGameAdvance",
  "sourceName": "contracts/EasyGameAdvance.sol",
  "abi": [
    {
      "inputs": [
        {
          "internalType": "address",
          "name": "projectWallet_",
          "type": "address"
        },
        {
          "internalType": "address",
          "name": "treasuryWallet_",
          "type": "address"
        },
        {
          "internalType": "address",
          "name": "operatorWallet_",
          "type": "address"
        },
        {
          "internalType": "address",
          "name": "usdcToken_",
          "type": "address"
        },
        {
          "internalType": "address",
          "name": "roundManager_",
          "type": "address"
        }
      ],
      "stateMutability": "nonpayable",
      "type": "constructor"
    },
    {
      "inputs": [],
      "name": "IncorrectRoundPayment",
      "type": "error"
    },
    {
      "inputs": [
        {
          "internalType": "uint8",
          "name": "level",
          "type": "uint8"
        }
      ],
      "name": "InvalidLevel",
      "type": "error"
    },
    {
      "inputs": [
        {
          "internalType": "uint256",
          "name": "requested",
          "type": "uint256"
        },
        {
          "internalType": "uint256",
          "name": "maximum",
          "type": "uint256"
        }
      ],
      "name": "InvalidRecycleBatch",
      "type": "error"
    },
    {
      "inputs": [
        {
          "internalType": "uint256",
          "name": "roundId",
          "type": "uint256"
        },
        {
          "internalType": "uint256",
          "name": "cellId",
          "type": "uint256"
        }
      ],
      "name": "InvalidRoundCell",
      "type": "error"
    },
    {
      "inputs": [
        {
          "internalType": "uint8",
          "name": "level",
          "type": "uint8"
        }
      ],
      "name": "LevelEmergencyPaused",
      "type": "error"
    },
    {
      "inputs": [
        {
          "internalType": "uint256",
          "name": "roundId",
          "type": "uint256"
        },
        {
          "internalType": "uint256",
          "name": "pending",
          "type": "uint256"
        }
      ],
      "name": "PendingRoundRecycles",
      "type": "error"
    },
    {
      "inputs": [
        {
          "internalType": "uint256",
          "name": "roundId",
          "type": "uint256"
        },
        {
          "internalType": "uint256",
          "name": "parentCellId",
          "type": "uint256"
        }
      ],
      "name": "RoundParentAlreadyClosed",
      "type": "error"
    },
    {
      "inputs": [
        {
          "internalType": "uint256",
          "name": "roundId",
          "type": "uint256"
        },
        {
          "internalType": "address",
          "name": "player",
          "type": "address"
        }
      ],
      "name": "RoundTicketAlreadyActive",
      "type": "error"
    },
    {
      "inputs": [],
      "name": "RoundUsdcDisabled",
      "type": "error"
    },
    {
      "inputs": [],
      "name": "TokenTransferFailed",
      "type": "error"
    },
    {
      "inputs": [],
      "name": "UsdcTokenLocked",
      "type": "error"
    },
    {
      "inputs": [],
      "name": "ZeroAddress",
      "type": "error"
    },
    {
      "anonymous": false,
      "inputs": [
        {
          "indexed": true,
          "internalType": "uint8",
          "name": "level",
          "type": "uint8"
        },
        {
          "indexed": false,
          "internalType": "bool",
          "name": "available",
          "type": "bool"
        }
      ],
      "name": "LevelAvailabilityChanged",
      "type": "event"
    },
    {
      "anonymous": false,
      "inputs": [
        {
          "indexed": true,
          "internalType": "address",
          "name": "previousOwner",
          "type": "address"
        },
        {
          "indexed": true,
          "internalType": "address",
          "name": "newOwner",
          "type": "address"
        }
      ],
      "name": "OwnershipTransferred",
      "type": "event"
    },
    {
      "anonymous": false,
      "inputs": [
        {
          "indexed": true,
          "internalType": "address",
          "name": "wallet",
          "type": "address"
        },
        {
          "indexed": false,
          "internalType": "uint256",
          "name": "amount",
          "type": "uint256"
        }
      ],
      "name": "ProjectFeesWithdrawn",
      "type": "event"
    },
    {
      "anonymous": false,
      "inputs": [
        {
          "indexed": true,
          "internalType": "address",
          "name": "player",
          "type": "address"
        },
        {
          "indexed": false,
          "internalType": "uint256",
          "name": "amount",
          "type": "uint256"
        }
      ],
      "name": "ReferralBonusClaimed",
      "type": "event"
    },
    {
      "anonymous": false,
      "inputs": [
        {
          "indexed": true,
          "internalType": "address",
          "name": "player",
          "type": "address"
        },
        {
          "indexed": true,
          "internalType": "uint256",
          "name": "roundId",
          "type": "uint256"
        },
        {
          "indexed": true,
          "internalType": "uint8",
          "name": "level",
          "type": "uint8"
        },
        {
          "indexed": false,
          "internalType": "uint256",
          "name": "amount",
          "type": "uint256"
        },
        {
          "indexed": false,
          "internalType": "uint256",
          "name": "cellId",
          "type": "uint256"
        },
        {
          "indexed": false,
          "internalType": "bool",
          "name": "paidWithUsdc",
          "type": "bool"
        }
      ],
      "name": "RoundActivated",
      "type": "event"
    },
    {
      "anonymous": false,
      "inputs": [
        {
          "indexed": true,
          "internalType": "address",
          "name": "oldManager",
          "type": "address"
        },
        {
          "indexed": true,
          "internalType": "address",
          "name": "newManager",
          "type": "address"
        }
      ],
      "name": "RoundManagerChanged",
      "type": "event"
    },
    {
      "anonymous": false,
      "inputs": [
        {
          "indexed": true,
          "internalType": "address",
          "name": "player",
          "type": "address"
        },
        {
          "indexed": true,
          "internalType": "uint256",
          "name": "roundId",
          "type": "uint256"
        },
        {
          "indexed": true,
          "internalType": "uint256",
          "name": "cellId",
          "type": "uint256"
        },
        {
          "indexed": false,
          "internalType": "uint256",
          "name": "parentCellId",
          "type": "uint256"
        }
      ],
      "name": "RoundMatrixPlaced",
      "type": "event"
    },
    {
      "anonymous": false,
      "inputs": [
        {
          "indexed": true,
          "internalType": "address",
          "name": "player",
          "type": "address"
        },
        {
          "indexed": true,
          "internalType": "uint256",
          "name": "roundId",
          "type": "uint256"
        },
        {
          "indexed": false,
          "internalType": "uint256",
          "name": "matrixPrizeAmount",
          "type": "uint256"
        },
        {
          "indexed": false,
          "internalType": "uint256",
          "name": "directReferralAmount",
          "type": "uint256"
        },
        {
          "indexed": false,
          "internalType": "uint256",
          "name": "secondLineAmount",
          "type": "uint256"
        },
        {
          "indexed": false,
          "internalType": "uint256",
          "name": "thirdLineAmount",
          "type": "uint256"
        },
        {
          "indexed": false,
          "internalType": "uint256",
          "name": "projectFeeAmount",
          "type": "uint256"
        },
        {
          "indexed": false,
          "internalType": "bool",
          "name": "paidWithUsdc",
          "type": "bool"
        }
      ],
      "name": "RoundPaymentSplit",
      "type": "event"
    },
    {
      "anonymous": false,
      "inputs": [
        {
          "indexed": true,
          "internalType": "uint256",
          "name": "roundId",
          "type": "uint256"
        },
        {
          "indexed": true,
          "internalType": "address",
          "name": "settlement",
          "type": "address"
        },
        {
          "indexed": false,
          "internalType": "uint256",
          "name": "ethAmount",
          "type": "uint256"
        },
        {
          "indexed": false,
          "internalType": "uint256",
          "name": "usdcAmount",
          "type": "uint256"
        }
      ],
      "name": "RoundPoolsReleased",
      "type": "event"
    },
    {
      "anonymous": false,
      "inputs": [
        {
          "indexed": true,
          "internalType": "uint256",
          "name": "roundId",
          "type": "uint256"
        },
        {
          "indexed": false,
          "internalType": "uint256",
          "name": "processed",
          "type": "uint256"
        },
        {
          "indexed": false,
          "internalType": "uint256",
          "name": "remaining",
          "type": "uint256"
        }
      ],
      "name": "RoundRecycleBatchProcessed",
      "type": "event"
    },
    {
      "anonymous": false,
      "inputs": [
        {
          "indexed": true,
          "internalType": "address",
          "name": "player",
          "type": "address"
        },
        {
          "indexed": true,
          "internalType": "uint256",
          "name": "roundId",
          "type": "uint256"
        },
        {
          "indexed": false,
          "internalType": "uint256",
          "name": "cycleCount",
          "type": "uint256"
        },
        {
          "indexed": false,
          "internalType": "uint256",
          "name": "newCellId",
          "type": "uint256"
        }
      ],
      "name": "RoundRecycled",
      "type": "event"
    },
    {
      "anonymous": false,
      "inputs": [
        {
          "indexed": true,
          "internalType": "address",
          "name": "player",
          "type": "address"
        },
        {
          "indexed": true,
          "internalType": "uint256",
          "name": "roundId",
          "type": "uint256"
        },
        {
          "indexed": false,
          "internalType": "uint256",
          "name": "totalWeight",
          "type": "uint256"
        }
      ],
      "name": "RoundWeightUpdated",
      "type": "event"
    },
    {
      "anonymous": false,
      "inputs": [
        {
          "indexed": true,
          "internalType": "address",
          "name": "oldSettlement",
          "type": "address"
        },
        {
          "indexed": true,
          "internalType": "address",
          "name": "newSettlement",
          "type": "address"
        }
      ],
      "name": "SettlementContractChanged",
      "type": "event"
    },
    {
      "anonymous": false,
      "inputs": [
        {
          "indexed": true,
          "internalType": "address",
          "name": "token",
          "type": "address"
        },
        {
          "indexed": true,
          "internalType": "address",
          "name": "wallet",
          "type": "address"
        },
        {
          "indexed": false,
          "internalType": "uint256",
          "name": "amount",
          "type": "uint256"
        }
      ],
      "name": "TokenProjectFeesWithdrawn",
      "type": "event"
    },
    {
      "anonymous": false,
      "inputs": [
        {
          "indexed": true,
          "internalType": "address",
          "name": "player",
          "type": "address"
        },
        {
          "indexed": true,
          "internalType": "address",
          "name": "token",
          "type": "address"
        },
        {
          "indexed": false,
          "internalType": "uint256",
          "name": "amount",
          "type": "uint256"
        }
      ],
      "name": "TokenReferralBonusClaimed",
      "type": "event"
    },
    {
      "anonymous": false,
      "inputs": [
        {
          "indexed": true,
          "internalType": "address",
          "name": "oldToken",
          "type": "address"
        },
        {
          "indexed": true,
          "internalType": "address",
          "name": "newToken",
          "type": "address"
        }
      ],
      "name": "UsdcTokenChanged",
      "type": "event"
    },
    {
      "anonymous": false,
      "inputs": [
        {
          "indexed": false,
          "internalType": "address",
          "name": "projectWallet",
          "type": "address"
        },
        {
          "indexed": false,
          "internalType": "address",
          "name": "treasuryWallet",
          "type": "address"
        },
        {
          "indexed": false,
          "internalType": "address",
          "name": "operatorWallet",
          "type": "address"
        }
      ],
      "name": "WalletsChanged",
      "type": "event"
    },
    {
      "inputs": [],
      "name": "BASE_ACTIVATION_WEIGHT",
      "outputs": [
        {
          "internalType": "uint256",
          "name": "",
          "type": "uint256"
        }
      ],
      "stateMutability": "view",
      "type": "function"
    },
    {
      "inputs": [],
      "name": "BOX_NFT_WEIGHT",
      "outputs": [
        {
          "internalType": "uint256",
          "name": "",
          "type": "uint256"
        }
      ],
      "stateMutability": "view",
      "type": "function"
    },
    {
      "inputs": [],
      "name": "BPS",
      "outputs": [
        {
          "internalType": "uint256",
          "name": "",
          "type": "uint256"
        }
      ],
      "stateMutability": "view",
      "type": "function"
    },
    {
      "inputs": [],
      "name": "DIRECT_REF_BPS",
      "outputs": [
        {
          "internalType": "uint256",
          "name": "",
          "type": "uint256"
        }
      ],
      "stateMutability": "view",
      "type": "function"
    },
    {
      "inputs": [],
      "name": "DIRECT_REF_WEIGHT",
      "outputs": [
        {
          "internalType": "uint256",
          "name": "",
          "type": "uint256"
        }
      ],
      "stateMutability": "view",
      "type": "function"
    },
    {
      "inputs": [],
      "name": "LEVEL_COUNT",
      "outputs": [
        {
          "internalType": "uint8",
          "name": "",
          "type": "uint8"
        }
      ],
      "stateMutability": "view",
      "type": "function"
    },
    {
      "inputs": [],
      "name": "MATRIX_PRIZE_BPS",
      "outputs": [
        {
          "internalType": "uint256",
          "name": "",
          "type": "uint256"
        }
      ],
      "stateMutability": "view",
      "type": "function"
    },
    {
      "inputs": [],
      "name": "MAX_BASE_WEIGHT_PER_LEVEL",
      "outputs": [
        {
          "internalType": "uint256",
          "name": "",
          "type": "uint256"
        }
      ],
      "stateMutability": "view",
      "type": "function"
    },
    {
      "inputs": [],
      "name": "MAX_MATRIX_WEIGHT_PER_LEVEL",
      "outputs": [
        {
          "internalType": "uint256",
          "name": "",
          "type": "uint256"
        }
      ],
      "stateMutability": "view",
      "type": "function"
    },
    {
      "inputs": [],
      "name": "MAX_NFT_WEIGHT_PER_LEVEL",
      "outputs": [
        {
          "internalType": "uint256",
          "name": "",
          "type": "uint256"
        }
      ],
      "stateMutability": "view",
      "type": "function"
    },
    {
      "inputs": [],
      "name": "MAX_RECYCLE_STEPS_PER_TX",
      "outputs": [
        {
          "internalType": "uint8",
          "name": "",
          "type": "uint8"
        }
      ],
      "stateMutability": "view",
      "type": "function"
    },
    {
      "inputs": [],
      "name": "MAX_REFERRAL_WEIGHT_PER_LEVEL",
      "outputs": [
        {
          "internalType": "uint256",
          "name": "",
          "type": "uint256"
        }
      ],
      "stateMutability": "view",
      "type": "function"
    },
    {
      "inputs": [],
      "name": "MAX_TOTAL_WEIGHT_PER_LEVEL",
      "outputs": [
        {
          "internalType": "uint256",
          "name": "",
          "type": "uint256"
        }
      ],
      "stateMutability": "view",
      "type": "function"
    },
    {
      "inputs": [],
      "name": "PROJECT_FEE_BPS",
      "outputs": [
        {
          "internalType": "uint256",
          "name": "",
          "type": "uint256"
        }
      ],
      "stateMutability": "view",
      "type": "function"
    },
    {
      "inputs": [],
      "name": "RECYCLE_MATRIX_WEIGHT",
      "outputs": [
        {
          "internalType": "uint256",
          "name": "",
          "type": "uint256"
        }
      ],
      "stateMutability": "view",
      "type": "function"
    },
    {
      "inputs": [],
      "name": "SECOND_REF_BPS",
      "outputs": [
        {
          "internalType": "uint256",
          "name": "",
          "type": "uint256"
        }
      ],
      "stateMutability": "view",
      "type": "function"
    },
    {
      "inputs": [],
      "name": "SECOND_REF_WEIGHT",
      "outputs": [
        {
          "internalType": "uint256",
          "name": "",
          "type": "uint256"
        }
      ],
      "stateMutability": "view",
      "type": "function"
    },
    {
      "inputs": [],
      "name": "THIRD_REF_BPS",
      "outputs": [
        {
          "internalType": "uint256",
          "name": "",
          "type": "uint256"
        }
      ],
      "stateMutability": "view",
      "type": "function"
    },
    {
      "inputs": [],
      "name": "THIRD_REF_WEIGHT",
      "outputs": [
        {
          "internalType": "uint256",
          "name": "",
          "type": "uint256"
        }
      ],
      "stateMutability": "view",
      "type": "function"
    },
    {
      "inputs": [
        {
          "components": [
            {
              "internalType": "uint256",
              "name": "seasonId",
              "type": "uint256"
            },
            {
              "internalType": "uint256",
              "name": "roundId",
              "type": "uint256"
            },
            {
              "internalType": "uint8",
              "name": "level",
              "type": "uint8"
            },
            {
              "internalType": "uint64",
              "name": "startsAt",
              "type": "uint64"
            },
            {
              "internalType": "uint64",
              "name": "entriesCloseAt",
              "type": "uint64"
            },
            {
              "internalType": "uint64",
              "name": "endsAt",
              "type": "uint64"
            },
            {
              "internalType": "uint64",
              "name": "freezeClosesAt",
              "type": "uint64"
            },
            {
              "internalType": "uint32",
              "name": "maxPlayers",
              "type": "uint32"
            },
            {
              "internalType": "uint16",
              "name": "maxWinners",
              "type": "uint16"
            },
            {
              "internalType": "bytes32",
              "name": "winningCellsRoot",
              "type": "bytes32"
            },
            {
              "internalType": "uint256",
              "name": "ethPrice",
              "type": "uint256"
            },
            {
              "internalType": "uint256",
              "name": "usdcPrice",
              "type": "uint256"
            },
            {
              "internalType": "uint16",
              "name": "freezeLimit",
              "type": "uint16"
            },
            {
              "internalType": "uint16",
              "name": "paymentSplitVersion",
              "type": "uint16"
            }
          ],
          "internalType": "struct RoundConfig",
          "name": "config",
          "type": "tuple"
        },
        {
          "internalType": "bytes",
          "name": "signature",
          "type": "bytes"
        },
        {
          "internalType": "address",
          "name": "inviter",
          "type": "address"
        }
      ],
      "name": "activateRound",
      "outputs": [],
      "stateMutability": "payable",
      "type": "function"
    },
    {
      "inputs": [
        {
          "components": [
            {
              "internalType": "uint256",
              "name": "seasonId",
              "type": "uint256"
            },
            {
              "internalType": "uint256",
              "name": "roundId",
              "type": "uint256"
            },
            {
              "internalType": "uint8",
              "name": "level",
              "type": "uint8"
            },
            {
              "internalType": "uint64",
              "name": "startsAt",
              "type": "uint64"
            },
            {
              "internalType": "uint64",
              "name": "entriesCloseAt",
              "type": "uint64"
            },
            {
              "internalType": "uint64",
              "name": "endsAt",
              "type": "uint64"
            },
            {
              "internalType": "uint64",
              "name": "freezeClosesAt",
              "type": "uint64"
            },
            {
              "internalType": "uint32",
              "name": "maxPlayers",
              "type": "uint32"
            },
            {
              "internalType": "uint16",
              "name": "maxWinners",
              "type": "uint16"
            },
            {
              "internalType": "bytes32",
              "name": "winningCellsRoot",
              "type": "bytes32"
            },
            {
              "internalType": "uint256",
              "name": "ethPrice",
              "type": "uint256"
            },
            {
              "internalType": "uint256",
              "name": "usdcPrice",
              "type": "uint256"
            },
            {
              "internalType": "uint16",
              "name": "freezeLimit",
              "type": "uint16"
            },
            {
              "internalType": "uint16",
              "name": "paymentSplitVersion",
              "type": "uint16"
            }
          ],
          "internalType": "struct RoundConfig",
          "name": "config",
          "type": "tuple"
        },
        {
          "internalType": "bytes",
          "name": "signature",
          "type": "bytes"
        },
        {
          "internalType": "address",
          "name": "inviter",
          "type": "address"
        }
      ],
      "name": "activateRoundWithUSDC",
      "outputs": [],
      "stateMutability": "nonpayable",
      "type": "function"
    },
    {
      "inputs": [],
      "name": "claimReferralBonus",
      "outputs": [],
      "stateMutability": "nonpayable",
      "type": "function"
    },
    {
      "inputs": [],
      "name": "claimReferralBonusUSDC",
      "outputs": [],
      "stateMutability": "nonpayable",
      "type": "function"
    },
    {
      "inputs": [
        {
          "internalType": "address",
          "name": "",
          "type": "address"
        }
      ],
      "name": "claimableReferralBonusUsdc",
      "outputs": [
        {
          "internalType": "uint256",
          "name": "",
          "type": "uint256"
        }
      ],
      "stateMutability": "view",
      "type": "function"
    },
    {
      "inputs": [
        {
          "internalType": "address",
          "name": "playerAddress",
          "type": "address"
        }
      ],
      "name": "getPlayer",
      "outputs": [
        {
          "components": [
            {
              "internalType": "bool",
              "name": "exists",
              "type": "bool"
            },
            {
              "internalType": "address",
              "name": "wallet",
              "type": "address"
            },
            {
              "internalType": "address",
              "name": "inviter",
              "type": "address"
            },
            {
              "internalType": "address",
              "name": "secondLine",
              "type": "address"
            },
            {
              "internalType": "address",
              "name": "thirdLine",
              "type": "address"
            },
            {
              "internalType": "uint256",
              "name": "totalTickets",
              "type": "uint256"
            },
            {
              "internalType": "uint256",
              "name": "baseWeight",
              "type": "uint256"
            },
            {
              "internalType": "uint256",
              "name": "referralWeight",
              "type": "uint256"
            },
            {
              "internalType": "uint256",
              "name": "matrixWeight",
              "type": "uint256"
            },
            {
              "internalType": "uint256",
              "name": "nftWeight",
              "type": "uint256"
            },
            {
              "internalType": "uint256",
              "name": "totalWeight",
              "type": "uint256"
            },
            {
              "internalType": "uint256",
              "name": "boxTokens",
              "type": "uint256"
            },
            {
              "internalType": "uint256",
              "name": "recycleCount",
              "type": "uint256"
            },
            {
              "internalType": "uint256",
              "name": "claimableReferralBonus",
              "type": "uint256"
            },
            {
              "internalType": "uint256",
              "name": "joinedAt",
              "type": "uint256"
            },
            {
              "internalType": "uint256",
              "name": "lastActiveAt",
              "type": "uint256"
            }
          ],
          "internalType": "struct Player",
          "name": "",
          "type": "tuple"
        }
      ],
      "stateMutability": "view",
      "type": "function"
    },
    {
      "inputs": [
        {
          "internalType": "address",
          "name": "playerAddress",
          "type": "address"
        },
        {
          "internalType": "uint256",
          "name": "roundId",
          "type": "uint256"
        }
      ],
      "name": "getPlayerRound",
      "outputs": [
        {
          "components": [
            {
              "internalType": "bool",
              "name": "active",
              "type": "bool"
            },
            {
              "internalType": "uint8",
              "name": "level",
              "type": "uint8"
            },
            {
              "internalType": "uint256",
              "name": "tickets",
              "type": "uint256"
            },
            {
              "internalType": "uint256",
              "name": "cellId",
              "type": "uint256"
            },
            {
              "internalType": "uint256",
              "name": "parentCellId",
              "type": "uint256"
            },
            {
              "internalType": "uint256",
              "name": "leftChildCellId",
              "type": "uint256"
            },
            {
              "internalType": "uint256",
              "name": "rightChildCellId",
              "type": "uint256"
            },
            {
              "internalType": "uint256",
              "name": "cycleCount",
              "type": "uint256"
            },
            {
              "internalType": "uint256",
              "name": "totalWeight",
              "type": "uint256"
            }
          ],
          "internalType": "struct PlayerRound",
          "name": "",
          "type": "tuple"
        }
      ],
      "stateMutability": "view",
      "type": "function"
    },
    {
      "inputs": [
        {
          "internalType": "uint256",
          "name": "roundId",
          "type": "uint256"
        }
      ],
      "name": "getRoundGameStats",
      "outputs": [
        {
          "internalType": "uint256",
          "name": "prizePoolEth",
          "type": "uint256"
        },
        {
          "internalType": "uint256",
          "name": "prizePoolUsdc",
          "type": "uint256"
        },
        {
          "internalType": "uint256",
          "name": "totalWeight",
          "type": "uint256"
        },
        {
          "internalType": "uint256",
          "name": "activeCells",
          "type": "uint256"
        },
        {
          "internalType": "uint256",
          "name": "nextCell",
          "type": "uint256"
        },
        {
          "internalType": "uint256",
          "name": "nextOpenParent",
          "type": "uint256"
        }
      ],
      "stateMutability": "view",
      "type": "function"
    },
    {
      "inputs": [
        {
          "internalType": "uint256",
          "name": "roundId",
          "type": "uint256"
        },
        {
          "internalType": "uint256",
          "name": "cellId",
          "type": "uint256"
        }
      ],
      "name": "getRoundMatrixNode",
      "outputs": [
        {
          "components": [
            {
              "internalType": "uint256",
              "name": "cellId",
              "type": "uint256"
            },
            {
              "internalType": "address",
              "name": "player",
              "type": "address"
            },
            {
              "internalType": "uint8",
              "name": "level",
              "type": "uint8"
            },
            {
              "internalType": "uint256",
              "name": "parentCellId",
              "type": "uint256"
            },
            {
              "internalType": "uint256",
              "name": "leftChildCellId",
              "type": "uint256"
            },
            {
              "internalType": "uint256",
              "name": "rightChildCellId",
              "type": "uint256"
            },
            {
              "internalType": "bool",
              "name": "closed",
              "type": "bool"
            }
          ],
          "internalType": "struct MatrixNode",
          "name": "",
          "type": "tuple"
        }
      ],
      "stateMutability": "view",
      "type": "function"
    },
    {
      "inputs": [
        {
          "internalType": "uint256",
          "name": "roundId",
          "type": "uint256"
        }
      ],
      "name": "getRoundRecycleQueueState",
      "outputs": [
        {
          "internalType": "uint256",
          "name": "head",
          "type": "uint256"
        },
        {
          "internalType": "uint256",
          "name": "tail",
          "type": "uint256"
        },
        {
          "internalType": "uint256",
          "name": "pending",
          "type": "uint256"
        }
      ],
      "stateMutability": "view",
      "type": "function"
    },
    {
      "inputs": [
        {
          "internalType": "uint256",
          "name": "roundId",
          "type": "uint256"
        }
      ],
      "name": "hasPendingRoundRecycles",
      "outputs": [
        {
          "internalType": "bool",
          "name": "",
          "type": "bool"
        }
      ],
      "stateMutability": "view",
      "type": "function"
    },
    {
      "inputs": [
        {
          "internalType": "uint8",
          "name": "",
          "type": "uint8"
        }
      ],
      "name": "levelAvailable",
      "outputs": [
        {
          "internalType": "bool",
          "name": "",
          "type": "bool"
        }
      ],
      "stateMutability": "view",
      "type": "function"
    },
    {
      "inputs": [],
      "name": "operatorWallet",
      "outputs": [
        {
          "internalType": "address",
          "name": "",
          "type": "address"
        }
      ],
      "stateMutability": "view",
      "type": "function"
    },
    {
      "inputs": [],
      "name": "owner",
      "outputs": [
        {
          "internalType": "address",
          "name": "",
          "type": "address"
        }
      ],
      "stateMutability": "view",
      "type": "function"
    },
    {
      "inputs": [
        {
          "internalType": "address",
          "name": "",
          "type": "address"
        },
        {
          "internalType": "uint256",
          "name": "",
          "type": "uint256"
        }
      ],
      "name": "playerRounds",
      "outputs": [
        {
          "internalType": "bool",
          "name": "active",
          "type": "bool"
        },
        {
          "internalType": "uint8",
          "name": "level",
          "type": "uint8"
        },
        {
          "internalType": "uint256",
          "name": "tickets",
          "type": "uint256"
        },
        {
          "internalType": "uint256",
          "name": "cellId",
          "type": "uint256"
        },
        {
          "internalType": "uint256",
          "name": "parentCellId",
          "type": "uint256"
        },
        {
          "internalType": "uint256",
          "name": "leftChildCellId",
          "type": "uint256"
        },
        {
          "internalType": "uint256",
          "name": "rightChildCellId",
          "type": "uint256"
        },
        {
          "internalType": "uint256",
          "name": "cycleCount",
          "type": "uint256"
        },
        {
          "internalType": "uint256",
          "name": "totalWeight",
          "type": "uint256"
        }
      ],
      "stateMutability": "view",
      "type": "function"
    },
    {
      "inputs": [
        {
          "internalType": "address",
          "name": "",
          "type": "address"
        }
      ],
      "name": "players",
      "outputs": [
        {
          "internalType": "bool",
          "name": "exists",
          "type": "bool"
        },
        {
          "internalType": "address",
          "name": "wallet",
          "type": "address"
        },
        {
          "internalType": "address",
          "name": "inviter",
          "type": "address"
        },
        {
          "internalType": "address",
          "name": "secondLine",
          "type": "address"
        },
        {
          "internalType": "address",
          "name": "thirdLine",
          "type": "address"
        },
        {
          "internalType": "uint256",
          "name": "totalTickets",
          "type": "uint256"
        },
        {
          "internalType": "uint256",
          "name": "baseWeight",
          "type": "uint256"
        },
        {
          "internalType": "uint256",
          "name": "referralWeight",
          "type": "uint256"
        },
        {
          "internalType": "uint256",
          "name": "matrixWeight",
          "type": "uint256"
        },
        {
          "internalType": "uint256",
          "name": "nftWeight",
          "type": "uint256"
        },
        {
          "internalType": "uint256",
          "name": "totalWeight",
          "type": "uint256"
        },
        {
          "internalType": "uint256",
          "name": "boxTokens",
          "type": "uint256"
        },
        {
          "internalType": "uint256",
          "name": "recycleCount",
          "type": "uint256"
        },
        {
          "internalType": "uint256",
          "name": "claimableReferralBonus",
          "type": "uint256"
        },
        {
          "internalType": "uint256",
          "name": "joinedAt",
          "type": "uint256"
        },
        {
          "internalType": "uint256",
          "name": "lastActiveAt",
          "type": "uint256"
        }
      ],
      "stateMutability": "view",
      "type": "function"
    },
    {
      "inputs": [
        {
          "internalType": "uint256",
          "name": "roundId",
          "type": "uint256"
        },
        {
          "internalType": "uint256",
          "name": "maxSteps",
          "type": "uint256"
        }
      ],
      "name": "processRoundRecycles",
      "outputs": [
        {
          "internalType": "uint256",
          "name": "processed",
          "type": "uint256"
        },
        {
          "internalType": "uint256",
          "name": "remaining",
          "type": "uint256"
        }
      ],
      "stateMutability": "nonpayable",
      "type": "function"
    },
    {
      "inputs": [],
      "name": "projectFeesAccrued",
      "outputs": [
        {
          "internalType": "uint256",
          "name": "",
          "type": "uint256"
        }
      ],
      "stateMutability": "view",
      "type": "function"
    },
    {
      "inputs": [],
      "name": "projectFeesAccruedUsdc",
      "outputs": [
        {
          "internalType": "uint256",
          "name": "",
          "type": "uint256"
        }
      ],
      "stateMutability": "view",
      "type": "function"
    },
    {
      "inputs": [],
      "name": "projectWallet",
      "outputs": [
        {
          "internalType": "address",
          "name": "",
          "type": "address"
        }
      ],
      "stateMutability": "view",
      "type": "function"
    },
    {
      "inputs": [
        {
          "internalType": "uint256",
          "name": "roundId",
          "type": "uint256"
        }
      ],
      "name": "releaseRoundPools",
      "outputs": [
        {
          "internalType": "uint256",
          "name": "ethAmount",
          "type": "uint256"
        },
        {
          "internalType": "uint256",
          "name": "usdcAmount",
          "type": "uint256"
        }
      ],
      "stateMutability": "nonpayable",
      "type": "function"
    },
    {
      "inputs": [
        {
          "internalType": "uint256",
          "name": "",
          "type": "uint256"
        }
      ],
      "name": "roundActiveCells",
      "outputs": [
        {
          "internalType": "uint256",
          "name": "",
          "type": "uint256"
        }
      ],
      "stateMutability": "view",
      "type": "function"
    },
    {
      "inputs": [],
      "name": "roundManager",
      "outputs": [
        {
          "internalType": "address",
          "name": "",
          "type": "address"
        }
      ],
      "stateMutability": "view",
      "type": "function"
    },
    {
      "inputs": [
        {
          "internalType": "uint256",
          "name": "",
          "type": "uint256"
        },
        {
          "internalType": "uint256",
          "name": "",
          "type": "uint256"
        }
      ],
      "name": "roundMatrixNodes",
      "outputs": [
        {
          "internalType": "uint256",
          "name": "cellId",
          "type": "uint256"
        },
        {
          "internalType": "address",
          "name": "player",
          "type": "address"
        },
        {
          "internalType": "uint8",
          "name": "level",
          "type": "uint8"
        },
        {
          "internalType": "uint256",
          "name": "parentCellId",
          "type": "uint256"
        },
        {
          "internalType": "uint256",
          "name": "leftChildCellId",
          "type": "uint256"
        },
        {
          "internalType": "uint256",
          "name": "rightChildCellId",
          "type": "uint256"
        },
        {
          "internalType": "bool",
          "name": "closed",
          "type": "bool"
        }
      ],
      "stateMutability": "view",
      "type": "function"
    },
    {
      "inputs": [
        {
          "internalType": "uint256",
          "name": "",
          "type": "uint256"
        }
      ],
      "name": "roundNextCellId",
      "outputs": [
        {
          "internalType": "uint256",
          "name": "",
          "type": "uint256"
        }
      ],
      "stateMutability": "view",
      "type": "function"
    },
    {
      "inputs": [
        {
          "internalType": "uint256",
          "name": "",
          "type": "uint256"
        }
      ],
      "name": "roundNextOpenParentCellId",
      "outputs": [
        {
          "internalType": "uint256",
          "name": "",
          "type": "uint256"
        }
      ],
      "stateMutability": "view",
      "type": "function"
    },
    {
      "inputs": [
        {
          "internalType": "uint256",
          "name": "",
          "type": "uint256"
        }
      ],
      "name": "roundPrizePools",
      "outputs": [
        {
          "internalType": "uint256",
          "name": "",
          "type": "uint256"
        }
      ],
      "stateMutability": "view",
      "type": "function"
    },
    {
      "inputs": [
        {
          "internalType": "uint256",
          "name": "",
          "type": "uint256"
        }
      ],
      "name": "roundPrizePoolsUsdc",
      "outputs": [
        {
          "internalType": "uint256",
          "name": "",
          "type": "uint256"
        }
      ],
      "stateMutability": "view",
      "type": "function"
    },
    {
      "inputs": [
        {
          "internalType": "uint256",
          "name": "",
          "type": "uint256"
        }
      ],
      "name": "roundTotalWeight",
      "outputs": [
        {
          "internalType": "uint256",
          "name": "",
          "type": "uint256"
        }
      ],
      "stateMutability": "view",
      "type": "function"
    },
    {
      "inputs": [
        {
          "internalType": "uint8",
          "name": "level",
          "type": "uint8"
        },
        {
          "internalType": "bool",
          "name": "available",
          "type": "bool"
        }
      ],
      "name": "setLevelAvailable",
      "outputs": [],
      "stateMutability": "nonpayable",
      "type": "function"
    },
    {
      "inputs": [
        {
          "internalType": "address",
          "name": "newManager",
          "type": "address"
        }
      ],
      "name": "setRoundManager",
      "outputs": [],
      "stateMutability": "nonpayable",
      "type": "function"
    },
    {
      "inputs": [
        {
          "internalType": "address",
          "name": "newSettlement",
          "type": "address"
        }
      ],
      "name": "setSettlementContract",
      "outputs": [],
      "stateMutability": "nonpayable",
      "type": "function"
    },
    {
      "inputs": [
        {
          "internalType": "address",
          "name": "",
          "type": "address"
        }
      ],
      "name": "setUsdcToken",
      "outputs": [],
      "stateMutability": "view",
      "type": "function"
    },
    {
      "inputs": [
        {
          "internalType": "address",
          "name": "newProjectWallet",
          "type": "address"
        },
        {
          "internalType": "address",
          "name": "newTreasuryWallet",
          "type": "address"
        },
        {
          "internalType": "address",
          "name": "newOperatorWallet",
          "type": "address"
        }
      ],
      "name": "setWallets",
      "outputs": [],
      "stateMutability": "nonpayable",
      "type": "function"
    },
    {
      "inputs": [],
      "name": "settlementContract",
      "outputs": [
        {
          "internalType": "address",
          "name": "",
          "type": "address"
        }
      ],
      "stateMutability": "view",
      "type": "function"
    },
    {
      "inputs": [
        {
          "internalType": "address",
          "name": "newOwner",
          "type": "address"
        }
      ],
      "name": "transferOwnership",
      "outputs": [],
      "stateMutability": "nonpayable",
      "type": "function"
    },
    {
      "inputs": [],
      "name": "treasuryWallet",
      "outputs": [
        {
          "internalType": "address",
          "name": "",
          "type": "address"
        }
      ],
      "stateMutability": "view",
      "type": "function"
    },
    {
      "inputs": [],
      "name": "usdcToken",
      "outputs": [
        {
          "internalType": "contract IERC20Minimal",
          "name": "",
          "type": "address"
        }
      ],
      "stateMutability": "view",
      "type": "function"
    },
    {
      "inputs": [],
      "name": "withdrawProjectFees",
      "outputs": [],
      "stateMutability": "nonpayable",
      "type": "function"
    },
    {
      "inputs": [],
      "name": "withdrawProjectFeesUSDC",
      "outputs": [],
      "stateMutability": "nonpayable",
      "type": "function"
    }
  ],
  "bytecode": "0x6080346200019c57601f620039f938819003918201601f1916830191906001600160401b03831184841017620001a1578160a092859260409586528339810103126200019c576200005082620001b7565b60206200006060208501620001b7565b906200006e848601620001b7565b906200008b60806200008360608901620001b7565b9701620001b7565b60016018819055946001600160a01b039081169485156200018b5781169384156200018b5781169788156200018b5781169182156200018b57169081156200017a579091929660018060a01b031997600095338a88541617875589885416178755886002541617600255876003541617600355866006541617600655600495600454161760045582805b6200012a575b845161382c9081620001cd8239f35b60ff8116601181116200017357835260078252848320805460ff19168517905560ff908116908114620001605783018362000115565b634e487b7160e01b835260118652602483fd5b506200011b565b865163d92e233d60e01b8152600490fd5b875163d92e233d60e01b8152600490fd5b600080fd5b634e487b7160e01b600052604160045260246000fd5b51906001600160a01b03821682036200019c5756fe608080604052600436101561001357600080fd5b60003560e01c90816311eac855146126ed5750806313306da21461267557806319a08594146126575780631a1478c3146108435780631d6a884b1461263b5780631e375ab914612576578063249d39e914612559578063267281741461118a5780632768a49f146124b35780632f5ced0414610324578063306bf6bb146123ce578063308c6109146123b157806334601b8914611e905780633719fd0514611e0657806337a8af5014611dda5780633945dbde14611db15780634626402b14611d885780634f51f13814611d0e5780635042a91f14611cf157806350da23dc146102f657806351b7b69e14611cc557806352ebb22714611c8c5780635c12cd4b14611a475780635d886f2214611a065780636793c2cd1461198457806372d686bf1461196757806375cb1bd1146117ec5780637a7c7a6a146117245780637a966fa2146116ed5780637c58894d146111f25780637f3255a8146111d5578063852f8299146111b85780638da5cb5b1461118f57806390f7c71a1461118a5780639fef68621461116e578063a03d82ec14610f8b578063ab4847b414610e4e578063b146326a1461097b578063b70258be1461094f578063b93703ef14610923578063beb08ab9146108fa578063c236d48f146108ce578063c2c0c9f514610882578063c7fcb8c314610848578063c8f17ce314610843578063e26f7c4614610825578063e2eb41ff14610715578063e78a6451146105d4578063e9212a0f146105b8578063ea42418b1461058f578063ed270c16146104d5578063edfae883146103ee578063f178fb1b146103d2578063f2fde38b14610329578063f6d5f69a14610324578063f90ef4ac146102fb578063f9335139146102f6578063f943cbc6146102d95763fa267c47146102a857600080fd5b346102d45760203660031901126102d457600435600052600e6020526020604060002054604051908152f35b600080fd5b346102d45760003660031901126102d45760206040516103e88152f35b6127e8565b346102d45760003660031901126102d4576003546040516001600160a01b039091168152602090f35b612760565b346102d45760203660031901126102d457610342612711565b600054906001600160a01b038083169161035d338414612839565b1691821561039c576001600160a01b031916821760009081557f8be0079c531659141344cd1fd0a4f28419497f9722a3daafe3b4186f6b6457e09080a3005b60405162461bcd60e51b815260206004820152600e60248201526d13dddb995c881c995c5d5a5c995960921b6044820152606490fd5b346102d45760003660031901126102d4576020604051600a8152f35b346102d45760003660031901126102d45761040d600160185414612872565b60026018553360005260176020526040600020548015610497576006546001600160a01b039061044090821615156128af565b3360005260176020526000604081205561045f82338360065416612a79565b60065416906040519081527f6212d3b8329f12cd207169548d7570de1a41c72473a7313c176c13641c39aab760203392a36001601855005b60405162461bcd60e51b81526020600482015260166024820152754e6f205553444320726566657272616c20626f6e757360501b6044820152606490fd5b346102d45760403660031901126102d4576104ee612805565b602435908115158092036102d45760ff9061051460018060a01b03600054163314612839565b1690600182108015610585575b61056c5760207fdd552374405792741cb7e6993ca7e6dd5400b9e45e80ca256ac09db4009c8937918360005260078252604060002060ff1981541660ff8316179055604051908152a2005b604051633d98c85560e21b815260048101839052602490fd5b5060118211610521565b346102d45760003660031901126102d4576005546040516001600160a01b039091168152602090f35b346102d45760003660031901126102d457602060405160048152f35b346102d45760403660031901126102d4576101206105f0612711565b604051906105fd8261292e565b6000825260006020830152600060408301526000606083015260006080830152600060a0830152600060c0830152600060e083015260006101008093015260018060a01b03166000526009602052604060002060243560005260205260406000209060405161066b8161292e565b82549260ff841615159384835260ff602084019160081c1681526001820154604084019081526002830154606085019081526003840154906080860191825260048501549260a0870193845260ff60058701549560c0890196875289600760068a01549960e08c019a8b52015499019889526040519a8b52511660208a01525160408901525160608801525160808701525160a08601525160c08501525160e08401525190820152f35b346102d45760203660031901126102d4576001600160a01b03610736612711565b16600052600860205260406000208054600160a01b6001900360018301541691600160a01b60019003600282015416600160a01b600190036003830154166004830154600584015460068501546007860154600887015491600988015493600a89015495600b8a015497600c8b015499600d8c01549b600e01549c6040519e8f9160ff811615158352600160a01b600190039060081c16602083015260408201526060015260808d015260a08c015260c08b015260e08a01526101008901526101208801526101408701526101608601526101808501526101a08401526101c08301526101e082015261020090f35b346102d45760003660031901126102d4576020601654604051908152f35b612727565b346102d45760203660031901126102d4576001600160a01b03610869612711565b1660005260176020526020604060002054604051908152f35b346102d45760203660031901126102d4576004356000526013602052606060406000205460146020526040600020546108bb828261299d565b9060405192835260208301526040820152f35b346102d45760203660031901126102d457600435600052600b6020526020604060002054604051908152f35b346102d45760003660031901126102d4576001546040516001600160a01b039091168152602090f35b346102d45760203660031901126102d457600435600052600d6020526020604060002054604051908152f35b346102d45760203660031901126102d457600435600052600c6020526020604060002054604051908152f35b346102d45761098936612823565b610997600160185414612872565b600260185580158015610e44575b610e255760048054604051636fd0763b60e11b81529182018490526001600160a01b031690602081602481855afa908115610d7457600091610df6575b5060088110159081610dd25760028114918215610de8575b8215610dc1575b505015610d8057604051809163cba0b84160e01b82528460048301528160246101c09485935afa918215610d7457600092610c3b575b5050604060ff910151169060008360005260136020526040600020549160146020526040600020545b831080610c32575b15610bc25784600052610ac96012928360205260406000208560005260205260018060a01b036040600020541693876000526020526040600020610aab86612b6a565b95600052602052604060002060018060a01b03198154169055612b6a565b9180600052600960205260406000208660005260205260406000209060ff825416610b05575b5050846000526014602052604060002054610a60565b6006820154600181018111610bac576001016006830155806000526008602052600b6040600020018054600181018111610bac576001019055806000526008602052600a6040600020018054600181018111610bac5788936000805160206137b7833981519152926001604093019055610b7f8585613188565b610b898585613231565b6006610b96858b88612de2565b9101549082519182526020820152a38580610aef565b634e487b7160e01b600052601160045260246000fd5b508360409281600052601360205283600020556014602052610bf28360002054601360205284600020549061299d565b907f0b273906422b7b2a8769cc17c72a6270f3ac34095be5d3735eb91c7922fa40a1848051858152846020820152a2600160185582519182526020820152f35b50808210610a68565b8181809394503d8311610d6d575b610c53818361294a565b810103126102d4576040519081016001600160401b03811182821017610d57576040528151815260208201516020820152604082015160ff811681036102d4576040820152610ca4606083016129aa565b6060820152610cb5608083016129aa565b6080820152610cc660a083016129aa565b60a0820152610cd760c083016129aa565b60c082015260e08201519063ffffffff821682036102d45760ff9260409260e0830152610100610d088183016129be565b90830152610120808201519083015261014080820151908301526101608082015190830152610180610d3b8183016129be565b90830152610d4d6101a08092016129be565b9082015291610a37565b634e487b7160e01b600052604160045260246000fd5b503d610c49565b6040513d6000823e3d90fd5b60405162461bcd60e51b8152602060048201526019602482015278526f756e642072656379636c6520756e617661696c61626c6560381b6044820152606490fd5b909150610dd2576004148480610a01565b634e487b7160e01b600052602160045260246000fd5b5060038114915060006109fa565b610e18915060203d602011610e1e575b610e10818361294a565b810190612985565b846109e2565b503d610e06565b60449060405190631084348b60e31b8252600482015260406024820152fd5b50604081116109a5565b346102d457610e5c36612823565b60405190610e6982612913565b60008252600060c060209382858201528260408201528260608201528260808201528260a0820152015280158015610f74575b610f565760e092600052600a82526040600020906000528152604060002060405190610ec782612913565b805492838352600182015460ff60018060a01b039183860193838216855282604088019260a01c168252600286015493606088019485526003870154956080890196875260c085600560048b01549a60a08d019b8c5201541699019815158952604051998a52511690880152511660408601525160608501525160808401525160a083015251151560c0820152f35b8260449160405191631f06e1dd60e31b835260048301526024820152fd5b5082600052600b8252604060002054811015610e9c565b346102d4576020806003193601126102d457600435610fae600160185414612872565b60026018556005546001600160a01b03908116330361113757602483826004541660405192838092636fd0763b60e11b82528760048301525afa908115610d745760009161111a575b506008811015610dd2576004036110e0578160005260148352611029604060002054601385526040600020549061299d565b92836110c2576040935082600052600f815283600020549260108252846000205492600f83526000868120556010835260008681205561106d8582600554166129cd565b611081848260065416836005541690612a79565b60055416907ff5dce8d14677f13040c40d084c873acb3bb2ff01d06a60cf69b3e81fcc1e35eb8680518781528686820152a360016018558351928352820152f35b60448385604051916304ef50cb60e41b835260048301526024820152fd5b60405162461bcd60e51b8152600481018490526012602482015271526f756e64206973206e6f7420726561647960701b6044820152606490fd5b6111319150843d8611610e1e57610e10818361294a565b84610ff7565b60405162461bcd60e51b815260048101849052600f60248201526e13db9b1e481cd95d1d1b195b595b9d608a1b6044820152606490fd5b346102d45760003660031901126102d457602060405160198152f35b612744565b346102d45760003660031901126102d4576000546040516001600160a01b039091168152602090f35b346102d45760003660031901126102d45760206040516102588152f35b346102d45760003660031901126102d45760206040516101908152f35b6111fb3661277c565b6001939261120c8560185414612872565b600260185561014084013534148015906116e0575b6116ce5733600052600860205260406000209160ff8354166000146116c85750818501546001600160a01b0316905b6001600160a01b0382163381149081156116a1575b50611698575b600480546040805163149374fd60e21b8152883593810193909352602088013560248401528701959192906001600160a01b031660ff6112aa88612815565b1660448501526112bc60608901612b2c565b6001600160401b039081166064860152806112d960808b01612b2c565b166084860152806112ec60a08b01612b2c565b1660a48601526112fe60c08a01612b2c565b1660c485015260e088013563ffffffff81168091036102d4576000859384602096819460e48301528c6113866101a061133a6101008401612b40565b9261ffff809416610104870152610120810135610124870152610140810135610144870152610160810135610164870152836113796101808301612b40565b1661018487015201612b40565b166101a48301526102206101c4830152806102248301528061024493848401378181018301849052336101e48301526001600160a01b038a16610204830152601f01601f191681010301925af18015610d745761166d575b5060ff6113ea84612b4f565b16600052600760205260ff604060002054161561164a5761140c903383612cfa565b336000526009602052604060002060208401356000526020526040600020805460ff811661162857859182809261ff0061144588612b4f565b60081b169061ffff191617178155015560048101805490858201809211610bac5755600e4291015560ff6114b46114893361147f85612b4f565b6020870135612de2565b9261149860208601353361308e565b6114ae6114a482612b4f565b6020870135612b79565b50612b4f565b16906040519061014084013582526020820152600060408201526020830135906000805160206137d783398151915260603392a4611d7e8034029134159134840414821715610bac57612710809304926103b68034029034820414841715610bac57819004906102588034029034820414851715610bac57819004906101909485340295348704141715610bac5760209404906115628261155d8361155d8761155d8c3461299d565b61299d565b9285850135600052600f8652604060002061157e888254612b5d565b905533600052600886526115dd8360406000206115aa8460018060a01b038d840154168b8b01356134c2565b60028101546115c79086906001600160a01b03168a8c0135613582565b600301546001600160a01b031687890135613628565b6115e984601554612b5d565b60155560405196875285870152604086015260608501526080840152600060a084015201359060008051602061379783398151915260c03392a3601855005b60405163c45f473d60e01b815260208601356004820152336024820152604490fd5b602461165584612b4f565b60ff60405191634a525d1b60e01b8352166004820152fd5b602090813d8311611691575b611683818361294a565b810103126102d457856113de565b503d611679565b6000915061126b565b8015159150816116b3575b5087611265565b905060005260ff6040600020541615876116ac565b90611250565b6040516335f3c2a160e21b8152600490fd5b5061014084013515611221565b346102d45760203660031901126102d457600435600052601360205260206040600020546014825260406000205411604051908152f35b346102d45760003660031901126102d4576000546001600160a01b039061174e9082163314612839565b61175c600160185414612872565b60026018556015549081156117b55760207f95334f2d4e98187a454807e6ec3da804af4da5c99357a7398e2cf2505ac882189160006015556117a28482600154166129cd565b6001541692604051908152a26001601855005b60405162461bcd60e51b815260206004820152600f60248201526e4e6f2070726f6a656374206665657360881b6044820152606490fd5b346102d45760603660031901126102d457611805612711565b6024356001600160a01b03818116918290036102d457604435928184168094036102d45761183882600054163314612839565b1680156119285781156118e85782156118a857826060927fd2d452a5df03f60ff9bf0ef1fc3498af992b0b6165c03b2f792cf596ee96530a9460018060a01b03198481600154161760015582816002541617600255600354161760035560405192835260208301526040820152a1005b60405162461bcd60e51b815260206004820152601860248201527713dc195c985d1bdc881dd85b1b195d081c995c5d5a5c995960421b6044820152606490fd5b60405162461bcd60e51b8152602060048201526018602482015277151c99585cdd5c9e481dd85b1b195d081c995c5d5a5c995960421b6044820152606490fd5b60405162461bcd60e51b8152602060048201526017602482015276141c9bda9958dd081dd85b1b195d081c995c5d5a5c9959604a1b6044820152606490fd5b346102d45760003660031901126102d4576020604051611d7e8152f35b346102d45761199236612823565b90600052600a60205260406000209060005260205260e06040600020805490600181015490600281015460038201549060ff8060056004860154950154169460405196875260018060a01b038116602088015260a01c1660408601526060850152608084015260a0830152151560c0820152f35b346102d45760203660031901126102d457611a1f612711565b50611a3560018060a01b03600054163314612839565b60405163c4f64db560e01b8152600490fd5b346102d45760203660031901126102d457611a60612711565b60006101e0604051611a71816128f7565b8281528260208201528260408201528260608201528260808201528260a08201528260c08201528260e08201528261010082015282610120820152826101408201528261016082015282610180820152826101a0820152826101c0820152015260018060a01b0316600052600860205261020060406000206101e0604051611af8816128f7565b600e83549360ff85161515835260018060a01b038560081c16602084015260018060a01b03600182015416604084015260018060a01b03600282015416606084015260018060a01b036003820154166080840152600481015460a0840152600581015460c0840152600681015460e0840152600781015461010084015260088101546101208401526009810154610140840152600a810154610160840152600b810154610180840152600c8101546101a0840152600d8101546101c084015201548282015260ff60405193161515835260018060a01b03602082015116602084015260018060a01b03604082015116604084015260018060a01b03606082015116606084015260018060a01b03608082015116608084015260a081015160a084015260c081015160c084015260e081015160e08401526101008101516101008401526101208101516101208401526101408101516101408401526101608101516101608401526101808101516101808401526101a08101516101a08401526101c08101516101c084015201516101e0820152f35b346102d45760203660031901126102d45760ff611ca7612805565b166000526007602052602060ff604060002054166040519015158152f35b346102d45760203660031901126102d457600435600052600f6020526020604060002054604051908152f35b346102d45760003660031901126102d45760206040516113888152f35b346102d4576020806003193601126102d45760c090600435600052600f81526040600020549060108152604060002054600e8252604060002054600d835260406000205490600b845260406000205492600c85526040600020549460405196875286015260408501526060840152608083015260a0820152f35b346102d45760003660031901126102d4576002546040516001600160a01b039091168152602090f35b346102d45760003660031901126102d4576004546040516001600160a01b039091168152602090f35b346102d45760203660031901126102d45760043560005260106020526020604060002054604051908152f35b346102d45760203660031901126102d457611e1f612711565b6000546001600160a01b03918291611e3a9083163314612839565b16908115611e7e57600580546001600160a01b031981168417909155167fae0b527aec7be2a921fb601477f42ce68cfc9122d8c176909c55cd756e30dfd8600080a3005b60405163d92e233d60e01b8152600490fd5b346102d457611e9e3661277c565b6001939192611eb08560185414612872565b60026018556101608301351561239f576006546040516323b872dd60e01b8152336004820152306024820152610160850135604482015290602090829060649082906000906001600160a01b03165af1908115610d7457600091612370575b501561235e5733600052600860205260406000209160ff8354166000146123585750818501546001600160a01b0316905b6001600160a01b038216338114908115612331575b50612328575b60018060a01b0360045416946040519163149374fd60e21b83528535600484015260208601359687602485015260ff611f9660408901612815565b166044850152611fa860608801612b2c565b6001600160401b03908116606486015280611fc560808a01612b2c565b16608486015280611fd860a08a01612b2c565b1660a4860152611fea60c08901612b2c565b1660c485015260e087013563ffffffff811681036102d457600085938460209663ffffffff82951660e48301528b61202b6101a061133a6101008401612b40565b166101a48301526102206101c4830152806102248301528061024493848401378181018301849052336101e48301526001600160a01b038a16610204830152601f01601f191681010301925af18015610d74576122fd575b5060ff61209260408501612b4f565b16600052600760205260ff60406000205416156122ef576120b4903383612cfa565b3360005260096020526040600020836000526020526040600020805460ff81166122d057859182809261ff006120ec60408901612b4f565b60081b169061ffff191617178155015560048101805490858201809211610bac5755600e4291015561212a3361212460408401612b4f565b84612de2565b612134833361308e565b61214961214360408401612b4f565b84612b79565b508260ff61215960408501612b4f565b169160405190610160850135825260208201528560408201526000805160206137d783398151915260603392a4610160810135611d7e81029190611d7d1990830401610bac5761271091829004916101608201356103b68102906103b51990820401610bac57819004916101608101356102588102906102571990820401610bac57829004906101608101356101908102919061018f1990830401610bac5761155d8361155d8761155d8a610160996122179804998a97013561299d565b928560005260106020526040600020612231868254612b5d565b905533600052600860205261228883604060002061225b8460018060a01b038c840154168b61344d565b60028101546122759086906001600160a01b03168b61352d565b600301546001600160a01b0316886135d3565b61229484601654612b5d565b60165560405194855260208501526040840152606083015260808201528260a082015260008051602061379783398151915260c03392a3601855005b60405163c45f473d60e01b815260048101869052336024820152604490fd5b602461165560408501612b4f565b602090813d8311612321575b612313818361294a565b810103126102d45785612083565b503d612309565b60009150611f5b565b801515915081612343575b5087611f55565b905060005260ff60406000205416158761233c565b90611f40565b60405163022e258160e11b8152600490fd5b612392915060203d602011612398575b61238a818361294a565b81019061296d565b86611f0f565b503d612380565b6040516304c1050d60e01b8152600490fd5b346102d45760003660031901126102d45760206040516103b68152f35b346102d45760003660031901126102d4576000546001600160a01b03906123f89082163314612839565b612406600160185414612872565b600260185580600654169061241c8215156128af565b601654918215612477578261243b916000601655836001541690612a79565b7f6f09a29fa95e6ca2c4c5b55c121d7269faf4d531e64e23d432f03e95bb6caa4760208260065416926001541693604051908152a36001601855005b60405162461bcd60e51b81526020600482015260146024820152734e6f20555344432070726f6a656374206665657360601b6044820152606490fd5b346102d45760403660031901126102d4576001600160a01b036124d4612711565b1660005260096020526040600020602435600052602052610120604060002080549060018101549060028101546003820154600483015490600584015492600760068601549501549560ff6040519881811615158a5260081c16602089015260408801526060870152608086015260a085015260c084015260e0830152610100820152f35b346102d45760003660031901126102d45760206040516127108152f35b346102d45760003660031901126102d457612595600160185414612872565b6002601855336000526008602052600c604060002001548015612602573360005260086020526000600c6040822001556125cf81336129cd565b6040519081527f53473e2a2e0cc6840d80567f104277ea6daa0891e5316836bac38a686b79ea3360203392a26001601855005b60405162461bcd60e51b81526020600482015260116024820152704e6f20726566657272616c20626f6e757360781b6044820152606490fd5b346102d45760003660031901126102d457602060405160118152f35b346102d45760003660031901126102d4576020601554604051908152f35b346102d45760203660031901126102d45761268e612711565b6000546001600160a01b039182916126a99083163314612839565b16908115611e7e57600480546001600160a01b031981168417909155167f57b8ff42eaa81bfce68c6ad04d5bf2c7ebca554a63b0ece2bb301a0b2eff716d600080a3005b346102d45760003660031901126102d4576006546001600160a01b03168152602090f35b600435906001600160a01b03821682036102d457565b346102d45760003660031901126102d45760206040516107d08152f35b346102d45760003660031901126102d457602060405160648152f35b346102d45760003660031901126102d457602060405160328152f35b600319810161020081126102d4576101c0136102d4576004916001600160401b03916101c435908382116102d457806023830112156102d45781600401359384116102d457602484830101116102d45760240191906101e4356001600160a01b03811681036102d45790565b346102d45760003660031901126102d45760206040516101f48152f35b6004359060ff821682036102d457565b359060ff821682036102d457565b60409060031901126102d4576004359060243590565b1561284057565b60405162461bcd60e51b815260206004820152600a60248201526927b7363c9037bbb732b960b11b6044820152606490fd5b1561287957565b60405162461bcd60e51b815260206004820152600e60248201526d1499595b9d1c985b9d0818d85b1b60921b6044820152606490fd5b156128b657565b60405162461bcd60e51b81526020600482015260196024820152781554d110c81d1bdad95b881b9bdd0818dbdb999a59dd5c9959603a1b6044820152606490fd5b61020081019081106001600160401b03821117610d5757604052565b60e081019081106001600160401b03821117610d5757604052565b61012081019081106001600160401b03821117610d5757604052565b601f909101601f19168101906001600160401b03821190821017610d5757604052565b908160209103126102d4575180151581036102d45790565b908160209103126102d4575160088110156102d45790565b91908203918211610bac57565b51906001600160401b03821682036102d457565b519061ffff821682036102d457565b8115612a7557600080808094819460018060a01b03165af1903d15612a6f573d906001600160401b038211612a5b5760405191612a14601f8201601f19166020018461294a565b825260203d92013e5b15612a2457565b60405162461bcd60e51b815260206004820152600f60248201526e151c985b9cd9995c8819985a5b1959608a1b6044820152606490fd5b634e487b7160e01b81526041600452602490fd5b50612a1d565b5050565b8215612b275760405163a9059cbb60e01b81526001600160a01b039283166004820152602481019390935260209183916044918391600091165af1908115610d7457600091612b08575b5015612acb57565b60405162461bcd60e51b8152602060048201526015602482015274151bdad95b881d1c985b9cd9995c8819985a5b1959605a1b6044820152606490fd5b612b21915060203d6020116123985761238a818361294a565b38612ac3565b505050565b35906001600160401b03821682036102d457565b359061ffff821682036102d457565b3560ff811681036102d45790565b91908201809211610bac57565b6000198114610bac5760010190565b90916000809280845260209160138352604095868620549160149560148652888820545b841080612cf0575b15612cdd57848852612bf76012928388528a8a20868b52885260018060a01b038b8b20541693878b5288528a8a20612bdc87612b6a565b968b5288528a8a2080546001600160a01b0319169055612b6a565b9180895260098752898920868a52875289892060ff815416612c25575b505084885286865288882054612b9d565b6006018054600190818101809111612cb5578255828b526008808a52600b8d8d2001805490838201809211612cc95755838c528952600a8c8c20018054918201809211612cb5578893926000805160206137b7833981519152928e9255612c8c8585613188565b612c968585613231565b612ca1848987612de2565b90549082519182528b820152a33880612c14565b634e487b7160e01b8c52601160045260248cfd5b634e487b7160e01b8e52601160045260248efd5b9693909794915060139295508352522055565b5060048210612ba5565b91825460ff8116612ddc576001600160a81b031916600883901b610100600160a81b031617600117835542600d8401556001600160a01b039081169182151590829082612dcf575b505080612db7575b612d5357505050565b6003600184019260018060a01b03199381858254161790556000908152600860205282806001604084200154166002870181878254161790558015600014612da5575050935b01921690825416179055565b82526040909120600101541693612d99565b5081600052600860205260ff60406000205416612d4a565b1683141590508138612d42565b50505050565b9290600093808552600b916020600b815260409384882094855415613085575b855495612e0e87612b6a565b9055859860019889881460001461307c5781935b878352600a8087528484208a855287528484208a8155808d0180546001600160a81b0319166001600160a01b0395861690811760a09b909b1b60ff60a01b169a909a1790556002908101879055888552600988528585208a865288528585209081018b9055600301869055600d87528484208054919391808e0191908210613068575585612f71575b50878352600c8652838320549a8b15612f69575b9190825b612f1c575b50505081869798997f19a57ce1df8ff5b43fd57ebc398733d14bbb0da3e683f28c5b0e32955d8d19c896978352600b8652818320548110600014612f1557915b600c8652205551908152a4565b5081612f08565b90919a88845281875284842054811080612f4e575b15612f4857612f3f90612b6a565b9a919082612ec3565b9a612ec8565b50828752848420818552875260ff6005868620015416612f31565b9a508a612ebf565b888452600a875284842086855287528b8585208b60038201805415600014612fb45755015416835260098652838320888452865288600485852001555b38612eab565b505090506004810180541560001461304b57908b8e9255600581018260ff1982541617905501818154168552600988528585208a865288528a6005878720015554166014875284842054906012885285852082865288528585209060018060a01b03198254161790558b8101809111613037578884526014875284842055612fae565b634e487b7160e01b84526011600452602484fd5b60448b89895191630cc237c760e31b835260048301526024820152fd5b634e487b7160e01b86526011600452602486fd5b878a1c93612e22565b60018655612e02565b6001600160a01b0316600081815260096020908152604080832085845282528083205460ff16156131815783835260118252808320858452825280832092848152600983528181208682528352818120908454946130fa60076130f0886136a8565b9401938454613679565b9182156131765760008051602061377783398151915296858261316b948b6009955260088a5261312d8784842095612b5d565b90556005830161313e878254612b5d565b905561314b868854612b5d565b87558b8152600e895220613160858254612b5d565b905501918254612b5d565b9055549051908152a3565b505050505050505050565b5050505050565b6001600160a01b0316600081815260096020908152604080832085845282528083205460ff16156131815783835260118252808320858452825280832084845260098352818420868552835260028285209101938454946131ed60076130f0886136d8565b9182156131765760008051602061377783398151915296858261316b948b6009955260088a526132208784842095612b5d565b90556007830161313e878254612b5d565b6001600160a01b0316600081815260096020908152604080832085845282528083205460ff161561318157838352601182528083208584528252808320848452600983528184208685528352600382852091019384549461329660076130f088613701565b9182156131765760008051602061377783398151915296858261316b948b6009955260088a526132c98784842095612b5d565b90556008830161313e878254612b5d565b6001600160a01b0316600081815260096020908152604080832085845282528083205460ff161561318157838352601182528083208584528252808320848452600983528184208685528352600182852091019384549461333f60076130f08861372a565b9182156131765760008051602061377783398151915296858261316b948b6009955260088a526133728784842095612b5d565b90556006830161313e878254612b5d565b6001600160a01b0316600081815260096020908152604080832085845282528083205460ff161561318157838352601182528083208584528252808320848452600983528184208685528352600182852091019384549461333f60076130f0886136d8565b6001600160a01b0316600081815260096020908152604080832085845282528083205460ff161561318157838352601182528083208584528252808320848452600983528184208685528352600182852091019384549461333f60076130f08861374d565b906001600160a01b038116801580156134a9575b61348b57926134899360005260176020526134826040600020918254612b5d565b90556132da565b565b505060005260106020526134a56040600020918254612b5d565b9055565b5080600052600860205260ff6040600020541615613461565b906001600160a01b03811680158015613514575b6134fa5792613489936000526008602052613482600c604060002001918254612b5d565b5050600052600f6020526134a56040600020918254612b5d565b5080600052600860205260ff60406000205416156134d6565b906001600160a01b03811680158015613569575b61348b57926134899360005260176020526135626040600020918254612b5d565b9055613383565b5080600052600860205260ff6040600020541615613541565b906001600160a01b038116801580156135ba575b6134fa5792613489936000526008602052613562600c604060002001918254612b5d565b5080600052600860205260ff6040600020541615613596565b906001600160a01b0381168015801561360f575b61348b57926134899360005260176020526136086040600020918254612b5d565b90556133e8565b5080600052600860205260ff60406000205416156135e7565b906001600160a01b03811680158015613660575b6134fa5792613489936000526008602052613608600c604060002001918254612b5d565b5080600052600860205260ff604060002054161561363c565b9061138891828110156136a0578203918211610bac578181111561369b575090565b905090565b505050600090565b6103e890818110156136d1578103908111610bac57806064116000146136cb5790565b50606490565b5050600090565b6107d090818110156136d1578103908111610bac57806032116000146136fb5790565b50603290565b6101f490818110156136d1578103908111610bac5780600a116000146137245790565b50600a90565b6107d090818110156136d1578103908111610bac57806064116000146136cb5790565b6107d090818110156136d1578103908111610bac57806019116000146137705790565b5060199056fe9de12b3d7a04eb259125d6f36a27a748d7ce92411cdf21da63e0e0394dfeea16c5a523fad910d10f2e95e81baa27487ab1f8867069e11e28424fff2c49ec980de71a25c367057ba6c32bea73ffe6eac519023fe04617b003d4ddc2781cb847cf9e2bd5f99a08e89f06d56896c56146aa32e257d0942bbd7c9b9748a26fd9d4e2a2646970667358221220c6f3c9bae2d8bff0e58a99a5e2456a85d5d07946483d811fba20f45ce3851be564736f6c63430008180033",
  "linkReferences": {},
  "deployedLinkReferences": {}
}