{
  "_format": "hh-sol-artifact-1",
  "contractName": "EasyGameRoundSettlement",
  "sourceName": "contracts/EasyGameRoundSettlement.sol",
  "abi": [
    {
      "inputs": [
        {
          "internalType": "address",
          "name": "core_",
          "type": "address"
        },
        {
          "internalType": "address",
          "name": "manager_",
          "type": "address"
        },
        {
          "internalType": "address",
          "name": "skills_",
          "type": "address"
        },
        {
          "internalType": "address",
          "name": "usdc_",
          "type": "address"
        }
      ],
      "stateMutability": "nonpayable",
      "type": "constructor"
    },
    {
      "anonymous": false,
      "inputs": [
        {
          "indexed": true,
          "internalType": "uint256",
          "name": "roundId",
          "type": "uint256"
        },
        {
          "indexed": true,
          "internalType": "uint256",
          "name": "cellId",
          "type": "uint256"
        },
        {
          "indexed": true,
          "internalType": "address",
          "name": "player",
          "type": "address"
        }
      ],
      "name": "FrozenWinnerSkipped",
      "type": "event"
    },
    {
      "anonymous": false,
      "inputs": [
        {
          "indexed": true,
          "internalType": "uint256",
          "name": "roundId",
          "type": "uint256"
        },
        {
          "indexed": true,
          "internalType": "uint8",
          "name": "level",
          "type": "uint8"
        },
        {
          "indexed": false,
          "internalType": "uint256",
          "name": "ethAmount",
          "type": "uint256"
        },
        {
          "indexed": false,
          "internalType": "uint256",
          "name": "usdcAmount",
          "type": "uint256"
        }
      ],
      "name": "PrizeRolledOver",
      "type": "event"
    },
    {
      "anonymous": false,
      "inputs": [
        {
          "indexed": true,
          "internalType": "uint256",
          "name": "roundId",
          "type": "uint256"
        },
        {
          "indexed": true,
          "internalType": "uint8",
          "name": "level",
          "type": "uint8"
        },
        {
          "indexed": false,
          "internalType": "uint16",
          "name": "winnerCount",
          "type": "uint16"
        },
        {
          "indexed": false,
          "internalType": "uint256",
          "name": "ethAmount",
          "type": "uint256"
        },
        {
          "indexed": false,
          "internalType": "uint256",
          "name": "usdcAmount",
          "type": "uint256"
        }
      ],
      "name": "RoundPrizeAllocated",
      "type": "event"
    },
    {
      "anonymous": false,
      "inputs": [
        {
          "indexed": true,
          "internalType": "address",
          "name": "player",
          "type": "address"
        },
        {
          "indexed": false,
          "internalType": "uint256",
          "name": "ethAmount",
          "type": "uint256"
        },
        {
          "indexed": false,
          "internalType": "uint256",
          "name": "usdcAmount",
          "type": "uint256"
        }
      ],
      "name": "SettlementPrizeClaimed",
      "type": "event"
    },
    {
      "anonymous": false,
      "inputs": [
        {
          "indexed": true,
          "internalType": "uint256",
          "name": "roundId",
          "type": "uint256"
        },
        {
          "indexed": true,
          "internalType": "uint256",
          "name": "cellId",
          "type": "uint256"
        },
        {
          "indexed": true,
          "internalType": "address",
          "name": "winner",
          "type": "address"
        }
      ],
      "name": "WinnerRegistered",
      "type": "event"
    },
    {
      "inputs": [],
      "name": "arenaSkills",
      "outputs": [
        {
          "internalType": "contract IEasyGameArenaStatus",
          "name": "",
          "type": "address"
        }
      ],
      "stateMutability": "view",
      "type": "function"
    },
    {
      "inputs": [],
      "name": "claimPrize",
      "outputs": [],
      "stateMutability": "nonpayable",
      "type": "function"
    },
    {
      "inputs": [
        {
          "internalType": "address",
          "name": "",
          "type": "address"
        }
      ],
      "name": "claimableEth",
      "outputs": [
        {
          "internalType": "uint256",
          "name": "",
          "type": "uint256"
        }
      ],
      "stateMutability": "view",
      "type": "function"
    },
    {
      "inputs": [
        {
          "internalType": "address",
          "name": "",
          "type": "address"
        }
      ],
      "name": "claimableUsdc",
      "outputs": [
        {
          "internalType": "uint256",
          "name": "",
          "type": "uint256"
        }
      ],
      "stateMutability": "view",
      "type": "function"
    },
    {
      "inputs": [],
      "name": "gameCore",
      "outputs": [
        {
          "internalType": "contract IEasyGameSettlementCore",
          "name": "",
          "type": "address"
        }
      ],
      "stateMutability": "view",
      "type": "function"
    },
    {
      "inputs": [
        {
          "internalType": "uint8",
          "name": "",
          "type": "uint8"
        }
      ],
      "name": "rolloverEthByLevel",
      "outputs": [
        {
          "internalType": "uint256",
          "name": "",
          "type": "uint256"
        }
      ],
      "stateMutability": "view",
      "type": "function"
    },
    {
      "inputs": [
        {
          "internalType": "uint8",
          "name": "",
          "type": "uint8"
        }
      ],
      "name": "rolloverUsdcByLevel",
      "outputs": [
        {
          "internalType": "uint256",
          "name": "",
          "type": "uint256"
        }
      ],
      "stateMutability": "view",
      "type": "function"
    },
    {
      "inputs": [],
      "name": "roundManager",
      "outputs": [
        {
          "internalType": "contract IEasyGameRoundManager",
          "name": "",
          "type": "address"
        }
      ],
      "stateMutability": "view",
      "type": "function"
    },
    {
      "inputs": [
        {
          "internalType": "uint256",
          "name": "",
          "type": "uint256"
        }
      ],
      "name": "roundSettled",
      "outputs": [
        {
          "internalType": "bool",
          "name": "",
          "type": "bool"
        }
      ],
      "stateMutability": "view",
      "type": "function"
    },
    {
      "inputs": [
        {
          "internalType": "uint256",
          "name": "roundId",
          "type": "uint256"
        },
        {
          "internalType": "uint256[]",
          "name": "winningCellIds",
          "type": "uint256[]"
        },
        {
          "internalType": "bytes32[][]",
          "name": "proofs",
          "type": "bytes32[][]"
        }
      ],
      "name": "settleRound",
      "outputs": [],
      "stateMutability": "nonpayable",
      "type": "function"
    },
    {
      "inputs": [],
      "name": "usdcToken",
      "outputs": [
        {
          "internalType": "contract IERC20Minimal",
          "name": "",
          "type": "address"
        }
      ],
      "stateMutability": "view",
      "type": "function"
    },
    {
      "stateMutability": "payable",
      "type": "receive"
    }
  ],
  "bytecode": "0x61010034620001ac57601f620019ca38819003918201601f19168301916001600160401b03831184841017620001b157808492608094604052833981010312620001ac576200004e81620001c7565b906200005d60208201620001c7565b6200007960606200007160408501620001c7565b9301620001c7565b60016005556001600160a01b0393909290841680151580620001a0575b8062000194575b8062000188575b15620001435760805290831660a052821660c0521660e0526040516117ed9081620001dd8239608051818181601d015281816101260152818161065b015281816106cf015281816107a901528181610c4e0152610d61015260a05181818161059901528181610603015281816108f60152818161094f015261151d015260c0518181816101ab0152610cdd015260e0518181816102f401526115600152f35b60405162461bcd60e51b815260206004820152601960248201527f496e76616c696420736574746c656d656e7420636f6e666967000000000000006044820152606490fd5b508484161515620000a4565b5084821615156200009d565b50848316151562000096565b600080fd5b634e487b7160e01b600052604160045260246000fd5b51906001600160a01b0382168203620001ac5756fe60c0806040526004361015610083575b50361561001b57600080fd5b7f00000000000000000000000000000000000000000000000000000000000000006001600160a01b0316330361004d57005b60405162461bcd60e51b815260206004820152600e60248201526d4f6e6c792067616d6520636f726560901b6044820152606490fd5b600060a05260a0513560e01c90816311eac8551461154c575080633945dbde146115065780634793dc40146114c657806349976a10146104fb57806355d2ac86146104bb578063682d709f1461048257806370740ac91461020e578063b7d34d8e146101da578063c8da51c514610194578063dbb458151461015b5763e2cfe2ef1461010f573861000f565b346101555760a051366003190112610155576040517f00000000000000000000000000000000000000000000000000000000000000006001600160a01b03168152602090f35b60a05180fd5b346101555760203660031901126101555760043560ff81168091036101555760a0515260016020526020604060a0512054604051908152f35b346101555760a051366003190112610155576040517f00000000000000000000000000000000000000000000000000000000000000006001600160a01b03168152602090f35b346101555760203660031901126101555760043560a0515260a051602052602060ff604060a0512054166040519015158152f35b346101555760a0513660031901126101555761022e6001600554146115c4565b60026005553360a05152602060038152604060a05120549060048152604060a051205490821580158091610479575b1561043e573360a051526003825260a051604060a05120556004825260a051604060a05120556103a5575b816102c8575b6040519283528201527f2cda16247df83dcfadf1d232f96f4559b97a46765d7a8af991b770e8a450249a60403392a2600160055560a05180f35b60405163a9059cbb60e01b81528181806102e68633600484016116d0565b038160a05160018060a01b037f0000000000000000000000000000000000000000000000000000000000000000165af19081156103985760a05191610363575b5061028e576064906040519062461bcd60e51b8252600482015260116024820152701554d110c818db185a5b4819985a5b1959607a1b6044820152fd5b90508181813d8311610391575b61037a8183611632565b810103126101555761038b90611686565b84610326565b503d610370565b6040513d60a051823e3d90fd5b60a05180808086335af13d15610439573d6001600160401b03811161042157604051906103db601f8201601f1916850183611632565b815260a0513d9184013e5b610288576064906040519062461bcd60e51b82526004820152601060248201526f1155120818db185a5b4819985a5b195960821b6044820152fd5b634e487b7160e01b60a051526041600452602460a051fd5b6103e6565b60405162461bcd60e51b81526004810183905260136024820152724e6f20736574746c656d656e74207072697a6560681b6044820152606490fd5b5082151561025d565b346101555760203660031901126101555760043560ff81168091036101555760a0515260026020526020604060a0512054604051908152f35b34610155576020366003190112610155576004356001600160a01b038116908190036101555760a0515260046020526020604060a0512054604051908152f35b34610155576060366003190112610155576024356001600160401b0381116101555761052b90369060040161158f565b906044356001600160401b0381116101555761054b90369060040161158f565b91909261055c6001600554146115c4565b600260055560043560a0515260a05160205260ff604060a05120541661148957604051636fd0763b60e11b815260048035908201526020816024817f00000000000000000000000000000000000000000000000000000000000000006001600160a01b03165afa9081156103985760a0519161144e575b506008811015611436576004036113fc5760405163cba0b84160e01b81526004803590820152916101c0836024817f00000000000000000000000000000000000000000000000000000000000000006001600160a01b03165afa9283156103985760a051936112d1575b50604051633d4b37d160e11b815260048035908201526020816024817f00000000000000000000000000000000000000000000000000000000000000006001600160a01b03165afa9081156103985760a05191611297575b506112595761ffff61010084015116821480611250575b1561120c576040516309ea3e2760e31b815260048035908201529160c0836024817f00000000000000000000000000000000000000000000000000000000000000006001600160a01b03165afa9283156103985760a051936111d5575b509193949061071783611693565b926107256040519485611632565b80845261073181611693565b601f190136602086013761074481611693565b956107526040519788611632565b818752601f1961076183611693565b0136602089013760a051608081905297889485935b808510610b71578a8a8a8a6040519263280f60bb60e21b8452600435600485015260408460248160a05160018060a01b037f0000000000000000000000000000000000000000000000000000000000000000165af19384156103985760a0519060a05195610b34575b506108056108249160ff60408701511660a051526001602052604060a05120549061170c565b9460ff60408601511660a051526002602052604060a05120549061170c565b9460ff60408501511660a05152600160205260a051604060a051205560ff60408501511660a05152600260205260a051604060a051205561ffff60805116156000146109a65750505060408160ff82819401511660a051526001602052838260a051205582828201511660a051526002602052848260a05120550151169160405191825260208201527f7e21bcac4da55c5cb8c3e40558d43b7554df07105d508da62dd43f5bee159181604060043592a35b60a08051600435905251602081905260409020805460ff191660011790557f00000000000000000000000000000000000000000000000000000000000000006001600160a01b03163b1561015557604051639aee50dd60e01b8152600480359082015260805161ffff16602482015260a05181604481837f00000000000000000000000000000000000000000000000000000000000000006001600160a01b03165af180156103985761098f575b600160055560a05180f35b6001600160401b0381116104215760405280610984565b60a05191829190825b888861ffff608051168310610a8557610a0d945060ff989693506109d992506040979591506117aa565b6001600160a01b036109ea856116eb565b511660a051526003602052610a058660a0512091825461170c565b9055876117aa565b906001600160a01b0390610a20906116eb565b511660a051526004602052610a3b8360a0512091825461170c565b9055015116916040519161ffff608051168352602083015260408201527fd5f041acdab20435cff523e8ea2d99524930a12cddd4cdec694615533a9e2a08606060043592a36108d6565b90610ad1610ab19796610acb610ac388610ab681610ab18a99610aaa60019c8e6116f8565b5190611777565b61178a565b9b8c96610aaa898c6116f8565b93849261170c565b9761170c565b96838060a01b03610ae2848b6116f8565b511660a051526003602052610afe604060a0512091825461170c565b9055828060a01b03610b10838a6116f8565b511660a051526004602052610b2c604060a0512091825461170c565b9055016109af565b9450506040843d604011610b69575b81610b5060409383611632565b81010312610155578351602090940151936108056107df565b3d9150610b43565b90919293949599610b838683896116aa565b359a8b1115611191578a95604051602081019060043582528d604082015260408152610bae81611601565b5190208582101561117957601e19853603018260051b8601351215610155576001600160401b03600583901b8601358601351161015557600582811b8601358601803590911b3603602090910113610155576101208b01519060a0515b8360051b87013587013581106111055750036110c357858c10156110b957604051632ad211ed60e21b81526004803590820152602481018d90529160e0836044817f00000000000000000000000000000000000000000000000000000000000000006001600160a01b03165afa9283156103985760a05193611005575b5060208301516001600160a01b03168015908115610ff1575b50610fe65760208301516040516327757a2d60e21b815260048035908201526001600160a01b03918216602482015290606090829060449082907f0000000000000000000000000000000000000000000000000000000000000000165afa9081156103985760a05191610f92575b5060c08c01516001600160401b0390811691161015610f5157602083015160405163e78a645160e01b8152906101209082908190610d5d9060048035916001600160a01b03169084016116d0565b03817f00000000000000000000000000000000000000000000000000000000000000006001600160a01b03165afa80156103985760a05190610e99575b610100915001518015610e5d57610dc39181610dbd8f61ffff60805116906116f8565b5261170c565b6020830151608051919d9193906001600160a01b031661ffff80861614610e4557610dfe61ffff60019687826080511601608052168d6116f8565b526020848060a01b0391015116906004357fddf504c360697290c6c4137b2d4210a449c6006eb9cff1f78a9daefc01a34cda60a05160a051a45b0193929190959495610776565b634e487b7160e01b60a051526011600452602460a051fd5b60405162461bcd60e51b815260206004820152601460248201527315da5b9b995c881a185cc81b9bc81dd95a59da1d60621b6044820152606490fd5b50610120813d61012011610f49575b81610eb66101209383611632565b81010312610155576040516001600160401b036101208201908111908211176104215761010080926101208301604052610eef81611686565b8352610efd60208201611655565b602084015260408101516040840152606081015160608401526080808201519084015260a0808201519084015260c081015160c084015260e081015160e0840152015182820152610d9a565b3d9150610ea8565b9b6001926020848060a01b0391015116906004357f53ac4a836193441c03225f8fb73c7843d9318ca2f6d5191d079c63bd1f7663f460a05160a051a4610e38565b90506060813d606011610fde575b81610fad60609383611632565b8101031261015557610fd76040610fc383611663565b92610fd060208201611677565b5001611677565b508e610d0f565b3d9150610fa0565b9b5060019150610e38565b610fff91506080518c61172f565b8e610ca1565b90925060e0813d60e0116110b1575b8161102160e09383611632565b8101031261015557604051906001600160401b0360e08301908111908311176104215760e082016040528051825260208101516001600160a01b0381168103610155576110a59160c091602085015261107c60408201611655565b6040850152606081015160608501526080808201519085015260a0808201519085015201611686565b60c0820152918d610c88565b3d9150611014565b6001919b50610e38565b60405162461bcd60e51b815260206004820152601a60248201527924b73b30b634b2103bb4b73734b7339031b2b63610383937b7b360311b6044820152606490fd5b9060019061112283600587901b8a01358a018035906020016116aa565b358082101561115357604051906020820192835260408201526040815261114881611601565b5190205b9101610c0b565b90604051906020820192835260408201526040815261117181611601565b51902061114c565b634e487b7160e01b60a051526032600452602460a051fd5b60405162461bcd60e51b815260206004820152601c60248201527b15da5b9b9a5b99c818d95b1b1cc81b5d5cdd081899481cdbdc9d195960221b6044820152606490fd5b90925060c0813d60c011611204575b816111f160c09383611632565b8101031261015557608001519186610709565b3d91506111e4565b60405162461bcd60e51b815260206004820152601c60248201527b10dbdb5c1b195d19481dda5b9b995c881cd95d081c995c5d5a5c995960221b6044820152606490fd5b508184146106ac565b60405162461bcd60e51b815260206004820152601660248201527550656e64696e6720726f756e642072656379636c657360501b6044820152606490fd5b90506020813d6020116112c9575b816112b260209383611632565b81010312610155576112c390611686565b86610695565b3d91506112a5565b9092506101c0813d6101c0116113f4575b816112f06101c09383611632565b8101031261015557604051906001600160401b036101c0830190811190831117610421576101c08201604052805182526020810151602083015261133660408201611655565b604083015261134760608201611663565b606083015261135860808201611663565b608083015261136960a08201611663565b60a083015261137a60c08201611663565b60c083015260e081015163ffffffff811681036101555760e08301526101006113a4818301611677565b908301526101208082015190830152610140808201519083015261016080820151908301526101806113d7818301611677565b908301526113e96101a0809201611677565b90820152918561063d565b3d91506112e2565b60405162461bcd60e51b8152602060048201526012602482015271526f756e64206973206e6f7420726561647960701b6044820152606490fd5b634e487b7160e01b60a051526021600452602460a051fd5b90506020813d602011611481575b8161146960209383611632565b810103126101555751600881101561015557856105d3565b3d915061145c565b60405162461bcd60e51b8152602060048201526015602482015274149bdd5b9908185b1c9958591e481cd95d1d1b1959605a1b6044820152606490fd5b34610155576020366003190112610155576004356001600160a01b038116908190036101555760a0515260036020526020604060a0512054604051908152f35b346101555760a051366003190112610155576040517f00000000000000000000000000000000000000000000000000000000000000006001600160a01b03168152602090f35b346101555760a051366003190112610155577f00000000000000000000000000000000000000000000000000000000000000006001600160a01b03168152602090f35b9181601f840112156115bf578235916001600160401b0383116115bf576020808501948460051b0101116115bf57565b600080fd5b156115cb57565b60405162461bcd60e51b815260206004820152600e60248201526d1499595b9d1c985b9d0818d85b1b60921b6044820152606490fd5b606081019081106001600160401b0382111761161c57604052565b634e487b7160e01b600052604160045260246000fd5b601f909101601f19168101906001600160401b0382119082101761161c57604052565b519060ff821682036115bf57565b51906001600160401b03821682036115bf57565b519061ffff821682036115bf57565b519081151582036115bf57565b6001600160401b03811161161c5760051b60200190565b91908110156116ba5760051b0190565b634e487b7160e01b600052603260045260246000fd5b6001600160a01b039091168152602081019190915260400190565b8051156116ba5760200190565b80518210156116ba5760209160051b010190565b9190820180921161171957565b634e487b7160e01b600052601160045260246000fd5b91909160005b61ffff841681106117495750505050600090565b6001600160a01b038061175c83856116f8565b51169084161461176e57600101611735565b50505050600190565b8181029291811591840414171561171957565b8115611794570490565b634e487b7160e01b600052601260045260246000fd5b919082039182116117195756fea26469706673582212207a0773a4bf2944cfd18590a762c4272cfbdf70d877a07e581f83d58faa73f8f864736f6c63430008180033",
  "linkReferences": {},
  "deployedLinkReferences": {}
}