{
  "_format": "hh-sol-artifact-1",
  "contractName": "EasyGameAdvance",
  "sourceName": "contracts/EasyGameAdvance.sol",
  "abi": [
    {
      "inputs": [
        {
          "internalType": "address",
          "name": "projectWallet_",
          "type": "address"
        },
        {
          "internalType": "address",
          "name": "treasuryWallet_",
          "type": "address"
        },
        {
          "internalType": "address",
          "name": "operatorWallet_",
          "type": "address"
        },
        {
          "internalType": "address",
          "name": "usdcToken_",
          "type": "address"
        },
        {
          "internalType": "address",
          "name": "roundManager_",
          "type": "address"
        }
      ],
      "stateMutability": "nonpayable",
      "type": "constructor"
    },
    {
      "inputs": [],
      "name": "IncorrectRoundPayment",
      "type": "error"
    },
    {
      "inputs": [
        {
          "internalType": "uint8",
          "name": "level",
          "type": "uint8"
        }
      ],
      "name": "InvalidLevel",
      "type": "error"
    },
    {
      "inputs": [
        {
          "internalType": "uint256",
          "name": "requested",
          "type": "uint256"
        },
        {
          "internalType": "uint256",
          "name": "maximum",
          "type": "uint256"
        }
      ],
      "name": "InvalidRecycleBatch",
      "type": "error"
    },
    {
      "inputs": [
        {
          "internalType": "uint256",
          "name": "roundId",
          "type": "uint256"
        },
        {
          "internalType": "uint256",
          "name": "cellId",
          "type": "uint256"
        }
      ],
      "name": "InvalidRoundCell",
      "type": "error"
    },
    {
      "inputs": [
        {
          "internalType": "address",
          "name": "target",
          "type": "address"
        }
      ],
      "name": "InvalidSystemContract",
      "type": "error"
    },
    {
      "inputs": [
        {
          "internalType": "uint8",
          "name": "level",
          "type": "uint8"
        }
      ],
      "name": "LevelEmergencyPaused",
      "type": "error"
    },
    {
      "inputs": [
        {
          "internalType": "uint256",
          "name": "roundId",
          "type": "uint256"
        },
        {
          "internalType": "uint256",
          "name": "pending",
          "type": "uint256"
        }
      ],
      "name": "PendingRoundRecycles",
      "type": "error"
    },
    {
      "inputs": [
        {
          "internalType": "uint256",
          "name": "roundId",
          "type": "uint256"
        },
        {
          "internalType": "uint256",
          "name": "parentCellId",
          "type": "uint256"
        }
      ],
      "name": "RoundParentAlreadyClosed",
      "type": "error"
    },
    {
      "inputs": [
        {
          "internalType": "uint256",
          "name": "roundId",
          "type": "uint256"
        },
        {
          "internalType": "address",
          "name": "player",
          "type": "address"
        }
      ],
      "name": "RoundTicketAlreadyActive",
      "type": "error"
    },
    {
      "inputs": [],
      "name": "RoundUsdcDisabled",
      "type": "error"
    },
    {
      "inputs": [],
      "name": "SystemContractsAlreadyFinalized",
      "type": "error"
    },
    {
      "inputs": [],
      "name": "SystemContractsNotFinalized",
      "type": "error"
    },
    {
      "inputs": [],
      "name": "TokenTransferFailed",
      "type": "error"
    },
    {
      "inputs": [],
      "name": "UsdcTokenLocked",
      "type": "error"
    },
    {
      "inputs": [],
      "name": "ZeroAddress",
      "type": "error"
    },
    {
      "anonymous": false,
      "inputs": [
        {
          "indexed": true,
          "internalType": "uint8",
          "name": "level",
          "type": "uint8"
        },
        {
          "indexed": false,
          "internalType": "bool",
          "name": "available",
          "type": "bool"
        }
      ],
      "name": "LevelAvailabilityChanged",
      "type": "event"
    },
    {
      "anonymous": false,
      "inputs": [
        {
          "indexed": true,
          "internalType": "address",
          "name": "previousOwner",
          "type": "address"
        },
        {
          "indexed": true,
          "internalType": "address",
          "name": "newOwner",
          "type": "address"
        }
      ],
      "name": "OwnershipTransferred",
      "type": "event"
    },
    {
      "anonymous": false,
      "inputs": [
        {
          "indexed": true,
          "internalType": "address",
          "name": "wallet",
          "type": "address"
        },
        {
          "indexed": false,
          "internalType": "uint256",
          "name": "amount",
          "type": "uint256"
        }
      ],
      "name": "ProjectFeesWithdrawn",
      "type": "event"
    },
    {
      "anonymous": false,
      "inputs": [
        {
          "indexed": true,
          "internalType": "address",
          "name": "player",
          "type": "address"
        },
        {
          "indexed": false,
          "internalType": "uint256",
          "name": "amount",
          "type": "uint256"
        }
      ],
      "name": "ReferralBonusClaimed",
      "type": "event"
    },
    {
      "anonymous": false,
      "inputs": [
        {
          "indexed": true,
          "internalType": "address",
          "name": "player",
          "type": "address"
        },
        {
          "indexed": true,
          "internalType": "uint256",
          "name": "roundId",
          "type": "uint256"
        },
        {
          "indexed": true,
          "internalType": "uint256",
          "name": "cellId",
          "type": "uint256"
        },
        {
          "indexed": false,
          "internalType": "uint256",
          "name": "tickets",
          "type": "uint256"
        }
      ],
      "name": "ReferralBonusPositionGranted",
      "type": "event"
    },
    {
      "anonymous": false,
      "inputs": [
        {
          "indexed": true,
          "internalType": "address",
          "name": "player",
          "type": "address"
        },
        {
          "indexed": true,
          "internalType": "uint256",
          "name": "roundId",
          "type": "uint256"
        },
        {
          "indexed": true,
          "internalType": "uint8",
          "name": "level",
          "type": "uint8"
        },
        {
          "indexed": false,
          "internalType": "uint256",
          "name": "amount",
          "type": "uint256"
        },
        {
          "indexed": false,
          "internalType": "uint256",
          "name": "cellId",
          "type": "uint256"
        },
        {
          "indexed": false,
          "internalType": "bool",
          "name": "paidWithUsdc",
          "type": "bool"
        }
      ],
      "name": "RoundActivated",
      "type": "event"
    },
    {
      "anonymous": false,
      "inputs": [
        {
          "indexed": true,
          "internalType": "address",
          "name": "oldManager",
          "type": "address"
        },
        {
          "indexed": true,
          "internalType": "address",
          "name": "newManager",
          "type": "address"
        }
      ],
      "name": "RoundManagerChanged",
      "type": "event"
    },
    {
      "anonymous": false,
      "inputs": [
        {
          "indexed": true,
          "internalType": "address",
          "name": "player",
          "type": "address"
        },
        {
          "indexed": true,
          "internalType": "uint256",
          "name": "roundId",
          "type": "uint256"
        },
        {
          "indexed": true,
          "internalType": "uint256",
          "name": "cellId",
          "type": "uint256"
        },
        {
          "indexed": false,
          "internalType": "uint256",
          "name": "parentCellId",
          "type": "uint256"
        }
      ],
      "name": "RoundMatrixPlaced",
      "type": "event"
    },
    {
      "anonymous": false,
      "inputs": [
        {
          "indexed": true,
          "internalType": "address",
          "name": "player",
          "type": "address"
        },
        {
          "indexed": true,
          "internalType": "uint256",
          "name": "roundId",
          "type": "uint256"
        },
        {
          "indexed": false,
          "internalType": "uint256",
          "name": "matrixPrizeAmount",
          "type": "uint256"
        },
        {
          "indexed": false,
          "internalType": "uint256",
          "name": "directReferralAmount",
          "type": "uint256"
        },
        {
          "indexed": false,
          "internalType": "uint256",
          "name": "secondLineAmount",
          "type": "uint256"
        },
        {
          "indexed": false,
          "internalType": "uint256",
          "name": "thirdLineAmount",
          "type": "uint256"
        },
        {
          "indexed": false,
          "internalType": "uint256",
          "name": "projectFeeAmount",
          "type": "uint256"
        },
        {
          "indexed": false,
          "internalType": "bool",
          "name": "paidWithUsdc",
          "type": "bool"
        }
      ],
      "name": "RoundPaymentSplit",
      "type": "event"
    },
    {
      "anonymous": false,
      "inputs": [
        {
          "indexed": true,
          "internalType": "uint256",
          "name": "roundId",
          "type": "uint256"
        },
        {
          "indexed": true,
          "internalType": "address",
          "name": "settlement",
          "type": "address"
        },
        {
          "indexed": false,
          "internalType": "uint256",
          "name": "ethAmount",
          "type": "uint256"
        },
        {
          "indexed": false,
          "internalType": "uint256",
          "name": "usdcAmount",
          "type": "uint256"
        }
      ],
      "name": "RoundPoolsReleased",
      "type": "event"
    },
    {
      "anonymous": false,
      "inputs": [
        {
          "indexed": true,
          "internalType": "uint256",
          "name": "roundId",
          "type": "uint256"
        },
        {
          "indexed": false,
          "internalType": "uint256",
          "name": "processed",
          "type": "uint256"
        },
        {
          "indexed": false,
          "internalType": "uint256",
          "name": "remaining",
          "type": "uint256"
        }
      ],
      "name": "RoundRecycleBatchProcessed",
      "type": "event"
    },
    {
      "anonymous": false,
      "inputs": [
        {
          "indexed": true,
          "internalType": "address",
          "name": "player",
          "type": "address"
        },
        {
          "indexed": true,
          "internalType": "uint256",
          "name": "roundId",
          "type": "uint256"
        },
        {
          "indexed": false,
          "internalType": "uint256",
          "name": "cycleCount",
          "type": "uint256"
        },
        {
          "indexed": false,
          "internalType": "uint256",
          "name": "newCellId",
          "type": "uint256"
        }
      ],
      "name": "RoundRecycled",
      "type": "event"
    },
    {
      "anonymous": false,
      "inputs": [
        {
          "indexed": true,
          "internalType": "address",
          "name": "player",
          "type": "address"
        },
        {
          "indexed": true,
          "internalType": "uint256",
          "name": "roundId",
          "type": "uint256"
        },
        {
          "indexed": false,
          "internalType": "uint256",
          "name": "totalWeight",
          "type": "uint256"
        }
      ],
      "name": "RoundWeightUpdated",
      "type": "event"
    },
    {
      "anonymous": false,
      "inputs": [
        {
          "indexed": true,
          "internalType": "address",
          "name": "oldSettlement",
          "type": "address"
        },
        {
          "indexed": true,
          "internalType": "address",
          "name": "newSettlement",
          "type": "address"
        }
      ],
      "name": "SettlementContractChanged",
      "type": "event"
    },
    {
      "anonymous": false,
      "inputs": [
        {
          "indexed": true,
          "internalType": "address",
          "name": "roundManager",
          "type": "address"
        },
        {
          "indexed": true,
          "internalType": "address",
          "name": "settlementContract",
          "type": "address"
        }
      ],
      "name": "SystemContractsFinalized",
      "type": "event"
    },
    {
      "anonymous": false,
      "inputs": [
        {
          "indexed": true,
          "internalType": "address",
          "name": "token",
          "type": "address"
        },
        {
          "indexed": true,
          "internalType": "address",
          "name": "wallet",
          "type": "address"
        },
        {
          "indexed": false,
          "internalType": "uint256",
          "name": "amount",
          "type": "uint256"
        }
      ],
      "name": "TokenProjectFeesWithdrawn",
      "type": "event"
    },
    {
      "anonymous": false,
      "inputs": [
        {
          "indexed": true,
          "internalType": "address",
          "name": "player",
          "type": "address"
        },
        {
          "indexed": true,
          "internalType": "address",
          "name": "token",
          "type": "address"
        },
        {
          "indexed": false,
          "internalType": "uint256",
          "name": "amount",
          "type": "uint256"
        }
      ],
      "name": "TokenReferralBonusClaimed",
      "type": "event"
    },
    {
      "anonymous": false,
      "inputs": [
        {
          "indexed": true,
          "internalType": "address",
          "name": "oldToken",
          "type": "address"
        },
        {
          "indexed": true,
          "internalType": "address",
          "name": "newToken",
          "type": "address"
        }
      ],
      "name": "UsdcTokenChanged",
      "type": "event"
    },
    {
      "anonymous": false,
      "inputs": [
        {
          "indexed": false,
          "internalType": "address",
          "name": "projectWallet",
          "type": "address"
        },
        {
          "indexed": false,
          "internalType": "address",
          "name": "treasuryWallet",
          "type": "address"
        },
        {
          "indexed": false,
          "internalType": "address",
          "name": "operatorWallet",
          "type": "address"
        }
      ],
      "name": "WalletsChanged",
      "type": "event"
    },
    {
      "inputs": [],
      "name": "BASE_ACTIVATION_WEIGHT",
      "outputs": [
        {
          "internalType": "uint256",
          "name": "",
          "type": "uint256"
        }
      ],
      "stateMutability": "view",
      "type": "function"
    },
    {
      "inputs": [],
      "name": "BOX_NFT_WEIGHT",
      "outputs": [
        {
          "internalType": "uint256",
          "name": "",
          "type": "uint256"
        }
      ],
      "stateMutability": "view",
      "type": "function"
    },
    {
      "inputs": [],
      "name": "BPS",
      "outputs": [
        {
          "internalType": "uint256",
          "name": "",
          "type": "uint256"
        }
      ],
      "stateMutability": "view",
      "type": "function"
    },
    {
      "inputs": [],
      "name": "DIRECT_REF_BPS",
      "outputs": [
        {
          "internalType": "uint256",
          "name": "",
          "type": "uint256"
        }
      ],
      "stateMutability": "view",
      "type": "function"
    },
    {
      "inputs": [],
      "name": "DIRECT_REF_WEIGHT",
      "outputs": [
        {
          "internalType": "uint256",
          "name": "",
          "type": "uint256"
        }
      ],
      "stateMutability": "view",
      "type": "function"
    },
    {
      "inputs": [],
      "name": "LEVEL_COUNT",
      "outputs": [
        {
          "internalType": "uint8",
          "name": "",
          "type": "uint8"
        }
      ],
      "stateMutability": "view",
      "type": "function"
    },
    {
      "inputs": [],
      "name": "MATRIX_PRIZE_BPS",
      "outputs": [
        {
          "internalType": "uint256",
          "name": "",
          "type": "uint256"
        }
      ],
      "stateMutability": "view",
      "type": "function"
    },
    {
      "inputs": [],
      "name": "MAX_BASE_WEIGHT_PER_LEVEL",
      "outputs": [
        {
          "internalType": "uint256",
          "name": "",
          "type": "uint256"
        }
      ],
      "stateMutability": "view",
      "type": "function"
    },
    {
      "inputs": [],
      "name": "MAX_MATRIX_WEIGHT_PER_LEVEL",
      "outputs": [
        {
          "internalType": "uint256",
          "name": "",
          "type": "uint256"
        }
      ],
      "stateMutability": "view",
      "type": "function"
    },
    {
      "inputs": [],
      "name": "MAX_NFT_WEIGHT_PER_LEVEL",
      "outputs": [
        {
          "internalType": "uint256",
          "name": "",
          "type": "uint256"
        }
      ],
      "stateMutability": "view",
      "type": "function"
    },
    {
      "inputs": [],
      "name": "MAX_RECYCLE_STEPS_PER_TX",
      "outputs": [
        {
          "internalType": "uint8",
          "name": "",
          "type": "uint8"
        }
      ],
      "stateMutability": "view",
      "type": "function"
    },
    {
      "inputs": [],
      "name": "MAX_REFERRAL_WEIGHT_PER_LEVEL",
      "outputs": [
        {
          "internalType": "uint256",
          "name": "",
          "type": "uint256"
        }
      ],
      "stateMutability": "view",
      "type": "function"
    },
    {
      "inputs": [],
      "name": "MAX_TOTAL_WEIGHT_PER_LEVEL",
      "outputs": [
        {
          "internalType": "uint256",
          "name": "",
          "type": "uint256"
        }
      ],
      "stateMutability": "view",
      "type": "function"
    },
    {
      "inputs": [],
      "name": "PROJECT_FEE_BPS",
      "outputs": [
        {
          "internalType": "uint256",
          "name": "",
          "type": "uint256"
        }
      ],
      "stateMutability": "view",
      "type": "function"
    },
    {
      "inputs": [],
      "name": "RECYCLE_MATRIX_WEIGHT",
      "outputs": [
        {
          "internalType": "uint256",
          "name": "",
          "type": "uint256"
        }
      ],
      "stateMutability": "view",
      "type": "function"
    },
    {
      "inputs": [],
      "name": "SECOND_REF_BPS",
      "outputs": [
        {
          "internalType": "uint256",
          "name": "",
          "type": "uint256"
        }
      ],
      "stateMutability": "view",
      "type": "function"
    },
    {
      "inputs": [],
      "name": "SECOND_REF_WEIGHT",
      "outputs": [
        {
          "internalType": "uint256",
          "name": "",
          "type": "uint256"
        }
      ],
      "stateMutability": "view",
      "type": "function"
    },
    {
      "inputs": [],
      "name": "THIRD_REF_BPS",
      "outputs": [
        {
          "internalType": "uint256",
          "name": "",
          "type": "uint256"
        }
      ],
      "stateMutability": "view",
      "type": "function"
    },
    {
      "inputs": [],
      "name": "THIRD_REF_WEIGHT",
      "outputs": [
        {
          "internalType": "uint256",
          "name": "",
          "type": "uint256"
        }
      ],
      "stateMutability": "view",
      "type": "function"
    },
    {
      "inputs": [
        {
          "components": [
            {
              "internalType": "uint256",
              "name": "seasonId",
              "type": "uint256"
            },
            {
              "internalType": "uint256",
              "name": "roundId",
              "type": "uint256"
            },
            {
              "internalType": "uint8",
              "name": "level",
              "type": "uint8"
            },
            {
              "internalType": "uint64",
              "name": "startsAt",
              "type": "uint64"
            },
            {
              "internalType": "uint64",
              "name": "entriesCloseAt",
              "type": "uint64"
            },
            {
              "internalType": "uint64",
              "name": "endsAt",
              "type": "uint64"
            },
            {
              "internalType": "uint64",
              "name": "freezeClosesAt",
              "type": "uint64"
            },
            {
              "internalType": "uint32",
              "name": "maxPlayers",
              "type": "uint32"
            },
            {
              "internalType": "uint16",
              "name": "maxWinners",
              "type": "uint16"
            },
            {
              "internalType": "bytes32",
              "name": "winningCellsRoot",
              "type": "bytes32"
            },
            {
              "internalType": "uint256",
              "name": "ethPrice",
              "type": "uint256"
            },
            {
              "internalType": "uint256",
              "name": "usdcPrice",
              "type": "uint256"
            },
            {
              "internalType": "uint16",
              "name": "freezeLimit",
              "type": "uint16"
            },
            {
              "internalType": "uint16",
              "name": "paymentSplitVersion",
              "type": "uint16"
            }
          ],
          "internalType": "struct RoundConfig",
          "name": "config",
          "type": "tuple"
        },
        {
          "internalType": "bytes",
          "name": "signature",
          "type": "bytes"
        },
        {
          "internalType": "address",
          "name": "inviter",
          "type": "address"
        }
      ],
      "name": "activateRound",
      "outputs": [],
      "stateMutability": "payable",
      "type": "function"
    },
    {
      "inputs": [
        {
          "components": [
            {
              "internalType": "uint256",
              "name": "seasonId",
              "type": "uint256"
            },
            {
              "internalType": "uint256",
              "name": "roundId",
              "type": "uint256"
            },
            {
              "internalType": "uint8",
              "name": "level",
              "type": "uint8"
            },
            {
              "internalType": "uint64",
              "name": "startsAt",
              "type": "uint64"
            },
            {
              "internalType": "uint64",
              "name": "entriesCloseAt",
              "type": "uint64"
            },
            {
              "internalType": "uint64",
              "name": "endsAt",
              "type": "uint64"
            },
            {
              "internalType": "uint64",
              "name": "freezeClosesAt",
              "type": "uint64"
            },
            {
              "internalType": "uint32",
              "name": "maxPlayers",
              "type": "uint32"
            },
            {
              "internalType": "uint16",
              "name": "maxWinners",
              "type": "uint16"
            },
            {
              "internalType": "bytes32",
              "name": "winningCellsRoot",
              "type": "bytes32"
            },
            {
              "internalType": "uint256",
              "name": "ethPrice",
              "type": "uint256"
            },
            {
              "internalType": "uint256",
              "name": "usdcPrice",
              "type": "uint256"
            },
            {
              "internalType": "uint16",
              "name": "freezeLimit",
              "type": "uint16"
            },
            {
              "internalType": "uint16",
              "name": "paymentSplitVersion",
              "type": "uint16"
            }
          ],
          "internalType": "struct RoundConfig",
          "name": "config",
          "type": "tuple"
        },
        {
          "internalType": "bytes",
          "name": "signature",
          "type": "bytes"
        },
        {
          "internalType": "address",
          "name": "inviter",
          "type": "address"
        }
      ],
      "name": "activateRoundWithUSDC",
      "outputs": [],
      "stateMutability": "nonpayable",
      "type": "function"
    },
    {
      "inputs": [],
      "name": "claimReferralBonus",
      "outputs": [],
      "stateMutability": "nonpayable",
      "type": "function"
    },
    {
      "inputs": [],
      "name": "claimReferralBonusUSDC",
      "outputs": [],
      "stateMutability": "nonpayable",
      "type": "function"
    },
    {
      "inputs": [
        {
          "internalType": "address",
          "name": "",
          "type": "address"
        }
      ],
      "name": "claimableReferralBonusUsdc",
      "outputs": [
        {
          "internalType": "uint256",
          "name": "",
          "type": "uint256"
        }
      ],
      "stateMutability": "view",
      "type": "function"
    },
    {
      "inputs": [],
      "name": "finalizeSystemContracts",
      "outputs": [],
      "stateMutability": "nonpayable",
      "type": "function"
    },
    {
      "inputs": [
        {
          "internalType": "address",
          "name": "playerAddress",
          "type": "address"
        }
      ],
      "name": "getPlayer",
      "outputs": [
        {
          "components": [
            {
              "internalType": "bool",
              "name": "exists",
              "type": "bool"
            },
            {
              "internalType": "address",
              "name": "wallet",
              "type": "address"
            },
            {
              "internalType": "address",
              "name": "inviter",
              "type": "address"
            },
            {
              "internalType": "address",
              "name": "secondLine",
              "type": "address"
            },
            {
              "internalType": "address",
              "name": "thirdLine",
              "type": "address"
            },
            {
              "internalType": "uint256",
              "name": "totalTickets",
              "type": "uint256"
            },
            {
              "internalType": "uint256",
              "name": "baseWeight",
              "type": "uint256"
            },
            {
              "internalType": "uint256",
              "name": "referralWeight",
              "type": "uint256"
            },
            {
              "internalType": "uint256",
              "name": "matrixWeight",
              "type": "uint256"
            },
            {
              "internalType": "uint256",
              "name": "nftWeight",
              "type": "uint256"
            },
            {
              "internalType": "uint256",
              "name": "totalWeight",
              "type": "uint256"
            },
            {
              "internalType": "uint256",
              "name": "boxTokens",
              "type": "uint256"
            },
            {
              "internalType": "uint256",
              "name": "recycleCount",
              "type": "uint256"
            },
            {
              "internalType": "uint256",
              "name": "claimableReferralBonus",
              "type": "uint256"
            },
            {
              "internalType": "uint256",
              "name": "joinedAt",
              "type": "uint256"
            },
            {
              "internalType": "uint256",
              "name": "lastActiveAt",
              "type": "uint256"
            }
          ],
          "internalType": "struct Player",
          "name": "",
          "type": "tuple"
        }
      ],
      "stateMutability": "view",
      "type": "function"
    },
    {
      "inputs": [
        {
          "internalType": "address",
          "name": "playerAddress",
          "type": "address"
        },
        {
          "internalType": "uint256",
          "name": "roundId",
          "type": "uint256"
        }
      ],
      "name": "getPlayerRound",
      "outputs": [
        {
          "components": [
            {
              "internalType": "bool",
              "name": "active",
              "type": "bool"
            },
            {
              "internalType": "uint8",
              "name": "level",
              "type": "uint8"
            },
            {
              "internalType": "uint256",
              "name": "tickets",
              "type": "uint256"
            },
            {
              "internalType": "uint256",
              "name": "cellId",
              "type": "uint256"
            },
            {
              "internalType": "uint256",
              "name": "parentCellId",
              "type": "uint256"
            },
            {
              "internalType": "uint256",
              "name": "leftChildCellId",
              "type": "uint256"
            },
            {
              "internalType": "uint256",
              "name": "rightChildCellId",
              "type": "uint256"
            },
            {
              "internalType": "uint256",
              "name": "cycleCount",
              "type": "uint256"
            },
            {
              "internalType": "uint256",
              "name": "totalWeight",
              "type": "uint256"
            }
          ],
          "internalType": "struct PlayerRound",
          "name": "",
          "type": "tuple"
        }
      ],
      "stateMutability": "view",
      "type": "function"
    },
    {
      "inputs": [
        {
          "internalType": "uint256",
          "name": "roundId",
          "type": "uint256"
        }
      ],
      "name": "getRoundGameStats",
      "outputs": [
        {
          "internalType": "uint256",
          "name": "prizePoolEth",
          "type": "uint256"
        },
        {
          "internalType": "uint256",
          "name": "prizePoolUsdc",
          "type": "uint256"
        },
        {
          "internalType": "uint256",
          "name": "totalWeight",
          "type": "uint256"
        },
        {
          "internalType": "uint256",
          "name": "activeCells",
          "type": "uint256"
        },
        {
          "internalType": "uint256",
          "name": "nextCell",
          "type": "uint256"
        },
        {
          "internalType": "uint256",
          "name": "nextOpenParent",
          "type": "uint256"
        }
      ],
      "stateMutability": "view",
      "type": "function"
    },
    {
      "inputs": [
        {
          "internalType": "uint256",
          "name": "roundId",
          "type": "uint256"
        },
        {
          "internalType": "uint256",
          "name": "cellId",
          "type": "uint256"
        }
      ],
      "name": "getRoundMatrixNode",
      "outputs": [
        {
          "components": [
            {
              "internalType": "uint256",
              "name": "cellId",
              "type": "uint256"
            },
            {
              "internalType": "address",
              "name": "player",
              "type": "address"
            },
            {
              "internalType": "uint8",
              "name": "level",
              "type": "uint8"
            },
            {
              "internalType": "uint256",
              "name": "parentCellId",
              "type": "uint256"
            },
            {
              "internalType": "uint256",
              "name": "leftChildCellId",
              "type": "uint256"
            },
            {
              "internalType": "uint256",
              "name": "rightChildCellId",
              "type": "uint256"
            },
            {
              "internalType": "bool",
              "name": "closed",
              "type": "bool"
            }
          ],
          "internalType": "struct MatrixNode",
          "name": "",
          "type": "tuple"
        }
      ],
      "stateMutability": "view",
      "type": "function"
    },
    {
      "inputs": [
        {
          "internalType": "uint256",
          "name": "roundId",
          "type": "uint256"
        }
      ],
      "name": "getRoundRecycleQueueState",
      "outputs": [
        {
          "internalType": "uint256",
          "name": "head",
          "type": "uint256"
        },
        {
          "internalType": "uint256",
          "name": "tail",
          "type": "uint256"
        },
        {
          "internalType": "uint256",
          "name": "pending",
          "type": "uint256"
        }
      ],
      "stateMutability": "view",
      "type": "function"
    },
    {
      "inputs": [
        {
          "internalType": "uint256",
          "name": "roundId",
          "type": "uint256"
        }
      ],
      "name": "hasPendingRoundRecycles",
      "outputs": [
        {
          "internalType": "bool",
          "name": "",
          "type": "bool"
        }
      ],
      "stateMutability": "view",
      "type": "function"
    },
    {
      "inputs": [
        {
          "internalType": "uint8",
          "name": "",
          "type": "uint8"
        }
      ],
      "name": "levelAvailable",
      "outputs": [
        {
          "internalType": "bool",
          "name": "",
          "type": "bool"
        }
      ],
      "stateMutability": "view",
      "type": "function"
    },
    {
      "inputs": [],
      "name": "operatorWallet",
      "outputs": [
        {
          "internalType": "address",
          "name": "",
          "type": "address"
        }
      ],
      "stateMutability": "view",
      "type": "function"
    },
    {
      "inputs": [],
      "name": "owner",
      "outputs": [
        {
          "internalType": "address",
          "name": "",
          "type": "address"
        }
      ],
      "stateMutability": "view",
      "type": "function"
    },
    {
      "inputs": [
        {
          "internalType": "address",
          "name": "",
          "type": "address"
        },
        {
          "internalType": "uint256",
          "name": "",
          "type": "uint256"
        }
      ],
      "name": "playerRounds",
      "outputs": [
        {
          "internalType": "bool",
          "name": "active",
          "type": "bool"
        },
        {
          "internalType": "uint8",
          "name": "level",
          "type": "uint8"
        },
        {
          "internalType": "uint256",
          "name": "tickets",
          "type": "uint256"
        },
        {
          "internalType": "uint256",
          "name": "cellId",
          "type": "uint256"
        },
        {
          "internalType": "uint256",
          "name": "parentCellId",
          "type": "uint256"
        },
        {
          "internalType": "uint256",
          "name": "leftChildCellId",
          "type": "uint256"
        },
        {
          "internalType": "uint256",
          "name": "rightChildCellId",
          "type": "uint256"
        },
        {
          "internalType": "uint256",
          "name": "cycleCount",
          "type": "uint256"
        },
        {
          "internalType": "uint256",
          "name": "totalWeight",
          "type": "uint256"
        }
      ],
      "stateMutability": "view",
      "type": "function"
    },
    {
      "inputs": [
        {
          "internalType": "address",
          "name": "",
          "type": "address"
        }
      ],
      "name": "players",
      "outputs": [
        {
          "internalType": "bool",
          "name": "exists",
          "type": "bool"
        },
        {
          "internalType": "address",
          "name": "wallet",
          "type": "address"
        },
        {
          "internalType": "address",
          "name": "inviter",
          "type": "address"
        },
        {
          "internalType": "address",
          "name": "secondLine",
          "type": "address"
        },
        {
          "internalType": "address",
          "name": "thirdLine",
          "type": "address"
        },
        {
          "internalType": "uint256",
          "name": "totalTickets",
          "type": "uint256"
        },
        {
          "internalType": "uint256",
          "name": "baseWeight",
          "type": "uint256"
        },
        {
          "internalType": "uint256",
          "name": "referralWeight",
          "type": "uint256"
        },
        {
          "internalType": "uint256",
          "name": "matrixWeight",
          "type": "uint256"
        },
        {
          "internalType": "uint256",
          "name": "nftWeight",
          "type": "uint256"
        },
        {
          "internalType": "uint256",
          "name": "totalWeight",
          "type": "uint256"
        },
        {
          "internalType": "uint256",
          "name": "boxTokens",
          "type": "uint256"
        },
        {
          "internalType": "uint256",
          "name": "recycleCount",
          "type": "uint256"
        },
        {
          "internalType": "uint256",
          "name": "claimableReferralBonus",
          "type": "uint256"
        },
        {
          "internalType": "uint256",
          "name": "joinedAt",
          "type": "uint256"
        },
        {
          "internalType": "uint256",
          "name": "lastActiveAt",
          "type": "uint256"
        }
      ],
      "stateMutability": "view",
      "type": "function"
    },
    {
      "inputs": [
        {
          "internalType": "uint256",
          "name": "roundId",
          "type": "uint256"
        },
        {
          "internalType": "uint256",
          "name": "maxSteps",
          "type": "uint256"
        }
      ],
      "name": "processRoundRecycles",
      "outputs": [
        {
          "internalType": "uint256",
          "name": "processed",
          "type": "uint256"
        },
        {
          "internalType": "uint256",
          "name": "remaining",
          "type": "uint256"
        }
      ],
      "stateMutability": "nonpayable",
      "type": "function"
    },
    {
      "inputs": [],
      "name": "projectFeesAccrued",
      "outputs": [
        {
          "internalType": "uint256",
          "name": "",
          "type": "uint256"
        }
      ],
      "stateMutability": "view",
      "type": "function"
    },
    {
      "inputs": [],
      "name": "projectFeesAccruedUsdc",
      "outputs": [
        {
          "internalType": "uint256",
          "name": "",
          "type": "uint256"
        }
      ],
      "stateMutability": "view",
      "type": "function"
    },
    {
      "inputs": [],
      "name": "projectWallet",
      "outputs": [
        {
          "internalType": "address",
          "name": "",
          "type": "address"
        }
      ],
      "stateMutability": "view",
      "type": "function"
    },
    {
      "inputs": [
        {
          "internalType": "uint256",
          "name": "roundId",
          "type": "uint256"
        }
      ],
      "name": "releaseRoundPools",
      "outputs": [
        {
          "internalType": "uint256",
          "name": "ethAmount",
          "type": "uint256"
        },
        {
          "internalType": "uint256",
          "name": "usdcAmount",
          "type": "uint256"
        }
      ],
      "stateMutability": "nonpayable",
      "type": "function"
    },
    {
      "inputs": [
        {
          "internalType": "uint256",
          "name": "",
          "type": "uint256"
        }
      ],
      "name": "roundActiveCells",
      "outputs": [
        {
          "internalType": "uint256",
          "name": "",
          "type": "uint256"
        }
      ],
      "stateMutability": "view",
      "type": "function"
    },
    {
      "inputs": [],
      "name": "roundManager",
      "outputs": [
        {
          "internalType": "address",
          "name": "",
          "type": "address"
        }
      ],
      "stateMutability": "view",
      "type": "function"
    },
    {
      "inputs": [
        {
          "internalType": "uint256",
          "name": "",
          "type": "uint256"
        },
        {
          "internalType": "uint256",
          "name": "",
          "type": "uint256"
        }
      ],
      "name": "roundMatrixNodes",
      "outputs": [
        {
          "internalType": "uint256",
          "name": "cellId",
          "type": "uint256"
        },
        {
          "internalType": "address",
          "name": "player",
          "type": "address"
        },
        {
          "internalType": "uint8",
          "name": "level",
          "type": "uint8"
        },
        {
          "internalType": "uint256",
          "name": "parentCellId",
          "type": "uint256"
        },
        {
          "internalType": "uint256",
          "name": "leftChildCellId",
          "type": "uint256"
        },
        {
          "internalType": "uint256",
          "name": "rightChildCellId",
          "type": "uint256"
        },
        {
          "internalType": "bool",
          "name": "closed",
          "type": "bool"
        }
      ],
      "stateMutability": "view",
      "type": "function"
    },
    {
      "inputs": [
        {
          "internalType": "uint256",
          "name": "",
          "type": "uint256"
        }
      ],
      "name": "roundNextCellId",
      "outputs": [
        {
          "internalType": "uint256",
          "name": "",
          "type": "uint256"
        }
      ],
      "stateMutability": "view",
      "type": "function"
    },
    {
      "inputs": [
        {
          "internalType": "uint256",
          "name": "",
          "type": "uint256"
        }
      ],
      "name": "roundNextOpenParentCellId",
      "outputs": [
        {
          "internalType": "uint256",
          "name": "",
          "type": "uint256"
        }
      ],
      "stateMutability": "view",
      "type": "function"
    },
    {
      "inputs": [
        {
          "internalType": "uint256",
          "name": "",
          "type": "uint256"
        }
      ],
      "name": "roundPrizePools",
      "outputs": [
        {
          "internalType": "uint256",
          "name": "",
          "type": "uint256"
        }
      ],
      "stateMutability": "view",
      "type": "function"
    },
    {
      "inputs": [
        {
          "internalType": "uint256",
          "name": "",
          "type": "uint256"
        }
      ],
      "name": "roundPrizePoolsUsdc",
      "outputs": [
        {
          "internalType": "uint256",
          "name": "",
          "type": "uint256"
        }
      ],
      "stateMutability": "view",
      "type": "function"
    },
    {
      "inputs": [
        {
          "internalType": "address",
          "name": "",
          "type": "address"
        },
        {
          "internalType": "uint256",
          "name": "",
          "type": "uint256"
        }
      ],
      "name": "roundReferralWeightRemainder",
      "outputs": [
        {
          "internalType": "uint256",
          "name": "",
          "type": "uint256"
        }
      ],
      "stateMutability": "view",
      "type": "function"
    },
    {
      "inputs": [
        {
          "internalType": "uint256",
          "name": "",
          "type": "uint256"
        }
      ],
      "name": "roundTotalWeight",
      "outputs": [
        {
          "internalType": "uint256",
          "name": "",
          "type": "uint256"
        }
      ],
      "stateMutability": "view",
      "type": "function"
    },
    {
      "inputs": [
        {
          "internalType": "uint8",
          "name": "level",
          "type": "uint8"
        },
        {
          "internalType": "bool",
          "name": "available",
          "type": "bool"
        }
      ],
      "name": "setLevelAvailable",
      "outputs": [],
      "stateMutability": "nonpayable",
      "type": "function"
    },
    {
      "inputs": [
        {
          "internalType": "address",
          "name": "newManager",
          "type": "address"
        }
      ],
      "name": "setRoundManager",
      "outputs": [],
      "stateMutability": "nonpayable",
      "type": "function"
    },
    {
      "inputs": [
        {
          "internalType": "address",
          "name": "newSettlement",
          "type": "address"
        }
      ],
      "name": "setSettlementContract",
      "outputs": [],
      "stateMutability": "nonpayable",
      "type": "function"
    },
    {
      "inputs": [
        {
          "internalType": "address",
          "name": "",
          "type": "address"
        }
      ],
      "name": "setUsdcToken",
      "outputs": [],
      "stateMutability": "view",
      "type": "function"
    },
    {
      "inputs": [
        {
          "internalType": "address",
          "name": "newProjectWallet",
          "type": "address"
        },
        {
          "internalType": "address",
          "name": "newTreasuryWallet",
          "type": "address"
        },
        {
          "internalType": "address",
          "name": "newOperatorWallet",
          "type": "address"
        }
      ],
      "name": "setWallets",
      "outputs": [],
      "stateMutability": "nonpayable",
      "type": "function"
    },
    {
      "inputs": [],
      "name": "settlementContract",
      "outputs": [
        {
          "internalType": "address",
          "name": "",
          "type": "address"
        }
      ],
      "stateMutability": "view",
      "type": "function"
    },
    {
      "inputs": [],
      "name": "systemContractsFinalized",
      "outputs": [
        {
          "internalType": "bool",
          "name": "",
          "type": "bool"
        }
      ],
      "stateMutability": "view",
      "type": "function"
    },
    {
      "inputs": [
        {
          "internalType": "address",
          "name": "newOwner",
          "type": "address"
        }
      ],
      "name": "transferOwnership",
      "outputs": [],
      "stateMutability": "nonpayable",
      "type": "function"
    },
    {
      "inputs": [],
      "name": "treasuryWallet",
      "outputs": [
        {
          "internalType": "address",
          "name": "",
          "type": "address"
        }
      ],
      "stateMutability": "view",
      "type": "function"
    },
    {
      "inputs": [],
      "name": "usdcToken",
      "outputs": [
        {
          "internalType": "contract IERC20Minimal",
          "name": "",
          "type": "address"
        }
      ],
      "stateMutability": "view",
      "type": "function"
    },
    {
      "inputs": [],
      "name": "withdrawProjectFees",
      "outputs": [],
      "stateMutability": "nonpayable",
      "type": "function"
    },
    {
      "inputs": [],
      "name": "withdrawProjectFeesUSDC",
      "outputs": [],
      "stateMutability": "nonpayable",
      "type": "function"
    }
  ],
  "bytecode": "0x6080346200019c57601f62003d5238819003918201601f1916830191906001600160401b03831184841017620001a1578160a092859260409586528339810103126200019c576200005082620001b7565b60206200006060208501620001b7565b906200006e848601620001b7565b906200008b60806200008360608901620001b7565b9701620001b7565b60016019819055946001600160a01b039081169485156200018b5781169384156200018b5781169788156200018b5781169182156200018b57169081156200017a579091929660018060a01b031997600095338a88541617875589885416178755886002541617600255876003541617600355866006541617600655600495600454161760045582805b6200012a575b8451613b859081620001cd8239f35b60ff8116601181116200017357835260078252848320805460ff19168517905560ff908116908114620001605783018362000115565b634e487b7160e01b835260118652602483fd5b506200011b565b865163d92e233d60e01b8152600490fd5b875163d92e233d60e01b8152600490fd5b600080fd5b634e487b7160e01b600052604160045260246000fd5b51906001600160a01b03821682036200019c5756fe608080604052600436101561001357600080fd5b60003560e01c90816311eac855146128b85750806313306da21461283357806319a08594146128155780631a1478c31461088a5780631d6a884b146127f95780631e375ab914612734578063249d39e91461271757806326728174146112d65780632768a49f146126715780632f5ced041461036b578063306bf6bb1461258c578063308c61091461256f57806334601b891461202a5780633719fd0514611f9657806337a8af5014611f6a5780633945dbde14611f415780634626402b14611f185780634f51f13814611e9e5780635042a91f14611e8157806350da23dc1461033d57806351b7b69e14611e5557806352ebb22714611e1c5780635c12cd4b14611bd75780635d886f2214611b965780636793c2cd14611b1457806372d686bf14611af757806375cb1bd11461197c5780637a7c7a6a146118b45780637a966fa21461187d5780637c58894d1461133e5780637f3255a814611321578063852f8299146113045780638da5cb5b146112db57806390f7c71a146112d65780639dab17e41461128e5780639daea580146111f15780639fef6862146111d5578063a03d82ec14610fd4578063ab4847b414610e97578063b146326a146109c2578063b70258be14610996578063b93703ef1461096a578063beb08ab914610941578063c236d48f14610915578063c2c0c9f5146108c9578063c7fcb8c31461088f578063c8f17ce31461088a578063e26f7c461461086c578063e2eb41ff1461075c578063e78a64511461061b578063e9212a0f146105ff578063ea42418b146105d6578063ed270c161461051c578063edfae88314610435578063f178fb1b14610419578063f2fde38b14610370578063f6d5f69a1461036b578063f90ef4ac14610342578063f93351391461033d578063f943cbc614610320578063fa267c47146102f45763fab7c315146102c957600080fd5b346102ef5760003660031901126102ef57602060ff60055460a01c166040519015158152f35b600080fd5b346102ef5760203660031901126102ef57600435600052600e6020526020604060002054604051908152f35b346102ef5760003660031901126102ef5760206040516103e88152f35b6129b3565b346102ef5760003660031901126102ef576003546040516001600160a01b039091168152602090f35b61292b565b346102ef5760203660031901126102ef576103896128dc565b600054906001600160a01b03808316916103a4338414612a04565b169182156103e3576001600160a01b031916821760009081557f8be0079c531659141344cd1fd0a4f28419497f9722a3daafe3b4186f6b6457e09080a3005b60405162461bcd60e51b815260206004820152600e60248201526d13dddb995c881c995c5d5a5c995960921b6044820152606490fd5b346102ef5760003660031901126102ef576020604051600a8152f35b346102ef5760003660031901126102ef57610454600160195414612a3d565b600260195533600052601860205260406000205480156104de576006546001600160a01b03906104879082161515612a7a565b336000526018602052600060408120556104a682338360065416612c44565b60065416906040519081527f6212d3b8329f12cd207169548d7570de1a41c72473a7313c176c13641c39aab760203392a36001601955005b60405162461bcd60e51b81526020600482015260166024820152754e6f205553444320726566657272616c20626f6e757360501b6044820152606490fd5b346102ef5760403660031901126102ef576105356129d0565b602435908115158092036102ef5760ff9061055b60018060a01b03600054163314612a04565b16906001821080156105cc575b6105b35760207fdd552374405792741cb7e6993ca7e6dd5400b9e45e80ca256ac09db4009c8937918360005260078252604060002060ff1981541660ff8316179055604051908152a2005b604051633d98c85560e21b815260048101839052602490fd5b5060118211610568565b346102ef5760003660031901126102ef576005546040516001600160a01b039091168152602090f35b346102ef5760003660031901126102ef57602060405160048152f35b346102ef5760403660031901126102ef576101206106376128dc565b6040519061064482612af9565b6000825260006020830152600060408301526000606083015260006080830152600060a0830152600060c0830152600060e083015260006101008093015260018060a01b0316600052600960205260406000206024356000526020526040600020906040516106b281612af9565b82549260ff841615159384835260ff602084019160081c1681526001820154604084019081526002830154606085019081526003840154906080860191825260048501549260a0870193845260ff60058701549560c0890196875289600760068a01549960e08c019a8b52015499019889526040519a8b52511660208a01525160408901525160608801525160808701525160a08601525160c08501525160e08401525190820152f35b346102ef5760203660031901126102ef576001600160a01b0361077d6128dc565b16600052600860205260406000208054600160a01b6001900360018301541691600160a01b60019003600282015416600160a01b600190036003830154166004830154600584015460068501546007860154600887015491600988015493600a89015495600b8a015497600c8b015499600d8c01549b600e01549c6040519e8f9160ff811615158352600160a01b600190039060081c16602083015260408201526060015260808d015260a08c015260c08b015260e08a01526101008901526101208801526101408701526101608601526101808501526101a08401526101c08301526101e082015261020090f35b346102ef5760003660031901126102ef576020601754604051908152f35b6128f2565b346102ef5760203660031901126102ef576001600160a01b036108b06128dc565b1660005260186020526020604060002054604051908152f35b346102ef5760203660031901126102ef576004356000526014602052606060406000205460156020526040600020546109028282612b68565b9060405192835260208301526040820152f35b346102ef5760203660031901126102ef57600435600052600b6020526020604060002054604051908152f35b346102ef5760003660031901126102ef576001546040516001600160a01b039091168152602090f35b346102ef5760203660031901126102ef57600435600052600d6020526020604060002054604051908152f35b346102ef5760203660031901126102ef57600435600052600c6020526020604060002054604051908152f35b346102ef576109d0366129ee565b6109de600160195414612a3d565b600260195580158015610e8d575b610e6e5760048054604051636fd0763b60e11b81529182018490526001600160a01b031690602081602481855afa908115610dbd57600091610e3f575b5060088110159081610e1b5760028114918215610e31575b8215610e0a575b505015610dc957604051809163cba0b84160e01b82528460048301528160246101c09485935afa918215610dbd57600092610c84575b5050604060ff910151169060008360005260146020526040600020549160156020526040600020545b831080610c7b575b15610c0b5784600052610b106013928360205260406000208560005260205260018060a01b036040600020541693876000526020526040600020610af286612d74565b95600052602052604060002060018060a01b03198154169055612d74565b9180600052600960205260406000208660005260205260406000209060ff825416610b4c575b5050846000526015602052604060002054610aa7565b6006820154600181018111610bf5576001016006830155806000526008602052600b6040600020018054600181018111610bf5576001019055806000526008602052600a6040600020018054600181018111610bf5578893600080516020613b10833981519152926001604093019055610bc68585613395565b50610bd18585613443565b506006610bdf858b88612fee565b9101549082519182526020820152a38580610b36565b634e487b7160e01b600052601160045260246000fd5b508360409281600052601460205283600020556015602052610c3b83600020546014602052846000205490612b68565b907f0b273906422b7b2a8769cc17c72a6270f3ac34095be5d3735eb91c7922fa40a1848051858152846020820152a2600160195582519182526020820152f35b50808210610aaf565b8181809394503d8311610db6575b610c9c8183612b15565b810103126102ef576040519081016001600160401b03811182821017610da0576040528151815260208201516020820152604082015160ff811681036102ef576040820152610ced60608301612b75565b6060820152610cfe60808301612b75565b6080820152610d0f60a08301612b75565b60a0820152610d2060c08301612b75565b60c082015260e08201519063ffffffff821682036102ef5760ff9260409260e0830152610100610d51818301612b89565b90830152610120808201519083015261014080820151908301526101608082015190830152610180610d84818301612b89565b90830152610d966101a0809201612b89565b9082015291610a7e565b634e487b7160e01b600052604160045260246000fd5b503d610c92565b6040513d6000823e3d90fd5b60405162461bcd60e51b8152602060048201526019602482015278526f756e642072656379636c6520756e617661696c61626c6560381b6044820152606490fd5b909150610e1b576004148480610a48565b634e487b7160e01b600052602160045260246000fd5b506003811491506000610a41565b610e61915060203d602011610e67575b610e598183612b15565b810190612b50565b84610a29565b503d610e4f565b60449060405190631084348b60e31b8252600482015260406024820152fd5b50604081116109ec565b346102ef57610ea5366129ee565b60405190610eb282612ade565b60008252600060c060209382858201528260408201528260608201528260808201528260a0820152015280158015610fbd575b610f9f5760e092600052600a82526040600020906000528152604060002060405190610f1082612ade565b805492838352600182015460ff60018060a01b039183860193838216855282604088019260a01c168252600286015493606088019485526003870154956080890196875260c085600560048b01549a60a08d019b8c5201541699019815158952604051998a52511690880152511660408601525160608501525160808401525160a083015251151560c0820152f35b8260449160405191631f06e1dd60e31b835260048301526024820152fd5b5082600052600b8252604060002054811015610ee5565b346102ef576020806003193601126102ef57600435610ff7600160195414612a3d565b600260195560055460ff8160a01c16156111c3576001600160a01b03908116330361118c57602483826004541660405192838092636fd0763b60e11b82528760048301525afa908115610dbd5760009161116f575b506008811015610e1b5760040361113557816000526015835261107e6040600020546014855260406000205490612b68565b9283611117576040935082600052600f815283600020549260108252846000205492600f8352600086812055601083526000868120556110c2858260055416612b98565b6110d6848260065416836005541690612c44565b60055416907ff5dce8d14677f13040c40d084c873acb3bb2ff01d06a60cf69b3e81fcc1e35eb8680518781528686820152a360016019558351928352820152f35b60448385604051916304ef50cb60e41b835260048301526024820152fd5b60405162461bcd60e51b8152600481018490526012602482015271526f756e64206973206e6f7420726561647960701b6044820152606490fd5b6111869150843d8611610e6757610e598183612b15565b8461104c565b60405162461bcd60e51b815260048101849052600f60248201526e13db9b1e481cd95d1d1b195b595b9d608a1b6044820152606490fd5b604051636418f98160e01b8152600490fd5b346102ef5760003660031901126102ef57602060405160198152f35b346102ef5760003660031901126102ef576000546001600160a01b039061121b9082163314612a04565b6005549060ff8260a01c1661127c5780600454169061123982612d35565b82169161124583612d35565b60ff60a01b1916600160a01b176005557fe5e1c065755eb0816bfa86b7901991cf9f9cf91d3603b7b517ee7a6a0bdb147e600080a3005b604051636889631360e11b8152600490fd5b346102ef5760403660031901126102ef576001600160a01b036112af6128dc565b16600052601260205260406000206024356000526020526020604060002054604051908152f35b61290f565b346102ef5760003660031901126102ef576000546040516001600160a01b039091168152602090f35b346102ef5760003660031901126102ef5760206040516102588152f35b346102ef5760003660031901126102ef5760206040516101908152f35b61134736612947565b90600193926113598560195414612a3d565b600260195560ff60055460a01c16156111c3576101408401353414801590611870575b61185e5733600052600860205260406000209260ff8454166000146118585750828501546001600160a01b0316915b6001600160a01b038316338114908115611831575b50611828575b60018060a01b0360045416916040519263149374fd60e21b8452863560048501526020870135602485015260ff6113ff604089016129e0565b16604485015261141160608801612cf7565b6001600160401b0390811660648601528061142e60808a01612cf7565b1660848601528061144160a08a01612cf7565b1660a486015261145360c08901612cf7565b1660c485015260e087013563ffffffff81168091036102ef576000859384602096819460e48301528b6114db6101a061148f6101008401612d0b565b9261ffff809416610104870152610120810135610124870152610140810135610144870152610160810135610164870152836114ce6101808301612d0b565b1661018487015201612d0b565b166101a48301526102206101c4830152806102248301528061024493848401378181018301849052336101e48301526001600160a01b038a16610204830152601f01601f191681010301925af18015610dbd576117fd575b5060ff61154260408501612d1a565b16600052600760205260ff60406000205416156117d757611564903383612f06565b336000526009602052604060002060208301356000526020526040600020805460ff81166117b557849182809261ff006115a060408901612d1a565b60081b169061ffff191617178155015560048101805490848201809211610bf55755600e429101556115e2336115d860408401612d1a565b6020840135612fee565b6115f060208301353361329a565b5061160a61160060408401612d1a565b6020840135612d83565b5060ff61161960408401612d1a565b1690604051906101408401358252602082015260006040820152602083013590600080516020613b3083398151915260603392a4611d7e8034029134159134840414821715610bf557612710809304926103b68034029034820414841715610bf557819004906102588034029034820414851715610bf557819004906101909485340295348704141715610bf55760209404906116c7826116c2836116c2876116c28c34612b68565b612b68565b9285850135600052600f865260406000206116e3888254612d28565b9055336000526008865261176a83604060002061171d8461170660408b01612d1a565b838e01546001600160a01b0316908b8d01356136f5565b6117458561172d60408b01612d1a565b60028401546001600160a01b0316908b8d01356137bd565b61175160408901612d1a565b6003909101546001600160a01b031690888a013561386a565b61177684601654612d28565b60165560405196875285870152604086015260608501526080840152600060a0840152013590600080516020613af083398151915260c03392a3601955005b60405163c45f473d60e01b815260208501356004820152336024820152604490fd5b60246117e560408501612d1a565b60ff60405191634a525d1b60e01b8352166004820152fd5b602090813d8311611821575b6118138183612b15565b810103126102ef5784611533565b503d611809565b600092506113c6565b801515915081611843575b50876113c0565b905060005260ff60406000205416158761183c565b916113ab565b6040516335f3c2a160e21b8152600490fd5b506101408401351561137c565b346102ef5760203660031901126102ef57600435600052601460205260206040600020546015825260406000205411604051908152f35b346102ef5760003660031901126102ef576000546001600160a01b03906118de9082163314612a04565b6118ec600160195414612a3d565b60026019556016549081156119455760207f95334f2d4e98187a454807e6ec3da804af4da5c99357a7398e2cf2505ac88218916000601655611932848260015416612b98565b6001541692604051908152a26001601955005b60405162461bcd60e51b815260206004820152600f60248201526e4e6f2070726f6a656374206665657360881b6044820152606490fd5b346102ef5760603660031901126102ef576119956128dc565b6024356001600160a01b03818116918290036102ef57604435928184168094036102ef576119c882600054163314612a04565b168015611ab8578115611a78578215611a3857826060927fd2d452a5df03f60ff9bf0ef1fc3498af992b0b6165c03b2f792cf596ee96530a9460018060a01b03198481600154161760015582816002541617600255600354161760035560405192835260208301526040820152a1005b60405162461bcd60e51b815260206004820152601860248201527713dc195c985d1bdc881dd85b1b195d081c995c5d5a5c995960421b6044820152606490fd5b60405162461bcd60e51b8152602060048201526018602482015277151c99585cdd5c9e481dd85b1b195d081c995c5d5a5c995960421b6044820152606490fd5b60405162461bcd60e51b8152602060048201526017602482015276141c9bda9958dd081dd85b1b195d081c995c5d5a5c9959604a1b6044820152606490fd5b346102ef5760003660031901126102ef576020604051611d7e8152f35b346102ef57611b22366129ee565b90600052600a60205260406000209060005260205260e06040600020805490600181015490600281015460038201549060ff8060056004860154950154169460405196875260018060a01b038116602088015260a01c1660408601526060850152608084015260a0830152151560c0820152f35b346102ef5760203660031901126102ef57611baf6128dc565b50611bc560018060a01b03600054163314612a04565b60405163c4f64db560e01b8152600490fd5b346102ef5760203660031901126102ef57611bf06128dc565b60006101e0604051611c0181612ac2565b8281528260208201528260408201528260608201528260808201528260a08201528260c08201528260e08201528261010082015282610120820152826101408201528261016082015282610180820152826101a0820152826101c0820152015260018060a01b0316600052600860205261020060406000206101e0604051611c8881612ac2565b600e83549360ff85161515835260018060a01b038560081c16602084015260018060a01b03600182015416604084015260018060a01b03600282015416606084015260018060a01b036003820154166080840152600481015460a0840152600581015460c0840152600681015460e0840152600781015461010084015260088101546101208401526009810154610140840152600a810154610160840152600b810154610180840152600c8101546101a0840152600d8101546101c084015201548282015260ff60405193161515835260018060a01b03602082015116602084015260018060a01b03604082015116604084015260018060a01b03606082015116606084015260018060a01b03608082015116608084015260a081015160a084015260c081015160c084015260e081015160e08401526101008101516101008401526101208101516101208401526101408101516101408401526101608101516101608401526101808101516101808401526101a08101516101a08401526101c08101516101c084015201516101e0820152f35b346102ef5760203660031901126102ef5760ff611e376129d0565b166000526007602052602060ff604060002054166040519015158152f35b346102ef5760203660031901126102ef57600435600052600f6020526020604060002054604051908152f35b346102ef5760003660031901126102ef5760206040516113888152f35b346102ef576020806003193601126102ef5760c090600435600052600f81526040600020549060108152604060002054600e8252604060002054600d835260406000205490600b845260406000205492600c85526040600020549460405196875286015260408501526060840152608083015260a0820152f35b346102ef5760003660031901126102ef576002546040516001600160a01b039091168152602090f35b346102ef5760003660031901126102ef576004546040516001600160a01b039091168152602090f35b346102ef5760203660031901126102ef5760043560005260106020526020604060002054604051908152f35b346102ef5760203660031901126102ef57611faf6128dc565b6000546001600160a01b0390611fc89082163314612a04565b6005549160ff8360a01c1661127c578116918215612018576001600160a01b031981168317600555167fae0b527aec7be2a921fb601477f42ce68cfc9122d8c176909c55cd756e30dfd8600080a3005b60405163d92e233d60e01b8152600490fd5b346102ef5761203836612947565b600193919261204a8560195414612a3d565b600260195560ff60055460a01c16156111c3576101608301351561255d576006546040516323b872dd60e01b8152336004820152306024820152610160850135604482015290602090829060649082906000906001600160a01b03165af1908115610dbd5760009161252e575b501561251c5733600052600860205260406000209160ff8354166000146125165750818501546001600160a01b0316905b6001600160a01b0382163381149081156124ef575b506124e6575b60018060a01b0360045416946040519163149374fd60e21b83528535600484015260208601359687602485015260ff61213e604089016129e0565b16604485015261215060608801612cf7565b6001600160401b0390811660648601528061216d60808a01612cf7565b1660848601528061218060a08a01612cf7565b1660a486015261219260c08901612cf7565b1660c485015260e087013563ffffffff81168091036102ef576000859384602096819460e48301528b6121ce6101a061148f6101008401612d0b565b166101a48301526102206101c4830152806102248301528061024493848401378181018301849052336101e48301526001600160a01b038a16610204830152601f01601f191681010301925af18015610dbd576124bb575b5060ff61223560408501612d1a565b16600052600760205260ff60406000205416156117d757612257903383612f06565b3360005260096020526040600020836000526020526040600020805460ff811661249c57859182809261ff0061228f60408901612d1a565b60081b169061ffff191617178155015560048101805490858201809211610bf55755600e429101556122cd336122c760408401612d1a565b84612fee565b6122d7833361329a565b506122ed6122e760408401612d1a565b84612d83565b508260ff6122fd60408501612d1a565b16916040519061016085013582526020820152856040820152600080516020613b3083398151915260603392a4610160810135611d7e81029190611d7d1990830401610bf55761271091829004916101608201356103b68102906103b51990820401610bf5578190046101608301356102588102906102571990820401610bf5578290049061019092836101608601350293610160860135850403610bf5576101608861243e60406123c8896116c2896116c28a8f9d6124549b6116c291049e8f9b8c970135612b68565b988b6000526010602052816000206123e18c8254612d28565b9055336000526008602052612414878d8460002096612401868601612d1a565b908801546001600160a01b031691613673565b612438888d612424858501612d1a565b60028801546001600160a01b031691613762565b01612d1a565b6003909101546001600160a01b0316908961380f565b61246084601754612d28565b60175560405194855260208501526040840152606083015260808201528260a0820152600080516020613af083398151915260c03392a3601955005b60405163c45f473d60e01b815260048101869052336024820152604490fd5b602090813d83116124df575b6124d18183612b15565b810103126102ef5785612226565b503d6124c7565b60009150612103565b801515915081612501575b50876120fd565b905060005260ff6040600020541615876124fa565b906120e8565b60405163022e258160e11b8152600490fd5b612550915060203d602011612556575b6125488183612b15565b810190612b38565b866120b7565b503d61253e565b6040516304c1050d60e01b8152600490fd5b346102ef5760003660031901126102ef5760206040516103b68152f35b346102ef5760003660031901126102ef576000546001600160a01b03906125b69082163314612a04565b6125c4600160195414612a3d565b60026019558060065416906125da821515612a7a565b60175491821561263557826125f9916000601755836001541690612c44565b7f6f09a29fa95e6ca2c4c5b55c121d7269faf4d531e64e23d432f03e95bb6caa4760208260065416926001541693604051908152a36001601955005b60405162461bcd60e51b81526020600482015260146024820152734e6f20555344432070726f6a656374206665657360601b6044820152606490fd5b346102ef5760403660031901126102ef576001600160a01b036126926128dc565b1660005260096020526040600020602435600052602052610120604060002080549060018101549060028101546003820154600483015490600584015492600760068601549501549560ff6040519881811615158a5260081c16602089015260408801526060870152608086015260a085015260c084015260e0830152610100820152f35b346102ef5760003660031901126102ef5760206040516127108152f35b346102ef5760003660031901126102ef57612753600160195414612a3d565b6002601955336000526008602052600c6040600020015480156127c0573360005260086020526000600c60408220015561278d8133612b98565b6040519081527f53473e2a2e0cc6840d80567f104277ea6daa0891e5316836bac38a686b79ea3360203392a26001601955005b60405162461bcd60e51b81526020600482015260116024820152704e6f20726566657272616c20626f6e757360781b6044820152606490fd5b346102ef5760003660031901126102ef57602060405160118152f35b346102ef5760003660031901126102ef576020601654604051908152f35b346102ef5760203660031901126102ef5761284c6128dc565b6000546001600160a01b0391906128669083163314612a04565b60ff60055460a01c1661127c57811690811561201857600480546001600160a01b031981168417909155167f57b8ff42eaa81bfce68c6ad04d5bf2c7ebca554a63b0ece2bb301a0b2eff716d600080a3005b346102ef5760003660031901126102ef576006546001600160a01b03168152602090f35b600435906001600160a01b03821682036102ef57565b346102ef5760003660031901126102ef5760206040516107d08152f35b346102ef5760003660031901126102ef57602060405160648152f35b346102ef5760003660031901126102ef57602060405160328152f35b600319810161020081126102ef576101c0136102ef576004916001600160401b03916101c435908382116102ef57806023830112156102ef5781600401359384116102ef57602484830101116102ef5760240191906101e4356001600160a01b03811681036102ef5790565b346102ef5760003660031901126102ef5760206040516101f48152f35b6004359060ff821682036102ef57565b359060ff821682036102ef57565b60409060031901126102ef576004359060243590565b15612a0b57565b60405162461bcd60e51b815260206004820152600a60248201526927b7363c9037bbb732b960b11b6044820152606490fd5b15612a4457565b60405162461bcd60e51b815260206004820152600e60248201526d1499595b9d1c985b9d0818d85b1b60921b6044820152606490fd5b15612a8157565b60405162461bcd60e51b81526020600482015260196024820152781554d110c81d1bdad95b881b9bdd0818dbdb999a59dd5c9959603a1b6044820152606490fd5b61020081019081106001600160401b03821117610da057604052565b60e081019081106001600160401b03821117610da057604052565b61012081019081106001600160401b03821117610da057604052565b601f909101601f19168101906001600160401b03821190821017610da057604052565b908160209103126102ef575180151581036102ef5790565b908160209103126102ef575160088110156102ef5790565b91908203918211610bf557565b51906001600160401b03821682036102ef57565b519061ffff821682036102ef57565b8115612c4057600080808094819460018060a01b03165af1903d15612c3a573d906001600160401b038211612c265760405191612bdf601f8201601f191660200184612b15565b825260203d92013e5b15612bef57565b60405162461bcd60e51b815260206004820152600f60248201526e151c985b9cd9995c8819985a5b1959608a1b6044820152606490fd5b634e487b7160e01b81526041600452602490fd5b50612be8565b5050565b8215612cf25760405163a9059cbb60e01b81526001600160a01b039283166004820152602481019390935260209183916044918391600091165af1908115610dbd57600091612cd3575b5015612c9657565b60405162461bcd60e51b8152602060048201526015602482015274151bdad95b881d1c985b9cd9995c8819985a5b1959605a1b6044820152606490fd5b612cec915060203d602011612556576125488183612b15565b38612c8e565b505050565b35906001600160401b03821682036102ef57565b359061ffff821682036102ef57565b3560ff811681036102ef5790565b91908201809211610bf557565b6001600160a01b038116908115908115612d6a575b50612d525750565b60249060405190630e05bb9160e31b82526004820152fd5b90503b1538612d4a565b6000198114610bf55760010190565b90916000809280845260209160148352604095868620549160159560158652888820545b841080612efc575b15612ee957848852612e016013928388528a8a20868b52885260018060a01b038b8b20541693878b5288528a8a20612de687612d74565b968b5288528a8a2080546001600160a01b0319169055612d74565b9180895260098752898920868a52875289892060ff815416612e2f575b505084885286865288882054612da7565b6006018054600190818101809111612ec1578255828b526008808a52600b8d8d2001805490838201809211612ed55755838c528952600a8c8c20018054918201809211612ec157889392600080516020613b10833981519152928e9255612e968585613395565b50612ea18585613443565b50612ead848987612fee565b90549082519182528b820152a33880612e1e565b634e487b7160e01b8c52601160045260248cfd5b634e487b7160e01b8e52601160045260248efd5b9693909794915060149295508352522055565b5060048210612daf565b91825460ff8116612fe8576001600160a81b031916600883901b610100600160a81b031617600117835542600d8401556001600160a01b039081169182151590829082612fdb575b505080612fc3575b612f5f57505050565b6003600184019260018060a01b03199381858254161790556000908152600860205282806001604084200154166002870181878254161790558015600014612fb1575050935b01921690825416179055565b82526040909120600101541693612fa5565b5081600052600860205260ff60406000205416612f56565b1683141590508138612f4e565b50505050565b9290600093808552600b916020600b815260409384882094855415613291575b85549561301a87612d74565b905585986001988988146000146132885781935b878352600a8087528484208a855287528484208a8155808d0180546001600160a81b0319166001600160a01b0395861690811760a09b909b1b60ff60a01b169a909a1790556002908101879055888552600988528585208a865288528585209081018b9055600301869055600d87528484208054919391808e019190821061327457558561317d575b50878352600c8652838320549a8b15613175575b9190825b613128575b50505081869798997f19a57ce1df8ff5b43fd57ebc398733d14bbb0da3e683f28c5b0e32955d8d19c896978352600b865281832054811060001461312157915b600c8652205551908152a4565b5081613114565b90919a8884528187528484205481108061315a575b156131545761314b90612d74565b9a9190826130cf565b9a6130d4565b50828752848420818552875260ff600586862001541661313d565b9a508a6130cb565b888452600a875284842086855287528b8585208b600382018054156000146131c05755015416835260098652838320888452865288600485852001555b386130b7565b505090506004810180541560001461325757908b8e9255600581018260ff1982541617905501818154168552600988528585208a865288528a6005878720015554166015875284842054906013885285852082865288528585209060018060a01b03198254161790558b81018091116132435788845260158752848420556131ba565b634e487b7160e01b84526011600452602484fd5b60448b89895191630cc237c760e31b835260048301526024820152fd5b634e487b7160e01b86526011600452602486fd5b878a1c9361302e565b6001865561300e565b6001600160a01b03166000818152600960209081526040808320858452825280832054929594939260ff1615612fe857828652601182528086208487528252808620958381526009835281812085825283528181209087549061330b6007613301846138eb565b94019384546138bc565b98891561338a57918482600080516020613ad08339815191529796959489600995526008885261333e8d84842095612d28565b90556005830161334f8d8254612d28565b905561335c8c8654612d28565b8555898152600e8752206133718b8254612d28565b90550161337f898254612d28565b9055549051908152a3565b509750505050505050565b6001600160a01b03166000818152600960209081526040808320858452825280832054929594939260ff1615612fe85782865260118252808620848752825280862083875260098352818720858852835260028288209101968754906133ff60076133018461391b565b98891561338a57918482600080516020613ad0833981519152979695948960099552600888526134328d84842095612d28565b90556007830161334f8d8254612d28565b6001600160a01b03166000818152600960209081526040808320858452825280832054929594939260ff1615612fe85782865260118252808620848752825280862083875260098352818720858852835260038288209101968754906134ad600761330184613944565b98891561338a57918482600080516020613ad0833981519152979695948960099552600888526134e08d84842095612d28565b90556008830161334f8d8254612d28565b6001600160a01b03166000818152600960209081526040808320858452825280832054929594939260ff1615612fe857828652601182528086208487528252808620838752600983528187208588528352600182882091019687549061355b60076133018461396d565b98891561338a57918482600080516020613ad08339815191529796959489600995526008885261358e8d84842095612d28565b90556006830161334f8d8254612d28565b6001600160a01b03166000818152600960209081526040808320858452825280832054929594939260ff1615612fe857828652601182528086208487528252808620838752600983528187208588528352600182882091019687549061355b60076133018461391b565b6001600160a01b03166000818152600960209081526040808320858452825280832054929594939260ff1615612fe857828652601182528086208487528252808620838752600983528187208588528352600182882091019687549061355b600761330184613990565b91906001600160a01b038216801580156136dc575b6136bd57936136bb9460005260186020526136a96040600020918254612d28565b90556136b583836134f1565b926139b9565b565b50505060005260106020526136d86040600020918254612d28565b9055565b5080600052600860205260ff6040600020541615613688565b91906001600160a01b03821680158015613749575b61372e57936136bb9460005260086020526136a9600c604060002001918254612d28565b505050600052600f6020526136d86040600020918254612d28565b5080600052600860205260ff604060002054161561370a565b91906001600160a01b038216801580156137a4575b6136bd57936136bb9460005260186020526137986040600020918254612d28565b90556136b5838361359f565b5080600052600860205260ff6040600020541615613777565b91906001600160a01b038216801580156137f6575b61372e57936136bb946000526008602052613798600c604060002001918254612d28565b5080600052600860205260ff60406000205416156137d2565b91906001600160a01b03821680158015613851575b6136bd57936136bb9460005260186020526138456040600020918254612d28565b90556136b58383613609565b5080600052600860205260ff6040600020541615613824565b91906001600160a01b038216801580156138a3575b61372e57936136bb946000526008602052613845600c604060002001918254612d28565b5080600052600860205260ff604060002054161561387f565b9061138891828110156138e3578203918211610bf557818111156138de575090565b905090565b505050600090565b6103e89081811015613914578103908111610bf5578060641160001461390e5790565b50606490565b5050600090565b6107d09081811015613914578103908111610bf5578060321160001461393e5790565b50603290565b6101f49081811015613914578103908111610bf55780600a116000146139675790565b50600a90565b6107d09081811015613914578103908111610bf5578060641160001461390e5790565b6107d09081811015613914578103908111610bf557806019116000146139b35790565b50601990565b929190928215612fe85760018060a09493941b038316600092818452602090601282526139f3604091828720868852845282872054612d28565b95606480880497858852601285528388208789528552068287205583865260098352818620858752835281862097866001809a01975b898110613a3d575050505050505050505050565b88548b8101809111613abb57895586825260088652600480868420018054918d8301809311613aa85750558a908989897fb50c6d7b6cf1819e6eadfe09c21b28c0532e499806489a27bdfa9f7c30ac8fcf8a613a9a8a8a86612fee565b94548b51908152a401613a29565b634e487b7160e01b855260119052602484fd5b634e487b7160e01b83526011600452602483fdfe9de12b3d7a04eb259125d6f36a27a748d7ce92411cdf21da63e0e0394dfeea16c5a523fad910d10f2e95e81baa27487ab1f8867069e11e28424fff2c49ec980de71a25c367057ba6c32bea73ffe6eac519023fe04617b003d4ddc2781cb847cf9e2bd5f99a08e89f06d56896c56146aa32e257d0942bbd7c9b9748a26fd9d4e2a26469706673582212201884563112c87bf5827bbcd0e9578a4cdef6d2324c847169f78b9dcb597d0d2d64736f6c63430008180033",
  "linkReferences": {},
  "deployedLinkReferences": {}
}