{
  "_format": "hh-sol-artifact-1",
  "contractName": "EasyGameAdvance",
  "sourceName": "contracts/EasyGameAdvance.sol",
  "abi": [
    {
      "inputs": [
        {
          "internalType": "address",
          "name": "projectWallet_",
          "type": "address"
        },
        {
          "internalType": "address",
          "name": "treasuryWallet_",
          "type": "address"
        },
        {
          "internalType": "address",
          "name": "operatorWallet_",
          "type": "address"
        },
        {
          "internalType": "address",
          "name": "usdcToken_",
          "type": "address"
        },
        {
          "internalType": "address",
          "name": "roundManager_",
          "type": "address"
        }
      ],
      "stateMutability": "nonpayable",
      "type": "constructor"
    },
    {
      "inputs": [],
      "name": "IncorrectRoundPayment",
      "type": "error"
    },
    {
      "inputs": [
        {
          "internalType": "uint8",
          "name": "level",
          "type": "uint8"
        }
      ],
      "name": "InvalidLevel",
      "type": "error"
    },
    {
      "inputs": [
        {
          "internalType": "uint256",
          "name": "roundId",
          "type": "uint256"
        },
        {
          "internalType": "uint256",
          "name": "cellId",
          "type": "uint256"
        }
      ],
      "name": "InvalidRoundCell",
      "type": "error"
    },
    {
      "inputs": [
        {
          "internalType": "uint8",
          "name": "level",
          "type": "uint8"
        }
      ],
      "name": "LevelEmergencyPaused",
      "type": "error"
    },
    {
      "inputs": [
        {
          "internalType": "uint256",
          "name": "roundId",
          "type": "uint256"
        },
        {
          "internalType": "uint256",
          "name": "parentCellId",
          "type": "uint256"
        }
      ],
      "name": "RoundParentAlreadyClosed",
      "type": "error"
    },
    {
      "inputs": [
        {
          "internalType": "uint256",
          "name": "roundId",
          "type": "uint256"
        },
        {
          "internalType": "address",
          "name": "player",
          "type": "address"
        }
      ],
      "name": "RoundTicketAlreadyActive",
      "type": "error"
    },
    {
      "inputs": [],
      "name": "RoundUsdcDisabled",
      "type": "error"
    },
    {
      "inputs": [],
      "name": "TokenTransferFailed",
      "type": "error"
    },
    {
      "inputs": [],
      "name": "ZeroAddress",
      "type": "error"
    },
    {
      "anonymous": false,
      "inputs": [
        {
          "indexed": true,
          "internalType": "address",
          "name": "oldGateway",
          "type": "address"
        },
        {
          "indexed": true,
          "internalType": "address",
          "name": "newGateway",
          "type": "address"
        }
      ],
      "name": "BasePayGatewayChanged",
      "type": "event"
    },
    {
      "anonymous": false,
      "inputs": [
        {
          "indexed": true,
          "internalType": "address",
          "name": "player",
          "type": "address"
        },
        {
          "indexed": true,
          "internalType": "uint8",
          "name": "level",
          "type": "uint8"
        },
        {
          "indexed": false,
          "internalType": "uint256",
          "name": "amount",
          "type": "uint256"
        }
      ],
      "name": "BoxTokenGranted",
      "type": "event"
    },
    {
      "anonymous": false,
      "inputs": [
        {
          "indexed": false,
          "internalType": "bool",
          "name": "enabled",
          "type": "bool"
        }
      ],
      "name": "LegacyActivationChanged",
      "type": "event"
    },
    {
      "anonymous": false,
      "inputs": [
        {
          "indexed": true,
          "internalType": "address",
          "name": "player",
          "type": "address"
        },
        {
          "indexed": true,
          "internalType": "uint8",
          "name": "level",
          "type": "uint8"
        },
        {
          "indexed": false,
          "internalType": "uint256",
          "name": "value",
          "type": "uint256"
        },
        {
          "indexed": false,
          "internalType": "uint256",
          "name": "cellId",
          "type": "uint256"
        }
      ],
      "name": "LevelActivated",
      "type": "event"
    },
    {
      "anonymous": false,
      "inputs": [
        {
          "indexed": true,
          "internalType": "uint8",
          "name": "level",
          "type": "uint8"
        },
        {
          "indexed": false,
          "internalType": "bool",
          "name": "available",
          "type": "bool"
        }
      ],
      "name": "LevelAvailabilityChanged",
      "type": "event"
    },
    {
      "anonymous": false,
      "inputs": [
        {
          "indexed": true,
          "internalType": "address",
          "name": "player",
          "type": "address"
        },
        {
          "indexed": true,
          "internalType": "uint8",
          "name": "level",
          "type": "uint8"
        }
      ],
      "name": "LevelFrozen",
      "type": "event"
    },
    {
      "anonymous": false,
      "inputs": [
        {
          "indexed": true,
          "internalType": "uint8",
          "name": "level",
          "type": "uint8"
        },
        {
          "indexed": false,
          "internalType": "uint256",
          "name": "oldPrice",
          "type": "uint256"
        },
        {
          "indexed": false,
          "internalType": "uint256",
          "name": "newPrice",
          "type": "uint256"
        }
      ],
      "name": "LevelPriceChanged",
      "type": "event"
    },
    {
      "anonymous": false,
      "inputs": [
        {
          "indexed": true,
          "internalType": "address",
          "name": "player",
          "type": "address"
        },
        {
          "indexed": true,
          "internalType": "uint8",
          "name": "level",
          "type": "uint8"
        }
      ],
      "name": "LevelUnfrozen",
      "type": "event"
    },
    {
      "anonymous": false,
      "inputs": [
        {
          "indexed": true,
          "internalType": "uint8",
          "name": "level",
          "type": "uint8"
        },
        {
          "indexed": false,
          "internalType": "uint256",
          "name": "oldPrice",
          "type": "uint256"
        },
        {
          "indexed": false,
          "internalType": "uint256",
          "name": "newPrice",
          "type": "uint256"
        }
      ],
      "name": "LevelUsdcPriceChanged",
      "type": "event"
    },
    {
      "anonymous": false,
      "inputs": [
        {
          "indexed": true,
          "internalType": "address",
          "name": "player",
          "type": "address"
        },
        {
          "indexed": true,
          "internalType": "uint8",
          "name": "level",
          "type": "uint8"
        },
        {
          "indexed": true,
          "internalType": "uint256",
          "name": "cellId",
          "type": "uint256"
        },
        {
          "indexed": false,
          "internalType": "uint256",
          "name": "parentCellId",
          "type": "uint256"
        }
      ],
      "name": "MatrixPlaced",
      "type": "event"
    },
    {
      "anonymous": false,
      "inputs": [
        {
          "indexed": true,
          "internalType": "address",
          "name": "previousOwner",
          "type": "address"
        },
        {
          "indexed": true,
          "internalType": "address",
          "name": "newOwner",
          "type": "address"
        }
      ],
      "name": "OwnershipTransferred",
      "type": "event"
    },
    {
      "anonymous": false,
      "inputs": [
        {
          "indexed": true,
          "internalType": "address",
          "name": "player",
          "type": "address"
        },
        {
          "indexed": true,
          "internalType": "uint8",
          "name": "level",
          "type": "uint8"
        },
        {
          "indexed": false,
          "internalType": "uint256",
          "name": "matrixPrizeAmount",
          "type": "uint256"
        },
        {
          "indexed": false,
          "internalType": "uint256",
          "name": "directReferralAmount",
          "type": "uint256"
        },
        {
          "indexed": false,
          "internalType": "uint256",
          "name": "secondLineAmount",
          "type": "uint256"
        },
        {
          "indexed": false,
          "internalType": "uint256",
          "name": "thirdLineAmount",
          "type": "uint256"
        },
        {
          "indexed": false,
          "internalType": "uint256",
          "name": "projectFeeAmount",
          "type": "uint256"
        }
      ],
      "name": "PaymentSplit",
      "type": "event"
    },
    {
      "anonymous": false,
      "inputs": [
        {
          "indexed": true,
          "internalType": "address",
          "name": "player",
          "type": "address"
        },
        {
          "indexed": true,
          "internalType": "uint8",
          "name": "level",
          "type": "uint8"
        },
        {
          "indexed": false,
          "internalType": "uint256",
          "name": "amount",
          "type": "uint256"
        }
      ],
      "name": "PrizeClaimed",
      "type": "event"
    },
    {
      "anonymous": false,
      "inputs": [
        {
          "indexed": true,
          "internalType": "address",
          "name": "player",
          "type": "address"
        },
        {
          "indexed": true,
          "internalType": "uint8",
          "name": "level",
          "type": "uint8"
        },
        {
          "indexed": true,
          "internalType": "uint256",
          "name": "cellId",
          "type": "uint256"
        },
        {
          "indexed": false,
          "internalType": "uint256",
          "name": "amount",
          "type": "uint256"
        },
        {
          "indexed": false,
          "internalType": "bool",
          "name": "pending",
          "type": "bool"
        }
      ],
      "name": "PrizePositionReached",
      "type": "event"
    },
    {
      "anonymous": false,
      "inputs": [
        {
          "indexed": true,
          "internalType": "uint8",
          "name": "level",
          "type": "uint8"
        },
        {
          "indexed": false,
          "internalType": "uint256",
          "name": "amount",
          "type": "uint256"
        },
        {
          "indexed": false,
          "internalType": "uint256",
          "name": "totalAccrued",
          "type": "uint256"
        }
      ],
      "name": "ProjectFeeAccrued",
      "type": "event"
    },
    {
      "anonymous": false,
      "inputs": [
        {
          "indexed": true,
          "internalType": "address",
          "name": "wallet",
          "type": "address"
        },
        {
          "indexed": false,
          "internalType": "uint256",
          "name": "amount",
          "type": "uint256"
        }
      ],
      "name": "ProjectFeesWithdrawn",
      "type": "event"
    },
    {
      "anonymous": false,
      "inputs": [
        {
          "indexed": true,
          "internalType": "address",
          "name": "player",
          "type": "address"
        },
        {
          "indexed": true,
          "internalType": "uint8",
          "name": "level",
          "type": "uint8"
        },
        {
          "indexed": true,
          "internalType": "uint256",
          "name": "queueIndex",
          "type": "uint256"
        }
      ],
      "name": "RecycleQueued",
      "type": "event"
    },
    {
      "anonymous": false,
      "inputs": [
        {
          "indexed": true,
          "internalType": "address",
          "name": "player",
          "type": "address"
        },
        {
          "indexed": true,
          "internalType": "uint8",
          "name": "level",
          "type": "uint8"
        },
        {
          "indexed": false,
          "internalType": "uint256",
          "name": "recycleCount",
          "type": "uint256"
        },
        {
          "indexed": false,
          "internalType": "uint256",
          "name": "newCellId",
          "type": "uint256"
        }
      ],
      "name": "Recycled",
      "type": "event"
    },
    {
      "anonymous": false,
      "inputs": [
        {
          "indexed": true,
          "internalType": "address",
          "name": "inviter",
          "type": "address"
        },
        {
          "indexed": true,
          "internalType": "address",
          "name": "invitee",
          "type": "address"
        },
        {
          "indexed": true,
          "internalType": "uint8",
          "name": "level",
          "type": "uint8"
        },
        {
          "indexed": false,
          "internalType": "uint256",
          "name": "bonusAmount",
          "type": "uint256"
        },
        {
          "indexed": false,
          "internalType": "uint256",
          "name": "weightAdded",
          "type": "uint256"
        }
      ],
      "name": "ReferralBonusAdded",
      "type": "event"
    },
    {
      "anonymous": false,
      "inputs": [
        {
          "indexed": true,
          "internalType": "address",
          "name": "player",
          "type": "address"
        },
        {
          "indexed": false,
          "internalType": "uint256",
          "name": "amount",
          "type": "uint256"
        }
      ],
      "name": "ReferralBonusClaimed",
      "type": "event"
    },
    {
      "anonymous": false,
      "inputs": [
        {
          "indexed": true,
          "internalType": "address",
          "name": "player",
          "type": "address"
        },
        {
          "indexed": true,
          "internalType": "uint256",
          "name": "roundId",
          "type": "uint256"
        },
        {
          "indexed": true,
          "internalType": "uint8",
          "name": "level",
          "type": "uint8"
        },
        {
          "indexed": false,
          "internalType": "uint256",
          "name": "amount",
          "type": "uint256"
        },
        {
          "indexed": false,
          "internalType": "uint256",
          "name": "cellId",
          "type": "uint256"
        },
        {
          "indexed": false,
          "internalType": "bool",
          "name": "paidWithUsdc",
          "type": "bool"
        }
      ],
      "name": "RoundActivated",
      "type": "event"
    },
    {
      "anonymous": false,
      "inputs": [
        {
          "indexed": true,
          "internalType": "address",
          "name": "oldManager",
          "type": "address"
        },
        {
          "indexed": true,
          "internalType": "address",
          "name": "newManager",
          "type": "address"
        }
      ],
      "name": "RoundManagerChanged",
      "type": "event"
    },
    {
      "anonymous": false,
      "inputs": [
        {
          "indexed": true,
          "internalType": "address",
          "name": "player",
          "type": "address"
        },
        {
          "indexed": true,
          "internalType": "uint256",
          "name": "roundId",
          "type": "uint256"
        },
        {
          "indexed": true,
          "internalType": "uint256",
          "name": "cellId",
          "type": "uint256"
        },
        {
          "indexed": false,
          "internalType": "uint256",
          "name": "parentCellId",
          "type": "uint256"
        }
      ],
      "name": "RoundMatrixPlaced",
      "type": "event"
    },
    {
      "anonymous": false,
      "inputs": [
        {
          "indexed": true,
          "internalType": "address",
          "name": "player",
          "type": "address"
        },
        {
          "indexed": true,
          "internalType": "uint256",
          "name": "roundId",
          "type": "uint256"
        },
        {
          "indexed": false,
          "internalType": "uint256",
          "name": "matrixPrizeAmount",
          "type": "uint256"
        },
        {
          "indexed": false,
          "internalType": "uint256",
          "name": "directReferralAmount",
          "type": "uint256"
        },
        {
          "indexed": false,
          "internalType": "uint256",
          "name": "secondLineAmount",
          "type": "uint256"
        },
        {
          "indexed": false,
          "internalType": "uint256",
          "name": "thirdLineAmount",
          "type": "uint256"
        },
        {
          "indexed": false,
          "internalType": "uint256",
          "name": "projectFeeAmount",
          "type": "uint256"
        },
        {
          "indexed": false,
          "internalType": "bool",
          "name": "paidWithUsdc",
          "type": "bool"
        }
      ],
      "name": "RoundPaymentSplit",
      "type": "event"
    },
    {
      "anonymous": false,
      "inputs": [
        {
          "indexed": true,
          "internalType": "uint256",
          "name": "roundId",
          "type": "uint256"
        },
        {
          "indexed": true,
          "internalType": "address",
          "name": "settlement",
          "type": "address"
        },
        {
          "indexed": false,
          "internalType": "uint256",
          "name": "ethAmount",
          "type": "uint256"
        },
        {
          "indexed": false,
          "internalType": "uint256",
          "name": "usdcAmount",
          "type": "uint256"
        }
      ],
      "name": "RoundPoolsReleased",
      "type": "event"
    },
    {
      "anonymous": false,
      "inputs": [
        {
          "indexed": true,
          "internalType": "address",
          "name": "player",
          "type": "address"
        },
        {
          "indexed": true,
          "internalType": "uint256",
          "name": "roundId",
          "type": "uint256"
        },
        {
          "indexed": false,
          "internalType": "uint256",
          "name": "cycleCount",
          "type": "uint256"
        },
        {
          "indexed": false,
          "internalType": "uint256",
          "name": "newCellId",
          "type": "uint256"
        }
      ],
      "name": "RoundRecycled",
      "type": "event"
    },
    {
      "anonymous": false,
      "inputs": [
        {
          "indexed": true,
          "internalType": "address",
          "name": "player",
          "type": "address"
        },
        {
          "indexed": true,
          "internalType": "uint256",
          "name": "roundId",
          "type": "uint256"
        },
        {
          "indexed": false,
          "internalType": "uint256",
          "name": "totalWeight",
          "type": "uint256"
        }
      ],
      "name": "RoundWeightUpdated",
      "type": "event"
    },
    {
      "anonymous": false,
      "inputs": [
        {
          "indexed": true,
          "internalType": "address",
          "name": "inviter",
          "type": "address"
        },
        {
          "indexed": true,
          "internalType": "address",
          "name": "invitee",
          "type": "address"
        },
        {
          "indexed": true,
          "internalType": "uint8",
          "name": "level",
          "type": "uint8"
        },
        {
          "indexed": false,
          "internalType": "uint256",
          "name": "bonusAmount",
          "type": "uint256"
        },
        {
          "indexed": false,
          "internalType": "uint256",
          "name": "weightAdded",
          "type": "uint256"
        }
      ],
      "name": "SecondLineBonusAdded",
      "type": "event"
    },
    {
      "anonymous": false,
      "inputs": [
        {
          "indexed": true,
          "internalType": "address",
          "name": "oldSettlement",
          "type": "address"
        },
        {
          "indexed": true,
          "internalType": "address",
          "name": "newSettlement",
          "type": "address"
        }
      ],
      "name": "SettlementContractChanged",
      "type": "event"
    },
    {
      "anonymous": false,
      "inputs": [
        {
          "indexed": true,
          "internalType": "address",
          "name": "inviter",
          "type": "address"
        },
        {
          "indexed": true,
          "internalType": "address",
          "name": "invitee",
          "type": "address"
        },
        {
          "indexed": true,
          "internalType": "uint8",
          "name": "level",
          "type": "uint8"
        },
        {
          "indexed": false,
          "internalType": "uint256",
          "name": "bonusAmount",
          "type": "uint256"
        },
        {
          "indexed": false,
          "internalType": "uint256",
          "name": "weightAdded",
          "type": "uint256"
        }
      ],
      "name": "ThirdLineBonusAdded",
      "type": "event"
    },
    {
      "anonymous": false,
      "inputs": [
        {
          "indexed": true,
          "internalType": "address",
          "name": "player",
          "type": "address"
        },
        {
          "indexed": true,
          "internalType": "uint8",
          "name": "level",
          "type": "uint8"
        },
        {
          "indexed": true,
          "internalType": "address",
          "name": "token",
          "type": "address"
        },
        {
          "indexed": false,
          "internalType": "uint256",
          "name": "matrixPrizeAmount",
          "type": "uint256"
        },
        {
          "indexed": false,
          "internalType": "uint256",
          "name": "directReferralAmount",
          "type": "uint256"
        },
        {
          "indexed": false,
          "internalType": "uint256",
          "name": "secondLineAmount",
          "type": "uint256"
        },
        {
          "indexed": false,
          "internalType": "uint256",
          "name": "thirdLineAmount",
          "type": "uint256"
        },
        {
          "indexed": false,
          "internalType": "uint256",
          "name": "projectFeeAmount",
          "type": "uint256"
        }
      ],
      "name": "TokenPaymentSplit",
      "type": "event"
    },
    {
      "anonymous": false,
      "inputs": [
        {
          "indexed": true,
          "internalType": "address",
          "name": "player",
          "type": "address"
        },
        {
          "indexed": true,
          "internalType": "address",
          "name": "token",
          "type": "address"
        },
        {
          "indexed": true,
          "internalType": "uint8",
          "name": "level",
          "type": "uint8"
        },
        {
          "indexed": false,
          "internalType": "uint256",
          "name": "amount",
          "type": "uint256"
        }
      ],
      "name": "TokenPrizeClaimed",
      "type": "event"
    },
    {
      "anonymous": false,
      "inputs": [
        {
          "indexed": true,
          "internalType": "address",
          "name": "player",
          "type": "address"
        },
        {
          "indexed": true,
          "internalType": "uint8",
          "name": "level",
          "type": "uint8"
        },
        {
          "indexed": true,
          "internalType": "address",
          "name": "token",
          "type": "address"
        },
        {
          "indexed": false,
          "internalType": "uint256",
          "name": "cellId",
          "type": "uint256"
        },
        {
          "indexed": false,
          "internalType": "uint256",
          "name": "amount",
          "type": "uint256"
        },
        {
          "indexed": false,
          "internalType": "bool",
          "name": "pending",
          "type": "bool"
        }
      ],
      "name": "TokenPrizePositionReached",
      "type": "event"
    },
    {
      "anonymous": false,
      "inputs": [
        {
          "indexed": true,
          "internalType": "address",
          "name": "token",
          "type": "address"
        },
        {
          "indexed": true,
          "internalType": "uint8",
          "name": "level",
          "type": "uint8"
        },
        {
          "indexed": false,
          "internalType": "uint256",
          "name": "amount",
          "type": "uint256"
        },
        {
          "indexed": false,
          "internalType": "uint256",
          "name": "totalAccrued",
          "type": "uint256"
        }
      ],
      "name": "TokenProjectFeeAccrued",
      "type": "event"
    },
    {
      "anonymous": false,
      "inputs": [
        {
          "indexed": true,
          "internalType": "address",
          "name": "token",
          "type": "address"
        },
        {
          "indexed": true,
          "internalType": "address",
          "name": "wallet",
          "type": "address"
        },
        {
          "indexed": false,
          "internalType": "uint256",
          "name": "amount",
          "type": "uint256"
        }
      ],
      "name": "TokenProjectFeesWithdrawn",
      "type": "event"
    },
    {
      "anonymous": false,
      "inputs": [
        {
          "indexed": true,
          "internalType": "address",
          "name": "player",
          "type": "address"
        },
        {
          "indexed": true,
          "internalType": "address",
          "name": "token",
          "type": "address"
        },
        {
          "indexed": false,
          "internalType": "uint256",
          "name": "amount",
          "type": "uint256"
        }
      ],
      "name": "TokenReferralBonusClaimed",
      "type": "event"
    },
    {
      "anonymous": false,
      "inputs": [
        {
          "indexed": true,
          "internalType": "address",
          "name": "oldToken",
          "type": "address"
        },
        {
          "indexed": true,
          "internalType": "address",
          "name": "newToken",
          "type": "address"
        }
      ],
      "name": "UsdcTokenChanged",
      "type": "event"
    },
    {
      "anonymous": false,
      "inputs": [
        {
          "indexed": false,
          "internalType": "address",
          "name": "projectWallet",
          "type": "address"
        },
        {
          "indexed": false,
          "internalType": "address",
          "name": "treasuryWallet",
          "type": "address"
        },
        {
          "indexed": false,
          "internalType": "address",
          "name": "operatorWallet",
          "type": "address"
        }
      ],
      "name": "WalletsChanged",
      "type": "event"
    },
    {
      "anonymous": false,
      "inputs": [
        {
          "indexed": true,
          "internalType": "address",
          "name": "player",
          "type": "address"
        },
        {
          "indexed": true,
          "internalType": "uint8",
          "name": "level",
          "type": "uint8"
        },
        {
          "indexed": false,
          "internalType": "uint256",
          "name": "totalWeight",
          "type": "uint256"
        }
      ],
      "name": "WeightUpdated",
      "type": "event"
    },
    {
      "inputs": [],
      "name": "BASE_ACTIVATION_WEIGHT",
      "outputs": [
        {
          "internalType": "uint256",
          "name": "",
          "type": "uint256"
        }
      ],
      "stateMutability": "view",
      "type": "function"
    },
    {
      "inputs": [],
      "name": "BOX_NFT_WEIGHT",
      "outputs": [
        {
          "internalType": "uint256",
          "name": "",
          "type": "uint256"
        }
      ],
      "stateMutability": "view",
      "type": "function"
    },
    {
      "inputs": [],
      "name": "BPS",
      "outputs": [
        {
          "internalType": "uint256",
          "name": "",
          "type": "uint256"
        }
      ],
      "stateMutability": "view",
      "type": "function"
    },
    {
      "inputs": [],
      "name": "DIRECT_REF_BPS",
      "outputs": [
        {
          "internalType": "uint256",
          "name": "",
          "type": "uint256"
        }
      ],
      "stateMutability": "view",
      "type": "function"
    },
    {
      "inputs": [],
      "name": "DIRECT_REF_WEIGHT",
      "outputs": [
        {
          "internalType": "uint256",
          "name": "",
          "type": "uint256"
        }
      ],
      "stateMutability": "view",
      "type": "function"
    },
    {
      "inputs": [],
      "name": "DRAW_REWARD_BPS",
      "outputs": [
        {
          "internalType": "uint256",
          "name": "",
          "type": "uint256"
        }
      ],
      "stateMutability": "view",
      "type": "function"
    },
    {
      "inputs": [],
      "name": "LEVEL_COUNT",
      "outputs": [
        {
          "internalType": "uint8",
          "name": "",
          "type": "uint8"
        }
      ],
      "stateMutability": "view",
      "type": "function"
    },
    {
      "inputs": [],
      "name": "MATRIX_PRIZE_BPS",
      "outputs": [
        {
          "internalType": "uint256",
          "name": "",
          "type": "uint256"
        }
      ],
      "stateMutability": "view",
      "type": "function"
    },
    {
      "inputs": [],
      "name": "MAX_BASE_WEIGHT_PER_LEVEL",
      "outputs": [
        {
          "internalType": "uint256",
          "name": "",
          "type": "uint256"
        }
      ],
      "stateMutability": "view",
      "type": "function"
    },
    {
      "inputs": [],
      "name": "MAX_LOYALTY_WEIGHT_PER_LEVEL",
      "outputs": [
        {
          "internalType": "uint256",
          "name": "",
          "type": "uint256"
        }
      ],
      "stateMutability": "view",
      "type": "function"
    },
    {
      "inputs": [],
      "name": "MAX_MATRIX_WEIGHT_PER_LEVEL",
      "outputs": [
        {
          "internalType": "uint256",
          "name": "",
          "type": "uint256"
        }
      ],
      "stateMutability": "view",
      "type": "function"
    },
    {
      "inputs": [],
      "name": "MAX_NFT_WEIGHT_PER_LEVEL",
      "outputs": [
        {
          "internalType": "uint256",
          "name": "",
          "type": "uint256"
        }
      ],
      "stateMutability": "view",
      "type": "function"
    },
    {
      "inputs": [],
      "name": "MAX_RECYCLE_STEPS_PER_TX",
      "outputs": [
        {
          "internalType": "uint8",
          "name": "",
          "type": "uint8"
        }
      ],
      "stateMutability": "view",
      "type": "function"
    },
    {
      "inputs": [],
      "name": "MAX_REFERRAL_WEIGHT_PER_LEVEL",
      "outputs": [
        {
          "internalType": "uint256",
          "name": "",
          "type": "uint256"
        }
      ],
      "stateMutability": "view",
      "type": "function"
    },
    {
      "inputs": [],
      "name": "MAX_TOTAL_WEIGHT_PER_LEVEL",
      "outputs": [
        {
          "internalType": "uint256",
          "name": "",
          "type": "uint256"
        }
      ],
      "stateMutability": "view",
      "type": "function"
    },
    {
      "inputs": [],
      "name": "PRIZE_POSITION_BPS",
      "outputs": [
        {
          "internalType": "uint256",
          "name": "",
          "type": "uint256"
        }
      ],
      "stateMutability": "view",
      "type": "function"
    },
    {
      "inputs": [],
      "name": "PROJECT_FEE_BPS",
      "outputs": [
        {
          "internalType": "uint256",
          "name": "",
          "type": "uint256"
        }
      ],
      "stateMutability": "view",
      "type": "function"
    },
    {
      "inputs": [],
      "name": "RECYCLE_MATRIX_WEIGHT",
      "outputs": [
        {
          "internalType": "uint256",
          "name": "",
          "type": "uint256"
        }
      ],
      "stateMutability": "view",
      "type": "function"
    },
    {
      "inputs": [],
      "name": "SECOND_REF_BPS",
      "outputs": [
        {
          "internalType": "uint256",
          "name": "",
          "type": "uint256"
        }
      ],
      "stateMutability": "view",
      "type": "function"
    },
    {
      "inputs": [],
      "name": "SECOND_REF_WEIGHT",
      "outputs": [
        {
          "internalType": "uint256",
          "name": "",
          "type": "uint256"
        }
      ],
      "stateMutability": "view",
      "type": "function"
    },
    {
      "inputs": [],
      "name": "THIRD_REF_BPS",
      "outputs": [
        {
          "internalType": "uint256",
          "name": "",
          "type": "uint256"
        }
      ],
      "stateMutability": "view",
      "type": "function"
    },
    {
      "inputs": [],
      "name": "THIRD_REF_WEIGHT",
      "outputs": [
        {
          "internalType": "uint256",
          "name": "",
          "type": "uint256"
        }
      ],
      "stateMutability": "view",
      "type": "function"
    },
    {
      "inputs": [],
      "name": "WEEKLY_LOYALTY_WEIGHT",
      "outputs": [
        {
          "internalType": "uint256",
          "name": "",
          "type": "uint256"
        }
      ],
      "stateMutability": "view",
      "type": "function"
    },
    {
      "inputs": [],
      "name": "WEIGHT_SCALE",
      "outputs": [
        {
          "internalType": "uint256",
          "name": "",
          "type": "uint256"
        }
      ],
      "stateMutability": "view",
      "type": "function"
    },
    {
      "inputs": [
        {
          "components": [
            {
              "internalType": "uint256",
              "name": "seasonId",
              "type": "uint256"
            },
            {
              "internalType": "uint256",
              "name": "roundId",
              "type": "uint256"
            },
            {
              "internalType": "uint8",
              "name": "level",
              "type": "uint8"
            },
            {
              "internalType": "uint64",
              "name": "startsAt",
              "type": "uint64"
            },
            {
              "internalType": "uint64",
              "name": "entriesCloseAt",
              "type": "uint64"
            },
            {
              "internalType": "uint64",
              "name": "endsAt",
              "type": "uint64"
            },
            {
              "internalType": "uint64",
              "name": "freezeClosesAt",
              "type": "uint64"
            },
            {
              "internalType": "uint32",
              "name": "maxPlayers",
              "type": "uint32"
            },
            {
              "internalType": "uint16",
              "name": "maxWinners",
              "type": "uint16"
            },
            {
              "internalType": "bytes32",
              "name": "winningCellsRoot",
              "type": "bytes32"
            },
            {
              "internalType": "uint256",
              "name": "ethPrice",
              "type": "uint256"
            },
            {
              "internalType": "uint256",
              "name": "usdcPrice",
              "type": "uint256"
            },
            {
              "internalType": "uint16",
              "name": "freezeLimit",
              "type": "uint16"
            },
            {
              "internalType": "uint16",
              "name": "paymentSplitVersion",
              "type": "uint16"
            }
          ],
          "internalType": "struct RoundConfig",
          "name": "config",
          "type": "tuple"
        },
        {
          "internalType": "bytes",
          "name": "signature",
          "type": "bytes"
        },
        {
          "internalType": "address",
          "name": "inviter",
          "type": "address"
        }
      ],
      "name": "activateRound",
      "outputs": [],
      "stateMutability": "payable",
      "type": "function"
    },
    {
      "inputs": [
        {
          "components": [
            {
              "internalType": "uint256",
              "name": "seasonId",
              "type": "uint256"
            },
            {
              "internalType": "uint256",
              "name": "roundId",
              "type": "uint256"
            },
            {
              "internalType": "uint8",
              "name": "level",
              "type": "uint8"
            },
            {
              "internalType": "uint64",
              "name": "startsAt",
              "type": "uint64"
            },
            {
              "internalType": "uint64",
              "name": "entriesCloseAt",
              "type": "uint64"
            },
            {
              "internalType": "uint64",
              "name": "endsAt",
              "type": "uint64"
            },
            {
              "internalType": "uint64",
              "name": "freezeClosesAt",
              "type": "uint64"
            },
            {
              "internalType": "uint32",
              "name": "maxPlayers",
              "type": "uint32"
            },
            {
              "internalType": "uint16",
              "name": "maxWinners",
              "type": "uint16"
            },
            {
              "internalType": "bytes32",
              "name": "winningCellsRoot",
              "type": "bytes32"
            },
            {
              "internalType": "uint256",
              "name": "ethPrice",
              "type": "uint256"
            },
            {
              "internalType": "uint256",
              "name": "usdcPrice",
              "type": "uint256"
            },
            {
              "internalType": "uint16",
              "name": "freezeLimit",
              "type": "uint16"
            },
            {
              "internalType": "uint16",
              "name": "paymentSplitVersion",
              "type": "uint16"
            }
          ],
          "internalType": "struct RoundConfig",
          "name": "config",
          "type": "tuple"
        },
        {
          "internalType": "bytes",
          "name": "signature",
          "type": "bytes"
        },
        {
          "internalType": "address",
          "name": "player",
          "type": "address"
        },
        {
          "internalType": "address",
          "name": "inviter",
          "type": "address"
        }
      ],
      "name": "activateRoundFromBasePay",
      "outputs": [],
      "stateMutability": "nonpayable",
      "type": "function"
    },
    {
      "inputs": [
        {
          "components": [
            {
              "internalType": "uint256",
              "name": "seasonId",
              "type": "uint256"
            },
            {
              "internalType": "uint256",
              "name": "roundId",
              "type": "uint256"
            },
            {
              "internalType": "uint8",
              "name": "level",
              "type": "uint8"
            },
            {
              "internalType": "uint64",
              "name": "startsAt",
              "type": "uint64"
            },
            {
              "internalType": "uint64",
              "name": "entriesCloseAt",
              "type": "uint64"
            },
            {
              "internalType": "uint64",
              "name": "endsAt",
              "type": "uint64"
            },
            {
              "internalType": "uint64",
              "name": "freezeClosesAt",
              "type": "uint64"
            },
            {
              "internalType": "uint32",
              "name": "maxPlayers",
              "type": "uint32"
            },
            {
              "internalType": "uint16",
              "name": "maxWinners",
              "type": "uint16"
            },
            {
              "internalType": "bytes32",
              "name": "winningCellsRoot",
              "type": "bytes32"
            },
            {
              "internalType": "uint256",
              "name": "ethPrice",
              "type": "uint256"
            },
            {
              "internalType": "uint256",
              "name": "usdcPrice",
              "type": "uint256"
            },
            {
              "internalType": "uint16",
              "name": "freezeLimit",
              "type": "uint16"
            },
            {
              "internalType": "uint16",
              "name": "paymentSplitVersion",
              "type": "uint16"
            }
          ],
          "internalType": "struct RoundConfig",
          "name": "config",
          "type": "tuple"
        },
        {
          "internalType": "bytes",
          "name": "signature",
          "type": "bytes"
        },
        {
          "internalType": "address",
          "name": "inviter",
          "type": "address"
        }
      ],
      "name": "activateRoundWithUSDC",
      "outputs": [],
      "stateMutability": "nonpayable",
      "type": "function"
    },
    {
      "inputs": [
        {
          "internalType": "uint8",
          "name": "",
          "type": "uint8"
        }
      ],
      "name": "activeCellsByLevel",
      "outputs": [
        {
          "internalType": "uint256",
          "name": "",
          "type": "uint256"
        }
      ],
      "stateMutability": "view",
      "type": "function"
    },
    {
      "inputs": [],
      "name": "basePayGateway",
      "outputs": [
        {
          "internalType": "address",
          "name": "",
          "type": "address"
        }
      ],
      "stateMutability": "view",
      "type": "function"
    },
    {
      "inputs": [
        {
          "internalType": "uint8",
          "name": "level",
          "type": "uint8"
        }
      ],
      "name": "claimPrize",
      "outputs": [],
      "stateMutability": "nonpayable",
      "type": "function"
    },
    {
      "inputs": [
        {
          "internalType": "uint8",
          "name": "level",
          "type": "uint8"
        }
      ],
      "name": "claimPrizeUSDC",
      "outputs": [],
      "stateMutability": "nonpayable",
      "type": "function"
    },
    {
      "inputs": [],
      "name": "claimReferralBonus",
      "outputs": [],
      "stateMutability": "nonpayable",
      "type": "function"
    },
    {
      "inputs": [],
      "name": "claimReferralBonusUSDC",
      "outputs": [],
      "stateMutability": "nonpayable",
      "type": "function"
    },
    {
      "inputs": [
        {
          "internalType": "address",
          "name": "",
          "type": "address"
        }
      ],
      "name": "claimablePrizeUsdc",
      "outputs": [
        {
          "internalType": "uint256",
          "name": "",
          "type": "uint256"
        }
      ],
      "stateMutability": "view",
      "type": "function"
    },
    {
      "inputs": [
        {
          "internalType": "address",
          "name": "",
          "type": "address"
        },
        {
          "internalType": "uint8",
          "name": "",
          "type": "uint8"
        }
      ],
      "name": "claimablePrizeUsdcByLevel",
      "outputs": [
        {
          "internalType": "uint256",
          "name": "",
          "type": "uint256"
        }
      ],
      "stateMutability": "view",
      "type": "function"
    },
    {
      "inputs": [
        {
          "internalType": "address",
          "name": "",
          "type": "address"
        }
      ],
      "name": "claimableReferralBonusUsdc",
      "outputs": [
        {
          "internalType": "uint256",
          "name": "",
          "type": "uint256"
        }
      ],
      "stateMutability": "view",
      "type": "function"
    },
    {
      "inputs": [
        {
          "internalType": "uint8",
          "name": "level",
          "type": "uint8"
        }
      ],
      "name": "getLevelMatrixStats",
      "outputs": [
        {
          "internalType": "uint256",
          "name": "size",
          "type": "uint256"
        },
        {
          "internalType": "uint256",
          "name": "nextOpenParentId",
          "type": "uint256"
        }
      ],
      "stateMutability": "view",
      "type": "function"
    },
    {
      "inputs": [
        {
          "internalType": "uint8",
          "name": "level",
          "type": "uint8"
        }
      ],
      "name": "getLevelStats",
      "outputs": [
        {
          "internalType": "uint256",
          "name": "prizePool",
          "type": "uint256"
        },
        {
          "internalType": "uint256",
          "name": "totalWeight",
          "type": "uint256"
        },
        {
          "internalType": "uint256",
          "name": "activeCells",
          "type": "uint256"
        },
        {
          "internalType": "uint256",
          "name": "nextOpenParent",
          "type": "uint256"
        },
        {
          "internalType": "uint256",
          "name": "nextCell",
          "type": "uint256"
        }
      ],
      "stateMutability": "view",
      "type": "function"
    },
    {
      "inputs": [
        {
          "internalType": "uint8",
          "name": "level",
          "type": "uint8"
        }
      ],
      "name": "getLevelStatsUSDC",
      "outputs": [
        {
          "internalType": "uint256",
          "name": "prizePool",
          "type": "uint256"
        },
        {
          "internalType": "uint256",
          "name": "totalWeight",
          "type": "uint256"
        },
        {
          "internalType": "uint256",
          "name": "activeCells",
          "type": "uint256"
        },
        {
          "internalType": "uint256",
          "name": "nextOpenParent",
          "type": "uint256"
        },
        {
          "internalType": "uint256",
          "name": "nextCell",
          "type": "uint256"
        }
      ],
      "stateMutability": "view",
      "type": "function"
    },
    {
      "inputs": [
        {
          "internalType": "uint8",
          "name": "level",
          "type": "uint8"
        },
        {
          "internalType": "uint256",
          "name": "cellId",
          "type": "uint256"
        }
      ],
      "name": "getMatrixNode",
      "outputs": [
        {
          "components": [
            {
              "internalType": "uint256",
              "name": "cellId",
              "type": "uint256"
            },
            {
              "internalType": "address",
              "name": "player",
              "type": "address"
            },
            {
              "internalType": "uint8",
              "name": "level",
              "type": "uint8"
            },
            {
              "internalType": "uint256",
              "name": "parentCellId",
              "type": "uint256"
            },
            {
              "internalType": "uint256",
              "name": "leftChildCellId",
              "type": "uint256"
            },
            {
              "internalType": "uint256",
              "name": "rightChildCellId",
              "type": "uint256"
            },
            {
              "internalType": "bool",
              "name": "closed",
              "type": "bool"
            },
            {
              "internalType": "bool",
              "name": "prizeCell",
              "type": "bool"
            }
          ],
          "internalType": "struct MatrixNode",
          "name": "",
          "type": "tuple"
        }
      ],
      "stateMutability": "view",
      "type": "function"
    },
    {
      "inputs": [
        {
          "internalType": "uint8",
          "name": "level",
          "type": "uint8"
        },
        {
          "internalType": "uint256",
          "name": "currentCellId",
          "type": "uint256"
        }
      ],
      "name": "getNextPrizeCell",
      "outputs": [
        {
          "internalType": "uint256",
          "name": "",
          "type": "uint256"
        }
      ],
      "stateMutability": "pure",
      "type": "function"
    },
    {
      "inputs": [
        {
          "internalType": "uint8",
          "name": "level",
          "type": "uint8"
        }
      ],
      "name": "getPendingRecycleCount",
      "outputs": [
        {
          "internalType": "uint256",
          "name": "",
          "type": "uint256"
        }
      ],
      "stateMutability": "view",
      "type": "function"
    },
    {
      "inputs": [
        {
          "internalType": "address",
          "name": "playerAddress",
          "type": "address"
        }
      ],
      "name": "getPlayer",
      "outputs": [
        {
          "components": [
            {
              "internalType": "bool",
              "name": "exists",
              "type": "bool"
            },
            {
              "internalType": "address",
              "name": "wallet",
              "type": "address"
            },
            {
              "internalType": "address",
              "name": "inviter",
              "type": "address"
            },
            {
              "internalType": "address",
              "name": "secondLine",
              "type": "address"
            },
            {
              "internalType": "address",
              "name": "thirdLine",
              "type": "address"
            },
            {
              "internalType": "uint256",
              "name": "totalTickets",
              "type": "uint256"
            },
            {
              "internalType": "uint256",
              "name": "baseWeight",
              "type": "uint256"
            },
            {
              "internalType": "uint256",
              "name": "referralWeight",
              "type": "uint256"
            },
            {
              "internalType": "uint256",
              "name": "loyaltyWeight",
              "type": "uint256"
            },
            {
              "internalType": "uint256",
              "name": "matrixWeight",
              "type": "uint256"
            },
            {
              "internalType": "uint256",
              "name": "nftWeight",
              "type": "uint256"
            },
            {
              "internalType": "uint256",
              "name": "totalWeight",
              "type": "uint256"
            },
            {
              "internalType": "uint256",
              "name": "boxTokens",
              "type": "uint256"
            },
            {
              "internalType": "uint256",
              "name": "recycleCount",
              "type": "uint256"
            },
            {
              "internalType": "uint256",
              "name": "claimableReferralBonus",
              "type": "uint256"
            },
            {
              "internalType": "uint256",
              "name": "claimablePrize",
              "type": "uint256"
            },
            {
              "internalType": "uint256",
              "name": "pendingPrize",
              "type": "uint256"
            },
            {
              "internalType": "uint256",
              "name": "joinedAt",
              "type": "uint256"
            },
            {
              "internalType": "uint256",
              "name": "lastActiveAt",
              "type": "uint256"
            }
          ],
          "internalType": "struct Player",
          "name": "",
          "type": "tuple"
        }
      ],
      "stateMutability": "view",
      "type": "function"
    },
    {
      "inputs": [
        {
          "internalType": "address",
          "name": "playerAddress",
          "type": "address"
        },
        {
          "internalType": "uint8",
          "name": "level",
          "type": "uint8"
        }
      ],
      "name": "getPlayerChance",
      "outputs": [
        {
          "internalType": "uint256",
          "name": "chanceBps",
          "type": "uint256"
        }
      ],
      "stateMutability": "view",
      "type": "function"
    },
    {
      "inputs": [
        {
          "internalType": "address",
          "name": "playerAddress",
          "type": "address"
        },
        {
          "internalType": "uint8",
          "name": "level",
          "type": "uint8"
        }
      ],
      "name": "getPlayerLevel",
      "outputs": [
        {
          "internalType": "bool",
          "name": "active",
          "type": "bool"
        },
        {
          "internalType": "bool",
          "name": "frozen",
          "type": "bool"
        },
        {
          "internalType": "uint256",
          "name": "cycles",
          "type": "uint256"
        },
        {
          "internalType": "uint256",
          "name": "positionId",
          "type": "uint256"
        },
        {
          "internalType": "uint256",
          "name": "earned",
          "type": "uint256"
        }
      ],
      "stateMutability": "view",
      "type": "function"
    },
    {
      "inputs": [
        {
          "internalType": "address",
          "name": "playerAddress",
          "type": "address"
        },
        {
          "internalType": "uint8",
          "name": "level",
          "type": "uint8"
        }
      ],
      "name": "getPlayerLevelFull",
      "outputs": [
        {
          "components": [
            {
              "internalType": "bool",
              "name": "active",
              "type": "bool"
            },
            {
              "internalType": "bool",
              "name": "frozen",
              "type": "bool"
            },
            {
              "internalType": "uint256",
              "name": "tickets",
              "type": "uint256"
            },
            {
              "internalType": "uint256",
              "name": "cellId",
              "type": "uint256"
            },
            {
              "internalType": "uint256",
              "name": "parentCellId",
              "type": "uint256"
            },
            {
              "internalType": "uint256",
              "name": "leftChildCellId",
              "type": "uint256"
            },
            {
              "internalType": "uint256",
              "name": "rightChildCellId",
              "type": "uint256"
            },
            {
              "internalType": "uint256",
              "name": "cycleCount",
              "type": "uint256"
            },
            {
              "internalType": "uint256",
              "name": "levelWeight",
              "type": "uint256"
            },
            {
              "internalType": "uint256",
              "name": "claimablePrize",
              "type": "uint256"
            },
            {
              "internalType": "uint256",
              "name": "pendingPrize",
              "type": "uint256"
            }
          ],
          "internalType": "struct PlayerLevel",
          "name": "",
          "type": "tuple"
        }
      ],
      "stateMutability": "view",
      "type": "function"
    },
    {
      "inputs": [
        {
          "internalType": "address",
          "name": "playerAddress",
          "type": "address"
        },
        {
          "internalType": "uint8",
          "name": "level",
          "type": "uint8"
        }
      ],
      "name": "getPlayerPosition",
      "outputs": [
        {
          "internalType": "uint256",
          "name": "positionId",
          "type": "uint256"
        },
        {
          "internalType": "uint256",
          "name": "parentId",
          "type": "uint256"
        },
        {
          "internalType": "uint256",
          "name": "leftChildId",
          "type": "uint256"
        },
        {
          "internalType": "uint256",
          "name": "rightChildId",
          "type": "uint256"
        },
        {
          "internalType": "uint256",
          "name": "depth",
          "type": "uint256"
        },
        {
          "internalType": "bool",
          "name": "closed",
          "type": "bool"
        }
      ],
      "stateMutability": "view",
      "type": "function"
    },
    {
      "inputs": [
        {
          "internalType": "address",
          "name": "playerAddress",
          "type": "address"
        },
        {
          "internalType": "uint256",
          "name": "roundId",
          "type": "uint256"
        }
      ],
      "name": "getPlayerRound",
      "outputs": [
        {
          "components": [
            {
              "internalType": "bool",
              "name": "active",
              "type": "bool"
            },
            {
              "internalType": "bool",
              "name": "frozen",
              "type": "bool"
            },
            {
              "internalType": "uint8",
              "name": "level",
              "type": "uint8"
            },
            {
              "internalType": "uint256",
              "name": "tickets",
              "type": "uint256"
            },
            {
              "internalType": "uint256",
              "name": "cellId",
              "type": "uint256"
            },
            {
              "internalType": "uint256",
              "name": "parentCellId",
              "type": "uint256"
            },
            {
              "internalType": "uint256",
              "name": "leftChildCellId",
              "type": "uint256"
            },
            {
              "internalType": "uint256",
              "name": "rightChildCellId",
              "type": "uint256"
            },
            {
              "internalType": "uint256",
              "name": "cycleCount",
              "type": "uint256"
            },
            {
              "internalType": "uint256",
              "name": "totalWeight",
              "type": "uint256"
            },
            {
              "internalType": "uint256",
              "name": "claimablePrize",
              "type": "uint256"
            },
            {
              "internalType": "uint256",
              "name": "pendingPrize",
              "type": "uint256"
            },
            {
              "internalType": "uint256",
              "name": "claimablePrizeUsdc",
              "type": "uint256"
            },
            {
              "internalType": "uint256",
              "name": "pendingPrizeUsdc",
              "type": "uint256"
            }
          ],
          "internalType": "struct PlayerRound",
          "name": "",
          "type": "tuple"
        }
      ],
      "stateMutability": "view",
      "type": "function"
    },
    {
      "inputs": [
        {
          "internalType": "address",
          "name": "playerAddress",
          "type": "address"
        },
        {
          "internalType": "uint8",
          "name": "level",
          "type": "uint8"
        }
      ],
      "name": "getPlayerTokenRewards",
      "outputs": [
        {
          "internalType": "uint256",
          "name": "referralBonus",
          "type": "uint256"
        },
        {
          "internalType": "uint256",
          "name": "claimablePrize",
          "type": "uint256"
        },
        {
          "internalType": "uint256",
          "name": "pendingPrize",
          "type": "uint256"
        }
      ],
      "stateMutability": "view",
      "type": "function"
    },
    {
      "inputs": [
        {
          "internalType": "address",
          "name": "playerAddress",
          "type": "address"
        },
        {
          "internalType": "uint8",
          "name": "level",
          "type": "uint8"
        }
      ],
      "name": "getPlayerWeight",
      "outputs": [
        {
          "internalType": "uint256",
          "name": "",
          "type": "uint256"
        }
      ],
      "stateMutability": "view",
      "type": "function"
    },
    {
      "inputs": [
        {
          "internalType": "uint256",
          "name": "roundId",
          "type": "uint256"
        }
      ],
      "name": "getRoundGameStats",
      "outputs": [
        {
          "internalType": "uint256",
          "name": "prizePoolEth",
          "type": "uint256"
        },
        {
          "internalType": "uint256",
          "name": "prizePoolUsdc",
          "type": "uint256"
        },
        {
          "internalType": "uint256",
          "name": "totalWeight",
          "type": "uint256"
        },
        {
          "internalType": "uint256",
          "name": "activeCells",
          "type": "uint256"
        },
        {
          "internalType": "uint256",
          "name": "nextCell",
          "type": "uint256"
        },
        {
          "internalType": "uint256",
          "name": "nextOpenParent",
          "type": "uint256"
        }
      ],
      "stateMutability": "view",
      "type": "function"
    },
    {
      "inputs": [
        {
          "internalType": "uint256",
          "name": "roundId",
          "type": "uint256"
        },
        {
          "internalType": "uint256",
          "name": "cellId",
          "type": "uint256"
        }
      ],
      "name": "getRoundMatrixNode",
      "outputs": [
        {
          "components": [
            {
              "internalType": "uint256",
              "name": "cellId",
              "type": "uint256"
            },
            {
              "internalType": "address",
              "name": "player",
              "type": "address"
            },
            {
              "internalType": "uint8",
              "name": "level",
              "type": "uint8"
            },
            {
              "internalType": "uint256",
              "name": "parentCellId",
              "type": "uint256"
            },
            {
              "internalType": "uint256",
              "name": "leftChildCellId",
              "type": "uint256"
            },
            {
              "internalType": "uint256",
              "name": "rightChildCellId",
              "type": "uint256"
            },
            {
              "internalType": "bool",
              "name": "closed",
              "type": "bool"
            },
            {
              "internalType": "bool",
              "name": "prizeCell",
              "type": "bool"
            }
          ],
          "internalType": "struct MatrixNode",
          "name": "",
          "type": "tuple"
        }
      ],
      "stateMutability": "view",
      "type": "function"
    },
    {
      "inputs": [
        {
          "internalType": "address",
          "name": "playerAddress",
          "type": "address"
        },
        {
          "internalType": "uint8",
          "name": "level",
          "type": "uint8"
        }
      ],
      "name": "isLevelActive",
      "outputs": [
        {
          "internalType": "bool",
          "name": "",
          "type": "bool"
        }
      ],
      "stateMutability": "view",
      "type": "function"
    },
    {
      "inputs": [
        {
          "internalType": "address",
          "name": "playerAddress",
          "type": "address"
        },
        {
          "internalType": "uint8",
          "name": "level",
          "type": "uint8"
        }
      ],
      "name": "isLevelFrozen",
      "outputs": [
        {
          "internalType": "bool",
          "name": "",
          "type": "bool"
        }
      ],
      "stateMutability": "view",
      "type": "function"
    },
    {
      "inputs": [],
      "name": "legacyActivationEnabled",
      "outputs": [
        {
          "internalType": "bool",
          "name": "",
          "type": "bool"
        }
      ],
      "stateMutability": "view",
      "type": "function"
    },
    {
      "inputs": [
        {
          "internalType": "uint8",
          "name": "",
          "type": "uint8"
        }
      ],
      "name": "levelAvailable",
      "outputs": [
        {
          "internalType": "bool",
          "name": "",
          "type": "bool"
        }
      ],
      "stateMutability": "view",
      "type": "function"
    },
    {
      "inputs": [
        {
          "internalType": "uint8",
          "name": "",
          "type": "uint8"
        }
      ],
      "name": "levelMatrixSize",
      "outputs": [
        {
          "internalType": "uint256",
          "name": "",
          "type": "uint256"
        }
      ],
      "stateMutability": "view",
      "type": "function"
    },
    {
      "inputs": [
        {
          "internalType": "uint8",
          "name": "",
          "type": "uint8"
        }
      ],
      "name": "levelPrices",
      "outputs": [
        {
          "internalType": "uint256",
          "name": "",
          "type": "uint256"
        }
      ],
      "stateMutability": "view",
      "type": "function"
    },
    {
      "inputs": [
        {
          "internalType": "uint8",
          "name": "",
          "type": "uint8"
        }
      ],
      "name": "levelPricesUsdc",
      "outputs": [
        {
          "internalType": "uint256",
          "name": "",
          "type": "uint256"
        }
      ],
      "stateMutability": "view",
      "type": "function"
    },
    {
      "inputs": [
        {
          "internalType": "uint8",
          "name": "",
          "type": "uint8"
        },
        {
          "internalType": "uint256",
          "name": "",
          "type": "uint256"
        }
      ],
      "name": "matrixNodes",
      "outputs": [
        {
          "internalType": "uint256",
          "name": "cellId",
          "type": "uint256"
        },
        {
          "internalType": "address",
          "name": "player",
          "type": "address"
        },
        {
          "internalType": "uint8",
          "name": "level",
          "type": "uint8"
        },
        {
          "internalType": "uint256",
          "name": "parentCellId",
          "type": "uint256"
        },
        {
          "internalType": "uint256",
          "name": "leftChildCellId",
          "type": "uint256"
        },
        {
          "internalType": "uint256",
          "name": "rightChildCellId",
          "type": "uint256"
        },
        {
          "internalType": "bool",
          "name": "closed",
          "type": "bool"
        },
        {
          "internalType": "bool",
          "name": "prizeCell",
          "type": "bool"
        }
      ],
      "stateMutability": "view",
      "type": "function"
    },
    {
      "inputs": [
        {
          "internalType": "uint8",
          "name": "",
          "type": "uint8"
        }
      ],
      "name": "matrixPrizePools",
      "outputs": [
        {
          "internalType": "uint256",
          "name": "",
          "type": "uint256"
        }
      ],
      "stateMutability": "view",
      "type": "function"
    },
    {
      "inputs": [
        {
          "internalType": "uint8",
          "name": "",
          "type": "uint8"
        }
      ],
      "name": "matrixPrizePoolsUsdc",
      "outputs": [
        {
          "internalType": "uint256",
          "name": "",
          "type": "uint256"
        }
      ],
      "stateMutability": "view",
      "type": "function"
    },
    {
      "inputs": [
        {
          "internalType": "uint8",
          "name": "",
          "type": "uint8"
        }
      ],
      "name": "nextCellId",
      "outputs": [
        {
          "internalType": "uint256",
          "name": "",
          "type": "uint256"
        }
      ],
      "stateMutability": "view",
      "type": "function"
    },
    {
      "inputs": [
        {
          "internalType": "uint8",
          "name": "",
          "type": "uint8"
        }
      ],
      "name": "nextOpenParentCellId",
      "outputs": [
        {
          "internalType": "uint256",
          "name": "",
          "type": "uint256"
        }
      ],
      "stateMutability": "view",
      "type": "function"
    },
    {
      "inputs": [],
      "name": "operatorWallet",
      "outputs": [
        {
          "internalType": "address",
          "name": "",
          "type": "address"
        }
      ],
      "stateMutability": "view",
      "type": "function"
    },
    {
      "inputs": [],
      "name": "owner",
      "outputs": [
        {
          "internalType": "address",
          "name": "",
          "type": "address"
        }
      ],
      "stateMutability": "view",
      "type": "function"
    },
    {
      "inputs": [
        {
          "internalType": "address",
          "name": "",
          "type": "address"
        }
      ],
      "name": "pendingPrizeUsdc",
      "outputs": [
        {
          "internalType": "uint256",
          "name": "",
          "type": "uint256"
        }
      ],
      "stateMutability": "view",
      "type": "function"
    },
    {
      "inputs": [
        {
          "internalType": "address",
          "name": "",
          "type": "address"
        },
        {
          "internalType": "uint8",
          "name": "",
          "type": "uint8"
        }
      ],
      "name": "pendingPrizeUsdcByLevel",
      "outputs": [
        {
          "internalType": "uint256",
          "name": "",
          "type": "uint256"
        }
      ],
      "stateMutability": "view",
      "type": "function"
    },
    {
      "inputs": [
        {
          "internalType": "address",
          "name": "",
          "type": "address"
        },
        {
          "internalType": "uint8",
          "name": "",
          "type": "uint8"
        }
      ],
      "name": "playerLevels",
      "outputs": [
        {
          "internalType": "bool",
          "name": "active",
          "type": "bool"
        },
        {
          "internalType": "bool",
          "name": "frozen",
          "type": "bool"
        },
        {
          "internalType": "uint256",
          "name": "tickets",
          "type": "uint256"
        },
        {
          "internalType": "uint256",
          "name": "cellId",
          "type": "uint256"
        },
        {
          "internalType": "uint256",
          "name": "parentCellId",
          "type": "uint256"
        },
        {
          "internalType": "uint256",
          "name": "leftChildCellId",
          "type": "uint256"
        },
        {
          "internalType": "uint256",
          "name": "rightChildCellId",
          "type": "uint256"
        },
        {
          "internalType": "uint256",
          "name": "cycleCount",
          "type": "uint256"
        },
        {
          "internalType": "uint256",
          "name": "levelWeight",
          "type": "uint256"
        },
        {
          "internalType": "uint256",
          "name": "claimablePrize",
          "type": "uint256"
        },
        {
          "internalType": "uint256",
          "name": "pendingPrize",
          "type": "uint256"
        }
      ],
      "stateMutability": "view",
      "type": "function"
    },
    {
      "inputs": [
        {
          "internalType": "address",
          "name": "",
          "type": "address"
        },
        {
          "internalType": "uint256",
          "name": "",
          "type": "uint256"
        }
      ],
      "name": "playerRounds",
      "outputs": [
        {
          "internalType": "bool",
          "name": "active",
          "type": "bool"
        },
        {
          "internalType": "bool",
          "name": "frozen",
          "type": "bool"
        },
        {
          "internalType": "uint8",
          "name": "level",
          "type": "uint8"
        },
        {
          "internalType": "uint256",
          "name": "tickets",
          "type": "uint256"
        },
        {
          "internalType": "uint256",
          "name": "cellId",
          "type": "uint256"
        },
        {
          "internalType": "uint256",
          "name": "parentCellId",
          "type": "uint256"
        },
        {
          "internalType": "uint256",
          "name": "leftChildCellId",
          "type": "uint256"
        },
        {
          "internalType": "uint256",
          "name": "rightChildCellId",
          "type": "uint256"
        },
        {
          "internalType": "uint256",
          "name": "cycleCount",
          "type": "uint256"
        },
        {
          "internalType": "uint256",
          "name": "totalWeight",
          "type": "uint256"
        },
        {
          "internalType": "uint256",
          "name": "claimablePrize",
          "type": "uint256"
        },
        {
          "internalType": "uint256",
          "name": "pendingPrize",
          "type": "uint256"
        },
        {
          "internalType": "uint256",
          "name": "claimablePrizeUsdc",
          "type": "uint256"
        },
        {
          "internalType": "uint256",
          "name": "pendingPrizeUsdc",
          "type": "uint256"
        }
      ],
      "stateMutability": "view",
      "type": "function"
    },
    {
      "inputs": [
        {
          "internalType": "address",
          "name": "",
          "type": "address"
        }
      ],
      "name": "players",
      "outputs": [
        {
          "internalType": "bool",
          "name": "exists",
          "type": "bool"
        },
        {
          "internalType": "address",
          "name": "wallet",
          "type": "address"
        },
        {
          "internalType": "address",
          "name": "inviter",
          "type": "address"
        },
        {
          "internalType": "address",
          "name": "secondLine",
          "type": "address"
        },
        {
          "internalType": "address",
          "name": "thirdLine",
          "type": "address"
        },
        {
          "internalType": "uint256",
          "name": "totalTickets",
          "type": "uint256"
        },
        {
          "internalType": "uint256",
          "name": "baseWeight",
          "type": "uint256"
        },
        {
          "internalType": "uint256",
          "name": "referralWeight",
          "type": "uint256"
        },
        {
          "internalType": "uint256",
          "name": "loyaltyWeight",
          "type": "uint256"
        },
        {
          "internalType": "uint256",
          "name": "matrixWeight",
          "type": "uint256"
        },
        {
          "internalType": "uint256",
          "name": "nftWeight",
          "type": "uint256"
        },
        {
          "internalType": "uint256",
          "name": "totalWeight",
          "type": "uint256"
        },
        {
          "internalType": "uint256",
          "name": "boxTokens",
          "type": "uint256"
        },
        {
          "internalType": "uint256",
          "name": "recycleCount",
          "type": "uint256"
        },
        {
          "internalType": "uint256",
          "name": "claimableReferralBonus",
          "type": "uint256"
        },
        {
          "internalType": "uint256",
          "name": "claimablePrize",
          "type": "uint256"
        },
        {
          "internalType": "uint256",
          "name": "pendingPrize",
          "type": "uint256"
        },
        {
          "internalType": "uint256",
          "name": "joinedAt",
          "type": "uint256"
        },
        {
          "internalType": "uint256",
          "name": "lastActiveAt",
          "type": "uint256"
        }
      ],
      "stateMutability": "view",
      "type": "function"
    },
    {
      "inputs": [],
      "name": "projectFeesAccrued",
      "outputs": [
        {
          "internalType": "uint256",
          "name": "",
          "type": "uint256"
        }
      ],
      "stateMutability": "view",
      "type": "function"
    },
    {
      "inputs": [],
      "name": "projectFeesAccruedUsdc",
      "outputs": [
        {
          "internalType": "uint256",
          "name": "",
          "type": "uint256"
        }
      ],
      "stateMutability": "view",
      "type": "function"
    },
    {
      "inputs": [],
      "name": "projectWallet",
      "outputs": [
        {
          "internalType": "address",
          "name": "",
          "type": "address"
        }
      ],
      "stateMutability": "view",
      "type": "function"
    },
    {
      "inputs": [
        {
          "internalType": "uint256",
          "name": "roundId",
          "type": "uint256"
        }
      ],
      "name": "releaseRoundPools",
      "outputs": [
        {
          "internalType": "uint256",
          "name": "ethAmount",
          "type": "uint256"
        },
        {
          "internalType": "uint256",
          "name": "usdcAmount",
          "type": "uint256"
        }
      ],
      "stateMutability": "nonpayable",
      "type": "function"
    },
    {
      "inputs": [
        {
          "internalType": "uint256",
          "name": "",
          "type": "uint256"
        }
      ],
      "name": "roundActiveCells",
      "outputs": [
        {
          "internalType": "uint256",
          "name": "",
          "type": "uint256"
        }
      ],
      "stateMutability": "view",
      "type": "function"
    },
    {
      "inputs": [],
      "name": "roundManager",
      "outputs": [
        {
          "internalType": "address",
          "name": "",
          "type": "address"
        }
      ],
      "stateMutability": "view",
      "type": "function"
    },
    {
      "inputs": [
        {
          "internalType": "uint256",
          "name": "",
          "type": "uint256"
        },
        {
          "internalType": "uint256",
          "name": "",
          "type": "uint256"
        }
      ],
      "name": "roundMatrixNodes",
      "outputs": [
        {
          "internalType": "uint256",
          "name": "cellId",
          "type": "uint256"
        },
        {
          "internalType": "address",
          "name": "player",
          "type": "address"
        },
        {
          "internalType": "uint8",
          "name": "level",
          "type": "uint8"
        },
        {
          "internalType": "uint256",
          "name": "parentCellId",
          "type": "uint256"
        },
        {
          "internalType": "uint256",
          "name": "leftChildCellId",
          "type": "uint256"
        },
        {
          "internalType": "uint256",
          "name": "rightChildCellId",
          "type": "uint256"
        },
        {
          "internalType": "bool",
          "name": "closed",
          "type": "bool"
        },
        {
          "internalType": "bool",
          "name": "prizeCell",
          "type": "bool"
        }
      ],
      "stateMutability": "view",
      "type": "function"
    },
    {
      "inputs": [
        {
          "internalType": "uint256",
          "name": "",
          "type": "uint256"
        }
      ],
      "name": "roundNextCellId",
      "outputs": [
        {
          "internalType": "uint256",
          "name": "",
          "type": "uint256"
        }
      ],
      "stateMutability": "view",
      "type": "function"
    },
    {
      "inputs": [
        {
          "internalType": "uint256",
          "name": "",
          "type": "uint256"
        }
      ],
      "name": "roundNextOpenParentCellId",
      "outputs": [
        {
          "internalType": "uint256",
          "name": "",
          "type": "uint256"
        }
      ],
      "stateMutability": "view",
      "type": "function"
    },
    {
      "inputs": [
        {
          "internalType": "uint256",
          "name": "",
          "type": "uint256"
        }
      ],
      "name": "roundPrizePools",
      "outputs": [
        {
          "internalType": "uint256",
          "name": "",
          "type": "uint256"
        }
      ],
      "stateMutability": "view",
      "type": "function"
    },
    {
      "inputs": [
        {
          "internalType": "uint256",
          "name": "",
          "type": "uint256"
        }
      ],
      "name": "roundPrizePoolsUsdc",
      "outputs": [
        {
          "internalType": "uint256",
          "name": "",
          "type": "uint256"
        }
      ],
      "stateMutability": "view",
      "type": "function"
    },
    {
      "inputs": [
        {
          "internalType": "uint256",
          "name": "",
          "type": "uint256"
        }
      ],
      "name": "roundTotalWeight",
      "outputs": [
        {
          "internalType": "uint256",
          "name": "",
          "type": "uint256"
        }
      ],
      "stateMutability": "view",
      "type": "function"
    },
    {
      "inputs": [
        {
          "internalType": "address",
          "name": "newGateway",
          "type": "address"
        }
      ],
      "name": "setBasePayGateway",
      "outputs": [],
      "stateMutability": "nonpayable",
      "type": "function"
    },
    {
      "inputs": [
        {
          "internalType": "bool",
          "name": "enabled",
          "type": "bool"
        }
      ],
      "name": "setLegacyActivationEnabled",
      "outputs": [],
      "stateMutability": "nonpayable",
      "type": "function"
    },
    {
      "inputs": [
        {
          "internalType": "uint8",
          "name": "level",
          "type": "uint8"
        },
        {
          "internalType": "bool",
          "name": "available",
          "type": "bool"
        }
      ],
      "name": "setLevelAvailable",
      "outputs": [],
      "stateMutability": "nonpayable",
      "type": "function"
    },
    {
      "inputs": [
        {
          "internalType": "uint8",
          "name": "level",
          "type": "uint8"
        },
        {
          "internalType": "uint256",
          "name": "newPrice",
          "type": "uint256"
        }
      ],
      "name": "setLevelPrice",
      "outputs": [],
      "stateMutability": "nonpayable",
      "type": "function"
    },
    {
      "inputs": [
        {
          "internalType": "uint8",
          "name": "level",
          "type": "uint8"
        },
        {
          "internalType": "uint256",
          "name": "newPrice",
          "type": "uint256"
        }
      ],
      "name": "setLevelPriceUSDC",
      "outputs": [],
      "stateMutability": "nonpayable",
      "type": "function"
    },
    {
      "inputs": [
        {
          "internalType": "address",
          "name": "newManager",
          "type": "address"
        }
      ],
      "name": "setRoundManager",
      "outputs": [],
      "stateMutability": "nonpayable",
      "type": "function"
    },
    {
      "inputs": [
        {
          "internalType": "address",
          "name": "newSettlement",
          "type": "address"
        }
      ],
      "name": "setSettlementContract",
      "outputs": [],
      "stateMutability": "nonpayable",
      "type": "function"
    },
    {
      "inputs": [
        {
          "internalType": "address",
          "name": "newToken",
          "type": "address"
        }
      ],
      "name": "setUsdcToken",
      "outputs": [],
      "stateMutability": "nonpayable",
      "type": "function"
    },
    {
      "inputs": [
        {
          "internalType": "address",
          "name": "newProjectWallet",
          "type": "address"
        },
        {
          "internalType": "address",
          "name": "newTreasuryWallet",
          "type": "address"
        },
        {
          "internalType": "address",
          "name": "newOperatorWallet",
          "type": "address"
        }
      ],
      "name": "setWallets",
      "outputs": [],
      "stateMutability": "nonpayable",
      "type": "function"
    },
    {
      "inputs": [],
      "name": "settlementContract",
      "outputs": [
        {
          "internalType": "address",
          "name": "",
          "type": "address"
        }
      ],
      "stateMutability": "view",
      "type": "function"
    },
    {
      "inputs": [
        {
          "internalType": "uint8",
          "name": "",
          "type": "uint8"
        }
      ],
      "name": "totalWeightByLevel",
      "outputs": [
        {
          "internalType": "uint256",
          "name": "",
          "type": "uint256"
        }
      ],
      "stateMutability": "view",
      "type": "function"
    },
    {
      "inputs": [
        {
          "internalType": "address",
          "name": "newOwner",
          "type": "address"
        }
      ],
      "name": "transferOwnership",
      "outputs": [],
      "stateMutability": "nonpayable",
      "type": "function"
    },
    {
      "inputs": [],
      "name": "treasuryWallet",
      "outputs": [
        {
          "internalType": "address",
          "name": "",
          "type": "address"
        }
      ],
      "stateMutability": "view",
      "type": "function"
    },
    {
      "inputs": [],
      "name": "usdcToken",
      "outputs": [
        {
          "internalType": "contract IERC20Minimal",
          "name": "",
          "type": "address"
        }
      ],
      "stateMutability": "view",
      "type": "function"
    },
    {
      "inputs": [],
      "name": "withdrawProjectFees",
      "outputs": [],
      "stateMutability": "nonpayable",
      "type": "function"
    },
    {
      "inputs": [],
      "name": "withdrawProjectFeesUSDC",
      "outputs": [],
      "stateMutability": "nonpayable",
      "type": "function"
    }
  ],
  "bytecode": "0x6080346200039d57601f6200546238819003918201601f1916830191906001600160401b03831184841017620003a2578160a092859260409586528339810103126200039d576200005082620003b8565b60206200006060208501620003b8565b906200006e848601620003b8565b6200008a60806200008260608901620003b8565b9701620003b8565b6001602c819055946001600160a01b039081169485156200038c5781169283156200038c5781169788156200038c5781169182156200038c57169081156200037b57859760018060a01b031993600096338689541617885585895416178855846002541617600255836003541617600355826007541617600755600491600454161760045560ff60a01b1960065416600655838352600860205266b1a2bc2ec50000858420556002835266f8b0a10e470000858420556003835267016345785d8a000085842055600483526701f161421c8e000085842055600583526702c68af0bb14000085842055600683526703e2c284391c0000858420556007835267058d15e17628000085842055600883526707a1fe16027700008584205560098352670b1a2bc2ec50000085842055600a808452670f43fc2c04ee000086852055600b84526716345785d8a0000086852055600c8452671e87f85809dc000086852055600d8452672c68af0bb140000086852055600e8452673d0ff0b013b8000086852055600f8452675a34a38fc00a00008685205560108452676f05b59d3b200000868520556011926011855267a688906bd8b0000087862055858552600960205261c3508786205560028552620111708786205560038552620186a08786205560048552620222e0878620556005855262030d408786205560068552620445c0878620556007855262061a808786205560088552620864708786205560098552620c350087862055600a85526210c8e087862055600b855262186a0087862055600c8552622191c087862055600d85526230d40087862055600e85526243238087862055600f855262632ea08786205560108552627a1200878620556011855262b71b00878620556003975b6200032b575b86516150949081620003ce8239f35b60ff881684811162000374578552818152868520805460ff19168717905560ff9788169788146200036157968501968562000316565b5050634e487b7160e01b83525260249150fd5b506200031c565b865163d92e233d60e01b8152600490fd5b875163d92e233d60e01b8152600490fd5b600080fd5b634e487b7160e01b600052604160045260246000fd5b51906001600160a01b03821682036200039d5756fe610100604052600436101561001357600080fd5b60003560e01c806303a65dfa14613ec957806304eb273414613e955780630e475efd14613e3357806311eac85514613e0a57806313306da214613d9257806319a0859414613d745780631a1478c314610c455780631d6a884b14613d585780631e375ab914613c9357806322fbfe8014613c26578063249d39e914613c0957806324bdc3a7146104e557806326728174146113e457806326e0cfe714613b9c5780632768a49f14613ab857806328db6c74146133915780632e50d9061461335d5780632f5ced0414610513578063306bf6bb14613278578063308c61091461325b57806331b161a71461048f578063333fedad146113e457806334601b8914612c1f5780633719fd0514612ba757806337a8af5014612b7b5780633945dbde14612b525780633ac3684c14612ad95780633d5efbae14612a125780633f896dd9146128c657806340261fbb146127365780634626402b1461270d5780634a57c6d9146126525780634ca3696c146125c75780634d69a4cd146125ab5780634f51f138146125315780635042a91f1461251457806350da23dc146104e557806351b7b69e146124e857806352ebb227146124af57806352f5c84e1461247b57806354feadc9146123f15780635c12cd4b146121525780635c602d9e1461208a5780635d886f2214611fd75780636793c2cd14611f645780636b09f53914611f2a57806372d686bf14611f0d57806375b7d7c114611eae57806375cb1bd114611d335780637a7c7a6a14611c6b5780637c58894d1461162b5780637dcda2d4146115ff5780637f3255a8146115e2578063852f8299146115c557806386b8f4a11461158b5780638b984405146115655780638c5b8ea5146115315780638ce3d8c8146115085780638d2724f9146114d45780638da5cb5b146114ab5780638eb657c4146113e957806390f7c71a146113e457806394cecff8146113625780639b3728e81461048f5780639fef686214611346578063a03d82ec1461116e578063a0978ac2146110d1578063ab4847b414610f87578063b70258be14610f5b578063b75b688b14610ed2578063b93703ef14610ea6578063b9aee26314610e5c578063bea9903514610e0b578063beb08ab914610de2578063c05db4ce14610dae578063c236d48f14610d82578063c7fcb8c314610d48578063c864ce5614610c4a578063c8f17ce314610c45578063c963ba1d14610bf5578063ce9fffaa14610bc1578063d2a1608014610b6e578063dbba054014610b3a578063e26f7c4614610b1c578063e2eb41ff146109b0578063e78a6451146107cd578063e8a8bd5c14610799578063e9212a0f1461077d578063ea42418b14610754578063ed270c16146106c4578063edfae883146105dd578063f178fb1b146105c1578063f2fde38b14610518578063f6d5f69a14610513578063f90ef4ac146104ea578063f9335139146104e5578063f935c2d614610494578063f943cbc61461048f5763fa267c471461045e57600080fd5b3461048a57602036600319011261048a57600435600052601a6020526020604060002054604051908152f35b600080fd5b61402d565b3461048a57604036600319011261048a576104ad613f26565b6104b5613f3c565b9060018060a01b0316600052602660205260ff604060002091166000526020526020604060002054604051908152f35b613fab565b3461048a57600036600319011261048a576003546040516001600160a01b039091168152602090f35b614011565b3461048a57602036600319011261048a57610531613f26565b600054906001600160a01b038083169161054c338414614123565b1691821561058b576001600160a01b031916821760009081557f8be0079c531659141344cd1fd0a4f28419497f9722a3daafe3b4186f6b6457e09080a3005b60405162461bcd60e51b815260206004820152600e60248201526d13dddb995c881c995c5d5a5c995960921b6044820152606490fd5b3461048a57600036600319011261048a576020604051600a8152f35b3461048a57600036600319011261048a576105fc6001602c541461415c565b6002602c553360005260236020526040600020548015610686576007546001600160a01b039061062f908216151561427c565b3360005260236020526000604081205561064e82338360075416614553565b60075416906040519081527f6212d3b8329f12cd207169548d7570de1a41c72473a7313c176c13641c39aab760203392a36001602c55005b60405162461bcd60e51b81526020600482015260166024820152754e6f205553444320726566657272616c20626f6e757360501b6044820152606490fd5b3461048a57604036600319011261048a576106dd613f4c565b6024359081151580920361048a57602060ff7fdd552374405792741cb7e6993ca7e6dd5400b9e45e80ca256ac09db4009c89379261072660018060a01b03600054163314614123565b61072f81614606565b169283600052600a8252604060002060ff1981541660ff8316179055604051908152a2005b3461048a57600036600319011261048a576005546040516001600160a01b039091168152602090f35b3461048a57600036600319011261048a57602060405160048152f35b3461048a57602036600319011261048a5760ff6107b4613f4c565b1660005260126020526020604060002054604051908152f35b3461048a57604036600319011261048a576107e6613f26565b60006101a06040516107f781614203565b8281528260208201528260408201528260608201528260808201528260a08201528260c08201528260e08201528261010082015282610120820152826101408201528261016082015282610180820152015260018060a01b0316600052601560205260406000206024356000526020526101c060406000206101a060405161087e81614203565b600b83549360ff85161515835260ff8560081c161515602084015260ff8560101c1660408401526001810154606084015260028101546080840152600381015460a0840152600481015460c0840152600581015460e08401526006810154610100840152600781015461012084015260088101546101408401526009810154610160840152600a81015461018084015201548282015260ff60405193161515835260208101511515602084015260ff6040820151166040840152606081015160608401526080810151608084015260a081015160a084015260c081015160c084015260e081015160e084015261010081015161010084015261012081015161012084015261014081015161014084015261016081015161016084015261018081015161018084015201516101a0820152f35b3461048a57602036600319011261048a576001600160a01b036109d1613f26565b16600052600c602052604060002080808080808080808080808080806011600f600e600d600c600b600a6009600860076006600560048d549d60018060a01b0360018201541660e052600260018060a01b03910154169e600360018060a01b03910154169f01549f01549f01549f01549f01549f01549f01549f01549f01549f01549f01549f01549f6010810154608052015460c05260405160a05260ff8116151560a0515260018060a01b039060081c16602060a051015260e051604060a0510152606060a0510152608060a051015260a08051015260c060a051015260e060a051015261010060a051015261012060a051015261014060a051015261016060a051015261018060a05101526101a060a05101526101c060a05101526101e060a051015261020060a051015260805161022060a051015260c05161024060a051015261026060a051f35b3461048a57600036600319011261048a576020602254604051908152f35b3461048a57602036600319011261048a5760ff610b55613f4c565b1660005260146020526020604060002054604051908152f35b3461048a57604036600319011261048a5760c0610b9a610b8c613f26565b610b94613f3c565b906143d5565b936040939193519586526020860152604085015260608401526080830152151560a0820152f35b3461048a57602036600319011261048a5760ff610bdc613f4c565b16600052600f6020526020604060002054604051908152f35b3461048a57602036600319011261048a5760ff610c10613f4c565b610c1981614606565b16600052602b6020526020610c3d604060002054602a835260406000205490614302565b604051908152f35b613f6a565b3461048a5760208060031936011261048a57610c64613f4c565b90610c736001602c541461415c565b6002602c55610c8182614606565b33600052600d815260ff604060002092169182600052815260086040600020610cb060ff8254841c16156142c4565b01908154918215610d18579060007fe478efad2d93638c429f97678f2517efcafee26463eaf608c398b94a2510eab5925533600052600c8152600e604060002001610cfc848254614302565b9055610d088333614476565b6040519283523392a36001602c55005b60405162461bcd60e51b81526004810183905260086024820152674e6f207072697a6560c01b6044820152606490fd5b3461048a57602036600319011261048a576001600160a01b03610d69613f26565b1660005260236020526020604060002054604051908152f35b3461048a57602036600319011261048a5760043560005260176020526020604060002054604051908152f35b3461048a57602036600319011261048a5760ff610dc9613f4c565b16600052600b6020526020604060002054604051908152f35b3461048a57600036600319011261048a576001546040516001600160a01b039091168152602090f35b3461048a57604036600319011261048a57610e24613f26565b610e2c613f3c565b9060018060a01b0316600052602760205260ff604060002091166000526020526020604060002054604051908152f35b3461048a57602036600319011261048a5760ff610e77613f4c565b610e8081614606565b166000526014602052604080600020546010602052816000205482519182526020820152f35b3461048a57602036600319011261048a5760043560005260196020526020604060002054604051908152f35b3461048a57604036600319011261048a57610eeb613f4c565b602490610efa60243591614606565b6007905b80821115610f1157602082604051908152f35b906001808201809211610f46571b6000198101908111610f315790610efe565b82634e487b7160e01b60005260116004526000fd5b83634e487b7160e01b60005260116004526000fd5b3461048a57602036600319011261048a5760043560005260186020526020604060002054604051908152f35b3461048a57610f953661409c565b90610f9e61430f565b50811580156110b9575b61109c576000526016602052604060002090600052602052611098604060002060ff600560405192610fd9846141cb565b8054845282600182015460018060a01b038116602087015260a01c1660408501526002810154606085015260038101546080850152600481015460a08501520154818116151560c084015260081c16151560e08201526040519182918291909160e0806101008301948051845260018060a01b03602082015116602085015260ff6040820151166040850152606081015160608501526080810151608085015260a081015160a085015260c0810151151560c085015201511515910152565b0390f35b60449160405191631f06e1dd60e31b835260048301526024820152fd5b50806000526017602052604060002054821015610fa8565b3461048a57604036600319011261048a576110ea613f26565b6110f2613f3c565b906110fc82614606565b60018060a01b0316600052600d60205260ff6040600020911660005260205260a0604060002080549060068101549061114460028201549160096008820154910154906143c8565b9160ff604051948181161515865260081c1615156020850152604084015260608301526080820152f35b3461048a5760208060031936011261048a576004356111916001602c541461415c565b6002602c556005546001600160a01b03908116330361130f57602483826004541660405192838092636fd0763b60e11b82528760048301525afa908115611303576000916112cd575b5060088110156112b75760040361127d5760409282600052601b8152836000205492601c8252846000205492601b8352600086812055601c8352600086812055611228858260055416614476565b61123c848260075416836005541690614553565b60055416907ff5dce8d14677f13040c40d084c873acb3bb2ff01d06a60cf69b3e81fcc1e35eb8680518781528686820152a36001602c558351928352820152f35b60405162461bcd60e51b8152600481018490526012602482015271526f756e64206973206e6f7420726561647960701b6044820152606490fd5b634e487b7160e01b600052602160045260246000fd5b90508381813d83116112fc575b6112e4818361421f565b8101031261048a5751600881101561048a57846111da565b503d6112da565b6040513d6000823e3d90fd5b60405162461bcd60e51b815260048101849052600f60248201526e13db9b1e481cd95d1d1b195b595b9d608a1b6044820152606490fd5b3461048a57600036600319011261048a57602060405160198152f35b3461048a57604036600319011261048a5760ff61137d613f4c565b16600052600e60205260406000206024356000526020526040600020805490611098600182015491600281015493600382015491600560048201549101549260405196879660ff808760081c1696169460ff8260a01c169160018060a01b031690896140b2565b613fc8565b3461048a57604036600319011261048a57611402613f4c565b6024359061141b60018060a01b03600054163314614123565b61142481614606565b811561147257604060ff7f68cb741d0779160e141ccf5dd579423de44febc76c0edddcc6167807a3c16af79216928360005260086020528160002090808254925582519182526020820152a2005b60405162461bcd60e51b8152602060048201526011602482015270141c9a58d9481a5cc81c995c5d5a5c9959607a1b6044820152606490fd5b3461048a57600036600319011261048a576000546040516001600160a01b039091168152602090f35b3461048a57602036600319011261048a5760ff6114ef613f4c565b1660005260136020526020604060002054604051908152f35b3461048a57600036600319011261048a576006546040516001600160a01b039091168152602090f35b3461048a57602036600319011261048a5760ff61154c613f4c565b1660005260116020526020604060002054604051908152f35b3461048a57600036600319011261048a57602060ff60065460a01c166040519015158152f35b3461048a57602036600319011261048a576001600160a01b036115ac613f26565b1660005260256020526020604060002054604051908152f35b3461048a57600036600319011261048a5760206040516102588152f35b3461048a57600036600319011261048a5760206040516101908152f35b3461048a57604036600319011261048a576020610c3d61161d613f26565b611625613f3c565b9061434d565b6116343661404a565b91906116446001602c541461415c565b6002602c556101408401353414801590611c5e575b611c4c5760018060a01b03600454169160405192637db1594f60e01b8452853560048501526020860135602485015260ff61169660408801613f5c565b1660448501526116a860608701614522565b6001600160401b039081166064860152806116c560808901614522565b166084860152806116d860a08901614522565b1660a48601526116ea60c08801614522565b1660c485015260e086013563ffffffff8116810361048a57600085938460209663ffffffff82951660e48301528a6117256101008201614536565b61176361018061ffff938480941661010488015261012081013561012488015261014081013561014488015261016081013561016488015201614536565b166101848401526117776101a08d01614536565b166101a48301526102006101c4830152806102048301528061022493848401378181018301849052336101e4830152601f01601f191681010301925af1801561130357611c21575b5060ff6117ce60408401614545565b16600052600a60205260ff6040600020541615611bfb5733600052600c6020526117fe604060002091338361463d565b336000526015602052604060002060208301356000526020526040600020805460ff8116611bd95760019182809262ff000061183c60408901614545565b60101b169062ff00ff19161717815501556004810180549060018201809211611a1e57556011429101556118803361187660408401614545565b6020840135614734565b9061188f6020820135336149e8565b61189b60408201614545565b9160006020830135600052601f60205260406000205491602080526040600020545b831080611bcf575b15611a34576020848101356000818152601e808452604080832088845280865290832054939092529092526001600160a01b0316926119259161190786614725565b95600052602052604060002060018060a01b03198154169055614725565b918060005260156020526040600020602086013560005260205260406000209060ff825416611968575b50506020840135600052602080526040600020546118bd565b6006820154600181018111611a1e57600101600683015580600052600c602052600c6040600020018054600181018111611a1e57600101905580600052600c602052600b6040600020018054600181018111611a1e5760010190556119d1602087013582614ae1565b6119df602087013582614b45565b60066119f0828960208a0135614734565b92015491604051928352602083015260008051602061501f8339815191526040602088013593a3858061194f565b634e487b7160e01b600052601160045260246000fd5b9190506020830135600052601f60205260406000205560ff611a5860408401614545565b169060405190610140840135825260208201526000604082015260208301359060008051602061503f83398151915260603392a4611d7e8034029134159134840414821715611a1e57612710809304926103b68034029034820414841715611a1e57819004906102588034029034820414851715611a1e57819004906101909485340295348704141715611a1e576020940490611b0682611b0183611b0187611b018c34614302565b614302565b9285850135600052601b86526040600020611b228882546143c8565b905533600052600c8652611b82836040600020611b4f8460018060a01b036001840154168b8b0135614d4a565b6002810154611b6c9086906001600160a01b03168a8c0135614e0a565b600301546001600160a01b031687890135614eb0565b611b8e846021546143c8565b60215560405196875285870152604086015260608501526080840152600060a0840152013590600080516020614fff83398151915260c03392a36001602c55005b50600482106118c5565b60405163c45f473d60e01b815260208501356004820152336024820152604490fd5b6024611c0960408401614545565b60ff60405191634a525d1b60e01b8352166004820152fd5b602090813d8311611c45575b611c37818361421f565b8101031261048a57826117bf565b503d611c2d565b6040516335f3c2a160e21b8152600490fd5b5061014084013515611659565b3461048a57600036600319011261048a576000546001600160a01b0390611c959082163314614123565b611ca36001602c541461415c565b6002602c55602154908115611cfc5760207f95334f2d4e98187a454807e6ec3da804af4da5c99357a7398e2cf2505ac88218916000602155611ce9848260015416614476565b6001541692604051908152a26001602c55005b60405162461bcd60e51b815260206004820152600f60248201526e4e6f2070726f6a656374206665657360881b6044820152606490fd5b3461048a57606036600319011261048a57611d4c613f26565b6024356001600160a01b038181169182900361048a576044359281841680940361048a57611d7f82600054163314614123565b168015611e6f578115611e2f578215611def57826060927fd2d452a5df03f60ff9bf0ef1fc3498af992b0b6165c03b2f792cf596ee96530a9460018060a01b03198481600154161760015582816002541617600255600354161760035560405192835260208301526040820152a1005b60405162461bcd60e51b815260206004820152601860248201527713dc195c985d1bdc881dd85b1b195d081c995c5d5a5c995960421b6044820152606490fd5b60405162461bcd60e51b8152602060048201526018602482015277151c99585cdd5c9e481dd85b1b195d081c995c5d5a5c995960421b6044820152606490fd5b60405162461bcd60e51b8152602060048201526017602482015276141c9bda9958dd081dd85b1b195d081c995c5d5a5c9959604a1b6044820152606490fd5b3461048a57604036600319011261048a57611ec7613f26565b611ecf613f3c565b90611ed982614606565b60018060a01b0316600052600d60205260ff60406000209116600052602052602060ff604060002054166040519015158152f35b3461048a57600036600319011261048a576020604051611d7e8152f35b3461048a57602036600319011261048a576001600160a01b03611f4b613f26565b1660005260246020526020604060002054604051908152f35b3461048a57611f723661409c565b9060005260166020526040600020906000526020526040600020805490611098600182015491600281015493600382015491600560048201549101549260405196879660ff808760081c1696169460ff8260a01c169160018060a01b031690896140b2565b3461048a57602036600319011261048a57611ff0613f26565b6000546001600160a01b0391829161200b9083163314614123565b1690811561204f57600780546001600160a01b031981168417909155167f750dce806a7083b5c48405b1310300e4aa4241d21c26cd1348ec6f81324aeb9f600080a3005b60405162461bcd60e51b81526020600482015260136024820152721554d110c81d1bdad95b881c995c5d5a5c9959606a1b6044820152606490fd5b3461048a57604036600319011261048a576120a3613f26565b6120ab613f3c565b9060018060a01b0316600052600d60205260ff604060002091166000526020526101606040600020805490600181015490600281015460038201546004830154600584015490600685015492600786015494600960088801549701549760ff6040519a81811615158c5260081c16151560208b015260408a01526060890152608088015260a087015260c086015260e0850152610100840152610120830152610140820152f35b3461048a57602036600319011261048a5761216b613f26565b600061024060405161217c816141e7565b8281528260208201528260408201528260608201528260808201528260a08201528260c08201528260e08201528261010082015282610120820152826101408201528261016082015282610180820152826101a0820152826101c0820152826101e08201528261020082015282610220820152015260018060a01b0316600052600c6020526102606040600020610240604051612218816141e7565b601183549360ff85161515835260018060a01b038560081c16602084015260018060a01b03600182015416604084015260018060a01b03600282015416606084015260018060a01b036003820154166080840152600481015460a0840152600581015460c0840152600681015460e0840152600781015461010084015260088101546101208401526009810154610140840152600a810154610160840152600b810154610180840152600c8101546101a0840152600d8101546101c0840152600e8101546101e0840152600f810154610200840152601081015461022084015201548282015260ff60405193161515835260018060a01b03602082015116602084015260018060a01b03604082015116604084015260018060a01b03606082015116606084015260018060a01b03608082015116608084015260a081015160a084015260c081015160c084015260e081015160e08401526101008101516101008401526101208101516101208401526101408101516101408401526101608101516101608401526101808101516101808401526101a08101516101a08401526101c08101516101c08401526101e08101516101e08401526102008101516102008401526102208101516102208401520151610240820152f35b3461048a57602036600319011261048a5761240a613f26565b6000546001600160a01b039182916124259083163314614123565b1690811561246957600680546001600160a01b031981168417909155167ffc16b6f7bdf55fb5a2a42edf5c9522543886143cef3f5580a1b008dbfa4a231f600080a3005b60405163d92e233d60e01b8152600490fd5b3461048a57602036600319011261048a5760ff612496613f4c565b1660005260106020526020604060002054604051908152f35b3461048a57602036600319011261048a5760ff6124ca613f4c565b16600052600a602052602060ff604060002054166040519015158152f35b3461048a57602036600319011261048a57600435600052601b6020526020604060002054604051908152f35b3461048a57600036600319011261048a5760206040516113888152f35b3461048a5760208060031936011261048a5760c090600435600052601b815260406000205490601c8152604060002054601a825260406000205460198352604060002054906017845260406000205492601885526040600020549460405196875286015260408501526060840152608083015260a0820152f35b3461048a57600036600319011261048a57602060405160148152f35b3461048a57604036600319011261048a5760606125e2613f26565b6125ea613f3c565b906125f482614606565b60018060a01b03168060005260209060238252604060002054926026835260ff604060002091169081600052835260406000205491600052602783526040600020906000528252604060002054916040519384528301526040820152f35b3461048a57604036600319011261048a5761266b613f4c565b6024359061267761430f565b5061268181614606565b811515806126f3575b156126bf5760ff16600052600e602052604060002090600052602052611098604060002060ff600560405192610fd9846141cb565b60405162461bcd60e51b815260206004820152600c60248201526b125b9d985b1a590818d95b1b60a21b6044820152606490fd5b5060ff8116600052600f602052604060002054821061268a565b3461048a57600036600319011261048a576002546040516001600160a01b039091168152602090f35b3461048a57604036600319011261048a57610160612752613f26565b600061275c613f3c565b6040519061276982614199565b8282528260208301528260408301528260608301528260808301528260a08301528260c08301528260e08301526101009083828401526101209484868501526101409485809501526127ba82614606565b60018060a01b0316600052600d60205260ff60406000209116600052602052604060002093604051916127ec83614199565b600986549660ff88161515855260ff8860081c1615156020860152600181015460408601526002810154606086015260038101546080860152600481015460a0860152600581015460c0860152600681015460e086015260078101548386015260088101548486015201548484015260ff60405196161515865260208301511515602087015260408301516040870152606083015160608701526080830151608087015260a083015160a087015260c083015160c087015260e083015160e087015280830151908601528082015190850152015190820152f35b3461048a5760208060031936011261048a576128e0613f4c565b906128ef6001602c541461415c565b6002602c556128fd82614606565b6007546001600160a01b0390612916908216151561427c565b33600052600d825260ff604060002093169283600052825261294360ff60406000205460081c16156142c4565b336000526026825260406000208360005282526040600020549081156129dd577fcb5b06c056856bb82784094d6a04f2cdd54a8ca5035447b87427f46c8d098131903360005260268452604060002085600052845260006040812055336000526024845260406000206129b7848254614302565b90556129c883338360075416614553565b60075416926040519283523392a46001602c55005b60405162461bcd60e51b815260048101849052600d60248201526c4e6f2055534443207072697a6560981b6044820152606490fd5b3461048a57604036600319011261048a57612a2b613f4c565b60243590612a4460018060a01b03600054163314614123565b612a4d81614606565b8115612a9b57604060ff7f3b7a8420bcf2581fac422a359ff730b951e902c11f27da90a7e97da9c068f9a69216928360005260096020528160002090808254925582519182526020820152a2005b60405162461bcd60e51b81526020600482015260166024820152751554d110c81c1c9a58d9481a5cc81c995c5d5a5c995960521b6044820152606490fd5b3461048a57602036600319011261048a5760043580151580910361048a5760207f59eee9122213289e523d1060fc23bf301e7d369abcb2a33ebf3496c81c614f9b91612b3060018060a01b03600054163314614123565b6006805460ff60a01b191660a083901b60ff60a01b16179055604051908152a1005b3461048a57600036600319011261048a576004546040516001600160a01b039091168152602090f35b3461048a57602036600319011261048a57600435600052601c6020526020604060002054604051908152f35b3461048a57602036600319011261048a57612bc0613f26565b6000546001600160a01b03918291612bdb9083163314614123565b1690811561246957600580546001600160a01b031981168417909155167fae0b527aec7be2a921fb601477f42ce68cfc9122d8c176909c55cd756e30dfd8600080a3005b3461048a57612c2d3661404a565b9190612c3d6001602c541461415c565b6002602c5561016084013515613249576007546040516323b872dd60e01b81529060209082906001600160a01b031681600081612c846101608c013530336004850161425a565b03925af19081156113035760009161321a575b50156132085760018060a01b03600454169160405192637db1594f60e01b8452853560048501526020860135602485015260ff612cd660408801613f5c565b166044850152612ce860608701614522565b6001600160401b03908116606486015280612d0560808901614522565b16608486015280612d1860a08901614522565b1660a4860152612d2a60c08801614522565b1660c485015260e086013563ffffffff811680910361048a576000859384602096819460e48301528a612d606101008201614536565b612d9e61018061ffff938480941661010488015261012081013561012488015261014081013561014488015261016081013561016488015201614536565b16610184840152612db26101a08d01614536565b166101a48301526102006101c4830152806102048301528061022493848401378181018301849052336101e4830152601f01601f191681010301925af18015611303576131dd575b5060ff612e0960408401614545565b16600052600a60205260ff6040600020541615611bfb5733600052600c602052612e39604060002091338361463d565b336000526015602052604060002060208301356000526020526040600020805460ff8116611bd95760019182809262ff0000612e7760408901614545565b60101b169062ff00ff19161717815501556004810180549060018201809211611a1e5755601142910155612eb13361187660408401614545565b90612ec06020820135336149e8565b612ecc60408201614545565b9160006020830135600052601f60205260406000205491602080526040600020545b8310806131d3575b15613031576020848101356000818152601e808452604080832088845280865290832054939092529092526001600160a01b031692612f389161190786614725565b918060005260156020526040600020602086013560005260205260406000209060ff825416612f7b575b5050602084013560005260208052604060002054612eee565b6006820154600181018111611a1e57600101600683015580600052600c602052600c6040600020018054600181018111611a1e57600101905580600052600c602052600b6040600020018054600181018111611a1e576001019055612fe4602087013582614ae1565b612ff2602087013582614b45565b6006613003828960208a0135614734565b92015491604051928352602083015260008051602061501f8339815191526040602088013593a38580612f62565b9190506020830135600052601f60205260406000205560ff61305560408401614545565b169060405190610160840135825260208201526001604082015260208301359060008051602061503f83398151915260603392a4610160810135611d7e81029190611d7d1990830401611a1e5761271091829004906101608101356103b68102906103b51990820401611a1e57839004926101608201356102588102906102571990820401611a1e578190049161016081013561019081029061018f1990820401611a1e57600080516020614fff833981519152936020936131c9920461312d81611b0184611b018c611b018d6101608c0135614302565b9185850135600052601c865260406000206131498982546143c8565b905533600052600c86526131a98260406000206131768c60018060a01b036001840154168b8b0135614cd5565b60028101546131939085906001600160a01b03168a8c0135614db5565b600301546001600160a01b031687890135614e5b565b6131b5836022546143c8565b6022556040519586950135983398866140f8565b0390a36001602c55005b5060048210612ef6565b602090813d8311613201575b6131f3818361421f565b8101031261048a5782612dfa565b503d6131e9565b60405163022e258160e11b8152600490fd5b61323c915060203d602011613242575b613234818361421f565b810190614242565b85612c97565b503d61322a565b6040516304c1050d60e01b8152600490fd5b3461048a57600036600319011261048a5760206040516103b68152f35b3461048a57600036600319011261048a576000546001600160a01b03906132a29082163314614123565b6132b06001602c541461415c565b6002602c558060075416906132c682151561427c565b60225491821561332157826132e5916000602255836001541690614553565b7f6f09a29fa95e6ca2c4c5b55c121d7269faf4d531e64e23d432f03e95bb6caa4760208260075416926001541693604051908152a36001602c55005b60405162461bcd60e51b81526020600482015260146024820152734e6f20555344432070726f6a656374206665657360601b6044820152606490fd5b3461048a57602036600319011261048a5760ff613378613f4c565b1660005260086020526020604060002054604051908152f35b3461048a573660031901610220811261048a576101c01361048a576101c4356001600160401b03811161048a576133cc903690600401613fe4565b6101e4356001600160a01b038116900361048a57610204356001600160a01b038116900361048a576134026001602c541461415c565b6002602c556006546001600160a01b03163303613a7b576101e4356001600160a01b031615612469576101643515613249576007546040516323b872dd60e01b81529060209082906001600160a01b0316816000816134696101643530336004850161425a565b03925af190811561130357600091613a5c575b50156132085760018060a01b03600454169160405192637db1594f60e01b84526004356004850152602435602485015260ff604435166044350361048a576044803560ff16908501526001600160401b036064359081169081900361048a5760648501526084356001600160401b0381169081900361048a57608485015260a4356001600160401b0381169081900361048a5760a485015260c4356001600160401b0381169081900361048a5760c485015260e43563ffffffff811680910361048a5760e48501526101043561ffff8116810361048a5761ffff166101048501526101248035908501526101448035908501526101643561016485015261018480359061ffff821680920361048a578501526101a43561ffff8116810361048a57600085938460209661ffff8295166101a48301526102006101c48301528061020483015280610224938484013781810183018490526101e480356001600160a01b031690830152601f01601f191681010301925af1801561130357613a31575b5060ff60443516600052600a60205260ff6040600020541615613a145760018060a01b036101e43516600052600c6020526040600020613644610204356101e4358361463d565b60018060a01b036101e43516600052601560205260406000206024356000526020526040600020805460ff81166139e85760019182809262ff000060443560101b169062ff00ff19161717815501556004810154600181018111611a1e5760010160048201556011429101556136c26101e435604435602435614734565b6136d16024356101e4356149e8565b6000602435600052601f60205260406000205490602080526040600020545b8210806139de575b1561384c5760243560005261375d601e918260205260406000208460005260205260018060a01b036040600020541692602435600052602052604060002061373f85614725565b94600052602052604060002060018060a01b03198154169055614725565b90806000526015602052604060002060243560005260205260406000209060ff82541661379c575b5050602435600052602080526040600020546136f0565b6006820154600181018111611a1e57600101600683015580600052600c602052600c6040600020018054600181018111611a1e57600101905580600052600c602052600b6040600020018054600181018111611a1e57600101905561380360243582614ae1565b61380f60243582614b45565b600661382082604435602435614734565b92015491604051928352602083015260008051602061501f833981519152604060243593a38380613785565b50602435600052601f6020526040600020556040519061016435825260208201526001604082015260ff60443516906024359060008051602061503f833981519152606060018060a01b036101e4351692a4611d7e8061016435029061016435820403611a1e576127108091046103b68061016435029061016435820403611a1e57829004916102588061016435029061016435820403611a1e57819004610190918261016435029261016435840403611a1e57600080516020614fff8339815191529204906131c961392e83611b0184611b018a611b018b61016435614302565b602435600052601c60205260406000206139498782546143c8565b905560018060a01b036101e43516600052600c6020526139b28460406000206139818a60018060a01b03600184015416602435614cd5565b600281015461399d9087906001600160a01b0316602435614db5565b600301546001600160a01b0316602435614e5b565b6139be816022546143c8565b6022556040519384936024359860018060a01b036101e4351698866140f8565b50600481106136f8565b60405163c45f473d60e01b81526024803560048301526101e4356001600160a01b031690820152604490fd5b604051634a525d1b60e01b815260443560ff166004820152602490fd5b602090813d8311613a55575b613a47818361421f565b8101031261048a57806135fd565b503d613a3d565b613a75915060203d60201161324257613234818361421f565b8361347c565b60405162461bcd60e51b81526020600482015260156024820152744f6e6c79204261736520506179206761746577617960581b6044820152606490fd5b3461048a57604036600319011261048a576001600160a01b03613ad9613f26565b16600052601560205260406000206024356000526020526101c060406000208054906001810154906002810154600382015460048301546005840154600685015490600786015492600887015494600988015496600b600a8a01549901549960ff6040519c8d828216151590528d6020838360081c16151591015260101c1660408d015260608c015260808b015260a08a015260c089015260e08801526101008701526101208601526101408501526101608401526101808301526101a0820152f35b3461048a5760208060031936011261048a5760ff613bb8613f4c565b613bc181614606565b16600052601281526040600020546013825261109860406000205492601481526040600020549060108152600f60406000205491526040600020549160405195869586613f87565b3461048a57600036600319011261048a5760206040516127108152f35b3461048a5760208060031936011261048a5760ff613c42613f4c565b613c4b81614606565b16600052601181526040600020546013825261109860406000205492601481526040600020549060108152600f60406000205491526040600020549160405195869586613f87565b3461048a57600036600319011261048a57613cb26001602c541461415c565b6002602c5533600052600c602052600d604060002001548015613d1f5733600052600c6020526000600d604082200155613cec8133614476565b6040519081527f53473e2a2e0cc6840d80567f104277ea6daa0891e5316836bac38a686b79ea3360203392a26001602c55005b60405162461bcd60e51b81526020600482015260116024820152704e6f20726566657272616c20626f6e757360781b6044820152606490fd5b3461048a57600036600319011261048a57602060405160118152f35b3461048a57600036600319011261048a576020602154604051908152f35b3461048a57602036600319011261048a57613dab613f26565b6000546001600160a01b03918291613dc69083163314614123565b1690811561246957600480546001600160a01b031981168417909155167f57b8ff42eaa81bfce68c6ad04d5bf2c7ebca554a63b0ece2bb301a0b2eff716d600080a3005b3461048a57600036600319011261048a576007546040516001600160a01b039091168152602090f35b3461048a57604036600319011261048a57613e4c613f26565b613e54613f3c565b90613e5e82614606565b60018060a01b0316600052600d60205260ff60406000209116600052602052602060ff60406000205460081c166040519015158152f35b3461048a57602036600319011261048a5760ff613eb0613f4c565b1660005260096020526020604060002054604051908152f35b3461048a57604036600319011261048a57613ee2613f26565b613eea613f3c565b90613ef482614606565b60018060a01b0316600052600d60205260ff604060002091166000526020526020600760406000200154604051908152f35b600435906001600160a01b038216820361048a57565b6024359060ff8216820361048a57565b6004359060ff8216820361048a57565b359060ff8216820361048a57565b3461048a57600036600319011261048a5760206040516107d08152f35b9192608093969594919660a084019784526020840152604083015260608201520152565b3461048a57600036600319011261048a5760206040516101f48152f35b3461048a57600036600319011261048a57602060405160648152f35b9181601f8401121561048a578235916001600160401b03831161048a576020838186019501011161048a57565b3461048a57600036600319011261048a57602060405160328152f35b3461048a57600036600319011261048a5760206040516103e88152f35b906003198201610200811261048a576101c01361048a576004916101c435906001600160401b03821161048a5761408391600401613fe4565b90916101e4356001600160a01b038116810361048a5790565b604090600319011261048a576004359060243590565b9693909897949160e0969360ff916101008a019b8a5260018060a01b031660208a01521660408801526060870152608086015260a0850152151560c08401521515910152565b919360a0936001959796929760c0850198855260208501526040840152606083015260808201520152565b1561412a57565b60405162461bcd60e51b815260206004820152600a60248201526927b7363c9037bbb732b960b11b6044820152606490fd5b1561416357565b60405162461bcd60e51b815260206004820152600e60248201526d1499595b9d1c985b9d0818d85b1b60921b6044820152606490fd5b61016081019081106001600160401b038211176141b557604052565b634e487b7160e01b600052604160045260246000fd5b61010081019081106001600160401b038211176141b557604052565b61026081019081106001600160401b038211176141b557604052565b6101c081019081106001600160401b038211176141b557604052565b601f909101601f19168101906001600160401b038211908210176141b557604052565b9081602091031261048a5751801515810361048a5790565b6001600160a01b03918216815291166020820152604081019190915260600190565b1561428357565b60405162461bcd60e51b81526020600482015260196024820152781554d110c81d1bdad95b881b9bdd0818dbdb999a59dd5c9959603a1b6044820152606490fd5b156142cb57565b60405162461bcd60e51b815260206004820152600f60248201526e2632bb32b61034b990333937bd32b760891b6044820152606490fd5b91908203918211611a1e57565b6040519061431c826141cb565b8160e06000918281528260208201528260408201528260608201528260808201528260a08201528260c08201520152565b9060ff9061435a81614606565b16600090808252601360205260408220549283156143c15760018060a01b03168252600d60205260408220908252602052600760408220015490612710918281029281840414901517156143ad57500490565b634e487b7160e01b81526011600452602490fd5b5050905090565b91908201809211611a1e57565b91906143e081614606565b60009260018060a01b03168352600d60205260ff6040842091168352602052600260408320015491821561446957600e602052604081208382526020526040812080546002820154946003830154916004840154915b600180821115614451571c9461444b90614725565b94614436565b50509194909392600560ff9101541691959493929190565b8092509180918180918190565b811561451e57600080808094819460018060a01b03165af1903d15614518573d906001600160401b03821161450457604051916144bd601f8201601f19166020018461421f565b825260203d92013e5b156144cd57565b60405162461bcd60e51b815260206004820152600f60248201526e151c985b9cd9995c8819985a5b1959608a1b6044820152606490fd5b634e487b7160e01b81526041600452602490fd5b506144c6565b5050565b35906001600160401b038216820361048a57565b359061ffff8216820361048a57565b3560ff8116810361048a5790565b82156146015760405163a9059cbb60e01b81526001600160a01b039283166004820152602481019390935260209183916044918391600091165af1908115611303576000916145e2575b50156145a557565b60405162461bcd60e51b8152602060048201526015602482015274151bdad95b881d1c985b9cd9995c8819985a5b1959605a1b6044820152606490fd5b6145fb915060203d60201161324257613234818361421f565b3861459d565b505050565b60ff16600181108015614633575b61461b5750565b60249060405190633d98c85560e21b82526004820152fd5b5060118111614614565b91825460ff811661471f576001600160a81b031916600883901b610100600160a81b03161760011783554260108401556001600160a01b039081169182151590829082614712575b5050806146fa575b61469657505050565b6003600184019260018060a01b03199381858254161790556000908152600c602052828060016040842001541660028701818782541617905580156000146146e8575050935b01921690825416179055565b825260409091206001015416936146dc565b5081600052600c60205260ff6040600020541661468d565b1683141590508138614685565b50505050565b6000198114611a1e5760010190565b929091600093808552601793602060178152604093848820948554156149df575b85549561476187614725565b905585986001988988146000146149d65781935b878352601691601687528484208a85528752848420918a83558c830160018060a01b03809216998a82549160ff60a01b9060a01b169160018060a81b03191617179055866002840155600580930161ff00198154169055888552601588528585208a865288528660038787208d60028201550155601988528c86862080549182018092116149c25755866148cd575b5088845260188752848420549b8c156148c5575b929190835b614877575b5050505081869798997f19a57ce1df8ff5b43fd57ebc398733d14bbb0da3e683f28c5b0e32955d8d19c8969783526017865281832054811060001461487057915b60188652205551908152a4565b5081614863565b9091929b898552818852858520548110806148ab575b156148a55761489b90614725565b9b9291908361481d565b9b614822565b50838852858520818652885260ff8387872001541661488d565b9b508b614818565b8985526016885285852087865288528c8686208c600382018054156000146149105755015416845260158752848420898552875289600486862001555b38614804565b50509050600481018054156000146149a557908c8f9255600581018260ff1982541617905501818154168652601589528686208b875289528b6005888820015554168780528585205490601e895286862082875289528686209060018060a01b03198254161790558c8101809111614991578985528780528585205561490a565b634e487b7160e01b85526011600452602485fd5b60448c8a8a5191630cc237c760e31b835260048301526024820152fd5b634e487b7160e01b87526011600452602487fd5b878a1c93614775565b60018655614755565b6001600160a01b0316600081815260156020908152604080832085845282528083205460ff1615614ada57838352601d8252808320858452825280832084845260158352818420868552835281842090805494614a536007614a4988614f30565b9401938454614f01565b918215614acf5784614ac492600a92614a8d867f9de12b3d7a04eb259125d6f36a27a748d7ce92411cdf21da63e0e0394dfeea169b6143c8565b9055614a9a8587546143c8565b86558a8152601a8852818120614ab18682546143c8565b9055898152600c885220019182546143c8565b9055549051908152a3565b505050505050505050565b5050505050565b6001600160a01b0316600081815260156020908152604080832085845282528083205460ff1615614ada57838352601d8252808320858452825280832084845260158352818420868552835260038285209101805494614a536007614a4988614f60565b6001600160a01b0316600081815260156020908152604080832085845282528083205460ff1615614ada57838352601d8252808320858452825280832084845260158352818420868552835260048285209101805494614a536007614a4988614f89565b6001600160a01b0316600081815260156020908152604080832085845282528083205460ff1615614ada57838352601d8252808320858452825280832084845260158352818420868552835260018285209101805494614a536007614a4988614fb2565b6001600160a01b0316600081815260156020908152604080832085845282528083205460ff1615614ada57838352601d8252808320858452825280832084845260158352818420868552835260018285209101805494614a536007614a4988614f60565b6001600160a01b0316600081815260156020908152604080832085845282528083205460ff1615614ada57838352601d8252808320858452825280832084845260158352818420868552835260018285209101805494614a536007614a4988614fd5565b906001600160a01b03811680158015614d31575b614d135792614d11936000526023602052614d0a60406000209182546143c8565b9055614ba9565b565b5050600052601c602052614d2d60406000209182546143c8565b9055565b5080600052600c60205260ff6040600020541615614ce9565b906001600160a01b03811680158015614d9c575b614d825792614d1193600052600c602052614d0a600d6040600020019182546143c8565b5050600052601b602052614d2d60406000209182546143c8565b5080600052600c60205260ff6040600020541615614d5e565b906001600160a01b03811680158015614df1575b614d135792614d11936000526023602052614dea60406000209182546143c8565b9055614c0d565b5080600052600c60205260ff6040600020541615614dc9565b906001600160a01b03811680158015614e42575b614d825792614d1193600052600c602052614dea600d6040600020019182546143c8565b5080600052600c60205260ff6040600020541615614e1e565b906001600160a01b03811680158015614e97575b614d135792614d11936000526023602052614e9060406000209182546143c8565b9055614c71565b5080600052600c60205260ff6040600020541615614e6f565b906001600160a01b03811680158015614ee8575b614d825792614d1193600052600c602052614e90600d6040600020019182546143c8565b5080600052600c60205260ff6040600020541615614ec4565b906113889182811015614f28578203918211611a1e5781811115614f23575090565b905090565b505050600090565b6103e89081811015614f59578103908111611a1e5780606411600014614f535790565b50606490565b5050600090565b6107d09081811015614f59578103908111611a1e5780603211600014614f835790565b50603290565b6101f49081811015614f59578103908111611a1e5780600a11600014614fac5790565b50600a90565b6107d09081811015614f59578103908111611a1e5780606411600014614f535790565b6107d09081811015614f59578103908111611a1e5780601911600014614ff85790565b5060199056fec5a523fad910d10f2e95e81baa27487ab1f8867069e11e28424fff2c49ec980de71a25c367057ba6c32bea73ffe6eac519023fe04617b003d4ddc2781cb847cf9e2bd5f99a08e89f06d56896c56146aa32e257d0942bbd7c9b9748a26fd9d4e2a2646970667358221220c226e9b6d508b2d604d8f6e40715089fa87bc1670c46d2f327b78fd3022fff0e64736f6c63430008180033",
  "linkReferences": {},
  "deployedLinkReferences": {}
}