{
  "_format": "hh-sol-artifact-1",
  "contractName": "EasyGameRoundManager",
  "sourceName": "contracts/EasyGameRoundManager.sol",
  "abi": [
    {
      "inputs": [
        {
          "internalType": "address",
          "name": "scheduleSigner_",
          "type": "address"
        }
      ],
      "stateMutability": "nonpayable",
      "type": "constructor"
    },
    {
      "inputs": [],
      "name": "ArenaSkillsNotConfigured",
      "type": "error"
    },
    {
      "inputs": [
        {
          "internalType": "uint16",
          "name": "expected",
          "type": "uint16"
        },
        {
          "internalType": "uint16",
          "name": "actual",
          "type": "uint16"
        }
      ],
      "name": "InvalidFreezeLimit",
      "type": "error"
    },
    {
      "inputs": [
        {
          "internalType": "uint8",
          "name": "level",
          "type": "uint8"
        }
      ],
      "name": "InvalidLevel",
      "type": "error"
    },
    {
      "inputs": [
        {
          "internalType": "uint16",
          "name": "version",
          "type": "uint16"
        }
      ],
      "name": "InvalidPaymentSplitVersion",
      "type": "error"
    },
    {
      "inputs": [
        {
          "internalType": "uint8",
          "name": "requiredLevel",
          "type": "uint8"
        },
        {
          "internalType": "uint8",
          "name": "requestedLevel",
          "type": "uint8"
        }
      ],
      "name": "InvalidPlayerLevelProgression",
      "type": "error"
    },
    {
      "inputs": [],
      "name": "InvalidRoundCapacity",
      "type": "error"
    },
    {
      "inputs": [
        {
          "internalType": "uint256",
          "name": "roundId",
          "type": "uint256"
        }
      ],
      "name": "InvalidRoundId",
      "type": "error"
    },
    {
      "inputs": [],
      "name": "InvalidRoundPrice",
      "type": "error"
    },
    {
      "inputs": [],
      "name": "InvalidRoundTimeRange",
      "type": "error"
    },
    {
      "inputs": [],
      "name": "InvalidScheduleSignature",
      "type": "error"
    },
    {
      "inputs": [
        {
          "internalType": "uint256",
          "name": "length",
          "type": "uint256"
        }
      ],
      "name": "InvalidSignatureLength",
      "type": "error"
    },
    {
      "inputs": [],
      "name": "InvalidSignatureS",
      "type": "error"
    },
    {
      "inputs": [
        {
          "internalType": "uint8",
          "name": "v",
          "type": "uint8"
        }
      ],
      "name": "InvalidSignatureV",
      "type": "error"
    },
    {
      "inputs": [
        {
          "internalType": "uint256",
          "name": "seasonId",
          "type": "uint256"
        },
        {
          "internalType": "uint8",
          "name": "lowerLevel",
          "type": "uint8"
        },
        {
          "internalType": "uint8",
          "name": "upperLevel",
          "type": "uint8"
        }
      ],
      "name": "LevelOpeningIntervalTooShort",
      "type": "error"
    },
    {
      "inputs": [
        {
          "internalType": "uint256",
          "name": "roundId",
          "type": "uint256"
        },
        {
          "internalType": "address",
          "name": "player",
          "type": "address"
        }
      ],
      "name": "PlayerProgressionFrozen",
      "type": "error"
    },
    {
      "inputs": [
        {
          "internalType": "address",
          "name": "inviter",
          "type": "address"
        },
        {
          "internalType": "uint32",
          "name": "used",
          "type": "uint32"
        },
        {
          "internalType": "uint32",
          "name": "capacity",
          "type": "uint32"
        }
      ],
      "name": "ReferralCapacityReached",
      "type": "error"
    },
    {
      "inputs": [
        {
          "internalType": "address",
          "name": "inviter",
          "type": "address"
        },
        {
          "internalType": "uint256",
          "name": "seasonId",
          "type": "uint256"
        }
      ],
      "name": "ReferralInviterNotActive",
      "type": "error"
    },
    {
      "inputs": [
        {
          "internalType": "uint256",
          "name": "roundId",
          "type": "uint256"
        }
      ],
      "name": "RoundAlreadySettled",
      "type": "error"
    },
    {
      "inputs": [
        {
          "internalType": "uint256",
          "name": "roundId",
          "type": "uint256"
        }
      ],
      "name": "RoundConfigMismatch",
      "type": "error"
    },
    {
      "inputs": [
        {
          "internalType": "uint256",
          "name": "roundId",
          "type": "uint256"
        },
        {
          "internalType": "address",
          "name": "player",
          "type": "address"
        }
      ],
      "name": "RoundEntryAlreadyRegistered",
      "type": "error"
    },
    {
      "inputs": [
        {
          "internalType": "uint256",
          "name": "roundId",
          "type": "uint256"
        }
      ],
      "name": "RoundNotInitialized",
      "type": "error"
    },
    {
      "inputs": [
        {
          "internalType": "uint256",
          "name": "roundId",
          "type": "uint256"
        }
      ],
      "name": "RoundNotStarted",
      "type": "error"
    },
    {
      "inputs": [
        {
          "internalType": "uint256",
          "name": "seasonId",
          "type": "uint256"
        },
        {
          "internalType": "uint8",
          "name": "level",
          "type": "uint8"
        }
      ],
      "name": "SeasonLevelAlreadyConfigured",
      "type": "error"
    },
    {
      "inputs": [],
      "name": "ZeroAddress",
      "type": "error"
    },
    {
      "anonymous": false,
      "inputs": [
        {
          "indexed": true,
          "internalType": "address",
          "name": "oldSkills",
          "type": "address"
        },
        {
          "indexed": true,
          "internalType": "address",
          "name": "newSkills",
          "type": "address"
        }
      ],
      "name": "ArenaSkillsChanged",
      "type": "event"
    },
    {
      "anonymous": false,
      "inputs": [
        {
          "indexed": true,
          "internalType": "uint256",
          "name": "seasonId",
          "type": "uint256"
        },
        {
          "indexed": true,
          "internalType": "address",
          "name": "inviter",
          "type": "address"
        },
        {
          "indexed": true,
          "internalType": "address",
          "name": "invitee",
          "type": "address"
        },
        {
          "indexed": false,
          "internalType": "uint32",
          "name": "used",
          "type": "uint32"
        },
        {
          "indexed": false,
          "internalType": "uint32",
          "name": "capacity",
          "type": "uint32"
        }
      ],
      "name": "DirectInviteRegistered",
      "type": "event"
    },
    {
      "anonymous": false,
      "inputs": [
        {
          "indexed": true,
          "internalType": "address",
          "name": "oldCore",
          "type": "address"
        },
        {
          "indexed": true,
          "internalType": "address",
          "name": "newCore",
          "type": "address"
        }
      ],
      "name": "GameCoreChanged",
      "type": "event"
    },
    {
      "anonymous": false,
      "inputs": [
        {
          "indexed": true,
          "internalType": "address",
          "name": "previousOwner",
          "type": "address"
        },
        {
          "indexed": true,
          "internalType": "address",
          "name": "newOwner",
          "type": "address"
        }
      ],
      "name": "OwnershipTransferred",
      "type": "event"
    },
    {
      "anonymous": false,
      "inputs": [
        {
          "indexed": true,
          "internalType": "uint256",
          "name": "seasonId",
          "type": "uint256"
        },
        {
          "indexed": true,
          "internalType": "address",
          "name": "player",
          "type": "address"
        },
        {
          "indexed": false,
          "internalType": "uint8",
          "name": "level",
          "type": "uint8"
        },
        {
          "indexed": false,
          "internalType": "uint16",
          "name": "activatedLevels",
          "type": "uint16"
        }
      ],
      "name": "PlayerSeasonAdvanced",
      "type": "event"
    },
    {
      "anonymous": false,
      "inputs": [
        {
          "indexed": true,
          "internalType": "uint256",
          "name": "seasonId",
          "type": "uint256"
        },
        {
          "indexed": true,
          "internalType": "address",
          "name": "player",
          "type": "address"
        },
        {
          "indexed": false,
          "internalType": "uint8",
          "name": "startLevel",
          "type": "uint8"
        }
      ],
      "name": "PlayerSeasonStarted",
      "type": "event"
    },
    {
      "anonymous": false,
      "inputs": [
        {
          "indexed": true,
          "internalType": "uint256",
          "name": "roundId",
          "type": "uint256"
        }
      ],
      "name": "RoundCancelled",
      "type": "event"
    },
    {
      "anonymous": false,
      "inputs": [
        {
          "indexed": true,
          "internalType": "uint256",
          "name": "roundId",
          "type": "uint256"
        },
        {
          "indexed": true,
          "internalType": "address",
          "name": "player",
          "type": "address"
        },
        {
          "indexed": false,
          "internalType": "uint32",
          "name": "occupiedCells",
          "type": "uint32"
        }
      ],
      "name": "RoundEntryRegistered",
      "type": "event"
    },
    {
      "anonymous": false,
      "inputs": [
        {
          "indexed": true,
          "internalType": "uint256",
          "name": "seasonId",
          "type": "uint256"
        },
        {
          "indexed": true,
          "internalType": "uint256",
          "name": "roundId",
          "type": "uint256"
        },
        {
          "indexed": true,
          "internalType": "uint8",
          "name": "level",
          "type": "uint8"
        },
        {
          "indexed": false,
          "internalType": "bytes32",
          "name": "configHash",
          "type": "bytes32"
        },
        {
          "indexed": false,
          "internalType": "uint64",
          "name": "startsAt",
          "type": "uint64"
        },
        {
          "indexed": false,
          "internalType": "uint64",
          "name": "entriesCloseAt",
          "type": "uint64"
        },
        {
          "indexed": false,
          "internalType": "uint64",
          "name": "endsAt",
          "type": "uint64"
        }
      ],
      "name": "RoundInitialized",
      "type": "event"
    },
    {
      "anonymous": false,
      "inputs": [
        {
          "indexed": true,
          "internalType": "uint256",
          "name": "roundId",
          "type": "uint256"
        },
        {
          "indexed": false,
          "internalType": "bool",
          "name": "paused",
          "type": "bool"
        }
      ],
      "name": "RoundPauseChanged",
      "type": "event"
    },
    {
      "anonymous": false,
      "inputs": [
        {
          "indexed": true,
          "internalType": "uint256",
          "name": "roundId",
          "type": "uint256"
        },
        {
          "indexed": false,
          "internalType": "uint16",
          "name": "winnersRegistered",
          "type": "uint16"
        }
      ],
      "name": "RoundSettled",
      "type": "event"
    },
    {
      "anonymous": false,
      "inputs": [
        {
          "indexed": true,
          "internalType": "address",
          "name": "oldSigner",
          "type": "address"
        },
        {
          "indexed": true,
          "internalType": "address",
          "name": "newSigner",
          "type": "address"
        }
      ],
      "name": "ScheduleSignerChanged",
      "type": "event"
    },
    {
      "anonymous": false,
      "inputs": [
        {
          "indexed": true,
          "internalType": "address",
          "name": "signer",
          "type": "address"
        },
        {
          "indexed": false,
          "internalType": "bool",
          "name": "allowed",
          "type": "bool"
        }
      ],
      "name": "ScheduleSignerPermissionChanged",
      "type": "event"
    },
    {
      "anonymous": false,
      "inputs": [
        {
          "indexed": true,
          "internalType": "address",
          "name": "oldSettlement",
          "type": "address"
        },
        {
          "indexed": true,
          "internalType": "address",
          "name": "newSettlement",
          "type": "address"
        }
      ],
      "name": "SettlementContractChanged",
      "type": "event"
    },
    {
      "inputs": [],
      "name": "CURRENT_PAYMENT_SPLIT_VERSION",
      "outputs": [
        {
          "internalType": "uint16",
          "name": "",
          "type": "uint16"
        }
      ],
      "stateMutability": "view",
      "type": "function"
    },
    {
      "inputs": [],
      "name": "DIRECT_INVITES_PER_LEVEL",
      "outputs": [
        {
          "internalType": "uint32",
          "name": "",
          "type": "uint32"
        }
      ],
      "stateMutability": "view",
      "type": "function"
    },
    {
      "inputs": [],
      "name": "MAX_ETH_PRICE",
      "outputs": [
        {
          "internalType": "uint256",
          "name": "",
          "type": "uint256"
        }
      ],
      "stateMutability": "view",
      "type": "function"
    },
    {
      "inputs": [],
      "name": "MAX_PLAYERS_PER_ROUND",
      "outputs": [
        {
          "internalType": "uint32",
          "name": "",
          "type": "uint32"
        }
      ],
      "stateMutability": "view",
      "type": "function"
    },
    {
      "inputs": [],
      "name": "MAX_USDC_PRICE",
      "outputs": [
        {
          "internalType": "uint256",
          "name": "",
          "type": "uint256"
        }
      ],
      "stateMutability": "view",
      "type": "function"
    },
    {
      "inputs": [],
      "name": "MAX_WINNERS_PER_ROUND",
      "outputs": [
        {
          "internalType": "uint16",
          "name": "",
          "type": "uint16"
        }
      ],
      "stateMutability": "view",
      "type": "function"
    },
    {
      "inputs": [],
      "name": "MIN_LEVEL_OPEN_INTERVAL",
      "outputs": [
        {
          "internalType": "uint64",
          "name": "",
          "type": "uint64"
        }
      ],
      "stateMutability": "view",
      "type": "function"
    },
    {
      "inputs": [],
      "name": "MIN_ROUND_DURATION",
      "outputs": [
        {
          "internalType": "uint64",
          "name": "",
          "type": "uint64"
        }
      ],
      "stateMutability": "view",
      "type": "function"
    },
    {
      "inputs": [],
      "name": "ROUND_CONFIG_TYPEHASH",
      "outputs": [
        {
          "internalType": "bytes32",
          "name": "",
          "type": "bytes32"
        }
      ],
      "stateMutability": "view",
      "type": "function"
    },
    {
      "inputs": [
        {
          "internalType": "uint8",
          "name": "",
          "type": "uint8"
        }
      ],
      "name": "activeRoundByLevel",
      "outputs": [
        {
          "internalType": "uint256",
          "name": "",
          "type": "uint256"
        }
      ],
      "stateMutability": "view",
      "type": "function"
    },
    {
      "inputs": [
        {
          "internalType": "address",
          "name": "",
          "type": "address"
        }
      ],
      "name": "allowedScheduleSigners",
      "outputs": [
        {
          "internalType": "bool",
          "name": "",
          "type": "bool"
        }
      ],
      "stateMutability": "view",
      "type": "function"
    },
    {
      "inputs": [],
      "name": "arenaSkills",
      "outputs": [
        {
          "internalType": "address",
          "name": "",
          "type": "address"
        }
      ],
      "stateMutability": "view",
      "type": "function"
    },
    {
      "inputs": [
        {
          "internalType": "uint256",
          "name": "roundId",
          "type": "uint256"
        }
      ],
      "name": "cancelRound",
      "outputs": [],
      "stateMutability": "nonpayable",
      "type": "function"
    },
    {
      "inputs": [
        {
          "internalType": "uint256",
          "name": "",
          "type": "uint256"
        },
        {
          "internalType": "address",
          "name": "",
          "type": "address"
        },
        {
          "internalType": "address",
          "name": "",
          "type": "address"
        }
      ],
      "name": "directInviteRegistered",
      "outputs": [
        {
          "internalType": "bool",
          "name": "",
          "type": "bool"
        }
      ],
      "stateMutability": "view",
      "type": "function"
    },
    {
      "inputs": [],
      "name": "domainSeparator",
      "outputs": [
        {
          "internalType": "bytes32",
          "name": "",
          "type": "bytes32"
        }
      ],
      "stateMutability": "view",
      "type": "function"
    },
    {
      "inputs": [],
      "name": "gameCore",
      "outputs": [
        {
          "internalType": "address",
          "name": "",
          "type": "address"
        }
      ],
      "stateMutability": "view",
      "type": "function"
    },
    {
      "inputs": [
        {
          "internalType": "uint256",
          "name": "seasonId",
          "type": "uint256"
        },
        {
          "internalType": "uint8",
          "name": "level",
          "type": "uint8"
        },
        {
          "internalType": "address",
          "name": "player",
          "type": "address"
        }
      ],
      "name": "getEntryEligibility",
      "outputs": [
        {
          "internalType": "uint8",
          "name": "reason",
          "type": "uint8"
        },
        {
          "internalType": "uint8",
          "name": "requiredLevel",
          "type": "uint8"
        },
        {
          "internalType": "uint256",
          "name": "blockingRoundId",
          "type": "uint256"
        }
      ],
      "stateMutability": "view",
      "type": "function"
    },
    {
      "inputs": [
        {
          "internalType": "uint256",
          "name": "seasonId",
          "type": "uint256"
        },
        {
          "internalType": "address",
          "name": "player",
          "type": "address"
        }
      ],
      "name": "getPlayerSeasonProgress",
      "outputs": [
        {
          "internalType": "bool",
          "name": "started",
          "type": "bool"
        },
        {
          "internalType": "uint8",
          "name": "startLevel",
          "type": "uint8"
        },
        {
          "internalType": "uint8",
          "name": "highestLevel",
          "type": "uint8"
        },
        {
          "internalType": "uint16",
          "name": "activatedLevels",
          "type": "uint16"
        },
        {
          "internalType": "uint32",
          "name": "directInvites",
          "type": "uint32"
        },
        {
          "internalType": "uint32",
          "name": "inviteCapacity",
          "type": "uint32"
        }
      ],
      "stateMutability": "view",
      "type": "function"
    },
    {
      "inputs": [
        {
          "internalType": "uint256",
          "name": "roundId",
          "type": "uint256"
        }
      ],
      "name": "getRoundConfig",
      "outputs": [
        {
          "components": [
            {
              "internalType": "uint256",
              "name": "seasonId",
              "type": "uint256"
            },
            {
              "internalType": "uint256",
              "name": "roundId",
              "type": "uint256"
            },
            {
              "internalType": "uint8",
              "name": "level",
              "type": "uint8"
            },
            {
              "internalType": "uint64",
              "name": "startsAt",
              "type": "uint64"
            },
            {
              "internalType": "uint64",
              "name": "entriesCloseAt",
              "type": "uint64"
            },
            {
              "internalType": "uint64",
              "name": "endsAt",
              "type": "uint64"
            },
            {
              "internalType": "uint64",
              "name": "freezeClosesAt",
              "type": "uint64"
            },
            {
              "internalType": "uint32",
              "name": "maxPlayers",
              "type": "uint32"
            },
            {
              "internalType": "uint16",
              "name": "maxWinners",
              "type": "uint16"
            },
            {
              "internalType": "bytes32",
              "name": "winningCellsRoot",
              "type": "bytes32"
            },
            {
              "internalType": "uint256",
              "name": "ethPrice",
              "type": "uint256"
            },
            {
              "internalType": "uint256",
              "name": "usdcPrice",
              "type": "uint256"
            },
            {
              "internalType": "uint16",
              "name": "freezeLimit",
              "type": "uint16"
            },
            {
              "internalType": "uint16",
              "name": "paymentSplitVersion",
              "type": "uint16"
            }
          ],
          "internalType": "struct RoundConfig",
          "name": "",
          "type": "tuple"
        }
      ],
      "stateMutability": "view",
      "type": "function"
    },
    {
      "inputs": [
        {
          "internalType": "uint256",
          "name": "roundId",
          "type": "uint256"
        }
      ],
      "name": "getRoundPhase",
      "outputs": [
        {
          "internalType": "enum RoundPhase",
          "name": "",
          "type": "uint8"
        }
      ],
      "stateMutability": "view",
      "type": "function"
    },
    {
      "inputs": [
        {
          "internalType": "uint256",
          "name": "roundId",
          "type": "uint256"
        }
      ],
      "name": "getRoundState",
      "outputs": [
        {
          "components": [
            {
              "internalType": "bytes32",
              "name": "configHash",
              "type": "bytes32"
            },
            {
              "internalType": "uint64",
              "name": "initializedAt",
              "type": "uint64"
            },
            {
              "internalType": "uint32",
              "name": "occupiedCells",
              "type": "uint32"
            },
            {
              "internalType": "uint16",
              "name": "winnersRegistered",
              "type": "uint16"
            },
            {
              "internalType": "bool",
              "name": "initialized",
              "type": "bool"
            },
            {
              "internalType": "bool",
              "name": "settled",
              "type": "bool"
            },
            {
              "internalType": "bool",
              "name": "cancelled",
              "type": "bool"
            },
            {
              "internalType": "bool",
              "name": "paused",
              "type": "bool"
            }
          ],
          "internalType": "struct RoundState",
          "name": "",
          "type": "tuple"
        }
      ],
      "stateMutability": "view",
      "type": "function"
    },
    {
      "inputs": [
        {
          "components": [
            {
              "internalType": "uint256",
              "name": "seasonId",
              "type": "uint256"
            },
            {
              "internalType": "uint256",
              "name": "roundId",
              "type": "uint256"
            },
            {
              "internalType": "uint8",
              "name": "level",
              "type": "uint8"
            },
            {
              "internalType": "uint64",
              "name": "startsAt",
              "type": "uint64"
            },
            {
              "internalType": "uint64",
              "name": "entriesCloseAt",
              "type": "uint64"
            },
            {
              "internalType": "uint64",
              "name": "endsAt",
              "type": "uint64"
            },
            {
              "internalType": "uint64",
              "name": "freezeClosesAt",
              "type": "uint64"
            },
            {
              "internalType": "uint32",
              "name": "maxPlayers",
              "type": "uint32"
            },
            {
              "internalType": "uint16",
              "name": "maxWinners",
              "type": "uint16"
            },
            {
              "internalType": "bytes32",
              "name": "winningCellsRoot",
              "type": "bytes32"
            },
            {
              "internalType": "uint256",
              "name": "ethPrice",
              "type": "uint256"
            },
            {
              "internalType": "uint256",
              "name": "usdcPrice",
              "type": "uint256"
            },
            {
              "internalType": "uint16",
              "name": "freezeLimit",
              "type": "uint16"
            },
            {
              "internalType": "uint16",
              "name": "paymentSplitVersion",
              "type": "uint16"
            }
          ],
          "internalType": "struct RoundConfig",
          "name": "config",
          "type": "tuple"
        }
      ],
      "name": "hashRoundConfig",
      "outputs": [
        {
          "internalType": "bytes32",
          "name": "",
          "type": "bytes32"
        }
      ],
      "stateMutability": "pure",
      "type": "function"
    },
    {
      "inputs": [
        {
          "components": [
            {
              "internalType": "uint256",
              "name": "seasonId",
              "type": "uint256"
            },
            {
              "internalType": "uint256",
              "name": "roundId",
              "type": "uint256"
            },
            {
              "internalType": "uint8",
              "name": "level",
              "type": "uint8"
            },
            {
              "internalType": "uint64",
              "name": "startsAt",
              "type": "uint64"
            },
            {
              "internalType": "uint64",
              "name": "entriesCloseAt",
              "type": "uint64"
            },
            {
              "internalType": "uint64",
              "name": "endsAt",
              "type": "uint64"
            },
            {
              "internalType": "uint64",
              "name": "freezeClosesAt",
              "type": "uint64"
            },
            {
              "internalType": "uint32",
              "name": "maxPlayers",
              "type": "uint32"
            },
            {
              "internalType": "uint16",
              "name": "maxWinners",
              "type": "uint16"
            },
            {
              "internalType": "bytes32",
              "name": "winningCellsRoot",
              "type": "bytes32"
            },
            {
              "internalType": "uint256",
              "name": "ethPrice",
              "type": "uint256"
            },
            {
              "internalType": "uint256",
              "name": "usdcPrice",
              "type": "uint256"
            },
            {
              "internalType": "uint16",
              "name": "freezeLimit",
              "type": "uint16"
            },
            {
              "internalType": "uint16",
              "name": "paymentSplitVersion",
              "type": "uint16"
            }
          ],
          "internalType": "struct RoundConfig",
          "name": "config",
          "type": "tuple"
        },
        {
          "internalType": "bytes",
          "name": "signature",
          "type": "bytes"
        },
        {
          "internalType": "address",
          "name": "player",
          "type": "address"
        },
        {
          "internalType": "address",
          "name": "inviter",
          "type": "address"
        }
      ],
      "name": "initializeAndRegisterEntry",
      "outputs": [
        {
          "internalType": "bytes32",
          "name": "configHash",
          "type": "bytes32"
        }
      ],
      "stateMutability": "nonpayable",
      "type": "function"
    },
    {
      "inputs": [
        {
          "components": [
            {
              "internalType": "uint256",
              "name": "seasonId",
              "type": "uint256"
            },
            {
              "internalType": "uint256",
              "name": "roundId",
              "type": "uint256"
            },
            {
              "internalType": "uint8",
              "name": "level",
              "type": "uint8"
            },
            {
              "internalType": "uint64",
              "name": "startsAt",
              "type": "uint64"
            },
            {
              "internalType": "uint64",
              "name": "entriesCloseAt",
              "type": "uint64"
            },
            {
              "internalType": "uint64",
              "name": "endsAt",
              "type": "uint64"
            },
            {
              "internalType": "uint64",
              "name": "freezeClosesAt",
              "type": "uint64"
            },
            {
              "internalType": "uint32",
              "name": "maxPlayers",
              "type": "uint32"
            },
            {
              "internalType": "uint16",
              "name": "maxWinners",
              "type": "uint16"
            },
            {
              "internalType": "bytes32",
              "name": "winningCellsRoot",
              "type": "bytes32"
            },
            {
              "internalType": "uint256",
              "name": "ethPrice",
              "type": "uint256"
            },
            {
              "internalType": "uint256",
              "name": "usdcPrice",
              "type": "uint256"
            },
            {
              "internalType": "uint16",
              "name": "freezeLimit",
              "type": "uint16"
            },
            {
              "internalType": "uint16",
              "name": "paymentSplitVersion",
              "type": "uint16"
            }
          ],
          "internalType": "struct RoundConfig",
          "name": "config",
          "type": "tuple"
        },
        {
          "internalType": "bytes",
          "name": "signature",
          "type": "bytes"
        }
      ],
      "name": "initializeRound",
      "outputs": [
        {
          "internalType": "bytes32",
          "name": "configHash",
          "type": "bytes32"
        }
      ],
      "stateMutability": "nonpayable",
      "type": "function"
    },
    {
      "inputs": [
        {
          "internalType": "uint256",
          "name": "roundId",
          "type": "uint256"
        },
        {
          "internalType": "uint16",
          "name": "winnersRegistered",
          "type": "uint16"
        }
      ],
      "name": "markRoundSettled",
      "outputs": [],
      "stateMutability": "nonpayable",
      "type": "function"
    },
    {
      "inputs": [],
      "name": "owner",
      "outputs": [
        {
          "internalType": "address",
          "name": "",
          "type": "address"
        }
      ],
      "stateMutability": "view",
      "type": "function"
    },
    {
      "inputs": [
        {
          "internalType": "uint256",
          "name": "",
          "type": "uint256"
        },
        {
          "internalType": "uint8",
          "name": "",
          "type": "uint8"
        }
      ],
      "name": "roundBySeasonLevel",
      "outputs": [
        {
          "internalType": "uint256",
          "name": "",
          "type": "uint256"
        }
      ],
      "stateMutability": "view",
      "type": "function"
    },
    {
      "inputs": [
        {
          "components": [
            {
              "internalType": "uint256",
              "name": "seasonId",
              "type": "uint256"
            },
            {
              "internalType": "uint256",
              "name": "roundId",
              "type": "uint256"
            },
            {
              "internalType": "uint8",
              "name": "level",
              "type": "uint8"
            },
            {
              "internalType": "uint64",
              "name": "startsAt",
              "type": "uint64"
            },
            {
              "internalType": "uint64",
              "name": "entriesCloseAt",
              "type": "uint64"
            },
            {
              "internalType": "uint64",
              "name": "endsAt",
              "type": "uint64"
            },
            {
              "internalType": "uint64",
              "name": "freezeClosesAt",
              "type": "uint64"
            },
            {
              "internalType": "uint32",
              "name": "maxPlayers",
              "type": "uint32"
            },
            {
              "internalType": "uint16",
              "name": "maxWinners",
              "type": "uint16"
            },
            {
              "internalType": "bytes32",
              "name": "winningCellsRoot",
              "type": "bytes32"
            },
            {
              "internalType": "uint256",
              "name": "ethPrice",
              "type": "uint256"
            },
            {
              "internalType": "uint256",
              "name": "usdcPrice",
              "type": "uint256"
            },
            {
              "internalType": "uint16",
              "name": "freezeLimit",
              "type": "uint16"
            },
            {
              "internalType": "uint16",
              "name": "paymentSplitVersion",
              "type": "uint16"
            }
          ],
          "internalType": "struct RoundConfig",
          "name": "config",
          "type": "tuple"
        }
      ],
      "name": "roundConfigDigest",
      "outputs": [
        {
          "internalType": "bytes32",
          "name": "",
          "type": "bytes32"
        }
      ],
      "stateMutability": "view",
      "type": "function"
    },
    {
      "inputs": [
        {
          "internalType": "uint256",
          "name": "",
          "type": "uint256"
        },
        {
          "internalType": "address",
          "name": "",
          "type": "address"
        }
      ],
      "name": "roundEntryRegistered",
      "outputs": [
        {
          "internalType": "bool",
          "name": "",
          "type": "bool"
        }
      ],
      "stateMutability": "view",
      "type": "function"
    },
    {
      "inputs": [],
      "name": "scheduleSigner",
      "outputs": [
        {
          "internalType": "address",
          "name": "",
          "type": "address"
        }
      ],
      "stateMutability": "view",
      "type": "function"
    },
    {
      "inputs": [
        {
          "internalType": "address",
          "name": "newSkills",
          "type": "address"
        }
      ],
      "name": "setArenaSkills",
      "outputs": [],
      "stateMutability": "nonpayable",
      "type": "function"
    },
    {
      "inputs": [
        {
          "internalType": "address",
          "name": "newCore",
          "type": "address"
        }
      ],
      "name": "setGameCore",
      "outputs": [],
      "stateMutability": "nonpayable",
      "type": "function"
    },
    {
      "inputs": [
        {
          "internalType": "uint256",
          "name": "roundId",
          "type": "uint256"
        },
        {
          "internalType": "bool",
          "name": "paused",
          "type": "bool"
        }
      ],
      "name": "setRoundPaused",
      "outputs": [],
      "stateMutability": "nonpayable",
      "type": "function"
    },
    {
      "inputs": [
        {
          "internalType": "address",
          "name": "newSigner",
          "type": "address"
        }
      ],
      "name": "setScheduleSigner",
      "outputs": [],
      "stateMutability": "nonpayable",
      "type": "function"
    },
    {
      "inputs": [
        {
          "internalType": "address",
          "name": "signer",
          "type": "address"
        },
        {
          "internalType": "bool",
          "name": "allowed",
          "type": "bool"
        }
      ],
      "name": "setScheduleSignerAllowed",
      "outputs": [],
      "stateMutability": "nonpayable",
      "type": "function"
    },
    {
      "inputs": [
        {
          "internalType": "address",
          "name": "newSettlement",
          "type": "address"
        }
      ],
      "name": "setSettlementContract",
      "outputs": [],
      "stateMutability": "nonpayable",
      "type": "function"
    },
    {
      "inputs": [],
      "name": "settlementContract",
      "outputs": [
        {
          "internalType": "address",
          "name": "",
          "type": "address"
        }
      ],
      "stateMutability": "view",
      "type": "function"
    },
    {
      "inputs": [
        {
          "internalType": "address",
          "name": "newOwner",
          "type": "address"
        }
      ],
      "name": "transferOwnership",
      "outputs": [],
      "stateMutability": "nonpayable",
      "type": "function"
    },
    {
      "inputs": [
        {
          "components": [
            {
              "internalType": "uint256",
              "name": "seasonId",
              "type": "uint256"
            },
            {
              "internalType": "uint256",
              "name": "roundId",
              "type": "uint256"
            },
            {
              "internalType": "uint8",
              "name": "level",
              "type": "uint8"
            },
            {
              "internalType": "uint64",
              "name": "startsAt",
              "type": "uint64"
            },
            {
              "internalType": "uint64",
              "name": "entriesCloseAt",
              "type": "uint64"
            },
            {
              "internalType": "uint64",
              "name": "endsAt",
              "type": "uint64"
            },
            {
              "internalType": "uint64",
              "name": "freezeClosesAt",
              "type": "uint64"
            },
            {
              "internalType": "uint32",
              "name": "maxPlayers",
              "type": "uint32"
            },
            {
              "internalType": "uint16",
              "name": "maxWinners",
              "type": "uint16"
            },
            {
              "internalType": "bytes32",
              "name": "winningCellsRoot",
              "type": "bytes32"
            },
            {
              "internalType": "uint256",
              "name": "ethPrice",
              "type": "uint256"
            },
            {
              "internalType": "uint256",
              "name": "usdcPrice",
              "type": "uint256"
            },
            {
              "internalType": "uint16",
              "name": "freezeLimit",
              "type": "uint16"
            },
            {
              "internalType": "uint16",
              "name": "paymentSplitVersion",
              "type": "uint16"
            }
          ],
          "internalType": "struct RoundConfig",
          "name": "config",
          "type": "tuple"
        },
        {
          "internalType": "bytes",
          "name": "signature",
          "type": "bytes"
        }
      ],
      "name": "verifyRoundConfig",
      "outputs": [
        {
          "internalType": "bool",
          "name": "",
          "type": "bool"
        }
      ],
      "stateMutability": "view",
      "type": "function"
    }
  ],
  "bytecode": "0x608034620000b257601f6200378538819003918201601f19168301916001600160401b03831184841017620000b757808492602094604052833981010312620000b257516001600160a01b03811690819003620000b2578015620000a0578060018060a01b031933816000541617600055600154161760015560005260026020526040600020600160ff198254161790556040516136b79081620000ce8239f35b60405163d92e233d60e01b8152600490fd5b600080fd5b634e487b7160e01b600052604160045260246000fdfe608080604052600436101561001357600080fd5b60003560e01c90816314b1e0e4146118ce5750806316c3295f146117f5578063170b9ca41461177d57806318a1fe601461175457806319b66704146117385780631cfe7edf1461171c57806321bc4dca146116cf5780633569a16b1461166b5780633719fd05146115f357806337b64931146115d1578063472be6771461158e57806351be681a14611571578063524dd3f414610f0b5780635fc2d28314610ee757806369c4c8c014610eb0578063746ff3a514610e785780637e07ab0914610d40578063827669f214610cf55780638da5cb5b14610ccc5780638fc24baf14610cb0578063908a88be14610c675780639aee50dd14610ab45780639dbde39814610a9b578063ab5669ad14610a7e578063adc0787814610a5d578063c642e7bf1461093c578063c6b902d0146108ea578063c8da51c5146108c1578063cadbcc6d14610849578063cba0b84114610606578063da5e5dfd14610547578063dfa0ec7614610502578063e2cfe2ef146104d9578063e5f3263f146104b0578063ea42418b14610487578063f2fde38b14610414578063f698da25146103f1578063f992b605146102bf5763ff68c57a146101cc57600080fd5b346102ba5760403660031901126102ba576101e56118f9565b6101ed6118ea565b9060018060a01b038091610206826000541633146119b5565b169182156102a85780159182610299575b5015610255576020600080516020613642833981519152918360005260028252604060002090159060ff1981541660ff8316179055604051908152a2005b60405162461bcd60e51b815260206004820152601c60248201527b21b0b73737ba103932bb37b5b29031bab93932b73a1039b4b3b732b960211b6044820152606490fd5b90506001541682141538610217565b60405163d92e233d60e01b8152600490fd5b600080fd5b346102ba576101c0806003193601126102ba5760443560ff81168091036102ba576064356001600160401b03818116918290036102ba57608435938185168095036102ba5760a435908282168092036102ba5760c4359283168093036102ba5760e43563ffffffff81168091036102ba57610104359061ffff948583168093036102ba5761018435948686168096036102ba576101a4359687168097036102ba57602099604051988b8a019a6000805160206136628339815191528c5260043560408c015260243560608c015260808b015260a08a015260c089015260e08801526101008701526101208601526101408501526101243561016085015261014435610180850152610164356101a08501528301526101e0908183015281526103e681611b7c565b519020604051908152f35b346102ba5760003660031901126102ba57602061040c611e6d565b604051908152f35b346102ba5760203660031901126102ba5761042d6118f9565b600054906001600160a01b03808316916104483384146119b5565b169182156102a8576001600160a01b031916821760009081557f8be0079c531659141344cd1fd0a4f28419497f9722a3daafe3b4186f6b6457e09080a3005b346102ba5760003660031901126102ba57600c546040516001600160a01b039091168152602090f35b346102ba5760003660031901126102ba576001546040516001600160a01b039091168152602090f35b346102ba5760003660031901126102ba576003546040516001600160a01b039091168152602090f35b346102ba5760203660031901126102ba5761051e600435611dc7565b6040516008821015610531576020918152f35b634e487b7160e01b600052602160045260246000fd5b346102ba5760403660031901126102ba5761056061190f565b600435600052600960205260406000209060018060a01b031660005260205260c060406000206040519061059382611b46565b5460ff8116151591828152608060ff8360081c169182602082015260ff8460101c1680604083015261ffff8560181c169182606082015263ffffffff809660281c1693849101526105e382611dac565b9360405196875260208701526040860152606085015260808401521660a0820152f35b346102ba5760203660031901126102ba5760043560006101a060405161062b81611b2a565b8281528260208201528260408201528260608201528260808201528260a08201528260c08201528260e08201528261010082015282610120820152826101408201528261016082015282610180820152015280600052600660205260ff60016040600020015460701c16156108315760005260056020526101c0604060002061ffff6101a06040516106bc81611b2a565b82600785549586845260018101546020850152600281015460ff8116604086015260018060401b038160081c16606086015260018060401b038160481c16608086015260018060401b039060881c1660a085015282600382015460018060401b03811660c087015263ffffffff8160401c1660e087015260601c16610100850152600481015461012085015260058101546101408501526006810154610160850152015481811661018084015260101c16828201526040519384526020810151602085015260ff604082015116604085015260018060401b03606082015116606085015260018060401b03608082015116608085015260018060401b0360a08201511660a085015260018060401b0360c08201511660c085015263ffffffff60e08201511660e0850152826101008201511661010085015261012081015161012085015261014081015161014085015261016081015161016085015282610180820151166101808501520151166101a0820152f35b60249060405190634f15c33760e01b82526004820152fd5b346102ba5760203660031901126102ba576108626118f9565b6000546001600160a01b0391829161087d90831633146119b5565b169081156102a857600380546001600160a01b031981168417909155167f08e50724567a8e5052ab65b222a34042007eacb64c6bb2819dcd69983850d4fc600080a3005b346102ba5760003660031901126102ba576004546040516001600160a01b039091168152602090f35b346102ba5761091e6108fb36611978565b906109078394936131ef565b6001600160a01b039361091990611bbb565b613509565b166000526002602052602060ff604060002054166040519015158152f35b346102ba5760203660031901126102ba57600060e060405161095d81611af8565b8281528260208201528260408201528260608201528260808201528260a08201528260c08201520152600435600052600660205261010060406000206040516109a581611af8565b600182549283835201549060018060401b036020820190808416825263ffffffff60408401818660401c16815261ffff916060860191838860601c168352608087019460ff8960701c161515865260a088019660ff8a60781c161515885260ff60e060c08b019a828d60801c1615158c52019a60881c1615158a526040519a8b52511660208a01525116604088015251166060860152511515608085015251151560a084015251151560c083015251151560e0820152f35b346102ba5760203660031901126102ba576001600160a01b0361091e6118f9565b346102ba5760003660031901126102ba576020604051610e108152f35b346102ba57602061040c610aae36611978565b91612b64565b346102ba5760403660031901126102ba57600435602480359061ffff8216918281036102ba57600c546001600160a01b03163303610c315783600052600660205260016040600020019182549060ff8260701c1615610c1b5760ff8260781c16610c0557610b2186611dc7565b6008811015610bf057600403610bb7575060ff60781b1916600160781b1782557f983c9902522ca2a81ad4305992c404c4941ec4f38592010f2009a942e07c1a00926020929091610b729082611d8d565b805460ff60881b1916905560008481526005835260408082206002015460ff16825260078452902080548514610bad575b50604051908152a2005b6000905584610ba3565b60649060126040519162461bcd60e51b83526020600484015282015271526f756e64206973206e6f7420726561647960701b6044820152fd5b50634e487b7160e01b60009081526021600452fd5b604051636516cfdb60e01b815260048101879052fd5b604051634f15c33760e01b815260048101879052fd5b60405162461bcd60e51b815260206004820152600f818401526e13db9b1e481cd95d1d1b195b595b9d608a1b6044820152606490fd5b346102ba5760603660031901126102ba57606060ff610c98610c8761193b565b610c8f611925565b90600435611c24565b91929081604051941684521660208301526040820152f35b346102ba5760003660031901126102ba57602060405160048152f35b346102ba5760003660031901126102ba576000546040516001600160a01b039091168152602090f35b346102ba576101c03660031901126102ba576020610d11611e6d565b610d19611f53565b604051908382019261190160f01b845260228301526042820152604281526103e681611b61565b346102ba5760203660031901126102ba57600435610d6960018060a01b036000541633146119b5565b8060005260066020526001604060002001805460ff8160701c1615610e5f5760ff8160781c16610e465763ffffffff8160401c16610e0d5761ffff60801b1916600160801b17905560008181526005602090815260408083206002015460ff1683526007909152902080548214610e03575b507fbf7aeff89cf7a4c3d0145879e39aa6a19e8e64ed585090ef86bf31f4d2ae57bf600080a2005b6000905581610ddb565b60405162461bcd60e51b8152602060048201526011602482015270526f756e642068617320656e747269657360781b6044820152606490fd5b604051636516cfdb60e01b815260048101849052602490fd5b604051634f15c33760e01b815260048101849052602490fd5b346102ba5760203660031901126102ba57610eae610e946118f9565b610ea960018060a01b036000541633146119b5565b611a50565b005b346102ba5760203660031901126102ba5760043560ff81168091036102ba5760005260076020526020604060002054604051908152f35b346102ba5760003660031901126102ba576020604051683635c9adc5dea000008152f35b346102ba57366003190161022081126102ba576101c0136102ba576101c4356001600160401b0381116102ba57610f4690369060040161194b565b906001600160a01b03906101e43580831690036102ba57610204359282841684036102ba578260035416330361153b57610f7f9161219c565b90610f8b602435611dc7565b60088110156105315760020361152a57602435600052600660205260016040600020019263ffffffff845460401c1660e4359063ffffffff82168092036102ba57101561151857602435600052600a6020526040600020826101e4351660005260205260ff604060002054166114f75760043560005260096020526040600020826101e43516600052602052604060002080549060ff8216156000146112ec576001815461ff0061103a611f12565b60081b169061ffff19161717815561106b611053611f12565b825462ff0000191660109190911b62ff000016178255565b805464ffff00000019166301000000179055611085611f12565b60ff60405191168152836101e43516907f5d2f5505d19901ad4d8e8953b5a2119644585f12e2691ae309eceed6fc85629e602060043592a35b60ff1615806112e1575b806112a7575b61115f575b5063ffffffff602093602435600052600a85526040600020836101e4351660005285526040600020600160ff1982541617905561111e61111883835460401c16611a18565b82611a2d565b5460401c16906040519182526101e43516907f490837e84042397d6b4bb41fed96419a172fdf5d3d295b0586dc73dcfb9429718460243592a3604051908152f35b926004356000526009602052604060002082851660005260205260406000209384549460ff8616156112855763ffffffff806111a161ffff8960181c16611dac565b9760281c169616958681101561125f57509063ffffffff9291602096600435600052600b8852604060002086841660005288526040600020866101e4351660005288526040600020600160ff1982541617905581548560281b611208878360281c16611a18565b60281b16908660281b191617809255846040519260281c1682528782015284806101e435169216907f7028884083d71c35b20c0e04773a2eb2af3e312d9d54a482626959b357c20bfa604060043592a493506110d3565b82876064928760405193630426c24160e01b855216600484015260248301526044820152fd5b6044828560405191633679c40760e01b83521660048201526004356024820152fd5b50600435600052600b60205260406000208282166000526020526040600020826101e4351660005260205260ff60406000205416156110ce565b5081811615156110c8565b601160ff8360101c16146114ce5760ff61130a818460101c16611bfa565b81611313611f12565b911691829116036114a6575083600454168015611494576004356000526008602052604060002060ff8460101c166000526020526040600020549060206040518092631ff5f1e360e31b825281806113726101e43588600484016119ff565b03915afa90811561148857600091611459575b506114335750611396611053611f12565b805461ffff6001818360181c16011161141d5764ffff000000600161ffff8360181c160160181b169064ffff00000019161780915561ffff6113d6611f12565b9160ff6040519316835260181c166020820152836101e43516907fa3edd1991ca9a1cf77cc021a7f271dfdf661467f7c19cf84ea99a08380bec037604060043592a36110be565b634e487b7160e01b600052601160045260246000fd5b60405163ce43472160e01b8152908190611455906101e43590600484016119ff565b0390fd5b61147b915060203d602011611481575b6114738183611b98565b810190611c0c565b88611385565b503d611469565b6040513d6000823e3d90fd5b60405163426f075960e01b8152600490fd5b60449060ff6114b3611f12565b60405192637bfa631160e01b84526004840152166024820152fd5b60446114d8611f12565b60ff60405191637bfa631160e01b835260116004840152166024820152fd5b6040516398fff11560e01b8152806114556101e435602435600484016119ff565b60405163b027293d60e01b8152600490fd5b60405162d94a7960e41b8152600490fd5b60405162461bcd60e51b815260206004820152600e60248201526d4f6e6c792067616d6520636f726560901b6044820152606490fd5b346102ba5760003660031901126102ba5760206040516146508152f35b346102ba5760403660031901126102ba576115a761193b565b600435600052600860205260ff604060002091166000526020526020604060002054604051908152f35b346102ba5760003660031901126102ba57602060405166038d7ea4c680008152f35b346102ba5760203660031901126102ba5761160c6118f9565b6000546001600160a01b0391829161162790831633146119b5565b169081156102a857600c80546001600160a01b031981168417909155167fae0b527aec7be2a921fb601477f42ce68cfc9122d8c176909c55cd756e30dfd8600080a3005b346102ba5760603660031901126102ba5761168461190f565b61168c611925565b90600435600052600b602052604060002060018060a01b0380921660005260205260406000209116600052602052602060ff604060002054166040519015158152f35b346102ba5760403660031901126102ba576116e861190f565b600435600052600a60205260406000209060018060a01b0316600052602052602060ff604060002054166040519015158152f35b346102ba5760003660031901126102ba57602060405160088152f35b346102ba5760003660031901126102ba57602060405160018152f35b346102ba5760003660031901126102ba5760206040516000805160206136628339815191528152f35b346102ba5760203660031901126102ba576117966118f9565b6000546001600160a01b039182916117b190831633146119b5565b169081156102a857600480546001600160a01b031981168417909155167f524dc4c62b4f4c50e6c9540d2b6def95ebbb0d97401fbe0cc8223774f9c145a7600080a3005b346102ba5760403660031901126102ba576004356118116118ea565b61182660018060a01b036000541633146119b5565b816000526006602052600160406000200180549160ff8360701c16156118b55760ff8360781c1661189c5760ff60881b19909216911515608881901b60ff60881b169290921790556040519081527fac1a6c436284f5b44241fc61175940e1e419c6c49e5a061c3dd5c59008110c5190602090a2005b604051636516cfdb60e01b815260048101859052602490fd5b604051634f15c33760e01b815260048101859052602490fd5b346102ba5760003660031901126102ba5780620f424060209252f35b6024359081151582036102ba57565b600435906001600160a01b03821682036102ba57565b602435906001600160a01b03821682036102ba57565b604435906001600160a01b03821682036102ba57565b6024359060ff821682036102ba57565b9181601f840112156102ba578235916001600160401b0383116102ba57602083818601950101116102ba57565b9060031982016101e081126102ba576101c0136102ba576004916101c435906001600160401b0382116102ba576119b19160040161194b565b9091565b156119bc57565b60405162461bcd60e51b815260206004820152600a60248201526927b7363c9037bbb732b960b11b6044820152606490fd5b3563ffffffff811681036102ba5790565b9081526001600160a01b03909116602082015260400190565b90600163ffffffff8093160191821161141d57565b805463ffffffff60401b191660409290921b63ffffffff60401b16919091179055565b6001600160a01b039081169081156102a85760015416818114611af4576000818152600260209081526040808320805460ff19908116909155600180546001600160a01b0319168717815586855282852080549092161790555190929184837fdb7e28dcb7910a908b1404e917a472338ba3345b2f4d5600ec60d00f4bc508278380a38152600080516020613642833981519152928391a2602060405160018152a2565b5050565b61010081019081106001600160401b03821117611b1457604052565b634e487b7160e01b600052604160045260246000fd5b6101c081019081106001600160401b03821117611b1457604052565b60a081019081106001600160401b03821117611b1457604052565b608081019081106001600160401b03821117611b1457604052565b61020081019081106001600160401b03821117611b1457604052565b601f909101601f19168101906001600160401b03821190821017611b1457604052565b611bcc611bc6611e6d565b91612067565b60405190602082019261190160f01b84526022830152604282015260428152611bf481611b61565b51902090565b60ff60019116019060ff821161141d57565b908160209103126102ba575180151581036102ba5790565b63ffffffff9391926000938285526020600981526040918287209460018060a01b03958686168952835283882090845191611c5e83611b46565b549260ff92838516159081158152848660081c16878201526080858760101c169d8e978a840198895261ffff8160181c16606085015260281c16910152611d7d57821699808b1115611d6d57611cb390611bfa565b99828b1603611d5f5788526008835283882091511687528152818620549360045416928315159384611cf7575b50505050611cef575081929190565b600393925090565b839450908291611d1b94518080968194631ff5f1e360e31b83528a600484016119ff565b03915afa928315611d5657508592611d39575b505038808080611ce0565b611d4f9250803d10611481576114738183611b98565b3880611d2e565b513d87823e3d90fd5b505050505050506002929190565b9950505050505050506001929190565b5050505050505050915080918190565b805461ffff60601b191660609290921b61ffff60601b16919091179055565b60021b906403fffffffc63fffffffc83169216820361141d57565b600052600660205260016040600020015460ff8160701c1615611e675760ff8160801c16611e615760ff8160881c16611e5b5760781c60ff16611e565760056020526040600020600201546001600160401b0390600881901c82164210611e4f57818160481c164210611e485760881c164210611e4357600490565b600390565b5050600290565b5050600190565b600590565b50600790565b50600690565b50600090565b60405160208101907f8b73c3c69bb8fe3d512ecc4cf759cc79239f7b179b0ffacaa9a75d522b39400f82527f67d95eccdab82baf1c2fea9d89f0a04f0ac8b85169f524965498e50c81c6c15d60408201527fad7c5bef027816a800da1736444fb58a807ef4c9603b7848673f7e3a68eb14a560608201524660808201523060a082015260a0815260c0810181811060018060401b03821117611b145760405251902090565b60443560ff811681036102ba5790565b3560ff811681036102ba5790565b356001600160401b03811681036102ba5790565b3561ffff811681036102ba5790565b60443560ff81168091036102ba576064356001600160401b03818116918290036102ba576084358181168091036102ba5760a435918083168093036102ba5760c4359081168091036102ba5760e43563ffffffff81168091036102ba57610104359161ffff948584168094036102ba5761018435948686168096036102ba576101a4359687168097036102ba576040519760208901996000805160206136628339815191528b5260043560408b015260243560608b015260808a015260a089015260c088015260e08701526101008601526101208501526101408401526101243561016084015261014435610180840152610164356101a08401526101c08301526101e090818301528152611bf481611b7c565b61207360408201611f22565b9061208060608201611f30565b9061208d60808201611f30565b9061209a60a08201611f30565b926120a760c08301611f30565b926120b460e084016119ee565b92610100948582016120c590611f44565b946101409661016094610180938486016120de90611f44565b976120ec6101a08801611f44565b9b604051809e6020820160008051602061366283398151915290528935604083015260208a0135606083015260ff1690608001528d600160401b6001900380958180951660a0840152169060c001521660e08d015216908a015263ffffffff1661012089015261ffff9586809616818a0152610120830135848a01528201359088015201356101a0860152166101c08401526101e0911681830152815261219281611b7c565b8051906020012090565b9190600435158015612b5a575b612b415760ff60443516604435036102ba57600160ff60443516108015612b32575b612b15576064356001600160401b038116141592836102ba576084356001600160401b038116141593846102ba576001600160401b03608435811660643590911610801590612ae8575b8015612ab5575b8015612a7c575b61152a5760e43563ffffffff81161415806102ba5763ffffffff60e43516158015612a65575b8015612a4e575b8015612a35575b8015612a2a575b6115185760a4356001600160401b038116141591826102ba576102ba5762015180806001600160401b0361229660643560a4356131bd565b16016001600160401b03811161141d576001600160401b039081166000190190811161141d576001600160401b03908116919091048116600a0290811681900361141d5761ffff1692610184359361ffff851685036102ba578061ffff861603612a0857506101443515806129fd575b6129d857683635c9adc5dea00000610144351180156129ea575b6129d85761ffff6101a435166101a435036102ba57600161ffff6101a43516036129b9576000946064356001600160401b031642106129a057612361611e6d565b9160c4356001600160401b038116900361299c5761ffff6101043516610104350361299c5760408051600080516020613662833981519152602082015260043591810191909152602435606082015260ff6044351660808201526001600160401b03606435811660a0830152608435811660c083015260a435811660e083015260c4351661010082015263ffffffff60e4351661012082015261ffff6101043581166101408301526101243561016083015261014435610180830152610164356101a08301528781166101c08301526101a435166101e080830191909152815261249492919061245081611b7c565b602081519101209360405194602086019161190160f01b8352602287015260428601526042855261248085611b61565b93519093206001600160a01b039390613509565b168452600260205260ff6040852054161561298a576124b1611f53565b9560243585526006602052604085209460ff600187015460701c16612978576004358152600860205260408120819060ff60443516835260205260408220548015158061296c575b61290c575b50600160ff6044351611612867575b806102ba57601160ff60443516106127be575b6102ba5760ff604435166000526007602052604060002054801515806127b2575b6126fa575b5060243560005260056020526040600020936004358555602435600186015560028501928354926102ba576102ba576102ba5760843560481b600160481b600160881b031660643560081b610100600160481b03166001600160c81b031990921660443560ff1617919091171760a43560881b600160881b600160c81b03161790556003820180546001600160401b03191660c4356001600160401b03161790556102ba576007906125fd60e43560038301611a2d565b61260d6101043560038301611d8d565b610124356004828101919091556101443560058301556101643560068301559101805463ffffffff191661ffff909316929092176101a43560101b63ffff000016179091558382556001919091018054600166ff00000000000160401b031916426001600160401b0390811691909117600160701b1790915560443560ff16600081815260076020908152604080832060243590819055953580845260088352818420858552835292819020869055805188815260643586169281019290925260843585169082015260a435909316606084015290929160008051602061362283398151915290608090a4565b600052600660205260406000206005602052816040600020906102ba57600201546001600160401b03608882901c811660643590911610919082612790575b50600101549060ff8260801c16159182612781575b5081612779575b506127605738612546565b60405163d3b1637b60e01b815260248035600483015290fd5b905038612755565b60781c60ff161591503861274e565b600096506001600160401b0360a435811660089290921c161091506001612739565b50602435811415612541565b506004356000526008602052604060002060009060ff6127df604435611bfa565b16825260205260408120548015159081612827575b501561252057611455612808604435611bfa565b604051630ec22fd160e11b815291829160443560048035908501613607565b8252506005602052604081206002015460081c6001600160401b031682612863576001600160401b0361285b6064356131d6565b1611386127f4565b5080fd5b506004358152600860205260408120819060ff6128856044356135f4565b168352602052604082205480151590816128ce575b501561250d576114556128ae6044356135f4565b604051630ec22fd160e11b81529182916044359060048035908501613607565b6000908152600560205260409020600201546001600160401b0391506128f89060081c82166131d6565b166064356001600160401b0316103861289a565b82526006602052600160408320015460ff8160801c1615908115612959575b5061293657386124fe565b6044604051633c272c0f60e21b8152600435600482015260ff8235166024820152fd5b63ffffffff915060401c1615153861292b565b506024358114156124f9565b50505050509180919254036127605790565b60405163a50fdd7f60e01b8152600490fd5b8680fd5b604051630be47ce760e01b815260248035600483015290fd5b604051631f0af94d60e11b81526101a43561ffff166004820152602490fd5b604051635aa4fb5d60e11b8152600490fd5b5066038d7ea4c680006101643511612320565b506101643515612306565b60449061ffff866040519263792b27e960e01b84526004840152166024820152fd5b50610124351561225e565b506101043561ffff81168091036102ba57600810612257565b506101043561ffff81168091036102ba5715612250565b50506000620f424063ffffffff60e4351611612249565b505060a4356001600160401b03811681036102ba57600090610e10906001600160401b0390612aae90606435906131bd565b1610612223565b5060c4356001600160401b038116908190036102ba5760a4356001600160401b03811691908290036102ba57141561221c565b506000945060a4356001600160401b038116908190036102ba576084356001600160401b03161015612215565b604051633d98c85560e21b815260443560ff166004820152602490fd5b50601160ff60443516116121cb565b60405163325a5bd760e21b815260248035600483015290fd5b50602435156121a9565b9291612b6f846131ef565b6001600160401b03612b8360608601611f30565b1642106131a1576001600160a01b0391612ba1919061091986611bbb565b16600052600260205260ff604060002054161561298a57612bc182612067565b9160208101356000526006602052604060002060ff600182015460701c166131765781356000526008602052604060002060ff612c0060408501611f22565b1660005260205260406000205480151580613168575b6130fc575b50600160ff612c2c60408501611f22565b161161304f575b601160ff612c4360408501611f22565b1610612f95575b60ff612c5860408401611f22565b16600052600760205260406000205480151580612f87575b612eb9575b506020820135600052600560205260076040600020833581556020840135600182015560ff612ca660408601611f22565b60028301549116610100600160481b03612cc260608801611f30565b60081b16600160481b600160881b03612cdd60808901611f30565b60481b1691600160881b600160c81b03612cf960a08a01611f30565b60881b169360018060c81b031916171717176002820155612d5d6003820160018060401b03612d2a60c08801611f30565b82546001600160401b0319169116178155612d4a61111860e088016119ee565b612d576101008701611f44565b90611d8d565b6101208401356004820155610140840135600582015561016084013560068201550161ffff612d8f6101808501611f44565b1681549063ffff0000612da56101a08701611f44565b63ffffffff199093169190911760109290921b161790558381556001018054600166ff00000000000160401b031916426001600160401b031617600160701b17905560ff612df560408301611f22565b166000526007602052602081013560406000205580356000526008602052604060002060ff612e2660408401611f22565b166000526020526020810135604060002055612e4460408201611f22565b9060ff612e5360608301611f30565b92612e6060808401611f30565b612e6c60a08501611f30565b906040519588875260018060401b0316602087015260018060401b0316604086015260018060401b03166060850152169160008051602061362283398151915260806020840135933592a4565b6000526006602052604060002060056020526040600020906002612edf60608601611f30565b9201546001600160401b03608882901c81169316929092109182612f58575b50600101549060ff8260801c16159182612f49575b5081612f41575b50612f255738612c75565b60405163d3b1637b60e01b815260208301356004820152602490fd5b905038612f1a565b60781c60ff1615915038612f13565b9091506001906001600160401b03612f7260a08701611f30565b1690828060401b039060081c16109190612efe565b506020830135811415612c70565b81356000526008602052604060002060ff612fba612fb560408601611f22565b611bfa565b166000526020526040600020548015159081613011575b5015612c4a5750612fe460408201611f22565b90611455612ff7612fb560408401611f22565b604051630ec22fd160e11b81529384933560048501613607565b60009081526005602052604090206002015460081c6001600160401b03908116915061304761304260608601611f30565b6131d6565b161138612fd1565b81356000526008602052604060002060ff61307461306f60408601611f22565b6135f4565b1660005260205260406000205480151590816130b1575b5015612c3357506130a161306f60408301611f22565b90611455612ff760408301611f22565b90506130bf60608401611f30565b600091825260056020526040909120600201546001600160401b03906130e99060081c82166131d6565b166001600160401b03909116103861308b565b600052600660205260016040600020015460ff8160801c1615908115613155575b506131285738612c1b565b60448260ff61313960408301611f22565b604051633c272c0f60e21b815292356004840152166024820152fd5b63ffffffff915060401c1615153861311d565b506020830135811415612c16565b928092935403613184575090565b60405163d3b1637b60e01b81526020909101356004820152602490fd5b604051630be47ce760e01b815260208501356004820152602490fd5b6001600160401b03918216908216039190821161141d57565b6001600160401b03908116614650019190821161141d57565b80351580156134fd575b6134e05760409060ff61320d838301611f22565b166001811080156134d6575b6134bf5750606081019061322c82611f30565b6001600160401b0392906080830190848061324684611f30565b169116109081159161349c575b508015613477575b8015613453575b6134435760e0820163ffffffff80613279836119ee565b161591821561342b575b50508015613413575b80156133f9575b80156133ec575b6133db576132be90836132c46132b260a08601611f30565b62015180948594611f30565b906131bd565b160183811161141d5783166000190183811161141d578316048216600a0291821682900361141d5761ffff8092166101808201818461330283611f44565b16036133b35750506101408101358015806133a6575b61339557683635c9adc5dea00000108015613380575b61336f576101a00160018261334283611f44565b160361334d57505050565b6024935061335a90611f44565b9151631f0af94d60e11b815291166004820152fd5b8251635aa4fb5d60e11b8152600490fd5b5066038d7ea4c680006101608201351161332e565b8351635aa4fb5d60e11b8152600490fd5b5061016082013515613318565b9083856133c1604494611f44565b90519263792b27e960e01b84526004840152166024820152fd5b835163b027293d60e01b8152600490fd5b506101208201351561329a565b50600861ffff61340c6101008501611f44565b1611613293565b5061ffff6134246101008401611f44565b161561328c565b620f4240925061343a906119ee565b16113880613283565b835162d94a7960e41b8152600490fd5b50610e108361347061346760a08601611f30565b6132be85611f30565b1610613262565b5061348460c08301611f30565b838061349260a08601611f30565b169116141561325b565b6134a69150611f30565b83806134b460a08601611f30565b169116101538613253565b602490835190633d98c85560e21b82526004820152fd5b5060118111613219565b60405163325a5bd760e21b81526020909101356004820152602490fd5b506020810135156131f9565b9291604181036135dc575060409260009160208101359085810135841a6fa2a8918ca85bafe22016d0b997e4df60600160ff1b0383116135cb57601b811415806135c0575b6135a9579284926080926020958951938452868401523588830152606082015282805260015afa1561359e5751916001600160a01b0383161561358e5750565b5163a50fdd7f60e01b8152600490fd5b8251903d90823e3d90fd5b602490875190635d3b7f8160e11b82526004820152fd5b50601c81141561354e565b86516317e97eb760e31b8152600490fd5b6024906040519063058676ad60e31b82526004820152fd5b60ff6000199116019060ff821161141d57565b90815260ff9182166020820152911660408201526060019056fe8f81b2a2b7d5cd93c3bff32d607ad4f9c6cae7530bc246a10dbc04f3e9a65f38718c589333d07ca3a7c8cb5bd0a1e341f96fbbb9151d8fe5b7823d4771949e7288c69bf121116cdeeb92b6c451c3a5c37f4cd9ca0cfac3ab5b2ac79b94062c65a2646970667358221220b1956a8ed782d9d9bbe4ae24184bed775099feac9a149eaacd2a6af41693640364736f6c63430008180033",
  "linkReferences": {},
  "deployedLinkReferences": {}
}