{
  "_format": "hh-sol-artifact-1",
  "contractName": "EasyGameAdvance",
  "sourceName": "contracts/EasyGameAdvance.sol",
  "abi": [
    {
      "inputs": [
        {
          "internalType": "address",
          "name": "projectWallet_",
          "type": "address"
        },
        {
          "internalType": "address",
          "name": "treasuryWallet_",
          "type": "address"
        },
        {
          "internalType": "address",
          "name": "operatorWallet_",
          "type": "address"
        },
        {
          "internalType": "address",
          "name": "usdcToken_",
          "type": "address"
        },
        {
          "internalType": "address",
          "name": "roundManager_",
          "type": "address"
        }
      ],
      "stateMutability": "nonpayable",
      "type": "constructor"
    },
    {
      "inputs": [],
      "name": "IncorrectRoundPayment",
      "type": "error"
    },
    {
      "inputs": [
        {
          "internalType": "uint8",
          "name": "level",
          "type": "uint8"
        }
      ],
      "name": "InvalidLevel",
      "type": "error"
    },
    {
      "inputs": [
        {
          "internalType": "uint256",
          "name": "requested",
          "type": "uint256"
        },
        {
          "internalType": "uint256",
          "name": "maximum",
          "type": "uint256"
        }
      ],
      "name": "InvalidRecycleBatch",
      "type": "error"
    },
    {
      "inputs": [
        {
          "internalType": "uint256",
          "name": "roundId",
          "type": "uint256"
        },
        {
          "internalType": "uint256",
          "name": "cellId",
          "type": "uint256"
        }
      ],
      "name": "InvalidRoundCell",
      "type": "error"
    },
    {
      "inputs": [
        {
          "internalType": "uint8",
          "name": "level",
          "type": "uint8"
        }
      ],
      "name": "LevelEmergencyPaused",
      "type": "error"
    },
    {
      "inputs": [
        {
          "internalType": "uint256",
          "name": "roundId",
          "type": "uint256"
        },
        {
          "internalType": "uint256",
          "name": "pending",
          "type": "uint256"
        }
      ],
      "name": "PendingRoundRecycles",
      "type": "error"
    },
    {
      "inputs": [
        {
          "internalType": "uint256",
          "name": "roundId",
          "type": "uint256"
        },
        {
          "internalType": "uint256",
          "name": "parentCellId",
          "type": "uint256"
        }
      ],
      "name": "RoundParentAlreadyClosed",
      "type": "error"
    },
    {
      "inputs": [
        {
          "internalType": "uint256",
          "name": "roundId",
          "type": "uint256"
        },
        {
          "internalType": "address",
          "name": "player",
          "type": "address"
        }
      ],
      "name": "RoundTicketAlreadyActive",
      "type": "error"
    },
    {
      "inputs": [],
      "name": "RoundUsdcDisabled",
      "type": "error"
    },
    {
      "inputs": [],
      "name": "TokenTransferFailed",
      "type": "error"
    },
    {
      "inputs": [],
      "name": "UsdcTokenLocked",
      "type": "error"
    },
    {
      "inputs": [],
      "name": "ZeroAddress",
      "type": "error"
    },
    {
      "anonymous": false,
      "inputs": [
        {
          "indexed": true,
          "internalType": "address",
          "name": "oldGateway",
          "type": "address"
        },
        {
          "indexed": true,
          "internalType": "address",
          "name": "newGateway",
          "type": "address"
        }
      ],
      "name": "BasePayGatewayChanged",
      "type": "event"
    },
    {
      "anonymous": false,
      "inputs": [
        {
          "indexed": true,
          "internalType": "address",
          "name": "player",
          "type": "address"
        },
        {
          "indexed": true,
          "internalType": "uint8",
          "name": "level",
          "type": "uint8"
        },
        {
          "indexed": false,
          "internalType": "uint256",
          "name": "amount",
          "type": "uint256"
        }
      ],
      "name": "BoxTokenGranted",
      "type": "event"
    },
    {
      "anonymous": false,
      "inputs": [
        {
          "indexed": false,
          "internalType": "bool",
          "name": "enabled",
          "type": "bool"
        }
      ],
      "name": "LegacyActivationChanged",
      "type": "event"
    },
    {
      "anonymous": false,
      "inputs": [
        {
          "indexed": true,
          "internalType": "address",
          "name": "player",
          "type": "address"
        },
        {
          "indexed": true,
          "internalType": "uint8",
          "name": "level",
          "type": "uint8"
        },
        {
          "indexed": false,
          "internalType": "uint256",
          "name": "value",
          "type": "uint256"
        },
        {
          "indexed": false,
          "internalType": "uint256",
          "name": "cellId",
          "type": "uint256"
        }
      ],
      "name": "LevelActivated",
      "type": "event"
    },
    {
      "anonymous": false,
      "inputs": [
        {
          "indexed": true,
          "internalType": "uint8",
          "name": "level",
          "type": "uint8"
        },
        {
          "indexed": false,
          "internalType": "bool",
          "name": "available",
          "type": "bool"
        }
      ],
      "name": "LevelAvailabilityChanged",
      "type": "event"
    },
    {
      "anonymous": false,
      "inputs": [
        {
          "indexed": true,
          "internalType": "address",
          "name": "player",
          "type": "address"
        },
        {
          "indexed": true,
          "internalType": "uint8",
          "name": "level",
          "type": "uint8"
        }
      ],
      "name": "LevelFrozen",
      "type": "event"
    },
    {
      "anonymous": false,
      "inputs": [
        {
          "indexed": true,
          "internalType": "uint8",
          "name": "level",
          "type": "uint8"
        },
        {
          "indexed": false,
          "internalType": "uint256",
          "name": "oldPrice",
          "type": "uint256"
        },
        {
          "indexed": false,
          "internalType": "uint256",
          "name": "newPrice",
          "type": "uint256"
        }
      ],
      "name": "LevelPriceChanged",
      "type": "event"
    },
    {
      "anonymous": false,
      "inputs": [
        {
          "indexed": true,
          "internalType": "address",
          "name": "player",
          "type": "address"
        },
        {
          "indexed": true,
          "internalType": "uint8",
          "name": "level",
          "type": "uint8"
        }
      ],
      "name": "LevelUnfrozen",
      "type": "event"
    },
    {
      "anonymous": false,
      "inputs": [
        {
          "indexed": true,
          "internalType": "uint8",
          "name": "level",
          "type": "uint8"
        },
        {
          "indexed": false,
          "internalType": "uint256",
          "name": "oldPrice",
          "type": "uint256"
        },
        {
          "indexed": false,
          "internalType": "uint256",
          "name": "newPrice",
          "type": "uint256"
        }
      ],
      "name": "LevelUsdcPriceChanged",
      "type": "event"
    },
    {
      "anonymous": false,
      "inputs": [
        {
          "indexed": true,
          "internalType": "address",
          "name": "player",
          "type": "address"
        },
        {
          "indexed": true,
          "internalType": "uint8",
          "name": "level",
          "type": "uint8"
        },
        {
          "indexed": true,
          "internalType": "uint256",
          "name": "cellId",
          "type": "uint256"
        },
        {
          "indexed": false,
          "internalType": "uint256",
          "name": "parentCellId",
          "type": "uint256"
        }
      ],
      "name": "MatrixPlaced",
      "type": "event"
    },
    {
      "anonymous": false,
      "inputs": [
        {
          "indexed": true,
          "internalType": "address",
          "name": "previousOwner",
          "type": "address"
        },
        {
          "indexed": true,
          "internalType": "address",
          "name": "newOwner",
          "type": "address"
        }
      ],
      "name": "OwnershipTransferred",
      "type": "event"
    },
    {
      "anonymous": false,
      "inputs": [
        {
          "indexed": true,
          "internalType": "address",
          "name": "player",
          "type": "address"
        },
        {
          "indexed": true,
          "internalType": "uint8",
          "name": "level",
          "type": "uint8"
        },
        {
          "indexed": false,
          "internalType": "uint256",
          "name": "matrixPrizeAmount",
          "type": "uint256"
        },
        {
          "indexed": false,
          "internalType": "uint256",
          "name": "directReferralAmount",
          "type": "uint256"
        },
        {
          "indexed": false,
          "internalType": "uint256",
          "name": "secondLineAmount",
          "type": "uint256"
        },
        {
          "indexed": false,
          "internalType": "uint256",
          "name": "thirdLineAmount",
          "type": "uint256"
        },
        {
          "indexed": false,
          "internalType": "uint256",
          "name": "projectFeeAmount",
          "type": "uint256"
        }
      ],
      "name": "PaymentSplit",
      "type": "event"
    },
    {
      "anonymous": false,
      "inputs": [
        {
          "indexed": true,
          "internalType": "address",
          "name": "player",
          "type": "address"
        },
        {
          "indexed": true,
          "internalType": "uint8",
          "name": "level",
          "type": "uint8"
        },
        {
          "indexed": false,
          "internalType": "uint256",
          "name": "amount",
          "type": "uint256"
        }
      ],
      "name": "PrizeClaimed",
      "type": "event"
    },
    {
      "anonymous": false,
      "inputs": [
        {
          "indexed": true,
          "internalType": "address",
          "name": "player",
          "type": "address"
        },
        {
          "indexed": true,
          "internalType": "uint8",
          "name": "level",
          "type": "uint8"
        },
        {
          "indexed": true,
          "internalType": "uint256",
          "name": "cellId",
          "type": "uint256"
        },
        {
          "indexed": false,
          "internalType": "uint256",
          "name": "amount",
          "type": "uint256"
        },
        {
          "indexed": false,
          "internalType": "bool",
          "name": "pending",
          "type": "bool"
        }
      ],
      "name": "PrizePositionReached",
      "type": "event"
    },
    {
      "anonymous": false,
      "inputs": [
        {
          "indexed": true,
          "internalType": "uint8",
          "name": "level",
          "type": "uint8"
        },
        {
          "indexed": false,
          "internalType": "uint256",
          "name": "amount",
          "type": "uint256"
        },
        {
          "indexed": false,
          "internalType": "uint256",
          "name": "totalAccrued",
          "type": "uint256"
        }
      ],
      "name": "ProjectFeeAccrued",
      "type": "event"
    },
    {
      "anonymous": false,
      "inputs": [
        {
          "indexed": true,
          "internalType": "address",
          "name": "wallet",
          "type": "address"
        },
        {
          "indexed": false,
          "internalType": "uint256",
          "name": "amount",
          "type": "uint256"
        }
      ],
      "name": "ProjectFeesWithdrawn",
      "type": "event"
    },
    {
      "anonymous": false,
      "inputs": [
        {
          "indexed": true,
          "internalType": "address",
          "name": "player",
          "type": "address"
        },
        {
          "indexed": true,
          "internalType": "uint8",
          "name": "level",
          "type": "uint8"
        },
        {
          "indexed": true,
          "internalType": "uint256",
          "name": "queueIndex",
          "type": "uint256"
        }
      ],
      "name": "RecycleQueued",
      "type": "event"
    },
    {
      "anonymous": false,
      "inputs": [
        {
          "indexed": true,
          "internalType": "address",
          "name": "player",
          "type": "address"
        },
        {
          "indexed": true,
          "internalType": "uint8",
          "name": "level",
          "type": "uint8"
        },
        {
          "indexed": false,
          "internalType": "uint256",
          "name": "recycleCount",
          "type": "uint256"
        },
        {
          "indexed": false,
          "internalType": "uint256",
          "name": "newCellId",
          "type": "uint256"
        }
      ],
      "name": "Recycled",
      "type": "event"
    },
    {
      "anonymous": false,
      "inputs": [
        {
          "indexed": true,
          "internalType": "address",
          "name": "inviter",
          "type": "address"
        },
        {
          "indexed": true,
          "internalType": "address",
          "name": "invitee",
          "type": "address"
        },
        {
          "indexed": true,
          "internalType": "uint8",
          "name": "level",
          "type": "uint8"
        },
        {
          "indexed": false,
          "internalType": "uint256",
          "name": "bonusAmount",
          "type": "uint256"
        },
        {
          "indexed": false,
          "internalType": "uint256",
          "name": "weightAdded",
          "type": "uint256"
        }
      ],
      "name": "ReferralBonusAdded",
      "type": "event"
    },
    {
      "anonymous": false,
      "inputs": [
        {
          "indexed": true,
          "internalType": "address",
          "name": "player",
          "type": "address"
        },
        {
          "indexed": false,
          "internalType": "uint256",
          "name": "amount",
          "type": "uint256"
        }
      ],
      "name": "ReferralBonusClaimed",
      "type": "event"
    },
    {
      "anonymous": false,
      "inputs": [
        {
          "indexed": true,
          "internalType": "address",
          "name": "player",
          "type": "address"
        },
        {
          "indexed": true,
          "internalType": "uint256",
          "name": "roundId",
          "type": "uint256"
        },
        {
          "indexed": true,
          "internalType": "uint8",
          "name": "level",
          "type": "uint8"
        },
        {
          "indexed": false,
          "internalType": "uint256",
          "name": "amount",
          "type": "uint256"
        },
        {
          "indexed": false,
          "internalType": "uint256",
          "name": "cellId",
          "type": "uint256"
        },
        {
          "indexed": false,
          "internalType": "bool",
          "name": "paidWithUsdc",
          "type": "bool"
        }
      ],
      "name": "RoundActivated",
      "type": "event"
    },
    {
      "anonymous": false,
      "inputs": [
        {
          "indexed": true,
          "internalType": "address",
          "name": "oldManager",
          "type": "address"
        },
        {
          "indexed": true,
          "internalType": "address",
          "name": "newManager",
          "type": "address"
        }
      ],
      "name": "RoundManagerChanged",
      "type": "event"
    },
    {
      "anonymous": false,
      "inputs": [
        {
          "indexed": true,
          "internalType": "address",
          "name": "player",
          "type": "address"
        },
        {
          "indexed": true,
          "internalType": "uint256",
          "name": "roundId",
          "type": "uint256"
        },
        {
          "indexed": true,
          "internalType": "uint256",
          "name": "cellId",
          "type": "uint256"
        },
        {
          "indexed": false,
          "internalType": "uint256",
          "name": "parentCellId",
          "type": "uint256"
        }
      ],
      "name": "RoundMatrixPlaced",
      "type": "event"
    },
    {
      "anonymous": false,
      "inputs": [
        {
          "indexed": true,
          "internalType": "address",
          "name": "player",
          "type": "address"
        },
        {
          "indexed": true,
          "internalType": "uint256",
          "name": "roundId",
          "type": "uint256"
        },
        {
          "indexed": false,
          "internalType": "uint256",
          "name": "matrixPrizeAmount",
          "type": "uint256"
        },
        {
          "indexed": false,
          "internalType": "uint256",
          "name": "directReferralAmount",
          "type": "uint256"
        },
        {
          "indexed": false,
          "internalType": "uint256",
          "name": "secondLineAmount",
          "type": "uint256"
        },
        {
          "indexed": false,
          "internalType": "uint256",
          "name": "thirdLineAmount",
          "type": "uint256"
        },
        {
          "indexed": false,
          "internalType": "uint256",
          "name": "projectFeeAmount",
          "type": "uint256"
        },
        {
          "indexed": false,
          "internalType": "bool",
          "name": "paidWithUsdc",
          "type": "bool"
        }
      ],
      "name": "RoundPaymentSplit",
      "type": "event"
    },
    {
      "anonymous": false,
      "inputs": [
        {
          "indexed": true,
          "internalType": "uint256",
          "name": "roundId",
          "type": "uint256"
        },
        {
          "indexed": true,
          "internalType": "address",
          "name": "settlement",
          "type": "address"
        },
        {
          "indexed": false,
          "internalType": "uint256",
          "name": "ethAmount",
          "type": "uint256"
        },
        {
          "indexed": false,
          "internalType": "uint256",
          "name": "usdcAmount",
          "type": "uint256"
        }
      ],
      "name": "RoundPoolsReleased",
      "type": "event"
    },
    {
      "anonymous": false,
      "inputs": [
        {
          "indexed": true,
          "internalType": "uint256",
          "name": "roundId",
          "type": "uint256"
        },
        {
          "indexed": false,
          "internalType": "uint256",
          "name": "processed",
          "type": "uint256"
        },
        {
          "indexed": false,
          "internalType": "uint256",
          "name": "remaining",
          "type": "uint256"
        }
      ],
      "name": "RoundRecycleBatchProcessed",
      "type": "event"
    },
    {
      "anonymous": false,
      "inputs": [
        {
          "indexed": true,
          "internalType": "address",
          "name": "player",
          "type": "address"
        },
        {
          "indexed": true,
          "internalType": "uint256",
          "name": "roundId",
          "type": "uint256"
        },
        {
          "indexed": false,
          "internalType": "uint256",
          "name": "cycleCount",
          "type": "uint256"
        },
        {
          "indexed": false,
          "internalType": "uint256",
          "name": "newCellId",
          "type": "uint256"
        }
      ],
      "name": "RoundRecycled",
      "type": "event"
    },
    {
      "anonymous": false,
      "inputs": [
        {
          "indexed": true,
          "internalType": "address",
          "name": "player",
          "type": "address"
        },
        {
          "indexed": true,
          "internalType": "uint256",
          "name": "roundId",
          "type": "uint256"
        },
        {
          "indexed": false,
          "internalType": "uint256",
          "name": "totalWeight",
          "type": "uint256"
        }
      ],
      "name": "RoundWeightUpdated",
      "type": "event"
    },
    {
      "anonymous": false,
      "inputs": [
        {
          "indexed": true,
          "internalType": "address",
          "name": "inviter",
          "type": "address"
        },
        {
          "indexed": true,
          "internalType": "address",
          "name": "invitee",
          "type": "address"
        },
        {
          "indexed": true,
          "internalType": "uint8",
          "name": "level",
          "type": "uint8"
        },
        {
          "indexed": false,
          "internalType": "uint256",
          "name": "bonusAmount",
          "type": "uint256"
        },
        {
          "indexed": false,
          "internalType": "uint256",
          "name": "weightAdded",
          "type": "uint256"
        }
      ],
      "name": "SecondLineBonusAdded",
      "type": "event"
    },
    {
      "anonymous": false,
      "inputs": [
        {
          "indexed": true,
          "internalType": "address",
          "name": "oldSettlement",
          "type": "address"
        },
        {
          "indexed": true,
          "internalType": "address",
          "name": "newSettlement",
          "type": "address"
        }
      ],
      "name": "SettlementContractChanged",
      "type": "event"
    },
    {
      "anonymous": false,
      "inputs": [
        {
          "indexed": true,
          "internalType": "address",
          "name": "inviter",
          "type": "address"
        },
        {
          "indexed": true,
          "internalType": "address",
          "name": "invitee",
          "type": "address"
        },
        {
          "indexed": true,
          "internalType": "uint8",
          "name": "level",
          "type": "uint8"
        },
        {
          "indexed": false,
          "internalType": "uint256",
          "name": "bonusAmount",
          "type": "uint256"
        },
        {
          "indexed": false,
          "internalType": "uint256",
          "name": "weightAdded",
          "type": "uint256"
        }
      ],
      "name": "ThirdLineBonusAdded",
      "type": "event"
    },
    {
      "anonymous": false,
      "inputs": [
        {
          "indexed": true,
          "internalType": "address",
          "name": "player",
          "type": "address"
        },
        {
          "indexed": true,
          "internalType": "uint8",
          "name": "level",
          "type": "uint8"
        },
        {
          "indexed": true,
          "internalType": "address",
          "name": "token",
          "type": "address"
        },
        {
          "indexed": false,
          "internalType": "uint256",
          "name": "matrixPrizeAmount",
          "type": "uint256"
        },
        {
          "indexed": false,
          "internalType": "uint256",
          "name": "directReferralAmount",
          "type": "uint256"
        },
        {
          "indexed": false,
          "internalType": "uint256",
          "name": "secondLineAmount",
          "type": "uint256"
        },
        {
          "indexed": false,
          "internalType": "uint256",
          "name": "thirdLineAmount",
          "type": "uint256"
        },
        {
          "indexed": false,
          "internalType": "uint256",
          "name": "projectFeeAmount",
          "type": "uint256"
        }
      ],
      "name": "TokenPaymentSplit",
      "type": "event"
    },
    {
      "anonymous": false,
      "inputs": [
        {
          "indexed": true,
          "internalType": "address",
          "name": "player",
          "type": "address"
        },
        {
          "indexed": true,
          "internalType": "address",
          "name": "token",
          "type": "address"
        },
        {
          "indexed": true,
          "internalType": "uint8",
          "name": "level",
          "type": "uint8"
        },
        {
          "indexed": false,
          "internalType": "uint256",
          "name": "amount",
          "type": "uint256"
        }
      ],
      "name": "TokenPrizeClaimed",
      "type": "event"
    },
    {
      "anonymous": false,
      "inputs": [
        {
          "indexed": true,
          "internalType": "address",
          "name": "player",
          "type": "address"
        },
        {
          "indexed": true,
          "internalType": "uint8",
          "name": "level",
          "type": "uint8"
        },
        {
          "indexed": true,
          "internalType": "address",
          "name": "token",
          "type": "address"
        },
        {
          "indexed": false,
          "internalType": "uint256",
          "name": "cellId",
          "type": "uint256"
        },
        {
          "indexed": false,
          "internalType": "uint256",
          "name": "amount",
          "type": "uint256"
        },
        {
          "indexed": false,
          "internalType": "bool",
          "name": "pending",
          "type": "bool"
        }
      ],
      "name": "TokenPrizePositionReached",
      "type": "event"
    },
    {
      "anonymous": false,
      "inputs": [
        {
          "indexed": true,
          "internalType": "address",
          "name": "token",
          "type": "address"
        },
        {
          "indexed": true,
          "internalType": "uint8",
          "name": "level",
          "type": "uint8"
        },
        {
          "indexed": false,
          "internalType": "uint256",
          "name": "amount",
          "type": "uint256"
        },
        {
          "indexed": false,
          "internalType": "uint256",
          "name": "totalAccrued",
          "type": "uint256"
        }
      ],
      "name": "TokenProjectFeeAccrued",
      "type": "event"
    },
    {
      "anonymous": false,
      "inputs": [
        {
          "indexed": true,
          "internalType": "address",
          "name": "token",
          "type": "address"
        },
        {
          "indexed": true,
          "internalType": "address",
          "name": "wallet",
          "type": "address"
        },
        {
          "indexed": false,
          "internalType": "uint256",
          "name": "amount",
          "type": "uint256"
        }
      ],
      "name": "TokenProjectFeesWithdrawn",
      "type": "event"
    },
    {
      "anonymous": false,
      "inputs": [
        {
          "indexed": true,
          "internalType": "address",
          "name": "player",
          "type": "address"
        },
        {
          "indexed": true,
          "internalType": "address",
          "name": "token",
          "type": "address"
        },
        {
          "indexed": false,
          "internalType": "uint256",
          "name": "amount",
          "type": "uint256"
        }
      ],
      "name": "TokenReferralBonusClaimed",
      "type": "event"
    },
    {
      "anonymous": false,
      "inputs": [
        {
          "indexed": true,
          "internalType": "address",
          "name": "oldToken",
          "type": "address"
        },
        {
          "indexed": true,
          "internalType": "address",
          "name": "newToken",
          "type": "address"
        }
      ],
      "name": "UsdcTokenChanged",
      "type": "event"
    },
    {
      "anonymous": false,
      "inputs": [
        {
          "indexed": false,
          "internalType": "address",
          "name": "projectWallet",
          "type": "address"
        },
        {
          "indexed": false,
          "internalType": "address",
          "name": "treasuryWallet",
          "type": "address"
        },
        {
          "indexed": false,
          "internalType": "address",
          "name": "operatorWallet",
          "type": "address"
        }
      ],
      "name": "WalletsChanged",
      "type": "event"
    },
    {
      "anonymous": false,
      "inputs": [
        {
          "indexed": true,
          "internalType": "address",
          "name": "player",
          "type": "address"
        },
        {
          "indexed": true,
          "internalType": "uint8",
          "name": "level",
          "type": "uint8"
        },
        {
          "indexed": false,
          "internalType": "uint256",
          "name": "totalWeight",
          "type": "uint256"
        }
      ],
      "name": "WeightUpdated",
      "type": "event"
    },
    {
      "inputs": [],
      "name": "BASE_ACTIVATION_WEIGHT",
      "outputs": [
        {
          "internalType": "uint256",
          "name": "",
          "type": "uint256"
        }
      ],
      "stateMutability": "view",
      "type": "function"
    },
    {
      "inputs": [],
      "name": "BOX_NFT_WEIGHT",
      "outputs": [
        {
          "internalType": "uint256",
          "name": "",
          "type": "uint256"
        }
      ],
      "stateMutability": "view",
      "type": "function"
    },
    {
      "inputs": [],
      "name": "BPS",
      "outputs": [
        {
          "internalType": "uint256",
          "name": "",
          "type": "uint256"
        }
      ],
      "stateMutability": "view",
      "type": "function"
    },
    {
      "inputs": [],
      "name": "DIRECT_REF_BPS",
      "outputs": [
        {
          "internalType": "uint256",
          "name": "",
          "type": "uint256"
        }
      ],
      "stateMutability": "view",
      "type": "function"
    },
    {
      "inputs": [],
      "name": "DIRECT_REF_WEIGHT",
      "outputs": [
        {
          "internalType": "uint256",
          "name": "",
          "type": "uint256"
        }
      ],
      "stateMutability": "view",
      "type": "function"
    },
    {
      "inputs": [],
      "name": "DRAW_REWARD_BPS",
      "outputs": [
        {
          "internalType": "uint256",
          "name": "",
          "type": "uint256"
        }
      ],
      "stateMutability": "view",
      "type": "function"
    },
    {
      "inputs": [],
      "name": "LEVEL_COUNT",
      "outputs": [
        {
          "internalType": "uint8",
          "name": "",
          "type": "uint8"
        }
      ],
      "stateMutability": "view",
      "type": "function"
    },
    {
      "inputs": [],
      "name": "MATRIX_PRIZE_BPS",
      "outputs": [
        {
          "internalType": "uint256",
          "name": "",
          "type": "uint256"
        }
      ],
      "stateMutability": "view",
      "type": "function"
    },
    {
      "inputs": [],
      "name": "MAX_BASE_WEIGHT_PER_LEVEL",
      "outputs": [
        {
          "internalType": "uint256",
          "name": "",
          "type": "uint256"
        }
      ],
      "stateMutability": "view",
      "type": "function"
    },
    {
      "inputs": [],
      "name": "MAX_LOYALTY_WEIGHT_PER_LEVEL",
      "outputs": [
        {
          "internalType": "uint256",
          "name": "",
          "type": "uint256"
        }
      ],
      "stateMutability": "view",
      "type": "function"
    },
    {
      "inputs": [],
      "name": "MAX_MATRIX_WEIGHT_PER_LEVEL",
      "outputs": [
        {
          "internalType": "uint256",
          "name": "",
          "type": "uint256"
        }
      ],
      "stateMutability": "view",
      "type": "function"
    },
    {
      "inputs": [],
      "name": "MAX_NFT_WEIGHT_PER_LEVEL",
      "outputs": [
        {
          "internalType": "uint256",
          "name": "",
          "type": "uint256"
        }
      ],
      "stateMutability": "view",
      "type": "function"
    },
    {
      "inputs": [],
      "name": "MAX_RECYCLE_STEPS_PER_TX",
      "outputs": [
        {
          "internalType": "uint8",
          "name": "",
          "type": "uint8"
        }
      ],
      "stateMutability": "view",
      "type": "function"
    },
    {
      "inputs": [],
      "name": "MAX_REFERRAL_WEIGHT_PER_LEVEL",
      "outputs": [
        {
          "internalType": "uint256",
          "name": "",
          "type": "uint256"
        }
      ],
      "stateMutability": "view",
      "type": "function"
    },
    {
      "inputs": [],
      "name": "MAX_TOTAL_WEIGHT_PER_LEVEL",
      "outputs": [
        {
          "internalType": "uint256",
          "name": "",
          "type": "uint256"
        }
      ],
      "stateMutability": "view",
      "type": "function"
    },
    {
      "inputs": [],
      "name": "PRIZE_POSITION_BPS",
      "outputs": [
        {
          "internalType": "uint256",
          "name": "",
          "type": "uint256"
        }
      ],
      "stateMutability": "view",
      "type": "function"
    },
    {
      "inputs": [],
      "name": "PROJECT_FEE_BPS",
      "outputs": [
        {
          "internalType": "uint256",
          "name": "",
          "type": "uint256"
        }
      ],
      "stateMutability": "view",
      "type": "function"
    },
    {
      "inputs": [],
      "name": "RECYCLE_MATRIX_WEIGHT",
      "outputs": [
        {
          "internalType": "uint256",
          "name": "",
          "type": "uint256"
        }
      ],
      "stateMutability": "view",
      "type": "function"
    },
    {
      "inputs": [],
      "name": "SECOND_REF_BPS",
      "outputs": [
        {
          "internalType": "uint256",
          "name": "",
          "type": "uint256"
        }
      ],
      "stateMutability": "view",
      "type": "function"
    },
    {
      "inputs": [],
      "name": "SECOND_REF_WEIGHT",
      "outputs": [
        {
          "internalType": "uint256",
          "name": "",
          "type": "uint256"
        }
      ],
      "stateMutability": "view",
      "type": "function"
    },
    {
      "inputs": [],
      "name": "THIRD_REF_BPS",
      "outputs": [
        {
          "internalType": "uint256",
          "name": "",
          "type": "uint256"
        }
      ],
      "stateMutability": "view",
      "type": "function"
    },
    {
      "inputs": [],
      "name": "THIRD_REF_WEIGHT",
      "outputs": [
        {
          "internalType": "uint256",
          "name": "",
          "type": "uint256"
        }
      ],
      "stateMutability": "view",
      "type": "function"
    },
    {
      "inputs": [],
      "name": "WEEKLY_LOYALTY_WEIGHT",
      "outputs": [
        {
          "internalType": "uint256",
          "name": "",
          "type": "uint256"
        }
      ],
      "stateMutability": "view",
      "type": "function"
    },
    {
      "inputs": [],
      "name": "WEIGHT_SCALE",
      "outputs": [
        {
          "internalType": "uint256",
          "name": "",
          "type": "uint256"
        }
      ],
      "stateMutability": "view",
      "type": "function"
    },
    {
      "inputs": [
        {
          "components": [
            {
              "internalType": "uint256",
              "name": "seasonId",
              "type": "uint256"
            },
            {
              "internalType": "uint256",
              "name": "roundId",
              "type": "uint256"
            },
            {
              "internalType": "uint8",
              "name": "level",
              "type": "uint8"
            },
            {
              "internalType": "uint64",
              "name": "startsAt",
              "type": "uint64"
            },
            {
              "internalType": "uint64",
              "name": "entriesCloseAt",
              "type": "uint64"
            },
            {
              "internalType": "uint64",
              "name": "endsAt",
              "type": "uint64"
            },
            {
              "internalType": "uint64",
              "name": "freezeClosesAt",
              "type": "uint64"
            },
            {
              "internalType": "uint32",
              "name": "maxPlayers",
              "type": "uint32"
            },
            {
              "internalType": "uint16",
              "name": "maxWinners",
              "type": "uint16"
            },
            {
              "internalType": "bytes32",
              "name": "winningCellsRoot",
              "type": "bytes32"
            },
            {
              "internalType": "uint256",
              "name": "ethPrice",
              "type": "uint256"
            },
            {
              "internalType": "uint256",
              "name": "usdcPrice",
              "type": "uint256"
            },
            {
              "internalType": "uint16",
              "name": "freezeLimit",
              "type": "uint16"
            },
            {
              "internalType": "uint16",
              "name": "paymentSplitVersion",
              "type": "uint16"
            }
          ],
          "internalType": "struct RoundConfig",
          "name": "config",
          "type": "tuple"
        },
        {
          "internalType": "bytes",
          "name": "signature",
          "type": "bytes"
        },
        {
          "internalType": "address",
          "name": "inviter",
          "type": "address"
        }
      ],
      "name": "activateRound",
      "outputs": [],
      "stateMutability": "payable",
      "type": "function"
    },
    {
      "inputs": [
        {
          "components": [
            {
              "internalType": "uint256",
              "name": "seasonId",
              "type": "uint256"
            },
            {
              "internalType": "uint256",
              "name": "roundId",
              "type": "uint256"
            },
            {
              "internalType": "uint8",
              "name": "level",
              "type": "uint8"
            },
            {
              "internalType": "uint64",
              "name": "startsAt",
              "type": "uint64"
            },
            {
              "internalType": "uint64",
              "name": "entriesCloseAt",
              "type": "uint64"
            },
            {
              "internalType": "uint64",
              "name": "endsAt",
              "type": "uint64"
            },
            {
              "internalType": "uint64",
              "name": "freezeClosesAt",
              "type": "uint64"
            },
            {
              "internalType": "uint32",
              "name": "maxPlayers",
              "type": "uint32"
            },
            {
              "internalType": "uint16",
              "name": "maxWinners",
              "type": "uint16"
            },
            {
              "internalType": "bytes32",
              "name": "winningCellsRoot",
              "type": "bytes32"
            },
            {
              "internalType": "uint256",
              "name": "ethPrice",
              "type": "uint256"
            },
            {
              "internalType": "uint256",
              "name": "usdcPrice",
              "type": "uint256"
            },
            {
              "internalType": "uint16",
              "name": "freezeLimit",
              "type": "uint16"
            },
            {
              "internalType": "uint16",
              "name": "paymentSplitVersion",
              "type": "uint16"
            }
          ],
          "internalType": "struct RoundConfig",
          "name": "config",
          "type": "tuple"
        },
        {
          "internalType": "bytes",
          "name": "signature",
          "type": "bytes"
        },
        {
          "internalType": "address",
          "name": "player",
          "type": "address"
        },
        {
          "internalType": "address",
          "name": "inviter",
          "type": "address"
        }
      ],
      "name": "activateRoundFromBasePay",
      "outputs": [],
      "stateMutability": "nonpayable",
      "type": "function"
    },
    {
      "inputs": [
        {
          "components": [
            {
              "internalType": "uint256",
              "name": "seasonId",
              "type": "uint256"
            },
            {
              "internalType": "uint256",
              "name": "roundId",
              "type": "uint256"
            },
            {
              "internalType": "uint8",
              "name": "level",
              "type": "uint8"
            },
            {
              "internalType": "uint64",
              "name": "startsAt",
              "type": "uint64"
            },
            {
              "internalType": "uint64",
              "name": "entriesCloseAt",
              "type": "uint64"
            },
            {
              "internalType": "uint64",
              "name": "endsAt",
              "type": "uint64"
            },
            {
              "internalType": "uint64",
              "name": "freezeClosesAt",
              "type": "uint64"
            },
            {
              "internalType": "uint32",
              "name": "maxPlayers",
              "type": "uint32"
            },
            {
              "internalType": "uint16",
              "name": "maxWinners",
              "type": "uint16"
            },
            {
              "internalType": "bytes32",
              "name": "winningCellsRoot",
              "type": "bytes32"
            },
            {
              "internalType": "uint256",
              "name": "ethPrice",
              "type": "uint256"
            },
            {
              "internalType": "uint256",
              "name": "usdcPrice",
              "type": "uint256"
            },
            {
              "internalType": "uint16",
              "name": "freezeLimit",
              "type": "uint16"
            },
            {
              "internalType": "uint16",
              "name": "paymentSplitVersion",
              "type": "uint16"
            }
          ],
          "internalType": "struct RoundConfig",
          "name": "config",
          "type": "tuple"
        },
        {
          "internalType": "bytes",
          "name": "signature",
          "type": "bytes"
        },
        {
          "internalType": "address",
          "name": "inviter",
          "type": "address"
        }
      ],
      "name": "activateRoundWithUSDC",
      "outputs": [],
      "stateMutability": "nonpayable",
      "type": "function"
    },
    {
      "inputs": [
        {
          "internalType": "uint8",
          "name": "",
          "type": "uint8"
        }
      ],
      "name": "activeCellsByLevel",
      "outputs": [
        {
          "internalType": "uint256",
          "name": "",
          "type": "uint256"
        }
      ],
      "stateMutability": "view",
      "type": "function"
    },
    {
      "inputs": [],
      "name": "basePayGateway",
      "outputs": [
        {
          "internalType": "address",
          "name": "",
          "type": "address"
        }
      ],
      "stateMutability": "view",
      "type": "function"
    },
    {
      "inputs": [
        {
          "internalType": "uint8",
          "name": "level",
          "type": "uint8"
        }
      ],
      "name": "claimPrize",
      "outputs": [],
      "stateMutability": "nonpayable",
      "type": "function"
    },
    {
      "inputs": [
        {
          "internalType": "uint8",
          "name": "level",
          "type": "uint8"
        }
      ],
      "name": "claimPrizeUSDC",
      "outputs": [],
      "stateMutability": "nonpayable",
      "type": "function"
    },
    {
      "inputs": [],
      "name": "claimReferralBonus",
      "outputs": [],
      "stateMutability": "nonpayable",
      "type": "function"
    },
    {
      "inputs": [],
      "name": "claimReferralBonusUSDC",
      "outputs": [],
      "stateMutability": "nonpayable",
      "type": "function"
    },
    {
      "inputs": [
        {
          "internalType": "address",
          "name": "",
          "type": "address"
        }
      ],
      "name": "claimablePrizeUsdc",
      "outputs": [
        {
          "internalType": "uint256",
          "name": "",
          "type": "uint256"
        }
      ],
      "stateMutability": "view",
      "type": "function"
    },
    {
      "inputs": [
        {
          "internalType": "address",
          "name": "",
          "type": "address"
        },
        {
          "internalType": "uint8",
          "name": "",
          "type": "uint8"
        }
      ],
      "name": "claimablePrizeUsdcByLevel",
      "outputs": [
        {
          "internalType": "uint256",
          "name": "",
          "type": "uint256"
        }
      ],
      "stateMutability": "view",
      "type": "function"
    },
    {
      "inputs": [
        {
          "internalType": "address",
          "name": "",
          "type": "address"
        }
      ],
      "name": "claimableReferralBonusUsdc",
      "outputs": [
        {
          "internalType": "uint256",
          "name": "",
          "type": "uint256"
        }
      ],
      "stateMutability": "view",
      "type": "function"
    },
    {
      "inputs": [
        {
          "internalType": "uint8",
          "name": "level",
          "type": "uint8"
        }
      ],
      "name": "getLevelMatrixStats",
      "outputs": [
        {
          "internalType": "uint256",
          "name": "size",
          "type": "uint256"
        },
        {
          "internalType": "uint256",
          "name": "nextOpenParentId",
          "type": "uint256"
        }
      ],
      "stateMutability": "view",
      "type": "function"
    },
    {
      "inputs": [
        {
          "internalType": "uint8",
          "name": "level",
          "type": "uint8"
        }
      ],
      "name": "getLevelStats",
      "outputs": [
        {
          "internalType": "uint256",
          "name": "prizePool",
          "type": "uint256"
        },
        {
          "internalType": "uint256",
          "name": "totalWeight",
          "type": "uint256"
        },
        {
          "internalType": "uint256",
          "name": "activeCells",
          "type": "uint256"
        },
        {
          "internalType": "uint256",
          "name": "nextOpenParent",
          "type": "uint256"
        },
        {
          "internalType": "uint256",
          "name": "nextCell",
          "type": "uint256"
        }
      ],
      "stateMutability": "view",
      "type": "function"
    },
    {
      "inputs": [
        {
          "internalType": "uint8",
          "name": "level",
          "type": "uint8"
        }
      ],
      "name": "getLevelStatsUSDC",
      "outputs": [
        {
          "internalType": "uint256",
          "name": "prizePool",
          "type": "uint256"
        },
        {
          "internalType": "uint256",
          "name": "totalWeight",
          "type": "uint256"
        },
        {
          "internalType": "uint256",
          "name": "activeCells",
          "type": "uint256"
        },
        {
          "internalType": "uint256",
          "name": "nextOpenParent",
          "type": "uint256"
        },
        {
          "internalType": "uint256",
          "name": "nextCell",
          "type": "uint256"
        }
      ],
      "stateMutability": "view",
      "type": "function"
    },
    {
      "inputs": [
        {
          "internalType": "uint8",
          "name": "level",
          "type": "uint8"
        },
        {
          "internalType": "uint256",
          "name": "cellId",
          "type": "uint256"
        }
      ],
      "name": "getMatrixNode",
      "outputs": [
        {
          "components": [
            {
              "internalType": "uint256",
              "name": "cellId",
              "type": "uint256"
            },
            {
              "internalType": "address",
              "name": "player",
              "type": "address"
            },
            {
              "internalType": "uint8",
              "name": "level",
              "type": "uint8"
            },
            {
              "internalType": "uint256",
              "name": "parentCellId",
              "type": "uint256"
            },
            {
              "internalType": "uint256",
              "name": "leftChildCellId",
              "type": "uint256"
            },
            {
              "internalType": "uint256",
              "name": "rightChildCellId",
              "type": "uint256"
            },
            {
              "internalType": "bool",
              "name": "closed",
              "type": "bool"
            },
            {
              "internalType": "bool",
              "name": "prizeCell",
              "type": "bool"
            }
          ],
          "internalType": "struct MatrixNode",
          "name": "",
          "type": "tuple"
        }
      ],
      "stateMutability": "view",
      "type": "function"
    },
    {
      "inputs": [
        {
          "internalType": "uint8",
          "name": "level",
          "type": "uint8"
        },
        {
          "internalType": "uint256",
          "name": "currentCellId",
          "type": "uint256"
        }
      ],
      "name": "getNextPrizeCell",
      "outputs": [
        {
          "internalType": "uint256",
          "name": "",
          "type": "uint256"
        }
      ],
      "stateMutability": "pure",
      "type": "function"
    },
    {
      "inputs": [
        {
          "internalType": "uint8",
          "name": "level",
          "type": "uint8"
        }
      ],
      "name": "getPendingRecycleCount",
      "outputs": [
        {
          "internalType": "uint256",
          "name": "",
          "type": "uint256"
        }
      ],
      "stateMutability": "view",
      "type": "function"
    },
    {
      "inputs": [
        {
          "internalType": "address",
          "name": "playerAddress",
          "type": "address"
        }
      ],
      "name": "getPlayer",
      "outputs": [
        {
          "components": [
            {
              "internalType": "bool",
              "name": "exists",
              "type": "bool"
            },
            {
              "internalType": "address",
              "name": "wallet",
              "type": "address"
            },
            {
              "internalType": "address",
              "name": "inviter",
              "type": "address"
            },
            {
              "internalType": "address",
              "name": "secondLine",
              "type": "address"
            },
            {
              "internalType": "address",
              "name": "thirdLine",
              "type": "address"
            },
            {
              "internalType": "uint256",
              "name": "totalTickets",
              "type": "uint256"
            },
            {
              "internalType": "uint256",
              "name": "baseWeight",
              "type": "uint256"
            },
            {
              "internalType": "uint256",
              "name": "referralWeight",
              "type": "uint256"
            },
            {
              "internalType": "uint256",
              "name": "loyaltyWeight",
              "type": "uint256"
            },
            {
              "internalType": "uint256",
              "name": "matrixWeight",
              "type": "uint256"
            },
            {
              "internalType": "uint256",
              "name": "nftWeight",
              "type": "uint256"
            },
            {
              "internalType": "uint256",
              "name": "totalWeight",
              "type": "uint256"
            },
            {
              "internalType": "uint256",
              "name": "boxTokens",
              "type": "uint256"
            },
            {
              "internalType": "uint256",
              "name": "recycleCount",
              "type": "uint256"
            },
            {
              "internalType": "uint256",
              "name": "claimableReferralBonus",
              "type": "uint256"
            },
            {
              "internalType": "uint256",
              "name": "claimablePrize",
              "type": "uint256"
            },
            {
              "internalType": "uint256",
              "name": "pendingPrize",
              "type": "uint256"
            },
            {
              "internalType": "uint256",
              "name": "joinedAt",
              "type": "uint256"
            },
            {
              "internalType": "uint256",
              "name": "lastActiveAt",
              "type": "uint256"
            }
          ],
          "internalType": "struct Player",
          "name": "",
          "type": "tuple"
        }
      ],
      "stateMutability": "view",
      "type": "function"
    },
    {
      "inputs": [
        {
          "internalType": "address",
          "name": "playerAddress",
          "type": "address"
        },
        {
          "internalType": "uint8",
          "name": "level",
          "type": "uint8"
        }
      ],
      "name": "getPlayerChance",
      "outputs": [
        {
          "internalType": "uint256",
          "name": "chanceBps",
          "type": "uint256"
        }
      ],
      "stateMutability": "view",
      "type": "function"
    },
    {
      "inputs": [
        {
          "internalType": "address",
          "name": "playerAddress",
          "type": "address"
        },
        {
          "internalType": "uint8",
          "name": "level",
          "type": "uint8"
        }
      ],
      "name": "getPlayerLevel",
      "outputs": [
        {
          "internalType": "bool",
          "name": "active",
          "type": "bool"
        },
        {
          "internalType": "bool",
          "name": "frozen",
          "type": "bool"
        },
        {
          "internalType": "uint256",
          "name": "cycles",
          "type": "uint256"
        },
        {
          "internalType": "uint256",
          "name": "positionId",
          "type": "uint256"
        },
        {
          "internalType": "uint256",
          "name": "earned",
          "type": "uint256"
        }
      ],
      "stateMutability": "view",
      "type": "function"
    },
    {
      "inputs": [
        {
          "internalType": "address",
          "name": "playerAddress",
          "type": "address"
        },
        {
          "internalType": "uint8",
          "name": "level",
          "type": "uint8"
        }
      ],
      "name": "getPlayerLevelFull",
      "outputs": [
        {
          "components": [
            {
              "internalType": "bool",
              "name": "active",
              "type": "bool"
            },
            {
              "internalType": "bool",
              "name": "frozen",
              "type": "bool"
            },
            {
              "internalType": "uint256",
              "name": "tickets",
              "type": "uint256"
            },
            {
              "internalType": "uint256",
              "name": "cellId",
              "type": "uint256"
            },
            {
              "internalType": "uint256",
              "name": "parentCellId",
              "type": "uint256"
            },
            {
              "internalType": "uint256",
              "name": "leftChildCellId",
              "type": "uint256"
            },
            {
              "internalType": "uint256",
              "name": "rightChildCellId",
              "type": "uint256"
            },
            {
              "internalType": "uint256",
              "name": "cycleCount",
              "type": "uint256"
            },
            {
              "internalType": "uint256",
              "name": "levelWeight",
              "type": "uint256"
            },
            {
              "internalType": "uint256",
              "name": "claimablePrize",
              "type": "uint256"
            },
            {
              "internalType": "uint256",
              "name": "pendingPrize",
              "type": "uint256"
            }
          ],
          "internalType": "struct PlayerLevel",
          "name": "",
          "type": "tuple"
        }
      ],
      "stateMutability": "view",
      "type": "function"
    },
    {
      "inputs": [
        {
          "internalType": "address",
          "name": "playerAddress",
          "type": "address"
        },
        {
          "internalType": "uint8",
          "name": "level",
          "type": "uint8"
        }
      ],
      "name": "getPlayerPosition",
      "outputs": [
        {
          "internalType": "uint256",
          "name": "positionId",
          "type": "uint256"
        },
        {
          "internalType": "uint256",
          "name": "parentId",
          "type": "uint256"
        },
        {
          "internalType": "uint256",
          "name": "leftChildId",
          "type": "uint256"
        },
        {
          "internalType": "uint256",
          "name": "rightChildId",
          "type": "uint256"
        },
        {
          "internalType": "uint256",
          "name": "depth",
          "type": "uint256"
        },
        {
          "internalType": "bool",
          "name": "closed",
          "type": "bool"
        }
      ],
      "stateMutability": "view",
      "type": "function"
    },
    {
      "inputs": [
        {
          "internalType": "address",
          "name": "playerAddress",
          "type": "address"
        },
        {
          "internalType": "uint256",
          "name": "roundId",
          "type": "uint256"
        }
      ],
      "name": "getPlayerRound",
      "outputs": [
        {
          "components": [
            {
              "internalType": "bool",
              "name": "active",
              "type": "bool"
            },
            {
              "internalType": "bool",
              "name": "frozen",
              "type": "bool"
            },
            {
              "internalType": "uint8",
              "name": "level",
              "type": "uint8"
            },
            {
              "internalType": "uint256",
              "name": "tickets",
              "type": "uint256"
            },
            {
              "internalType": "uint256",
              "name": "cellId",
              "type": "uint256"
            },
            {
              "internalType": "uint256",
              "name": "parentCellId",
              "type": "uint256"
            },
            {
              "internalType": "uint256",
              "name": "leftChildCellId",
              "type": "uint256"
            },
            {
              "internalType": "uint256",
              "name": "rightChildCellId",
              "type": "uint256"
            },
            {
              "internalType": "uint256",
              "name": "cycleCount",
              "type": "uint256"
            },
            {
              "internalType": "uint256",
              "name": "totalWeight",
              "type": "uint256"
            },
            {
              "internalType": "uint256",
              "name": "claimablePrize",
              "type": "uint256"
            },
            {
              "internalType": "uint256",
              "name": "pendingPrize",
              "type": "uint256"
            },
            {
              "internalType": "uint256",
              "name": "claimablePrizeUsdc",
              "type": "uint256"
            },
            {
              "internalType": "uint256",
              "name": "pendingPrizeUsdc",
              "type": "uint256"
            }
          ],
          "internalType": "struct PlayerRound",
          "name": "",
          "type": "tuple"
        }
      ],
      "stateMutability": "view",
      "type": "function"
    },
    {
      "inputs": [
        {
          "internalType": "address",
          "name": "playerAddress",
          "type": "address"
        },
        {
          "internalType": "uint8",
          "name": "level",
          "type": "uint8"
        }
      ],
      "name": "getPlayerTokenRewards",
      "outputs": [
        {
          "internalType": "uint256",
          "name": "referralBonus",
          "type": "uint256"
        },
        {
          "internalType": "uint256",
          "name": "claimablePrize",
          "type": "uint256"
        },
        {
          "internalType": "uint256",
          "name": "pendingPrize",
          "type": "uint256"
        }
      ],
      "stateMutability": "view",
      "type": "function"
    },
    {
      "inputs": [
        {
          "internalType": "address",
          "name": "playerAddress",
          "type": "address"
        },
        {
          "internalType": "uint8",
          "name": "level",
          "type": "uint8"
        }
      ],
      "name": "getPlayerWeight",
      "outputs": [
        {
          "internalType": "uint256",
          "name": "",
          "type": "uint256"
        }
      ],
      "stateMutability": "view",
      "type": "function"
    },
    {
      "inputs": [
        {
          "internalType": "uint256",
          "name": "roundId",
          "type": "uint256"
        }
      ],
      "name": "getRoundGameStats",
      "outputs": [
        {
          "internalType": "uint256",
          "name": "prizePoolEth",
          "type": "uint256"
        },
        {
          "internalType": "uint256",
          "name": "prizePoolUsdc",
          "type": "uint256"
        },
        {
          "internalType": "uint256",
          "name": "totalWeight",
          "type": "uint256"
        },
        {
          "internalType": "uint256",
          "name": "activeCells",
          "type": "uint256"
        },
        {
          "internalType": "uint256",
          "name": "nextCell",
          "type": "uint256"
        },
        {
          "internalType": "uint256",
          "name": "nextOpenParent",
          "type": "uint256"
        }
      ],
      "stateMutability": "view",
      "type": "function"
    },
    {
      "inputs": [
        {
          "internalType": "uint256",
          "name": "roundId",
          "type": "uint256"
        },
        {
          "internalType": "uint256",
          "name": "cellId",
          "type": "uint256"
        }
      ],
      "name": "getRoundMatrixNode",
      "outputs": [
        {
          "components": [
            {
              "internalType": "uint256",
              "name": "cellId",
              "type": "uint256"
            },
            {
              "internalType": "address",
              "name": "player",
              "type": "address"
            },
            {
              "internalType": "uint8",
              "name": "level",
              "type": "uint8"
            },
            {
              "internalType": "uint256",
              "name": "parentCellId",
              "type": "uint256"
            },
            {
              "internalType": "uint256",
              "name": "leftChildCellId",
              "type": "uint256"
            },
            {
              "internalType": "uint256",
              "name": "rightChildCellId",
              "type": "uint256"
            },
            {
              "internalType": "bool",
              "name": "closed",
              "type": "bool"
            },
            {
              "internalType": "bool",
              "name": "prizeCell",
              "type": "bool"
            }
          ],
          "internalType": "struct MatrixNode",
          "name": "",
          "type": "tuple"
        }
      ],
      "stateMutability": "view",
      "type": "function"
    },
    {
      "inputs": [
        {
          "internalType": "uint256",
          "name": "roundId",
          "type": "uint256"
        }
      ],
      "name": "getRoundRecycleQueueState",
      "outputs": [
        {
          "internalType": "uint256",
          "name": "head",
          "type": "uint256"
        },
        {
          "internalType": "uint256",
          "name": "tail",
          "type": "uint256"
        },
        {
          "internalType": "uint256",
          "name": "pending",
          "type": "uint256"
        }
      ],
      "stateMutability": "view",
      "type": "function"
    },
    {
      "inputs": [
        {
          "internalType": "uint256",
          "name": "roundId",
          "type": "uint256"
        }
      ],
      "name": "hasPendingRoundRecycles",
      "outputs": [
        {
          "internalType": "bool",
          "name": "",
          "type": "bool"
        }
      ],
      "stateMutability": "view",
      "type": "function"
    },
    {
      "inputs": [
        {
          "internalType": "address",
          "name": "playerAddress",
          "type": "address"
        },
        {
          "internalType": "uint8",
          "name": "level",
          "type": "uint8"
        }
      ],
      "name": "isLevelActive",
      "outputs": [
        {
          "internalType": "bool",
          "name": "",
          "type": "bool"
        }
      ],
      "stateMutability": "view",
      "type": "function"
    },
    {
      "inputs": [
        {
          "internalType": "address",
          "name": "playerAddress",
          "type": "address"
        },
        {
          "internalType": "uint8",
          "name": "level",
          "type": "uint8"
        }
      ],
      "name": "isLevelFrozen",
      "outputs": [
        {
          "internalType": "bool",
          "name": "",
          "type": "bool"
        }
      ],
      "stateMutability": "view",
      "type": "function"
    },
    {
      "inputs": [],
      "name": "legacyActivationEnabled",
      "outputs": [
        {
          "internalType": "bool",
          "name": "",
          "type": "bool"
        }
      ],
      "stateMutability": "view",
      "type": "function"
    },
    {
      "inputs": [
        {
          "internalType": "uint8",
          "name": "",
          "type": "uint8"
        }
      ],
      "name": "levelAvailable",
      "outputs": [
        {
          "internalType": "bool",
          "name": "",
          "type": "bool"
        }
      ],
      "stateMutability": "view",
      "type": "function"
    },
    {
      "inputs": [
        {
          "internalType": "uint8",
          "name": "",
          "type": "uint8"
        }
      ],
      "name": "levelMatrixSize",
      "outputs": [
        {
          "internalType": "uint256",
          "name": "",
          "type": "uint256"
        }
      ],
      "stateMutability": "view",
      "type": "function"
    },
    {
      "inputs": [
        {
          "internalType": "uint8",
          "name": "",
          "type": "uint8"
        }
      ],
      "name": "levelPrices",
      "outputs": [
        {
          "internalType": "uint256",
          "name": "",
          "type": "uint256"
        }
      ],
      "stateMutability": "view",
      "type": "function"
    },
    {
      "inputs": [
        {
          "internalType": "uint8",
          "name": "",
          "type": "uint8"
        }
      ],
      "name": "levelPricesUsdc",
      "outputs": [
        {
          "internalType": "uint256",
          "name": "",
          "type": "uint256"
        }
      ],
      "stateMutability": "view",
      "type": "function"
    },
    {
      "inputs": [
        {
          "internalType": "uint8",
          "name": "",
          "type": "uint8"
        },
        {
          "internalType": "uint256",
          "name": "",
          "type": "uint256"
        }
      ],
      "name": "matrixNodes",
      "outputs": [
        {
          "internalType": "uint256",
          "name": "cellId",
          "type": "uint256"
        },
        {
          "internalType": "address",
          "name": "player",
          "type": "address"
        },
        {
          "internalType": "uint8",
          "name": "level",
          "type": "uint8"
        },
        {
          "internalType": "uint256",
          "name": "parentCellId",
          "type": "uint256"
        },
        {
          "internalType": "uint256",
          "name": "leftChildCellId",
          "type": "uint256"
        },
        {
          "internalType": "uint256",
          "name": "rightChildCellId",
          "type": "uint256"
        },
        {
          "internalType": "bool",
          "name": "closed",
          "type": "bool"
        },
        {
          "internalType": "bool",
          "name": "prizeCell",
          "type": "bool"
        }
      ],
      "stateMutability": "view",
      "type": "function"
    },
    {
      "inputs": [
        {
          "internalType": "uint8",
          "name": "",
          "type": "uint8"
        }
      ],
      "name": "matrixPrizePools",
      "outputs": [
        {
          "internalType": "uint256",
          "name": "",
          "type": "uint256"
        }
      ],
      "stateMutability": "view",
      "type": "function"
    },
    {
      "inputs": [
        {
          "internalType": "uint8",
          "name": "",
          "type": "uint8"
        }
      ],
      "name": "matrixPrizePoolsUsdc",
      "outputs": [
        {
          "internalType": "uint256",
          "name": "",
          "type": "uint256"
        }
      ],
      "stateMutability": "view",
      "type": "function"
    },
    {
      "inputs": [
        {
          "internalType": "uint8",
          "name": "",
          "type": "uint8"
        }
      ],
      "name": "nextCellId",
      "outputs": [
        {
          "internalType": "uint256",
          "name": "",
          "type": "uint256"
        }
      ],
      "stateMutability": "view",
      "type": "function"
    },
    {
      "inputs": [
        {
          "internalType": "uint8",
          "name": "",
          "type": "uint8"
        }
      ],
      "name": "nextOpenParentCellId",
      "outputs": [
        {
          "internalType": "uint256",
          "name": "",
          "type": "uint256"
        }
      ],
      "stateMutability": "view",
      "type": "function"
    },
    {
      "inputs": [],
      "name": "operatorWallet",
      "outputs": [
        {
          "internalType": "address",
          "name": "",
          "type": "address"
        }
      ],
      "stateMutability": "view",
      "type": "function"
    },
    {
      "inputs": [],
      "name": "owner",
      "outputs": [
        {
          "internalType": "address",
          "name": "",
          "type": "address"
        }
      ],
      "stateMutability": "view",
      "type": "function"
    },
    {
      "inputs": [
        {
          "internalType": "address",
          "name": "",
          "type": "address"
        }
      ],
      "name": "pendingPrizeUsdc",
      "outputs": [
        {
          "internalType": "uint256",
          "name": "",
          "type": "uint256"
        }
      ],
      "stateMutability": "view",
      "type": "function"
    },
    {
      "inputs": [
        {
          "internalType": "address",
          "name": "",
          "type": "address"
        },
        {
          "internalType": "uint8",
          "name": "",
          "type": "uint8"
        }
      ],
      "name": "pendingPrizeUsdcByLevel",
      "outputs": [
        {
          "internalType": "uint256",
          "name": "",
          "type": "uint256"
        }
      ],
      "stateMutability": "view",
      "type": "function"
    },
    {
      "inputs": [
        {
          "internalType": "address",
          "name": "",
          "type": "address"
        },
        {
          "internalType": "uint8",
          "name": "",
          "type": "uint8"
        }
      ],
      "name": "playerLevels",
      "outputs": [
        {
          "internalType": "bool",
          "name": "active",
          "type": "bool"
        },
        {
          "internalType": "bool",
          "name": "frozen",
          "type": "bool"
        },
        {
          "internalType": "uint256",
          "name": "tickets",
          "type": "uint256"
        },
        {
          "internalType": "uint256",
          "name": "cellId",
          "type": "uint256"
        },
        {
          "internalType": "uint256",
          "name": "parentCellId",
          "type": "uint256"
        },
        {
          "internalType": "uint256",
          "name": "leftChildCellId",
          "type": "uint256"
        },
        {
          "internalType": "uint256",
          "name": "rightChildCellId",
          "type": "uint256"
        },
        {
          "internalType": "uint256",
          "name": "cycleCount",
          "type": "uint256"
        },
        {
          "internalType": "uint256",
          "name": "levelWeight",
          "type": "uint256"
        },
        {
          "internalType": "uint256",
          "name": "claimablePrize",
          "type": "uint256"
        },
        {
          "internalType": "uint256",
          "name": "pendingPrize",
          "type": "uint256"
        }
      ],
      "stateMutability": "view",
      "type": "function"
    },
    {
      "inputs": [
        {
          "internalType": "address",
          "name": "",
          "type": "address"
        },
        {
          "internalType": "uint256",
          "name": "",
          "type": "uint256"
        }
      ],
      "name": "playerRounds",
      "outputs": [
        {
          "internalType": "bool",
          "name": "active",
          "type": "bool"
        },
        {
          "internalType": "bool",
          "name": "frozen",
          "type": "bool"
        },
        {
          "internalType": "uint8",
          "name": "level",
          "type": "uint8"
        },
        {
          "internalType": "uint256",
          "name": "tickets",
          "type": "uint256"
        },
        {
          "internalType": "uint256",
          "name": "cellId",
          "type": "uint256"
        },
        {
          "internalType": "uint256",
          "name": "parentCellId",
          "type": "uint256"
        },
        {
          "internalType": "uint256",
          "name": "leftChildCellId",
          "type": "uint256"
        },
        {
          "internalType": "uint256",
          "name": "rightChildCellId",
          "type": "uint256"
        },
        {
          "internalType": "uint256",
          "name": "cycleCount",
          "type": "uint256"
        },
        {
          "internalType": "uint256",
          "name": "totalWeight",
          "type": "uint256"
        },
        {
          "internalType": "uint256",
          "name": "claimablePrize",
          "type": "uint256"
        },
        {
          "internalType": "uint256",
          "name": "pendingPrize",
          "type": "uint256"
        },
        {
          "internalType": "uint256",
          "name": "claimablePrizeUsdc",
          "type": "uint256"
        },
        {
          "internalType": "uint256",
          "name": "pendingPrizeUsdc",
          "type": "uint256"
        }
      ],
      "stateMutability": "view",
      "type": "function"
    },
    {
      "inputs": [
        {
          "internalType": "address",
          "name": "",
          "type": "address"
        }
      ],
      "name": "players",
      "outputs": [
        {
          "internalType": "bool",
          "name": "exists",
          "type": "bool"
        },
        {
          "internalType": "address",
          "name": "wallet",
          "type": "address"
        },
        {
          "internalType": "address",
          "name": "inviter",
          "type": "address"
        },
        {
          "internalType": "address",
          "name": "secondLine",
          "type": "address"
        },
        {
          "internalType": "address",
          "name": "thirdLine",
          "type": "address"
        },
        {
          "internalType": "uint256",
          "name": "totalTickets",
          "type": "uint256"
        },
        {
          "internalType": "uint256",
          "name": "baseWeight",
          "type": "uint256"
        },
        {
          "internalType": "uint256",
          "name": "referralWeight",
          "type": "uint256"
        },
        {
          "internalType": "uint256",
          "name": "loyaltyWeight",
          "type": "uint256"
        },
        {
          "internalType": "uint256",
          "name": "matrixWeight",
          "type": "uint256"
        },
        {
          "internalType": "uint256",
          "name": "nftWeight",
          "type": "uint256"
        },
        {
          "internalType": "uint256",
          "name": "totalWeight",
          "type": "uint256"
        },
        {
          "internalType": "uint256",
          "name": "boxTokens",
          "type": "uint256"
        },
        {
          "internalType": "uint256",
          "name": "recycleCount",
          "type": "uint256"
        },
        {
          "internalType": "uint256",
          "name": "claimableReferralBonus",
          "type": "uint256"
        },
        {
          "internalType": "uint256",
          "name": "claimablePrize",
          "type": "uint256"
        },
        {
          "internalType": "uint256",
          "name": "pendingPrize",
          "type": "uint256"
        },
        {
          "internalType": "uint256",
          "name": "joinedAt",
          "type": "uint256"
        },
        {
          "internalType": "uint256",
          "name": "lastActiveAt",
          "type": "uint256"
        }
      ],
      "stateMutability": "view",
      "type": "function"
    },
    {
      "inputs": [
        {
          "internalType": "uint256",
          "name": "roundId",
          "type": "uint256"
        },
        {
          "internalType": "uint256",
          "name": "maxSteps",
          "type": "uint256"
        }
      ],
      "name": "processRoundRecycles",
      "outputs": [
        {
          "internalType": "uint256",
          "name": "processed",
          "type": "uint256"
        },
        {
          "internalType": "uint256",
          "name": "remaining",
          "type": "uint256"
        }
      ],
      "stateMutability": "nonpayable",
      "type": "function"
    },
    {
      "inputs": [],
      "name": "projectFeesAccrued",
      "outputs": [
        {
          "internalType": "uint256",
          "name": "",
          "type": "uint256"
        }
      ],
      "stateMutability": "view",
      "type": "function"
    },
    {
      "inputs": [],
      "name": "projectFeesAccruedUsdc",
      "outputs": [
        {
          "internalType": "uint256",
          "name": "",
          "type": "uint256"
        }
      ],
      "stateMutability": "view",
      "type": "function"
    },
    {
      "inputs": [],
      "name": "projectWallet",
      "outputs": [
        {
          "internalType": "address",
          "name": "",
          "type": "address"
        }
      ],
      "stateMutability": "view",
      "type": "function"
    },
    {
      "inputs": [
        {
          "internalType": "uint256",
          "name": "roundId",
          "type": "uint256"
        }
      ],
      "name": "releaseRoundPools",
      "outputs": [
        {
          "internalType": "uint256",
          "name": "ethAmount",
          "type": "uint256"
        },
        {
          "internalType": "uint256",
          "name": "usdcAmount",
          "type": "uint256"
        }
      ],
      "stateMutability": "nonpayable",
      "type": "function"
    },
    {
      "inputs": [
        {
          "internalType": "uint256",
          "name": "",
          "type": "uint256"
        }
      ],
      "name": "roundActiveCells",
      "outputs": [
        {
          "internalType": "uint256",
          "name": "",
          "type": "uint256"
        }
      ],
      "stateMutability": "view",
      "type": "function"
    },
    {
      "inputs": [],
      "name": "roundManager",
      "outputs": [
        {
          "internalType": "address",
          "name": "",
          "type": "address"
        }
      ],
      "stateMutability": "view",
      "type": "function"
    },
    {
      "inputs": [
        {
          "internalType": "uint256",
          "name": "",
          "type": "uint256"
        },
        {
          "internalType": "uint256",
          "name": "",
          "type": "uint256"
        }
      ],
      "name": "roundMatrixNodes",
      "outputs": [
        {
          "internalType": "uint256",
          "name": "cellId",
          "type": "uint256"
        },
        {
          "internalType": "address",
          "name": "player",
          "type": "address"
        },
        {
          "internalType": "uint8",
          "name": "level",
          "type": "uint8"
        },
        {
          "internalType": "uint256",
          "name": "parentCellId",
          "type": "uint256"
        },
        {
          "internalType": "uint256",
          "name": "leftChildCellId",
          "type": "uint256"
        },
        {
          "internalType": "uint256",
          "name": "rightChildCellId",
          "type": "uint256"
        },
        {
          "internalType": "bool",
          "name": "closed",
          "type": "bool"
        },
        {
          "internalType": "bool",
          "name": "prizeCell",
          "type": "bool"
        }
      ],
      "stateMutability": "view",
      "type": "function"
    },
    {
      "inputs": [
        {
          "internalType": "uint256",
          "name": "",
          "type": "uint256"
        }
      ],
      "name": "roundNextCellId",
      "outputs": [
        {
          "internalType": "uint256",
          "name": "",
          "type": "uint256"
        }
      ],
      "stateMutability": "view",
      "type": "function"
    },
    {
      "inputs": [
        {
          "internalType": "uint256",
          "name": "",
          "type": "uint256"
        }
      ],
      "name": "roundNextOpenParentCellId",
      "outputs": [
        {
          "internalType": "uint256",
          "name": "",
          "type": "uint256"
        }
      ],
      "stateMutability": "view",
      "type": "function"
    },
    {
      "inputs": [
        {
          "internalType": "uint256",
          "name": "",
          "type": "uint256"
        }
      ],
      "name": "roundPrizePools",
      "outputs": [
        {
          "internalType": "uint256",
          "name": "",
          "type": "uint256"
        }
      ],
      "stateMutability": "view",
      "type": "function"
    },
    {
      "inputs": [
        {
          "internalType": "uint256",
          "name": "",
          "type": "uint256"
        }
      ],
      "name": "roundPrizePoolsUsdc",
      "outputs": [
        {
          "internalType": "uint256",
          "name": "",
          "type": "uint256"
        }
      ],
      "stateMutability": "view",
      "type": "function"
    },
    {
      "inputs": [
        {
          "internalType": "uint256",
          "name": "",
          "type": "uint256"
        }
      ],
      "name": "roundTotalWeight",
      "outputs": [
        {
          "internalType": "uint256",
          "name": "",
          "type": "uint256"
        }
      ],
      "stateMutability": "view",
      "type": "function"
    },
    {
      "inputs": [
        {
          "internalType": "uint256",
          "name": "newPrice",
          "type": "uint256"
        }
      ],
      "name": "setAllLevelPrices",
      "outputs": [],
      "stateMutability": "nonpayable",
      "type": "function"
    },
    {
      "inputs": [
        {
          "internalType": "address",
          "name": "newGateway",
          "type": "address"
        }
      ],
      "name": "setBasePayGateway",
      "outputs": [],
      "stateMutability": "nonpayable",
      "type": "function"
    },
    {
      "inputs": [
        {
          "internalType": "bool",
          "name": "enabled",
          "type": "bool"
        }
      ],
      "name": "setLegacyActivationEnabled",
      "outputs": [],
      "stateMutability": "nonpayable",
      "type": "function"
    },
    {
      "inputs": [
        {
          "internalType": "uint8",
          "name": "level",
          "type": "uint8"
        },
        {
          "internalType": "bool",
          "name": "available",
          "type": "bool"
        }
      ],
      "name": "setLevelAvailable",
      "outputs": [],
      "stateMutability": "nonpayable",
      "type": "function"
    },
    {
      "inputs": [
        {
          "internalType": "uint8",
          "name": "level",
          "type": "uint8"
        },
        {
          "internalType": "uint256",
          "name": "newPrice",
          "type": "uint256"
        }
      ],
      "name": "setLevelPrice",
      "outputs": [],
      "stateMutability": "nonpayable",
      "type": "function"
    },
    {
      "inputs": [
        {
          "internalType": "uint8",
          "name": "level",
          "type": "uint8"
        },
        {
          "internalType": "uint256",
          "name": "newPrice",
          "type": "uint256"
        }
      ],
      "name": "setLevelPriceUSDC",
      "outputs": [],
      "stateMutability": "nonpayable",
      "type": "function"
    },
    {
      "inputs": [
        {
          "internalType": "address",
          "name": "newManager",
          "type": "address"
        }
      ],
      "name": "setRoundManager",
      "outputs": [],
      "stateMutability": "nonpayable",
      "type": "function"
    },
    {
      "inputs": [
        {
          "internalType": "address",
          "name": "newSettlement",
          "type": "address"
        }
      ],
      "name": "setSettlementContract",
      "outputs": [],
      "stateMutability": "nonpayable",
      "type": "function"
    },
    {
      "inputs": [
        {
          "internalType": "address",
          "name": "",
          "type": "address"
        }
      ],
      "name": "setUsdcToken",
      "outputs": [],
      "stateMutability": "view",
      "type": "function"
    },
    {
      "inputs": [
        {
          "internalType": "address",
          "name": "newProjectWallet",
          "type": "address"
        },
        {
          "internalType": "address",
          "name": "newTreasuryWallet",
          "type": "address"
        },
        {
          "internalType": "address",
          "name": "newOperatorWallet",
          "type": "address"
        }
      ],
      "name": "setWallets",
      "outputs": [],
      "stateMutability": "nonpayable",
      "type": "function"
    },
    {
      "inputs": [],
      "name": "settlementContract",
      "outputs": [
        {
          "internalType": "address",
          "name": "",
          "type": "address"
        }
      ],
      "stateMutability": "view",
      "type": "function"
    },
    {
      "inputs": [
        {
          "internalType": "uint8",
          "name": "",
          "type": "uint8"
        }
      ],
      "name": "totalWeightByLevel",
      "outputs": [
        {
          "internalType": "uint256",
          "name": "",
          "type": "uint256"
        }
      ],
      "stateMutability": "view",
      "type": "function"
    },
    {
      "inputs": [
        {
          "internalType": "address",
          "name": "newOwner",
          "type": "address"
        }
      ],
      "name": "transferOwnership",
      "outputs": [],
      "stateMutability": "nonpayable",
      "type": "function"
    },
    {
      "inputs": [],
      "name": "treasuryWallet",
      "outputs": [
        {
          "internalType": "address",
          "name": "",
          "type": "address"
        }
      ],
      "stateMutability": "view",
      "type": "function"
    },
    {
      "inputs": [],
      "name": "usdcToken",
      "outputs": [
        {
          "internalType": "contract IERC20Minimal",
          "name": "",
          "type": "address"
        }
      ],
      "stateMutability": "view",
      "type": "function"
    },
    {
      "inputs": [],
      "name": "withdrawProjectFees",
      "outputs": [],
      "stateMutability": "nonpayable",
      "type": "function"
    },
    {
      "inputs": [],
      "name": "withdrawProjectFeesUSDC",
      "outputs": [],
      "stateMutability": "nonpayable",
      "type": "function"
    }
  ],
  "bytecode": "0x6080346200039c57601f6200586738819003918201601f1916830191906001600160401b03831184841017620003a1578160a092859260409586528339810103126200039c576200005082620003b7565b60206200006060208501620003b7565b906200006e848601620003b7565b6200008a60806200008260608901620003b7565b9701620003b7565b6001602c819055946001600160a01b039081169485156200038b5781169283156200038b5781169788156200038b5781169182156200038b57169081156200037a57859760018060a01b031993600096338689541617885585895416178855846002541617600255836003541617600355826007541617600755600491600454161760045560ff60a01b1960065416600655838352600860205266b1a2bc2ec50000858420556002835266f8b0a10e470000858420556003835267016345785d8a000085842055600483526701f161421c8e000085842055600583526702c68af0bb14000085842055600683526703e2c284391c0000858420556007835267058d15e17628000085842055600883526707a1fe16027700008584205560098352670b1a2bc2ec50000085842055600a808452670f43fc2c04ee000086852055600b84526716345785d8a0000086852055600c8452671e87f85809dc000086852055600d8452672c68af0bb140000086852055600e8452673d0ff0b013b8000086852055600f8452675a34a38fc00a00008685205560108452676f05b59d3b200000868520556011926011855267a688906bd8b0000087862055858552600960205261c3508786205560028552620111708786205560038552620186a08786205560048552620222e0878620556005855262030d408786205560068552620445c0878620556007855262061a808786205560088552620864708786205560098552620c350087862055600a85526210c8e087862055600b855262186a0087862055600c8552622191c087862055600d85526230d40087862055600e85526243238087862055600f855262632ea08786205560108552627a1200878620556011855262b71b008786205585975b6200032a575b865161549a9081620003cd8239f35b60ff881684811162000373578552818152868520805460ff19168717905560ff9788169788146200036057968501968562000315565b5050634e487b7160e01b83525260249150fd5b506200031b565b865163d92e233d60e01b8152600490fd5b875163d92e233d60e01b8152600490fd5b600080fd5b634e487b7160e01b600052604160045260246000fd5b51906001600160a01b03821682036200039c5756fe610100604052600436101561001357600080fd5b60003560e01c806303a65dfa146140a257806304eb27341461406e5780630e475efd1461400c57806311eac85514613fe357806313306da214613f6b57806319a0859414613f4d5780631a1478c314610d1b5780631d6a884b14613f315780631e375ab914613e6c57806322fbfe8014613dff578063249d39e914613de257806324bdc3a714610511578063267281741461199c57806326e0cfe714613d755780632768a49f14613c9157806328db6c741461367b5780632e50d906146136475780632f5ced041461053f578063306bf6bb14613562578063308c61091461354557806331b161a7146104bb578063333fedad1461199c57806334601b89146130105780633719fd0514612f9857806337a8af5014612f6c5780633945dbde14612f435780633ac3684c14612eca5780633d5efbae14612e035780633f896dd914612cb757806340261fbb14612b275780634626402b14612afe5780634a57c6d914612a435780634ca3696c146129b95780634d69a4cd1461299d5780634f51f138146129235780635042a91f1461290657806350da23dc1461051157806351b7b69e146128da57806352ebb227146128a157806352f5c84e1461286d57806354feadc9146127e35780635c12cd4b146125445780635c602d9e1461247c5780635d886f221461243b5780636793c2cd146123c85780636b09f5391461238e57806372d686bf1461237157806375b7d7c11461231257806375cb1bd1146121975780637a7c7a6a146120cf5780637a966fa2146120995780637c58894d14611b9c5780637dcda2d414611b705780637f3255a814611b53578063852f829914611b3657806386b8f4a114611afc5780638b98440514611ad65780638c5b8ea514611aa25780638ce3d8c814611a795780638d2724f914611a455780638da5cb5b14611a1c5780638eb657c4146119a157806390f7c71a1461199c57806394cecff81461191a5780639b3728e8146104bb5780639fef6862146118fe578063a03d82ec1461171c578063a0978ac21461167f578063ab4847b414611539578063b146326a146110a7578063b70258be1461107b578063b75b688b14610ff2578063b93703ef14610fc6578063b9aee26314610f7c578063bea9903514610f2b578063beb08ab914610f02578063c05db4ce14610ece578063c236d48f14610ea2578063c2c0c9f514610e58578063c7fcb8c314610e1e578063c864ce5614610d20578063c8f17ce314610d1b578063c963ba1d14610ccb578063cdf46c4f14610c21578063ce9fffaa14610bed578063d2a1608014610b9a578063dbba054014610b66578063e26f7c4614610b48578063e2eb41ff146109dc578063e78a6451146107f9578063e8a8bd5c146107c5578063e9212a0f146107a9578063ea42418b14610780578063ed270c16146106f0578063edfae88314610609578063f178fb1b146105ed578063f2fde38b14610544578063f6d5f69a1461053f578063f90ef4ac14610516578063f933513914610511578063f935c2d6146104c0578063f943cbc6146104bb5763fa267c471461048a57600080fd5b346104b65760203660031901126104b657600435600052601a6020526020604060002054604051908152f35b600080fd5b614206565b346104b65760403660031901126104b6576104d96140ff565b6104e1614115565b9060018060a01b0316600052602660205260ff604060002091166000526020526020604060002054604051908152f35b614184565b346104b65760003660031901126104b6576003546040516001600160a01b039091168152602090f35b6141ea565b346104b65760203660031901126104b65761055d6140ff565b600054906001600160a01b0380831691610578338414614312565b169182156105b7576001600160a01b031916821760009081557f8be0079c531659141344cd1fd0a4f28419497f9722a3daafe3b4186f6b6457e09080a3005b60405162461bcd60e51b815260206004820152600e60248201526d13dddb995c881c995c5d5a5c995960921b6044820152606490fd5b346104b65760003660031901126104b6576020604051600a8152f35b346104b65760003660031901126104b6576106286001602c541461434b565b6002602c5533600052602360205260406000205480156106b2576007546001600160a01b039061065b908216151561446b565b3360005260236020526000604081205561067a823383600754166147bd565b60075416906040519081527f6212d3b8329f12cd207169548d7570de1a41c72473a7313c176c13641c39aab760203392a36001602c55005b60405162461bcd60e51b81526020600482015260166024820152754e6f205553444320726566657272616c20626f6e757360501b6044820152606490fd5b346104b65760403660031901126104b657610709614125565b602435908115158092036104b657602060ff7fdd552374405792741cb7e6993ca7e6dd5400b9e45e80ca256ac09db4009c89379261075260018060a01b03600054163314614312565b61075b816149fb565b169283600052600a8252604060002060ff1981541660ff8316179055604051908152a2005b346104b65760003660031901126104b6576005546040516001600160a01b039091168152602090f35b346104b65760003660031901126104b657602060405160048152f35b346104b65760203660031901126104b65760ff6107e0614125565b1660005260126020526020604060002054604051908152f35b346104b65760403660031901126104b6576108126140ff565b60006101a0604051610823816143f2565b8281528260208201528260408201528260608201528260808201528260a08201528260c08201528260e08201528261010082015282610120820152826101408201528261016082015282610180820152015260018060a01b0316600052601560205260406000206024356000526020526101c060406000206101a06040516108aa816143f2565b600b83549360ff85161515835260ff8560081c161515602084015260ff8560101c1660408401526001810154606084015260028101546080840152600381015460a0840152600481015460c0840152600581015460e08401526006810154610100840152600781015461012084015260088101546101408401526009810154610160840152600a81015461018084015201548282015260ff60405193161515835260208101511515602084015260ff6040820151166040840152606081015160608401526080810151608084015260a081015160a084015260c081015160c084015260e081015160e084015261010081015161010084015261012081015161012084015261014081015161014084015261016081015161016084015261018081015161018084015201516101a0820152f35b346104b65760203660031901126104b6576001600160a01b036109fd6140ff565b16600052600c602052604060002080808080808080808080808080806011600f600e600d600c600b600a6009600860076006600560048d549d60018060a01b0360018201541660e052600260018060a01b03910154169e600360018060a01b03910154169f01549f01549f01549f01549f01549f01549f01549f01549f01549f01549f01549f01549f6010810154608052015460c05260405160a05260ff8116151560a0515260018060a01b039060081c16602060a051015260e051604060a0510152606060a0510152608060a051015260a08051015260c060a051015260e060a051015261010060a051015261012060a051015261014060a051015261016060a051015261018060a05101526101a060a05101526101c060a05101526101e060a051015261020060a051015260805161022060a051015260c05161024060a051015261026060a051f35b346104b65760003660031901126104b6576020602254604051908152f35b346104b65760203660031901126104b65760ff610b81614125565b1660005260146020526020604060002054604051908152f35b346104b65760403660031901126104b65760c0610bc6610bb86140ff565b610bc0614115565b9061463f565b936040939193519586526020860152604085015260608401526080830152151560a0820152f35b346104b65760203660031901126104b65760ff610c08614125565b16600052600f6020526020604060002054604051908152f35b346104b6576020806003193601126104b65760043590610c4c60018060a01b03600054163314614312565b610c578215156145b7565b6001918291825b610c6457005b60ff831660118111610cc95780600052600882526000805160206153e5833981519152604080600020858154915581519081528585820152a260ff809316928314610cb3578380930192610c5e565b634e487b7160e01b600052601160045260246000fd5b005b346104b65760203660031901126104b65760ff610ce6614125565b610cef816149fb565b16600052602b6020526020610d13604060002054602a8352604060002054906144f1565b604051908152f35b614143565b346104b6576020806003193601126104b657610d3a614125565b90610d496001602c541461434b565b6002602c55610d57826149fb565b33600052600d815260ff604060002092169182600052815260086040600020610d8660ff8254841c16156144b3565b01908154918215610dee579060007fe478efad2d93638c429f97678f2517efcafee26463eaf608c398b94a2510eab5925533600052600c8152600e604060002001610dd28482546144f1565b9055610dde83336146e0565b6040519283523392a36001602c55005b60405162461bcd60e51b81526004810183905260086024820152674e6f207072697a6560c01b6044820152606490fd5b346104b65760203660031901126104b6576001600160a01b03610e3f6140ff565b1660005260236020526020604060002054604051908152f35b346104b65760203660031901126104b657600435600052601f6020526040600020546020805260406000205490610e9e610e9282846144f1565b60405193849384614275565b0390f35b346104b65760203660031901126104b65760043560005260176020526020604060002054604051908152f35b346104b65760203660031901126104b65760ff610ee9614125565b16600052600b6020526020604060002054604051908152f35b346104b65760003660031901126104b6576001546040516001600160a01b039091168152602090f35b346104b65760403660031901126104b657610f446140ff565b610f4c614115565b9060018060a01b0316600052602760205260ff604060002091166000526020526020604060002054604051908152f35b346104b65760203660031901126104b65760ff610f97614125565b610fa0816149fb565b166000526014602052604080600020546010602052816000205482519182526020820152f35b346104b65760203660031901126104b65760043560005260196020526020604060002054604051908152f35b346104b65760403660031901126104b65761100b614125565b60249061101a602435916149fb565b6007905b8082111561103157602082604051908152f35b906001808201809211611066571b6000198101908111611051579061101e565b82634e487b7160e01b60005260116004526000fd5b83634e487b7160e01b60005260116004526000fd5b346104b65760203660031901126104b65760043560005260186020526020604060002054604051908152f35b346104b6576110b53661428b565b6110c36001602c541461434b565b6002602c558015801561152f575b6115105760048054604051636fd0763b60e11b81529182018490526001600160a01b031690602081602481855afa90811561145f576000916114e1575b50600881101590816114bd57600281149182156114d3575b82156114ac575b50501561146b57604051809163cba0b84160e01b82528460048301528160246101c09485935afa91821561145f5760009261134c575b5050604060ff9101511690600083600052601f60205260406000205491602080526040600020545b831080611343575b156112d457846000526111f4601e928360205260406000208560005260205260018060a01b0360406000205416938760005260205260406000206111d686614870565b95600052602052604060002060018060a01b03198154169055614870565b9180600052601560205260406000208660005260205260406000209060ff82541661122f575b5050846000526020805260406000205461118b565b600682015460018101809111610cb357600683015580600052600c602052600c6040600020018054600181018111610cb357600101905580600052600c602052600b6040600020018054600181018111610cb35788936000805160206154258339815191529260016040930190556112a78585614ec7565b6112b18585614f2b565b60066112be858b88614b1a565b9101549082519182526020820152a3858061121a565b508360409281600052601f6020528360002055602080526113038360002054601f6020528460002054906144f1565b907f0b273906422b7b2a8769cc17c72a6270f3ac34095be5d3735eb91c7922fa40a1848051858152846020820152a26001602c5582519182526020820152f35b50808210611193565b90809250813d8311611458575b611363818361440e565b810103126104b657604051611377816143f2565b8151815260208201516020820152604082015160ff811681036104b65760408201526113a56060830161461c565b60608201526113b66080830161461c565b60808201526113c760a0830161461c565b60a08201526113d860c0830161461c565b60c082015260e08201519063ffffffff821682036104b65760ff9260409260e0830152610100611409818301614630565b9083015261012080820151908301526101408082015190830152610160808201519083015261018061143c818301614630565b9083015261144e6101a0809201614630565b9082015291611163565b503d611359565b6040513d6000823e3d90fd5b60405162461bcd60e51b8152602060048201526019602482015278526f756e642072656379636c6520756e617661696c61626c6560381b6044820152606490fd5b9091506114bd57600414848061112d565b634e487b7160e01b600052602160045260246000fd5b506003811491506000611126565b611503915060203d602011611509575b6114fb818361440e565b8101906145f7565b8461110e565b503d6114f1565b60449060405190631084348b60e31b8252600482015260406024820152fd5b50604081116110d1565b346104b6576115473661428b565b906115506144fe565b5081158015611667575b61164a576000526016602052604060002090600052602052610e9e604060002060ff60056040519261158b846143ba565b8054845282600182015460018060a01b038116602087015260a01c1660408501526002810154606085015260038101546080850152600481015460a08501520154818116151560c084015260081c16151560e08201526040519182918291909160e0806101008301948051845260018060a01b03602082015116602085015260ff6040820151166040850152606081015160608501526080810151608085015260a081015160a085015260c0810151151560c085015201511515910152565b60449160405191631f06e1dd60e31b835260048301526024820152fd5b5080600052601760205260406000205482101561155a565b346104b65760403660031901126104b6576116986140ff565b6116a0614115565b906116aa826149fb565b60018060a01b0316600052600d60205260ff6040600020911660005260205260a060406000208054906006810154906116f2600282015491600960088201549101549061460f565b9160ff604051948181161515865260081c1615156020850152604084015260608301526080820152f35b346104b6576020806003193601126104b65760043561173f6001602c541461434b565b6002602c556005546001600160a01b0390811633036118c757602483826004541660405192838092636fd0763b60e11b82528760048301525afa90811561145f576000916118aa575b5060088110156114bd5760040361187057816000528280526117b9604060002054601f8552604060002054906144f1565b9283611852576040935082600052601b8152836000205492601c8252846000205492601b8352600086812055601c83526000868120556117fd8582600554166146e0565b6118118482600754168360055416906147bd565b60055416907ff5dce8d14677f13040c40d084c873acb3bb2ff01d06a60cf69b3e81fcc1e35eb8680518781528686820152a36001602c558351928352820152f35b60448385604051916304ef50cb60e41b835260048301526024820152fd5b60405162461bcd60e51b8152600481018490526012602482015271526f756e64206973206e6f7420726561647960701b6044820152606490fd5b6118c19150843d8611611509576114fb818361440e565b84611788565b60405162461bcd60e51b815260048101849052600f60248201526e13db9b1e481cd95d1d1b195b595b9d608a1b6044820152606490fd5b346104b65760003660031901126104b657602060405160198152f35b346104b65760403660031901126104b65760ff611935614125565b16600052600e60205260406000206024356000526020526040600020805490610e9e600182015491600281015493600382015491600560048201549101549260405196879660ff808760081c1696169460ff8260a01c169160018060a01b031690896142a1565b6141a1565b346104b65760403660031901126104b6576119ba614125565b6000805160206153e5833981519152604060ff602435936119e660018060a01b03600054163314614312565b6119ef816149fb565b6119fa8515156145b7565b16928360005260086020528160002090808254925582519182526020820152a2005b346104b65760003660031901126104b6576000546040516001600160a01b039091168152602090f35b346104b65760203660031901126104b65760ff611a60614125565b1660005260136020526020604060002054604051908152f35b346104b65760003660031901126104b6576006546040516001600160a01b039091168152602090f35b346104b65760203660031901126104b65760ff611abd614125565b1660005260116020526020604060002054604051908152f35b346104b65760003660031901126104b657602060ff60065460a01c166040519015158152f35b346104b65760203660031901126104b6576001600160a01b03611b1d6140ff565b1660005260256020526020604060002054604051908152f35b346104b65760003660031901126104b65760206040516102588152f35b346104b65760003660031901126104b65760206040516101908152f35b346104b65760403660031901126104b6576020610d13611b8e6140ff565b611b96614115565b9061453c565b611ba536614223565b60019392611bb685602c541461434b565b6002602c55610140840135341480159061208c575b61207a5733600052600c60205260406000209160ff8354166000146120745750818501546001600160a01b0316905b6001600160a01b03821633811490811561204d575b50612044575b600480546040805163149374fd60e21b8152883593810193909352602088013560248401528701959192906001600160a01b031660ff611c5488614135565b166044850152611c666060890161478c565b6001600160401b03908116606486015280611c8360808b0161478c565b16608486015280611c9660a08b0161478c565b1660a4860152611ca860c08a0161478c565b1660c485015260e088013563ffffffff81168091036104b6576000859384602096819460e48301528c611d306101a0611ce461010084016147a0565b9261ffff80941661010487015261012081013561012487015261014081013561014487015261016081013561016487015283611d2361018083016147a0565b16610184870152016147a0565b166101a48301526102206101c4830152806102248301528061024493848401378181018301849052336101e48301526001600160a01b038a16610204830152601f01601f191681010301925af1801561145f57612019575b5060ff611d94846147af565b16600052600a60205260ff6040600020541615611ff657611db6903383614a32565b336000526015602052604060002060208401356000526020526040600020805460ff8116611fd457859182809262ff0000611df0886147af565b60101b169062ff00ff191617178155015560048101805490858201809211610cb3575560114291015560ff611e60611e3533611e2b856147af565b6020870135614b1a565b92611e44602086013533614dce565b611e5a611e50826147af565b602087013561487f565b506147af565b169060405190610140840135825260208201526000604082015260208301359060008051602061544583398151915260603392a4611d7e8034029134159134840414821715610cb357612710809304926103b68034029034820414841715610cb357819004906102588034029034820414851715610cb357819004906101909485340295348704141715610cb3576020940490611f0e82611f0983611f0987611f098c346144f1565b6144f1565b9285850135600052601b86526040600020611f2a88825461460f565b905533600052600c8652611f89836040600020611f568460018060a01b038d840154168b8b0135615130565b6002810154611f739086906001600160a01b03168a8c01356151f0565b600301546001600160a01b031687890135615296565b611f958460215461460f565b60215560405196875285870152604086015260608501526080840152600060a084015201359060008051602061540583398151915260c03392a3602c55005b60405163c45f473d60e01b815260208601356004820152336024820152604490fd5b6024612001846147af565b60ff60405191634a525d1b60e01b8352166004820152fd5b602090813d831161203d575b61202f818361440e565b810103126104b65785611d88565b503d612025565b60009150611c15565b80151591508161205f575b5087611c0f565b905060005260ff604060002054161587612058565b90611bfa565b6040516335f3c2a160e21b8152600490fd5b5061014084013515611bcb565b346104b65760203660031901126104b657600435600052601f602052602060406000205481805260406000205411604051908152f35b346104b65760003660031901126104b6576000546001600160a01b03906120f99082163314614312565b6121076001602c541461434b565b6002602c556021549081156121605760207f95334f2d4e98187a454807e6ec3da804af4da5c99357a7398e2cf2505ac8821891600060215561214d8482600154166146e0565b6001541692604051908152a26001602c55005b60405162461bcd60e51b815260206004820152600f60248201526e4e6f2070726f6a656374206665657360881b6044820152606490fd5b346104b65760603660031901126104b6576121b06140ff565b6024356001600160a01b03818116918290036104b657604435928184168094036104b6576121e382600054163314614312565b1680156122d357811561229357821561225357826060927fd2d452a5df03f60ff9bf0ef1fc3498af992b0b6165c03b2f792cf596ee96530a9460018060a01b03198481600154161760015582816002541617600255600354161760035560405192835260208301526040820152a1005b60405162461bcd60e51b815260206004820152601860248201527713dc195c985d1bdc881dd85b1b195d081c995c5d5a5c995960421b6044820152606490fd5b60405162461bcd60e51b8152602060048201526018602482015277151c99585cdd5c9e481dd85b1b195d081c995c5d5a5c995960421b6044820152606490fd5b60405162461bcd60e51b8152602060048201526017602482015276141c9bda9958dd081dd85b1b195d081c995c5d5a5c9959604a1b6044820152606490fd5b346104b65760403660031901126104b65761232b6140ff565b612333614115565b9061233d826149fb565b60018060a01b0316600052600d60205260ff60406000209116600052602052602060ff604060002054166040519015158152f35b346104b65760003660031901126104b6576020604051611d7e8152f35b346104b65760203660031901126104b6576001600160a01b036123af6140ff565b1660005260246020526020604060002054604051908152f35b346104b6576123d63661428b565b9060005260166020526040600020906000526020526040600020805490610e9e600182015491600281015493600382015491600560048201549101549260405196879660ff808760081c1696169460ff8260a01c169160018060a01b031690896142a1565b346104b65760203660031901126104b6576124546140ff565b5061246a60018060a01b03600054163314614312565b60405163c4f64db560e01b8152600490fd5b346104b65760403660031901126104b6576124956140ff565b61249d614115565b9060018060a01b0316600052600d60205260ff604060002091166000526020526101606040600020805490600181015490600281015460038201546004830154600584015490600685015492600786015494600960088801549701549760ff6040519a81811615158c5260081c16151560208b015260408a01526060890152608088015260a087015260c086015260e0850152610100840152610120830152610140820152f35b346104b65760203660031901126104b65761255d6140ff565b600061024060405161256e816143d6565b8281528260208201528260408201528260608201528260808201528260a08201528260c08201528260e08201528261010082015282610120820152826101408201528261016082015282610180820152826101a0820152826101c0820152826101e08201528261020082015282610220820152015260018060a01b0316600052600c602052610260604060002061024060405161260a816143d6565b601183549360ff85161515835260018060a01b038560081c16602084015260018060a01b03600182015416604084015260018060a01b03600282015416606084015260018060a01b036003820154166080840152600481015460a0840152600581015460c0840152600681015460e0840152600781015461010084015260088101546101208401526009810154610140840152600a810154610160840152600b810154610180840152600c8101546101a0840152600d8101546101c0840152600e8101546101e0840152600f810154610200840152601081015461022084015201548282015260ff60405193161515835260018060a01b03602082015116602084015260018060a01b03604082015116604084015260018060a01b03606082015116606084015260018060a01b03608082015116608084015260a081015160a084015260c081015160c084015260e081015160e08401526101008101516101008401526101208101516101208401526101408101516101408401526101608101516101608401526101808101516101808401526101a08101516101a08401526101c08101516101c08401526101e08101516101e08401526102008101516102008401526102208101516102208401520151610240820152f35b346104b65760203660031901126104b6576127fc6140ff565b6000546001600160a01b039182916128179083163314614312565b1690811561285b57600680546001600160a01b031981168417909155167ffc16b6f7bdf55fb5a2a42edf5c9522543886143cef3f5580a1b008dbfa4a231f600080a3005b60405163d92e233d60e01b8152600490fd5b346104b65760203660031901126104b65760ff612888614125565b1660005260106020526020604060002054604051908152f35b346104b65760203660031901126104b65760ff6128bc614125565b16600052600a602052602060ff604060002054166040519015158152f35b346104b65760203660031901126104b657600435600052601b6020526020604060002054604051908152f35b346104b65760003660031901126104b65760206040516113888152f35b346104b6576020806003193601126104b65760c090600435600052601b815260406000205490601c8152604060002054601a825260406000205460198352604060002054906017845260406000205492601885526040600020549460405196875286015260408501526060840152608083015260a0820152f35b346104b65760003660031901126104b657602060405160148152f35b346104b65760403660031901126104b6576129d26140ff565b6129da614115565b906129e4826149fb565b60018060a01b03169081600052602360205260406000205490602660205260ff604060002091169081600052602052604060002054926000526027602052604060002090600052602052610e9e60406000205460405193849384614275565b346104b65760403660031901126104b657612a5c614125565b60243590612a686144fe565b50612a72816149fb565b81151580612ae4575b15612ab05760ff16600052600e602052604060002090600052602052610e9e604060002060ff60056040519261158b846143ba565b60405162461bcd60e51b815260206004820152600c60248201526b125b9d985b1a590818d95b1b60a21b6044820152606490fd5b5060ff8116600052600f6020526040600020548210612a7b565b346104b65760003660031901126104b6576002546040516001600160a01b039091168152602090f35b346104b65760403660031901126104b657610160612b436140ff565b6000612b4d614115565b60405190612b5a82614388565b8282528260208301528260408301528260608301528260808301528260a08301528260c08301528260e0830152610100908382840152610120948486850152610140948580950152612bab826149fb565b60018060a01b0316600052600d60205260ff6040600020911660005260205260406000209360405191612bdd83614388565b600986549660ff88161515855260ff8860081c1615156020860152600181015460408601526002810154606086015260038101546080860152600481015460a0860152600581015460c0860152600681015460e086015260078101548386015260088101548486015201548484015260ff60405196161515865260208301511515602087015260408301516040870152606083015160608701526080830151608087015260a083015160a087015260c083015160c087015260e083015160e087015280830151908601528082015190850152015190820152f35b346104b6576020806003193601126104b657612cd1614125565b90612ce06001602c541461434b565b6002602c55612cee826149fb565b6007546001600160a01b0390612d07908216151561446b565b33600052600d825260ff6040600020931692836000528252612d3460ff60406000205460081c16156144b3565b33600052602682526040600020836000528252604060002054908115612dce577fcb5b06c056856bb82784094d6a04f2cdd54a8ca5035447b87427f46c8d09813190336000526026845260406000208560005284526000604081205533600052602484526040600020612da88482546144f1565b9055612db9833383600754166147bd565b60075416926040519283523392a46001602c55005b60405162461bcd60e51b815260048101849052600d60248201526c4e6f2055534443207072697a6560981b6044820152606490fd5b346104b65760403660031901126104b657612e1c614125565b60243590612e3560018060a01b03600054163314614312565b612e3e816149fb565b8115612e8c57604060ff7f3b7a8420bcf2581fac422a359ff730b951e902c11f27da90a7e97da9c068f9a69216928360005260096020528160002090808254925582519182526020820152a2005b60405162461bcd60e51b81526020600482015260166024820152751554d110c81c1c9a58d9481a5cc81c995c5d5a5c995960521b6044820152606490fd5b346104b65760203660031901126104b6576004358015158091036104b65760207f59eee9122213289e523d1060fc23bf301e7d369abcb2a33ebf3496c81c614f9b91612f2160018060a01b03600054163314614312565b6006805460ff60a01b191660a083901b60ff60a01b16179055604051908152a1005b346104b65760003660031901126104b6576004546040516001600160a01b039091168152602090f35b346104b65760203660031901126104b657600435600052601c6020526020604060002054604051908152f35b346104b65760203660031901126104b657612fb16140ff565b6000546001600160a01b03918291612fcc9083163314614312565b1690811561285b57600580546001600160a01b031981168417909155167fae0b527aec7be2a921fb601477f42ce68cfc9122d8c176909c55cd756e30dfd8600080a3005b346104b65761301e36614223565b9161302d6001602c541461434b565b6002602c5561016084013515613533576007546040516323b872dd60e01b81529060209082906001600160a01b0316816000816130746101608c0135303360048501614449565b03925af190811561145f57600091613504575b50156134f25733600052600c60205260406000209260ff8454166000146134ec575060018301546001600160a01b0316915b6001600160a01b0383163381149081156134c5575b506134bc575b60018060a01b0360045416916040519263149374fd60e21b8452863560048501526020870135602485015260ff61310d60408901614135565b16604485015261311f6060880161478c565b6001600160401b0390811660648601528061313c60808a0161478c565b1660848601528061314f60a08a0161478c565b1660a486015261316160c0890161478c565b1660c485015260e087013563ffffffff811681036104b657600085938460209663ffffffff82951660e48301528b6131a26101a0611ce461010084016147a0565b166101a48301526102206101c4830152806102248301528061024493848401378181018301849052336101e48301526001600160a01b038a16610204830152601f01601f191681010301925af1801561145f57613491575b5060ff613209604085016147af565b16600052600a60205260ff60406000205416156134835761322b903383614a32565b336000526015602052604060002060208301356000526020526040600020805460ff81166134615760019182809262ff0000613269604089016147af565b60101b169062ff00ff19161717815501556004810180549060018201809211610cb357556011429101556132ad336132a3604084016147af565b6020840135614b1a565b6132bb602083013533614dce565b6132d46132ca604084016147af565b602084013561487f565b5060ff6132e3604084016147af565b169060405190610160840135825260208201526001604082015260208301359060008051602061544583398151915260603392a4610160810135611d7e81029190611d7d1990830401610cb35761271091829004906101608101356103b68102906103b51990820401610cb357839004926101608201356102588102906102571990820401610cb3578190049161016081013561019081029061018f1990820401610cb3576000805160206154058339815191529360209361345792046133bb81611f0984611f098c611f098d6101608c01356144f1565b9185850135600052601c865260406000206133d789825461460f565b905533600052600c86526134378260406000206134048c60018060a01b036001840154168b8b01356150bb565b60028101546134219085906001600160a01b03168a8c013561519b565b600301546001600160a01b031687890135615241565b6134438360225461460f565b6022556040519586950135983398866142e7565b0390a36001602c55005b60405163c45f473d60e01b815260208501356004820152336024820152604490fd5b6024612001604085016147af565b602090813d83116134b5575b6134a7818361440e565b810103126104b657836131fa565b503d61349d565b600092506130d4565b8015159150816134d7575b50866130ce565b905060005260ff6040600020541615866134d0565b916130b9565b60405163022e258160e11b8152600490fd5b613526915060203d60201161352c575b61351e818361440e565b810190614431565b85613087565b503d613514565b6040516304c1050d60e01b8152600490fd5b346104b65760003660031901126104b65760206040516103b68152f35b346104b65760003660031901126104b6576000546001600160a01b039061358c9082163314614312565b61359a6001602c541461434b565b6002602c558060075416906135b082151561446b565b60225491821561360b57826135cf9160006022558360015416906147bd565b7f6f09a29fa95e6ca2c4c5b55c121d7269faf4d531e64e23d432f03e95bb6caa4760208260075416926001541693604051908152a36001602c55005b60405162461bcd60e51b81526020600482015260146024820152734e6f20555344432070726f6a656374206665657360601b6044820152606490fd5b346104b65760203660031901126104b65760ff613662614125565b1660005260086020526020604060002054604051908152f35b346104b657366003190161022081126104b6576101c0136104b6576101c4356001600160401b0381116104b6576136b69036906004016141bd565b906101e4356001600160a01b03811690036104b657610204356001600160a01b03811690036104b6576136ed6001602c541461434b565b6002602c556006546001600160a01b03163303613c54576101e4356001600160a01b03161561285b576101643515613533576007546040516323b872dd60e01b81529060209082906001600160a01b03168160008161375461016435303360048501614449565b03925af190811561145f57600091613c35575b50156134f2576101e4356001600160a01b03166000908152600c60205260409020805490929060ff1615613c2b5760018301546001600160a01b0316915b6101e4356001600160a01b03908116908416908114908115613c04575b50613bfb575b60018060a01b0360045416916040519263149374fd60e21b84526004356004850152602435602485015260ff60443516604435036104b6576044803560ff16908501526001600160401b03606435908116908190036104b65760648501526084356001600160401b038116908190036104b657608485015260a4356001600160401b038116908190036104b65760a485015260c4356001600160401b038116908190036104b65760c485015260e43563ffffffff81168091036104b65760e485015261010491823561ffff938482168092036104b657860152610124803590860152610144803590860152610164356101648601526101848035908482168092036104b6578601526101a49283359081168091036104b6576020948680959360009382958301526102206101c48301528061022483015280610244938484013780820183018490526001600160a01b036101e480358216908401528a16610204830152601f01601f191681010301925af1801561145f57613bd0575b5060ff60443516600052600a60205260ff6040600020541615613bb35761396f906101e43583614a32565b60018060a01b036101e43516600052601560205260406000206024356000526020526040600020805460ff8116613b875760019182809262ff000060443560101b169062ff00ff19161717815501556004810180549060018201809211610cb357556011429101556139e96101e435604435602435614b1a565b6139f86024356101e435614dce565b613a0660443560243561487f565b506040519061016435825260208201526001604082015260ff604435169060243590600080516020615445833981519152606060018060a01b036101e4351692a4611d7e8061016435029061016435820403610cb3576127108091046103b68061016435029061016435820403610cb357829004916102588061016435029061016435820403610cb357819004610190918261016435029261016435840403610cb357600080516020615405833981519152920490613457613ad783611f0984611f098a611f098b610164356144f1565b602435600052601c6020526040600020613af287825461460f565b905560018060a01b036101e43516600052600c602052613b5b846040600020613b2a8a60018060a01b036001840154166024356150bb565b6002810154613b469087906001600160a01b031660243561519b565b600301546001600160a01b0316602435615241565b613b678160225461460f565b6022556040519384936024359860018060a01b036101e4351698866142e7565b60405163c45f473d60e01b81526024803560048301526101e4356001600160a01b031690820152604490fd5b604051634a525d1b60e01b815260443560ff166004820152602490fd5b602090813d8311613bf4575b613be6818361440e565b810103126104b65782613944565b503d613bdc565b600092506137c8565b801515915081613c16575b50856137c2565b905060005260ff604060002054161585613c0f565b61020435916137a5565b613c4e915060203d60201161352c5761351e818361440e565b83613767565b60405162461bcd60e51b81526020600482015260156024820152744f6e6c79204261736520506179206761746577617960581b6044820152606490fd5b346104b65760403660031901126104b6576001600160a01b03613cb26140ff565b16600052601560205260406000206024356000526020526101c060406000208054906001810154906002810154600382015460048301546005840154600685015490600786015492600887015494600988015496600b600a8a01549901549960ff6040519c8d828216151590528d6020838360081c16151591015260101c1660408d015260608c015260808b015260a08a015260c089015260e08801526101008701526101208601526101408501526101608401526101808301526101a0820152f35b346104b6576020806003193601126104b65760ff613d91614125565b613d9a816149fb565b166000526012815260406000205460138252610e9e60406000205492601481526040600020549060108152600f60406000205491526040600020549160405195869586614160565b346104b65760003660031901126104b65760206040516127108152f35b346104b6576020806003193601126104b65760ff613e1b614125565b613e24816149fb565b166000526011815260406000205460138252610e9e60406000205492601481526040600020549060108152600f60406000205491526040600020549160405195869586614160565b346104b65760003660031901126104b657613e8b6001602c541461434b565b6002602c5533600052600c602052600d604060002001548015613ef85733600052600c6020526000600d604082200155613ec581336146e0565b6040519081527f53473e2a2e0cc6840d80567f104277ea6daa0891e5316836bac38a686b79ea3360203392a26001602c55005b60405162461bcd60e51b81526020600482015260116024820152704e6f20726566657272616c20626f6e757360781b6044820152606490fd5b346104b65760003660031901126104b657602060405160118152f35b346104b65760003660031901126104b6576020602154604051908152f35b346104b65760203660031901126104b657613f846140ff565b6000546001600160a01b03918291613f9f9083163314614312565b1690811561285b57600480546001600160a01b031981168417909155167f57b8ff42eaa81bfce68c6ad04d5bf2c7ebca554a63b0ece2bb301a0b2eff716d600080a3005b346104b65760003660031901126104b6576007546040516001600160a01b039091168152602090f35b346104b65760403660031901126104b6576140256140ff565b61402d614115565b90614037826149fb565b60018060a01b0316600052600d60205260ff60406000209116600052602052602060ff60406000205460081c166040519015158152f35b346104b65760203660031901126104b65760ff614089614125565b1660005260096020526020604060002054604051908152f35b346104b65760403660031901126104b6576140bb6140ff565b6140c3614115565b906140cd826149fb565b60018060a01b0316600052600d60205260ff604060002091166000526020526020600760406000200154604051908152f35b600435906001600160a01b03821682036104b657565b6024359060ff821682036104b657565b6004359060ff821682036104b657565b359060ff821682036104b657565b346104b65760003660031901126104b65760206040516107d08152f35b9192608093969594919660a084019784526020840152604083015260608201520152565b346104b65760003660031901126104b65760206040516101f48152f35b346104b65760003660031901126104b657602060405160648152f35b9181601f840112156104b6578235916001600160401b0383116104b657602083818601950101116104b657565b346104b65760003660031901126104b657602060405160328152f35b346104b65760003660031901126104b65760206040516103e88152f35b90600319820161020081126104b6576101c0136104b6576004916101c435906001600160401b0382116104b65761425c916004016141bd565b90916101e4356001600160a01b03811681036104b65790565b6040919493926060820195825260208201520152565b60409060031901126104b6576004359060243590565b9693909897949160e0969360ff916101008a019b8a5260018060a01b031660208a01521660408801526060870152608086015260a0850152151560c08401521515910152565b919360a0936001959796929760c0850198855260208501526040840152606083015260808201520152565b1561431957565b60405162461bcd60e51b815260206004820152600a60248201526927b7363c9037bbb732b960b11b6044820152606490fd5b1561435257565b60405162461bcd60e51b815260206004820152600e60248201526d1499595b9d1c985b9d0818d85b1b60921b6044820152606490fd5b61016081019081106001600160401b038211176143a457604052565b634e487b7160e01b600052604160045260246000fd5b61010081019081106001600160401b038211176143a457604052565b61026081019081106001600160401b038211176143a457604052565b6101c081019081106001600160401b038211176143a457604052565b601f909101601f19168101906001600160401b038211908210176143a457604052565b908160209103126104b6575180151581036104b65790565b6001600160a01b03918216815291166020820152604081019190915260600190565b1561447257565b60405162461bcd60e51b81526020600482015260196024820152781554d110c81d1bdad95b881b9bdd0818dbdb999a59dd5c9959603a1b6044820152606490fd5b156144ba57565b60405162461bcd60e51b815260206004820152600f60248201526e2632bb32b61034b990333937bd32b760891b6044820152606490fd5b91908203918211610cb357565b6040519061450b826143ba565b8160e06000918281528260208201528260408201528260608201528260808201528260a08201528260c08201520152565b9060ff90614549816149fb565b16600090808252601360205260408220549283156145b05760018060a01b03168252600d602052604082209082526020526007604082200154906127109182810292818404149015171561459c57500490565b634e487b7160e01b81526011600452602490fd5b5050905090565b156145be57565b60405162461bcd60e51b8152602060048201526011602482015270141c9a58d9481a5cc81c995c5d5a5c9959607a1b6044820152606490fd5b908160209103126104b6575160088110156104b65790565b91908201809211610cb357565b51906001600160401b03821682036104b657565b519061ffff821682036104b657565b919061464a816149fb565b60009260018060a01b03168352600d60205260ff604084209116835260205260026040832001549182156146d357600e602052604081208382526020526040812080546002820154946003830154916004840154915b6001808211156146bb571c946146b590614870565b946146a0565b50509194909392600560ff9101541691959493929190565b8092509180918180918190565b811561478857600080808094819460018060a01b03165af1903d15614782573d906001600160401b03821161476e5760405191614727601f8201601f19166020018461440e565b825260203d92013e5b1561473757565b60405162461bcd60e51b815260206004820152600f60248201526e151c985b9cd9995c8819985a5b1959608a1b6044820152606490fd5b634e487b7160e01b81526041600452602490fd5b50614730565b5050565b35906001600160401b03821682036104b657565b359061ffff821682036104b657565b3560ff811681036104b65790565b821561486b5760405163a9059cbb60e01b81526001600160a01b039283166004820152602481019390935260209183916044918391600091165af190811561145f5760009161484c575b501561480f57565b60405162461bcd60e51b8152602060048201526015602482015274151bdad95b881d1c985b9cd9995c8819985a5b1959605a1b6044820152606490fd5b614865915060203d60201161352c5761351e818361440e565b38614807565b505050565b6000198114610cb35760010190565b9190600092600092818452602092601f84526040958686205492858052878720545b8410806149f1575b156149e0578487526148fb601e92838852898920868a52885260018060a01b038a8a20541693878a5288528989206148e087614870565b968a52885289892080546001600160a01b0319169055614870565b9180885260158752888820868952875288882060ff815416614929575b5050848752858052878720546148a1565b60060180546001908181018091116149b8578255828a52600c808a52808c8c20018054908382018092116149cc5755838b528952600b8b8b200180549182018092116149b857889392600080516020615425833981519152928d925561498f8585614ec7565b6149998585614f2b565b6149a4848987614b1a565b90549082519182528b820152a33880614918565b634e487b7160e01b8b52601160045260248bfd5b634e487b7160e01b8d52601160045260248dfd5b959294909693601f92508352522055565b50600482106148a9565b60ff16600181108015614a28575b614a105750565b60249060405190633d98c85560e21b82526004820152fd5b5060118111614a09565b91825460ff8116614b14576001600160a81b031916600883901b610100600160a81b03161760011783554260108401556001600160a01b039081169182151590829082614b07575b505080614aef575b614a8b57505050565b6003600184019260018060a01b03199381858254161790556000908152600c60205282806001604084200154166002870181878254161790558015600014614add575050935b01921690825416179055565b82526040909120600101541693614ad1565b5081600052600c60205260ff60406000205416614a82565b1683141590508138614a7a565b50505050565b92909160009380855260179360206017815260409384882094855415614dc5575b855495614b4787614870565b90558598600198898814600014614dbc5781935b878352601691601687528484208a85528752848420918a83558c830160018060a01b03809216998a82549160ff60a01b9060a01b169160018060a81b03191617179055866002840155600580930161ff00198154169055888552601588528585208a865288528660038787208d60028201550155601988528c8686208054918201809211614da8575586614cb3575b5088845260188752848420549b8c15614cab575b929190835b614c5d575b5050505081869798997f19a57ce1df8ff5b43fd57ebc398733d14bbb0da3e683f28c5b0e32955d8d19c89697835260178652818320548110600014614c5657915b60188652205551908152a4565b5081614c49565b9091929b89855281885285852054811080614c91575b15614c8b57614c8190614870565b9b92919083614c03565b9b614c08565b50838852858520818652885260ff83878720015416614c73565b9b508b614bfe565b8985526016885285852087865288528c8686208c60038201805415600014614cf65755015416845260158752848420898552875289600486862001555b38614bea565b5050905060048101805415600014614d8b57908c8f9255600581018260ff1982541617905501818154168652601589528686208b875289528b6005888820015554168780528585205490601e895286862082875289528686209060018060a01b03198254161790558c8101809111614d775789855287805285852055614cf0565b634e487b7160e01b85526011600452602485fd5b60448c8a8a5191630cc237c760e31b835260048301526024820152fd5b634e487b7160e01b87526011600452602487fd5b878a1c93614b5b565b60018655614b3b565b6001600160a01b0316600081815260156020908152604080832085845282528083205460ff1615614ec057838352601d8252808320858452825280832084845260158352818420868552835281842090805494614e396007614e2f88615316565b94019384546152e7565b918215614eb55784614eaa92600a92614e73867f9de12b3d7a04eb259125d6f36a27a748d7ce92411cdf21da63e0e0394dfeea169b61460f565b9055614e8085875461460f565b86558a8152601a8852818120614e9786825461460f565b9055898152600c8852200191825461460f565b9055549051908152a3565b505050505050505050565b5050505050565b6001600160a01b0316600081815260156020908152604080832085845282528083205460ff1615614ec057838352601d8252808320858452825280832084845260158352818420868552835260038285209101805494614e396007614e2f88615346565b6001600160a01b0316600081815260156020908152604080832085845282528083205460ff1615614ec057838352601d8252808320858452825280832084845260158352818420868552835260048285209101805494614e396007614e2f8861536f565b6001600160a01b0316600081815260156020908152604080832085845282528083205460ff1615614ec057838352601d8252808320858452825280832084845260158352818420868552835260018285209101805494614e396007614e2f88615398565b6001600160a01b0316600081815260156020908152604080832085845282528083205460ff1615614ec057838352601d8252808320858452825280832084845260158352818420868552835260018285209101805494614e396007614e2f88615346565b6001600160a01b0316600081815260156020908152604080832085845282528083205460ff1615614ec057838352601d8252808320858452825280832084845260158352818420868552835260018285209101805494614e396007614e2f886153bb565b906001600160a01b03811680158015615117575b6150f957926150f79360005260236020526150f0604060002091825461460f565b9055614f8f565b565b5050600052601c602052615113604060002091825461460f565b9055565b5080600052600c60205260ff60406000205416156150cf565b906001600160a01b03811680158015615182575b61516857926150f793600052600c6020526150f0600d60406000200191825461460f565b5050600052601b602052615113604060002091825461460f565b5080600052600c60205260ff6040600020541615615144565b906001600160a01b038116801580156151d7575b6150f957926150f79360005260236020526151d0604060002091825461460f565b9055614ff3565b5080600052600c60205260ff60406000205416156151af565b906001600160a01b03811680158015615228575b61516857926150f793600052600c6020526151d0600d60406000200191825461460f565b5080600052600c60205260ff6040600020541615615204565b906001600160a01b0381168015801561527d575b6150f957926150f7936000526023602052615276604060002091825461460f565b9055615057565b5080600052600c60205260ff6040600020541615615255565b906001600160a01b038116801580156152ce575b61516857926150f793600052600c602052615276600d60406000200191825461460f565b5080600052600c60205260ff60406000205416156152aa565b90611388918281101561530e578203918211610cb35781811115615309575090565b905090565b505050600090565b6103e8908181101561533f578103908111610cb357806064116000146153395790565b50606490565b5050600090565b6107d0908181101561533f578103908111610cb357806032116000146153695790565b50603290565b6101f4908181101561533f578103908111610cb35780600a116000146153925790565b50600a90565b6107d0908181101561533f578103908111610cb357806064116000146153395790565b6107d0908181101561533f578103908111610cb357806019116000146153de5790565b5060199056fe68cb741d0779160e141ccf5dd579423de44febc76c0edddcc6167807a3c16af7c5a523fad910d10f2e95e81baa27487ab1f8867069e11e28424fff2c49ec980de71a25c367057ba6c32bea73ffe6eac519023fe04617b003d4ddc2781cb847cf9e2bd5f99a08e89f06d56896c56146aa32e257d0942bbd7c9b9748a26fd9d4e2a26469706673582212209476a5f2f7e25965da948d91e2f58ba9d972433ad4f585bc643a07a12fcc4e2b64736f6c63430008180033",
  "linkReferences": {},
  "deployedLinkReferences": {}
}