{
  "_format": "hh-sol-artifact-1",
  "contractName": "EasyGameAdvance",
  "sourceName": "contracts/EasyGameAdvance.sol",
  "abi": [
    {
      "inputs": [
        {
          "internalType": "address",
          "name": "projectWallet_",
          "type": "address"
        },
        {
          "internalType": "address",
          "name": "treasuryWallet_",
          "type": "address"
        },
        {
          "internalType": "address",
          "name": "operatorWallet_",
          "type": "address"
        },
        {
          "internalType": "address",
          "name": "usdcToken_",
          "type": "address"
        }
      ],
      "stateMutability": "nonpayable",
      "type": "constructor"
    },
    {
      "inputs": [
        {
          "internalType": "uint8",
          "name": "level",
          "type": "uint8"
        }
      ],
      "name": "InvalidLevel",
      "type": "error"
    },
    {
      "inputs": [],
      "name": "ZeroAddress",
      "type": "error"
    },
    {
      "anonymous": false,
      "inputs": [
        {
          "indexed": true,
          "internalType": "address",
          "name": "player",
          "type": "address"
        },
        {
          "indexed": true,
          "internalType": "uint8",
          "name": "level",
          "type": "uint8"
        },
        {
          "indexed": false,
          "internalType": "uint256",
          "name": "amount",
          "type": "uint256"
        }
      ],
      "name": "BoxTokenGranted",
      "type": "event"
    },
    {
      "anonymous": false,
      "inputs": [
        {
          "indexed": true,
          "internalType": "uint8",
          "name": "level",
          "type": "uint8"
        },
        {
          "indexed": false,
          "internalType": "uint256",
          "name": "randomSeed",
          "type": "uint256"
        },
        {
          "indexed": false,
          "internalType": "uint256",
          "name": "totalWeight",
          "type": "uint256"
        }
      ],
      "name": "DrawRequested",
      "type": "event"
    },
    {
      "anonymous": false,
      "inputs": [
        {
          "indexed": true,
          "internalType": "address",
          "name": "winner",
          "type": "address"
        },
        {
          "indexed": true,
          "internalType": "uint8",
          "name": "level",
          "type": "uint8"
        },
        {
          "indexed": false,
          "internalType": "uint256",
          "name": "amount",
          "type": "uint256"
        },
        {
          "indexed": false,
          "internalType": "bool",
          "name": "pending",
          "type": "bool"
        }
      ],
      "name": "DrawWon",
      "type": "event"
    },
    {
      "anonymous": false,
      "inputs": [
        {
          "indexed": true,
          "internalType": "address",
          "name": "player",
          "type": "address"
        },
        {
          "indexed": true,
          "internalType": "uint8",
          "name": "level",
          "type": "uint8"
        },
        {
          "indexed": false,
          "internalType": "uint256",
          "name": "value",
          "type": "uint256"
        },
        {
          "indexed": false,
          "internalType": "uint256",
          "name": "cellId",
          "type": "uint256"
        }
      ],
      "name": "LevelActivated",
      "type": "event"
    },
    {
      "anonymous": false,
      "inputs": [
        {
          "indexed": true,
          "internalType": "uint8",
          "name": "level",
          "type": "uint8"
        },
        {
          "indexed": false,
          "internalType": "bool",
          "name": "available",
          "type": "bool"
        }
      ],
      "name": "LevelAvailabilityChanged",
      "type": "event"
    },
    {
      "anonymous": false,
      "inputs": [
        {
          "indexed": true,
          "internalType": "address",
          "name": "player",
          "type": "address"
        },
        {
          "indexed": true,
          "internalType": "uint8",
          "name": "level",
          "type": "uint8"
        }
      ],
      "name": "LevelFrozen",
      "type": "event"
    },
    {
      "anonymous": false,
      "inputs": [
        {
          "indexed": true,
          "internalType": "uint8",
          "name": "level",
          "type": "uint8"
        },
        {
          "indexed": false,
          "internalType": "uint256",
          "name": "oldPrice",
          "type": "uint256"
        },
        {
          "indexed": false,
          "internalType": "uint256",
          "name": "newPrice",
          "type": "uint256"
        }
      ],
      "name": "LevelPriceChanged",
      "type": "event"
    },
    {
      "anonymous": false,
      "inputs": [
        {
          "indexed": true,
          "internalType": "address",
          "name": "player",
          "type": "address"
        },
        {
          "indexed": true,
          "internalType": "uint8",
          "name": "level",
          "type": "uint8"
        }
      ],
      "name": "LevelUnfrozen",
      "type": "event"
    },
    {
      "anonymous": false,
      "inputs": [
        {
          "indexed": true,
          "internalType": "uint8",
          "name": "level",
          "type": "uint8"
        },
        {
          "indexed": false,
          "internalType": "uint256",
          "name": "oldPrice",
          "type": "uint256"
        },
        {
          "indexed": false,
          "internalType": "uint256",
          "name": "newPrice",
          "type": "uint256"
        }
      ],
      "name": "LevelUsdcPriceChanged",
      "type": "event"
    },
    {
      "anonymous": false,
      "inputs": [
        {
          "indexed": true,
          "internalType": "address",
          "name": "player",
          "type": "address"
        },
        {
          "indexed": true,
          "internalType": "uint8",
          "name": "level",
          "type": "uint8"
        },
        {
          "indexed": true,
          "internalType": "uint256",
          "name": "cellId",
          "type": "uint256"
        },
        {
          "indexed": false,
          "internalType": "uint256",
          "name": "parentCellId",
          "type": "uint256"
        }
      ],
      "name": "MatrixPlaced",
      "type": "event"
    },
    {
      "anonymous": false,
      "inputs": [
        {
          "indexed": true,
          "internalType": "address",
          "name": "previousOwner",
          "type": "address"
        },
        {
          "indexed": true,
          "internalType": "address",
          "name": "newOwner",
          "type": "address"
        }
      ],
      "name": "OwnershipTransferred",
      "type": "event"
    },
    {
      "anonymous": false,
      "inputs": [
        {
          "indexed": true,
          "internalType": "address",
          "name": "player",
          "type": "address"
        },
        {
          "indexed": true,
          "internalType": "uint8",
          "name": "level",
          "type": "uint8"
        },
        {
          "indexed": false,
          "internalType": "uint256",
          "name": "matrixPrizeAmount",
          "type": "uint256"
        },
        {
          "indexed": false,
          "internalType": "uint256",
          "name": "directReferralAmount",
          "type": "uint256"
        },
        {
          "indexed": false,
          "internalType": "uint256",
          "name": "secondLineAmount",
          "type": "uint256"
        },
        {
          "indexed": false,
          "internalType": "uint256",
          "name": "thirdLineAmount",
          "type": "uint256"
        },
        {
          "indexed": false,
          "internalType": "uint256",
          "name": "projectFeeAmount",
          "type": "uint256"
        }
      ],
      "name": "PaymentSplit",
      "type": "event"
    },
    {
      "anonymous": false,
      "inputs": [
        {
          "indexed": true,
          "internalType": "address",
          "name": "player",
          "type": "address"
        },
        {
          "indexed": true,
          "internalType": "uint8",
          "name": "level",
          "type": "uint8"
        },
        {
          "indexed": false,
          "internalType": "uint256",
          "name": "amount",
          "type": "uint256"
        }
      ],
      "name": "PrizeClaimed",
      "type": "event"
    },
    {
      "anonymous": false,
      "inputs": [
        {
          "indexed": true,
          "internalType": "address",
          "name": "player",
          "type": "address"
        },
        {
          "indexed": true,
          "internalType": "uint8",
          "name": "level",
          "type": "uint8"
        },
        {
          "indexed": true,
          "internalType": "uint256",
          "name": "cellId",
          "type": "uint256"
        },
        {
          "indexed": false,
          "internalType": "uint256",
          "name": "amount",
          "type": "uint256"
        },
        {
          "indexed": false,
          "internalType": "bool",
          "name": "pending",
          "type": "bool"
        }
      ],
      "name": "PrizePositionReached",
      "type": "event"
    },
    {
      "anonymous": false,
      "inputs": [
        {
          "indexed": true,
          "internalType": "uint8",
          "name": "level",
          "type": "uint8"
        },
        {
          "indexed": false,
          "internalType": "uint256",
          "name": "amount",
          "type": "uint256"
        },
        {
          "indexed": false,
          "internalType": "uint256",
          "name": "totalAccrued",
          "type": "uint256"
        }
      ],
      "name": "ProjectFeeAccrued",
      "type": "event"
    },
    {
      "anonymous": false,
      "inputs": [
        {
          "indexed": true,
          "internalType": "address",
          "name": "wallet",
          "type": "address"
        },
        {
          "indexed": false,
          "internalType": "uint256",
          "name": "amount",
          "type": "uint256"
        }
      ],
      "name": "ProjectFeesWithdrawn",
      "type": "event"
    },
    {
      "anonymous": false,
      "inputs": [
        {
          "indexed": true,
          "internalType": "address",
          "name": "player",
          "type": "address"
        },
        {
          "indexed": true,
          "internalType": "uint8",
          "name": "level",
          "type": "uint8"
        },
        {
          "indexed": false,
          "internalType": "uint256",
          "name": "recycleCount",
          "type": "uint256"
        },
        {
          "indexed": false,
          "internalType": "uint256",
          "name": "newCellId",
          "type": "uint256"
        }
      ],
      "name": "Recycled",
      "type": "event"
    },
    {
      "anonymous": false,
      "inputs": [
        {
          "indexed": true,
          "internalType": "address",
          "name": "inviter",
          "type": "address"
        },
        {
          "indexed": true,
          "internalType": "address",
          "name": "invitee",
          "type": "address"
        },
        {
          "indexed": true,
          "internalType": "uint8",
          "name": "level",
          "type": "uint8"
        },
        {
          "indexed": false,
          "internalType": "uint256",
          "name": "bonusAmount",
          "type": "uint256"
        },
        {
          "indexed": false,
          "internalType": "uint256",
          "name": "weightAdded",
          "type": "uint256"
        }
      ],
      "name": "ReferralBonusAdded",
      "type": "event"
    },
    {
      "anonymous": false,
      "inputs": [
        {
          "indexed": true,
          "internalType": "address",
          "name": "player",
          "type": "address"
        },
        {
          "indexed": false,
          "internalType": "uint256",
          "name": "amount",
          "type": "uint256"
        }
      ],
      "name": "ReferralBonusClaimed",
      "type": "event"
    },
    {
      "anonymous": false,
      "inputs": [
        {
          "indexed": true,
          "internalType": "address",
          "name": "inviter",
          "type": "address"
        },
        {
          "indexed": true,
          "internalType": "address",
          "name": "invitee",
          "type": "address"
        },
        {
          "indexed": true,
          "internalType": "uint8",
          "name": "level",
          "type": "uint8"
        },
        {
          "indexed": false,
          "internalType": "uint256",
          "name": "bonusAmount",
          "type": "uint256"
        },
        {
          "indexed": false,
          "internalType": "uint256",
          "name": "weightAdded",
          "type": "uint256"
        }
      ],
      "name": "SecondLineBonusAdded",
      "type": "event"
    },
    {
      "anonymous": false,
      "inputs": [
        {
          "indexed": true,
          "internalType": "address",
          "name": "inviter",
          "type": "address"
        },
        {
          "indexed": true,
          "internalType": "address",
          "name": "invitee",
          "type": "address"
        },
        {
          "indexed": true,
          "internalType": "uint8",
          "name": "level",
          "type": "uint8"
        },
        {
          "indexed": false,
          "internalType": "uint256",
          "name": "bonusAmount",
          "type": "uint256"
        },
        {
          "indexed": false,
          "internalType": "uint256",
          "name": "weightAdded",
          "type": "uint256"
        }
      ],
      "name": "ThirdLineBonusAdded",
      "type": "event"
    },
    {
      "anonymous": false,
      "inputs": [
        {
          "indexed": true,
          "internalType": "address",
          "name": "winner",
          "type": "address"
        },
        {
          "indexed": true,
          "internalType": "uint8",
          "name": "level",
          "type": "uint8"
        },
        {
          "indexed": true,
          "internalType": "address",
          "name": "token",
          "type": "address"
        },
        {
          "indexed": false,
          "internalType": "uint256",
          "name": "amount",
          "type": "uint256"
        },
        {
          "indexed": false,
          "internalType": "bool",
          "name": "pending",
          "type": "bool"
        }
      ],
      "name": "TokenDrawWon",
      "type": "event"
    },
    {
      "anonymous": false,
      "inputs": [
        {
          "indexed": true,
          "internalType": "address",
          "name": "player",
          "type": "address"
        },
        {
          "indexed": true,
          "internalType": "uint8",
          "name": "level",
          "type": "uint8"
        },
        {
          "indexed": true,
          "internalType": "address",
          "name": "token",
          "type": "address"
        },
        {
          "indexed": false,
          "internalType": "uint256",
          "name": "matrixPrizeAmount",
          "type": "uint256"
        },
        {
          "indexed": false,
          "internalType": "uint256",
          "name": "directReferralAmount",
          "type": "uint256"
        },
        {
          "indexed": false,
          "internalType": "uint256",
          "name": "secondLineAmount",
          "type": "uint256"
        },
        {
          "indexed": false,
          "internalType": "uint256",
          "name": "thirdLineAmount",
          "type": "uint256"
        },
        {
          "indexed": false,
          "internalType": "uint256",
          "name": "projectFeeAmount",
          "type": "uint256"
        }
      ],
      "name": "TokenPaymentSplit",
      "type": "event"
    },
    {
      "anonymous": false,
      "inputs": [
        {
          "indexed": true,
          "internalType": "address",
          "name": "player",
          "type": "address"
        },
        {
          "indexed": true,
          "internalType": "address",
          "name": "token",
          "type": "address"
        },
        {
          "indexed": true,
          "internalType": "uint8",
          "name": "level",
          "type": "uint8"
        },
        {
          "indexed": false,
          "internalType": "uint256",
          "name": "amount",
          "type": "uint256"
        }
      ],
      "name": "TokenPrizeClaimed",
      "type": "event"
    },
    {
      "anonymous": false,
      "inputs": [
        {
          "indexed": true,
          "internalType": "address",
          "name": "player",
          "type": "address"
        },
        {
          "indexed": true,
          "internalType": "uint8",
          "name": "level",
          "type": "uint8"
        },
        {
          "indexed": true,
          "internalType": "address",
          "name": "token",
          "type": "address"
        },
        {
          "indexed": false,
          "internalType": "uint256",
          "name": "cellId",
          "type": "uint256"
        },
        {
          "indexed": false,
          "internalType": "uint256",
          "name": "amount",
          "type": "uint256"
        },
        {
          "indexed": false,
          "internalType": "bool",
          "name": "pending",
          "type": "bool"
        }
      ],
      "name": "TokenPrizePositionReached",
      "type": "event"
    },
    {
      "anonymous": false,
      "inputs": [
        {
          "indexed": true,
          "internalType": "address",
          "name": "token",
          "type": "address"
        },
        {
          "indexed": true,
          "internalType": "uint8",
          "name": "level",
          "type": "uint8"
        },
        {
          "indexed": false,
          "internalType": "uint256",
          "name": "amount",
          "type": "uint256"
        },
        {
          "indexed": false,
          "internalType": "uint256",
          "name": "totalAccrued",
          "type": "uint256"
        }
      ],
      "name": "TokenProjectFeeAccrued",
      "type": "event"
    },
    {
      "anonymous": false,
      "inputs": [
        {
          "indexed": true,
          "internalType": "address",
          "name": "token",
          "type": "address"
        },
        {
          "indexed": true,
          "internalType": "address",
          "name": "wallet",
          "type": "address"
        },
        {
          "indexed": false,
          "internalType": "uint256",
          "name": "amount",
          "type": "uint256"
        }
      ],
      "name": "TokenProjectFeesWithdrawn",
      "type": "event"
    },
    {
      "anonymous": false,
      "inputs": [
        {
          "indexed": true,
          "internalType": "address",
          "name": "player",
          "type": "address"
        },
        {
          "indexed": true,
          "internalType": "address",
          "name": "token",
          "type": "address"
        },
        {
          "indexed": false,
          "internalType": "uint256",
          "name": "amount",
          "type": "uint256"
        }
      ],
      "name": "TokenReferralBonusClaimed",
      "type": "event"
    },
    {
      "anonymous": false,
      "inputs": [
        {
          "indexed": true,
          "internalType": "address",
          "name": "oldToken",
          "type": "address"
        },
        {
          "indexed": true,
          "internalType": "address",
          "name": "newToken",
          "type": "address"
        }
      ],
      "name": "UsdcTokenChanged",
      "type": "event"
    },
    {
      "anonymous": false,
      "inputs": [
        {
          "indexed": false,
          "internalType": "address",
          "name": "projectWallet",
          "type": "address"
        },
        {
          "indexed": false,
          "internalType": "address",
          "name": "treasuryWallet",
          "type": "address"
        },
        {
          "indexed": false,
          "internalType": "address",
          "name": "operatorWallet",
          "type": "address"
        }
      ],
      "name": "WalletsChanged",
      "type": "event"
    },
    {
      "anonymous": false,
      "inputs": [
        {
          "indexed": true,
          "internalType": "address",
          "name": "player",
          "type": "address"
        },
        {
          "indexed": true,
          "internalType": "uint8",
          "name": "level",
          "type": "uint8"
        },
        {
          "indexed": false,
          "internalType": "uint256",
          "name": "totalWeight",
          "type": "uint256"
        }
      ],
      "name": "WeightUpdated",
      "type": "event"
    },
    {
      "inputs": [],
      "name": "BASE_ACTIVATION_WEIGHT",
      "outputs": [
        {
          "internalType": "uint256",
          "name": "",
          "type": "uint256"
        }
      ],
      "stateMutability": "view",
      "type": "function"
    },
    {
      "inputs": [],
      "name": "BOX_NFT_WEIGHT",
      "outputs": [
        {
          "internalType": "uint256",
          "name": "",
          "type": "uint256"
        }
      ],
      "stateMutability": "view",
      "type": "function"
    },
    {
      "inputs": [],
      "name": "BPS",
      "outputs": [
        {
          "internalType": "uint256",
          "name": "",
          "type": "uint256"
        }
      ],
      "stateMutability": "view",
      "type": "function"
    },
    {
      "inputs": [],
      "name": "DIRECT_REF_BPS",
      "outputs": [
        {
          "internalType": "uint256",
          "name": "",
          "type": "uint256"
        }
      ],
      "stateMutability": "view",
      "type": "function"
    },
    {
      "inputs": [],
      "name": "DIRECT_REF_WEIGHT",
      "outputs": [
        {
          "internalType": "uint256",
          "name": "",
          "type": "uint256"
        }
      ],
      "stateMutability": "view",
      "type": "function"
    },
    {
      "inputs": [],
      "name": "DRAW_REWARD_BPS",
      "outputs": [
        {
          "internalType": "uint256",
          "name": "",
          "type": "uint256"
        }
      ],
      "stateMutability": "view",
      "type": "function"
    },
    {
      "inputs": [],
      "name": "LEVEL_COUNT",
      "outputs": [
        {
          "internalType": "uint8",
          "name": "",
          "type": "uint8"
        }
      ],
      "stateMutability": "view",
      "type": "function"
    },
    {
      "inputs": [],
      "name": "MATRIX_PRIZE_BPS",
      "outputs": [
        {
          "internalType": "uint256",
          "name": "",
          "type": "uint256"
        }
      ],
      "stateMutability": "view",
      "type": "function"
    },
    {
      "inputs": [],
      "name": "MAX_BASE_WEIGHT_PER_LEVEL",
      "outputs": [
        {
          "internalType": "uint256",
          "name": "",
          "type": "uint256"
        }
      ],
      "stateMutability": "view",
      "type": "function"
    },
    {
      "inputs": [],
      "name": "MAX_LOYALTY_WEIGHT_PER_LEVEL",
      "outputs": [
        {
          "internalType": "uint256",
          "name": "",
          "type": "uint256"
        }
      ],
      "stateMutability": "view",
      "type": "function"
    },
    {
      "inputs": [],
      "name": "MAX_MATRIX_WEIGHT_PER_LEVEL",
      "outputs": [
        {
          "internalType": "uint256",
          "name": "",
          "type": "uint256"
        }
      ],
      "stateMutability": "view",
      "type": "function"
    },
    {
      "inputs": [],
      "name": "MAX_NFT_WEIGHT_PER_LEVEL",
      "outputs": [
        {
          "internalType": "uint256",
          "name": "",
          "type": "uint256"
        }
      ],
      "stateMutability": "view",
      "type": "function"
    },
    {
      "inputs": [],
      "name": "MAX_REFERRAL_WEIGHT_PER_LEVEL",
      "outputs": [
        {
          "internalType": "uint256",
          "name": "",
          "type": "uint256"
        }
      ],
      "stateMutability": "view",
      "type": "function"
    },
    {
      "inputs": [],
      "name": "MAX_TOTAL_WEIGHT_PER_LEVEL",
      "outputs": [
        {
          "internalType": "uint256",
          "name": "",
          "type": "uint256"
        }
      ],
      "stateMutability": "view",
      "type": "function"
    },
    {
      "inputs": [],
      "name": "PRIZE_POSITION_BPS",
      "outputs": [
        {
          "internalType": "uint256",
          "name": "",
          "type": "uint256"
        }
      ],
      "stateMutability": "view",
      "type": "function"
    },
    {
      "inputs": [],
      "name": "PROJECT_FEE_BPS",
      "outputs": [
        {
          "internalType": "uint256",
          "name": "",
          "type": "uint256"
        }
      ],
      "stateMutability": "view",
      "type": "function"
    },
    {
      "inputs": [],
      "name": "RECYCLE_MATRIX_WEIGHT",
      "outputs": [
        {
          "internalType": "uint256",
          "name": "",
          "type": "uint256"
        }
      ],
      "stateMutability": "view",
      "type": "function"
    },
    {
      "inputs": [],
      "name": "SECOND_REF_BPS",
      "outputs": [
        {
          "internalType": "uint256",
          "name": "",
          "type": "uint256"
        }
      ],
      "stateMutability": "view",
      "type": "function"
    },
    {
      "inputs": [],
      "name": "SECOND_REF_WEIGHT",
      "outputs": [
        {
          "internalType": "uint256",
          "name": "",
          "type": "uint256"
        }
      ],
      "stateMutability": "view",
      "type": "function"
    },
    {
      "inputs": [],
      "name": "THIRD_REF_BPS",
      "outputs": [
        {
          "internalType": "uint256",
          "name": "",
          "type": "uint256"
        }
      ],
      "stateMutability": "view",
      "type": "function"
    },
    {
      "inputs": [],
      "name": "THIRD_REF_WEIGHT",
      "outputs": [
        {
          "internalType": "uint256",
          "name": "",
          "type": "uint256"
        }
      ],
      "stateMutability": "view",
      "type": "function"
    },
    {
      "inputs": [],
      "name": "WEEKLY_LOYALTY_WEIGHT",
      "outputs": [
        {
          "internalType": "uint256",
          "name": "",
          "type": "uint256"
        }
      ],
      "stateMutability": "view",
      "type": "function"
    },
    {
      "inputs": [],
      "name": "WEIGHT_SCALE",
      "outputs": [
        {
          "internalType": "uint256",
          "name": "",
          "type": "uint256"
        }
      ],
      "stateMutability": "view",
      "type": "function"
    },
    {
      "inputs": [
        {
          "internalType": "uint8",
          "name": "level",
          "type": "uint8"
        },
        {
          "internalType": "address",
          "name": "inviter",
          "type": "address"
        }
      ],
      "name": "activateLevel",
      "outputs": [],
      "stateMutability": "payable",
      "type": "function"
    },
    {
      "inputs": [
        {
          "internalType": "uint8",
          "name": "level",
          "type": "uint8"
        },
        {
          "internalType": "address",
          "name": "inviter",
          "type": "address"
        }
      ],
      "name": "activateLevelWithUSDC",
      "outputs": [],
      "stateMutability": "nonpayable",
      "type": "function"
    },
    {
      "inputs": [
        {
          "internalType": "uint8",
          "name": "",
          "type": "uint8"
        }
      ],
      "name": "activeCellsByLevel",
      "outputs": [
        {
          "internalType": "uint256",
          "name": "",
          "type": "uint256"
        }
      ],
      "stateMutability": "view",
      "type": "function"
    },
    {
      "inputs": [
        {
          "internalType": "uint8",
          "name": "level",
          "type": "uint8"
        }
      ],
      "name": "claimPrize",
      "outputs": [],
      "stateMutability": "nonpayable",
      "type": "function"
    },
    {
      "inputs": [
        {
          "internalType": "uint8",
          "name": "level",
          "type": "uint8"
        }
      ],
      "name": "claimPrizeUSDC",
      "outputs": [],
      "stateMutability": "nonpayable",
      "type": "function"
    },
    {
      "inputs": [],
      "name": "claimReferralBonus",
      "outputs": [],
      "stateMutability": "nonpayable",
      "type": "function"
    },
    {
      "inputs": [],
      "name": "claimReferralBonusUSDC",
      "outputs": [],
      "stateMutability": "nonpayable",
      "type": "function"
    },
    {
      "inputs": [
        {
          "internalType": "address",
          "name": "",
          "type": "address"
        }
      ],
      "name": "claimablePrizeUsdc",
      "outputs": [
        {
          "internalType": "uint256",
          "name": "",
          "type": "uint256"
        }
      ],
      "stateMutability": "view",
      "type": "function"
    },
    {
      "inputs": [
        {
          "internalType": "address",
          "name": "",
          "type": "address"
        },
        {
          "internalType": "uint8",
          "name": "",
          "type": "uint8"
        }
      ],
      "name": "claimablePrizeUsdcByLevel",
      "outputs": [
        {
          "internalType": "uint256",
          "name": "",
          "type": "uint256"
        }
      ],
      "stateMutability": "view",
      "type": "function"
    },
    {
      "inputs": [
        {
          "internalType": "address",
          "name": "",
          "type": "address"
        }
      ],
      "name": "claimableReferralBonusUsdc",
      "outputs": [
        {
          "internalType": "uint256",
          "name": "",
          "type": "uint256"
        }
      ],
      "stateMutability": "view",
      "type": "function"
    },
    {
      "inputs": [
        {
          "internalType": "uint8",
          "name": "level",
          "type": "uint8"
        }
      ],
      "name": "getLevelMatrixStats",
      "outputs": [
        {
          "internalType": "uint256",
          "name": "size",
          "type": "uint256"
        },
        {
          "internalType": "uint256",
          "name": "nextOpenParentId",
          "type": "uint256"
        }
      ],
      "stateMutability": "view",
      "type": "function"
    },
    {
      "inputs": [
        {
          "internalType": "uint8",
          "name": "level",
          "type": "uint8"
        }
      ],
      "name": "getLevelStats",
      "outputs": [
        {
          "internalType": "uint256",
          "name": "prizePool",
          "type": "uint256"
        },
        {
          "internalType": "uint256",
          "name": "totalWeight",
          "type": "uint256"
        },
        {
          "internalType": "uint256",
          "name": "activeCells",
          "type": "uint256"
        },
        {
          "internalType": "uint256",
          "name": "nextOpenParent",
          "type": "uint256"
        },
        {
          "internalType": "uint256",
          "name": "nextCell",
          "type": "uint256"
        }
      ],
      "stateMutability": "view",
      "type": "function"
    },
    {
      "inputs": [
        {
          "internalType": "uint8",
          "name": "level",
          "type": "uint8"
        }
      ],
      "name": "getLevelStatsUSDC",
      "outputs": [
        {
          "internalType": "uint256",
          "name": "prizePool",
          "type": "uint256"
        },
        {
          "internalType": "uint256",
          "name": "totalWeight",
          "type": "uint256"
        },
        {
          "internalType": "uint256",
          "name": "activeCells",
          "type": "uint256"
        },
        {
          "internalType": "uint256",
          "name": "nextOpenParent",
          "type": "uint256"
        },
        {
          "internalType": "uint256",
          "name": "nextCell",
          "type": "uint256"
        }
      ],
      "stateMutability": "view",
      "type": "function"
    },
    {
      "inputs": [
        {
          "internalType": "uint8",
          "name": "level",
          "type": "uint8"
        },
        {
          "internalType": "uint256",
          "name": "cellId",
          "type": "uint256"
        }
      ],
      "name": "getMatrixNode",
      "outputs": [
        {
          "components": [
            {
              "internalType": "uint256",
              "name": "cellId",
              "type": "uint256"
            },
            {
              "internalType": "address",
              "name": "player",
              "type": "address"
            },
            {
              "internalType": "uint8",
              "name": "level",
              "type": "uint8"
            },
            {
              "internalType": "uint256",
              "name": "parentCellId",
              "type": "uint256"
            },
            {
              "internalType": "uint256",
              "name": "leftChildCellId",
              "type": "uint256"
            },
            {
              "internalType": "uint256",
              "name": "rightChildCellId",
              "type": "uint256"
            },
            {
              "internalType": "bool",
              "name": "closed",
              "type": "bool"
            },
            {
              "internalType": "bool",
              "name": "prizeCell",
              "type": "bool"
            }
          ],
          "internalType": "struct MatrixNode",
          "name": "",
          "type": "tuple"
        }
      ],
      "stateMutability": "view",
      "type": "function"
    },
    {
      "inputs": [
        {
          "internalType": "uint8",
          "name": "level",
          "type": "uint8"
        },
        {
          "internalType": "uint256",
          "name": "currentCellId",
          "type": "uint256"
        }
      ],
      "name": "getNextPrizeCell",
      "outputs": [
        {
          "internalType": "uint256",
          "name": "",
          "type": "uint256"
        }
      ],
      "stateMutability": "pure",
      "type": "function"
    },
    {
      "inputs": [
        {
          "internalType": "address",
          "name": "playerAddress",
          "type": "address"
        }
      ],
      "name": "getPlayer",
      "outputs": [
        {
          "components": [
            {
              "internalType": "bool",
              "name": "exists",
              "type": "bool"
            },
            {
              "internalType": "address",
              "name": "wallet",
              "type": "address"
            },
            {
              "internalType": "address",
              "name": "inviter",
              "type": "address"
            },
            {
              "internalType": "address",
              "name": "secondLine",
              "type": "address"
            },
            {
              "internalType": "address",
              "name": "thirdLine",
              "type": "address"
            },
            {
              "internalType": "uint256",
              "name": "totalTickets",
              "type": "uint256"
            },
            {
              "internalType": "uint256",
              "name": "baseWeight",
              "type": "uint256"
            },
            {
              "internalType": "uint256",
              "name": "referralWeight",
              "type": "uint256"
            },
            {
              "internalType": "uint256",
              "name": "loyaltyWeight",
              "type": "uint256"
            },
            {
              "internalType": "uint256",
              "name": "matrixWeight",
              "type": "uint256"
            },
            {
              "internalType": "uint256",
              "name": "nftWeight",
              "type": "uint256"
            },
            {
              "internalType": "uint256",
              "name": "totalWeight",
              "type": "uint256"
            },
            {
              "internalType": "uint256",
              "name": "boxTokens",
              "type": "uint256"
            },
            {
              "internalType": "uint256",
              "name": "recycleCount",
              "type": "uint256"
            },
            {
              "internalType": "uint256",
              "name": "claimableReferralBonus",
              "type": "uint256"
            },
            {
              "internalType": "uint256",
              "name": "claimablePrize",
              "type": "uint256"
            },
            {
              "internalType": "uint256",
              "name": "pendingPrize",
              "type": "uint256"
            },
            {
              "internalType": "uint256",
              "name": "joinedAt",
              "type": "uint256"
            },
            {
              "internalType": "uint256",
              "name": "lastActiveAt",
              "type": "uint256"
            }
          ],
          "internalType": "struct Player",
          "name": "",
          "type": "tuple"
        }
      ],
      "stateMutability": "view",
      "type": "function"
    },
    {
      "inputs": [
        {
          "internalType": "address",
          "name": "playerAddress",
          "type": "address"
        },
        {
          "internalType": "uint8",
          "name": "level",
          "type": "uint8"
        }
      ],
      "name": "getPlayerChance",
      "outputs": [
        {
          "internalType": "uint256",
          "name": "chanceBps",
          "type": "uint256"
        }
      ],
      "stateMutability": "view",
      "type": "function"
    },
    {
      "inputs": [
        {
          "internalType": "address",
          "name": "playerAddress",
          "type": "address"
        },
        {
          "internalType": "uint8",
          "name": "level",
          "type": "uint8"
        }
      ],
      "name": "getPlayerLevel",
      "outputs": [
        {
          "internalType": "bool",
          "name": "active",
          "type": "bool"
        },
        {
          "internalType": "bool",
          "name": "frozen",
          "type": "bool"
        },
        {
          "internalType": "uint256",
          "name": "cycles",
          "type": "uint256"
        },
        {
          "internalType": "uint256",
          "name": "positionId",
          "type": "uint256"
        },
        {
          "internalType": "uint256",
          "name": "earned",
          "type": "uint256"
        }
      ],
      "stateMutability": "view",
      "type": "function"
    },
    {
      "inputs": [
        {
          "internalType": "address",
          "name": "playerAddress",
          "type": "address"
        },
        {
          "internalType": "uint8",
          "name": "level",
          "type": "uint8"
        }
      ],
      "name": "getPlayerLevelFull",
      "outputs": [
        {
          "components": [
            {
              "internalType": "bool",
              "name": "active",
              "type": "bool"
            },
            {
              "internalType": "bool",
              "name": "frozen",
              "type": "bool"
            },
            {
              "internalType": "uint256",
              "name": "tickets",
              "type": "uint256"
            },
            {
              "internalType": "uint256",
              "name": "cellId",
              "type": "uint256"
            },
            {
              "internalType": "uint256",
              "name": "parentCellId",
              "type": "uint256"
            },
            {
              "internalType": "uint256",
              "name": "leftChildCellId",
              "type": "uint256"
            },
            {
              "internalType": "uint256",
              "name": "rightChildCellId",
              "type": "uint256"
            },
            {
              "internalType": "uint256",
              "name": "cycleCount",
              "type": "uint256"
            },
            {
              "internalType": "uint256",
              "name": "levelWeight",
              "type": "uint256"
            },
            {
              "internalType": "uint256",
              "name": "claimablePrize",
              "type": "uint256"
            },
            {
              "internalType": "uint256",
              "name": "pendingPrize",
              "type": "uint256"
            }
          ],
          "internalType": "struct PlayerLevel",
          "name": "",
          "type": "tuple"
        }
      ],
      "stateMutability": "view",
      "type": "function"
    },
    {
      "inputs": [
        {
          "internalType": "address",
          "name": "playerAddress",
          "type": "address"
        },
        {
          "internalType": "uint8",
          "name": "level",
          "type": "uint8"
        }
      ],
      "name": "getPlayerPosition",
      "outputs": [
        {
          "internalType": "uint256",
          "name": "positionId",
          "type": "uint256"
        },
        {
          "internalType": "uint256",
          "name": "parentId",
          "type": "uint256"
        },
        {
          "internalType": "uint256",
          "name": "leftChildId",
          "type": "uint256"
        },
        {
          "internalType": "uint256",
          "name": "rightChildId",
          "type": "uint256"
        },
        {
          "internalType": "uint256",
          "name": "depth",
          "type": "uint256"
        },
        {
          "internalType": "bool",
          "name": "closed",
          "type": "bool"
        }
      ],
      "stateMutability": "view",
      "type": "function"
    },
    {
      "inputs": [
        {
          "internalType": "address",
          "name": "playerAddress",
          "type": "address"
        },
        {
          "internalType": "uint8",
          "name": "level",
          "type": "uint8"
        }
      ],
      "name": "getPlayerTokenRewards",
      "outputs": [
        {
          "internalType": "uint256",
          "name": "referralBonus",
          "type": "uint256"
        },
        {
          "internalType": "uint256",
          "name": "claimablePrize",
          "type": "uint256"
        },
        {
          "internalType": "uint256",
          "name": "pendingPrize",
          "type": "uint256"
        }
      ],
      "stateMutability": "view",
      "type": "function"
    },
    {
      "inputs": [
        {
          "internalType": "address",
          "name": "playerAddress",
          "type": "address"
        },
        {
          "internalType": "uint8",
          "name": "level",
          "type": "uint8"
        }
      ],
      "name": "getPlayerWeight",
      "outputs": [
        {
          "internalType": "uint256",
          "name": "",
          "type": "uint256"
        }
      ],
      "stateMutability": "view",
      "type": "function"
    },
    {
      "inputs": [
        {
          "internalType": "address",
          "name": "playerAddress",
          "type": "address"
        },
        {
          "internalType": "uint8",
          "name": "level",
          "type": "uint8"
        }
      ],
      "name": "isLevelActive",
      "outputs": [
        {
          "internalType": "bool",
          "name": "",
          "type": "bool"
        }
      ],
      "stateMutability": "view",
      "type": "function"
    },
    {
      "inputs": [
        {
          "internalType": "address",
          "name": "playerAddress",
          "type": "address"
        },
        {
          "internalType": "uint8",
          "name": "level",
          "type": "uint8"
        }
      ],
      "name": "isLevelFrozen",
      "outputs": [
        {
          "internalType": "bool",
          "name": "",
          "type": "bool"
        }
      ],
      "stateMutability": "view",
      "type": "function"
    },
    {
      "inputs": [
        {
          "internalType": "uint8",
          "name": "",
          "type": "uint8"
        }
      ],
      "name": "levelAvailable",
      "outputs": [
        {
          "internalType": "bool",
          "name": "",
          "type": "bool"
        }
      ],
      "stateMutability": "view",
      "type": "function"
    },
    {
      "inputs": [
        {
          "internalType": "uint8",
          "name": "",
          "type": "uint8"
        }
      ],
      "name": "levelMatrixSize",
      "outputs": [
        {
          "internalType": "uint256",
          "name": "",
          "type": "uint256"
        }
      ],
      "stateMutability": "view",
      "type": "function"
    },
    {
      "inputs": [
        {
          "internalType": "uint8",
          "name": "",
          "type": "uint8"
        }
      ],
      "name": "levelPrices",
      "outputs": [
        {
          "internalType": "uint256",
          "name": "",
          "type": "uint256"
        }
      ],
      "stateMutability": "view",
      "type": "function"
    },
    {
      "inputs": [
        {
          "internalType": "uint8",
          "name": "",
          "type": "uint8"
        }
      ],
      "name": "levelPricesUsdc",
      "outputs": [
        {
          "internalType": "uint256",
          "name": "",
          "type": "uint256"
        }
      ],
      "stateMutability": "view",
      "type": "function"
    },
    {
      "inputs": [
        {
          "internalType": "uint8",
          "name": "",
          "type": "uint8"
        },
        {
          "internalType": "uint256",
          "name": "",
          "type": "uint256"
        }
      ],
      "name": "matrixNodes",
      "outputs": [
        {
          "internalType": "uint256",
          "name": "cellId",
          "type": "uint256"
        },
        {
          "internalType": "address",
          "name": "player",
          "type": "address"
        },
        {
          "internalType": "uint8",
          "name": "level",
          "type": "uint8"
        },
        {
          "internalType": "uint256",
          "name": "parentCellId",
          "type": "uint256"
        },
        {
          "internalType": "uint256",
          "name": "leftChildCellId",
          "type": "uint256"
        },
        {
          "internalType": "uint256",
          "name": "rightChildCellId",
          "type": "uint256"
        },
        {
          "internalType": "bool",
          "name": "closed",
          "type": "bool"
        },
        {
          "internalType": "bool",
          "name": "prizeCell",
          "type": "bool"
        }
      ],
      "stateMutability": "view",
      "type": "function"
    },
    {
      "inputs": [
        {
          "internalType": "uint8",
          "name": "",
          "type": "uint8"
        }
      ],
      "name": "matrixPrizePools",
      "outputs": [
        {
          "internalType": "uint256",
          "name": "",
          "type": "uint256"
        }
      ],
      "stateMutability": "view",
      "type": "function"
    },
    {
      "inputs": [
        {
          "internalType": "uint8",
          "name": "",
          "type": "uint8"
        }
      ],
      "name": "matrixPrizePoolsUsdc",
      "outputs": [
        {
          "internalType": "uint256",
          "name": "",
          "type": "uint256"
        }
      ],
      "stateMutability": "view",
      "type": "function"
    },
    {
      "inputs": [
        {
          "internalType": "uint8",
          "name": "",
          "type": "uint8"
        }
      ],
      "name": "nextCellId",
      "outputs": [
        {
          "internalType": "uint256",
          "name": "",
          "type": "uint256"
        }
      ],
      "stateMutability": "view",
      "type": "function"
    },
    {
      "inputs": [
        {
          "internalType": "uint8",
          "name": "",
          "type": "uint8"
        }
      ],
      "name": "nextOpenParentCellId",
      "outputs": [
        {
          "internalType": "uint256",
          "name": "",
          "type": "uint256"
        }
      ],
      "stateMutability": "view",
      "type": "function"
    },
    {
      "inputs": [],
      "name": "operatorWallet",
      "outputs": [
        {
          "internalType": "address",
          "name": "",
          "type": "address"
        }
      ],
      "stateMutability": "view",
      "type": "function"
    },
    {
      "inputs": [],
      "name": "owner",
      "outputs": [
        {
          "internalType": "address",
          "name": "",
          "type": "address"
        }
      ],
      "stateMutability": "view",
      "type": "function"
    },
    {
      "inputs": [
        {
          "internalType": "address",
          "name": "",
          "type": "address"
        }
      ],
      "name": "pendingPrizeUsdc",
      "outputs": [
        {
          "internalType": "uint256",
          "name": "",
          "type": "uint256"
        }
      ],
      "stateMutability": "view",
      "type": "function"
    },
    {
      "inputs": [
        {
          "internalType": "address",
          "name": "",
          "type": "address"
        },
        {
          "internalType": "uint8",
          "name": "",
          "type": "uint8"
        }
      ],
      "name": "pendingPrizeUsdcByLevel",
      "outputs": [
        {
          "internalType": "uint256",
          "name": "",
          "type": "uint256"
        }
      ],
      "stateMutability": "view",
      "type": "function"
    },
    {
      "inputs": [
        {
          "internalType": "address",
          "name": "",
          "type": "address"
        },
        {
          "internalType": "uint8",
          "name": "",
          "type": "uint8"
        }
      ],
      "name": "playerLevels",
      "outputs": [
        {
          "internalType": "bool",
          "name": "active",
          "type": "bool"
        },
        {
          "internalType": "bool",
          "name": "frozen",
          "type": "bool"
        },
        {
          "internalType": "uint256",
          "name": "tickets",
          "type": "uint256"
        },
        {
          "internalType": "uint256",
          "name": "cellId",
          "type": "uint256"
        },
        {
          "internalType": "uint256",
          "name": "parentCellId",
          "type": "uint256"
        },
        {
          "internalType": "uint256",
          "name": "leftChildCellId",
          "type": "uint256"
        },
        {
          "internalType": "uint256",
          "name": "rightChildCellId",
          "type": "uint256"
        },
        {
          "internalType": "uint256",
          "name": "cycleCount",
          "type": "uint256"
        },
        {
          "internalType": "uint256",
          "name": "levelWeight",
          "type": "uint256"
        },
        {
          "internalType": "uint256",
          "name": "claimablePrize",
          "type": "uint256"
        },
        {
          "internalType": "uint256",
          "name": "pendingPrize",
          "type": "uint256"
        }
      ],
      "stateMutability": "view",
      "type": "function"
    },
    {
      "inputs": [
        {
          "internalType": "address",
          "name": "",
          "type": "address"
        }
      ],
      "name": "players",
      "outputs": [
        {
          "internalType": "bool",
          "name": "exists",
          "type": "bool"
        },
        {
          "internalType": "address",
          "name": "wallet",
          "type": "address"
        },
        {
          "internalType": "address",
          "name": "inviter",
          "type": "address"
        },
        {
          "internalType": "address",
          "name": "secondLine",
          "type": "address"
        },
        {
          "internalType": "address",
          "name": "thirdLine",
          "type": "address"
        },
        {
          "internalType": "uint256",
          "name": "totalTickets",
          "type": "uint256"
        },
        {
          "internalType": "uint256",
          "name": "baseWeight",
          "type": "uint256"
        },
        {
          "internalType": "uint256",
          "name": "referralWeight",
          "type": "uint256"
        },
        {
          "internalType": "uint256",
          "name": "loyaltyWeight",
          "type": "uint256"
        },
        {
          "internalType": "uint256",
          "name": "matrixWeight",
          "type": "uint256"
        },
        {
          "internalType": "uint256",
          "name": "nftWeight",
          "type": "uint256"
        },
        {
          "internalType": "uint256",
          "name": "totalWeight",
          "type": "uint256"
        },
        {
          "internalType": "uint256",
          "name": "boxTokens",
          "type": "uint256"
        },
        {
          "internalType": "uint256",
          "name": "recycleCount",
          "type": "uint256"
        },
        {
          "internalType": "uint256",
          "name": "claimableReferralBonus",
          "type": "uint256"
        },
        {
          "internalType": "uint256",
          "name": "claimablePrize",
          "type": "uint256"
        },
        {
          "internalType": "uint256",
          "name": "pendingPrize",
          "type": "uint256"
        },
        {
          "internalType": "uint256",
          "name": "joinedAt",
          "type": "uint256"
        },
        {
          "internalType": "uint256",
          "name": "lastActiveAt",
          "type": "uint256"
        }
      ],
      "stateMutability": "view",
      "type": "function"
    },
    {
      "inputs": [],
      "name": "projectFeesAccrued",
      "outputs": [
        {
          "internalType": "uint256",
          "name": "",
          "type": "uint256"
        }
      ],
      "stateMutability": "view",
      "type": "function"
    },
    {
      "inputs": [],
      "name": "projectFeesAccruedUsdc",
      "outputs": [
        {
          "internalType": "uint256",
          "name": "",
          "type": "uint256"
        }
      ],
      "stateMutability": "view",
      "type": "function"
    },
    {
      "inputs": [],
      "name": "projectWallet",
      "outputs": [
        {
          "internalType": "address",
          "name": "",
          "type": "address"
        }
      ],
      "stateMutability": "view",
      "type": "function"
    },
    {
      "inputs": [
        {
          "internalType": "uint8",
          "name": "level",
          "type": "uint8"
        }
      ],
      "name": "requestDraw",
      "outputs": [],
      "stateMutability": "nonpayable",
      "type": "function"
    },
    {
      "inputs": [
        {
          "internalType": "uint8",
          "name": "level",
          "type": "uint8"
        },
        {
          "internalType": "bool",
          "name": "available",
          "type": "bool"
        }
      ],
      "name": "setLevelAvailable",
      "outputs": [],
      "stateMutability": "nonpayable",
      "type": "function"
    },
    {
      "inputs": [
        {
          "internalType": "uint8",
          "name": "level",
          "type": "uint8"
        },
        {
          "internalType": "uint256",
          "name": "newPrice",
          "type": "uint256"
        }
      ],
      "name": "setLevelPrice",
      "outputs": [],
      "stateMutability": "nonpayable",
      "type": "function"
    },
    {
      "inputs": [
        {
          "internalType": "uint8",
          "name": "level",
          "type": "uint8"
        },
        {
          "internalType": "uint256",
          "name": "newPrice",
          "type": "uint256"
        }
      ],
      "name": "setLevelPriceUSDC",
      "outputs": [],
      "stateMutability": "nonpayable",
      "type": "function"
    },
    {
      "inputs": [
        {
          "internalType": "address",
          "name": "newToken",
          "type": "address"
        }
      ],
      "name": "setUsdcToken",
      "outputs": [],
      "stateMutability": "nonpayable",
      "type": "function"
    },
    {
      "inputs": [
        {
          "internalType": "address",
          "name": "newProjectWallet",
          "type": "address"
        },
        {
          "internalType": "address",
          "name": "newTreasuryWallet",
          "type": "address"
        },
        {
          "internalType": "address",
          "name": "newOperatorWallet",
          "type": "address"
        }
      ],
      "name": "setWallets",
      "outputs": [],
      "stateMutability": "nonpayable",
      "type": "function"
    },
    {
      "inputs": [
        {
          "internalType": "uint8",
          "name": "",
          "type": "uint8"
        }
      ],
      "name": "totalWeightByLevel",
      "outputs": [
        {
          "internalType": "uint256",
          "name": "",
          "type": "uint256"
        }
      ],
      "stateMutability": "view",
      "type": "function"
    },
    {
      "inputs": [
        {
          "internalType": "address",
          "name": "newOwner",
          "type": "address"
        }
      ],
      "name": "transferOwnership",
      "outputs": [],
      "stateMutability": "nonpayable",
      "type": "function"
    },
    {
      "inputs": [],
      "name": "treasuryWallet",
      "outputs": [
        {
          "internalType": "address",
          "name": "",
          "type": "address"
        }
      ],
      "stateMutability": "view",
      "type": "function"
    },
    {
      "inputs": [],
      "name": "usdcToken",
      "outputs": [
        {
          "internalType": "contract IERC20Minimal",
          "name": "",
          "type": "address"
        }
      ],
      "stateMutability": "view",
      "type": "function"
    },
    {
      "inputs": [],
      "name": "withdrawProjectFees",
      "outputs": [],
      "stateMutability": "nonpayable",
      "type": "function"
    },
    {
      "inputs": [],
      "name": "withdrawProjectFeesUSDC",
      "outputs": [],
      "stateMutability": "nonpayable",
      "type": "function"
    },
    {
      "stateMutability": "payable",
      "type": "receive"
    }
  ],
  "bytecode": "0x6080346200037157601f6200496e38819003918201601f1916830191906001600160401b0383118484101762000376578160809285926040958652833981010312620003715762000050826200038c565b602062000060602085016200038c565b906200007c6060620000748688016200038c565b96016200038c565b6001601c819055909590936001600160a01b03908116938415620003605781169182156200036057811696871562000360571680156200034f57849660018060a01b0319926000953385885416178755848854161787558360025416176002558260035416176003556004916004541617600455838352600560205266b1a2bc2ec50000858420556002835266f8b0a10e470000858420556003835267016345785d8a000085842055600483526701f161421c8e000085842055600583526702c68af0bb14000085842055600683526703e2c284391c000085842055600780845267058d15e17628000086852055600884526707a1fe16027700008685205560098452670b1a2bc2ec50000086852055600a8452670f43fc2c04ee000086852055600b84526716345785d8a0000086852055600c8452671e87f85809dc000086852055600d8452672c68af0bb140000086852055600e8452673d0ff0b013b8000086852055600f8452675a34a38fc00a00008685205560108452676f05b59d3b200000868520556011926011855267a688906bd8b0000087862055858552600660205261c3508786205560028552620111708786205560038552620186a08786205560048552620222e0878620556005855262030d408786205560068552620445c0878620556007855262061a808786205560088552620864708786205560098552620c350087862055600a85526210c8e087862055600b855262186a0087862055600c8552622191c087862055600d85526230d40087862055600e85526243238087862055600f855262632ea08786205560108552627a1200878620556011855262b71b00878620556003975b620002ff575b86516145cc9081620003a28239f35b60ff881684811162000348578552818152868520805460ff19168717905560ff97881697881462000335579685019685620002ea565b5050634e487b7160e01b83525260249150fd5b50620002f0565b855163d92e233d60e01b8152600490fd5b865163d92e233d60e01b8152600490fd5b600080fd5b634e487b7160e01b600052604160045260246000fd5b51906001600160a01b0382168203620003715756fe6101006040526004361015610053575b361561001a57600080fd5b60405162461bcd60e51b8152602060048201526011602482015270155cd9481858dd1a5d985d1953195d995b607a1b6044820152606490fd5b60003560e01c806303a65dfa14612a5b57806304eb273414612a275780630e475efd146129c557806311eac8551461299c57806319a085941461297e5780631a1478c3146110255780631d6a884b146129625780631e375ab91461289d57806322fbfe8014612811578063249d39e9146127f457806324bdc3a714610403578063267281741461141157806326e0cfe7146127645780632e50d906146127305780632f5ced0414610431578063306bf6bb1461264b578063308c61091461262e57806331b161a7146103a8578063333fedad146114115780633d5efbae146125675780633f896dd91461241b57806340261fbb146122825780634626402b1461225957806348d46be114611ff75780634a57c6d914611e695780634ca3696c14611dde5780634d69a4cd14611dc25780635042a91f14611da557806350da23dc1461040357806352ebb22714611d6c57806352f5c84e14611d385780635c12cd4b14611a995780635c602d9e146119d15780635d886f221461191d5780636b09f539146118e357806372d686bf146118c657806375b7d7c11461186757806375cb1bd1146116d95780637a7c7a6a146116115780637dcda2d4146115dd5780637f3255a8146115c0578063852f8299146115a357806386b8f4a1146115695780638c5b8ea5146115355780638d2724f9146115015780638da5cb5b146114d85780638eb657c41461141657806390f7c71a1461141157806394cecff8146113725780639b3728e8146103a85780639fef686214611356578063a0978ac2146112b9578063b75b688b1461125a578063b9aee26314611210578063bea99035146111bf578063beb08ab914611196578063c05db4ce14611162578063c7fcb8c314611128578063c864ce561461102a578063c8f17ce314611025578063ce9fffaa14610ff1578063d2a1608014610f9e578063dbba054014610f6a578063e26f7c4614610f4c578063e2eb41ff14610de0578063e69d2ca714610a23578063e8a8bd5c146109ef578063ed270c161461095f578063edfae88314610878578063f178fb1b1461085c578063f2fde38b146107b3578063f4f5058d14610436578063f6d5f69a14610431578063f90ef4ac14610408578063f933513914610403578063f935c2d6146103ad5763f943cbc60361000f575b612b76565b346103fe5760403660031901126103fe576103c6612ab8565b6103ce612ae4565b9060018060a01b0316600052601760205260ff604060002091166000526020526020604060002054604051908152f35b600080fd5b612b21565b346103fe5760003660031901126103fe576003546040516001600160a01b039091168152602090f35b612b5a565b346103fe5760403660031901126103fe5761044f612af4565b610457612ace565b6104656001601c5414612b93565b6002601c556104738261310c565b60ff8216918260005260206007815261049360ff60406000205416612d19565b6004546001600160a01b0390811692906104ae841515612c09565b856000526006835260406000205494851561076e576040516323b872dd60e01b81523360048201528481606481600060249a308c8401528c60448401525af190811561076257600091610735575b50156106fa5761050d903384613014565b93611d7e860290611d7d19878304016106bc57612710809204916103b680890290898204036106e557819004906102588902610257198a8204016106d057819004926101908a029061018f198b8304016106bc57508a857f7a14a1babc4a5ae45f861abaf72c1b5410a6a47bcd895b29db0aa9d61db01d1c86866106328f9a6105d78f9a9c889f9e9a60409d7f84c9aa800e59f9827a5bed559d2f7b6c5e3e446a7ba1a56d2193016565b7bab19f6105d2906105d2936105d29e049d8e978896612c93565b612c93565b9c8d9a3360005260098152600f8d600020918a600052528c6000206105fd898254612dee565b905561061285838d3390600186015416613ea8565b61062586838d3390600286015416613f46565b8a60033392015416613fc2565b61067961064189601354612dee565b9788601355600454169b8c978b519485943398869192608093969594919660a084019784526020840152604083015260608201520152565b0390a4825191825286820152a36040519283528201527fe099ace9cc029768846f2abe32ce8983d72474335b42431e129401c1e9c0886b60403392a36001601c55005b634e487b7160e01b60009081526011600452fd5b83634e487b7160e01b60005260116004526000fd5b82634e487b7160e01b60005260116004526000fd5b60405162461bcd60e51b815260048101859052601481870152731554d110c81d1c985b9cd9995c8819985a5b195960621b6044820152606490fd5b6107559150853d871161075b575b61074d8183612cf7565b810190612e9c565b886104fc565b503d610743565b6040513d6000823e3d90fd5b60405162461bcd60e51b815260048101859052601c60248201527f55534443207072696365206973206e6f7420636f6e66696775726564000000006044820152606490fd5b346103fe5760203660031901126103fe576107cc612ab8565b600054906001600160a01b03808316916107e7338414612bd0565b16918215610826576001600160a01b031916821760009081557f8be0079c531659141344cd1fd0a4f28419497f9722a3daafe3b4186f6b6457e09080a3005b60405162461bcd60e51b815260206004820152600e60248201526d13dddb995c881c995c5d5a5c995960921b6044820152606490fd5b346103fe5760003660031901126103fe576020604051600a8152f35b346103fe5760003660031901126103fe576108976001601c5414612b93565b6002601c553360005260146020526040600020548015610921576004546001600160a01b03906108ca9082161515612c09565b336000526014602052600060408120556108e982338360045416612f61565b60045416906040519081527f6212d3b8329f12cd207169548d7570de1a41c72473a7313c176c13641c39aab760203392a36001601c55005b60405162461bcd60e51b81526020600482015260166024820152754e6f205553444320726566657272616c20626f6e757360501b6044820152606490fd5b346103fe5760403660031901126103fe57610978612af4565b602435908115158092036103fe57602060ff7fdd552374405792741cb7e6993ca7e6dd5400b9e45e80ca256ac09db4009c8937926109c160018060a01b03600054163314612bd0565b6109ca8161310c565b16928360005260078252604060002060ff1981541660ff8316179055604051908152a2005b346103fe5760203660031901126103fe5760ff610a0a612af4565b16600052600f6020526020604060002054604051908152f35b346103fe5760203660031901126103fe57610a3c612af4565b610a5160018060a01b03600054163314612bd0565b610a5f6001601c5414612b93565b6002601c55610a6d8161310c565b60ff811660005260106020526040600020548015610daf5760ff8216600052600e602052604060002054916103e89081840293808504831490151715610d42576127109360ff8216600052600f602052604060002054838102938185041490151715610d4257848104159384158095610da4575b15610d6e5760ff8316600052600e602052604060002054604051602081019144835242604083015243606083015260ff60f81b8660f81b16608083015283608183015260a182015260a1815260e0810181811067ffffffffffffffff821117610d58576040525190209080820660018101809111610d4257610b639085613171565b956001600160a01b03871615610d0a57610cd8575b868504610ca6575b60405191825260208201527f7ef17ebc298cc940dd307a6cde5f8230f0ef2aee27dca2d95320d0e88b042716604060ff851692a26001600160a01b0384166000818152600a6020908152604080832060ff87811680865291845293829020548251968b9004875260081c90931615159185019190915290927fd5e2c127c46eb00d0b5f0c368b3c217878cb46f88b4a6975e501b154542c5c8d9190a3838204610c2b575b6001601c55005b6004546001600160a01b039384166000818152600a6020908152604080832060ff9687168085529083529281902054815199909704895260089690961c9094161515938701939093529316939092917fdf312aec1d512369ede01a73501adadf38c6d2a0708fbdefce0599bcb8f7ff6f91a480808080610c24565b60ff8416600052600f6020526040600020610cc48887048254612c93565b9055610cd38786048588613276565b610b80565b60ff8416600052600e6020526040600020610cf68885048254612c93565b9055610d058784048588613201565b610b78565b60405162461bcd60e51b815260206004820152601060248201526f15da5b9b995c881b9bdd08199bdd5b9960821b6044820152606490fd5b634e487b7160e01b600052601160045260246000fd5b634e487b7160e01b600052604160045260246000fd5b60405162461bcd60e51b815260206004820152600e60248201526d139bc8191c985dc81c995dd85c9960921b6044820152606490fd5b508584041515610ae1565b60405162461bcd60e51b8152602060048201526009602482015268139bc81dd95a59da1d60ba1b6044820152606490fd5b346103fe5760203660031901126103fe576001600160a01b03610e01612ab8565b166000526009602052604060002080808080808080808080808080806011600f600e600d600c600b600a6009600860076006600560048d549d60018060a01b0360018201541660e052600260018060a01b03910154169e600360018060a01b03910154169f01549f01549f01549f01549f01549f01549f01549f01549f01549f01549f01549f01549f6010810154608052015460c05260405160a05260ff8116151560a0515260018060a01b039060081c16602060a051015260e051604060a0510152606060a0510152608060a051015260a08051015260c060a051015260e060a051015261010060a051015261012060a051015261014060a051015261016060a051015261018060a05101526101a060a05101526101c060a05101526101e060a051015261020060a051015260805161022060a051015260c05161024060a051015261026060a051f35b346103fe5760003660031901126103fe576020601354604051908152f35b346103fe5760203660031901126103fe5760ff610f85612af4565b1660005260116020526020604060002054604051908152f35b346103fe5760403660031901126103fe5760c0610fca610fbc612ab8565b610fc4612ae4565b90612dfb565b936040939193519586526020860152604085015260608401526080830152151560a0820152f35b346103fe5760203660031901126103fe5760ff61100c612af4565b16600052600c6020526020604060002054604051908152f35b612b04565b346103fe576020806003193601126103fe57611044612af4565b906110536001601c5414612b93565b6002601c556110618261310c565b33600052600a815260ff60406000209216918260005281526008604060002061109060ff8254841c1615612c55565b019081549182156110f8579060007fe478efad2d93638c429f97678f2517efcafee26463eaf608c398b94a2510eab592553360005260098152600e6040600020016110dc848254612c93565b90556110e88333612eb4565b6040519283523392a36001601c55005b60405162461bcd60e51b81526004810183905260086024820152674e6f207072697a6560c01b6044820152606490fd5b346103fe5760203660031901126103fe576001600160a01b03611149612ab8565b1660005260146020526020604060002054604051908152f35b346103fe5760203660031901126103fe5760ff61117d612af4565b1660005260086020526020604060002054604051908152f35b346103fe5760003660031901126103fe576001546040516001600160a01b039091168152602090f35b346103fe5760403660031901126103fe576111d8612ab8565b6111e0612ae4565b9060018060a01b0316600052601860205260ff604060002091166000526020526020604060002054604051908152f35b346103fe5760203660031901126103fe5760ff61122b612af4565b6112348161310c565b16600052601160205260408060002054600d602052816000205482519182526020820152f35b346103fe5760403660031901126103fe57611273612af4565b6024906112826024359161310c565b6007905b8082111561129957602082604051908152f35b9060018082018092116106d0571b60001981019081116106e55790611286565b346103fe5760403660031901126103fe576112d2612ab8565b6112da612ae4565b906112e48261310c565b60018060a01b0316600052600a60205260ff6040600020911660005260205260a0604060002080549060068101549061132c6002820154916009600882015491015490612dee565b9160ff604051948181161515865260081c1615156020850152604084015260608301526080820152f35b346103fe5760003660031901126103fe57602060405160198152f35b346103fe5760403660031901126103fe5760ff61138d612af4565b16600052600b6020526040600020602435600052602052610100604060002060ff815491600181015490600281015460038201549084600560048501549401549460405197885260018060a01b038116602089015260a01c1660408701526060860152608085015260a0840152818116151560c084015260081c16151560e0820152f35b612b3e565b346103fe5760403660031901126103fe5761142f612af4565b6024359061144860018060a01b03600054163314612bd0565b6114518161310c565b811561149f57604060ff7f68cb741d0779160e141ccf5dd579423de44febc76c0edddcc6167807a3c16af79216928360005260056020528160002090808254925582519182526020820152a2005b60405162461bcd60e51b8152602060048201526011602482015270141c9a58d9481a5cc81c995c5d5a5c9959607a1b6044820152606490fd5b346103fe5760003660031901126103fe576000546040516001600160a01b039091168152602090f35b346103fe5760203660031901126103fe5760ff61151c612af4565b1660005260106020526020604060002054604051908152f35b346103fe5760203660031901126103fe5760ff611550612af4565b16600052600e6020526020604060002054604051908152f35b346103fe5760203660031901126103fe576001600160a01b0361158a612ab8565b1660005260166020526020604060002054604051908152f35b346103fe5760003660031901126103fe5760206040516102588152f35b346103fe5760003660031901126103fe5760206040516101908152f35b346103fe5760403660031901126103fe5760206116096115fb612ab8565b611603612ae4565b90612d65565b604051908152f35b346103fe5760003660031901126103fe576000546001600160a01b039061163b9082163314612bd0565b6116496001601c5414612b93565b6002601c556012549081156116a25760207f95334f2d4e98187a454807e6ec3da804af4da5c99357a7398e2cf2505ac8821891600060125561168f848260015416612eb4565b6001541692604051908152a26001601c55005b60405162461bcd60e51b815260206004820152600f60248201526e4e6f2070726f6a656374206665657360881b6044820152606490fd5b346103fe5760603660031901126103fe576116f2612ab8565b6116fa612ace565b6001600160a01b0360443581811693908490036103fe57819061172282600054163314612bd0565b1691821561182257169081156117dd57821561179857826060927fd2d452a5df03f60ff9bf0ef1fc3498af992b0b6165c03b2f792cf596ee96530a946001600160601b0360a01b8481600154161760015582816002541617600255600354161760035560405192835260208301526040820152a1005b60405162461bcd60e51b815260206004820152601860248201527f4f70657261746f722077616c6c657420726571756972656400000000000000006044820152606490fd5b60405162461bcd60e51b815260206004820152601860248201527f54726561737572792077616c6c657420726571756972656400000000000000006044820152606490fd5b60405162461bcd60e51b815260206004820152601760248201527f50726f6a6563742077616c6c65742072657175697265640000000000000000006044820152606490fd5b346103fe5760403660031901126103fe57611880612ab8565b611888612ae4565b906118928261310c565b60018060a01b0316600052600a60205260ff60406000209116600052602052602060ff604060002054166040519015158152f35b346103fe5760003660031901126103fe576020604051611d7e8152f35b346103fe5760203660031901126103fe576001600160a01b03611904612ab8565b1660005260156020526020604060002054604051908152f35b346103fe5760203660031901126103fe57611936612ab8565b6000546001600160a01b039182916119519083163314612bd0565b1690811561199657600454826001600160601b0360a01b821617600455167f750dce806a7083b5c48405b1310300e4aa4241d21c26cd1348ec6f81324aeb9f600080a3005b60405162461bcd60e51b81526020600482015260136024820152721554d110c81d1bdad95b881c995c5d5a5c9959606a1b6044820152606490fd5b346103fe5760403660031901126103fe576119ea612ab8565b6119f2612ae4565b9060018060a01b0316600052600a60205260ff604060002091166000526020526101606040600020805490600181015490600281015460038201546004830154600584015490600685015492600786015494600960088801549701549760ff6040519a81811615158c5260081c16151560208b015260408a01526060890152608088015260a087015260c086015260e0850152610100840152610120830152610140820152f35b346103fe5760203660031901126103fe57611ab2612ab8565b6000610240604051611ac381612cda565b8281528260208201528260408201528260608201528260808201528260a08201528260c08201528260e08201528261010082015282610120820152826101408201528261016082015282610180820152826101a0820152826101c0820152826101e08201528261020082015282610220820152015260018060a01b031660005260096020526102606040600020610240604051611b5f81612cda565b601183549360ff85161515835260018060a01b038560081c16602084015260018060a01b03600182015416604084015260018060a01b03600282015416606084015260018060a01b036003820154166080840152600481015460a0840152600581015460c0840152600681015460e0840152600781015461010084015260088101546101208401526009810154610140840152600a810154610160840152600b810154610180840152600c8101546101a0840152600d8101546101c0840152600e8101546101e0840152600f810154610200840152601081015461022084015201548282015260ff60405193161515835260018060a01b03602082015116602084015260018060a01b03604082015116604084015260018060a01b03606082015116606084015260018060a01b03608082015116608084015260a081015160a084015260c081015160c084015260e081015160e08401526101008101516101008401526101208101516101208401526101408101516101408401526101608101516101608401526101808101516101808401526101a08101516101a08401526101c08101516101c08401526101e08101516101e08401526102008101516102008401526102208101516102208401520151610240820152f35b346103fe5760203660031901126103fe5760ff611d53612af4565b16600052600d6020526020604060002054604051908152f35b346103fe5760203660031901126103fe5760ff611d87612af4565b166000526007602052602060ff604060002054166040519015158152f35b346103fe5760003660031901126103fe5760206040516113888152f35b346103fe5760003660031901126103fe57602060405160148152f35b346103fe5760403660031901126103fe576060611df9612ab8565b611e01612ae4565b90611e0b8261310c565b60018060a01b03168060005260209060148252604060002054926017835260ff604060002091169081600052835260406000205491600052601883526040600020906000528252604060002054916040519384528301526040820152f35b346103fe5760403660031901126103fe57611e82612af4565b604051602435611e9182612cbd565b60008252600060e060209382858201528260408201528260608201528260808201528260a08201528260c08201520152611eca8361310c565b80151580611fde575b15611faa5760ff6101009316600052600b82526040600020906000528152604060002090604051611f0381612cbd565b82549283825260018101549260018060a01b039060ff81850195838116875281604087019160a01c1681526002850154926060870193845260038601549460808801958652600560048801549760a08a019889520154988460e060c08b019a828d1615158c52019a60081c1615158a526040519a8b52511690890152511660408701525160608601525160808501525160a084015251151560c083015251151560e0820152f35b60405162461bcd60e51b815260048101839052600c60248201526b125b9d985b1a590818d95b1b60a21b6044820152606490fd5b5060ff8316600052600c82526040600020548110611ed3565b60403660031901126103fe5761200b612af4565b612013612ace565b6120216001601c5414612b93565b6002601c5561202f8261310c565b60ff821691826000526020916007835261205060ff60406000205416612d19565b836000526005835260406000205434036122145761206f903383613014565b90611d7e8034029034159034830414811715610d4257612710809204926103b68034029034820414831715610d4257839004906102588034029034820414841715610d4257849004926101909081340291348304141715610d425788957fb85ef11be8aa73fba898a4935afe7d749e354cf349871a27f8934346a1b2e4ff6040958a9561218f7f4b36477d57294a9cd8dbda6c13fa93d36015734ac4eabb6c235f3ee6c9034a4e998b96048097612132826105d2876105d2886105d28d34612c93565b993360005260098152600e8c600020918a600052528b600020612156898254612dee565b905560018060a01b0361217186843384600187015416613cac565b61218387843384600287015416613d67565b60033392015416613e00565b6121d08761219f81601254612dee565b97886012558a519485943398869192608093969594919660a084019784526020840152604083015260608201520152565b0390a3825191825286820152a2604051913483528201527fe099ace9cc029768846f2abe32ce8983d72474335b42431e129401c1e9c0886b60403392a36001601c55005b60405162461bcd60e51b815260048101849052601860248201527f496e636f7272656374207061796d656e7420616d6f756e7400000000000000006044820152606490fd5b346103fe5760003660031901126103fe576002546040516001600160a01b039091168152602090f35b346103fe5760403660031901126103fe5761016061229e612ab8565b6101406122a9612ae4565b91604051926122b784612ca0565b6000845260006020850152600060408501526000606085015260006080850152600060a0850152600060c0850152600060e085015261010091600083860152600084610120968288820152015261230d8261310c565b60018060a01b0316600052600a60205260ff604060002091166000526020526040600020926040519161233f83612ca0565b600985549560ff87161515855260ff8760081c1615156020860152600181015460408601526002810154606086015260038101546080860152600481015460a0860152600581015460c0860152600681015460e086015260078101548386015260088101548486015201548484015260ff60405195161515855260208301511515602086015260408301516040860152606083015160608601526080830151608086015260a083015160a086015260c083015160c086015260e083015160e0860152808301519085015280820151908401520151610140820152f35b346103fe576020806003193601126103fe57612435612af4565b906124446001601c5414612b93565b6002601c556124528261310c565b6004546001600160a01b039061246b9082161515612c09565b33600052600a825260ff604060002093169283600052825261249860ff60406000205460081c1615612c55565b33600052601782526040600020836000528252604060002054908115612532577fcb5b06c056856bb82784094d6a04f2cdd54a8ca5035447b87427f46c8d0981319033600052601784526040600020856000528452600060408120553360005260158452604060002061250c848254612c93565b905561251d83338360045416612f61565b60045416926040519283523392a46001601c55005b60405162461bcd60e51b815260048101849052600d60248201526c4e6f2055534443207072697a6560981b6044820152606490fd5b346103fe5760403660031901126103fe57612580612af4565b6024359061259960018060a01b03600054163314612bd0565b6125a28161310c565b81156125f057604060ff7f3b7a8420bcf2581fac422a359ff730b951e902c11f27da90a7e97da9c068f9a69216928360005260066020528160002090808254925582519182526020820152a2005b60405162461bcd60e51b81526020600482015260166024820152751554d110c81c1c9a58d9481a5cc81c995c5d5a5c995960521b6044820152606490fd5b346103fe5760003660031901126103fe5760206040516103b68152f35b346103fe5760003660031901126103fe576000546001600160a01b03906126759082163314612bd0565b6126836001601c5414612b93565b6002601c55806004541690612699821515612c09565b6013549182156126f457826126b8916000601355836001541690612f61565b7f6f09a29fa95e6ca2c4c5b55c121d7269faf4d531e64e23d432f03e95bb6caa4760208260045416926001541693604051908152a36001601c55005b60405162461bcd60e51b81526020600482015260146024820152734e6f20555344432070726f6a656374206665657360601b6044820152606490fd5b346103fe5760203660031901126103fe5760ff61274b612af4565b1660005260056020526020604060002054604051908152f35b346103fe576020806003193601126103fe5760ff612780612af4565b6127898161310c565b16600052600f8152604060002054601082526127f0604060002054926011815260406000205490600d8152600c604060002054915260406000205491604051958695869192608093969594919660a084019784526020840152604083015260608201520152565b0390f35b346103fe5760003660031901126103fe5760206040516127108152f35b346103fe576020806003193601126103fe5760ff61282d612af4565b6128368161310c565b16600052600e8152604060002054601082526127f0604060002054926011815260406000205490600d8152600c604060002054915260406000205491604051958695869192608093969594919660a084019784526020840152604083015260608201520152565b346103fe5760003660031901126103fe576128bc6001601c5414612b93565b6002601c55336000526009602052600d604060002001548015612929573360005260096020526000600d6040822001556128f68133612eb4565b6040519081527f53473e2a2e0cc6840d80567f104277ea6daa0891e5316836bac38a686b79ea3360203392a26001601c55005b60405162461bcd60e51b81526020600482015260116024820152704e6f20726566657272616c20626f6e757360781b6044820152606490fd5b346103fe5760003660031901126103fe57602060405160118152f35b346103fe5760003660031901126103fe576020601254604051908152f35b346103fe5760003660031901126103fe576004546040516001600160a01b039091168152602090f35b346103fe5760403660031901126103fe576129de612ab8565b6129e6612ae4565b906129f08261310c565b60018060a01b0316600052600a60205260ff60406000209116600052602052602060ff60406000205460081c166040519015158152f35b346103fe5760203660031901126103fe5760ff612a42612af4565b1660005260066020526020604060002054604051908152f35b346103fe5760403660031901126103fe57612a74612ab8565b612a7c612ae4565b90612a868261310c565b60018060a01b0316600052600a60205260ff604060002091166000526020526020600760406000200154604051908152f35b600435906001600160a01b03821682036103fe57565b602435906001600160a01b03821682036103fe57565b6024359060ff821682036103fe57565b6004359060ff821682036103fe57565b346103fe5760003660031901126103fe5760206040516107d08152f35b346103fe5760003660031901126103fe5760206040516101f48152f35b346103fe5760003660031901126103fe57602060405160648152f35b346103fe5760003660031901126103fe57602060405160328152f35b346103fe5760003660031901126103fe5760206040516103e88152f35b15612b9a57565b60405162461bcd60e51b815260206004820152600e60248201526d1499595b9d1c985b9d0818d85b1b60921b6044820152606490fd5b15612bd757565b60405162461bcd60e51b815260206004820152600a60248201526927b7363c9037bbb732b960b11b6044820152606490fd5b15612c1057565b60405162461bcd60e51b815260206004820152601960248201527f5553444320746f6b656e206e6f7420636f6e66696775726564000000000000006044820152606490fd5b15612c5c57565b60405162461bcd60e51b815260206004820152600f60248201526e2632bb32b61034b990333937bd32b760891b6044820152606490fd5b91908203918211610d4257565b610160810190811067ffffffffffffffff821117610d5857604052565b610100810190811067ffffffffffffffff821117610d5857604052565b610260810190811067ffffffffffffffff821117610d5857604052565b90601f8019910116810190811067ffffffffffffffff821117610d5857604052565b15612d2057565b60405162461bcd60e51b815260206004820152601a60248201527f4c6576656c206973206e6f7420617661696c61626c65207965740000000000006044820152606490fd5b9060ff90612d728161310c565b1660009080825260106020526040822054928315612dd95760018060a01b03168252600a6020526040822090825260205260076040822001549061271091828102928184041490151715612dc557500490565b634e487b7160e01b81526011600452602490fd5b5050905090565b9060018201809211610d4257565b91908201809211610d4257565b9190612e068161310c565b60009260018060a01b03168352600a60205260ff60408420911683526020526002604083200154918215612e8f57600b602052604081208382526020526040812080546002820154946003830154916004840154915b600180821115612e77571c94612e7190613e99565b94612e5c565b50509194909392600560ff9101541691959493929190565b8092509180918180918190565b908160209103126103fe575180151581036103fe5790565b8115612f5d57600080808094819460018060a01b03165af1903d15612f57573d9067ffffffffffffffff8211612f435760405191612efc601f8201601f191660200184612cf7565b825260203d92013e5b15612f0c57565b60405162461bcd60e51b815260206004820152600f60248201526e151c985b9cd9995c8819985a5b1959608a1b6044820152606490fd5b634e487b7160e01b81526041600452602490fd5b50612f05565b5050565b821561300f5760405163a9059cbb60e01b81526001600160a01b039283166004820152602481019390935260209183916044918391600091165af190811561076257600091612ff0575b5015612fb357565b60405162461bcd60e51b8152602060048201526015602482015274151bdad95b881d1c985b9cd9995c8819985a5b1959605a1b6044820152606490fd5b613009915060203d60201161075b5761074d8183612cf7565b38612fab565b505050565b9290919260009360018060a01b038416855260096020526040852090600a6020526040862060ff841687526020526040862060ff8154166130c75761305c6001928785613301565b8161ffff1982541617815501805490600182018092116130b3575560048101805490600182018092116130b3576130b194959650556011429101556130a1848261342c565b936130ac8282613829565b613b00565b565b634e487b7160e01b87526011600452602487fd5b60405162461bcd60e51b815260206004820152601760248201527f4c6576656c20697320616c7265616479206163746976650000000000000000006044820152606490fd5b60ff16600181108015613139575b6131215750565b60249060405190633d98c85560e21b82526004820152fd5b506011811161311a565b805482101561315b5760005260206000200190600090565b634e487b7160e01b600052603260045260246000fd5b9060ff600092169081835260209160196020526040936040812081958154965b8781106131a5575050505050505050600090565b6131e36131b28285613143565b905460039190911b1c6001600160a01b03166000818152600a8a528481208882528a52849020600701549095612dee565b93848711156131f55750600101613191565b97505050505050505090565b60409060018060a01b031691600090838252600a60205260ff838320911682526020528181209281526009602052209060ff815460081c166132615761325d916008600e9201613252858254612dee565b905501918254612dee565b9055565b61325d916009600f9201613252858254612dee565b60018060a01b0316906000828152602092600a845260409260ff848420911690818452855260ff8484205460081c166132dc57938161325d9560159385526017835285852090855282528484206132ce888254612dee565b905583525220918254612dee565b938161325d9560169385526018835285852090855282528484206132ce888254612dee565b91825460ff81166133e6576001600160a81b031916600883901b610100600160a81b03161760011783554260108401556001600160a01b0390811691821515908290826133d9575b5050806133c1575b61335a57505050565b600360018401926001600160601b0360a01b93818582541617905560009081526009602052828060016040842001541660028701818782541617905580156000146133af575050935b01921690825416179055565b825260409091206001015416936133a3565b5081600052600960205260ff60406000205416613351565b1683141590508138613349565b50505050565b805468010000000000000000811015610d585761340e91600182018155613143565b60018060a09493941b038084549260031b9316831b921b1916179055565b9190916134468160ff16600052600c602052604060002090565b5415613804575b6134648160ff16600052600c602052604060002090565b5492839161347183612de0565b6134888260ff16600052600c602052604060002090565b55600183036137fa576000905b61349e8461403e565b61351b8160056134ce886134bf8760ff16600052600b602052604060002090565b90600052602052604060002090565b88815560018101805460ff60a01b60a089901b166001600160a81b03199091166001600160a01b038b1617179055866002820155019061ff00825491151560081b169061ff001916179055565b8260036135508461353e8860018060a01b0316600052600a602052604060002090565b9060ff16600052602052604060002090565b876002820155015561356f8260ff166000526011602052604060002090565b6135798154612de0565b90556135928260ff166000526011602052604060002090565b546135aa8360ff166000526008602052604060002090565b556135ee6135ea6135e3866135cc8660ff16600052601a602052604060002090565b9060018060a01b0316600052602052604060002090565b5460ff1690565b1590565b6137aa575b8261364a575b8161363260ff9261362a7fd8a08c0c1f4b5e930e1da0bd0b50635c1f9de780c217ce3fa2a17686579146c89561418e565b878388614226565b60405193845216926001600160a01b031691602090a4565b613665836134bf8460ff16600052600b602052604060002090565b6003810180546136de5760ff928760046136d18761353e6136b760017fd8a08c0c1f4b5e930e1da0bd0b50635c1f9de780c217ce3fa2a17686579146c89b99876136329a55015460018060a01b031690565b6001600160a01b03166000908152600a6020526040902090565b01555b92505091506135f9565b5094506004850180541560001461376d5761373a6001899788613740945561371060058201600160ff19825416179055565b0187600561372b8761353e6136b7865460018060a01b031690565b0155546001600160a01b031690565b8361405f565b7fd8a08c0c1f4b5e930e1da0bd0b50635c1f9de780c217ce3fa2a17686579146c89161363260ff926136d4565b60405162461bcd60e51b815260206004820152601560248201527414185c995b9d08185b1c9958591e4818db1bdcd959605a1b6044820152606490fd5b6137d56137c8856135cc8560ff16600052601a602052604060002090565b805460ff19166001179055565b6137f5846137f08460ff166000526019602052604060002090565b6133ec565b6135f3565b8260011c90613495565b61382461381e8260ff16600052600c602052604060002090565b60019055565b61344d565b6001600160a01b03166000818152601b6020908152604080832060ff9590951680845294825280832084845260098352818420600a8452828520878652845282852082549195909261389361388c600761388286614492565b96019586546143e8565b8094612dee565b9055600586016138a4838254612dee565b9055811561390b578361390091600a7ff3df9e133b197dfbba04af8b589dd996d7080575083d89b81dd8f5fc0377db5a986138e0868854612dee565b8755016138ee858254612dee565b90558981526010875220918254612dee565b9055549051908152a3565b5050505050505050565b60018060a01b031660008181526020601b8152604060ff81842095169485845282528083208484526009835281842093600a84528281208782528452600183822092019081549161396d61388c600761388286614440565b9055600686016138a4838254612dee565b60018060a01b031660008181526020601b8152604060ff81842095169485845282528083208484526009835281842093600a84528281208782528452600183822092019081549161396d61388c600761388286614417565b60018060a01b031660008181526020601b8152604060ff81842095169485845282528083208484526009835281842093600a84528281208782528452600183822092019081549161396d61388c600761388286614469565b60018060a01b031660008181526020601b8152604060ff81842095169485845282528083208484526009835281842093600a845282812087825284526003838220920190815491613a8661388c600761388286614417565b9055600886016138a4838254612dee565b60018060a01b031660008181526020601b8152604060ff81842095169485845282528083208484526009835281842093600a845282812087825284526004838220920190815491613aef61388c6007613882866143b8565b9055600986016138a4838254612dee565b60ff8092169060019160018111156133e657600191835b613b23575b5050505050565b8483169282841015613ca657848691819560018060a01b0385166000818152602090600a8252604080822085835283528082209283549360088a86821c16613b76575b5050505050505050011692613b17565b7fb0f7d96751587de2fbb05ae8bb25971ba7cd777de717eb3698b701d6c77396549561ff0019168255600990818301928684549485613c5b575b509250505086915052601891828252808420878552825280842054613be2575b50505080a33880808080808080613b66565b6015613c519287865284815282862089875281528286205494888752815282862089875281528583812055878652601781528286208987528152828620613c2a868254612dee565b905587865260168152828620613c41868254612c93565b9055878652528320918254612dee565b9055388080613bd0565b5501613c68838254612dee565b9055868552808352600f84862001613c81838254612c93565b90558685528252613c99600e84862001918254612dee565b9055388080808681613bb0565b50613b1c565b9092916001600160a01b038083169290919083158015613d4e575b613d2c579160ff82613d196040947fc0dc322d34d7e6a06259be3bac607c8ba2eb3200163a637ad7f20a70ebc11d7b96886000526009602052600d8760002001613d128b8254612dee565b9055613915565b83519687526064602088015216951693a4565b5091505060ff91925016600052600e60205261325d6040600020918254612dee565b5083600052600960205260ff6040600020541615613cc7565b9092916001600160a01b038083169290919083158015613de7575b613d2c579160ff82613dd46040947f76a46dbe9b38553ba3f9366dde5dfab2ae45ae902483379a3f0cb6eb5b74d42296886000526009602052600d8760002001613dcd8b8254612dee565b905561397e565b83519687526032602088015216951693a4565b5083600052600960205260ff6040600020541615613d82565b9092916001600160a01b038083169290919083158015613e80575b613d2c579160ff82613e6d6040947fb81fbcd4b084ae8778037d60e56c538cebacb837e72623e7b204170addc1e24b96886000526009602052600d8760002001613e668b8254612dee565b90556139d6565b83519687526019602088015216951693a4565b5083600052600960205260ff6040600020541615613e1b565b6000198114610d425760010190565b9092916001600160a01b038083169290919083158015613f2d575b613f0b579160ff82613d196040947fc0dc322d34d7e6a06259be3bac607c8ba2eb3200163a637ad7f20a70ebc11d7b9688600052601460205286600020613d128b8254612dee565b5091505060ff91925016600052600f60205261325d6040600020918254612dee565b5083600052600960205260ff6040600020541615613ec3565b9092916001600160a01b038083169290919083158015613fa9575b613f0b579160ff82613dd46040947f76a46dbe9b38553ba3f9366dde5dfab2ae45ae902483379a3f0cb6eb5b74d4229688600052601460205286600020613dcd8b8254612dee565b5083600052600960205260ff6040600020541615613f61565b9092916001600160a01b038083169290919083158015614025575b613f0b579160ff82613e6d6040947fb81fbcd4b084ae8778037d60e56c538cebacb837e72623e7b204170addc1e24b9688600052601460205286600020613e668b8254612dee565b5083600052600960205260ff6040600020541615613fdd565b6007811015908161404d575090565b905060018101808211610d4257161590565b6001600160a01b0382166000908152600a6020526040902061408290829061353e565b6140906135ea825460ff1690565b61300f57600601916140a28354612de0565b83556001600160a01b0381166000908152600960205260409020600c016140c98154612de0565b90556001600160a01b0381166000908152600960205260409020600b016140f08154612de0565b90556140fc8282613a2e565b6141068282613a97565b614110818361342c565b92546040805191825260208201949094526130b19360ff8416916001600160a01b03841691839183917fbde1dd97b8c6b9fb71194209f50387cccf9ec5cc5c0e9aa18b13c93cf78ce6e891a3604051600181527fc216fcbbb04c29351601c08c37331f5699a51282f48da79353b90ab10ff8948790602090a36144b5565b60ff809116600090808252602091600d83526040918282205494851561421d575b945b818352600c855283832054811080614202575b156141d7576141d290613e99565b6141b1565b91929394508252600c84528282205481106000146141f857600d9093522055565b50600d8193522055565b50600b855283832081845285528560058585200154166141c4565b600195506141af565b921561300f5760ff811691600091838352602091600e8352604080852054936101f494858102908082048714901517156130b35761271080910495888852600f8352838820548181029181830414901517156143a45784918991049680614324575b5050508461429a575050505050505050565b846142e07f57cca56d6aea4f955145b97472f1141f1bb79a9d1bf59ea9dd3ad72466ad54ae966060968a8a52600f8552858a206142d8838254612c93565b90558b613276565b60ff8360018060a01b0380600454169b1698898152600a85528181208b82528552205460081c16918351948552840152151590820152a4388080808080808061390b565b818952600e8452848920614339828254612c93565b905561434681888d613201565b6001600160a01b038b16808a52600a8552858a20838b528552858a2054865192835260081c60ff1615156020830152907ff349ec77f93fc0622775ad3b5561a9ba55f1a991e72df46ed77bc72c724025b890604090a4828738614288565b634e487b7160e01b88526011600452602488fd5b6101f490818110156143e1578103908111610d425780600a116000146143db5790565b50600a90565b5050600090565b90611388918281101561440f578203918211610d42578181111561440a575090565b905090565b505050600090565b6107d090818110156143e1578103908111610d42578060321160001461443a5790565b50603290565b6107d090818110156143e1578103908111610d4257806064116000146144635790565b50606490565b6107d090818110156143e1578103908111610d42578060191160001461448c5790565b50601990565b6103e890818110156143e1578103908111610d4257806064116000146144635790565b60018060a01b03166000818152600a60205260ff6040822093169283825260205260408120906011841080614587575b80614544575b80614535575b6144fb5750505050565b7f9eedad69e1da086c8d70014edef61addc1d62bfdf25b1dcd3484ad720b9707629161010061ff001982541617905580a3388080806133e6565b5060ff825460081c16156144f1565b50828152600a602052604081206001850160ff81116145735760ff16825260205260ff604082205416156144eb565b634e487b7160e01b83526011600452602483fd5b506002600683015410156144e556fea2646970667358221220779180e2b29f75666b9943644a0d24fc1576e91a8e62e91388533cd52483c8cf64736f6c63430008180033",
  "linkReferences": {},
  "deployedLinkReferences": {}
}