{
  "_format": "hh-sol-artifact-1",
  "contractName": "EasyGame",
  "sourceName": "contracts/EasyGame.sol",
  "abi": [
    {
      "inputs": [
        {
          "internalType": "address payable",
          "name": "treasuryAddress",
          "type": "address"
        }
      ],
      "stateMutability": "nonpayable",
      "type": "constructor"
    },
    {
      "anonymous": false,
      "inputs": [
        {
          "indexed": true,
          "internalType": "address",
          "name": "from",
          "type": "address"
        },
        {
          "indexed": true,
          "internalType": "address",
          "name": "to",
          "type": "address"
        },
        {
          "indexed": true,
          "internalType": "uint8",
          "name": "level",
          "type": "uint8"
        },
        {
          "indexed": false,
          "internalType": "uint256",
          "name": "amount",
          "type": "uint256"
        }
      ],
      "name": "BaseRewardPaid",
      "type": "event"
    },
    {
      "anonymous": false,
      "inputs": [
        {
          "indexed": true,
          "internalType": "address",
          "name": "player",
          "type": "address"
        },
        {
          "indexed": true,
          "internalType": "uint8",
          "name": "level",
          "type": "uint8"
        },
        {
          "indexed": false,
          "internalType": "uint256",
          "name": "amount",
          "type": "uint256"
        },
        {
          "indexed": true,
          "internalType": "address",
          "name": "inviter",
          "type": "address"
        }
      ],
      "name": "LevelActivated",
      "type": "event"
    },
    {
      "anonymous": false,
      "inputs": [
        {
          "indexed": true,
          "internalType": "uint8",
          "name": "level",
          "type": "uint8"
        },
        {
          "indexed": false,
          "internalType": "bool",
          "name": "available",
          "type": "bool"
        }
      ],
      "name": "LevelAvailabilityChanged",
      "type": "event"
    },
    {
      "anonymous": false,
      "inputs": [
        {
          "indexed": true,
          "internalType": "address",
          "name": "player",
          "type": "address"
        },
        {
          "indexed": true,
          "internalType": "uint8",
          "name": "level",
          "type": "uint8"
        }
      ],
      "name": "LevelFrozen",
      "type": "event"
    },
    {
      "anonymous": false,
      "inputs": [
        {
          "indexed": true,
          "internalType": "uint8",
          "name": "level",
          "type": "uint8"
        },
        {
          "indexed": false,
          "internalType": "uint256",
          "name": "oldPrice",
          "type": "uint256"
        },
        {
          "indexed": false,
          "internalType": "uint256",
          "name": "newPrice",
          "type": "uint256"
        }
      ],
      "name": "LevelPriceChanged",
      "type": "event"
    },
    {
      "anonymous": false,
      "inputs": [
        {
          "indexed": true,
          "internalType": "address",
          "name": "player",
          "type": "address"
        },
        {
          "indexed": true,
          "internalType": "uint8",
          "name": "level",
          "type": "uint8"
        }
      ],
      "name": "LevelUnfrozen",
      "type": "event"
    },
    {
      "anonymous": false,
      "inputs": [
        {
          "indexed": true,
          "internalType": "address",
          "name": "player",
          "type": "address"
        },
        {
          "indexed": true,
          "internalType": "uint8",
          "name": "level",
          "type": "uint8"
        },
        {
          "indexed": false,
          "internalType": "uint256",
          "name": "positionId",
          "type": "uint256"
        },
        {
          "indexed": false,
          "internalType": "uint256",
          "name": "parentId",
          "type": "uint256"
        }
      ],
      "name": "MatrixPlaced",
      "type": "event"
    },
    {
      "anonymous": false,
      "inputs": [
        {
          "indexed": true,
          "internalType": "address",
          "name": "from",
          "type": "address"
        },
        {
          "indexed": true,
          "internalType": "address",
          "name": "to",
          "type": "address"
        },
        {
          "indexed": true,
          "internalType": "uint8",
          "name": "level",
          "type": "uint8"
        },
        {
          "indexed": false,
          "internalType": "uint256",
          "name": "amount",
          "type": "uint256"
        }
      ],
      "name": "MatrixRewardPaid",
      "type": "event"
    },
    {
      "anonymous": false,
      "inputs": [
        {
          "indexed": true,
          "internalType": "address",
          "name": "player",
          "type": "address"
        },
        {
          "indexed": true,
          "internalType": "uint8",
          "name": "level",
          "type": "uint8"
        },
        {
          "indexed": false,
          "internalType": "uint256",
          "name": "cycle",
          "type": "uint256"
        },
        {
          "indexed": false,
          "internalType": "uint256",
          "name": "newPositionId",
          "type": "uint256"
        }
      ],
      "name": "Recycled",
      "type": "event"
    },
    {
      "anonymous": false,
      "inputs": [
        {
          "indexed": true,
          "internalType": "address",
          "name": "player",
          "type": "address"
        },
        {
          "indexed": true,
          "internalType": "address",
          "name": "receiver",
          "type": "address"
        },
        {
          "indexed": false,
          "internalType": "uint8",
          "name": "line",
          "type": "uint8"
        },
        {
          "indexed": false,
          "internalType": "uint256",
          "name": "amount",
          "type": "uint256"
        }
      ],
      "name": "ReferralPaid",
      "type": "event"
    },
    {
      "anonymous": false,
      "inputs": [
        {
          "indexed": true,
          "internalType": "address",
          "name": "oldTreasury",
          "type": "address"
        },
        {
          "indexed": true,
          "internalType": "address",
          "name": "newTreasury",
          "type": "address"
        }
      ],
      "name": "TreasuryChanged",
      "type": "event"
    },
    {
      "inputs": [],
      "name": "LEVEL_COUNT",
      "outputs": [
        {
          "internalType": "uint8",
          "name": "",
          "type": "uint8"
        }
      ],
      "stateMutability": "view",
      "type": "function"
    },
    {
      "inputs": [
        {
          "internalType": "uint8",
          "name": "level",
          "type": "uint8"
        },
        {
          "internalType": "address",
          "name": "inviter",
          "type": "address"
        }
      ],
      "name": "activateLevel",
      "outputs": [],
      "stateMutability": "payable",
      "type": "function"
    },
    {
      "inputs": [
        {
          "internalType": "uint8",
          "name": "level",
          "type": "uint8"
        }
      ],
      "name": "getLevelMatrixStats",
      "outputs": [
        {
          "internalType": "uint256",
          "name": "size",
          "type": "uint256"
        },
        {
          "internalType": "uint256",
          "name": "nextOpenParentId",
          "type": "uint256"
        }
      ],
      "stateMutability": "view",
      "type": "function"
    },
    {
      "inputs": [
        {
          "internalType": "uint8",
          "name": "level",
          "type": "uint8"
        },
        {
          "internalType": "uint256",
          "name": "positionId",
          "type": "uint256"
        }
      ],
      "name": "getMatrixNode",
      "outputs": [
        {
          "internalType": "address",
          "name": "player",
          "type": "address"
        },
        {
          "internalType": "uint256",
          "name": "parentId",
          "type": "uint256"
        },
        {
          "internalType": "uint256",
          "name": "leftChildId",
          "type": "uint256"
        },
        {
          "internalType": "uint256",
          "name": "rightChildId",
          "type": "uint256"
        },
        {
          "internalType": "uint256",
          "name": "depth",
          "type": "uint256"
        },
        {
          "internalType": "bool",
          "name": "closed",
          "type": "bool"
        }
      ],
      "stateMutability": "view",
      "type": "function"
    },
    {
      "inputs": [
        {
          "internalType": "address",
          "name": "playerAddress",
          "type": "address"
        }
      ],
      "name": "getPlayer",
      "outputs": [
        {
          "internalType": "bool",
          "name": "exists",
          "type": "bool"
        },
        {
          "internalType": "address",
          "name": "inviter",
          "type": "address"
        },
        {
          "internalType": "uint8",
          "name": "maxActiveLevel",
          "type": "uint8"
        },
        {
          "internalType": "uint256",
          "name": "totalPaid",
          "type": "uint256"
        }
      ],
      "stateMutability": "view",
      "type": "function"
    },
    {
      "inputs": [
        {
          "internalType": "address",
          "name": "playerAddress",
          "type": "address"
        },
        {
          "internalType": "uint8",
          "name": "level",
          "type": "uint8"
        }
      ],
      "name": "getPlayerLevel",
      "outputs": [
        {
          "internalType": "bool",
          "name": "active",
          "type": "bool"
        },
        {
          "internalType": "bool",
          "name": "frozen",
          "type": "bool"
        },
        {
          "internalType": "uint256",
          "name": "cycles",
          "type": "uint256"
        },
        {
          "internalType": "uint256",
          "name": "positionId",
          "type": "uint256"
        },
        {
          "internalType": "uint256",
          "name": "earned",
          "type": "uint256"
        }
      ],
      "stateMutability": "view",
      "type": "function"
    },
    {
      "inputs": [
        {
          "internalType": "address",
          "name": "playerAddress",
          "type": "address"
        },
        {
          "internalType": "uint8",
          "name": "level",
          "type": "uint8"
        }
      ],
      "name": "getPlayerPosition",
      "outputs": [
        {
          "internalType": "uint256",
          "name": "positionId",
          "type": "uint256"
        },
        {
          "internalType": "uint256",
          "name": "parentId",
          "type": "uint256"
        },
        {
          "internalType": "uint256",
          "name": "leftChildId",
          "type": "uint256"
        },
        {
          "internalType": "uint256",
          "name": "rightChildId",
          "type": "uint256"
        },
        {
          "internalType": "uint256",
          "name": "depth",
          "type": "uint256"
        },
        {
          "internalType": "bool",
          "name": "closed",
          "type": "bool"
        }
      ],
      "stateMutability": "view",
      "type": "function"
    },
    {
      "inputs": [
        {
          "internalType": "address",
          "name": "playerAddress",
          "type": "address"
        },
        {
          "internalType": "uint8",
          "name": "level",
          "type": "uint8"
        }
      ],
      "name": "isLevelActive",
      "outputs": [
        {
          "internalType": "bool",
          "name": "",
          "type": "bool"
        }
      ],
      "stateMutability": "view",
      "type": "function"
    },
    {
      "inputs": [
        {
          "internalType": "address",
          "name": "playerAddress",
          "type": "address"
        },
        {
          "internalType": "uint8",
          "name": "level",
          "type": "uint8"
        }
      ],
      "name": "isLevelFrozen",
      "outputs": [
        {
          "internalType": "bool",
          "name": "",
          "type": "bool"
        }
      ],
      "stateMutability": "view",
      "type": "function"
    },
    {
      "inputs": [
        {
          "internalType": "uint8",
          "name": "",
          "type": "uint8"
        }
      ],
      "name": "levelAvailable",
      "outputs": [
        {
          "internalType": "bool",
          "name": "",
          "type": "bool"
        }
      ],
      "stateMutability": "view",
      "type": "function"
    },
    {
      "inputs": [
        {
          "internalType": "uint8",
          "name": "",
          "type": "uint8"
        }
      ],
      "name": "levelMatrixSize",
      "outputs": [
        {
          "internalType": "uint256",
          "name": "",
          "type": "uint256"
        }
      ],
      "stateMutability": "view",
      "type": "function"
    },
    {
      "inputs": [
        {
          "internalType": "uint8",
          "name": "",
          "type": "uint8"
        }
      ],
      "name": "levelPrices",
      "outputs": [
        {
          "internalType": "uint256",
          "name": "",
          "type": "uint256"
        }
      ],
      "stateMutability": "view",
      "type": "function"
    },
    {
      "inputs": [],
      "name": "owner",
      "outputs": [
        {
          "internalType": "address",
          "name": "",
          "type": "address"
        }
      ],
      "stateMutability": "view",
      "type": "function"
    },
    {
      "inputs": [
        {
          "internalType": "uint8",
          "name": "level",
          "type": "uint8"
        },
        {
          "internalType": "bool",
          "name": "available",
          "type": "bool"
        }
      ],
      "name": "setLevelAvailable",
      "outputs": [],
      "stateMutability": "nonpayable",
      "type": "function"
    },
    {
      "inputs": [
        {
          "internalType": "uint8",
          "name": "level",
          "type": "uint8"
        },
        {
          "internalType": "uint256",
          "name": "newPrice",
          "type": "uint256"
        }
      ],
      "name": "setLevelPrice",
      "outputs": [],
      "stateMutability": "nonpayable",
      "type": "function"
    },
    {
      "inputs": [
        {
          "internalType": "address payable",
          "name": "newTreasury",
          "type": "address"
        }
      ],
      "name": "setTreasury",
      "outputs": [],
      "stateMutability": "nonpayable",
      "type": "function"
    },
    {
      "inputs": [
        {
          "internalType": "address",
          "name": "newOwner",
          "type": "address"
        }
      ],
      "name": "transferOwnership",
      "outputs": [],
      "stateMutability": "nonpayable",
      "type": "function"
    },
    {
      "inputs": [],
      "name": "treasury",
      "outputs": [
        {
          "internalType": "address payable",
          "name": "",
          "type": "address"
        }
      ],
      "stateMutability": "view",
      "type": "function"
    },
    {
      "stateMutability": "payable",
      "type": "receive"
    }
  ],
  "bytecode": "0x6080346200024657601f62001ce438819003918201601f1916830192906001600160401b038411828510176200024b578290604094855282396020818193810103126200024657516001600160a01b0381169190829003620002465781156200020257829060018060a01b03199060009033838354161782556001948593845416178355828252600260205266b1a2bc2ec50000848320556002825266f8b0a10e470000848320556003825267016345785d8a000084832055600490600483526701f161421c8e000085842055600583526702c68af0bb14000085842055600683526703e2c284391c0000858420556007835267058d15e17628000085842055600883526707a1fe16027700008584205560098352670b1a2bc2ec50000085842055600a8352670f43fc2c04ee000085842055600b83526716345785d8a0000085842055600c8352671e87f85809dc000085842055600d8352672c68af0bb140000085842055600e8352673d0ff0b013b8000085842055600f8352675a34a38fc00a0000858420556010808452676f05b59d3b200000868520556003965b620001b2575b8551611a829081620002628239f35b60ff8716818111620001fb578452828252858420805460ff19168617905560ff968716968714620001e85795840195846200019d565b634e487b7160e01b845260118352602484fd5b50620001a3565b825162461bcd60e51b815260206004820152601c60248201527f54726561737572792061646472657373206973207265717569726564000000006044820152606490fd5b600080fd5b634e487b7160e01b600052604160045260246000fdfe60806040526004361015610052575b361561001957600080fd5b60405162461bcd60e51b8152602060048201526011602482015270155cd9481858dd1a5d985d1953195d995b607a1b6044820152606490fd5b60003560e01c80630e475efd14610f225780631d6a884b14610f065780632e50d90614610ed257806348d46be1146107795780634a57c6d91461066657806352ebb2271461062d5780635c12cd4b146105cc57806361d027b3146105a357806375b7d7c1146105445780638da5cb5b1461051b5780638eb657c414610459578063a0978ac2146103cb578063b9aee26314610381578063c05db4ce1461034d578063d2a16080146102fa578063ed270c161461026a578063f0f44260146101ae5763f2fde38b0361000e57346101a95760203660031901126101a957610136610f84565b600054906001600160a01b0390610150338385161461104a565b16908115610168576001600160a01b03191617600055005b60405162461bcd60e51b815260206004820152601960248201527813dddb995c881859191c995cdcc81a5cc81c995c5d5a5c9959603a1b6044820152606490fd5b600080fd5b346101a95760203660031901126101a9576004356001600160a01b03818116918290036101a9576101e48160005416331461104a565b811561022657600180546001600160a01b031981168417909155167f8c3aa5f43a388513435861bf27dfad7829cd248696fed367c62d441f62954496600080a3005b60405162461bcd60e51b815260206004820152601c60248201527b151c99585cdd5c9e481859191c995cdcc81a5cc81c995c5d5a5c995960221b6044820152606490fd5b346101a95760403660031901126101a957610283610faa565b602435908115158092036101a957602060ff7fdd552374405792741cb7e6993ca7e6dd5400b9e45e80ca256ac09db4009c8937926102cc60018060a01b0360005416331461104a565b6102d581611164565b16928360005260048252604060002060ff1981541660ff8316179055604051908152a2005b346101a95760403660031901126101a95760c0610326610318610f84565b610320610f9a565b906110a0565b936040939193519586526020860152604085015260608401526080830152151560a0820152f35b346101a95760203660031901126101a95760ff610368610faa565b1660005260036020526020604060002054604051908152f35b346101a95760203660031901126101a95760ff61039c610faa565b6103a581611164565b166000526007602052604080600020546008602052816000205482519182526020820152f35b346101a95760403660031901126101a9576103e4610f84565b6103ec610f9a565b906103f682611164565b60018060a01b0316600052600660205260ff6040600020911660005260205260a06040600020805490600181015490600360028201549101549160ff604051948181161515865260081c1615156020850152604084015260608301526080820152f35b346101a95760403660031901126101a957610472610faa565b6024359061048b60018060a01b0360005416331461104a565b61049481611164565b81156104e257604060ff7f68cb741d0779160e141ccf5dd579423de44febc76c0edddcc6167807a3c16af79216928360005260026020528160002090808254925582519182526020820152a2005b60405162461bcd60e51b8152602060048201526011602482015270141c9a58d9481a5cc81c995c5d5a5c9959607a1b6044820152606490fd5b346101a95760003660031901126101a9576000546040516001600160a01b039091168152602090f35b346101a95760403660031901126101a95761055d610f84565b610565610f9a565b9061056f82611164565b60018060a01b0316600052600660205260ff60406000209116600052602052602060ff604060002054166040519015158152f35b346101a95760003660031901126101a9576001546040516001600160a01b039091168152602090f35b346101a95760203660031901126101a95760806001600160a01b03806105f0610f84565b166000526005602052604060002060ff600182549201549160405193828216151585528160081c16602085015260a81c1660408301526060820152f35b346101a95760203660031901126101a95760ff610648610faa565b166000526004602052602060ff604060002054166040519015158152f35b346101a95760403660031901126101a95761067f610faa565b6024359061068c81611164565b8115158061075e575b156107265760ff166000526007602052604060002060001982019182116107105760c0916106c291611018565b5060018060a01b0381541690600181015490600281015460038201549060ff6005600485015494015416936040519586526020860152604085015260608401526080830152151560a0820152f35b634e487b7160e01b600052601160045260246000fd5b60405162461bcd60e51b815260206004820152601060248201526f24b73b30b634b2103837b9b4ba34b7b760811b6044820152606490fd5b5060ff81166000526007602052604060002054821115610695565b60403660031901126101a95761078d610faa565b6024356001600160a01b0381168082036101a9576107aa83611164565b60ff8316600052600460205260ff6040600020541615610e905760ff831660005260026020526040600020543403610e50576107e533610fba565b916107ef33610fd4565b60ff851660005260205260406000209160ff835416610e115783549060ff821615610da6575b505050600161ffff1982541617905560018101610833348254610ffc565b9055805460ff8160a81c1660ff841611610d8b575b506108533383611239565b60ff83166000526007602052604060002060001982018281116107105761087c60019183611018565b5001549081610d7157610890856000611998565b91610514923484340204841434151715610710576001600160a01b031680610d6c57506001546001600160a01b03165b6108d061271085340204826118c9565b60408051600181526127103487020460208201526001600160a01b03909216913391600080516020611a2d83398151915291a380610d4857506000915b82610d2b5761091d866000611998565b61032034813402048114341517156107105761099a9261271034909202829004926001600160a01b031680610d2657506001546001600160a01b03165b61096484826118c9565b6040805160028152602081018690526001600160a01b03909216913391600080516020611a2d83398151915291a3340204610ffc565b9180610d03575060005b80610cd95750506109b6846000611998565b6101f491348334020483143415171561071057610a2f926127103490910204916001600160a01b031680610cd457506001546001600160a01b03165b6109fc83826118c9565b6040805160038152602081018590526001600160a01b03909216913391600080516020611a2d83398151915291a3610ffc565b611ce891823402923484041434151715610710576001600160a01b0390610a5890339087611692565b16610a676127108404826118c9565b806000526006602052604060002060ff86166000526020526003604060002001610a9661271085048254610ffc565b90556001546001600160a01b031681141580610ccb575b610ba7575b610b28926127109160405183830481528160ff8916917f36d4c4c7a721a6c7d4bddd2467b91089649fd027c4451f39bc99737e9be776d660203392a460405190838304825260ff8816917f16ba2b19bb64507cf2c1a04b1f42c44aecacda5b2b3ad30b3e05ffd1a711915b60203392a404610ffc565b803411610b80575b50610b3b823361147c565b5460405134815260089190911c6001600160a01b03169160ff169033907fa39f8d2643b307a6345b215d0bb56b5221ecb986b9fa3da427929b7571b92a0d90602090a4005b6001546001600160a01b0316903490810390811161071057610ba1916118c9565b82610b30565b806000526006602052604060002060ff86166000526020526001604060002001805490600182018092116107105755806000526006602052604060002060ff86166000526020526040600020601060ff87161080610cbc575b80610c72575b91610b289491836127109490610c63575b610c26575b5091509250610ab2565b805461ff00191661010017905560ff8716817f9eedad69e1da086c8d70014edef61addc1d62bfdf25b1dcd3484ad720b970762600080a387610c1c565b5060ff815460081c1615610c17565b509281600052600660205260406000209160ff6001818916011161071057610b28946127109360ff6001818b16011660005260205260ff6040600020541615919350919450610c06565b50600260018201541015610c00565b50801515610aad565b6109f2565b600019810190811161071057610cf386916109b693611018565b50546001600160a01b0316611998565b8060001981011161071057610d1e6001916000190183611018565b5001546109a4565b61095a565b826000198101116107105761091d86610cf3600019860185611018565b8060001981011161071057610d636001916000190183611018565b5001549161090d565b6108c0565b60001982018281116107105785610cf36108909284611018565b60ff60a81b191660a883901b60ff60a81b1617815582610848565b60ff19821660011785558015159081610e06575b5080610df3575b610dcc575b80610815565b6001600160a81b03191660089190911b610100600160a81b03161760011782558380610dc6565b5060ff610dff83610fba565b5416610dc1565b905033141586610dba565b60405162461bcd60e51b81526020600482015260176024820152764c6576656c20697320616c72656164792061637469766560481b6044820152606490fd5b60405162461bcd60e51b8152602060048201526018602482015277125b98dbdc9c9958dd081c185e5b595b9d08185b5bdd5b9d60421b6044820152606490fd5b60405162461bcd60e51b815260206004820152601a60248201527913195d995b081a5cc81b9bdd08185d985a5b18589b19481e595d60321b6044820152606490fd5b346101a95760203660031901126101a95760ff610eed610faa565b1660005260026020526020604060002054604051908152f35b346101a95760003660031901126101a957602060405160108152f35b346101a95760403660031901126101a957610f3b610f84565b610f43610f9a565b90610f4d82611164565b60018060a01b0316600052600660205260ff60406000209116600052602052602060ff60406000205460081c166040519015158152f35b600435906001600160a01b03821682036101a957565b6024359060ff821682036101a957565b6004359060ff821682036101a957565b6001600160a01b0316600090815260056020526040902090565b6001600160a01b0316600090815260066020526040902090565b906001820180921161071057565b9190820180921161071057565b60001981019190821161071057565b8054821015611034576000526006602060002091020190600090565b634e487b7160e01b600052603260045260246000fd5b1561105157565b60405162461bcd60e51b815260206004820152602160248201527f4f6e6c79206f776e65722063616e2063616c6c20746869732066756e6374696f6044820152603760f91b6064820152608490fd5b906110aa81611164565b60009160018060a01b03168252600660205260ff60408320911682526020526002604082200154908115611137576007602052604081206000198301918383116111235750906110f991611018565b509160018301549260028101549260038201549260ff600560048501549401541691959493929190565b634e487b7160e01b81526011600452602490fd5b809291509180918180918190565b80546001600160a01b0319166001600160a01b03909216919091179055565b60ff16600181101590816111b0575b501561117b57565b60405162461bcd60e51b815260206004820152600d60248201526c125b9d985b1a59081b195d995b609a1b6044820152606490fd5b60109150111538611173565b8054600160401b8110156111dd576111d991600182018155611018565b9091565b634e487b7160e01b600052604160045260246000fd5b156111fa57565b60405162461bcd60e51b815260206004820152601760248201527613585d1c9a5e081c185c995b9d081a5cc818db1bdcd959604a1b6044820152606490fd5b906112518260ff166000526007602052604060002090565b916000908193805415611413575b6001815411801561140b575b6112f2575b8160ff918660026112b77fd8a08c0c1f4b5e930e1da0bd0b50635c1f9de780c217ce3fa2a17686579146c8966112a58a610fd4565b9060ff16600052602052604060002090565b0155546112d18260ff166000526003602052604060002090565b556040805187815260208101959095529116936001600160a01b031692a390565b9350905061130d8160ff166000526008602052604060002090565b54908115611402575b61132861132283611009565b85611018565b50936005850194611349611344611340885460ff1690565b1590565b6111f3565b61139b600561135b6004840154610fee565b611364856111bc565b50506113796113738654611009565b86611018565b50906113858983611145565b87600183015560048201550160ff198154169055565b81549586600283018054156113fa575b54036113b9575b5050611270565b816113d76113ed928960036113f3960155600160ff19825416179055565b6113e08561153d565b546001600160a01b031690565b836115e9565b38806113b2565b8181556113ab565b60019150611316565b50841561126b565b935061141e846111bc565b505061145460056114386114328754611009565b87611018565b506114438682611145565b8460048201550160ff198154169055565b61147461146e8260ff166000526008602052604060002090565b60019055565b83549361125f565b60ff80921690600191600181111561152857600191835b61149f575b5050505050565b848316928284101561152257848691819560018060a01b03851660008181526020600681526040908183209085845252812090815491878360081c166114ed575b5050505050011692611493565b7fb0f7d96751587de2fbb05ae8bb25971ba7cd777de717eb3698b701d6c77396549261ff001916905580a338808080806114e0565b50611498565b50505050565b60001981146107105760010190565b60ff809116600081815260076020526040812092600860205260408220549384156115e0575b805491945b82811115806115a9575b15611585576115809061152e565b611568565b93945060409391821190506115a157925b815260086020522055565b508092611596565b5060001981018181116115cc5760056115c3889285611018565b50015416611572565b634e487b7160e01b85526011600452602485fd5b60019450611563565b60018060a01b038216908160005260066020526116178160406000209060ff16600052602052604060002090565b92835460ff811615908115611684575b50611528576116369082611239565b7fbde1dd97b8c6b9fb71194209f50387cccf9ec5cc5c0e9aa18b13c93cf78ce6e89161167f600160ff939601549560405193849316968360209093929193604081019481520152565b0390a3565b60ff915060081c1638611627565b91909160009060ff8116825260076020526040822091809360001994858701918783116118b5576116c38387611018565b5097600180990154805b61188c5750821561187557865460405191602083019344855242604085015260018060601b03199060601b16606084015260ff60f81b8860f81b166074840152607583015260958201526095815260c0810181811060018060401b038211176118615760405251902087929190819006836117488489611018565b5001549085915b8383106117e157505050506117649085611018565b500154805b61178157505092546001600160a01b03169392505050565b8481019081116117cd576117958185611018565b50546001600160a01b03166117aa84826119bb565b6117c357506117ba869185611018565b50015480611769565b9550505050505090565b634e487b7160e01b82526011600452602482fd5b90919293945088810190811161184d576117fb8189611018565b50546001600160a01b03168383148061183d575b61182f57508961182081928a611018565b5001549201908994939261174f565b995050505050505050505090565b5061184888826119bb565b61180f565b634e487b7160e01b86526011600452602486fd5b634e487b7160e01b86526041600452602486fd5b505095546001600160a01b03169695505050505050565b926118969061152e565b9288810190811161184d576118ac8a9189611018565b500154806116cd565b634e487b7160e01b84526011600452602484fd5b811561199457600080808094819460018060a01b03165af1903d1561198e576001600160401b03903d82811161197a5760405192601f8201601f19908116603f011684019081118482101761196657604052825260203d92013e5b1561192b57565b60405162461bcd60e51b8152602060048201526013602482015272115512081d1c985b9cd9995c8819985a5b1959606a1b6044820152606490fd5b634e487b7160e01b83526041600452602483fd5b634e487b7160e01b82526041600452602482fd5b50611924565b5050565b906119a390826119bb565b156119ab5790565b506001546001600160a01b031690565b6001600160a01b0316801515919082611a03575b826119d957505090565b909150600052600660205260ff6040600020911660005260205260ff60406000205460081c161590565b8092506000526006602052604060002060ff821660005260205260ff60406000205416916119cf56fe53aa79cc77a3d2e16f0f104bce3b3da868f1ec7596a2cc49a09f8103982da834a2646970667358221220053b3722bd2ca5999196f7c9ad275b7f0f3ec5d1dfb23a5529b24c326d01c1d264736f6c63430008180033",
  "linkReferences": {},
  "deployedLinkReferences": {}
}