{
  "_format": "hh-sol-artifact-1",
  "contractName": "EasyGameAdvance",
  "sourceName": "contracts/EasyGameAdvance.sol",
  "abi": [
    {
      "inputs": [
        {
          "internalType": "address",
          "name": "projectWallet_",
          "type": "address"
        },
        {
          "internalType": "address",
          "name": "treasuryWallet_",
          "type": "address"
        },
        {
          "internalType": "address",
          "name": "operatorWallet_",
          "type": "address"
        },
        {
          "internalType": "address",
          "name": "usdcToken_",
          "type": "address"
        },
        {
          "internalType": "address",
          "name": "roundManager_",
          "type": "address"
        }
      ],
      "stateMutability": "nonpayable",
      "type": "constructor"
    },
    {
      "inputs": [],
      "name": "IncorrectRoundPayment",
      "type": "error"
    },
    {
      "inputs": [
        {
          "internalType": "uint8",
          "name": "level",
          "type": "uint8"
        }
      ],
      "name": "InvalidLevel",
      "type": "error"
    },
    {
      "inputs": [
        {
          "internalType": "uint256",
          "name": "requested",
          "type": "uint256"
        },
        {
          "internalType": "uint256",
          "name": "maximum",
          "type": "uint256"
        }
      ],
      "name": "InvalidRecycleBatch",
      "type": "error"
    },
    {
      "inputs": [
        {
          "internalType": "uint256",
          "name": "roundId",
          "type": "uint256"
        },
        {
          "internalType": "uint256",
          "name": "cellId",
          "type": "uint256"
        }
      ],
      "name": "InvalidRoundCell",
      "type": "error"
    },
    {
      "inputs": [
        {
          "internalType": "uint8",
          "name": "level",
          "type": "uint8"
        }
      ],
      "name": "LevelEmergencyPaused",
      "type": "error"
    },
    {
      "inputs": [
        {
          "internalType": "uint256",
          "name": "roundId",
          "type": "uint256"
        },
        {
          "internalType": "uint256",
          "name": "pending",
          "type": "uint256"
        }
      ],
      "name": "PendingRoundRecycles",
      "type": "error"
    },
    {
      "inputs": [
        {
          "internalType": "uint256",
          "name": "roundId",
          "type": "uint256"
        },
        {
          "internalType": "uint256",
          "name": "parentCellId",
          "type": "uint256"
        }
      ],
      "name": "RoundParentAlreadyClosed",
      "type": "error"
    },
    {
      "inputs": [
        {
          "internalType": "uint256",
          "name": "roundId",
          "type": "uint256"
        },
        {
          "internalType": "address",
          "name": "player",
          "type": "address"
        }
      ],
      "name": "RoundTicketAlreadyActive",
      "type": "error"
    },
    {
      "inputs": [],
      "name": "RoundUsdcDisabled",
      "type": "error"
    },
    {
      "inputs": [],
      "name": "TokenTransferFailed",
      "type": "error"
    },
    {
      "inputs": [],
      "name": "UsdcTokenLocked",
      "type": "error"
    },
    {
      "inputs": [],
      "name": "ZeroAddress",
      "type": "error"
    },
    {
      "anonymous": false,
      "inputs": [
        {
          "indexed": true,
          "internalType": "address",
          "name": "oldGateway",
          "type": "address"
        },
        {
          "indexed": true,
          "internalType": "address",
          "name": "newGateway",
          "type": "address"
        }
      ],
      "name": "BasePayGatewayChanged",
      "type": "event"
    },
    {
      "anonymous": false,
      "inputs": [
        {
          "indexed": true,
          "internalType": "address",
          "name": "player",
          "type": "address"
        },
        {
          "indexed": true,
          "internalType": "uint8",
          "name": "level",
          "type": "uint8"
        },
        {
          "indexed": false,
          "internalType": "uint256",
          "name": "amount",
          "type": "uint256"
        }
      ],
      "name": "BoxTokenGranted",
      "type": "event"
    },
    {
      "anonymous": false,
      "inputs": [
        {
          "indexed": false,
          "internalType": "bool",
          "name": "enabled",
          "type": "bool"
        }
      ],
      "name": "LegacyActivationChanged",
      "type": "event"
    },
    {
      "anonymous": false,
      "inputs": [
        {
          "indexed": true,
          "internalType": "address",
          "name": "player",
          "type": "address"
        },
        {
          "indexed": true,
          "internalType": "uint8",
          "name": "level",
          "type": "uint8"
        },
        {
          "indexed": false,
          "internalType": "uint256",
          "name": "value",
          "type": "uint256"
        },
        {
          "indexed": false,
          "internalType": "uint256",
          "name": "cellId",
          "type": "uint256"
        }
      ],
      "name": "LevelActivated",
      "type": "event"
    },
    {
      "anonymous": false,
      "inputs": [
        {
          "indexed": true,
          "internalType": "uint8",
          "name": "level",
          "type": "uint8"
        },
        {
          "indexed": false,
          "internalType": "bool",
          "name": "available",
          "type": "bool"
        }
      ],
      "name": "LevelAvailabilityChanged",
      "type": "event"
    },
    {
      "anonymous": false,
      "inputs": [
        {
          "indexed": true,
          "internalType": "address",
          "name": "player",
          "type": "address"
        },
        {
          "indexed": true,
          "internalType": "uint8",
          "name": "level",
          "type": "uint8"
        }
      ],
      "name": "LevelFrozen",
      "type": "event"
    },
    {
      "anonymous": false,
      "inputs": [
        {
          "indexed": true,
          "internalType": "uint8",
          "name": "level",
          "type": "uint8"
        },
        {
          "indexed": false,
          "internalType": "uint256",
          "name": "oldPrice",
          "type": "uint256"
        },
        {
          "indexed": false,
          "internalType": "uint256",
          "name": "newPrice",
          "type": "uint256"
        }
      ],
      "name": "LevelPriceChanged",
      "type": "event"
    },
    {
      "anonymous": false,
      "inputs": [
        {
          "indexed": true,
          "internalType": "address",
          "name": "player",
          "type": "address"
        },
        {
          "indexed": true,
          "internalType": "uint8",
          "name": "level",
          "type": "uint8"
        }
      ],
      "name": "LevelUnfrozen",
      "type": "event"
    },
    {
      "anonymous": false,
      "inputs": [
        {
          "indexed": true,
          "internalType": "uint8",
          "name": "level",
          "type": "uint8"
        },
        {
          "indexed": false,
          "internalType": "uint256",
          "name": "oldPrice",
          "type": "uint256"
        },
        {
          "indexed": false,
          "internalType": "uint256",
          "name": "newPrice",
          "type": "uint256"
        }
      ],
      "name": "LevelUsdcPriceChanged",
      "type": "event"
    },
    {
      "anonymous": false,
      "inputs": [
        {
          "indexed": true,
          "internalType": "address",
          "name": "player",
          "type": "address"
        },
        {
          "indexed": true,
          "internalType": "uint8",
          "name": "level",
          "type": "uint8"
        },
        {
          "indexed": true,
          "internalType": "uint256",
          "name": "cellId",
          "type": "uint256"
        },
        {
          "indexed": false,
          "internalType": "uint256",
          "name": "parentCellId",
          "type": "uint256"
        }
      ],
      "name": "MatrixPlaced",
      "type": "event"
    },
    {
      "anonymous": false,
      "inputs": [
        {
          "indexed": true,
          "internalType": "address",
          "name": "previousOwner",
          "type": "address"
        },
        {
          "indexed": true,
          "internalType": "address",
          "name": "newOwner",
          "type": "address"
        }
      ],
      "name": "OwnershipTransferred",
      "type": "event"
    },
    {
      "anonymous": false,
      "inputs": [
        {
          "indexed": true,
          "internalType": "address",
          "name": "player",
          "type": "address"
        },
        {
          "indexed": true,
          "internalType": "uint8",
          "name": "level",
          "type": "uint8"
        },
        {
          "indexed": false,
          "internalType": "uint256",
          "name": "matrixPrizeAmount",
          "type": "uint256"
        },
        {
          "indexed": false,
          "internalType": "uint256",
          "name": "directReferralAmount",
          "type": "uint256"
        },
        {
          "indexed": false,
          "internalType": "uint256",
          "name": "secondLineAmount",
          "type": "uint256"
        },
        {
          "indexed": false,
          "internalType": "uint256",
          "name": "thirdLineAmount",
          "type": "uint256"
        },
        {
          "indexed": false,
          "internalType": "uint256",
          "name": "projectFeeAmount",
          "type": "uint256"
        }
      ],
      "name": "PaymentSplit",
      "type": "event"
    },
    {
      "anonymous": false,
      "inputs": [
        {
          "indexed": true,
          "internalType": "address",
          "name": "player",
          "type": "address"
        },
        {
          "indexed": true,
          "internalType": "uint8",
          "name": "level",
          "type": "uint8"
        },
        {
          "indexed": false,
          "internalType": "uint256",
          "name": "amount",
          "type": "uint256"
        }
      ],
      "name": "PrizeClaimed",
      "type": "event"
    },
    {
      "anonymous": false,
      "inputs": [
        {
          "indexed": true,
          "internalType": "address",
          "name": "player",
          "type": "address"
        },
        {
          "indexed": true,
          "internalType": "uint8",
          "name": "level",
          "type": "uint8"
        },
        {
          "indexed": true,
          "internalType": "uint256",
          "name": "cellId",
          "type": "uint256"
        },
        {
          "indexed": false,
          "internalType": "uint256",
          "name": "amount",
          "type": "uint256"
        },
        {
          "indexed": false,
          "internalType": "bool",
          "name": "pending",
          "type": "bool"
        }
      ],
      "name": "PrizePositionReached",
      "type": "event"
    },
    {
      "anonymous": false,
      "inputs": [
        {
          "indexed": true,
          "internalType": "uint8",
          "name": "level",
          "type": "uint8"
        },
        {
          "indexed": false,
          "internalType": "uint256",
          "name": "amount",
          "type": "uint256"
        },
        {
          "indexed": false,
          "internalType": "uint256",
          "name": "totalAccrued",
          "type": "uint256"
        }
      ],
      "name": "ProjectFeeAccrued",
      "type": "event"
    },
    {
      "anonymous": false,
      "inputs": [
        {
          "indexed": true,
          "internalType": "address",
          "name": "wallet",
          "type": "address"
        },
        {
          "indexed": false,
          "internalType": "uint256",
          "name": "amount",
          "type": "uint256"
        }
      ],
      "name": "ProjectFeesWithdrawn",
      "type": "event"
    },
    {
      "anonymous": false,
      "inputs": [
        {
          "indexed": true,
          "internalType": "address",
          "name": "player",
          "type": "address"
        },
        {
          "indexed": true,
          "internalType": "uint8",
          "name": "level",
          "type": "uint8"
        },
        {
          "indexed": true,
          "internalType": "uint256",
          "name": "queueIndex",
          "type": "uint256"
        }
      ],
      "name": "RecycleQueued",
      "type": "event"
    },
    {
      "anonymous": false,
      "inputs": [
        {
          "indexed": true,
          "internalType": "address",
          "name": "player",
          "type": "address"
        },
        {
          "indexed": true,
          "internalType": "uint8",
          "name": "level",
          "type": "uint8"
        },
        {
          "indexed": false,
          "internalType": "uint256",
          "name": "recycleCount",
          "type": "uint256"
        },
        {
          "indexed": false,
          "internalType": "uint256",
          "name": "newCellId",
          "type": "uint256"
        }
      ],
      "name": "Recycled",
      "type": "event"
    },
    {
      "anonymous": false,
      "inputs": [
        {
          "indexed": true,
          "internalType": "address",
          "name": "inviter",
          "type": "address"
        },
        {
          "indexed": true,
          "internalType": "address",
          "name": "invitee",
          "type": "address"
        },
        {
          "indexed": true,
          "internalType": "uint8",
          "name": "level",
          "type": "uint8"
        },
        {
          "indexed": false,
          "internalType": "uint256",
          "name": "bonusAmount",
          "type": "uint256"
        },
        {
          "indexed": false,
          "internalType": "uint256",
          "name": "weightAdded",
          "type": "uint256"
        }
      ],
      "name": "ReferralBonusAdded",
      "type": "event"
    },
    {
      "anonymous": false,
      "inputs": [
        {
          "indexed": true,
          "internalType": "address",
          "name": "player",
          "type": "address"
        },
        {
          "indexed": false,
          "internalType": "uint256",
          "name": "amount",
          "type": "uint256"
        }
      ],
      "name": "ReferralBonusClaimed",
      "type": "event"
    },
    {
      "anonymous": false,
      "inputs": [
        {
          "indexed": true,
          "internalType": "address",
          "name": "player",
          "type": "address"
        },
        {
          "indexed": true,
          "internalType": "uint256",
          "name": "roundId",
          "type": "uint256"
        },
        {
          "indexed": true,
          "internalType": "uint8",
          "name": "level",
          "type": "uint8"
        },
        {
          "indexed": false,
          "internalType": "uint256",
          "name": "amount",
          "type": "uint256"
        },
        {
          "indexed": false,
          "internalType": "uint256",
          "name": "cellId",
          "type": "uint256"
        },
        {
          "indexed": false,
          "internalType": "bool",
          "name": "paidWithUsdc",
          "type": "bool"
        }
      ],
      "name": "RoundActivated",
      "type": "event"
    },
    {
      "anonymous": false,
      "inputs": [
        {
          "indexed": true,
          "internalType": "address",
          "name": "oldManager",
          "type": "address"
        },
        {
          "indexed": true,
          "internalType": "address",
          "name": "newManager",
          "type": "address"
        }
      ],
      "name": "RoundManagerChanged",
      "type": "event"
    },
    {
      "anonymous": false,
      "inputs": [
        {
          "indexed": true,
          "internalType": "address",
          "name": "player",
          "type": "address"
        },
        {
          "indexed": true,
          "internalType": "uint256",
          "name": "roundId",
          "type": "uint256"
        },
        {
          "indexed": true,
          "internalType": "uint256",
          "name": "cellId",
          "type": "uint256"
        },
        {
          "indexed": false,
          "internalType": "uint256",
          "name": "parentCellId",
          "type": "uint256"
        }
      ],
      "name": "RoundMatrixPlaced",
      "type": "event"
    },
    {
      "anonymous": false,
      "inputs": [
        {
          "indexed": true,
          "internalType": "address",
          "name": "player",
          "type": "address"
        },
        {
          "indexed": true,
          "internalType": "uint256",
          "name": "roundId",
          "type": "uint256"
        },
        {
          "indexed": false,
          "internalType": "uint256",
          "name": "matrixPrizeAmount",
          "type": "uint256"
        },
        {
          "indexed": false,
          "internalType": "uint256",
          "name": "directReferralAmount",
          "type": "uint256"
        },
        {
          "indexed": false,
          "internalType": "uint256",
          "name": "secondLineAmount",
          "type": "uint256"
        },
        {
          "indexed": false,
          "internalType": "uint256",
          "name": "thirdLineAmount",
          "type": "uint256"
        },
        {
          "indexed": false,
          "internalType": "uint256",
          "name": "projectFeeAmount",
          "type": "uint256"
        },
        {
          "indexed": false,
          "internalType": "bool",
          "name": "paidWithUsdc",
          "type": "bool"
        }
      ],
      "name": "RoundPaymentSplit",
      "type": "event"
    },
    {
      "anonymous": false,
      "inputs": [
        {
          "indexed": true,
          "internalType": "uint256",
          "name": "roundId",
          "type": "uint256"
        },
        {
          "indexed": true,
          "internalType": "address",
          "name": "settlement",
          "type": "address"
        },
        {
          "indexed": false,
          "internalType": "uint256",
          "name": "ethAmount",
          "type": "uint256"
        },
        {
          "indexed": false,
          "internalType": "uint256",
          "name": "usdcAmount",
          "type": "uint256"
        }
      ],
      "name": "RoundPoolsReleased",
      "type": "event"
    },
    {
      "anonymous": false,
      "inputs": [
        {
          "indexed": true,
          "internalType": "uint256",
          "name": "roundId",
          "type": "uint256"
        },
        {
          "indexed": false,
          "internalType": "uint256",
          "name": "processed",
          "type": "uint256"
        },
        {
          "indexed": false,
          "internalType": "uint256",
          "name": "remaining",
          "type": "uint256"
        }
      ],
      "name": "RoundRecycleBatchProcessed",
      "type": "event"
    },
    {
      "anonymous": false,
      "inputs": [
        {
          "indexed": true,
          "internalType": "address",
          "name": "player",
          "type": "address"
        },
        {
          "indexed": true,
          "internalType": "uint256",
          "name": "roundId",
          "type": "uint256"
        },
        {
          "indexed": false,
          "internalType": "uint256",
          "name": "cycleCount",
          "type": "uint256"
        },
        {
          "indexed": false,
          "internalType": "uint256",
          "name": "newCellId",
          "type": "uint256"
        }
      ],
      "name": "RoundRecycled",
      "type": "event"
    },
    {
      "anonymous": false,
      "inputs": [
        {
          "indexed": true,
          "internalType": "address",
          "name": "player",
          "type": "address"
        },
        {
          "indexed": true,
          "internalType": "uint256",
          "name": "roundId",
          "type": "uint256"
        },
        {
          "indexed": false,
          "internalType": "uint256",
          "name": "totalWeight",
          "type": "uint256"
        }
      ],
      "name": "RoundWeightUpdated",
      "type": "event"
    },
    {
      "anonymous": false,
      "inputs": [
        {
          "indexed": true,
          "internalType": "address",
          "name": "inviter",
          "type": "address"
        },
        {
          "indexed": true,
          "internalType": "address",
          "name": "invitee",
          "type": "address"
        },
        {
          "indexed": true,
          "internalType": "uint8",
          "name": "level",
          "type": "uint8"
        },
        {
          "indexed": false,
          "internalType": "uint256",
          "name": "bonusAmount",
          "type": "uint256"
        },
        {
          "indexed": false,
          "internalType": "uint256",
          "name": "weightAdded",
          "type": "uint256"
        }
      ],
      "name": "SecondLineBonusAdded",
      "type": "event"
    },
    {
      "anonymous": false,
      "inputs": [
        {
          "indexed": true,
          "internalType": "address",
          "name": "oldSettlement",
          "type": "address"
        },
        {
          "indexed": true,
          "internalType": "address",
          "name": "newSettlement",
          "type": "address"
        }
      ],
      "name": "SettlementContractChanged",
      "type": "event"
    },
    {
      "anonymous": false,
      "inputs": [
        {
          "indexed": true,
          "internalType": "address",
          "name": "inviter",
          "type": "address"
        },
        {
          "indexed": true,
          "internalType": "address",
          "name": "invitee",
          "type": "address"
        },
        {
          "indexed": true,
          "internalType": "uint8",
          "name": "level",
          "type": "uint8"
        },
        {
          "indexed": false,
          "internalType": "uint256",
          "name": "bonusAmount",
          "type": "uint256"
        },
        {
          "indexed": false,
          "internalType": "uint256",
          "name": "weightAdded",
          "type": "uint256"
        }
      ],
      "name": "ThirdLineBonusAdded",
      "type": "event"
    },
    {
      "anonymous": false,
      "inputs": [
        {
          "indexed": true,
          "internalType": "address",
          "name": "player",
          "type": "address"
        },
        {
          "indexed": true,
          "internalType": "uint8",
          "name": "level",
          "type": "uint8"
        },
        {
          "indexed": true,
          "internalType": "address",
          "name": "token",
          "type": "address"
        },
        {
          "indexed": false,
          "internalType": "uint256",
          "name": "matrixPrizeAmount",
          "type": "uint256"
        },
        {
          "indexed": false,
          "internalType": "uint256",
          "name": "directReferralAmount",
          "type": "uint256"
        },
        {
          "indexed": false,
          "internalType": "uint256",
          "name": "secondLineAmount",
          "type": "uint256"
        },
        {
          "indexed": false,
          "internalType": "uint256",
          "name": "thirdLineAmount",
          "type": "uint256"
        },
        {
          "indexed": false,
          "internalType": "uint256",
          "name": "projectFeeAmount",
          "type": "uint256"
        }
      ],
      "name": "TokenPaymentSplit",
      "type": "event"
    },
    {
      "anonymous": false,
      "inputs": [
        {
          "indexed": true,
          "internalType": "address",
          "name": "player",
          "type": "address"
        },
        {
          "indexed": true,
          "internalType": "address",
          "name": "token",
          "type": "address"
        },
        {
          "indexed": true,
          "internalType": "uint8",
          "name": "level",
          "type": "uint8"
        },
        {
          "indexed": false,
          "internalType": "uint256",
          "name": "amount",
          "type": "uint256"
        }
      ],
      "name": "TokenPrizeClaimed",
      "type": "event"
    },
    {
      "anonymous": false,
      "inputs": [
        {
          "indexed": true,
          "internalType": "address",
          "name": "player",
          "type": "address"
        },
        {
          "indexed": true,
          "internalType": "uint8",
          "name": "level",
          "type": "uint8"
        },
        {
          "indexed": true,
          "internalType": "address",
          "name": "token",
          "type": "address"
        },
        {
          "indexed": false,
          "internalType": "uint256",
          "name": "cellId",
          "type": "uint256"
        },
        {
          "indexed": false,
          "internalType": "uint256",
          "name": "amount",
          "type": "uint256"
        },
        {
          "indexed": false,
          "internalType": "bool",
          "name": "pending",
          "type": "bool"
        }
      ],
      "name": "TokenPrizePositionReached",
      "type": "event"
    },
    {
      "anonymous": false,
      "inputs": [
        {
          "indexed": true,
          "internalType": "address",
          "name": "token",
          "type": "address"
        },
        {
          "indexed": true,
          "internalType": "uint8",
          "name": "level",
          "type": "uint8"
        },
        {
          "indexed": false,
          "internalType": "uint256",
          "name": "amount",
          "type": "uint256"
        },
        {
          "indexed": false,
          "internalType": "uint256",
          "name": "totalAccrued",
          "type": "uint256"
        }
      ],
      "name": "TokenProjectFeeAccrued",
      "type": "event"
    },
    {
      "anonymous": false,
      "inputs": [
        {
          "indexed": true,
          "internalType": "address",
          "name": "token",
          "type": "address"
        },
        {
          "indexed": true,
          "internalType": "address",
          "name": "wallet",
          "type": "address"
        },
        {
          "indexed": false,
          "internalType": "uint256",
          "name": "amount",
          "type": "uint256"
        }
      ],
      "name": "TokenProjectFeesWithdrawn",
      "type": "event"
    },
    {
      "anonymous": false,
      "inputs": [
        {
          "indexed": true,
          "internalType": "address",
          "name": "player",
          "type": "address"
        },
        {
          "indexed": true,
          "internalType": "address",
          "name": "token",
          "type": "address"
        },
        {
          "indexed": false,
          "internalType": "uint256",
          "name": "amount",
          "type": "uint256"
        }
      ],
      "name": "TokenReferralBonusClaimed",
      "type": "event"
    },
    {
      "anonymous": false,
      "inputs": [
        {
          "indexed": true,
          "internalType": "address",
          "name": "oldToken",
          "type": "address"
        },
        {
          "indexed": true,
          "internalType": "address",
          "name": "newToken",
          "type": "address"
        }
      ],
      "name": "UsdcTokenChanged",
      "type": "event"
    },
    {
      "anonymous": false,
      "inputs": [
        {
          "indexed": false,
          "internalType": "address",
          "name": "projectWallet",
          "type": "address"
        },
        {
          "indexed": false,
          "internalType": "address",
          "name": "treasuryWallet",
          "type": "address"
        },
        {
          "indexed": false,
          "internalType": "address",
          "name": "operatorWallet",
          "type": "address"
        }
      ],
      "name": "WalletsChanged",
      "type": "event"
    },
    {
      "anonymous": false,
      "inputs": [
        {
          "indexed": true,
          "internalType": "address",
          "name": "player",
          "type": "address"
        },
        {
          "indexed": true,
          "internalType": "uint8",
          "name": "level",
          "type": "uint8"
        },
        {
          "indexed": false,
          "internalType": "uint256",
          "name": "totalWeight",
          "type": "uint256"
        }
      ],
      "name": "WeightUpdated",
      "type": "event"
    },
    {
      "inputs": [],
      "name": "BASE_ACTIVATION_WEIGHT",
      "outputs": [
        {
          "internalType": "uint256",
          "name": "",
          "type": "uint256"
        }
      ],
      "stateMutability": "view",
      "type": "function"
    },
    {
      "inputs": [],
      "name": "BOX_NFT_WEIGHT",
      "outputs": [
        {
          "internalType": "uint256",
          "name": "",
          "type": "uint256"
        }
      ],
      "stateMutability": "view",
      "type": "function"
    },
    {
      "inputs": [],
      "name": "BPS",
      "outputs": [
        {
          "internalType": "uint256",
          "name": "",
          "type": "uint256"
        }
      ],
      "stateMutability": "view",
      "type": "function"
    },
    {
      "inputs": [],
      "name": "DIRECT_REF_BPS",
      "outputs": [
        {
          "internalType": "uint256",
          "name": "",
          "type": "uint256"
        }
      ],
      "stateMutability": "view",
      "type": "function"
    },
    {
      "inputs": [],
      "name": "DIRECT_REF_WEIGHT",
      "outputs": [
        {
          "internalType": "uint256",
          "name": "",
          "type": "uint256"
        }
      ],
      "stateMutability": "view",
      "type": "function"
    },
    {
      "inputs": [],
      "name": "DRAW_REWARD_BPS",
      "outputs": [
        {
          "internalType": "uint256",
          "name": "",
          "type": "uint256"
        }
      ],
      "stateMutability": "view",
      "type": "function"
    },
    {
      "inputs": [],
      "name": "LEVEL_COUNT",
      "outputs": [
        {
          "internalType": "uint8",
          "name": "",
          "type": "uint8"
        }
      ],
      "stateMutability": "view",
      "type": "function"
    },
    {
      "inputs": [],
      "name": "MATRIX_PRIZE_BPS",
      "outputs": [
        {
          "internalType": "uint256",
          "name": "",
          "type": "uint256"
        }
      ],
      "stateMutability": "view",
      "type": "function"
    },
    {
      "inputs": [],
      "name": "MAX_BASE_WEIGHT_PER_LEVEL",
      "outputs": [
        {
          "internalType": "uint256",
          "name": "",
          "type": "uint256"
        }
      ],
      "stateMutability": "view",
      "type": "function"
    },
    {
      "inputs": [],
      "name": "MAX_LOYALTY_WEIGHT_PER_LEVEL",
      "outputs": [
        {
          "internalType": "uint256",
          "name": "",
          "type": "uint256"
        }
      ],
      "stateMutability": "view",
      "type": "function"
    },
    {
      "inputs": [],
      "name": "MAX_MATRIX_WEIGHT_PER_LEVEL",
      "outputs": [
        {
          "internalType": "uint256",
          "name": "",
          "type": "uint256"
        }
      ],
      "stateMutability": "view",
      "type": "function"
    },
    {
      "inputs": [],
      "name": "MAX_NFT_WEIGHT_PER_LEVEL",
      "outputs": [
        {
          "internalType": "uint256",
          "name": "",
          "type": "uint256"
        }
      ],
      "stateMutability": "view",
      "type": "function"
    },
    {
      "inputs": [],
      "name": "MAX_RECYCLE_STEPS_PER_TX",
      "outputs": [
        {
          "internalType": "uint8",
          "name": "",
          "type": "uint8"
        }
      ],
      "stateMutability": "view",
      "type": "function"
    },
    {
      "inputs": [],
      "name": "MAX_REFERRAL_WEIGHT_PER_LEVEL",
      "outputs": [
        {
          "internalType": "uint256",
          "name": "",
          "type": "uint256"
        }
      ],
      "stateMutability": "view",
      "type": "function"
    },
    {
      "inputs": [],
      "name": "MAX_TOTAL_WEIGHT_PER_LEVEL",
      "outputs": [
        {
          "internalType": "uint256",
          "name": "",
          "type": "uint256"
        }
      ],
      "stateMutability": "view",
      "type": "function"
    },
    {
      "inputs": [],
      "name": "PRIZE_POSITION_BPS",
      "outputs": [
        {
          "internalType": "uint256",
          "name": "",
          "type": "uint256"
        }
      ],
      "stateMutability": "view",
      "type": "function"
    },
    {
      "inputs": [],
      "name": "PROJECT_FEE_BPS",
      "outputs": [
        {
          "internalType": "uint256",
          "name": "",
          "type": "uint256"
        }
      ],
      "stateMutability": "view",
      "type": "function"
    },
    {
      "inputs": [],
      "name": "RECYCLE_MATRIX_WEIGHT",
      "outputs": [
        {
          "internalType": "uint256",
          "name": "",
          "type": "uint256"
        }
      ],
      "stateMutability": "view",
      "type": "function"
    },
    {
      "inputs": [],
      "name": "SECOND_REF_BPS",
      "outputs": [
        {
          "internalType": "uint256",
          "name": "",
          "type": "uint256"
        }
      ],
      "stateMutability": "view",
      "type": "function"
    },
    {
      "inputs": [],
      "name": "SECOND_REF_WEIGHT",
      "outputs": [
        {
          "internalType": "uint256",
          "name": "",
          "type": "uint256"
        }
      ],
      "stateMutability": "view",
      "type": "function"
    },
    {
      "inputs": [],
      "name": "THIRD_REF_BPS",
      "outputs": [
        {
          "internalType": "uint256",
          "name": "",
          "type": "uint256"
        }
      ],
      "stateMutability": "view",
      "type": "function"
    },
    {
      "inputs": [],
      "name": "THIRD_REF_WEIGHT",
      "outputs": [
        {
          "internalType": "uint256",
          "name": "",
          "type": "uint256"
        }
      ],
      "stateMutability": "view",
      "type": "function"
    },
    {
      "inputs": [],
      "name": "WEEKLY_LOYALTY_WEIGHT",
      "outputs": [
        {
          "internalType": "uint256",
          "name": "",
          "type": "uint256"
        }
      ],
      "stateMutability": "view",
      "type": "function"
    },
    {
      "inputs": [],
      "name": "WEIGHT_SCALE",
      "outputs": [
        {
          "internalType": "uint256",
          "name": "",
          "type": "uint256"
        }
      ],
      "stateMutability": "view",
      "type": "function"
    },
    {
      "inputs": [
        {
          "components": [
            {
              "internalType": "uint256",
              "name": "seasonId",
              "type": "uint256"
            },
            {
              "internalType": "uint256",
              "name": "roundId",
              "type": "uint256"
            },
            {
              "internalType": "uint8",
              "name": "level",
              "type": "uint8"
            },
            {
              "internalType": "uint64",
              "name": "startsAt",
              "type": "uint64"
            },
            {
              "internalType": "uint64",
              "name": "entriesCloseAt",
              "type": "uint64"
            },
            {
              "internalType": "uint64",
              "name": "endsAt",
              "type": "uint64"
            },
            {
              "internalType": "uint64",
              "name": "freezeClosesAt",
              "type": "uint64"
            },
            {
              "internalType": "uint32",
              "name": "maxPlayers",
              "type": "uint32"
            },
            {
              "internalType": "uint16",
              "name": "maxWinners",
              "type": "uint16"
            },
            {
              "internalType": "bytes32",
              "name": "winningCellsRoot",
              "type": "bytes32"
            },
            {
              "internalType": "uint256",
              "name": "ethPrice",
              "type": "uint256"
            },
            {
              "internalType": "uint256",
              "name": "usdcPrice",
              "type": "uint256"
            },
            {
              "internalType": "uint16",
              "name": "freezeLimit",
              "type": "uint16"
            },
            {
              "internalType": "uint16",
              "name": "paymentSplitVersion",
              "type": "uint16"
            }
          ],
          "internalType": "struct RoundConfig",
          "name": "config",
          "type": "tuple"
        },
        {
          "internalType": "bytes",
          "name": "signature",
          "type": "bytes"
        },
        {
          "internalType": "address",
          "name": "inviter",
          "type": "address"
        }
      ],
      "name": "activateRound",
      "outputs": [],
      "stateMutability": "payable",
      "type": "function"
    },
    {
      "inputs": [
        {
          "components": [
            {
              "internalType": "uint256",
              "name": "seasonId",
              "type": "uint256"
            },
            {
              "internalType": "uint256",
              "name": "roundId",
              "type": "uint256"
            },
            {
              "internalType": "uint8",
              "name": "level",
              "type": "uint8"
            },
            {
              "internalType": "uint64",
              "name": "startsAt",
              "type": "uint64"
            },
            {
              "internalType": "uint64",
              "name": "entriesCloseAt",
              "type": "uint64"
            },
            {
              "internalType": "uint64",
              "name": "endsAt",
              "type": "uint64"
            },
            {
              "internalType": "uint64",
              "name": "freezeClosesAt",
              "type": "uint64"
            },
            {
              "internalType": "uint32",
              "name": "maxPlayers",
              "type": "uint32"
            },
            {
              "internalType": "uint16",
              "name": "maxWinners",
              "type": "uint16"
            },
            {
              "internalType": "bytes32",
              "name": "winningCellsRoot",
              "type": "bytes32"
            },
            {
              "internalType": "uint256",
              "name": "ethPrice",
              "type": "uint256"
            },
            {
              "internalType": "uint256",
              "name": "usdcPrice",
              "type": "uint256"
            },
            {
              "internalType": "uint16",
              "name": "freezeLimit",
              "type": "uint16"
            },
            {
              "internalType": "uint16",
              "name": "paymentSplitVersion",
              "type": "uint16"
            }
          ],
          "internalType": "struct RoundConfig",
          "name": "config",
          "type": "tuple"
        },
        {
          "internalType": "bytes",
          "name": "signature",
          "type": "bytes"
        },
        {
          "internalType": "address",
          "name": "player",
          "type": "address"
        },
        {
          "internalType": "address",
          "name": "inviter",
          "type": "address"
        }
      ],
      "name": "activateRoundFromBasePay",
      "outputs": [],
      "stateMutability": "nonpayable",
      "type": "function"
    },
    {
      "inputs": [
        {
          "components": [
            {
              "internalType": "uint256",
              "name": "seasonId",
              "type": "uint256"
            },
            {
              "internalType": "uint256",
              "name": "roundId",
              "type": "uint256"
            },
            {
              "internalType": "uint8",
              "name": "level",
              "type": "uint8"
            },
            {
              "internalType": "uint64",
              "name": "startsAt",
              "type": "uint64"
            },
            {
              "internalType": "uint64",
              "name": "entriesCloseAt",
              "type": "uint64"
            },
            {
              "internalType": "uint64",
              "name": "endsAt",
              "type": "uint64"
            },
            {
              "internalType": "uint64",
              "name": "freezeClosesAt",
              "type": "uint64"
            },
            {
              "internalType": "uint32",
              "name": "maxPlayers",
              "type": "uint32"
            },
            {
              "internalType": "uint16",
              "name": "maxWinners",
              "type": "uint16"
            },
            {
              "internalType": "bytes32",
              "name": "winningCellsRoot",
              "type": "bytes32"
            },
            {
              "internalType": "uint256",
              "name": "ethPrice",
              "type": "uint256"
            },
            {
              "internalType": "uint256",
              "name": "usdcPrice",
              "type": "uint256"
            },
            {
              "internalType": "uint16",
              "name": "freezeLimit",
              "type": "uint16"
            },
            {
              "internalType": "uint16",
              "name": "paymentSplitVersion",
              "type": "uint16"
            }
          ],
          "internalType": "struct RoundConfig",
          "name": "config",
          "type": "tuple"
        },
        {
          "internalType": "bytes",
          "name": "signature",
          "type": "bytes"
        },
        {
          "internalType": "address",
          "name": "inviter",
          "type": "address"
        }
      ],
      "name": "activateRoundWithUSDC",
      "outputs": [],
      "stateMutability": "nonpayable",
      "type": "function"
    },
    {
      "inputs": [
        {
          "internalType": "uint8",
          "name": "",
          "type": "uint8"
        }
      ],
      "name": "activeCellsByLevel",
      "outputs": [
        {
          "internalType": "uint256",
          "name": "",
          "type": "uint256"
        }
      ],
      "stateMutability": "view",
      "type": "function"
    },
    {
      "inputs": [],
      "name": "basePayGateway",
      "outputs": [
        {
          "internalType": "address",
          "name": "",
          "type": "address"
        }
      ],
      "stateMutability": "view",
      "type": "function"
    },
    {
      "inputs": [
        {
          "internalType": "uint8",
          "name": "level",
          "type": "uint8"
        }
      ],
      "name": "claimPrize",
      "outputs": [],
      "stateMutability": "nonpayable",
      "type": "function"
    },
    {
      "inputs": [
        {
          "internalType": "uint8",
          "name": "level",
          "type": "uint8"
        }
      ],
      "name": "claimPrizeUSDC",
      "outputs": [],
      "stateMutability": "nonpayable",
      "type": "function"
    },
    {
      "inputs": [],
      "name": "claimReferralBonus",
      "outputs": [],
      "stateMutability": "nonpayable",
      "type": "function"
    },
    {
      "inputs": [],
      "name": "claimReferralBonusUSDC",
      "outputs": [],
      "stateMutability": "nonpayable",
      "type": "function"
    },
    {
      "inputs": [
        {
          "internalType": "address",
          "name": "",
          "type": "address"
        }
      ],
      "name": "claimablePrizeUsdc",
      "outputs": [
        {
          "internalType": "uint256",
          "name": "",
          "type": "uint256"
        }
      ],
      "stateMutability": "view",
      "type": "function"
    },
    {
      "inputs": [
        {
          "internalType": "address",
          "name": "",
          "type": "address"
        },
        {
          "internalType": "uint8",
          "name": "",
          "type": "uint8"
        }
      ],
      "name": "claimablePrizeUsdcByLevel",
      "outputs": [
        {
          "internalType": "uint256",
          "name": "",
          "type": "uint256"
        }
      ],
      "stateMutability": "view",
      "type": "function"
    },
    {
      "inputs": [
        {
          "internalType": "address",
          "name": "",
          "type": "address"
        }
      ],
      "name": "claimableReferralBonusUsdc",
      "outputs": [
        {
          "internalType": "uint256",
          "name": "",
          "type": "uint256"
        }
      ],
      "stateMutability": "view",
      "type": "function"
    },
    {
      "inputs": [
        {
          "internalType": "uint8",
          "name": "level",
          "type": "uint8"
        }
      ],
      "name": "getLevelMatrixStats",
      "outputs": [
        {
          "internalType": "uint256",
          "name": "size",
          "type": "uint256"
        },
        {
          "internalType": "uint256",
          "name": "nextOpenParentId",
          "type": "uint256"
        }
      ],
      "stateMutability": "view",
      "type": "function"
    },
    {
      "inputs": [
        {
          "internalType": "uint8",
          "name": "level",
          "type": "uint8"
        }
      ],
      "name": "getLevelStats",
      "outputs": [
        {
          "internalType": "uint256",
          "name": "prizePool",
          "type": "uint256"
        },
        {
          "internalType": "uint256",
          "name": "totalWeight",
          "type": "uint256"
        },
        {
          "internalType": "uint256",
          "name": "activeCells",
          "type": "uint256"
        },
        {
          "internalType": "uint256",
          "name": "nextOpenParent",
          "type": "uint256"
        },
        {
          "internalType": "uint256",
          "name": "nextCell",
          "type": "uint256"
        }
      ],
      "stateMutability": "view",
      "type": "function"
    },
    {
      "inputs": [
        {
          "internalType": "uint8",
          "name": "level",
          "type": "uint8"
        }
      ],
      "name": "getLevelStatsUSDC",
      "outputs": [
        {
          "internalType": "uint256",
          "name": "prizePool",
          "type": "uint256"
        },
        {
          "internalType": "uint256",
          "name": "totalWeight",
          "type": "uint256"
        },
        {
          "internalType": "uint256",
          "name": "activeCells",
          "type": "uint256"
        },
        {
          "internalType": "uint256",
          "name": "nextOpenParent",
          "type": "uint256"
        },
        {
          "internalType": "uint256",
          "name": "nextCell",
          "type": "uint256"
        }
      ],
      "stateMutability": "view",
      "type": "function"
    },
    {
      "inputs": [
        {
          "internalType": "uint8",
          "name": "level",
          "type": "uint8"
        },
        {
          "internalType": "uint256",
          "name": "cellId",
          "type": "uint256"
        }
      ],
      "name": "getMatrixNode",
      "outputs": [
        {
          "components": [
            {
              "internalType": "uint256",
              "name": "cellId",
              "type": "uint256"
            },
            {
              "internalType": "address",
              "name": "player",
              "type": "address"
            },
            {
              "internalType": "uint8",
              "name": "level",
              "type": "uint8"
            },
            {
              "internalType": "uint256",
              "name": "parentCellId",
              "type": "uint256"
            },
            {
              "internalType": "uint256",
              "name": "leftChildCellId",
              "type": "uint256"
            },
            {
              "internalType": "uint256",
              "name": "rightChildCellId",
              "type": "uint256"
            },
            {
              "internalType": "bool",
              "name": "closed",
              "type": "bool"
            },
            {
              "internalType": "bool",
              "name": "prizeCell",
              "type": "bool"
            }
          ],
          "internalType": "struct MatrixNode",
          "name": "",
          "type": "tuple"
        }
      ],
      "stateMutability": "view",
      "type": "function"
    },
    {
      "inputs": [
        {
          "internalType": "uint8",
          "name": "level",
          "type": "uint8"
        },
        {
          "internalType": "uint256",
          "name": "currentCellId",
          "type": "uint256"
        }
      ],
      "name": "getNextPrizeCell",
      "outputs": [
        {
          "internalType": "uint256",
          "name": "",
          "type": "uint256"
        }
      ],
      "stateMutability": "pure",
      "type": "function"
    },
    {
      "inputs": [
        {
          "internalType": "uint8",
          "name": "level",
          "type": "uint8"
        }
      ],
      "name": "getPendingRecycleCount",
      "outputs": [
        {
          "internalType": "uint256",
          "name": "",
          "type": "uint256"
        }
      ],
      "stateMutability": "view",
      "type": "function"
    },
    {
      "inputs": [
        {
          "internalType": "address",
          "name": "playerAddress",
          "type": "address"
        }
      ],
      "name": "getPlayer",
      "outputs": [
        {
          "components": [
            {
              "internalType": "bool",
              "name": "exists",
              "type": "bool"
            },
            {
              "internalType": "address",
              "name": "wallet",
              "type": "address"
            },
            {
              "internalType": "address",
              "name": "inviter",
              "type": "address"
            },
            {
              "internalType": "address",
              "name": "secondLine",
              "type": "address"
            },
            {
              "internalType": "address",
              "name": "thirdLine",
              "type": "address"
            },
            {
              "internalType": "uint256",
              "name": "totalTickets",
              "type": "uint256"
            },
            {
              "internalType": "uint256",
              "name": "baseWeight",
              "type": "uint256"
            },
            {
              "internalType": "uint256",
              "name": "referralWeight",
              "type": "uint256"
            },
            {
              "internalType": "uint256",
              "name": "loyaltyWeight",
              "type": "uint256"
            },
            {
              "internalType": "uint256",
              "name": "matrixWeight",
              "type": "uint256"
            },
            {
              "internalType": "uint256",
              "name": "nftWeight",
              "type": "uint256"
            },
            {
              "internalType": "uint256",
              "name": "totalWeight",
              "type": "uint256"
            },
            {
              "internalType": "uint256",
              "name": "boxTokens",
              "type": "uint256"
            },
            {
              "internalType": "uint256",
              "name": "recycleCount",
              "type": "uint256"
            },
            {
              "internalType": "uint256",
              "name": "claimableReferralBonus",
              "type": "uint256"
            },
            {
              "internalType": "uint256",
              "name": "claimablePrize",
              "type": "uint256"
            },
            {
              "internalType": "uint256",
              "name": "pendingPrize",
              "type": "uint256"
            },
            {
              "internalType": "uint256",
              "name": "joinedAt",
              "type": "uint256"
            },
            {
              "internalType": "uint256",
              "name": "lastActiveAt",
              "type": "uint256"
            }
          ],
          "internalType": "struct Player",
          "name": "",
          "type": "tuple"
        }
      ],
      "stateMutability": "view",
      "type": "function"
    },
    {
      "inputs": [
        {
          "internalType": "address",
          "name": "playerAddress",
          "type": "address"
        },
        {
          "internalType": "uint8",
          "name": "level",
          "type": "uint8"
        }
      ],
      "name": "getPlayerChance",
      "outputs": [
        {
          "internalType": "uint256",
          "name": "chanceBps",
          "type": "uint256"
        }
      ],
      "stateMutability": "view",
      "type": "function"
    },
    {
      "inputs": [
        {
          "internalType": "address",
          "name": "playerAddress",
          "type": "address"
        },
        {
          "internalType": "uint8",
          "name": "level",
          "type": "uint8"
        }
      ],
      "name": "getPlayerLevel",
      "outputs": [
        {
          "internalType": "bool",
          "name": "active",
          "type": "bool"
        },
        {
          "internalType": "bool",
          "name": "frozen",
          "type": "bool"
        },
        {
          "internalType": "uint256",
          "name": "cycles",
          "type": "uint256"
        },
        {
          "internalType": "uint256",
          "name": "positionId",
          "type": "uint256"
        },
        {
          "internalType": "uint256",
          "name": "earned",
          "type": "uint256"
        }
      ],
      "stateMutability": "view",
      "type": "function"
    },
    {
      "inputs": [
        {
          "internalType": "address",
          "name": "playerAddress",
          "type": "address"
        },
        {
          "internalType": "uint8",
          "name": "level",
          "type": "uint8"
        }
      ],
      "name": "getPlayerLevelFull",
      "outputs": [
        {
          "components": [
            {
              "internalType": "bool",
              "name": "active",
              "type": "bool"
            },
            {
              "internalType": "bool",
              "name": "frozen",
              "type": "bool"
            },
            {
              "internalType": "uint256",
              "name": "tickets",
              "type": "uint256"
            },
            {
              "internalType": "uint256",
              "name": "cellId",
              "type": "uint256"
            },
            {
              "internalType": "uint256",
              "name": "parentCellId",
              "type": "uint256"
            },
            {
              "internalType": "uint256",
              "name": "leftChildCellId",
              "type": "uint256"
            },
            {
              "internalType": "uint256",
              "name": "rightChildCellId",
              "type": "uint256"
            },
            {
              "internalType": "uint256",
              "name": "cycleCount",
              "type": "uint256"
            },
            {
              "internalType": "uint256",
              "name": "levelWeight",
              "type": "uint256"
            },
            {
              "internalType": "uint256",
              "name": "claimablePrize",
              "type": "uint256"
            },
            {
              "internalType": "uint256",
              "name": "pendingPrize",
              "type": "uint256"
            }
          ],
          "internalType": "struct PlayerLevel",
          "name": "",
          "type": "tuple"
        }
      ],
      "stateMutability": "view",
      "type": "function"
    },
    {
      "inputs": [
        {
          "internalType": "address",
          "name": "playerAddress",
          "type": "address"
        },
        {
          "internalType": "uint8",
          "name": "level",
          "type": "uint8"
        }
      ],
      "name": "getPlayerPosition",
      "outputs": [
        {
          "internalType": "uint256",
          "name": "positionId",
          "type": "uint256"
        },
        {
          "internalType": "uint256",
          "name": "parentId",
          "type": "uint256"
        },
        {
          "internalType": "uint256",
          "name": "leftChildId",
          "type": "uint256"
        },
        {
          "internalType": "uint256",
          "name": "rightChildId",
          "type": "uint256"
        },
        {
          "internalType": "uint256",
          "name": "depth",
          "type": "uint256"
        },
        {
          "internalType": "bool",
          "name": "closed",
          "type": "bool"
        }
      ],
      "stateMutability": "view",
      "type": "function"
    },
    {
      "inputs": [
        {
          "internalType": "address",
          "name": "playerAddress",
          "type": "address"
        },
        {
          "internalType": "uint256",
          "name": "roundId",
          "type": "uint256"
        }
      ],
      "name": "getPlayerRound",
      "outputs": [
        {
          "components": [
            {
              "internalType": "bool",
              "name": "active",
              "type": "bool"
            },
            {
              "internalType": "bool",
              "name": "frozen",
              "type": "bool"
            },
            {
              "internalType": "uint8",
              "name": "level",
              "type": "uint8"
            },
            {
              "internalType": "uint256",
              "name": "tickets",
              "type": "uint256"
            },
            {
              "internalType": "uint256",
              "name": "cellId",
              "type": "uint256"
            },
            {
              "internalType": "uint256",
              "name": "parentCellId",
              "type": "uint256"
            },
            {
              "internalType": "uint256",
              "name": "leftChildCellId",
              "type": "uint256"
            },
            {
              "internalType": "uint256",
              "name": "rightChildCellId",
              "type": "uint256"
            },
            {
              "internalType": "uint256",
              "name": "cycleCount",
              "type": "uint256"
            },
            {
              "internalType": "uint256",
              "name": "totalWeight",
              "type": "uint256"
            },
            {
              "internalType": "uint256",
              "name": "claimablePrize",
              "type": "uint256"
            },
            {
              "internalType": "uint256",
              "name": "pendingPrize",
              "type": "uint256"
            },
            {
              "internalType": "uint256",
              "name": "claimablePrizeUsdc",
              "type": "uint256"
            },
            {
              "internalType": "uint256",
              "name": "pendingPrizeUsdc",
              "type": "uint256"
            }
          ],
          "internalType": "struct PlayerRound",
          "name": "",
          "type": "tuple"
        }
      ],
      "stateMutability": "view",
      "type": "function"
    },
    {
      "inputs": [
        {
          "internalType": "address",
          "name": "playerAddress",
          "type": "address"
        },
        {
          "internalType": "uint8",
          "name": "level",
          "type": "uint8"
        }
      ],
      "name": "getPlayerTokenRewards",
      "outputs": [
        {
          "internalType": "uint256",
          "name": "referralBonus",
          "type": "uint256"
        },
        {
          "internalType": "uint256",
          "name": "claimablePrize",
          "type": "uint256"
        },
        {
          "internalType": "uint256",
          "name": "pendingPrize",
          "type": "uint256"
        }
      ],
      "stateMutability": "view",
      "type": "function"
    },
    {
      "inputs": [
        {
          "internalType": "address",
          "name": "playerAddress",
          "type": "address"
        },
        {
          "internalType": "uint8",
          "name": "level",
          "type": "uint8"
        }
      ],
      "name": "getPlayerWeight",
      "outputs": [
        {
          "internalType": "uint256",
          "name": "",
          "type": "uint256"
        }
      ],
      "stateMutability": "view",
      "type": "function"
    },
    {
      "inputs": [
        {
          "internalType": "uint256",
          "name": "roundId",
          "type": "uint256"
        }
      ],
      "name": "getRoundGameStats",
      "outputs": [
        {
          "internalType": "uint256",
          "name": "prizePoolEth",
          "type": "uint256"
        },
        {
          "internalType": "uint256",
          "name": "prizePoolUsdc",
          "type": "uint256"
        },
        {
          "internalType": "uint256",
          "name": "totalWeight",
          "type": "uint256"
        },
        {
          "internalType": "uint256",
          "name": "activeCells",
          "type": "uint256"
        },
        {
          "internalType": "uint256",
          "name": "nextCell",
          "type": "uint256"
        },
        {
          "internalType": "uint256",
          "name": "nextOpenParent",
          "type": "uint256"
        }
      ],
      "stateMutability": "view",
      "type": "function"
    },
    {
      "inputs": [
        {
          "internalType": "uint256",
          "name": "roundId",
          "type": "uint256"
        },
        {
          "internalType": "uint256",
          "name": "cellId",
          "type": "uint256"
        }
      ],
      "name": "getRoundMatrixNode",
      "outputs": [
        {
          "components": [
            {
              "internalType": "uint256",
              "name": "cellId",
              "type": "uint256"
            },
            {
              "internalType": "address",
              "name": "player",
              "type": "address"
            },
            {
              "internalType": "uint8",
              "name": "level",
              "type": "uint8"
            },
            {
              "internalType": "uint256",
              "name": "parentCellId",
              "type": "uint256"
            },
            {
              "internalType": "uint256",
              "name": "leftChildCellId",
              "type": "uint256"
            },
            {
              "internalType": "uint256",
              "name": "rightChildCellId",
              "type": "uint256"
            },
            {
              "internalType": "bool",
              "name": "closed",
              "type": "bool"
            },
            {
              "internalType": "bool",
              "name": "prizeCell",
              "type": "bool"
            }
          ],
          "internalType": "struct MatrixNode",
          "name": "",
          "type": "tuple"
        }
      ],
      "stateMutability": "view",
      "type": "function"
    },
    {
      "inputs": [
        {
          "internalType": "uint256",
          "name": "roundId",
          "type": "uint256"
        }
      ],
      "name": "getRoundRecycleQueueState",
      "outputs": [
        {
          "internalType": "uint256",
          "name": "head",
          "type": "uint256"
        },
        {
          "internalType": "uint256",
          "name": "tail",
          "type": "uint256"
        },
        {
          "internalType": "uint256",
          "name": "pending",
          "type": "uint256"
        }
      ],
      "stateMutability": "view",
      "type": "function"
    },
    {
      "inputs": [
        {
          "internalType": "uint256",
          "name": "roundId",
          "type": "uint256"
        }
      ],
      "name": "hasPendingRoundRecycles",
      "outputs": [
        {
          "internalType": "bool",
          "name": "",
          "type": "bool"
        }
      ],
      "stateMutability": "view",
      "type": "function"
    },
    {
      "inputs": [
        {
          "internalType": "address",
          "name": "playerAddress",
          "type": "address"
        },
        {
          "internalType": "uint8",
          "name": "level",
          "type": "uint8"
        }
      ],
      "name": "isLevelActive",
      "outputs": [
        {
          "internalType": "bool",
          "name": "",
          "type": "bool"
        }
      ],
      "stateMutability": "view",
      "type": "function"
    },
    {
      "inputs": [
        {
          "internalType": "address",
          "name": "playerAddress",
          "type": "address"
        },
        {
          "internalType": "uint8",
          "name": "level",
          "type": "uint8"
        }
      ],
      "name": "isLevelFrozen",
      "outputs": [
        {
          "internalType": "bool",
          "name": "",
          "type": "bool"
        }
      ],
      "stateMutability": "view",
      "type": "function"
    },
    {
      "inputs": [],
      "name": "legacyActivationEnabled",
      "outputs": [
        {
          "internalType": "bool",
          "name": "",
          "type": "bool"
        }
      ],
      "stateMutability": "view",
      "type": "function"
    },
    {
      "inputs": [
        {
          "internalType": "uint8",
          "name": "",
          "type": "uint8"
        }
      ],
      "name": "levelAvailable",
      "outputs": [
        {
          "internalType": "bool",
          "name": "",
          "type": "bool"
        }
      ],
      "stateMutability": "view",
      "type": "function"
    },
    {
      "inputs": [
        {
          "internalType": "uint8",
          "name": "",
          "type": "uint8"
        }
      ],
      "name": "levelMatrixSize",
      "outputs": [
        {
          "internalType": "uint256",
          "name": "",
          "type": "uint256"
        }
      ],
      "stateMutability": "view",
      "type": "function"
    },
    {
      "inputs": [
        {
          "internalType": "uint8",
          "name": "",
          "type": "uint8"
        }
      ],
      "name": "levelPrices",
      "outputs": [
        {
          "internalType": "uint256",
          "name": "",
          "type": "uint256"
        }
      ],
      "stateMutability": "view",
      "type": "function"
    },
    {
      "inputs": [
        {
          "internalType": "uint8",
          "name": "",
          "type": "uint8"
        }
      ],
      "name": "levelPricesUsdc",
      "outputs": [
        {
          "internalType": "uint256",
          "name": "",
          "type": "uint256"
        }
      ],
      "stateMutability": "view",
      "type": "function"
    },
    {
      "inputs": [
        {
          "internalType": "uint8",
          "name": "",
          "type": "uint8"
        },
        {
          "internalType": "uint256",
          "name": "",
          "type": "uint256"
        }
      ],
      "name": "matrixNodes",
      "outputs": [
        {
          "internalType": "uint256",
          "name": "cellId",
          "type": "uint256"
        },
        {
          "internalType": "address",
          "name": "player",
          "type": "address"
        },
        {
          "internalType": "uint8",
          "name": "level",
          "type": "uint8"
        },
        {
          "internalType": "uint256",
          "name": "parentCellId",
          "type": "uint256"
        },
        {
          "internalType": "uint256",
          "name": "leftChildCellId",
          "type": "uint256"
        },
        {
          "internalType": "uint256",
          "name": "rightChildCellId",
          "type": "uint256"
        },
        {
          "internalType": "bool",
          "name": "closed",
          "type": "bool"
        },
        {
          "internalType": "bool",
          "name": "prizeCell",
          "type": "bool"
        }
      ],
      "stateMutability": "view",
      "type": "function"
    },
    {
      "inputs": [
        {
          "internalType": "uint8",
          "name": "",
          "type": "uint8"
        }
      ],
      "name": "matrixPrizePools",
      "outputs": [
        {
          "internalType": "uint256",
          "name": "",
          "type": "uint256"
        }
      ],
      "stateMutability": "view",
      "type": "function"
    },
    {
      "inputs": [
        {
          "internalType": "uint8",
          "name": "",
          "type": "uint8"
        }
      ],
      "name": "matrixPrizePoolsUsdc",
      "outputs": [
        {
          "internalType": "uint256",
          "name": "",
          "type": "uint256"
        }
      ],
      "stateMutability": "view",
      "type": "function"
    },
    {
      "inputs": [
        {
          "internalType": "uint8",
          "name": "",
          "type": "uint8"
        }
      ],
      "name": "nextCellId",
      "outputs": [
        {
          "internalType": "uint256",
          "name": "",
          "type": "uint256"
        }
      ],
      "stateMutability": "view",
      "type": "function"
    },
    {
      "inputs": [
        {
          "internalType": "uint8",
          "name": "",
          "type": "uint8"
        }
      ],
      "name": "nextOpenParentCellId",
      "outputs": [
        {
          "internalType": "uint256",
          "name": "",
          "type": "uint256"
        }
      ],
      "stateMutability": "view",
      "type": "function"
    },
    {
      "inputs": [],
      "name": "operatorWallet",
      "outputs": [
        {
          "internalType": "address",
          "name": "",
          "type": "address"
        }
      ],
      "stateMutability": "view",
      "type": "function"
    },
    {
      "inputs": [],
      "name": "owner",
      "outputs": [
        {
          "internalType": "address",
          "name": "",
          "type": "address"
        }
      ],
      "stateMutability": "view",
      "type": "function"
    },
    {
      "inputs": [
        {
          "internalType": "address",
          "name": "",
          "type": "address"
        }
      ],
      "name": "pendingPrizeUsdc",
      "outputs": [
        {
          "internalType": "uint256",
          "name": "",
          "type": "uint256"
        }
      ],
      "stateMutability": "view",
      "type": "function"
    },
    {
      "inputs": [
        {
          "internalType": "address",
          "name": "",
          "type": "address"
        },
        {
          "internalType": "uint8",
          "name": "",
          "type": "uint8"
        }
      ],
      "name": "pendingPrizeUsdcByLevel",
      "outputs": [
        {
          "internalType": "uint256",
          "name": "",
          "type": "uint256"
        }
      ],
      "stateMutability": "view",
      "type": "function"
    },
    {
      "inputs": [
        {
          "internalType": "address",
          "name": "",
          "type": "address"
        },
        {
          "internalType": "uint8",
          "name": "",
          "type": "uint8"
        }
      ],
      "name": "playerLevels",
      "outputs": [
        {
          "internalType": "bool",
          "name": "active",
          "type": "bool"
        },
        {
          "internalType": "bool",
          "name": "frozen",
          "type": "bool"
        },
        {
          "internalType": "uint256",
          "name": "tickets",
          "type": "uint256"
        },
        {
          "internalType": "uint256",
          "name": "cellId",
          "type": "uint256"
        },
        {
          "internalType": "uint256",
          "name": "parentCellId",
          "type": "uint256"
        },
        {
          "internalType": "uint256",
          "name": "leftChildCellId",
          "type": "uint256"
        },
        {
          "internalType": "uint256",
          "name": "rightChildCellId",
          "type": "uint256"
        },
        {
          "internalType": "uint256",
          "name": "cycleCount",
          "type": "uint256"
        },
        {
          "internalType": "uint256",
          "name": "levelWeight",
          "type": "uint256"
        },
        {
          "internalType": "uint256",
          "name": "claimablePrize",
          "type": "uint256"
        },
        {
          "internalType": "uint256",
          "name": "pendingPrize",
          "type": "uint256"
        }
      ],
      "stateMutability": "view",
      "type": "function"
    },
    {
      "inputs": [
        {
          "internalType": "address",
          "name": "",
          "type": "address"
        },
        {
          "internalType": "uint256",
          "name": "",
          "type": "uint256"
        }
      ],
      "name": "playerRounds",
      "outputs": [
        {
          "internalType": "bool",
          "name": "active",
          "type": "bool"
        },
        {
          "internalType": "bool",
          "name": "frozen",
          "type": "bool"
        },
        {
          "internalType": "uint8",
          "name": "level",
          "type": "uint8"
        },
        {
          "internalType": "uint256",
          "name": "tickets",
          "type": "uint256"
        },
        {
          "internalType": "uint256",
          "name": "cellId",
          "type": "uint256"
        },
        {
          "internalType": "uint256",
          "name": "parentCellId",
          "type": "uint256"
        },
        {
          "internalType": "uint256",
          "name": "leftChildCellId",
          "type": "uint256"
        },
        {
          "internalType": "uint256",
          "name": "rightChildCellId",
          "type": "uint256"
        },
        {
          "internalType": "uint256",
          "name": "cycleCount",
          "type": "uint256"
        },
        {
          "internalType": "uint256",
          "name": "totalWeight",
          "type": "uint256"
        },
        {
          "internalType": "uint256",
          "name": "claimablePrize",
          "type": "uint256"
        },
        {
          "internalType": "uint256",
          "name": "pendingPrize",
          "type": "uint256"
        },
        {
          "internalType": "uint256",
          "name": "claimablePrizeUsdc",
          "type": "uint256"
        },
        {
          "internalType": "uint256",
          "name": "pendingPrizeUsdc",
          "type": "uint256"
        }
      ],
      "stateMutability": "view",
      "type": "function"
    },
    {
      "inputs": [
        {
          "internalType": "address",
          "name": "",
          "type": "address"
        }
      ],
      "name": "players",
      "outputs": [
        {
          "internalType": "bool",
          "name": "exists",
          "type": "bool"
        },
        {
          "internalType": "address",
          "name": "wallet",
          "type": "address"
        },
        {
          "internalType": "address",
          "name": "inviter",
          "type": "address"
        },
        {
          "internalType": "address",
          "name": "secondLine",
          "type": "address"
        },
        {
          "internalType": "address",
          "name": "thirdLine",
          "type": "address"
        },
        {
          "internalType": "uint256",
          "name": "totalTickets",
          "type": "uint256"
        },
        {
          "internalType": "uint256",
          "name": "baseWeight",
          "type": "uint256"
        },
        {
          "internalType": "uint256",
          "name": "referralWeight",
          "type": "uint256"
        },
        {
          "internalType": "uint256",
          "name": "loyaltyWeight",
          "type": "uint256"
        },
        {
          "internalType": "uint256",
          "name": "matrixWeight",
          "type": "uint256"
        },
        {
          "internalType": "uint256",
          "name": "nftWeight",
          "type": "uint256"
        },
        {
          "internalType": "uint256",
          "name": "totalWeight",
          "type": "uint256"
        },
        {
          "internalType": "uint256",
          "name": "boxTokens",
          "type": "uint256"
        },
        {
          "internalType": "uint256",
          "name": "recycleCount",
          "type": "uint256"
        },
        {
          "internalType": "uint256",
          "name": "claimableReferralBonus",
          "type": "uint256"
        },
        {
          "internalType": "uint256",
          "name": "claimablePrize",
          "type": "uint256"
        },
        {
          "internalType": "uint256",
          "name": "pendingPrize",
          "type": "uint256"
        },
        {
          "internalType": "uint256",
          "name": "joinedAt",
          "type": "uint256"
        },
        {
          "internalType": "uint256",
          "name": "lastActiveAt",
          "type": "uint256"
        }
      ],
      "stateMutability": "view",
      "type": "function"
    },
    {
      "inputs": [
        {
          "internalType": "uint256",
          "name": "roundId",
          "type": "uint256"
        },
        {
          "internalType": "uint256",
          "name": "maxSteps",
          "type": "uint256"
        }
      ],
      "name": "processRoundRecycles",
      "outputs": [
        {
          "internalType": "uint256",
          "name": "processed",
          "type": "uint256"
        },
        {
          "internalType": "uint256",
          "name": "remaining",
          "type": "uint256"
        }
      ],
      "stateMutability": "nonpayable",
      "type": "function"
    },
    {
      "inputs": [],
      "name": "projectFeesAccrued",
      "outputs": [
        {
          "internalType": "uint256",
          "name": "",
          "type": "uint256"
        }
      ],
      "stateMutability": "view",
      "type": "function"
    },
    {
      "inputs": [],
      "name": "projectFeesAccruedUsdc",
      "outputs": [
        {
          "internalType": "uint256",
          "name": "",
          "type": "uint256"
        }
      ],
      "stateMutability": "view",
      "type": "function"
    },
    {
      "inputs": [],
      "name": "projectWallet",
      "outputs": [
        {
          "internalType": "address",
          "name": "",
          "type": "address"
        }
      ],
      "stateMutability": "view",
      "type": "function"
    },
    {
      "inputs": [
        {
          "internalType": "uint256",
          "name": "roundId",
          "type": "uint256"
        }
      ],
      "name": "releaseRoundPools",
      "outputs": [
        {
          "internalType": "uint256",
          "name": "ethAmount",
          "type": "uint256"
        },
        {
          "internalType": "uint256",
          "name": "usdcAmount",
          "type": "uint256"
        }
      ],
      "stateMutability": "nonpayable",
      "type": "function"
    },
    {
      "inputs": [
        {
          "internalType": "uint256",
          "name": "",
          "type": "uint256"
        }
      ],
      "name": "roundActiveCells",
      "outputs": [
        {
          "internalType": "uint256",
          "name": "",
          "type": "uint256"
        }
      ],
      "stateMutability": "view",
      "type": "function"
    },
    {
      "inputs": [],
      "name": "roundManager",
      "outputs": [
        {
          "internalType": "address",
          "name": "",
          "type": "address"
        }
      ],
      "stateMutability": "view",
      "type": "function"
    },
    {
      "inputs": [
        {
          "internalType": "uint256",
          "name": "",
          "type": "uint256"
        },
        {
          "internalType": "uint256",
          "name": "",
          "type": "uint256"
        }
      ],
      "name": "roundMatrixNodes",
      "outputs": [
        {
          "internalType": "uint256",
          "name": "cellId",
          "type": "uint256"
        },
        {
          "internalType": "address",
          "name": "player",
          "type": "address"
        },
        {
          "internalType": "uint8",
          "name": "level",
          "type": "uint8"
        },
        {
          "internalType": "uint256",
          "name": "parentCellId",
          "type": "uint256"
        },
        {
          "internalType": "uint256",
          "name": "leftChildCellId",
          "type": "uint256"
        },
        {
          "internalType": "uint256",
          "name": "rightChildCellId",
          "type": "uint256"
        },
        {
          "internalType": "bool",
          "name": "closed",
          "type": "bool"
        },
        {
          "internalType": "bool",
          "name": "prizeCell",
          "type": "bool"
        }
      ],
      "stateMutability": "view",
      "type": "function"
    },
    {
      "inputs": [
        {
          "internalType": "uint256",
          "name": "",
          "type": "uint256"
        }
      ],
      "name": "roundNextCellId",
      "outputs": [
        {
          "internalType": "uint256",
          "name": "",
          "type": "uint256"
        }
      ],
      "stateMutability": "view",
      "type": "function"
    },
    {
      "inputs": [
        {
          "internalType": "uint256",
          "name": "",
          "type": "uint256"
        }
      ],
      "name": "roundNextOpenParentCellId",
      "outputs": [
        {
          "internalType": "uint256",
          "name": "",
          "type": "uint256"
        }
      ],
      "stateMutability": "view",
      "type": "function"
    },
    {
      "inputs": [
        {
          "internalType": "uint256",
          "name": "",
          "type": "uint256"
        }
      ],
      "name": "roundPrizePools",
      "outputs": [
        {
          "internalType": "uint256",
          "name": "",
          "type": "uint256"
        }
      ],
      "stateMutability": "view",
      "type": "function"
    },
    {
      "inputs": [
        {
          "internalType": "uint256",
          "name": "",
          "type": "uint256"
        }
      ],
      "name": "roundPrizePoolsUsdc",
      "outputs": [
        {
          "internalType": "uint256",
          "name": "",
          "type": "uint256"
        }
      ],
      "stateMutability": "view",
      "type": "function"
    },
    {
      "inputs": [
        {
          "internalType": "uint256",
          "name": "",
          "type": "uint256"
        }
      ],
      "name": "roundTotalWeight",
      "outputs": [
        {
          "internalType": "uint256",
          "name": "",
          "type": "uint256"
        }
      ],
      "stateMutability": "view",
      "type": "function"
    },
    {
      "inputs": [
        {
          "internalType": "uint256",
          "name": "newPrice",
          "type": "uint256"
        }
      ],
      "name": "setAllLevelPrices",
      "outputs": [],
      "stateMutability": "nonpayable",
      "type": "function"
    },
    {
      "inputs": [
        {
          "internalType": "address",
          "name": "newGateway",
          "type": "address"
        }
      ],
      "name": "setBasePayGateway",
      "outputs": [],
      "stateMutability": "nonpayable",
      "type": "function"
    },
    {
      "inputs": [
        {
          "internalType": "bool",
          "name": "enabled",
          "type": "bool"
        }
      ],
      "name": "setLegacyActivationEnabled",
      "outputs": [],
      "stateMutability": "nonpayable",
      "type": "function"
    },
    {
      "inputs": [
        {
          "internalType": "uint8",
          "name": "level",
          "type": "uint8"
        },
        {
          "internalType": "bool",
          "name": "available",
          "type": "bool"
        }
      ],
      "name": "setLevelAvailable",
      "outputs": [],
      "stateMutability": "nonpayable",
      "type": "function"
    },
    {
      "inputs": [
        {
          "internalType": "uint8",
          "name": "level",
          "type": "uint8"
        },
        {
          "internalType": "uint256",
          "name": "newPrice",
          "type": "uint256"
        }
      ],
      "name": "setLevelPrice",
      "outputs": [],
      "stateMutability": "nonpayable",
      "type": "function"
    },
    {
      "inputs": [
        {
          "internalType": "uint8",
          "name": "level",
          "type": "uint8"
        },
        {
          "internalType": "uint256",
          "name": "newPrice",
          "type": "uint256"
        }
      ],
      "name": "setLevelPriceUSDC",
      "outputs": [],
      "stateMutability": "nonpayable",
      "type": "function"
    },
    {
      "inputs": [
        {
          "internalType": "address",
          "name": "newManager",
          "type": "address"
        }
      ],
      "name": "setRoundManager",
      "outputs": [],
      "stateMutability": "nonpayable",
      "type": "function"
    },
    {
      "inputs": [
        {
          "internalType": "address",
          "name": "newSettlement",
          "type": "address"
        }
      ],
      "name": "setSettlementContract",
      "outputs": [],
      "stateMutability": "nonpayable",
      "type": "function"
    },
    {
      "inputs": [
        {
          "internalType": "address",
          "name": "",
          "type": "address"
        }
      ],
      "name": "setUsdcToken",
      "outputs": [],
      "stateMutability": "view",
      "type": "function"
    },
    {
      "inputs": [
        {
          "internalType": "address",
          "name": "newProjectWallet",
          "type": "address"
        },
        {
          "internalType": "address",
          "name": "newTreasuryWallet",
          "type": "address"
        },
        {
          "internalType": "address",
          "name": "newOperatorWallet",
          "type": "address"
        }
      ],
      "name": "setWallets",
      "outputs": [],
      "stateMutability": "nonpayable",
      "type": "function"
    },
    {
      "inputs": [],
      "name": "settlementContract",
      "outputs": [
        {
          "internalType": "address",
          "name": "",
          "type": "address"
        }
      ],
      "stateMutability": "view",
      "type": "function"
    },
    {
      "inputs": [
        {
          "internalType": "uint8",
          "name": "",
          "type": "uint8"
        }
      ],
      "name": "totalWeightByLevel",
      "outputs": [
        {
          "internalType": "uint256",
          "name": "",
          "type": "uint256"
        }
      ],
      "stateMutability": "view",
      "type": "function"
    },
    {
      "inputs": [
        {
          "internalType": "address",
          "name": "newOwner",
          "type": "address"
        }
      ],
      "name": "transferOwnership",
      "outputs": [],
      "stateMutability": "nonpayable",
      "type": "function"
    },
    {
      "inputs": [],
      "name": "treasuryWallet",
      "outputs": [
        {
          "internalType": "address",
          "name": "",
          "type": "address"
        }
      ],
      "stateMutability": "view",
      "type": "function"
    },
    {
      "inputs": [],
      "name": "usdcToken",
      "outputs": [
        {
          "internalType": "contract IERC20Minimal",
          "name": "",
          "type": "address"
        }
      ],
      "stateMutability": "view",
      "type": "function"
    },
    {
      "inputs": [],
      "name": "withdrawProjectFees",
      "outputs": [],
      "stateMutability": "nonpayable",
      "type": "function"
    },
    {
      "inputs": [],
      "name": "withdrawProjectFeesUSDC",
      "outputs": [],
      "stateMutability": "nonpayable",
      "type": "function"
    }
  ],
  "bytecode": "0x6080346200039c57601f6200573038819003918201601f1916830191906001600160401b03831184841017620003a1578160a092859260409586528339810103126200039c576200005082620003b7565b60206200006060208501620003b7565b906200006e848601620003b7565b6200008a60806200008260608901620003b7565b9701620003b7565b6001602c819055946001600160a01b039081169485156200038b5781169283156200038b5781169788156200038b5781169182156200038b57169081156200037a57859760018060a01b031993600096338689541617885585895416178855846002541617600255836003541617600355826007541617600755600491600454161760045560ff60a01b1960065416600655838352600860205266b1a2bc2ec50000858420556002835266f8b0a10e470000858420556003835267016345785d8a000085842055600483526701f161421c8e000085842055600583526702c68af0bb14000085842055600683526703e2c284391c0000858420556007835267058d15e17628000085842055600883526707a1fe16027700008584205560098352670b1a2bc2ec50000085842055600a808452670f43fc2c04ee000086852055600b84526716345785d8a0000086852055600c8452671e87f85809dc000086852055600d8452672c68af0bb140000086852055600e8452673d0ff0b013b8000086852055600f8452675a34a38fc00a00008685205560108452676f05b59d3b200000868520556011926011855267a688906bd8b0000087862055858552600960205261c3508786205560028552620111708786205560038552620186a08786205560048552620222e0878620556005855262030d408786205560068552620445c0878620556007855262061a808786205560088552620864708786205560098552620c350087862055600a85526210c8e087862055600b855262186a0087862055600c8552622191c087862055600d85526230d40087862055600e85526243238087862055600f855262632ea08786205560108552627a1200878620556011855262b71b008786205585975b6200032a575b86516153639081620003cd8239f35b60ff881684811162000373578552818152868520805460ff19168717905560ff9788169788146200036057968501968562000315565b5050634e487b7160e01b83525260249150fd5b506200031b565b865163d92e233d60e01b8152600490fd5b875163d92e233d60e01b8152600490fd5b600080fd5b634e487b7160e01b600052604160045260246000fd5b51906001600160a01b03821682036200039c5756fe610100604052600436101561001357600080fd5b60003560e01c806303a65dfa14613f6b57806304eb273414613f375780630e475efd14613ed557806311eac85514613eac57806313306da214613e3457806319a0859414613e165780631a1478c314610d1b5780631d6a884b14613dfa5780631e375ab914613d3557806322fbfe8014613cc8578063249d39e914613cab57806324bdc3a714610511578063267281741461199c57806326e0cfe714613c3e5780632768a49f14613b5a57806328db6c74146135c65780632e50d906146135925780632f5ced041461053f578063306bf6bb146134ad578063308c61091461349057806331b161a7146104bb578063333fedad1461199c57806334601b8914612f965780633719fd0514612f1e57806337a8af5014612ef25780633945dbde14612ec95780633ac3684c14612e505780633d5efbae14612d895780633f896dd914612c3d57806340261fbb14612aad5780634626402b14612a845780634a57c6d9146129c95780634ca3696c1461293f5780634d69a4cd146129235780634f51f138146128a95780635042a91f1461288c57806350da23dc1461051157806351b7b69e1461286057806352ebb2271461282757806352f5c84e146127f357806354feadc9146127695780635c12cd4b146124ca5780635c602d9e146124025780635d886f22146123c15780636793c2cd1461234e5780636b09f5391461231457806372d686bf146122f757806375b7d7c11461229857806375cb1bd11461211d5780637a7c7a6a146120555780637a966fa21461201f5780637c58894d14611b9c5780637dcda2d414611b705780637f3255a814611b53578063852f829914611b3657806386b8f4a114611afc5780638b98440514611ad65780638c5b8ea514611aa25780638ce3d8c814611a795780638d2724f914611a455780638da5cb5b14611a1c5780638eb657c4146119a157806390f7c71a1461199c57806394cecff81461191a5780639b3728e8146104bb5780639fef6862146118fe578063a03d82ec1461171c578063a0978ac21461167f578063ab4847b414611539578063b146326a146110a7578063b70258be1461107b578063b75b688b14610ff2578063b93703ef14610fc6578063b9aee26314610f7c578063bea9903514610f2b578063beb08ab914610f02578063c05db4ce14610ece578063c236d48f14610ea2578063c2c0c9f514610e58578063c7fcb8c314610e1e578063c864ce5614610d20578063c8f17ce314610d1b578063c963ba1d14610ccb578063cdf46c4f14610c21578063ce9fffaa14610bed578063d2a1608014610b9a578063dbba054014610b66578063e26f7c4614610b48578063e2eb41ff146109dc578063e78a6451146107f9578063e8a8bd5c146107c5578063e9212a0f146107a9578063ea42418b14610780578063ed270c16146106f0578063edfae88314610609578063f178fb1b146105ed578063f2fde38b14610544578063f6d5f69a1461053f578063f90ef4ac14610516578063f933513914610511578063f935c2d6146104c0578063f943cbc6146104bb5763fa267c471461048a57600080fd5b346104b65760203660031901126104b657600435600052601a6020526020604060002054604051908152f35b600080fd5b6140cf565b346104b65760403660031901126104b6576104d9613fc8565b6104e1613fde565b9060018060a01b0316600052602660205260ff604060002091166000526020526020604060002054604051908152f35b61404d565b346104b65760003660031901126104b6576003546040516001600160a01b039091168152602090f35b6140b3565b346104b65760203660031901126104b65761055d613fc8565b600054906001600160a01b03808316916105783384146141db565b169182156105b7576001600160a01b031916821760009081557f8be0079c531659141344cd1fd0a4f28419497f9722a3daafe3b4186f6b6457e09080a3005b60405162461bcd60e51b815260206004820152600e60248201526d13dddb995c881c995c5d5a5c995960921b6044820152606490fd5b346104b65760003660031901126104b6576020604051600a8152f35b346104b65760003660031901126104b6576106286001602c5414614214565b6002602c5533600052602360205260406000205480156106b2576007546001600160a01b039061065b9082161515614334565b3360005260236020526000604081205561067a82338360075416614686565b60075416906040519081527f6212d3b8329f12cd207169548d7570de1a41c72473a7313c176c13641c39aab760203392a36001602c55005b60405162461bcd60e51b81526020600482015260166024820152754e6f205553444320726566657272616c20626f6e757360501b6044820152606490fd5b346104b65760403660031901126104b657610709613fee565b602435908115158092036104b657602060ff7fdd552374405792741cb7e6993ca7e6dd5400b9e45e80ca256ac09db4009c89379261075260018060a01b036000541633146141db565b61075b816148c4565b169283600052600a8252604060002060ff1981541660ff8316179055604051908152a2005b346104b65760003660031901126104b6576005546040516001600160a01b039091168152602090f35b346104b65760003660031901126104b657602060405160048152f35b346104b65760203660031901126104b65760ff6107e0613fee565b1660005260126020526020604060002054604051908152f35b346104b65760403660031901126104b657610812613fc8565b60006101a0604051610823816142bb565b8281528260208201528260408201528260608201528260808201528260a08201528260c08201528260e08201528261010082015282610120820152826101408201528261016082015282610180820152015260018060a01b0316600052601560205260406000206024356000526020526101c060406000206101a06040516108aa816142bb565b600b83549360ff85161515835260ff8560081c161515602084015260ff8560101c1660408401526001810154606084015260028101546080840152600381015460a0840152600481015460c0840152600581015460e08401526006810154610100840152600781015461012084015260088101546101408401526009810154610160840152600a81015461018084015201548282015260ff60405193161515835260208101511515602084015260ff6040820151166040840152606081015160608401526080810151608084015260a081015160a084015260c081015160c084015260e081015160e084015261010081015161010084015261012081015161012084015261014081015161014084015261016081015161016084015261018081015161018084015201516101a0820152f35b346104b65760203660031901126104b6576001600160a01b036109fd613fc8565b16600052600c602052604060002080808080808080808080808080806011600f600e600d600c600b600a6009600860076006600560048d549d60018060a01b0360018201541660e052600260018060a01b03910154169e600360018060a01b03910154169f01549f01549f01549f01549f01549f01549f01549f01549f01549f01549f01549f01549f6010810154608052015460c05260405160a05260ff8116151560a0515260018060a01b039060081c16602060a051015260e051604060a0510152606060a0510152608060a051015260a08051015260c060a051015260e060a051015261010060a051015261012060a051015261014060a051015261016060a051015261018060a05101526101a060a05101526101c060a05101526101e060a051015261020060a051015260805161022060a051015260c05161024060a051015261026060a051f35b346104b65760003660031901126104b6576020602254604051908152f35b346104b65760203660031901126104b65760ff610b81613fee565b1660005260146020526020604060002054604051908152f35b346104b65760403660031901126104b65760c0610bc6610bb8613fc8565b610bc0613fde565b90614508565b936040939193519586526020860152604085015260608401526080830152151560a0820152f35b346104b65760203660031901126104b65760ff610c08613fee565b16600052600f6020526020604060002054604051908152f35b346104b6576020806003193601126104b65760043590610c4c60018060a01b036000541633146141db565b610c57821515614480565b6001918291825b610c6457005b60ff831660118111610cc95780600052600882526000805160206152ae833981519152604080600020858154915581519081528585820152a260ff809316928314610cb3578380930192610c5e565b634e487b7160e01b600052601160045260246000fd5b005b346104b65760203660031901126104b65760ff610ce6613fee565b610cef816148c4565b16600052602b6020526020610d13604060002054602a8352604060002054906143ba565b604051908152f35b61400c565b346104b6576020806003193601126104b657610d3a613fee565b90610d496001602c5414614214565b6002602c55610d57826148c4565b33600052600d815260ff604060002092169182600052815260086040600020610d8660ff8254841c161561437c565b01908154918215610dee579060007fe478efad2d93638c429f97678f2517efcafee26463eaf608c398b94a2510eab5925533600052600c8152600e604060002001610dd28482546143ba565b9055610dde83336145a9565b6040519283523392a36001602c55005b60405162461bcd60e51b81526004810183905260086024820152674e6f207072697a6560c01b6044820152606490fd5b346104b65760203660031901126104b6576001600160a01b03610e3f613fc8565b1660005260236020526020604060002054604051908152f35b346104b65760203660031901126104b657600435600052601f6020526040600020546020805260406000205490610e9e610e9282846143ba565b6040519384938461413e565b0390f35b346104b65760203660031901126104b65760043560005260176020526020604060002054604051908152f35b346104b65760203660031901126104b65760ff610ee9613fee565b16600052600b6020526020604060002054604051908152f35b346104b65760003660031901126104b6576001546040516001600160a01b039091168152602090f35b346104b65760403660031901126104b657610f44613fc8565b610f4c613fde565b9060018060a01b0316600052602760205260ff604060002091166000526020526020604060002054604051908152f35b346104b65760203660031901126104b65760ff610f97613fee565b610fa0816148c4565b166000526014602052604080600020546010602052816000205482519182526020820152f35b346104b65760203660031901126104b65760043560005260196020526020604060002054604051908152f35b346104b65760403660031901126104b65761100b613fee565b60249061101a602435916148c4565b6007905b8082111561103157602082604051908152f35b906001808201809211611066571b6000198101908111611051579061101e565b82634e487b7160e01b60005260116004526000fd5b83634e487b7160e01b60005260116004526000fd5b346104b65760203660031901126104b65760043560005260186020526020604060002054604051908152f35b346104b6576110b536614154565b6110c36001602c5414614214565b6002602c558015801561152f575b6115105760048054604051636fd0763b60e11b81529182018490526001600160a01b031690602081602481855afa90811561145f576000916114e1575b50600881101590816114bd57600281149182156114d3575b82156114ac575b50501561146b57604051809163cba0b84160e01b82528460048301528160246101c09485935afa91821561145f5760009261134c575b5050604060ff9101511690600083600052601f60205260406000205491602080526040600020545b831080611343575b156112d457846000526111f4601e928360205260406000208560005260205260018060a01b0360406000205416938760005260205260406000206111d686614739565b95600052602052604060002060018060a01b03198154169055614739565b9180600052601560205260406000208660005260205260406000209060ff82541661122f575b5050846000526020805260406000205461118b565b600682015460018101809111610cb357600683015580600052600c602052600c6040600020018054600181018111610cb357600101905580600052600c602052600b6040600020018054600181018111610cb35788936000805160206152ee8339815191529260016040930190556112a78585614d90565b6112b18585614df4565b60066112be858b886149e3565b9101549082519182526020820152a3858061121a565b508360409281600052601f6020528360002055602080526113038360002054601f6020528460002054906143ba565b907f0b273906422b7b2a8769cc17c72a6270f3ac34095be5d3735eb91c7922fa40a1848051858152846020820152a26001602c5582519182526020820152f35b50808210611193565b90809250813d8311611458575b61136381836142d7565b810103126104b657604051611377816142bb565b8151815260208201516020820152604082015160ff811681036104b65760408201526113a5606083016144e5565b60608201526113b6608083016144e5565b60808201526113c760a083016144e5565b60a08201526113d860c083016144e5565b60c082015260e08201519063ffffffff821682036104b65760ff9260409260e08301526101006114098183016144f9565b9083015261012080820151908301526101408082015190830152610160808201519083015261018061143c8183016144f9565b9083015261144e6101a08092016144f9565b9082015291611163565b503d611359565b6040513d6000823e3d90fd5b60405162461bcd60e51b8152602060048201526019602482015278526f756e642072656379636c6520756e617661696c61626c6560381b6044820152606490fd5b9091506114bd57600414848061112d565b634e487b7160e01b600052602160045260246000fd5b506003811491506000611126565b611503915060203d602011611509575b6114fb81836142d7565b8101906144c0565b8461110e565b503d6114f1565b60449060405190631084348b60e31b8252600482015260406024820152fd5b50604081116110d1565b346104b65761154736614154565b906115506143c7565b5081158015611667575b61164a576000526016602052604060002090600052602052610e9e604060002060ff60056040519261158b84614283565b8054845282600182015460018060a01b038116602087015260a01c1660408501526002810154606085015260038101546080850152600481015460a08501520154818116151560c084015260081c16151560e08201526040519182918291909160e0806101008301948051845260018060a01b03602082015116602085015260ff6040820151166040850152606081015160608501526080810151608085015260a081015160a085015260c0810151151560c085015201511515910152565b60449160405191631f06e1dd60e31b835260048301526024820152fd5b5080600052601760205260406000205482101561155a565b346104b65760403660031901126104b657611698613fc8565b6116a0613fde565b906116aa826148c4565b60018060a01b0316600052600d60205260ff6040600020911660005260205260a060406000208054906006810154906116f260028201549160096008820154910154906144d8565b9160ff604051948181161515865260081c1615156020850152604084015260608301526080820152f35b346104b6576020806003193601126104b65760043561173f6001602c5414614214565b6002602c556005546001600160a01b0390811633036118c757602483826004541660405192838092636fd0763b60e11b82528760048301525afa90811561145f576000916118aa575b5060088110156114bd5760040361187057816000528280526117b9604060002054601f8552604060002054906143ba565b9283611852576040935082600052601b8152836000205492601c8252846000205492601b8352600086812055601c83526000868120556117fd8582600554166145a9565b611811848260075416836005541690614686565b60055416907ff5dce8d14677f13040c40d084c873acb3bb2ff01d06a60cf69b3e81fcc1e35eb8680518781528686820152a36001602c558351928352820152f35b60448385604051916304ef50cb60e41b835260048301526024820152fd5b60405162461bcd60e51b8152600481018490526012602482015271526f756e64206973206e6f7420726561647960701b6044820152606490fd5b6118c19150843d8611611509576114fb81836142d7565b84611788565b60405162461bcd60e51b815260048101849052600f60248201526e13db9b1e481cd95d1d1b195b595b9d608a1b6044820152606490fd5b346104b65760003660031901126104b657602060405160198152f35b346104b65760403660031901126104b65760ff611935613fee565b16600052600e60205260406000206024356000526020526040600020805490610e9e600182015491600281015493600382015491600560048201549101549260405196879660ff808760081c1696169460ff8260a01c169160018060a01b0316908961416a565b61406a565b346104b65760403660031901126104b6576119ba613fee565b6000805160206152ae833981519152604060ff602435936119e660018060a01b036000541633146141db565b6119ef816148c4565b6119fa851515614480565b16928360005260086020528160002090808254925582519182526020820152a2005b346104b65760003660031901126104b6576000546040516001600160a01b039091168152602090f35b346104b65760203660031901126104b65760ff611a60613fee565b1660005260136020526020604060002054604051908152f35b346104b65760003660031901126104b6576006546040516001600160a01b039091168152602090f35b346104b65760203660031901126104b65760ff611abd613fee565b1660005260116020526020604060002054604051908152f35b346104b65760003660031901126104b657602060ff60065460a01c166040519015158152f35b346104b65760203660031901126104b6576001600160a01b03611b1d613fc8565b1660005260256020526020604060002054604051908152f35b346104b65760003660031901126104b65760206040516102588152f35b346104b65760003660031901126104b65760206040516101908152f35b346104b65760403660031901126104b6576020610d13611b8e613fc8565b611b96613fde565b90614405565b611ba5366140ec565b90600193611bb685602c5414614214565b6002602c5561014081013591823414801590612017575b6120055760018060a01b039283600454169160405195637db1594f60e01b87528435600488015260209687860135986024968a888401526040810196611c1288613ffe565b9560ff8097166044860152611c2960608401614655565b6001600160401b03908116606487015280611c4660808601614655565b16608487015280611c5960a08601614655565b1660a4870152611c6b60c08501614655565b1660c486015260e083013563ffffffff81168091036104b6578c94868095938b611cee6101a0849760009760e4870152611ca86101008201614669565b9361ffff80951661010488015261012082013561012488015261014487015261016081013561016487015283611ce16101808301614669565b1661018487015201614669565b166101a48301526102006101c4830152806102048301528061022493848401378181018301849052336101e4830152601f01601f191681010301925af190811561145f578891611fdc575b505081611d4585614678565b16600052600a8752816040600020541615611fbb5733600052600c8752611d7260406000209133836148fb565b3360005260158752604060002088600052875260406000208054838116611f9d578a9182809262ff0000611da58a614678565b60101b169062ff00ff1916171781550155600481018054908a8201809211611f88575542601190910155869190611e0b611de833611de287614678565b866149e3565b94611df38533614c97565b611e05611dff82614678565b86614748565b50614678565b1692604051918252868201526000604082015260008051602061530e83398151915260603392a4611d7e908134029334159234860414831715611f7357612710809504946103b6803402903482041485171561106657819004936102588034029034820414821715611f5e57829004936101909182340292348404141715611f4a5750049290611f0384611eac81611ea7878188818e346143ba565b6143ba565b9689600052601b84526040600020611ec58a82546144d8565b905533600052600c845260038b611ee8878d856040600020948501541690614ff9565b611efa888d85600285015416906150b9565b0154168961515f565b611f0f856021546144d8565b602155604051958652850152604084015260608301526080820152600060a08201526000805160206152ce83398151915260c03392a3602c55005b634e487b7160e01b60009081526011600452fd5b84634e487b7160e01b60005260116004526000fd5b50634e487b7160e01b60009081526011600452fd5b86634e487b7160e01b60005260116004526000fd5b60405163c45f473d60e01b8152600481018b90523381890152604490fd5b8482611fc686614678565b604051634a525d1b60e01b815291166004820152fd5b813d8311611ffe575b611fef81836142d7565b810103126104b657868a611d39565b503d611fe5565b6040516335f3c2a160e21b8152600490fd5b508215611bcd565b346104b65760203660031901126104b657600435600052601f602052602060406000205481805260406000205411604051908152f35b346104b65760003660031901126104b6576000546001600160a01b039061207f90821633146141db565b61208d6001602c5414614214565b6002602c556021549081156120e65760207f95334f2d4e98187a454807e6ec3da804af4da5c99357a7398e2cf2505ac882189160006021556120d38482600154166145a9565b6001541692604051908152a26001602c55005b60405162461bcd60e51b815260206004820152600f60248201526e4e6f2070726f6a656374206665657360881b6044820152606490fd5b346104b65760603660031901126104b657612136613fc8565b6024356001600160a01b03818116918290036104b657604435928184168094036104b657612169826000541633146141db565b1680156122595781156122195782156121d957826060927fd2d452a5df03f60ff9bf0ef1fc3498af992b0b6165c03b2f792cf596ee96530a9460018060a01b03198481600154161760015582816002541617600255600354161760035560405192835260208301526040820152a1005b60405162461bcd60e51b815260206004820152601860248201527713dc195c985d1bdc881dd85b1b195d081c995c5d5a5c995960421b6044820152606490fd5b60405162461bcd60e51b8152602060048201526018602482015277151c99585cdd5c9e481dd85b1b195d081c995c5d5a5c995960421b6044820152606490fd5b60405162461bcd60e51b8152602060048201526017602482015276141c9bda9958dd081dd85b1b195d081c995c5d5a5c9959604a1b6044820152606490fd5b346104b65760403660031901126104b6576122b1613fc8565b6122b9613fde565b906122c3826148c4565b60018060a01b0316600052600d60205260ff60406000209116600052602052602060ff604060002054166040519015158152f35b346104b65760003660031901126104b6576020604051611d7e8152f35b346104b65760203660031901126104b6576001600160a01b03612335613fc8565b1660005260246020526020604060002054604051908152f35b346104b65761235c36614154565b9060005260166020526040600020906000526020526040600020805490610e9e600182015491600281015493600382015491600560048201549101549260405196879660ff808760081c1696169460ff8260a01c169160018060a01b0316908961416a565b346104b65760203660031901126104b6576123da613fc8565b506123f060018060a01b036000541633146141db565b60405163c4f64db560e01b8152600490fd5b346104b65760403660031901126104b65761241b613fc8565b612423613fde565b9060018060a01b0316600052600d60205260ff604060002091166000526020526101606040600020805490600181015490600281015460038201546004830154600584015490600685015492600786015494600960088801549701549760ff6040519a81811615158c5260081c16151560208b015260408a01526060890152608088015260a087015260c086015260e0850152610100840152610120830152610140820152f35b346104b65760203660031901126104b6576124e3613fc8565b60006102406040516124f48161429f565b8281528260208201528260408201528260608201528260808201528260a08201528260c08201528260e08201528261010082015282610120820152826101408201528261016082015282610180820152826101a0820152826101c0820152826101e08201528261020082015282610220820152015260018060a01b0316600052600c60205261026060406000206102406040516125908161429f565b601183549360ff85161515835260018060a01b038560081c16602084015260018060a01b03600182015416604084015260018060a01b03600282015416606084015260018060a01b036003820154166080840152600481015460a0840152600581015460c0840152600681015460e0840152600781015461010084015260088101546101208401526009810154610140840152600a810154610160840152600b810154610180840152600c8101546101a0840152600d8101546101c0840152600e8101546101e0840152600f810154610200840152601081015461022084015201548282015260ff60405193161515835260018060a01b03602082015116602084015260018060a01b03604082015116604084015260018060a01b03606082015116606084015260018060a01b03608082015116608084015260a081015160a084015260c081015160c084015260e081015160e08401526101008101516101008401526101208101516101208401526101408101516101408401526101608101516101608401526101808101516101808401526101a08101516101a08401526101c08101516101c08401526101e08101516101e08401526102008101516102008401526102208101516102208401520151610240820152f35b346104b65760203660031901126104b657612782613fc8565b6000546001600160a01b0391829161279d90831633146141db565b169081156127e157600680546001600160a01b031981168417909155167ffc16b6f7bdf55fb5a2a42edf5c9522543886143cef3f5580a1b008dbfa4a231f600080a3005b60405163d92e233d60e01b8152600490fd5b346104b65760203660031901126104b65760ff61280e613fee565b1660005260106020526020604060002054604051908152f35b346104b65760203660031901126104b65760ff612842613fee565b16600052600a602052602060ff604060002054166040519015158152f35b346104b65760203660031901126104b657600435600052601b6020526020604060002054604051908152f35b346104b65760003660031901126104b65760206040516113888152f35b346104b6576020806003193601126104b65760c090600435600052601b815260406000205490601c8152604060002054601a825260406000205460198352604060002054906017845260406000205492601885526040600020549460405196875286015260408501526060840152608083015260a0820152f35b346104b65760003660031901126104b657602060405160148152f35b346104b65760403660031901126104b657612958613fc8565b612960613fde565b9061296a826148c4565b60018060a01b03169081600052602360205260406000205490602660205260ff604060002091169081600052602052604060002054926000526027602052604060002090600052602052610e9e6040600020546040519384938461413e565b346104b65760403660031901126104b6576129e2613fee565b602435906129ee6143c7565b506129f8816148c4565b81151580612a6a575b15612a365760ff16600052600e602052604060002090600052602052610e9e604060002060ff60056040519261158b84614283565b60405162461bcd60e51b815260206004820152600c60248201526b125b9d985b1a590818d95b1b60a21b6044820152606490fd5b5060ff8116600052600f6020526040600020548210612a01565b346104b65760003660031901126104b6576002546040516001600160a01b039091168152602090f35b346104b65760403660031901126104b657610160612ac9613fc8565b6000612ad3613fde565b60405190612ae082614251565b8282528260208301528260408301528260608301528260808301528260a08301528260c08301528260e0830152610100908382840152610120948486850152610140948580950152612b31826148c4565b60018060a01b0316600052600d60205260ff6040600020911660005260205260406000209360405191612b6383614251565b600986549660ff88161515855260ff8860081c1615156020860152600181015460408601526002810154606086015260038101546080860152600481015460a0860152600581015460c0860152600681015460e086015260078101548386015260088101548486015201548484015260ff60405196161515865260208301511515602087015260408301516040870152606083015160608701526080830151608087015260a083015160a087015260c083015160c087015260e083015160e087015280830151908601528082015190850152015190820152f35b346104b6576020806003193601126104b657612c57613fee565b90612c666001602c5414614214565b6002602c55612c74826148c4565b6007546001600160a01b0390612c8d9082161515614334565b33600052600d825260ff6040600020931692836000528252612cba60ff60406000205460081c161561437c565b33600052602682526040600020836000528252604060002054908115612d54577fcb5b06c056856bb82784094d6a04f2cdd54a8ca5035447b87427f46c8d09813190336000526026845260406000208560005284526000604081205533600052602484526040600020612d2e8482546143ba565b9055612d3f83338360075416614686565b60075416926040519283523392a46001602c55005b60405162461bcd60e51b815260048101849052600d60248201526c4e6f2055534443207072697a6560981b6044820152606490fd5b346104b65760403660031901126104b657612da2613fee565b60243590612dbb60018060a01b036000541633146141db565b612dc4816148c4565b8115612e1257604060ff7f3b7a8420bcf2581fac422a359ff730b951e902c11f27da90a7e97da9c068f9a69216928360005260096020528160002090808254925582519182526020820152a2005b60405162461bcd60e51b81526020600482015260166024820152751554d110c81c1c9a58d9481a5cc81c995c5d5a5c995960521b6044820152606490fd5b346104b65760203660031901126104b6576004358015158091036104b65760207f59eee9122213289e523d1060fc23bf301e7d369abcb2a33ebf3496c81c614f9b91612ea760018060a01b036000541633146141db565b6006805460ff60a01b191660a083901b60ff60a01b16179055604051908152a1005b346104b65760003660031901126104b6576004546040516001600160a01b039091168152602090f35b346104b65760203660031901126104b657600435600052601c6020526020604060002054604051908152f35b346104b65760203660031901126104b657612f37613fc8565b6000546001600160a01b03918291612f5290831633146141db565b169081156127e157600580546001600160a01b031981168417909155167fae0b527aec7be2a921fb601477f42ce68cfc9122d8c176909c55cd756e30dfd8600080a3005b346104b657612fa4366140ec565b9091612fb46001602c5414614214565b6002602c556101608401351561347e576007546040516323b872dd60e01b81526001600160a01b0394916020908290871681600081612ffd6101608d0135303360048501614312565b03925af190811561145f5760009161344f575b501561343d5783600454169160405192637db1594f60e01b8452863560048501526020870135602485015260ff61304960408901613ffe565b16604485015261305b60608801614655565b6001600160401b0390811660648601528061307860808a01614655565b1660848601528061308b60a08a01614655565b1660a486015261309d60c08901614655565b1660c485015260e087013563ffffffff811681036104b657600085938460209663ffffffff82951660e48301528b61311d6101a06130de6101008401614669565b9261ffff80941661010487015261012081013561012487015261014081013561014487015261016081013561016487015283611ce16101808301614669565b166101a48301526102006101c4830152806102048301528061022493848401378181018301849052336101e4830152601f01601f191681010301925af1801561145f57613412575b5060ff61317460408501614678565b16600052600a60205260ff60406000205416156133ec5733600052600c6020526131a460406000209133836148fb565b336000526015602052604060002060208401356000526020526040600020805460ff81166133ca5760019182809262ff00006131e260408a01614678565b60101b169062ff00ff19161717815501556004810180549060018201809211610cb357556011429101556132263361321c60408501614678565b60208501356149e3565b613234602084013533614c97565b61324d61324360408501614678565b6020850135614748565b5060ff61325c60408501614678565b169060405190610160850135825260208201526001604082015260208401359060008051602061530e83398151915260603392a4610160820135611d7e81029190611d7d1990830401610cb35761271091829004916101608401356103b68102906103b51990820401610cb357819004936101608101356102588102906102571990820401610cb3578290049161019093846101608401350294610160840135860403610cb35785846133a061016061333e87611ea760209a611ea78f611ea76000805160206152ce8339815191529f9c6133c09d049a8b98899701356143ba565b9488880135600052601c8952604060002061335a8c82546144d8565b905533600052600c895260038c613380604060002091846001840154168d8d0135614f84565b61339486846002840154168d8d0135615064565b0154168888013561510a565b6133ac836022546144d8565b6022556040519586950135983398866141b0565b0390a36001602c55005b60405163c45f473d60e01b815260208601356004820152336024820152604490fd5b60246133fa60408501614678565b60ff60405191634a525d1b60e01b8352166004820152fd5b602090813d8311613436575b61342881836142d7565b810103126104b65783613165565b503d61341e565b60405163022e258160e11b8152600490fd5b613471915060203d602011613477575b61346981836142d7565b8101906142fa565b86613010565b503d61345f565b6040516304c1050d60e01b8152600490fd5b346104b65760003660031901126104b65760206040516103b68152f35b346104b65760003660031901126104b6576000546001600160a01b03906134d790821633146141db565b6134e56001602c5414614214565b6002602c558060075416906134fb821515614334565b602254918215613556578261351a916000602255836001541690614686565b7f6f09a29fa95e6ca2c4c5b55c121d7269faf4d531e64e23d432f03e95bb6caa4760208260075416926001541693604051908152a36001602c55005b60405162461bcd60e51b81526020600482015260146024820152734e6f20555344432070726f6a656374206665657360601b6044820152606490fd5b346104b65760203660031901126104b65760ff6135ad613fee565b1660005260086020526020604060002054604051908152f35b346104b657366003190161022081126104b6576101c0136104b6576101c4356001600160401b0381116104b657613601903690600401614086565b906101e4356001600160a01b03811690036104b657610204356001600160a01b03811690036104b6576136386001602c5414614214565b6002602c556006546001600160a01b03163303613b1d576101e4356001600160a01b0316156127e157610164351561347e576007546040516323b872dd60e01b81529060209082906001600160a01b03168160008161369f61016435303360048501614312565b03925af190811561145f57600091613afe575b501561343d5760018060a01b03600454169160405192637db1594f60e01b84526004356004850152602435602485015260ff60443516604435036104b6576044803560ff16908501526001600160401b03606435908116908190036104b65760648501526084356001600160401b038116908190036104b657608485015260a4356001600160401b038116908190036104b65760a485015260c4356001600160401b038116908190036104b65760c485015260e43563ffffffff81168091036104b65760e485015261010491823561ffff938482168092036104b657860152610124803590860152610144803590860152610164356101648601526101848035908482168092036104b6578601526101a49283359081168091036104b6576020948680959360009382958301526102006101c48301528061020483015280610224938484013781810183018490526101e480356001600160a01b031690830152601f01601f191681010301925af1801561145f57613ad3575b5060ff60443516600052600a60205260ff6040600020541615613ab65760018060a01b036101e43516600052600c6020526040600020613872610204356101e435836148fb565b60018060a01b036101e43516600052601560205260406000206024356000526020526040600020805460ff8116613a8a5760019182809262ff000060443560101b169062ff00ff19161717815501556004810180549060018201809211610cb357556011429101556138ec6101e4356044356024356149e3565b6138fb6024356101e435614c97565b613909604435602435614748565b506040519061016435825260208201526001604082015260ff60443516906024359060008051602061530e833981519152606060018060a01b036101e4351692a4611d7e8061016435029061016435820403610cb3576127108091046103b68061016435029061016435820403610cb357829004916102588061016435029061016435820403610cb357819004610190918261016435029261016435840403610cb3576000805160206152ce8339815191529204906133c06139da83611ea784611ea78a611ea78b610164356143ba565b602435600052601c60205260406000206139f58782546144d8565b905560018060a01b036101e43516600052600c602052613a5e846040600020613a2d8a60018060a01b03600184015416602435614f84565b6002810154613a499087906001600160a01b0316602435615064565b600301546001600160a01b031660243561510a565b613a6a816022546144d8565b6022556040519384936024359860018060a01b036101e4351698866141b0565b60405163c45f473d60e01b81526024803560048301526101e4356001600160a01b031690820152604490fd5b604051634a525d1b60e01b815260443560ff166004820152602490fd5b602090813d8311613af7575b613ae981836142d7565b810103126104b6578061382b565b503d613adf565b613b17915060203d6020116134775761346981836142d7565b836136b2565b60405162461bcd60e51b81526020600482015260156024820152744f6e6c79204261736520506179206761746577617960581b6044820152606490fd5b346104b65760403660031901126104b6576001600160a01b03613b7b613fc8565b16600052601560205260406000206024356000526020526101c060406000208054906001810154906002810154600382015460048301546005840154600685015490600786015492600887015494600988015496600b600a8a01549901549960ff6040519c8d828216151590528d6020838360081c16151591015260101c1660408d015260608c015260808b015260a08a015260c089015260e08801526101008701526101208601526101408501526101608401526101808301526101a0820152f35b346104b6576020806003193601126104b65760ff613c5a613fee565b613c63816148c4565b166000526012815260406000205460138252610e9e60406000205492601481526040600020549060108152600f60406000205491526040600020549160405195869586614029565b346104b65760003660031901126104b65760206040516127108152f35b346104b6576020806003193601126104b65760ff613ce4613fee565b613ced816148c4565b166000526011815260406000205460138252610e9e60406000205492601481526040600020549060108152600f60406000205491526040600020549160405195869586614029565b346104b65760003660031901126104b657613d546001602c5414614214565b6002602c5533600052600c602052600d604060002001548015613dc15733600052600c6020526000600d604082200155613d8e81336145a9565b6040519081527f53473e2a2e0cc6840d80567f104277ea6daa0891e5316836bac38a686b79ea3360203392a26001602c55005b60405162461bcd60e51b81526020600482015260116024820152704e6f20726566657272616c20626f6e757360781b6044820152606490fd5b346104b65760003660031901126104b657602060405160118152f35b346104b65760003660031901126104b6576020602154604051908152f35b346104b65760203660031901126104b657613e4d613fc8565b6000546001600160a01b03918291613e6890831633146141db565b169081156127e157600480546001600160a01b031981168417909155167f57b8ff42eaa81bfce68c6ad04d5bf2c7ebca554a63b0ece2bb301a0b2eff716d600080a3005b346104b65760003660031901126104b6576007546040516001600160a01b039091168152602090f35b346104b65760403660031901126104b657613eee613fc8565b613ef6613fde565b90613f00826148c4565b60018060a01b0316600052600d60205260ff60406000209116600052602052602060ff60406000205460081c166040519015158152f35b346104b65760203660031901126104b65760ff613f52613fee565b1660005260096020526020604060002054604051908152f35b346104b65760403660031901126104b657613f84613fc8565b613f8c613fde565b90613f96826148c4565b60018060a01b0316600052600d60205260ff604060002091166000526020526020600760406000200154604051908152f35b600435906001600160a01b03821682036104b657565b6024359060ff821682036104b657565b6004359060ff821682036104b657565b359060ff821682036104b657565b346104b65760003660031901126104b65760206040516107d08152f35b9192608093969594919660a084019784526020840152604083015260608201520152565b346104b65760003660031901126104b65760206040516101f48152f35b346104b65760003660031901126104b657602060405160648152f35b9181601f840112156104b6578235916001600160401b0383116104b657602083818601950101116104b657565b346104b65760003660031901126104b657602060405160328152f35b346104b65760003660031901126104b65760206040516103e88152f35b90600319820161020081126104b6576101c0136104b6576004916101c435906001600160401b0382116104b65761412591600401614086565b90916101e4356001600160a01b03811681036104b65790565b6040919493926060820195825260208201520152565b60409060031901126104b6576004359060243590565b9693909897949160e0969360ff916101008a019b8a5260018060a01b031660208a01521660408801526060870152608086015260a0850152151560c08401521515910152565b919360a0936001959796929760c0850198855260208501526040840152606083015260808201520152565b156141e257565b60405162461bcd60e51b815260206004820152600a60248201526927b7363c9037bbb732b960b11b6044820152606490fd5b1561421b57565b60405162461bcd60e51b815260206004820152600e60248201526d1499595b9d1c985b9d0818d85b1b60921b6044820152606490fd5b61016081019081106001600160401b0382111761426d57604052565b634e487b7160e01b600052604160045260246000fd5b61010081019081106001600160401b0382111761426d57604052565b61026081019081106001600160401b0382111761426d57604052565b6101c081019081106001600160401b0382111761426d57604052565b601f909101601f19168101906001600160401b0382119082101761426d57604052565b908160209103126104b6575180151581036104b65790565b6001600160a01b03918216815291166020820152604081019190915260600190565b1561433b57565b60405162461bcd60e51b81526020600482015260196024820152781554d110c81d1bdad95b881b9bdd0818dbdb999a59dd5c9959603a1b6044820152606490fd5b1561438357565b60405162461bcd60e51b815260206004820152600f60248201526e2632bb32b61034b990333937bd32b760891b6044820152606490fd5b91908203918211610cb357565b604051906143d482614283565b8160e06000918281528260208201528260408201528260608201528260808201528260a08201528260c08201520152565b9060ff90614412816148c4565b16600090808252601360205260408220549283156144795760018060a01b03168252600d602052604082209082526020526007604082200154906127109182810292818404149015171561446557500490565b634e487b7160e01b81526011600452602490fd5b5050905090565b1561448757565b60405162461bcd60e51b8152602060048201526011602482015270141c9a58d9481a5cc81c995c5d5a5c9959607a1b6044820152606490fd5b908160209103126104b6575160088110156104b65790565b91908201809211610cb357565b51906001600160401b03821682036104b657565b519061ffff821682036104b657565b9190614513816148c4565b60009260018060a01b03168352600d60205260ff6040842091168352602052600260408320015491821561459c57600e602052604081208382526020526040812080546002820154946003830154916004840154915b600180821115614584571c9461457e90614739565b94614569565b50509194909392600560ff9101541691959493929190565b8092509180918180918190565b811561465157600080808094819460018060a01b03165af1903d1561464b573d906001600160401b03821161463757604051916145f0601f8201601f1916602001846142d7565b825260203d92013e5b1561460057565b60405162461bcd60e51b815260206004820152600f60248201526e151c985b9cd9995c8819985a5b1959608a1b6044820152606490fd5b634e487b7160e01b81526041600452602490fd5b506145f9565b5050565b35906001600160401b03821682036104b657565b359061ffff821682036104b657565b3560ff811681036104b65790565b82156147345760405163a9059cbb60e01b81526001600160a01b039283166004820152602481019390935260209183916044918391600091165af190811561145f57600091614715575b50156146d857565b60405162461bcd60e51b8152602060048201526015602482015274151bdad95b881d1c985b9cd9995c8819985a5b1959605a1b6044820152606490fd5b61472e915060203d6020116134775761346981836142d7565b386146d0565b505050565b6000198114610cb35760010190565b9190600092600092818452602092601f84526040958686205492858052878720545b8410806148ba575b156148a9578487526147c4601e92838852898920868a52885260018060a01b038a8a20541693878a5288528989206147a987614739565b968a52885289892080546001600160a01b0319169055614739565b9180885260158752888820868952875288882060ff8154166147f2575b50508487528580528787205461476a565b6006018054600190818101809111614881578255828a52600c808a52808c8c20018054908382018092116148955755838b528952600b8b8b20018054918201809211614881578893926000805160206152ee833981519152928d92556148588585614d90565b6148628585614df4565b61486d8489876149e3565b90549082519182528b820152a338806147e1565b634e487b7160e01b8b52601160045260248bfd5b634e487b7160e01b8d52601160045260248dfd5b959294909693601f92508352522055565b5060048210614772565b60ff166001811080156148f1575b6148d95750565b60249060405190633d98c85560e21b82526004820152fd5b50601181116148d2565b91825460ff81166149dd576001600160a81b031916600883901b610100600160a81b03161760011783554260108401556001600160a01b0390811691821515908290826149d0575b5050806149b8575b61495457505050565b6003600184019260018060a01b03199381858254161790556000908152600c602052828060016040842001541660028701818782541617905580156000146149a6575050935b01921690825416179055565b8252604090912060010154169361499a565b5081600052600c60205260ff6040600020541661494b565b1683141590508138614943565b50505050565b92909160009380855260179360206017815260409384882094855415614c8e575b855495614a1087614739565b90558598600198898814600014614c855781935b878352601691601687528484208a85528752848420918a83558c830160018060a01b03809216998a82549160ff60a01b9060a01b169160018060a81b03191617179055866002840155600580930161ff00198154169055888552601588528585208a865288528660038787208d60028201550155601988528c8686208054918201809211614c71575586614b7c575b5088845260188752848420549b8c15614b74575b929190835b614b26575b5050505081869798997f19a57ce1df8ff5b43fd57ebc398733d14bbb0da3e683f28c5b0e32955d8d19c89697835260178652818320548110600014614b1f57915b60188652205551908152a4565b5081614b12565b9091929b89855281885285852054811080614b5a575b15614b5457614b4a90614739565b9b92919083614acc565b9b614ad1565b50838852858520818652885260ff83878720015416614b3c565b9b508b614ac7565b8985526016885285852087865288528c8686208c60038201805415600014614bbf5755015416845260158752848420898552875289600486862001555b38614ab3565b5050905060048101805415600014614c5457908c8f9255600581018260ff1982541617905501818154168652601589528686208b875289528b6005888820015554168780528585205490601e895286862082875289528686209060018060a01b03198254161790558c8101809111614c405789855287805285852055614bb9565b634e487b7160e01b85526011600452602485fd5b60448c8a8a5191630cc237c760e31b835260048301526024820152fd5b634e487b7160e01b87526011600452602487fd5b878a1c93614a24565b60018655614a04565b6001600160a01b0316600081815260156020908152604080832085845282528083205460ff1615614d8957838352601d8252808320858452825280832084845260158352818420868552835281842090805494614d026007614cf8886151df565b94019384546151b0565b918215614d7e5784614d7392600a92614d3c867f9de12b3d7a04eb259125d6f36a27a748d7ce92411cdf21da63e0e0394dfeea169b6144d8565b9055614d498587546144d8565b86558a8152601a8852818120614d608682546144d8565b9055898152600c885220019182546144d8565b9055549051908152a3565b505050505050505050565b5050505050565b6001600160a01b0316600081815260156020908152604080832085845282528083205460ff1615614d8957838352601d8252808320858452825280832084845260158352818420868552835260038285209101805494614d026007614cf88861520f565b6001600160a01b0316600081815260156020908152604080832085845282528083205460ff1615614d8957838352601d8252808320858452825280832084845260158352818420868552835260048285209101805494614d026007614cf888615238565b6001600160a01b0316600081815260156020908152604080832085845282528083205460ff1615614d8957838352601d8252808320858452825280832084845260158352818420868552835260018285209101805494614d026007614cf888615261565b6001600160a01b0316600081815260156020908152604080832085845282528083205460ff1615614d8957838352601d8252808320858452825280832084845260158352818420868552835260018285209101805494614d026007614cf88861520f565b6001600160a01b0316600081815260156020908152604080832085845282528083205460ff1615614d8957838352601d8252808320858452825280832084845260158352818420868552835260018285209101805494614d026007614cf888615284565b906001600160a01b03811680158015614fe0575b614fc25792614fc0936000526023602052614fb960406000209182546144d8565b9055614e58565b565b5050600052601c602052614fdc60406000209182546144d8565b9055565b5080600052600c60205260ff6040600020541615614f98565b906001600160a01b0381168015801561504b575b6150315792614fc093600052600c602052614fb9600d6040600020019182546144d8565b5050600052601b602052614fdc60406000209182546144d8565b5080600052600c60205260ff604060002054161561500d565b906001600160a01b038116801580156150a0575b614fc25792614fc093600052602360205261509960406000209182546144d8565b9055614ebc565b5080600052600c60205260ff6040600020541615615078565b906001600160a01b038116801580156150f1575b6150315792614fc093600052600c602052615099600d6040600020019182546144d8565b5080600052600c60205260ff60406000205416156150cd565b906001600160a01b03811680158015615146575b614fc25792614fc093600052602360205261513f60406000209182546144d8565b9055614f20565b5080600052600c60205260ff604060002054161561511e565b906001600160a01b03811680158015615197575b6150315792614fc093600052600c60205261513f600d6040600020019182546144d8565b5080600052600c60205260ff6040600020541615615173565b9061138891828110156151d7578203918211610cb357818111156151d2575090565b905090565b505050600090565b6103e89081811015615208578103908111610cb357806064116000146152025790565b50606490565b5050600090565b6107d09081811015615208578103908111610cb357806032116000146152325790565b50603290565b6101f49081811015615208578103908111610cb35780600a1160001461525b5790565b50600a90565b6107d09081811015615208578103908111610cb357806064116000146152025790565b6107d09081811015615208578103908111610cb357806019116000146152a75790565b5060199056fe68cb741d0779160e141ccf5dd579423de44febc76c0edddcc6167807a3c16af7c5a523fad910d10f2e95e81baa27487ab1f8867069e11e28424fff2c49ec980de71a25c367057ba6c32bea73ffe6eac519023fe04617b003d4ddc2781cb847cf9e2bd5f99a08e89f06d56896c56146aa32e257d0942bbd7c9b9748a26fd9d4e2a264697066735822122005f7f4a0256a32e4a34b137b59d44d122b110bcd1db1e71abb61ea6fea8297fd64736f6c63430008180033",
  "linkReferences": {},
  "deployedLinkReferences": {}
}