{
  "_format": "hh-sol-artifact-1",
  "contractName": "EasyGameArenaSkills",
  "sourceName": "contracts/EasyGameArenaSkills.sol",
  "abi": [
    {
      "inputs": [
        {
          "internalType": "address",
          "name": "core_",
          "type": "address"
        },
        {
          "internalType": "address",
          "name": "manager_",
          "type": "address"
        },
        {
          "internalType": "address",
          "name": "usdc_",
          "type": "address"
        },
        {
          "internalType": "address",
          "name": "treasury_",
          "type": "address"
        }
      ],
      "stateMutability": "nonpayable",
      "type": "constructor"
    },
    {
      "anonymous": false,
      "inputs": [
        {
          "indexed": true,
          "internalType": "address",
          "name": "player",
          "type": "address"
        },
        {
          "indexed": true,
          "internalType": "uint256",
          "name": "roundId",
          "type": "uint256"
        },
        {
          "indexed": false,
          "internalType": "uint256",
          "name": "price",
          "type": "uint256"
        }
      ],
      "name": "FreezeTokenPurchased",
      "type": "event"
    },
    {
      "anonymous": false,
      "inputs": [
        {
          "indexed": true,
          "internalType": "address",
          "name": "attacker",
          "type": "address"
        },
        {
          "indexed": true,
          "internalType": "address",
          "name": "target",
          "type": "address"
        },
        {
          "indexed": true,
          "internalType": "uint256",
          "name": "roundId",
          "type": "uint256"
        },
        {
          "indexed": false,
          "internalType": "uint64",
          "name": "frozenUntil",
          "type": "uint64"
        },
        {
          "indexed": false,
          "internalType": "uint16",
          "name": "hits",
          "type": "uint16"
        }
      ],
      "name": "PlayerFrozen",
      "type": "event"
    },
    {
      "anonymous": false,
      "inputs": [
        {
          "indexed": true,
          "internalType": "address",
          "name": "player",
          "type": "address"
        },
        {
          "indexed": true,
          "internalType": "uint256",
          "name": "roundId",
          "type": "uint256"
        },
        {
          "indexed": false,
          "internalType": "uint256",
          "name": "price",
          "type": "uint256"
        }
      ],
      "name": "PlayerUnfrozen",
      "type": "event"
    },
    {
      "inputs": [],
      "name": "FREEZE_TOKEN_PRICE_USDC",
      "outputs": [
        {
          "internalType": "uint256",
          "name": "",
          "type": "uint256"
        }
      ],
      "stateMutability": "view",
      "type": "function"
    },
    {
      "inputs": [],
      "name": "MIN_UNFREEZE_PRICE_USDC",
      "outputs": [
        {
          "internalType": "uint256",
          "name": "",
          "type": "uint256"
        }
      ],
      "stateMutability": "view",
      "type": "function"
    },
    {
      "inputs": [],
      "name": "UNFREEZE_EXPECTED_PRIZE_BPS",
      "outputs": [
        {
          "internalType": "uint256",
          "name": "",
          "type": "uint256"
        }
      ],
      "stateMutability": "view",
      "type": "function"
    },
    {
      "inputs": [
        {
          "internalType": "uint256",
          "name": "",
          "type": "uint256"
        },
        {
          "internalType": "address",
          "name": "",
          "type": "address"
        }
      ],
      "name": "arenaStatus",
      "outputs": [
        {
          "internalType": "uint64",
          "name": "frozenUntil",
          "type": "uint64"
        },
        {
          "internalType": "uint16",
          "name": "freezeHits",
          "type": "uint16"
        },
        {
          "internalType": "uint16",
          "name": "freezeTokens",
          "type": "uint16"
        }
      ],
      "stateMutability": "view",
      "type": "function"
    },
    {
      "inputs": [
        {
          "internalType": "uint256",
          "name": "roundId",
          "type": "uint256"
        }
      ],
      "name": "buyFreezeToken",
      "outputs": [],
      "stateMutability": "nonpayable",
      "type": "function"
    },
    {
      "inputs": [
        {
          "internalType": "uint256",
          "name": "roundId",
          "type": "uint256"
        }
      ],
      "name": "buyUnfreeze",
      "outputs": [],
      "stateMutability": "nonpayable",
      "type": "function"
    },
    {
      "inputs": [
        {
          "internalType": "uint256",
          "name": "roundId",
          "type": "uint256"
        },
        {
          "internalType": "address",
          "name": "target",
          "type": "address"
        }
      ],
      "name": "freezePlayer",
      "outputs": [],
      "stateMutability": "nonpayable",
      "type": "function"
    },
    {
      "inputs": [],
      "name": "gameCore",
      "outputs": [
        {
          "internalType": "contract IEasyGameRoundCore",
          "name": "",
          "type": "address"
        }
      ],
      "stateMutability": "view",
      "type": "function"
    },
    {
      "inputs": [
        {
          "internalType": "uint256",
          "name": "roundId",
          "type": "uint256"
        },
        {
          "internalType": "address",
          "name": "player",
          "type": "address"
        }
      ],
      "name": "getArenaStatus",
      "outputs": [
        {
          "internalType": "bool",
          "name": "frozen",
          "type": "bool"
        },
        {
          "internalType": "bool",
          "name": "immune",
          "type": "bool"
        },
        {
          "internalType": "uint64",
          "name": "frozenUntil",
          "type": "uint64"
        },
        {
          "internalType": "uint16",
          "name": "freezeHits",
          "type": "uint16"
        },
        {
          "internalType": "uint16",
          "name": "freezeTokens",
          "type": "uint16"
        }
      ],
      "stateMutability": "view",
      "type": "function"
    },
    {
      "inputs": [
        {
          "internalType": "uint256",
          "name": "roundId",
          "type": "uint256"
        },
        {
          "internalType": "address",
          "name": "player",
          "type": "address"
        }
      ],
      "name": "getUnfreezePriceUsdc",
      "outputs": [
        {
          "internalType": "uint256",
          "name": "",
          "type": "uint256"
        }
      ],
      "stateMutability": "view",
      "type": "function"
    },
    {
      "inputs": [
        {
          "internalType": "uint256",
          "name": "roundId",
          "type": "uint256"
        },
        {
          "internalType": "address",
          "name": "player",
          "type": "address"
        }
      ],
      "name": "isFrozen",
      "outputs": [
        {
          "internalType": "bool",
          "name": "",
          "type": "bool"
        }
      ],
      "stateMutability": "view",
      "type": "function"
    },
    {
      "inputs": [],
      "name": "roundManager",
      "outputs": [
        {
          "internalType": "contract IEasyGameRoundManager",
          "name": "",
          "type": "address"
        }
      ],
      "stateMutability": "view",
      "type": "function"
    },
    {
      "inputs": [],
      "name": "skillTreasury",
      "outputs": [
        {
          "internalType": "address",
          "name": "",
          "type": "address"
        }
      ],
      "stateMutability": "view",
      "type": "function"
    },
    {
      "inputs": [],
      "name": "usdcToken",
      "outputs": [
        {
          "internalType": "contract IERC20Minimal",
          "name": "",
          "type": "address"
        }
      ],
      "stateMutability": "view",
      "type": "function"
    }
  ],
  "bytecode": "0x61010034620001b857601f6200150b38819003918201601f19168301916001600160401b03831184841017620001bd57808492608094604052833981010312620001b8576200004e81620001d3565b906200005d60208201620001d3565b916200007a60606200007260408501620001d3565b9301620001d3565b60018055926001600160a01b039182169283151580620001ac575b156200017857821692831515806200016c575b15620001355760a0521660c05260805260e0526040516113229081620001e9823960805181818161020e0152818161043201526109e7015260a05181818161013301528181610d8601526111fe015260c0518181816105b301528181610756015281816109a401528181610e890152611011015260e0518181816101e1015281816103fa01526106860152f35b60405162461bcd60e51b815260206004820152600f60248201526e125b9d985b1a59081c185e5b595b9d608a1b6044820152606490fd5b508285161515620000a8565b60405162461bcd60e51b815260206004820152600c60248201526b496e76616c69642067616d6560a01b6044820152606490fd5b50828216151562000095565b600080fd5b634e487b7160e01b600052604160045260246000fd5b51906001600160a01b0382168203620001b85756fe608060408181526004918236101561001657600080fd5b600092833560e01c91826311eac855146109d3575081633945dbde1461098f5781633d32bdbf146106b55781634837ec4f146106715781634e26857514610528578163505b60aa1461050a57816360feedbc1461039f5781636d83a403146103815781639dd5e8b41461032d5781639efbd94a1461030a578163e0306c7c1461016257508063e2cfe2ef1461011f578063eab05b63146101035763ffaf8f18146100bf57600080fd5b346100ff576020916100d036610a16565b9082528184528282206001600160a01b03909116825283528190205490516001600160401b0390911642108152f35b5080fd5b50346100ff57816003193601126100ff57602090516102bc8152f35b50346100ff57816003193601126100ff57517f00000000000000000000000000000000000000000000000000000000000000006001600160a01b03168152602090f35b90503461030657602080600319360112610302578135926101866001805414610bfd565b6002600155838552848252808520338652825280852080546001600160401b03164210156102c95790829186936101bd3388610d67565b95606460018060a01b0391855197889384926323b872dd60e01b84523390840152807f00000000000000000000000000000000000000000000000000000000000000001660248401528a60448401527f0000000000000000000000000000000000000000000000000000000000000000165af19384156102bf578794610273575b506102576000805160206112cd83398151915294610c47565b80546001600160401b0319169055519283523392a36001805580f35b93508284813d83116102b8575b61028a8183610a41565b810103126102b4576102576102ad6000805160206112cd83398151915295610c3a565b945061023e565b8680fd5b503d610280565b82513d89823e3d90fd5b505162461bcd60e51b8152918201526014602482015273283630bcb2b91034b9903737ba10333937bd32b760611b604482015260649150fd5b8380fd5b8280fd5b5050346100ff5760209061032661032036610a16565b90610d67565b9051908152f35b5050346100ff578060609261034136610a16565b908252816020528282209060018060a01b0316825260205220549061ffff81519260018060401b03811684528181841c16602085015260501c1690820152f35b5050346100ff57816003193601126100ff5760209051620493e08152f35b919050346103065760209182600319360112610302578035926103c56001805414610bfd565b60026001556103d384610ff8565b6103dd33856111d7565b60018060a01b03928051926323b872dd60e01b84523390840152837f0000000000000000000000000000000000000000000000000000000000000000166024840152818360648189620493e0988960448401527f0000000000000000000000000000000000000000000000000000000000000000165af19283156105005786936104b4575b5061047b6000805160206112ad83398151915293610c47565b84865285825280862033875282526104a68187206104a061ffff825460501c16610bc7565b90610ba8565b519283523392a36001805580f35b92508183813d83116104f9575b6104cb8183610a41565b810103126104f55761047b6104ee6000805160206112ad83398151915294610c3a565b9350610462565b8580fd5b503d6104c1565b81513d88823e3d90fd5b5050346100ff57816003193601126100ff5760209051620f42408152f35b919050346103065761053936610a16565b81855260208581528386206001600160a01b0392831687529052828520835194906001600160401b0390606087018281118882101761065e5786525495818716815261ffff9260208201948489891c168652848884019960501c168952875196879263cba0b84160e01b84528301528160246101c09889937f0000000000000000000000000000000000000000000000000000000000000000165afa9586156106545760a0999661061a575b505082809261018092511694511694015116831015945116928051948242108652602086015284015260608301526080820152f35b61018092965092610644859492838694903d1061064d575b61063c8183610a41565b810190610aab565b969250926105e5565b503d610632565b87513d8b823e3d90fd5b634e487b7160e01b895260418452602489fd5b5050346100ff57816003193601126100ff57517f00000000000000000000000000000000000000000000000000000000000000006001600160a01b03168152602090f35b8383346100ff576106c536610a16565b90916106d083610ff8565b6001600160a01b038281169290919083151580610985575b1561095157610701906106fb33876111d7565b856111d7565b8385526020858152818620338752815281862061ffff9081815460501c1694851561091557878952888452848920878a528452848920918551809263cba0b84160e01b82528a8d8301528160246101c09586937f0000000000000000000000000000000000000000000000000000000000000000165afa92831561090b578b936108ec575b5050838354871c16966101808301978589511611156108b65760001901908482116108a357906107b591610ba8565b81549061ffff60401b6107cb83881c8616610bc7565b871b169660c082019060018060401b0392836060818551169201511690039083821161088f5751861690811561087b577f480133007938dc1b468e6b0718911c7629b033ce3c650acf007589f86f8f9a1c999a9b9c9d5083918280921604168015610873575b61083b9042610bf0565b91511680821161086b575b501696879160018060501b03191617178091558351958652831c16908401523392a480f35b90508c610846565b506001610831565b50634e487b7160e01b8c5260128d5260248cfd5b50634e487b7160e01b8c5260118d5260248cfd5b634e487b7160e01b8b5260118c5260248bfd5b865162461bcd60e51b8152808d01879052601060248201526f54617267657420697320696d6d756e6560801b6044820152606490fd5b610903929350803d1061064d5761063c8183610a41565b908b80610786565b87513d8d823e3d90fd5b845162461bcd60e51b8152808b018590526016602482015275109d5e48199c99595e99481d1bdad95b88199a5c9cdd60521b6044820152606490fd5b815162461bcd60e51b8152602081890152600e60248201526d125b9d985b1a59081d185c99d95d60921b6044820152606490fd5b50338414156106e8565b5050346100ff57816003193601126100ff57517f00000000000000000000000000000000000000000000000000000000000000006001600160a01b03168152602090f35b8490346100ff57816003193601126100ff577f00000000000000000000000000000000000000000000000000000000000000006001600160a01b03168152602090f35b6040906003190112610a3c57600435906024356001600160a01b0381168103610a3c5790565b600080fd5b601f909101601f19168101906001600160401b03821190821017610a6457604052565b634e487b7160e01b600052604160045260246000fd5b519060ff82168203610a3c57565b51906001600160401b0382168203610a3c57565b519061ffff82168203610a3c57565b80916101c09283910312610a3c576040519182016001600160401b03811183821017610a64576040528051825260208101516020830152610aee60408201610a7a565b6040830152610aff60608201610a88565b6060830152610b1060808201610a88565b6080830152610b2160a08201610a88565b60a0830152610b3260c08201610a88565b60c083015260e081015163ffffffff81168103610a3c5760e0830152610100610b5c818301610a9c565b90830152610120808201519083015261014080820151908301526101608082015190830152610180610b8f818301610a9c565b90830152610ba16101a0809201610a9c565b9082015290565b805461ffff60501b191660509290921b61ffff60501b16919091179055565b90600161ffff80931601918211610bda57565b634e487b7160e01b600052601160045260246000fd5b91908201809211610bda57565b15610c0457565b60405162461bcd60e51b815260206004820152600e60248201526d1499595b9d1c985b9d0818d85b1b60921b6044820152606490fd5b51908115158203610a3c57565b15610c4e57565b60405162461bcd60e51b81526020600482015260146024820152731554d110c81d1c985b9cd9995c8819985a5b195960621b6044820152606490fd5b80916101209283910312610a3c576040519182016001600160401b03811183821017610a6457604052610cbc81610c3a565b8252610cca60208201610a7a565b602083015260408101516040830152606081015160608301526080810151608083015260a081015160a083015260c081015160c083015260e081015160e0830152610100809101519082015290565b6001600160a01b039091168152602081019190915260400190565b81810292918115918404141715610bda57565b8115610d51570490565b634e487b7160e01b600052601260045260246000fd5b6040805163e78a645160e01b815261012094936001600160a01b0391907f0000000000000000000000000000000000000000000000000000000000000000831690879083908190610dbd90899060048401610d19565b0381845afa918215610fed576024959697600093610fb9575b505060c0908451958680926309ea3e2760e31b82528960048301525afa918215610fae5760009182958394610f65575b508051158015610f5d575b610f4f5783610e2a610100610e2f930197885190610d34565b610d47565b9582610e6a575b5050505050506102bc90818102918183041490151715610bda576127109004620f424080821115610e65575090565b905090565b845191829163cba0b84160e01b835260048301528160246101c09384937f0000000000000000000000000000000000000000000000000000000000000000165afa948515610f455750600094610f26575b50506101408301938451151580610f18575b610ed8575b80610e36565b92610160610ef7610f0e979694610e2a610f0095610f08985190610d34565b91015190610d34565b905190610d47565b90610bf0565b3880808080610ed2565b506101608401511515610ecd565b610f3d929450803d1061064d5761063c8183610a41565b913880610ebb565b513d6000823e3d90fd5b50505050505050620f424090565b508315610e11565b92919550925060c0823d60c011610fa6575b81610f8460c09383610a41565b81010312610fa357508051938360208301519201519491949238610e06565b80fd5b3d9150610f77565b83513d6000823e3d90fd5b60c09293509081610fde92903d10610fe6575b610fd68183610a41565b810190610c8a565b919038610dd6565b503d610fcc565b84513d6000823e3d90fd5b6040805163cba0b84160e01b81526004810183905290917f00000000000000000000000000000000000000000000000000000000000000006001600160a01b0316916101c0908181602481875afa9182156111cc576000926111af575b505060608101516001600160401b03908116421015918261119f575b505015611164576020906024845180948193636fd0763b60e11b835260048301525afa9081156111595760009161111e575b50600881101561110857600281149081156110fd575b50156110c25750565b5162461bcd60e51b8152602060048201526015602482015274526f756e64206973206e6f7420706c617961626c6560581b6044820152606490fd5b6003915014386110b9565b634e487b7160e01b600052602160045260246000fd5b6020813d602011611151575b8161113760209383610a41565b810103126100ff5751906008821015610fa35750386110a3565b3d915061112a565b82513d6000823e3d90fd5b825162461bcd60e51b8152602060048201526014602482015273119c99595e99481dda5b991bddc818db1bdcd95960621b6044820152606490fd5b60c0015116421090503880611071565b6111c59250803d1061064d5761063c8183610a41565b3880611055565b85513d6000823e3d90fd5b906040519063e78a645160e01b825281806111fa61012095869460048401610d19565b03817f00000000000000000000000000000000000000000000000000000000000000006001600160a01b03165afa9182156112a057600092611283575b5050511561124157565b60405162461bcd60e51b815260206004820152601a602482015279149bdd5b99081c185c9d1a58da5c185b9d081c995c5d5a5c995960321b6044820152606490fd5b6112999250803d10610fe657610fd68183610a41565b3880611237565b6040513d6000823e3d90fdfe1a6a9f9f0fb59e19eab362c1202a465647912f219bda6cb4947e3e2c35697ace7b916b452dacc080e6b30afbef884835fe593bbbdec3dcaae6f8bbdc202bcdafa264697066735822122052ae6121b77bbe6cf2e8bb2e2fc3d89530ef669eb2ca0c815cce216b977435dd64736f6c63430008180033",
  "linkReferences": {},
  "deployedLinkReferences": {}
}