{
  "_format": "hh-sol-artifact-1",
  "contractName": "EasyGame",
  "sourceName": "contracts/EasyGame.sol",
  "abi": [
    {
      "inputs": [
        {
          "internalType": "address payable",
          "name": "treasuryAddress",
          "type": "address"
        }
      ],
      "stateMutability": "nonpayable",
      "type": "constructor"
    },
    {
      "anonymous": false,
      "inputs": [
        {
          "indexed": true,
          "internalType": "address",
          "name": "from",
          "type": "address"
        },
        {
          "indexed": true,
          "internalType": "address",
          "name": "to",
          "type": "address"
        },
        {
          "indexed": true,
          "internalType": "uint8",
          "name": "level",
          "type": "uint8"
        },
        {
          "indexed": false,
          "internalType": "uint256",
          "name": "amount",
          "type": "uint256"
        }
      ],
      "name": "BaseRewardPaid",
      "type": "event"
    },
    {
      "anonymous": false,
      "inputs": [
        {
          "indexed": true,
          "internalType": "address",
          "name": "player",
          "type": "address"
        },
        {
          "indexed": true,
          "internalType": "uint8",
          "name": "level",
          "type": "uint8"
        },
        {
          "indexed": false,
          "internalType": "uint256",
          "name": "amount",
          "type": "uint256"
        },
        {
          "indexed": true,
          "internalType": "address",
          "name": "inviter",
          "type": "address"
        }
      ],
      "name": "LevelActivated",
      "type": "event"
    },
    {
      "anonymous": false,
      "inputs": [
        {
          "indexed": true,
          "internalType": "uint8",
          "name": "level",
          "type": "uint8"
        },
        {
          "indexed": false,
          "internalType": "bool",
          "name": "available",
          "type": "bool"
        }
      ],
      "name": "LevelAvailabilityChanged",
      "type": "event"
    },
    {
      "anonymous": false,
      "inputs": [
        {
          "indexed": true,
          "internalType": "address",
          "name": "player",
          "type": "address"
        },
        {
          "indexed": true,
          "internalType": "uint8",
          "name": "level",
          "type": "uint8"
        }
      ],
      "name": "LevelFrozen",
      "type": "event"
    },
    {
      "anonymous": false,
      "inputs": [
        {
          "indexed": true,
          "internalType": "uint8",
          "name": "level",
          "type": "uint8"
        },
        {
          "indexed": false,
          "internalType": "uint256",
          "name": "oldPrice",
          "type": "uint256"
        },
        {
          "indexed": false,
          "internalType": "uint256",
          "name": "newPrice",
          "type": "uint256"
        }
      ],
      "name": "LevelPriceChanged",
      "type": "event"
    },
    {
      "anonymous": false,
      "inputs": [
        {
          "indexed": true,
          "internalType": "address",
          "name": "player",
          "type": "address"
        },
        {
          "indexed": true,
          "internalType": "uint8",
          "name": "level",
          "type": "uint8"
        }
      ],
      "name": "LevelUnfrozen",
      "type": "event"
    },
    {
      "anonymous": false,
      "inputs": [
        {
          "indexed": true,
          "internalType": "address",
          "name": "player",
          "type": "address"
        },
        {
          "indexed": true,
          "internalType": "uint8",
          "name": "level",
          "type": "uint8"
        },
        {
          "indexed": false,
          "internalType": "uint256",
          "name": "positionId",
          "type": "uint256"
        },
        {
          "indexed": false,
          "internalType": "uint256",
          "name": "parentId",
          "type": "uint256"
        }
      ],
      "name": "MatrixPlaced",
      "type": "event"
    },
    {
      "anonymous": false,
      "inputs": [
        {
          "indexed": true,
          "internalType": "address",
          "name": "from",
          "type": "address"
        },
        {
          "indexed": true,
          "internalType": "address",
          "name": "to",
          "type": "address"
        },
        {
          "indexed": true,
          "internalType": "uint8",
          "name": "level",
          "type": "uint8"
        },
        {
          "indexed": false,
          "internalType": "uint256",
          "name": "amount",
          "type": "uint256"
        }
      ],
      "name": "MatrixRewardPaid",
      "type": "event"
    },
    {
      "anonymous": false,
      "inputs": [
        {
          "indexed": true,
          "internalType": "address",
          "name": "player",
          "type": "address"
        },
        {
          "indexed": true,
          "internalType": "uint8",
          "name": "level",
          "type": "uint8"
        },
        {
          "indexed": false,
          "internalType": "uint256",
          "name": "cycle",
          "type": "uint256"
        },
        {
          "indexed": false,
          "internalType": "uint256",
          "name": "newPositionId",
          "type": "uint256"
        }
      ],
      "name": "Recycled",
      "type": "event"
    },
    {
      "anonymous": false,
      "inputs": [
        {
          "indexed": true,
          "internalType": "address",
          "name": "player",
          "type": "address"
        },
        {
          "indexed": true,
          "internalType": "address",
          "name": "receiver",
          "type": "address"
        },
        {
          "indexed": false,
          "internalType": "uint8",
          "name": "line",
          "type": "uint8"
        },
        {
          "indexed": false,
          "internalType": "uint256",
          "name": "amount",
          "type": "uint256"
        }
      ],
      "name": "ReferralPaid",
      "type": "event"
    },
    {
      "anonymous": false,
      "inputs": [
        {
          "indexed": true,
          "internalType": "address",
          "name": "oldTreasury",
          "type": "address"
        },
        {
          "indexed": true,
          "internalType": "address",
          "name": "newTreasury",
          "type": "address"
        }
      ],
      "name": "TreasuryChanged",
      "type": "event"
    },
    {
      "inputs": [],
      "name": "LEVEL_COUNT",
      "outputs": [
        {
          "internalType": "uint8",
          "name": "",
          "type": "uint8"
        }
      ],
      "stateMutability": "view",
      "type": "function"
    },
    {
      "inputs": [
        {
          "internalType": "uint8",
          "name": "level",
          "type": "uint8"
        },
        {
          "internalType": "address",
          "name": "inviter",
          "type": "address"
        }
      ],
      "name": "activateLevel",
      "outputs": [],
      "stateMutability": "payable",
      "type": "function"
    },
    {
      "inputs": [
        {
          "internalType": "uint8",
          "name": "level",
          "type": "uint8"
        }
      ],
      "name": "getLevelMatrixStats",
      "outputs": [
        {
          "internalType": "uint256",
          "name": "size",
          "type": "uint256"
        },
        {
          "internalType": "uint256",
          "name": "nextOpenParentId",
          "type": "uint256"
        }
      ],
      "stateMutability": "view",
      "type": "function"
    },
    {
      "inputs": [
        {
          "internalType": "uint8",
          "name": "level",
          "type": "uint8"
        },
        {
          "internalType": "uint256",
          "name": "positionId",
          "type": "uint256"
        }
      ],
      "name": "getMatrixNode",
      "outputs": [
        {
          "internalType": "address",
          "name": "player",
          "type": "address"
        },
        {
          "internalType": "uint256",
          "name": "parentId",
          "type": "uint256"
        },
        {
          "internalType": "uint256",
          "name": "leftChildId",
          "type": "uint256"
        },
        {
          "internalType": "uint256",
          "name": "rightChildId",
          "type": "uint256"
        },
        {
          "internalType": "uint256",
          "name": "depth",
          "type": "uint256"
        },
        {
          "internalType": "bool",
          "name": "closed",
          "type": "bool"
        }
      ],
      "stateMutability": "view",
      "type": "function"
    },
    {
      "inputs": [
        {
          "internalType": "address",
          "name": "playerAddress",
          "type": "address"
        }
      ],
      "name": "getPlayer",
      "outputs": [
        {
          "internalType": "bool",
          "name": "exists",
          "type": "bool"
        },
        {
          "internalType": "address",
          "name": "inviter",
          "type": "address"
        },
        {
          "internalType": "uint8",
          "name": "maxActiveLevel",
          "type": "uint8"
        },
        {
          "internalType": "uint256",
          "name": "totalPaid",
          "type": "uint256"
        }
      ],
      "stateMutability": "view",
      "type": "function"
    },
    {
      "inputs": [
        {
          "internalType": "address",
          "name": "playerAddress",
          "type": "address"
        },
        {
          "internalType": "uint8",
          "name": "level",
          "type": "uint8"
        }
      ],
      "name": "getPlayerLevel",
      "outputs": [
        {
          "internalType": "bool",
          "name": "active",
          "type": "bool"
        },
        {
          "internalType": "bool",
          "name": "frozen",
          "type": "bool"
        },
        {
          "internalType": "uint256",
          "name": "cycles",
          "type": "uint256"
        },
        {
          "internalType": "uint256",
          "name": "positionId",
          "type": "uint256"
        },
        {
          "internalType": "uint256",
          "name": "earned",
          "type": "uint256"
        }
      ],
      "stateMutability": "view",
      "type": "function"
    },
    {
      "inputs": [
        {
          "internalType": "address",
          "name": "playerAddress",
          "type": "address"
        },
        {
          "internalType": "uint8",
          "name": "level",
          "type": "uint8"
        }
      ],
      "name": "getPlayerPosition",
      "outputs": [
        {
          "internalType": "uint256",
          "name": "positionId",
          "type": "uint256"
        },
        {
          "internalType": "uint256",
          "name": "parentId",
          "type": "uint256"
        },
        {
          "internalType": "uint256",
          "name": "leftChildId",
          "type": "uint256"
        },
        {
          "internalType": "uint256",
          "name": "rightChildId",
          "type": "uint256"
        },
        {
          "internalType": "uint256",
          "name": "depth",
          "type": "uint256"
        },
        {
          "internalType": "bool",
          "name": "closed",
          "type": "bool"
        }
      ],
      "stateMutability": "view",
      "type": "function"
    },
    {
      "inputs": [
        {
          "internalType": "address",
          "name": "playerAddress",
          "type": "address"
        },
        {
          "internalType": "uint8",
          "name": "level",
          "type": "uint8"
        }
      ],
      "name": "isLevelActive",
      "outputs": [
        {
          "internalType": "bool",
          "name": "",
          "type": "bool"
        }
      ],
      "stateMutability": "view",
      "type": "function"
    },
    {
      "inputs": [
        {
          "internalType": "address",
          "name": "playerAddress",
          "type": "address"
        },
        {
          "internalType": "uint8",
          "name": "level",
          "type": "uint8"
        }
      ],
      "name": "isLevelFrozen",
      "outputs": [
        {
          "internalType": "bool",
          "name": "",
          "type": "bool"
        }
      ],
      "stateMutability": "view",
      "type": "function"
    },
    {
      "inputs": [
        {
          "internalType": "uint8",
          "name": "",
          "type": "uint8"
        }
      ],
      "name": "levelAvailable",
      "outputs": [
        {
          "internalType": "bool",
          "name": "",
          "type": "bool"
        }
      ],
      "stateMutability": "view",
      "type": "function"
    },
    {
      "inputs": [
        {
          "internalType": "uint8",
          "name": "",
          "type": "uint8"
        }
      ],
      "name": "levelMatrixSize",
      "outputs": [
        {
          "internalType": "uint256",
          "name": "",
          "type": "uint256"
        }
      ],
      "stateMutability": "view",
      "type": "function"
    },
    {
      "inputs": [
        {
          "internalType": "uint8",
          "name": "",
          "type": "uint8"
        }
      ],
      "name": "levelPrices",
      "outputs": [
        {
          "internalType": "uint256",
          "name": "",
          "type": "uint256"
        }
      ],
      "stateMutability": "view",
      "type": "function"
    },
    {
      "inputs": [],
      "name": "owner",
      "outputs": [
        {
          "internalType": "address",
          "name": "",
          "type": "address"
        }
      ],
      "stateMutability": "view",
      "type": "function"
    },
    {
      "inputs": [
        {
          "internalType": "uint8",
          "name": "level",
          "type": "uint8"
        },
        {
          "internalType": "bool",
          "name": "available",
          "type": "bool"
        }
      ],
      "name": "setLevelAvailable",
      "outputs": [],
      "stateMutability": "nonpayable",
      "type": "function"
    },
    {
      "inputs": [
        {
          "internalType": "uint8",
          "name": "level",
          "type": "uint8"
        },
        {
          "internalType": "uint256",
          "name": "newPrice",
          "type": "uint256"
        }
      ],
      "name": "setLevelPrice",
      "outputs": [],
      "stateMutability": "nonpayable",
      "type": "function"
    },
    {
      "inputs": [
        {
          "internalType": "address payable",
          "name": "newTreasury",
          "type": "address"
        }
      ],
      "name": "setTreasury",
      "outputs": [],
      "stateMutability": "nonpayable",
      "type": "function"
    },
    {
      "inputs": [
        {
          "internalType": "address",
          "name": "newOwner",
          "type": "address"
        }
      ],
      "name": "transferOwnership",
      "outputs": [],
      "stateMutability": "nonpayable",
      "type": "function"
    },
    {
      "inputs": [],
      "name": "treasury",
      "outputs": [
        {
          "internalType": "address payable",
          "name": "",
          "type": "address"
        }
      ],
      "stateMutability": "view",
      "type": "function"
    },
    {
      "stateMutability": "payable",
      "type": "receive"
    }
  ],
  "bytecode": "0x6080346103d557601f611e2938819003918201601f19168301916001600160401b038311848410176103da578084926020946040528339810103126103d557516001600160a01b038116908190036103d557801561039057600080546001600160a01b0319908116331782556001805490911692909217909155600260205266b1a2bc2ec500007fe90b7bceb6e7df5418fb78d8ee546e97c83a08bbccc01a0644d599ccd2a7c2e05566f8b0a10e4700007f679795a0195a1b76cdebb7c51d74e058aee92919b8c3389af86ef24535e8a28c5567016345785d8a00007f88601476d11616a71c5be67555bd1dff4b1cbf21533d2669b768b61518cfe1c3556701f161421c8e00007fee60d0579bcffd98e668647d59fec1ff86a7fb340ce572e844f234ae73a6918f556702c68af0bb1400007fb98b78633099fa36ed8b8680c4f8092689e1e04080eb9cbb077ca38a14d7e384556703e2c284391c00007f59dd4b18488d12f51eda69757a0ed42a2010c14b564330cc74a06895e60c077b5567058d15e1762800007facd8ef244210bb6898e73c48bf820ed8ecc857a3bab8d79c10e4fa92b1e9ca65556707a1fe16027700007f3a5ea591190eeb3f8fcdced843c78df04ec0dfd42f5510375207515664fa0a7555670b1a2bc2ec5000007ff85cc6ffc513dc6cf7d199ef87b7a63cf9defe62251c1c247cd12f1eec7bff2955670f43fc2c04ee00007fd3604db978f6137b0d18816b77b2ce810487a3af08a922e0b184963be5f3adfc556716345785d8a000007fab9952baf6478d8cfb7253ce86a6c53a7b7549582c76210b1581ae682b7e556f55671e87f85809dc00007fbd814762a7e35d5c162a7570d14baa68bd622cabb1ad83d40dd70f8a88aa67c055672c68af0bb14000007feb5d92aa5b18af35c2d0c0d14a538792cf1a66aa06ab9dae49d32446e9063ca155673d0ff0b013b800007f20de3dd312970f46a1d560f6c70f0e5bd10e638b9bb3836368f28838c607ea3e55675a34a38fc00a00007f0353061a88c0592f32d7468be32ff6e5e91e49a3ea3ffb3c4fbe417c36501ba25560109052676f05b59d3b2000007f328b8e687a0a963892a735f0237cb763bbbbf8ba0c1dfe2c221debb32c4bbd895560035b60ff811690601082116103815760ff9160005260046020526040600020600183198254161790551660ff811461036b57600101610333565b634e487b7160e01b600052601160045260246000fd5b604051611a3890816103f18239f35b60405162461bcd60e51b815260206004820152601c60248201527f54726561737572792061646472657373206973207265717569726564000000006044820152606490fd5b600080fd5b634e487b7160e01b600052604160045260246000fdfe60806040526004361015610052575b361561001957600080fd5b60405162461bcd60e51b8152602060048201526011602482015270155cd9481858dd1a5d985d1953195d995b607a1b6044820152606490fd5b60003560e01c80630e475efd14610f955780631d6a884b14610f795780632e50d90614610f4557806348d46be1146107a35780634a57c6d91461069057806352ebb227146106575780635c12cd4b146105f157806361d027b3146105c857806375b7d7c1146105695780638da5cb5b146105405780638eb657c414610473578063a0978ac2146103e8578063b9aee26314610399578063c05db4ce14610365578063d2a1608014610312578063ed270c1614610282578063f0f44260146101b85763f2fde38b0361000e57346101b35760203660031901126101b357610136610ff7565b6000549061014e336001600160a01b03841614611089565b6001600160a01b031690811561016e576001600160a01b03191617600055005b60405162461bcd60e51b815260206004820152601960248201527f4f776e65722061646472657373206973207265717569726564000000000000006044820152606490fd5b600080fd5b346101b35760203660031901126101b3576004356001600160a01b038116908190036101b3576101f360018060a01b03600054163314611089565b801561023d57600180546001600160a01b0319811683179091556001600160a01b03167f8c3aa5f43a388513435861bf27dfad7829cd248696fed367c62d441f62954496600080a3005b60405162461bcd60e51b815260206004820152601c60248201527f54726561737572792061646472657373206973207265717569726564000000006044820152606490fd5b346101b35760403660031901126101b35761029b61101d565b602435908115158092036101b357602060ff7fdd552374405792741cb7e6993ca7e6dd5400b9e45e80ca256ac09db4009c8937926102e460018060a01b03600054163314611089565b6102ed8161117c565b16928360005260048252604060002060ff1981541660ff8316179055604051908152a2005b346101b35760403660031901126101b35760c061033e610330610ff7565b61033861100d565b906110df565b936040939193519586526020860152604085015260608401526080830152151560a0820152f35b346101b35760203660031901126101b35760ff61038061101d565b1660005260036020526020604060002054604051908152f35b346101b35760203660031901126101b357604060ff6103b661101d565b6103bf8161117c565b168060005260076020528160002054906000526008602052816000205482519182526020820152f35b346101b35760403660031901126101b35760a06040610405610ff7565b61040d61100d565b906104178261117c565b600180851b031660005260066020528160002060ff60009216825260205220805490600181015490600360028201549101549160ff604051948181161515865260081c1615156020850152604084015260608301526080820152f35b346101b35760403660031901126101b35761048c61101d565b602435906104a560018060a01b03600054163314611089565b6104ae8161117c565b811561050757604060ff7f68cb741d0779160e141ccf5dd579423de44febc76c0edddcc6167807a3c16af792169283600052600260205281600020549084600052600260205280836000205582519182526020820152a2005b60405162461bcd60e51b8152602060048201526011602482015270141c9a58d9481a5cc81c995c5d5a5c9959607a1b6044820152606490fd5b346101b35760003660031901126101b3576000546040516001600160a01b039091168152602090f35b346101b35760403660031901126101b357610582610ff7565b61058a61100d565b906105948261117c565b60018060a01b0316600052600660205260ff60406000209116600052602052602060ff604060002054166040519015158152f35b346101b35760003660031901126101b3576001546040516001600160a01b039091168152602090f35b346101b35760203660031901126101b3576001600160a01b03610612610ff7565b166000526005602052608060406000206001815491015460ff604051928181161515845260018060a01b038160081c16602085015260a81c1660408301526060820152f35b346101b35760203660031901126101b35760ff61067261101d565b166000526004602052602060ff604060002054166040519015158152f35b346101b35760403660031901126101b3576106a961101d565b602435906106b68161117c565b81151580610788575b156107505760ff1660005260076020526040600020600019820191821161073a5760c0916106ec91611057565b5060018060a01b0381541690600181015490600281015460038201549060ff6005600485015494015416936040519586526020860152604085015260608401526080830152151560a0820152f35b634e487b7160e01b600052601160045260246000fd5b60405162461bcd60e51b815260206004820152601060248201526f24b73b30b634b2103837b9b4ba34b7b760811b6044820152606490fd5b5060ff811660005260076020526040600020548211156106bf565b60403660031901126101b3576107b761101d565b6024356001600160a01b038116918282036101b3576107d58161117c565b60ff81169283600052600460205260ff6040600020541615610f00578360005260026020526040600020543403610ebb5733600090815260056020908152604080832060068352818420888552909252909120805491949092909160ff16610e765760ff85541615610dfc575b5050805461ffff191660019081179091558201805461086290349061103b565b905560ff825460a81c168311610de0575b61087d338261125c565b8360005260076020526040600020600019820182811161073a576108a360019183611057565b500154801591908215610dc6576108bb85600061196e565b926000610514803402903482041434151715610d0e576127109004946001600160a01b0316905080610dc157506001546001600160a01b03165b6108ff85826118d4565b6040805160018152602081018790526001600160a01b039092169133917f53aa79cc77a3d2e16f0f104bce3b3da868f1ec7596a2cc49a09f8103982da83491a360009015610da057505060005b8015928315610d865761096086600061196e565b906000610320803402903482041434151715610d0e576109ee936127109091049291506001600160a01b031680610d8157506001546001600160a01b03165b6109a983826118d4565b6040805160028152602081018590526001600160a01b039092169133917f53aa79cc77a3d2e16f0f104bce3b3da868f1ec7596a2cc49a09f8103982da83491a361103b565b9260009015610d4c57505060005b80610d22575050610a0e83600061196e565b9060006101f4803402903482041434151715610d0e57610a9c936127109091049291506001600160a01b031680610d0957506001546001600160a01b03165b610a5783826118d4565b6040805160038152602081018590526001600160a01b039092169133917f53aa79cc77a3d2e16f0f104bce3b3da868f1ec7596a2cc49a09f8103982da83491a361103b565b611ce83402348104611ce8143415171561073a576127109004916001600160a01b0390610acb903390866116e3565b1691610ad781846118d4565b8260005260066020526040600020866000526020526003604060002001610aff82825461103b565b905560015486906001600160a01b031684141580610d00575b610bf8575b8381610b80956040518581527f36d4c4c7a721a6c7d4bddd2467b91089649fd027c4451f39bc99737e9be776d660203392a46040518381527f16ba2b19bb64507cf2c1a04b1f42c44aecacda5b2b3ad30b3e05ffd1a711915b60203392a461103b565b90813411610bd0575b610b949150336114d2565b5460018060a01b039060081c16906040513481527fa39f8d2643b307a6345b215d0bb56b5221ecb986b9fa3da427929b7571b92a0d60203392a4005b60018060a01b03600154169134039134831161073a57610b9492610bf3916118d4565b610b89565b5082600052600660205260406000208660005260205260016040600020018054906001820180921161073a5755826000526006602052856040806000206000908382526020522093601082109485610cef575b85610cb1575b610b809580610ca2575b610c68575b509350610b1d565b805461ff00191661010017905581817f9eedad69e1da086c8d70014edef61addc1d62bfdf25b1dcd3484ad720b970762600080a388610c60565b5060ff815460081c1615610c5b565b6000828152600660205260409020955060018901925060ff831161073a57610b809560ff8a941660005260205260ff60406000205416159550610c51565b945060026001860154101594610c4b565b50831515610b18565b610a4d565b634e487b7160e01b82526011600452602482fd5b600019810190811161073a57610d3c8591610a0e93611057565b50546001600160a01b031661196e565b6000198201918211610d6d5750610d6560019183611057565b5001546109fc565b634e487b7160e01b81526011600452602490fd5b61099f565b600019820182811161073a5786610d3c6109609286611057565b6000198201918211610d6d5750610db960019183611057565b50015461094c565b6108f5565b600019810181811161073a5785610d3c6108bb9285611057565b815460ff60a81b191660a882901b60ff60a81b16178255610873565b845460ff191660011785558015159081610e6b575b5080610e49575b610e23575b80610842565b8354610100600160a81b03191660089190911b610100600160a81b031617835584610e1d565b506001600160a01b03811660009081526005602052604090205460ff16610e18565b905033141586610e11565b60405162461bcd60e51b815260206004820152601760248201527f4c6576656c20697320616c7265616479206163746976650000000000000000006044820152606490fd5b60405162461bcd60e51b815260206004820152601860248201527f496e636f7272656374207061796d656e7420616d6f756e7400000000000000006044820152606490fd5b60405162461bcd60e51b815260206004820152601a60248201527f4c6576656c206973206e6f7420617661696c61626c65207965740000000000006044820152606490fd5b346101b35760203660031901126101b35760ff610f6061101d565b1660005260026020526020604060002054604051908152f35b346101b35760003660031901126101b357602060405160108152f35b346101b35760403660031901126101b357610fae610ff7565b610fb661100d565b90610fc08261117c565b60018060a01b0316600052600660205260ff60406000209116600052602052602060ff60406000205460081c166040519015158152f35b600435906001600160a01b03821682036101b357565b6024359060ff821682036101b357565b6004359060ff821682036101b357565b906001820180921161073a57565b9190820180921161073a57565b60001981019190821161073a57565b8054821015611073576000526006602060002091020190600090565b634e487b7160e01b600052603260045260246000fd5b1561109057565b60405162461bcd60e51b815260206004820152602160248201527f4f6e6c79206f776e65722063616e2063616c6c20746869732066756e6374696f6044820152603760f91b6064820152608490fd5b6110e88261117c565b60018060a01b03166000526006602052604060002060ff82166000526020526002604060002001549081156111665760ff1660005260076020526040600020600019820182811161073a5761113c91611057565b509160018301549260028101549260038201549260ff600560048501549401541691959493929190565b5050600090600090600090600090600090600090565b60ff16600181101590816111c8575b501561119357565b60405162461bcd60e51b815260206004820152600d60248201526c125b9d985b1a59081b195d995b609a1b6044820152606490fd5b6010915011153861118b565b8054680100000000000000008110156111fa576111f691600182018155611057565b9091565b634e487b7160e01b600052604160045260246000fd5b1561121757565b60405162461bcd60e51b815260206004820152601760248201527f4d617472697820706172656e7420697320636c6f7365640000000000000000006044820152606490fd5b906112748260ff166000526007602052604060002090565b91600090600093805415611459575b60018154118015611451575b611329575b8160ff918660026112ee7fd8a08c0c1f4b5e930e1da0bd0b50635c1f9de780c217ce3fa2a17686579146c8966112dc8a60018060a01b03166000526006602052604060002090565b9060ff16600052602052604060002090565b0155546113088260ff166000526003602052604060002090565b556040805187815260208101959095529116936001600160a01b031692a390565b935090506113448160ff166000526008602052604060002090565b54908115611448575b61135f61135983611048565b85611057565b5093600585019461138061137b611377885460ff1690565b1590565b611210565b6113e16005611392600484015461102d565b61139b856111d4565b50506113b06113aa8654611048565b86611057565b5080546001600160a01b0319166001600160a01b038a161781559087600183015560048201550160ff198154169055565b8154958660028301805415611440575b54036113ff575b5050611294565b8161141d61143392896003611439960155600160ff19825416179055565b6114268561157c565b546001600160a01b031690565b83611618565b38806113f8565b8181556113f1565b6001915061134d565b50841561128f565b9350611464846111d4565b50506114aa600561147e6114788754611048565b87611057565b5080546001600160a01b0319166001600160a01b0387161781556000600482015501805460ff19169055565b6114ca6114c48260ff166000526008602052604060002090565b60019055565b835493611283565b9060ff169060018211156115695760015b60ff8116838110156115635760ff91600191828060a01b038516806000526006602052604080600020600090848252602052208054868160081c1661152e575b5050505001166114e3565b61ff00191690557fb0f7d96751587de2fbb05ae8bb25971ba7cd777de717eb3698b701d6c7739654600080a338808080611523565b50505050565b5050565b600019811461073a5760010190565b60ff1680600052600760205260406000209080600052600860205260406000205491821561160f575b918254905b81811115806115eb575b156115c7576115c29061156d565b6115aa565b91925081116115e257905b6000526008602052604060002055565b506000906115d2565b50600019810181811161073a57600561160660ff9287611057565b500154166115b4565b600192506115a5565b60018060a01b038216908160005260066020526116468160406000209060ff16600052602052604060002090565b92835460ff8116159081156116b3575b5061156357611665908261125c565b7fbde1dd97b8c6b9fb71194209f50387cccf9ec5cc5c0e9aa18b13c93cf78ce6e8916116ae600160ff939601549560405193849316968360209093929193604081019481520152565b0390a3565b60ff915060081c1638611656565b90601f8019910116810190811067ffffffffffffffff8211176111fa57604052565b60ff811660009081526007602052604081209193919290916000198201918481841161073a5760016117158583611057565b50015490815b6118a657505083156118905784546040519160208301934485524260408501526bffffffffffffffffffffffff199060601b16606084015260ff60f81b8860f81b166074840152607583015260958201526095815261177b60b5826116c1565b5190209180600093069060016117918487611057565b5001549184925b82841061181957505050506117af60019184611057565b500154805b6117cc5750506001546001600160a01b031692915050565b6000198101908111610d0e576117e28184611057565b50546001600160a01b03166117f78582611991565b611811575061180860019184611057565b500154806117b4565b935050505090565b600019810190811161187c5761182f8188611057565b50546001600160a01b03168483148061186c575b61186057506001611855819289611057565b500154930192611798565b97505050505050505090565b506118778982611991565b611843565b634e487b7160e01b86526011600452602486fd5b50506001546001600160a01b0316949350505050565b90946118b19061156d565b94600019810190811161073a576118ca60019183611057565b500154908161171b565b8115611569576000918291829182916001600160a01b03165af13d15611969573d67ffffffffffffffff81116111fa576040519061191c601f8201601f1916602001836116c1565b8152600060203d92013e5b1561192e57565b60405162461bcd60e51b8152602060048201526013602482015272115512081d1c985b9cd9995c8819985a5b1959606a1b6044820152606490fd5b611927565b906119799082611991565b156119815790565b506001546001600160a01b031690565b6001600160a01b03168015159190826119d9575b826119af57505090565b909150600052600660205260ff6040600020911660005260205260ff60406000205460081c161590565b8092506000526006602052604060002060ff821660005260205260ff60406000205416916119a556fea26469706673582212204f78704d9448b56d659e71f96787d2dbeec33c2ee59ea87824dae19c0dd24e9e64736f6c63430008230033",
  "linkReferences": {},
  "deployedLinkReferences": {}
}