{
  "_format": "hh-sol-artifact-1",
  "contractName": "EasyGameAdvance",
  "sourceName": "contracts/EasyGameAdvance.sol",
  "abi": [
    {
      "inputs": [
        {
          "internalType": "address",
          "name": "projectWallet_",
          "type": "address"
        },
        {
          "internalType": "address",
          "name": "treasuryWallet_",
          "type": "address"
        },
        {
          "internalType": "address",
          "name": "operatorWallet_",
          "type": "address"
        },
        {
          "internalType": "address",
          "name": "usdcToken_",
          "type": "address"
        },
        {
          "internalType": "address",
          "name": "roundManager_",
          "type": "address"
        }
      ],
      "stateMutability": "nonpayable",
      "type": "constructor"
    },
    {
      "inputs": [],
      "name": "IncorrectRoundPayment",
      "type": "error"
    },
    {
      "inputs": [
        {
          "internalType": "uint8",
          "name": "level",
          "type": "uint8"
        }
      ],
      "name": "InvalidLevel",
      "type": "error"
    },
    {
      "inputs": [
        {
          "internalType": "uint256",
          "name": "requested",
          "type": "uint256"
        },
        {
          "internalType": "uint256",
          "name": "maximum",
          "type": "uint256"
        }
      ],
      "name": "InvalidRecycleBatch",
      "type": "error"
    },
    {
      "inputs": [
        {
          "internalType": "uint256",
          "name": "roundId",
          "type": "uint256"
        },
        {
          "internalType": "uint256",
          "name": "cellId",
          "type": "uint256"
        }
      ],
      "name": "InvalidRoundCell",
      "type": "error"
    },
    {
      "inputs": [],
      "name": "LegacyActivationDisabled",
      "type": "error"
    },
    {
      "inputs": [
        {
          "internalType": "uint8",
          "name": "level",
          "type": "uint8"
        }
      ],
      "name": "LevelEmergencyPaused",
      "type": "error"
    },
    {
      "inputs": [
        {
          "internalType": "uint256",
          "name": "roundId",
          "type": "uint256"
        },
        {
          "internalType": "uint256",
          "name": "parentCellId",
          "type": "uint256"
        }
      ],
      "name": "RoundParentAlreadyClosed",
      "type": "error"
    },
    {
      "inputs": [
        {
          "internalType": "uint256",
          "name": "roundId",
          "type": "uint256"
        },
        {
          "internalType": "address",
          "name": "player",
          "type": "address"
        }
      ],
      "name": "RoundTicketAlreadyActive",
      "type": "error"
    },
    {
      "inputs": [],
      "name": "RoundUsdcDisabled",
      "type": "error"
    },
    {
      "inputs": [],
      "name": "TokenTransferFailed",
      "type": "error"
    },
    {
      "inputs": [],
      "name": "WeightedDrawDisabled",
      "type": "error"
    },
    {
      "inputs": [],
      "name": "ZeroAddress",
      "type": "error"
    },
    {
      "anonymous": false,
      "inputs": [
        {
          "indexed": true,
          "internalType": "address",
          "name": "player",
          "type": "address"
        },
        {
          "indexed": true,
          "internalType": "uint8",
          "name": "level",
          "type": "uint8"
        },
        {
          "indexed": false,
          "internalType": "uint256",
          "name": "amount",
          "type": "uint256"
        }
      ],
      "name": "BoxTokenGranted",
      "type": "event"
    },
    {
      "anonymous": false,
      "inputs": [
        {
          "indexed": true,
          "internalType": "uint8",
          "name": "level",
          "type": "uint8"
        },
        {
          "indexed": false,
          "internalType": "uint256",
          "name": "randomSeed",
          "type": "uint256"
        },
        {
          "indexed": false,
          "internalType": "uint256",
          "name": "totalWeight",
          "type": "uint256"
        }
      ],
      "name": "DrawRequested",
      "type": "event"
    },
    {
      "anonymous": false,
      "inputs": [
        {
          "indexed": true,
          "internalType": "address",
          "name": "winner",
          "type": "address"
        },
        {
          "indexed": true,
          "internalType": "uint8",
          "name": "level",
          "type": "uint8"
        },
        {
          "indexed": false,
          "internalType": "uint256",
          "name": "amount",
          "type": "uint256"
        },
        {
          "indexed": false,
          "internalType": "bool",
          "name": "pending",
          "type": "bool"
        }
      ],
      "name": "DrawWon",
      "type": "event"
    },
    {
      "anonymous": false,
      "inputs": [
        {
          "indexed": false,
          "internalType": "bool",
          "name": "enabled",
          "type": "bool"
        }
      ],
      "name": "LegacyActivationChanged",
      "type": "event"
    },
    {
      "anonymous": false,
      "inputs": [
        {
          "indexed": true,
          "internalType": "address",
          "name": "player",
          "type": "address"
        },
        {
          "indexed": true,
          "internalType": "uint8",
          "name": "level",
          "type": "uint8"
        },
        {
          "indexed": false,
          "internalType": "uint256",
          "name": "value",
          "type": "uint256"
        },
        {
          "indexed": false,
          "internalType": "uint256",
          "name": "cellId",
          "type": "uint256"
        }
      ],
      "name": "LevelActivated",
      "type": "event"
    },
    {
      "anonymous": false,
      "inputs": [
        {
          "indexed": true,
          "internalType": "uint8",
          "name": "level",
          "type": "uint8"
        },
        {
          "indexed": false,
          "internalType": "bool",
          "name": "available",
          "type": "bool"
        }
      ],
      "name": "LevelAvailabilityChanged",
      "type": "event"
    },
    {
      "anonymous": false,
      "inputs": [
        {
          "indexed": true,
          "internalType": "address",
          "name": "player",
          "type": "address"
        },
        {
          "indexed": true,
          "internalType": "uint8",
          "name": "level",
          "type": "uint8"
        }
      ],
      "name": "LevelFrozen",
      "type": "event"
    },
    {
      "anonymous": false,
      "inputs": [
        {
          "indexed": true,
          "internalType": "uint8",
          "name": "level",
          "type": "uint8"
        },
        {
          "indexed": false,
          "internalType": "uint256",
          "name": "oldPrice",
          "type": "uint256"
        },
        {
          "indexed": false,
          "internalType": "uint256",
          "name": "newPrice",
          "type": "uint256"
        }
      ],
      "name": "LevelPriceChanged",
      "type": "event"
    },
    {
      "anonymous": false,
      "inputs": [
        {
          "indexed": true,
          "internalType": "address",
          "name": "player",
          "type": "address"
        },
        {
          "indexed": true,
          "internalType": "uint8",
          "name": "level",
          "type": "uint8"
        }
      ],
      "name": "LevelUnfrozen",
      "type": "event"
    },
    {
      "anonymous": false,
      "inputs": [
        {
          "indexed": true,
          "internalType": "uint8",
          "name": "level",
          "type": "uint8"
        },
        {
          "indexed": false,
          "internalType": "uint256",
          "name": "oldPrice",
          "type": "uint256"
        },
        {
          "indexed": false,
          "internalType": "uint256",
          "name": "newPrice",
          "type": "uint256"
        }
      ],
      "name": "LevelUsdcPriceChanged",
      "type": "event"
    },
    {
      "anonymous": false,
      "inputs": [
        {
          "indexed": true,
          "internalType": "address",
          "name": "player",
          "type": "address"
        },
        {
          "indexed": true,
          "internalType": "uint8",
          "name": "level",
          "type": "uint8"
        },
        {
          "indexed": true,
          "internalType": "uint256",
          "name": "cellId",
          "type": "uint256"
        },
        {
          "indexed": false,
          "internalType": "uint256",
          "name": "parentCellId",
          "type": "uint256"
        }
      ],
      "name": "MatrixPlaced",
      "type": "event"
    },
    {
      "anonymous": false,
      "inputs": [
        {
          "indexed": true,
          "internalType": "address",
          "name": "previousOwner",
          "type": "address"
        },
        {
          "indexed": true,
          "internalType": "address",
          "name": "newOwner",
          "type": "address"
        }
      ],
      "name": "OwnershipTransferred",
      "type": "event"
    },
    {
      "anonymous": false,
      "inputs": [
        {
          "indexed": true,
          "internalType": "address",
          "name": "player",
          "type": "address"
        },
        {
          "indexed": true,
          "internalType": "uint8",
          "name": "level",
          "type": "uint8"
        },
        {
          "indexed": false,
          "internalType": "uint256",
          "name": "matrixPrizeAmount",
          "type": "uint256"
        },
        {
          "indexed": false,
          "internalType": "uint256",
          "name": "directReferralAmount",
          "type": "uint256"
        },
        {
          "indexed": false,
          "internalType": "uint256",
          "name": "secondLineAmount",
          "type": "uint256"
        },
        {
          "indexed": false,
          "internalType": "uint256",
          "name": "thirdLineAmount",
          "type": "uint256"
        },
        {
          "indexed": false,
          "internalType": "uint256",
          "name": "projectFeeAmount",
          "type": "uint256"
        }
      ],
      "name": "PaymentSplit",
      "type": "event"
    },
    {
      "anonymous": false,
      "inputs": [
        {
          "indexed": true,
          "internalType": "address",
          "name": "player",
          "type": "address"
        },
        {
          "indexed": true,
          "internalType": "uint8",
          "name": "level",
          "type": "uint8"
        },
        {
          "indexed": false,
          "internalType": "uint256",
          "name": "amount",
          "type": "uint256"
        }
      ],
      "name": "PrizeClaimed",
      "type": "event"
    },
    {
      "anonymous": false,
      "inputs": [
        {
          "indexed": true,
          "internalType": "address",
          "name": "player",
          "type": "address"
        },
        {
          "indexed": true,
          "internalType": "uint8",
          "name": "level",
          "type": "uint8"
        },
        {
          "indexed": true,
          "internalType": "uint256",
          "name": "cellId",
          "type": "uint256"
        },
        {
          "indexed": false,
          "internalType": "uint256",
          "name": "amount",
          "type": "uint256"
        },
        {
          "indexed": false,
          "internalType": "bool",
          "name": "pending",
          "type": "bool"
        }
      ],
      "name": "PrizePositionReached",
      "type": "event"
    },
    {
      "anonymous": false,
      "inputs": [
        {
          "indexed": true,
          "internalType": "uint8",
          "name": "level",
          "type": "uint8"
        },
        {
          "indexed": false,
          "internalType": "uint256",
          "name": "amount",
          "type": "uint256"
        },
        {
          "indexed": false,
          "internalType": "uint256",
          "name": "totalAccrued",
          "type": "uint256"
        }
      ],
      "name": "ProjectFeeAccrued",
      "type": "event"
    },
    {
      "anonymous": false,
      "inputs": [
        {
          "indexed": true,
          "internalType": "address",
          "name": "wallet",
          "type": "address"
        },
        {
          "indexed": false,
          "internalType": "uint256",
          "name": "amount",
          "type": "uint256"
        }
      ],
      "name": "ProjectFeesWithdrawn",
      "type": "event"
    },
    {
      "anonymous": false,
      "inputs": [
        {
          "indexed": true,
          "internalType": "address",
          "name": "player",
          "type": "address"
        },
        {
          "indexed": true,
          "internalType": "uint8",
          "name": "level",
          "type": "uint8"
        },
        {
          "indexed": true,
          "internalType": "uint256",
          "name": "queueIndex",
          "type": "uint256"
        }
      ],
      "name": "RecycleQueued",
      "type": "event"
    },
    {
      "anonymous": false,
      "inputs": [
        {
          "indexed": true,
          "internalType": "address",
          "name": "player",
          "type": "address"
        },
        {
          "indexed": true,
          "internalType": "uint8",
          "name": "level",
          "type": "uint8"
        },
        {
          "indexed": false,
          "internalType": "uint256",
          "name": "recycleCount",
          "type": "uint256"
        },
        {
          "indexed": false,
          "internalType": "uint256",
          "name": "newCellId",
          "type": "uint256"
        }
      ],
      "name": "Recycled",
      "type": "event"
    },
    {
      "anonymous": false,
      "inputs": [
        {
          "indexed": true,
          "internalType": "address",
          "name": "inviter",
          "type": "address"
        },
        {
          "indexed": true,
          "internalType": "address",
          "name": "invitee",
          "type": "address"
        },
        {
          "indexed": true,
          "internalType": "uint8",
          "name": "level",
          "type": "uint8"
        },
        {
          "indexed": false,
          "internalType": "uint256",
          "name": "bonusAmount",
          "type": "uint256"
        },
        {
          "indexed": false,
          "internalType": "uint256",
          "name": "weightAdded",
          "type": "uint256"
        }
      ],
      "name": "ReferralBonusAdded",
      "type": "event"
    },
    {
      "anonymous": false,
      "inputs": [
        {
          "indexed": true,
          "internalType": "address",
          "name": "player",
          "type": "address"
        },
        {
          "indexed": false,
          "internalType": "uint256",
          "name": "amount",
          "type": "uint256"
        }
      ],
      "name": "ReferralBonusClaimed",
      "type": "event"
    },
    {
      "anonymous": false,
      "inputs": [
        {
          "indexed": true,
          "internalType": "address",
          "name": "player",
          "type": "address"
        },
        {
          "indexed": true,
          "internalType": "uint256",
          "name": "roundId",
          "type": "uint256"
        },
        {
          "indexed": true,
          "internalType": "uint8",
          "name": "level",
          "type": "uint8"
        },
        {
          "indexed": false,
          "internalType": "uint256",
          "name": "amount",
          "type": "uint256"
        },
        {
          "indexed": false,
          "internalType": "uint256",
          "name": "cellId",
          "type": "uint256"
        },
        {
          "indexed": false,
          "internalType": "bool",
          "name": "paidWithUsdc",
          "type": "bool"
        }
      ],
      "name": "RoundActivated",
      "type": "event"
    },
    {
      "anonymous": false,
      "inputs": [
        {
          "indexed": true,
          "internalType": "address",
          "name": "oldManager",
          "type": "address"
        },
        {
          "indexed": true,
          "internalType": "address",
          "name": "newManager",
          "type": "address"
        }
      ],
      "name": "RoundManagerChanged",
      "type": "event"
    },
    {
      "anonymous": false,
      "inputs": [
        {
          "indexed": true,
          "internalType": "address",
          "name": "player",
          "type": "address"
        },
        {
          "indexed": true,
          "internalType": "uint256",
          "name": "roundId",
          "type": "uint256"
        },
        {
          "indexed": true,
          "internalType": "uint256",
          "name": "cellId",
          "type": "uint256"
        },
        {
          "indexed": false,
          "internalType": "uint256",
          "name": "parentCellId",
          "type": "uint256"
        }
      ],
      "name": "RoundMatrixPlaced",
      "type": "event"
    },
    {
      "anonymous": false,
      "inputs": [
        {
          "indexed": true,
          "internalType": "address",
          "name": "player",
          "type": "address"
        },
        {
          "indexed": true,
          "internalType": "uint256",
          "name": "roundId",
          "type": "uint256"
        },
        {
          "indexed": false,
          "internalType": "uint256",
          "name": "matrixPrizeAmount",
          "type": "uint256"
        },
        {
          "indexed": false,
          "internalType": "uint256",
          "name": "directReferralAmount",
          "type": "uint256"
        },
        {
          "indexed": false,
          "internalType": "uint256",
          "name": "secondLineAmount",
          "type": "uint256"
        },
        {
          "indexed": false,
          "internalType": "uint256",
          "name": "thirdLineAmount",
          "type": "uint256"
        },
        {
          "indexed": false,
          "internalType": "uint256",
          "name": "projectFeeAmount",
          "type": "uint256"
        },
        {
          "indexed": false,
          "internalType": "bool",
          "name": "paidWithUsdc",
          "type": "bool"
        }
      ],
      "name": "RoundPaymentSplit",
      "type": "event"
    },
    {
      "anonymous": false,
      "inputs": [
        {
          "indexed": true,
          "internalType": "address",
          "name": "player",
          "type": "address"
        },
        {
          "indexed": true,
          "internalType": "uint256",
          "name": "roundId",
          "type": "uint256"
        },
        {
          "indexed": false,
          "internalType": "uint256",
          "name": "cycleCount",
          "type": "uint256"
        },
        {
          "indexed": false,
          "internalType": "uint256",
          "name": "newCellId",
          "type": "uint256"
        }
      ],
      "name": "RoundRecycled",
      "type": "event"
    },
    {
      "anonymous": false,
      "inputs": [
        {
          "indexed": true,
          "internalType": "address",
          "name": "player",
          "type": "address"
        },
        {
          "indexed": true,
          "internalType": "uint256",
          "name": "roundId",
          "type": "uint256"
        },
        {
          "indexed": false,
          "internalType": "uint256",
          "name": "totalWeight",
          "type": "uint256"
        }
      ],
      "name": "RoundWeightUpdated",
      "type": "event"
    },
    {
      "anonymous": false,
      "inputs": [
        {
          "indexed": true,
          "internalType": "address",
          "name": "inviter",
          "type": "address"
        },
        {
          "indexed": true,
          "internalType": "address",
          "name": "invitee",
          "type": "address"
        },
        {
          "indexed": true,
          "internalType": "uint8",
          "name": "level",
          "type": "uint8"
        },
        {
          "indexed": false,
          "internalType": "uint256",
          "name": "bonusAmount",
          "type": "uint256"
        },
        {
          "indexed": false,
          "internalType": "uint256",
          "name": "weightAdded",
          "type": "uint256"
        }
      ],
      "name": "SecondLineBonusAdded",
      "type": "event"
    },
    {
      "anonymous": false,
      "inputs": [
        {
          "indexed": true,
          "internalType": "address",
          "name": "inviter",
          "type": "address"
        },
        {
          "indexed": true,
          "internalType": "address",
          "name": "invitee",
          "type": "address"
        },
        {
          "indexed": true,
          "internalType": "uint8",
          "name": "level",
          "type": "uint8"
        },
        {
          "indexed": false,
          "internalType": "uint256",
          "name": "bonusAmount",
          "type": "uint256"
        },
        {
          "indexed": false,
          "internalType": "uint256",
          "name": "weightAdded",
          "type": "uint256"
        }
      ],
      "name": "ThirdLineBonusAdded",
      "type": "event"
    },
    {
      "anonymous": false,
      "inputs": [
        {
          "indexed": true,
          "internalType": "address",
          "name": "winner",
          "type": "address"
        },
        {
          "indexed": true,
          "internalType": "uint8",
          "name": "level",
          "type": "uint8"
        },
        {
          "indexed": true,
          "internalType": "address",
          "name": "token",
          "type": "address"
        },
        {
          "indexed": false,
          "internalType": "uint256",
          "name": "amount",
          "type": "uint256"
        },
        {
          "indexed": false,
          "internalType": "bool",
          "name": "pending",
          "type": "bool"
        }
      ],
      "name": "TokenDrawWon",
      "type": "event"
    },
    {
      "anonymous": false,
      "inputs": [
        {
          "indexed": true,
          "internalType": "address",
          "name": "player",
          "type": "address"
        },
        {
          "indexed": true,
          "internalType": "uint8",
          "name": "level",
          "type": "uint8"
        },
        {
          "indexed": true,
          "internalType": "address",
          "name": "token",
          "type": "address"
        },
        {
          "indexed": false,
          "internalType": "uint256",
          "name": "matrixPrizeAmount",
          "type": "uint256"
        },
        {
          "indexed": false,
          "internalType": "uint256",
          "name": "directReferralAmount",
          "type": "uint256"
        },
        {
          "indexed": false,
          "internalType": "uint256",
          "name": "secondLineAmount",
          "type": "uint256"
        },
        {
          "indexed": false,
          "internalType": "uint256",
          "name": "thirdLineAmount",
          "type": "uint256"
        },
        {
          "indexed": false,
          "internalType": "uint256",
          "name": "projectFeeAmount",
          "type": "uint256"
        }
      ],
      "name": "TokenPaymentSplit",
      "type": "event"
    },
    {
      "anonymous": false,
      "inputs": [
        {
          "indexed": true,
          "internalType": "address",
          "name": "player",
          "type": "address"
        },
        {
          "indexed": true,
          "internalType": "address",
          "name": "token",
          "type": "address"
        },
        {
          "indexed": true,
          "internalType": "uint8",
          "name": "level",
          "type": "uint8"
        },
        {
          "indexed": false,
          "internalType": "uint256",
          "name": "amount",
          "type": "uint256"
        }
      ],
      "name": "TokenPrizeClaimed",
      "type": "event"
    },
    {
      "anonymous": false,
      "inputs": [
        {
          "indexed": true,
          "internalType": "address",
          "name": "player",
          "type": "address"
        },
        {
          "indexed": true,
          "internalType": "uint8",
          "name": "level",
          "type": "uint8"
        },
        {
          "indexed": true,
          "internalType": "address",
          "name": "token",
          "type": "address"
        },
        {
          "indexed": false,
          "internalType": "uint256",
          "name": "cellId",
          "type": "uint256"
        },
        {
          "indexed": false,
          "internalType": "uint256",
          "name": "amount",
          "type": "uint256"
        },
        {
          "indexed": false,
          "internalType": "bool",
          "name": "pending",
          "type": "bool"
        }
      ],
      "name": "TokenPrizePositionReached",
      "type": "event"
    },
    {
      "anonymous": false,
      "inputs": [
        {
          "indexed": true,
          "internalType": "address",
          "name": "token",
          "type": "address"
        },
        {
          "indexed": true,
          "internalType": "uint8",
          "name": "level",
          "type": "uint8"
        },
        {
          "indexed": false,
          "internalType": "uint256",
          "name": "amount",
          "type": "uint256"
        },
        {
          "indexed": false,
          "internalType": "uint256",
          "name": "totalAccrued",
          "type": "uint256"
        }
      ],
      "name": "TokenProjectFeeAccrued",
      "type": "event"
    },
    {
      "anonymous": false,
      "inputs": [
        {
          "indexed": true,
          "internalType": "address",
          "name": "token",
          "type": "address"
        },
        {
          "indexed": true,
          "internalType": "address",
          "name": "wallet",
          "type": "address"
        },
        {
          "indexed": false,
          "internalType": "uint256",
          "name": "amount",
          "type": "uint256"
        }
      ],
      "name": "TokenProjectFeesWithdrawn",
      "type": "event"
    },
    {
      "anonymous": false,
      "inputs": [
        {
          "indexed": true,
          "internalType": "address",
          "name": "player",
          "type": "address"
        },
        {
          "indexed": true,
          "internalType": "address",
          "name": "token",
          "type": "address"
        },
        {
          "indexed": false,
          "internalType": "uint256",
          "name": "amount",
          "type": "uint256"
        }
      ],
      "name": "TokenReferralBonusClaimed",
      "type": "event"
    },
    {
      "anonymous": false,
      "inputs": [
        {
          "indexed": true,
          "internalType": "address",
          "name": "oldToken",
          "type": "address"
        },
        {
          "indexed": true,
          "internalType": "address",
          "name": "newToken",
          "type": "address"
        }
      ],
      "name": "UsdcTokenChanged",
      "type": "event"
    },
    {
      "anonymous": false,
      "inputs": [
        {
          "indexed": false,
          "internalType": "address",
          "name": "projectWallet",
          "type": "address"
        },
        {
          "indexed": false,
          "internalType": "address",
          "name": "treasuryWallet",
          "type": "address"
        },
        {
          "indexed": false,
          "internalType": "address",
          "name": "operatorWallet",
          "type": "address"
        }
      ],
      "name": "WalletsChanged",
      "type": "event"
    },
    {
      "anonymous": false,
      "inputs": [
        {
          "indexed": true,
          "internalType": "address",
          "name": "player",
          "type": "address"
        },
        {
          "indexed": true,
          "internalType": "uint8",
          "name": "level",
          "type": "uint8"
        },
        {
          "indexed": false,
          "internalType": "uint256",
          "name": "totalWeight",
          "type": "uint256"
        }
      ],
      "name": "WeightUpdated",
      "type": "event"
    },
    {
      "inputs": [],
      "name": "BASE_ACTIVATION_WEIGHT",
      "outputs": [
        {
          "internalType": "uint256",
          "name": "",
          "type": "uint256"
        }
      ],
      "stateMutability": "view",
      "type": "function"
    },
    {
      "inputs": [],
      "name": "BOX_NFT_WEIGHT",
      "outputs": [
        {
          "internalType": "uint256",
          "name": "",
          "type": "uint256"
        }
      ],
      "stateMutability": "view",
      "type": "function"
    },
    {
      "inputs": [],
      "name": "BPS",
      "outputs": [
        {
          "internalType": "uint256",
          "name": "",
          "type": "uint256"
        }
      ],
      "stateMutability": "view",
      "type": "function"
    },
    {
      "inputs": [],
      "name": "DIRECT_REF_BPS",
      "outputs": [
        {
          "internalType": "uint256",
          "name": "",
          "type": "uint256"
        }
      ],
      "stateMutability": "view",
      "type": "function"
    },
    {
      "inputs": [],
      "name": "DIRECT_REF_WEIGHT",
      "outputs": [
        {
          "internalType": "uint256",
          "name": "",
          "type": "uint256"
        }
      ],
      "stateMutability": "view",
      "type": "function"
    },
    {
      "inputs": [],
      "name": "DRAW_REWARD_BPS",
      "outputs": [
        {
          "internalType": "uint256",
          "name": "",
          "type": "uint256"
        }
      ],
      "stateMutability": "view",
      "type": "function"
    },
    {
      "inputs": [],
      "name": "LEVEL_COUNT",
      "outputs": [
        {
          "internalType": "uint8",
          "name": "",
          "type": "uint8"
        }
      ],
      "stateMutability": "view",
      "type": "function"
    },
    {
      "inputs": [],
      "name": "MATRIX_PRIZE_BPS",
      "outputs": [
        {
          "internalType": "uint256",
          "name": "",
          "type": "uint256"
        }
      ],
      "stateMutability": "view",
      "type": "function"
    },
    {
      "inputs": [],
      "name": "MAX_BASE_WEIGHT_PER_LEVEL",
      "outputs": [
        {
          "internalType": "uint256",
          "name": "",
          "type": "uint256"
        }
      ],
      "stateMutability": "view",
      "type": "function"
    },
    {
      "inputs": [],
      "name": "MAX_LOYALTY_WEIGHT_PER_LEVEL",
      "outputs": [
        {
          "internalType": "uint256",
          "name": "",
          "type": "uint256"
        }
      ],
      "stateMutability": "view",
      "type": "function"
    },
    {
      "inputs": [],
      "name": "MAX_MATRIX_WEIGHT_PER_LEVEL",
      "outputs": [
        {
          "internalType": "uint256",
          "name": "",
          "type": "uint256"
        }
      ],
      "stateMutability": "view",
      "type": "function"
    },
    {
      "inputs": [],
      "name": "MAX_NFT_WEIGHT_PER_LEVEL",
      "outputs": [
        {
          "internalType": "uint256",
          "name": "",
          "type": "uint256"
        }
      ],
      "stateMutability": "view",
      "type": "function"
    },
    {
      "inputs": [],
      "name": "MAX_RECYCLE_STEPS_PER_TX",
      "outputs": [
        {
          "internalType": "uint8",
          "name": "",
          "type": "uint8"
        }
      ],
      "stateMutability": "view",
      "type": "function"
    },
    {
      "inputs": [],
      "name": "MAX_REFERRAL_WEIGHT_PER_LEVEL",
      "outputs": [
        {
          "internalType": "uint256",
          "name": "",
          "type": "uint256"
        }
      ],
      "stateMutability": "view",
      "type": "function"
    },
    {
      "inputs": [],
      "name": "MAX_TOTAL_WEIGHT_PER_LEVEL",
      "outputs": [
        {
          "internalType": "uint256",
          "name": "",
          "type": "uint256"
        }
      ],
      "stateMutability": "view",
      "type": "function"
    },
    {
      "inputs": [],
      "name": "PRIZE_POSITION_BPS",
      "outputs": [
        {
          "internalType": "uint256",
          "name": "",
          "type": "uint256"
        }
      ],
      "stateMutability": "view",
      "type": "function"
    },
    {
      "inputs": [],
      "name": "PROJECT_FEE_BPS",
      "outputs": [
        {
          "internalType": "uint256",
          "name": "",
          "type": "uint256"
        }
      ],
      "stateMutability": "view",
      "type": "function"
    },
    {
      "inputs": [],
      "name": "RECYCLE_MATRIX_WEIGHT",
      "outputs": [
        {
          "internalType": "uint256",
          "name": "",
          "type": "uint256"
        }
      ],
      "stateMutability": "view",
      "type": "function"
    },
    {
      "inputs": [],
      "name": "SECOND_REF_BPS",
      "outputs": [
        {
          "internalType": "uint256",
          "name": "",
          "type": "uint256"
        }
      ],
      "stateMutability": "view",
      "type": "function"
    },
    {
      "inputs": [],
      "name": "SECOND_REF_WEIGHT",
      "outputs": [
        {
          "internalType": "uint256",
          "name": "",
          "type": "uint256"
        }
      ],
      "stateMutability": "view",
      "type": "function"
    },
    {
      "inputs": [],
      "name": "THIRD_REF_BPS",
      "outputs": [
        {
          "internalType": "uint256",
          "name": "",
          "type": "uint256"
        }
      ],
      "stateMutability": "view",
      "type": "function"
    },
    {
      "inputs": [],
      "name": "THIRD_REF_WEIGHT",
      "outputs": [
        {
          "internalType": "uint256",
          "name": "",
          "type": "uint256"
        }
      ],
      "stateMutability": "view",
      "type": "function"
    },
    {
      "inputs": [],
      "name": "WEEKLY_LOYALTY_WEIGHT",
      "outputs": [
        {
          "internalType": "uint256",
          "name": "",
          "type": "uint256"
        }
      ],
      "stateMutability": "view",
      "type": "function"
    },
    {
      "inputs": [],
      "name": "WEIGHT_SCALE",
      "outputs": [
        {
          "internalType": "uint256",
          "name": "",
          "type": "uint256"
        }
      ],
      "stateMutability": "view",
      "type": "function"
    },
    {
      "inputs": [
        {
          "internalType": "uint8",
          "name": "level",
          "type": "uint8"
        },
        {
          "internalType": "address",
          "name": "inviter",
          "type": "address"
        }
      ],
      "name": "activateLevel",
      "outputs": [],
      "stateMutability": "payable",
      "type": "function"
    },
    {
      "inputs": [
        {
          "internalType": "uint8",
          "name": "level",
          "type": "uint8"
        },
        {
          "internalType": "address",
          "name": "inviter",
          "type": "address"
        }
      ],
      "name": "activateLevelWithUSDC",
      "outputs": [],
      "stateMutability": "nonpayable",
      "type": "function"
    },
    {
      "inputs": [
        {
          "components": [
            {
              "internalType": "uint256",
              "name": "seasonId",
              "type": "uint256"
            },
            {
              "internalType": "uint256",
              "name": "roundId",
              "type": "uint256"
            },
            {
              "internalType": "uint8",
              "name": "level",
              "type": "uint8"
            },
            {
              "internalType": "uint64",
              "name": "startsAt",
              "type": "uint64"
            },
            {
              "internalType": "uint64",
              "name": "entriesCloseAt",
              "type": "uint64"
            },
            {
              "internalType": "uint64",
              "name": "endsAt",
              "type": "uint64"
            },
            {
              "internalType": "uint64",
              "name": "freezeClosesAt",
              "type": "uint64"
            },
            {
              "internalType": "uint32",
              "name": "maxPlayers",
              "type": "uint32"
            },
            {
              "internalType": "uint16",
              "name": "maxWinners",
              "type": "uint16"
            },
            {
              "internalType": "bytes32",
              "name": "winningCellsRoot",
              "type": "bytes32"
            },
            {
              "internalType": "uint256",
              "name": "ethPrice",
              "type": "uint256"
            },
            {
              "internalType": "uint256",
              "name": "usdcPrice",
              "type": "uint256"
            },
            {
              "internalType": "uint16",
              "name": "freezeLimit",
              "type": "uint16"
            },
            {
              "internalType": "uint16",
              "name": "paymentSplitVersion",
              "type": "uint16"
            }
          ],
          "internalType": "struct RoundConfig",
          "name": "config",
          "type": "tuple"
        },
        {
          "internalType": "bytes",
          "name": "signature",
          "type": "bytes"
        },
        {
          "internalType": "address",
          "name": "inviter",
          "type": "address"
        }
      ],
      "name": "activateRound",
      "outputs": [],
      "stateMutability": "payable",
      "type": "function"
    },
    {
      "inputs": [
        {
          "components": [
            {
              "internalType": "uint256",
              "name": "seasonId",
              "type": "uint256"
            },
            {
              "internalType": "uint256",
              "name": "roundId",
              "type": "uint256"
            },
            {
              "internalType": "uint8",
              "name": "level",
              "type": "uint8"
            },
            {
              "internalType": "uint64",
              "name": "startsAt",
              "type": "uint64"
            },
            {
              "internalType": "uint64",
              "name": "entriesCloseAt",
              "type": "uint64"
            },
            {
              "internalType": "uint64",
              "name": "endsAt",
              "type": "uint64"
            },
            {
              "internalType": "uint64",
              "name": "freezeClosesAt",
              "type": "uint64"
            },
            {
              "internalType": "uint32",
              "name": "maxPlayers",
              "type": "uint32"
            },
            {
              "internalType": "uint16",
              "name": "maxWinners",
              "type": "uint16"
            },
            {
              "internalType": "bytes32",
              "name": "winningCellsRoot",
              "type": "bytes32"
            },
            {
              "internalType": "uint256",
              "name": "ethPrice",
              "type": "uint256"
            },
            {
              "internalType": "uint256",
              "name": "usdcPrice",
              "type": "uint256"
            },
            {
              "internalType": "uint16",
              "name": "freezeLimit",
              "type": "uint16"
            },
            {
              "internalType": "uint16",
              "name": "paymentSplitVersion",
              "type": "uint16"
            }
          ],
          "internalType": "struct RoundConfig",
          "name": "config",
          "type": "tuple"
        },
        {
          "internalType": "bytes",
          "name": "signature",
          "type": "bytes"
        },
        {
          "internalType": "address",
          "name": "inviter",
          "type": "address"
        }
      ],
      "name": "activateRoundWithUSDC",
      "outputs": [],
      "stateMutability": "nonpayable",
      "type": "function"
    },
    {
      "inputs": [
        {
          "internalType": "uint8",
          "name": "",
          "type": "uint8"
        }
      ],
      "name": "activeCellsByLevel",
      "outputs": [
        {
          "internalType": "uint256",
          "name": "",
          "type": "uint256"
        }
      ],
      "stateMutability": "view",
      "type": "function"
    },
    {
      "inputs": [
        {
          "internalType": "uint8",
          "name": "level",
          "type": "uint8"
        }
      ],
      "name": "claimPrize",
      "outputs": [],
      "stateMutability": "nonpayable",
      "type": "function"
    },
    {
      "inputs": [
        {
          "internalType": "uint8",
          "name": "level",
          "type": "uint8"
        }
      ],
      "name": "claimPrizeUSDC",
      "outputs": [],
      "stateMutability": "nonpayable",
      "type": "function"
    },
    {
      "inputs": [],
      "name": "claimReferralBonus",
      "outputs": [],
      "stateMutability": "nonpayable",
      "type": "function"
    },
    {
      "inputs": [],
      "name": "claimReferralBonusUSDC",
      "outputs": [],
      "stateMutability": "nonpayable",
      "type": "function"
    },
    {
      "inputs": [
        {
          "internalType": "address",
          "name": "",
          "type": "address"
        }
      ],
      "name": "claimablePrizeUsdc",
      "outputs": [
        {
          "internalType": "uint256",
          "name": "",
          "type": "uint256"
        }
      ],
      "stateMutability": "view",
      "type": "function"
    },
    {
      "inputs": [
        {
          "internalType": "address",
          "name": "",
          "type": "address"
        },
        {
          "internalType": "uint8",
          "name": "",
          "type": "uint8"
        }
      ],
      "name": "claimablePrizeUsdcByLevel",
      "outputs": [
        {
          "internalType": "uint256",
          "name": "",
          "type": "uint256"
        }
      ],
      "stateMutability": "view",
      "type": "function"
    },
    {
      "inputs": [
        {
          "internalType": "address",
          "name": "",
          "type": "address"
        }
      ],
      "name": "claimableReferralBonusUsdc",
      "outputs": [
        {
          "internalType": "uint256",
          "name": "",
          "type": "uint256"
        }
      ],
      "stateMutability": "view",
      "type": "function"
    },
    {
      "inputs": [
        {
          "internalType": "uint8",
          "name": "level",
          "type": "uint8"
        }
      ],
      "name": "getLevelMatrixStats",
      "outputs": [
        {
          "internalType": "uint256",
          "name": "size",
          "type": "uint256"
        },
        {
          "internalType": "uint256",
          "name": "nextOpenParentId",
          "type": "uint256"
        }
      ],
      "stateMutability": "view",
      "type": "function"
    },
    {
      "inputs": [
        {
          "internalType": "uint8",
          "name": "level",
          "type": "uint8"
        }
      ],
      "name": "getLevelStats",
      "outputs": [
        {
          "internalType": "uint256",
          "name": "prizePool",
          "type": "uint256"
        },
        {
          "internalType": "uint256",
          "name": "totalWeight",
          "type": "uint256"
        },
        {
          "internalType": "uint256",
          "name": "activeCells",
          "type": "uint256"
        },
        {
          "internalType": "uint256",
          "name": "nextOpenParent",
          "type": "uint256"
        },
        {
          "internalType": "uint256",
          "name": "nextCell",
          "type": "uint256"
        }
      ],
      "stateMutability": "view",
      "type": "function"
    },
    {
      "inputs": [
        {
          "internalType": "uint8",
          "name": "level",
          "type": "uint8"
        }
      ],
      "name": "getLevelStatsUSDC",
      "outputs": [
        {
          "internalType": "uint256",
          "name": "prizePool",
          "type": "uint256"
        },
        {
          "internalType": "uint256",
          "name": "totalWeight",
          "type": "uint256"
        },
        {
          "internalType": "uint256",
          "name": "activeCells",
          "type": "uint256"
        },
        {
          "internalType": "uint256",
          "name": "nextOpenParent",
          "type": "uint256"
        },
        {
          "internalType": "uint256",
          "name": "nextCell",
          "type": "uint256"
        }
      ],
      "stateMutability": "view",
      "type": "function"
    },
    {
      "inputs": [
        {
          "internalType": "uint8",
          "name": "level",
          "type": "uint8"
        },
        {
          "internalType": "uint256",
          "name": "cellId",
          "type": "uint256"
        }
      ],
      "name": "getMatrixNode",
      "outputs": [
        {
          "components": [
            {
              "internalType": "uint256",
              "name": "cellId",
              "type": "uint256"
            },
            {
              "internalType": "address",
              "name": "player",
              "type": "address"
            },
            {
              "internalType": "uint8",
              "name": "level",
              "type": "uint8"
            },
            {
              "internalType": "uint256",
              "name": "parentCellId",
              "type": "uint256"
            },
            {
              "internalType": "uint256",
              "name": "leftChildCellId",
              "type": "uint256"
            },
            {
              "internalType": "uint256",
              "name": "rightChildCellId",
              "type": "uint256"
            },
            {
              "internalType": "bool",
              "name": "closed",
              "type": "bool"
            },
            {
              "internalType": "bool",
              "name": "prizeCell",
              "type": "bool"
            }
          ],
          "internalType": "struct MatrixNode",
          "name": "",
          "type": "tuple"
        }
      ],
      "stateMutability": "view",
      "type": "function"
    },
    {
      "inputs": [
        {
          "internalType": "uint8",
          "name": "level",
          "type": "uint8"
        },
        {
          "internalType": "uint256",
          "name": "currentCellId",
          "type": "uint256"
        }
      ],
      "name": "getNextPrizeCell",
      "outputs": [
        {
          "internalType": "uint256",
          "name": "",
          "type": "uint256"
        }
      ],
      "stateMutability": "pure",
      "type": "function"
    },
    {
      "inputs": [
        {
          "internalType": "uint8",
          "name": "level",
          "type": "uint8"
        }
      ],
      "name": "getPendingRecycleCount",
      "outputs": [
        {
          "internalType": "uint256",
          "name": "",
          "type": "uint256"
        }
      ],
      "stateMutability": "view",
      "type": "function"
    },
    {
      "inputs": [
        {
          "internalType": "address",
          "name": "playerAddress",
          "type": "address"
        }
      ],
      "name": "getPlayer",
      "outputs": [
        {
          "components": [
            {
              "internalType": "bool",
              "name": "exists",
              "type": "bool"
            },
            {
              "internalType": "address",
              "name": "wallet",
              "type": "address"
            },
            {
              "internalType": "address",
              "name": "inviter",
              "type": "address"
            },
            {
              "internalType": "address",
              "name": "secondLine",
              "type": "address"
            },
            {
              "internalType": "address",
              "name": "thirdLine",
              "type": "address"
            },
            {
              "internalType": "uint256",
              "name": "totalTickets",
              "type": "uint256"
            },
            {
              "internalType": "uint256",
              "name": "baseWeight",
              "type": "uint256"
            },
            {
              "internalType": "uint256",
              "name": "referralWeight",
              "type": "uint256"
            },
            {
              "internalType": "uint256",
              "name": "loyaltyWeight",
              "type": "uint256"
            },
            {
              "internalType": "uint256",
              "name": "matrixWeight",
              "type": "uint256"
            },
            {
              "internalType": "uint256",
              "name": "nftWeight",
              "type": "uint256"
            },
            {
              "internalType": "uint256",
              "name": "totalWeight",
              "type": "uint256"
            },
            {
              "internalType": "uint256",
              "name": "boxTokens",
              "type": "uint256"
            },
            {
              "internalType": "uint256",
              "name": "recycleCount",
              "type": "uint256"
            },
            {
              "internalType": "uint256",
              "name": "claimableReferralBonus",
              "type": "uint256"
            },
            {
              "internalType": "uint256",
              "name": "claimablePrize",
              "type": "uint256"
            },
            {
              "internalType": "uint256",
              "name": "pendingPrize",
              "type": "uint256"
            },
            {
              "internalType": "uint256",
              "name": "joinedAt",
              "type": "uint256"
            },
            {
              "internalType": "uint256",
              "name": "lastActiveAt",
              "type": "uint256"
            }
          ],
          "internalType": "struct Player",
          "name": "",
          "type": "tuple"
        }
      ],
      "stateMutability": "view",
      "type": "function"
    },
    {
      "inputs": [
        {
          "internalType": "address",
          "name": "playerAddress",
          "type": "address"
        },
        {
          "internalType": "uint8",
          "name": "level",
          "type": "uint8"
        }
      ],
      "name": "getPlayerChance",
      "outputs": [
        {
          "internalType": "uint256",
          "name": "chanceBps",
          "type": "uint256"
        }
      ],
      "stateMutability": "view",
      "type": "function"
    },
    {
      "inputs": [
        {
          "internalType": "address",
          "name": "playerAddress",
          "type": "address"
        },
        {
          "internalType": "uint8",
          "name": "level",
          "type": "uint8"
        }
      ],
      "name": "getPlayerLevel",
      "outputs": [
        {
          "internalType": "bool",
          "name": "active",
          "type": "bool"
        },
        {
          "internalType": "bool",
          "name": "frozen",
          "type": "bool"
        },
        {
          "internalType": "uint256",
          "name": "cycles",
          "type": "uint256"
        },
        {
          "internalType": "uint256",
          "name": "positionId",
          "type": "uint256"
        },
        {
          "internalType": "uint256",
          "name": "earned",
          "type": "uint256"
        }
      ],
      "stateMutability": "view",
      "type": "function"
    },
    {
      "inputs": [
        {
          "internalType": "address",
          "name": "playerAddress",
          "type": "address"
        },
        {
          "internalType": "uint8",
          "name": "level",
          "type": "uint8"
        }
      ],
      "name": "getPlayerLevelFull",
      "outputs": [
        {
          "components": [
            {
              "internalType": "bool",
              "name": "active",
              "type": "bool"
            },
            {
              "internalType": "bool",
              "name": "frozen",
              "type": "bool"
            },
            {
              "internalType": "uint256",
              "name": "tickets",
              "type": "uint256"
            },
            {
              "internalType": "uint256",
              "name": "cellId",
              "type": "uint256"
            },
            {
              "internalType": "uint256",
              "name": "parentCellId",
              "type": "uint256"
            },
            {
              "internalType": "uint256",
              "name": "leftChildCellId",
              "type": "uint256"
            },
            {
              "internalType": "uint256",
              "name": "rightChildCellId",
              "type": "uint256"
            },
            {
              "internalType": "uint256",
              "name": "cycleCount",
              "type": "uint256"
            },
            {
              "internalType": "uint256",
              "name": "levelWeight",
              "type": "uint256"
            },
            {
              "internalType": "uint256",
              "name": "claimablePrize",
              "type": "uint256"
            },
            {
              "internalType": "uint256",
              "name": "pendingPrize",
              "type": "uint256"
            }
          ],
          "internalType": "struct PlayerLevel",
          "name": "",
          "type": "tuple"
        }
      ],
      "stateMutability": "view",
      "type": "function"
    },
    {
      "inputs": [
        {
          "internalType": "address",
          "name": "playerAddress",
          "type": "address"
        },
        {
          "internalType": "uint8",
          "name": "level",
          "type": "uint8"
        }
      ],
      "name": "getPlayerPosition",
      "outputs": [
        {
          "internalType": "uint256",
          "name": "positionId",
          "type": "uint256"
        },
        {
          "internalType": "uint256",
          "name": "parentId",
          "type": "uint256"
        },
        {
          "internalType": "uint256",
          "name": "leftChildId",
          "type": "uint256"
        },
        {
          "internalType": "uint256",
          "name": "rightChildId",
          "type": "uint256"
        },
        {
          "internalType": "uint256",
          "name": "depth",
          "type": "uint256"
        },
        {
          "internalType": "bool",
          "name": "closed",
          "type": "bool"
        }
      ],
      "stateMutability": "view",
      "type": "function"
    },
    {
      "inputs": [
        {
          "internalType": "address",
          "name": "playerAddress",
          "type": "address"
        },
        {
          "internalType": "uint256",
          "name": "roundId",
          "type": "uint256"
        }
      ],
      "name": "getPlayerRound",
      "outputs": [
        {
          "components": [
            {
              "internalType": "bool",
              "name": "active",
              "type": "bool"
            },
            {
              "internalType": "bool",
              "name": "frozen",
              "type": "bool"
            },
            {
              "internalType": "uint8",
              "name": "level",
              "type": "uint8"
            },
            {
              "internalType": "uint256",
              "name": "tickets",
              "type": "uint256"
            },
            {
              "internalType": "uint256",
              "name": "cellId",
              "type": "uint256"
            },
            {
              "internalType": "uint256",
              "name": "parentCellId",
              "type": "uint256"
            },
            {
              "internalType": "uint256",
              "name": "leftChildCellId",
              "type": "uint256"
            },
            {
              "internalType": "uint256",
              "name": "rightChildCellId",
              "type": "uint256"
            },
            {
              "internalType": "uint256",
              "name": "cycleCount",
              "type": "uint256"
            },
            {
              "internalType": "uint256",
              "name": "totalWeight",
              "type": "uint256"
            },
            {
              "internalType": "uint256",
              "name": "claimablePrize",
              "type": "uint256"
            },
            {
              "internalType": "uint256",
              "name": "pendingPrize",
              "type": "uint256"
            },
            {
              "internalType": "uint256",
              "name": "claimablePrizeUsdc",
              "type": "uint256"
            },
            {
              "internalType": "uint256",
              "name": "pendingPrizeUsdc",
              "type": "uint256"
            }
          ],
          "internalType": "struct PlayerRound",
          "name": "",
          "type": "tuple"
        }
      ],
      "stateMutability": "view",
      "type": "function"
    },
    {
      "inputs": [
        {
          "internalType": "address",
          "name": "playerAddress",
          "type": "address"
        },
        {
          "internalType": "uint8",
          "name": "level",
          "type": "uint8"
        }
      ],
      "name": "getPlayerTokenRewards",
      "outputs": [
        {
          "internalType": "uint256",
          "name": "referralBonus",
          "type": "uint256"
        },
        {
          "internalType": "uint256",
          "name": "claimablePrize",
          "type": "uint256"
        },
        {
          "internalType": "uint256",
          "name": "pendingPrize",
          "type": "uint256"
        }
      ],
      "stateMutability": "view",
      "type": "function"
    },
    {
      "inputs": [
        {
          "internalType": "address",
          "name": "playerAddress",
          "type": "address"
        },
        {
          "internalType": "uint8",
          "name": "level",
          "type": "uint8"
        }
      ],
      "name": "getPlayerWeight",
      "outputs": [
        {
          "internalType": "uint256",
          "name": "",
          "type": "uint256"
        }
      ],
      "stateMutability": "view",
      "type": "function"
    },
    {
      "inputs": [
        {
          "internalType": "uint256",
          "name": "roundId",
          "type": "uint256"
        }
      ],
      "name": "getRoundGameStats",
      "outputs": [
        {
          "internalType": "uint256",
          "name": "prizePoolEth",
          "type": "uint256"
        },
        {
          "internalType": "uint256",
          "name": "prizePoolUsdc",
          "type": "uint256"
        },
        {
          "internalType": "uint256",
          "name": "totalWeight",
          "type": "uint256"
        },
        {
          "internalType": "uint256",
          "name": "activeCells",
          "type": "uint256"
        },
        {
          "internalType": "uint256",
          "name": "nextCell",
          "type": "uint256"
        },
        {
          "internalType": "uint256",
          "name": "nextOpenParent",
          "type": "uint256"
        }
      ],
      "stateMutability": "view",
      "type": "function"
    },
    {
      "inputs": [
        {
          "internalType": "uint256",
          "name": "roundId",
          "type": "uint256"
        },
        {
          "internalType": "uint256",
          "name": "cellId",
          "type": "uint256"
        }
      ],
      "name": "getRoundMatrixNode",
      "outputs": [
        {
          "components": [
            {
              "internalType": "uint256",
              "name": "cellId",
              "type": "uint256"
            },
            {
              "internalType": "address",
              "name": "player",
              "type": "address"
            },
            {
              "internalType": "uint8",
              "name": "level",
              "type": "uint8"
            },
            {
              "internalType": "uint256",
              "name": "parentCellId",
              "type": "uint256"
            },
            {
              "internalType": "uint256",
              "name": "leftChildCellId",
              "type": "uint256"
            },
            {
              "internalType": "uint256",
              "name": "rightChildCellId",
              "type": "uint256"
            },
            {
              "internalType": "bool",
              "name": "closed",
              "type": "bool"
            },
            {
              "internalType": "bool",
              "name": "prizeCell",
              "type": "bool"
            }
          ],
          "internalType": "struct MatrixNode",
          "name": "",
          "type": "tuple"
        }
      ],
      "stateMutability": "view",
      "type": "function"
    },
    {
      "inputs": [
        {
          "internalType": "address",
          "name": "playerAddress",
          "type": "address"
        },
        {
          "internalType": "uint8",
          "name": "level",
          "type": "uint8"
        }
      ],
      "name": "isLevelActive",
      "outputs": [
        {
          "internalType": "bool",
          "name": "",
          "type": "bool"
        }
      ],
      "stateMutability": "view",
      "type": "function"
    },
    {
      "inputs": [
        {
          "internalType": "address",
          "name": "playerAddress",
          "type": "address"
        },
        {
          "internalType": "uint8",
          "name": "level",
          "type": "uint8"
        }
      ],
      "name": "isLevelFrozen",
      "outputs": [
        {
          "internalType": "bool",
          "name": "",
          "type": "bool"
        }
      ],
      "stateMutability": "view",
      "type": "function"
    },
    {
      "inputs": [],
      "name": "legacyActivationEnabled",
      "outputs": [
        {
          "internalType": "bool",
          "name": "",
          "type": "bool"
        }
      ],
      "stateMutability": "view",
      "type": "function"
    },
    {
      "inputs": [
        {
          "internalType": "uint8",
          "name": "",
          "type": "uint8"
        }
      ],
      "name": "levelAvailable",
      "outputs": [
        {
          "internalType": "bool",
          "name": "",
          "type": "bool"
        }
      ],
      "stateMutability": "view",
      "type": "function"
    },
    {
      "inputs": [
        {
          "internalType": "uint8",
          "name": "",
          "type": "uint8"
        }
      ],
      "name": "levelMatrixSize",
      "outputs": [
        {
          "internalType": "uint256",
          "name": "",
          "type": "uint256"
        }
      ],
      "stateMutability": "view",
      "type": "function"
    },
    {
      "inputs": [
        {
          "internalType": "uint8",
          "name": "",
          "type": "uint8"
        }
      ],
      "name": "levelPrices",
      "outputs": [
        {
          "internalType": "uint256",
          "name": "",
          "type": "uint256"
        }
      ],
      "stateMutability": "view",
      "type": "function"
    },
    {
      "inputs": [
        {
          "internalType": "uint8",
          "name": "",
          "type": "uint8"
        }
      ],
      "name": "levelPricesUsdc",
      "outputs": [
        {
          "internalType": "uint256",
          "name": "",
          "type": "uint256"
        }
      ],
      "stateMutability": "view",
      "type": "function"
    },
    {
      "inputs": [
        {
          "internalType": "uint8",
          "name": "",
          "type": "uint8"
        },
        {
          "internalType": "uint256",
          "name": "",
          "type": "uint256"
        }
      ],
      "name": "matrixNodes",
      "outputs": [
        {
          "internalType": "uint256",
          "name": "cellId",
          "type": "uint256"
        },
        {
          "internalType": "address",
          "name": "player",
          "type": "address"
        },
        {
          "internalType": "uint8",
          "name": "level",
          "type": "uint8"
        },
        {
          "internalType": "uint256",
          "name": "parentCellId",
          "type": "uint256"
        },
        {
          "internalType": "uint256",
          "name": "leftChildCellId",
          "type": "uint256"
        },
        {
          "internalType": "uint256",
          "name": "rightChildCellId",
          "type": "uint256"
        },
        {
          "internalType": "bool",
          "name": "closed",
          "type": "bool"
        },
        {
          "internalType": "bool",
          "name": "prizeCell",
          "type": "bool"
        }
      ],
      "stateMutability": "view",
      "type": "function"
    },
    {
      "inputs": [
        {
          "internalType": "uint8",
          "name": "",
          "type": "uint8"
        }
      ],
      "name": "matrixPrizePools",
      "outputs": [
        {
          "internalType": "uint256",
          "name": "",
          "type": "uint256"
        }
      ],
      "stateMutability": "view",
      "type": "function"
    },
    {
      "inputs": [
        {
          "internalType": "uint8",
          "name": "",
          "type": "uint8"
        }
      ],
      "name": "matrixPrizePoolsUsdc",
      "outputs": [
        {
          "internalType": "uint256",
          "name": "",
          "type": "uint256"
        }
      ],
      "stateMutability": "view",
      "type": "function"
    },
    {
      "inputs": [
        {
          "internalType": "uint8",
          "name": "",
          "type": "uint8"
        }
      ],
      "name": "nextCellId",
      "outputs": [
        {
          "internalType": "uint256",
          "name": "",
          "type": "uint256"
        }
      ],
      "stateMutability": "view",
      "type": "function"
    },
    {
      "inputs": [
        {
          "internalType": "uint8",
          "name": "",
          "type": "uint8"
        }
      ],
      "name": "nextOpenParentCellId",
      "outputs": [
        {
          "internalType": "uint256",
          "name": "",
          "type": "uint256"
        }
      ],
      "stateMutability": "view",
      "type": "function"
    },
    {
      "inputs": [],
      "name": "operatorWallet",
      "outputs": [
        {
          "internalType": "address",
          "name": "",
          "type": "address"
        }
      ],
      "stateMutability": "view",
      "type": "function"
    },
    {
      "inputs": [],
      "name": "owner",
      "outputs": [
        {
          "internalType": "address",
          "name": "",
          "type": "address"
        }
      ],
      "stateMutability": "view",
      "type": "function"
    },
    {
      "inputs": [
        {
          "internalType": "address",
          "name": "",
          "type": "address"
        }
      ],
      "name": "pendingPrizeUsdc",
      "outputs": [
        {
          "internalType": "uint256",
          "name": "",
          "type": "uint256"
        }
      ],
      "stateMutability": "view",
      "type": "function"
    },
    {
      "inputs": [
        {
          "internalType": "address",
          "name": "",
          "type": "address"
        },
        {
          "internalType": "uint8",
          "name": "",
          "type": "uint8"
        }
      ],
      "name": "pendingPrizeUsdcByLevel",
      "outputs": [
        {
          "internalType": "uint256",
          "name": "",
          "type": "uint256"
        }
      ],
      "stateMutability": "view",
      "type": "function"
    },
    {
      "inputs": [
        {
          "internalType": "address",
          "name": "",
          "type": "address"
        },
        {
          "internalType": "uint8",
          "name": "",
          "type": "uint8"
        }
      ],
      "name": "playerLevels",
      "outputs": [
        {
          "internalType": "bool",
          "name": "active",
          "type": "bool"
        },
        {
          "internalType": "bool",
          "name": "frozen",
          "type": "bool"
        },
        {
          "internalType": "uint256",
          "name": "tickets",
          "type": "uint256"
        },
        {
          "internalType": "uint256",
          "name": "cellId",
          "type": "uint256"
        },
        {
          "internalType": "uint256",
          "name": "parentCellId",
          "type": "uint256"
        },
        {
          "internalType": "uint256",
          "name": "leftChildCellId",
          "type": "uint256"
        },
        {
          "internalType": "uint256",
          "name": "rightChildCellId",
          "type": "uint256"
        },
        {
          "internalType": "uint256",
          "name": "cycleCount",
          "type": "uint256"
        },
        {
          "internalType": "uint256",
          "name": "levelWeight",
          "type": "uint256"
        },
        {
          "internalType": "uint256",
          "name": "claimablePrize",
          "type": "uint256"
        },
        {
          "internalType": "uint256",
          "name": "pendingPrize",
          "type": "uint256"
        }
      ],
      "stateMutability": "view",
      "type": "function"
    },
    {
      "inputs": [
        {
          "internalType": "address",
          "name": "",
          "type": "address"
        },
        {
          "internalType": "uint256",
          "name": "",
          "type": "uint256"
        }
      ],
      "name": "playerRounds",
      "outputs": [
        {
          "internalType": "bool",
          "name": "active",
          "type": "bool"
        },
        {
          "internalType": "bool",
          "name": "frozen",
          "type": "bool"
        },
        {
          "internalType": "uint8",
          "name": "level",
          "type": "uint8"
        },
        {
          "internalType": "uint256",
          "name": "tickets",
          "type": "uint256"
        },
        {
          "internalType": "uint256",
          "name": "cellId",
          "type": "uint256"
        },
        {
          "internalType": "uint256",
          "name": "parentCellId",
          "type": "uint256"
        },
        {
          "internalType": "uint256",
          "name": "leftChildCellId",
          "type": "uint256"
        },
        {
          "internalType": "uint256",
          "name": "rightChildCellId",
          "type": "uint256"
        },
        {
          "internalType": "uint256",
          "name": "cycleCount",
          "type": "uint256"
        },
        {
          "internalType": "uint256",
          "name": "totalWeight",
          "type": "uint256"
        },
        {
          "internalType": "uint256",
          "name": "claimablePrize",
          "type": "uint256"
        },
        {
          "internalType": "uint256",
          "name": "pendingPrize",
          "type": "uint256"
        },
        {
          "internalType": "uint256",
          "name": "claimablePrizeUsdc",
          "type": "uint256"
        },
        {
          "internalType": "uint256",
          "name": "pendingPrizeUsdc",
          "type": "uint256"
        }
      ],
      "stateMutability": "view",
      "type": "function"
    },
    {
      "inputs": [
        {
          "internalType": "address",
          "name": "",
          "type": "address"
        }
      ],
      "name": "players",
      "outputs": [
        {
          "internalType": "bool",
          "name": "exists",
          "type": "bool"
        },
        {
          "internalType": "address",
          "name": "wallet",
          "type": "address"
        },
        {
          "internalType": "address",
          "name": "inviter",
          "type": "address"
        },
        {
          "internalType": "address",
          "name": "secondLine",
          "type": "address"
        },
        {
          "internalType": "address",
          "name": "thirdLine",
          "type": "address"
        },
        {
          "internalType": "uint256",
          "name": "totalTickets",
          "type": "uint256"
        },
        {
          "internalType": "uint256",
          "name": "baseWeight",
          "type": "uint256"
        },
        {
          "internalType": "uint256",
          "name": "referralWeight",
          "type": "uint256"
        },
        {
          "internalType": "uint256",
          "name": "loyaltyWeight",
          "type": "uint256"
        },
        {
          "internalType": "uint256",
          "name": "matrixWeight",
          "type": "uint256"
        },
        {
          "internalType": "uint256",
          "name": "nftWeight",
          "type": "uint256"
        },
        {
          "internalType": "uint256",
          "name": "totalWeight",
          "type": "uint256"
        },
        {
          "internalType": "uint256",
          "name": "boxTokens",
          "type": "uint256"
        },
        {
          "internalType": "uint256",
          "name": "recycleCount",
          "type": "uint256"
        },
        {
          "internalType": "uint256",
          "name": "claimableReferralBonus",
          "type": "uint256"
        },
        {
          "internalType": "uint256",
          "name": "claimablePrize",
          "type": "uint256"
        },
        {
          "internalType": "uint256",
          "name": "pendingPrize",
          "type": "uint256"
        },
        {
          "internalType": "uint256",
          "name": "joinedAt",
          "type": "uint256"
        },
        {
          "internalType": "uint256",
          "name": "lastActiveAt",
          "type": "uint256"
        }
      ],
      "stateMutability": "view",
      "type": "function"
    },
    {
      "inputs": [
        {
          "internalType": "uint8",
          "name": "level",
          "type": "uint8"
        },
        {
          "internalType": "uint8",
          "name": "maxSteps",
          "type": "uint8"
        }
      ],
      "name": "processPendingRecycles",
      "outputs": [
        {
          "internalType": "uint256",
          "name": "processed",
          "type": "uint256"
        }
      ],
      "stateMutability": "nonpayable",
      "type": "function"
    },
    {
      "inputs": [],
      "name": "projectFeesAccrued",
      "outputs": [
        {
          "internalType": "uint256",
          "name": "",
          "type": "uint256"
        }
      ],
      "stateMutability": "view",
      "type": "function"
    },
    {
      "inputs": [],
      "name": "projectFeesAccruedUsdc",
      "outputs": [
        {
          "internalType": "uint256",
          "name": "",
          "type": "uint256"
        }
      ],
      "stateMutability": "view",
      "type": "function"
    },
    {
      "inputs": [],
      "name": "projectWallet",
      "outputs": [
        {
          "internalType": "address",
          "name": "",
          "type": "address"
        }
      ],
      "stateMutability": "view",
      "type": "function"
    },
    {
      "inputs": [
        {
          "internalType": "uint8",
          "name": "level",
          "type": "uint8"
        }
      ],
      "name": "requestDraw",
      "outputs": [],
      "stateMutability": "view",
      "type": "function"
    },
    {
      "inputs": [
        {
          "internalType": "uint256",
          "name": "",
          "type": "uint256"
        }
      ],
      "name": "roundActiveCells",
      "outputs": [
        {
          "internalType": "uint256",
          "name": "",
          "type": "uint256"
        }
      ],
      "stateMutability": "view",
      "type": "function"
    },
    {
      "inputs": [],
      "name": "roundManager",
      "outputs": [
        {
          "internalType": "address",
          "name": "",
          "type": "address"
        }
      ],
      "stateMutability": "view",
      "type": "function"
    },
    {
      "inputs": [
        {
          "internalType": "uint256",
          "name": "",
          "type": "uint256"
        },
        {
          "internalType": "uint256",
          "name": "",
          "type": "uint256"
        }
      ],
      "name": "roundMatrixNodes",
      "outputs": [
        {
          "internalType": "uint256",
          "name": "cellId",
          "type": "uint256"
        },
        {
          "internalType": "address",
          "name": "player",
          "type": "address"
        },
        {
          "internalType": "uint8",
          "name": "level",
          "type": "uint8"
        },
        {
          "internalType": "uint256",
          "name": "parentCellId",
          "type": "uint256"
        },
        {
          "internalType": "uint256",
          "name": "leftChildCellId",
          "type": "uint256"
        },
        {
          "internalType": "uint256",
          "name": "rightChildCellId",
          "type": "uint256"
        },
        {
          "internalType": "bool",
          "name": "closed",
          "type": "bool"
        },
        {
          "internalType": "bool",
          "name": "prizeCell",
          "type": "bool"
        }
      ],
      "stateMutability": "view",
      "type": "function"
    },
    {
      "inputs": [
        {
          "internalType": "uint256",
          "name": "",
          "type": "uint256"
        }
      ],
      "name": "roundNextCellId",
      "outputs": [
        {
          "internalType": "uint256",
          "name": "",
          "type": "uint256"
        }
      ],
      "stateMutability": "view",
      "type": "function"
    },
    {
      "inputs": [
        {
          "internalType": "uint256",
          "name": "",
          "type": "uint256"
        }
      ],
      "name": "roundNextOpenParentCellId",
      "outputs": [
        {
          "internalType": "uint256",
          "name": "",
          "type": "uint256"
        }
      ],
      "stateMutability": "view",
      "type": "function"
    },
    {
      "inputs": [
        {
          "internalType": "uint256",
          "name": "",
          "type": "uint256"
        }
      ],
      "name": "roundPrizePools",
      "outputs": [
        {
          "internalType": "uint256",
          "name": "",
          "type": "uint256"
        }
      ],
      "stateMutability": "view",
      "type": "function"
    },
    {
      "inputs": [
        {
          "internalType": "uint256",
          "name": "",
          "type": "uint256"
        }
      ],
      "name": "roundPrizePoolsUsdc",
      "outputs": [
        {
          "internalType": "uint256",
          "name": "",
          "type": "uint256"
        }
      ],
      "stateMutability": "view",
      "type": "function"
    },
    {
      "inputs": [
        {
          "internalType": "uint256",
          "name": "",
          "type": "uint256"
        }
      ],
      "name": "roundTotalWeight",
      "outputs": [
        {
          "internalType": "uint256",
          "name": "",
          "type": "uint256"
        }
      ],
      "stateMutability": "view",
      "type": "function"
    },
    {
      "inputs": [
        {
          "internalType": "bool",
          "name": "enabled",
          "type": "bool"
        }
      ],
      "name": "setLegacyActivationEnabled",
      "outputs": [],
      "stateMutability": "nonpayable",
      "type": "function"
    },
    {
      "inputs": [
        {
          "internalType": "uint8",
          "name": "level",
          "type": "uint8"
        },
        {
          "internalType": "bool",
          "name": "available",
          "type": "bool"
        }
      ],
      "name": "setLevelAvailable",
      "outputs": [],
      "stateMutability": "nonpayable",
      "type": "function"
    },
    {
      "inputs": [
        {
          "internalType": "uint8",
          "name": "level",
          "type": "uint8"
        },
        {
          "internalType": "uint256",
          "name": "newPrice",
          "type": "uint256"
        }
      ],
      "name": "setLevelPrice",
      "outputs": [],
      "stateMutability": "nonpayable",
      "type": "function"
    },
    {
      "inputs": [
        {
          "internalType": "uint8",
          "name": "level",
          "type": "uint8"
        },
        {
          "internalType": "uint256",
          "name": "newPrice",
          "type": "uint256"
        }
      ],
      "name": "setLevelPriceUSDC",
      "outputs": [],
      "stateMutability": "nonpayable",
      "type": "function"
    },
    {
      "inputs": [
        {
          "internalType": "address",
          "name": "newManager",
          "type": "address"
        }
      ],
      "name": "setRoundManager",
      "outputs": [],
      "stateMutability": "nonpayable",
      "type": "function"
    },
    {
      "inputs": [
        {
          "internalType": "address",
          "name": "newToken",
          "type": "address"
        }
      ],
      "name": "setUsdcToken",
      "outputs": [],
      "stateMutability": "nonpayable",
      "type": "function"
    },
    {
      "inputs": [
        {
          "internalType": "address",
          "name": "newProjectWallet",
          "type": "address"
        },
        {
          "internalType": "address",
          "name": "newTreasuryWallet",
          "type": "address"
        },
        {
          "internalType": "address",
          "name": "newOperatorWallet",
          "type": "address"
        }
      ],
      "name": "setWallets",
      "outputs": [],
      "stateMutability": "nonpayable",
      "type": "function"
    },
    {
      "inputs": [
        {
          "internalType": "uint8",
          "name": "",
          "type": "uint8"
        }
      ],
      "name": "totalWeightByLevel",
      "outputs": [
        {
          "internalType": "uint256",
          "name": "",
          "type": "uint256"
        }
      ],
      "stateMutability": "view",
      "type": "function"
    },
    {
      "inputs": [
        {
          "internalType": "address",
          "name": "newOwner",
          "type": "address"
        }
      ],
      "name": "transferOwnership",
      "outputs": [],
      "stateMutability": "nonpayable",
      "type": "function"
    },
    {
      "inputs": [],
      "name": "treasuryWallet",
      "outputs": [
        {
          "internalType": "address",
          "name": "",
          "type": "address"
        }
      ],
      "stateMutability": "view",
      "type": "function"
    },
    {
      "inputs": [],
      "name": "usdcToken",
      "outputs": [
        {
          "internalType": "contract IERC20Minimal",
          "name": "",
          "type": "address"
        }
      ],
      "stateMutability": "view",
      "type": "function"
    },
    {
      "inputs": [],
      "name": "withdrawProjectFees",
      "outputs": [],
      "stateMutability": "nonpayable",
      "type": "function"
    },
    {
      "inputs": [],
      "name": "withdrawProjectFeesUSDC",
      "outputs": [],
      "stateMutability": "nonpayable",
      "type": "function"
    },
    {
      "stateMutability": "payable",
      "type": "receive"
    }
  ],
  "bytecode": "0x6080346200039757601f620063ae38819003918201601f1916830191906001600160401b038311848410176200039c578160a0928592604095865283398101031262000397576200005082620003b2565b60206200006060208501620003b2565b906200006e848601620003b2565b6200008a60806200008260608901620003b2565b9701620003b2565b6001602a819055946001600160a01b039081169485156200038657811692831562000386578116978815620003865781169182156200038657169182156200037557859760018060a01b031991600096338489541617885583895416178855826002541617600255816003541617600355600554161760055560049060018060a81b03196004541617600455838352600660205266b1a2bc2ec50000858420556002835266f8b0a10e470000858420556003835267016345785d8a000085842055600483526701f161421c8e000085842055600583526702c68af0bb14000085842055600683526703e2c284391c0000858420556007835267058d15e1762800008584205560088084526707a1fe16027700008685205560098452670b1a2bc2ec50000086852055600a8452670f43fc2c04ee000086852055600b84526716345785d8a0000086852055600c8452671e87f85809dc000086852055600d8452672c68af0bb140000086852055600e8452673d0ff0b013b8000086852055600f8452675a34a38fc00a00008685205560108452676f05b59d3b200000868520556011926011855267a688906bd8b0000087862055858552600760205261c3508786205560028552620111708786205560038552620186a08786205560048552620222e0878620556005855262030d408786205560068552620445c0878620556007855262061a808786205560088552620864708786205560098552620c350087862055600a85526210c8e087862055600b855262186a0087862055600c8552622191c087862055600d85526230d40087862055600e85526243238087862055600f855262632ea08786205560108552627a1200878620556011855262b71b00878620556003975b62000325575b8651615fe69081620003c88239f35b60ff88168481116200036e578552818152868520805460ff19168717905560ff9788169788146200035b57968501968562000310565b5050634e487b7160e01b83525260249150fd5b5062000316565b865163d92e233d60e01b8152600490fd5b875163d92e233d60e01b8152600490fd5b600080fd5b634e487b7160e01b600052604160045260246000fd5b51906001600160a01b0382168203620003975756fe6101006040526004361015610053575b361561001a57600080fd5b60405162461bcd60e51b8152602060048201526011602482015270155cd9481858dd1a5d985d1953195d995b607a1b6044820152606490fd5b60003560e01c806303a65dfa14613bcd57806304eb273414613b995780630e475efd14613b3757806311eac85514613b0e57806313306da214613a8457806319a0859414613a665780631a1478c314610fda5780631d6a884b14613a4a5780631e375ab91461398557806322fbfe8014613918578063249d39e9146138fb57806324bdc3a71461050a57806326728174146116ff57806326e0cfe71461388e5780632768a49f146137aa5780632e50d906146137765780632f5ced0414610538578063306bf6bb14613691578063308c61091461367457806331b161a7146104b4578063333fedad146116ff57806334601b891461303957806337a8af501461300d5780633945dbde14612fe45780633ac3684c14612f6b5780633d5efbae14612ea45780633f896dd914612d5857806340261fbb14612bbf5780634626402b14612b9657806348d46be11461295c5780634a57c6d9146128a15780634ca3696c146128165780634d69a4cd146127fa5780634f51f138146127805780635042a91f1461276357806350da23dc1461050a57806351b7b69e1461273757806352ebb227146126fe57806352f5c84e146126ca5780635c12cd4b1461242b5780635c602d9e146123635780635d886f22146122b05780636793c2cd1461223d5780636b09f5391461220357806372d686bf146121e657806375b7d7c11461218757806375cb1bd11461200c5780637a7c7a6a14611f445780637c58894d1461191d5780637dcda2d4146118f15780637f3255a8146118d4578063852f8299146118b757806386b8f4a11461187d5780638b984405146118575780638c5b8ea5146118235780638d2724f9146117ef5780638da5cb5b146117c65780638eb657c41461170457806390f7c71a146116ff57806394cecff81461167d5780639b3728e8146104b45780639fef686214611661578063a0978ac2146115c4578063ab4847b41461147a578063b70258be1461144e578063b75b688b146113c5578063b93703ef14611399578063b9aee2631461134f578063bc1d98d9146111f1578063bea99035146111a0578063beb08ab914611177578063c05db4ce14611143578063c236d48f14611117578063c7fcb8c3146110dd578063c864ce5614610fdf578063c8f17ce314610fda578063c963ba1d14610f8a578063ce9fffaa14610f56578063d2a1608014610f03578063dbba054014610ecf578063e26f7c4614610eb2578063e2eb41ff14610d46578063e69d2ca714610cfe578063e78a645114610b1b578063e8a8bd5c14610ae7578063e9212a0f14610acb578063ed270c1614610a3b578063edfae88314610954578063f178fb1b14610938578063f2fde38b1461088f578063f4f5058d1461053d578063f6d5f69a14610538578063f90ef4ac1461050f578063f93351391461050a578063f935c2d6146104b9578063f943cbc6146104b45763fa267c470361000f57346104af5760203660031901126104af5760043560005260186020526020604060002054604051908152f35b600080fd5b613d1a565b346104af5760403660031901126104af576104d2613c2a565b6104da613c56565b9060018060a01b0316600052602460205260ff604060002091166000526020526020604060002054604051908152f35b613cc5565b346104af5760003660031901126104af576003546040516001600160a01b039091168152602090f35b613cfe565b346104af5760403660031901126104af57610556613c66565b61055e613c40565b61056c6001602a5414613e38565b6002602a5560ff60045460a01c161561087d576105888261450a565b60ff821691826000526020600881526105a860ff60406000205416613feb565b6005546001600160a01b03908116939092906105c5851515613e75565b8560005260078352604060002054948515610839578360405180926323b872dd60e01b8252816000816105fd8c303360048501613f7e565b03925af190811561082d57600091610800575b50156107c45761062190338361432b565b92611d7e850291611d7d19868404016107ae57612710809304916103b680880290888204036107ae5784900492610258880261025719898204016107ae578590049361019089029061018f198a8304016107ae578a96879204808783610687878f613fde565b9061069191613fde565b9061069b91613fde565b906106a591613fde565b9533600052600a8a52816040600020918560005260108c526040600020878154906106cf916140ed565b90553385828a600187015416926106e593615950565b338a828a600287015416926106f9936159dc565b87339360030154169261070b93615a46565b85895490610718916140ed565b94858a55600554169687948760405193849333966107369486613ca1565b037f7a14a1babc4a5ae45f861abaf72c1b5410a6a47bcd895b29db0aa9d61db01d1c91a46040519182528482015260407f84c9aa800e59f9827a5bed559d2f7b6c5e3e446a7ba1a56d2193016565b7bab191a360405192835282015233906040600080516020615f5183398151915291a36001602a55005b634e487b7160e01b600052601160045260246000fd5b60405162461bcd60e51b81526004810184905260146024820152731554d110c81d1c985b9cd9995c8819985a5b195960621b6044820152606490fd5b6108209150843d8611610826575b6108188183613f43565b810190613f66565b87610610565b503d61080e565b6040513d6000823e3d90fd5b60405162461bcd60e51b815260048101859052601c60248201527b1554d110c81c1c9a58d9481a5cc81b9bdd0818dbdb999a59dd5c995960221b6044820152606490fd5b6040516358da85f160e11b8152600490fd5b346104af5760203660031901126104af576108a8613c2a565b600054906001600160a01b03808316916108c3338414613dff565b16918215610902576001600160a01b031916821760009081557f8be0079c531659141344cd1fd0a4f28419497f9722a3daafe3b4186f6b6457e09080a3005b60405162461bcd60e51b815260206004820152600e60248201526d13dddb995c881c995c5d5a5c995960921b6044820152606490fd5b346104af5760003660031901126104af576020604051600a8152f35b346104af5760003660031901126104af576109736001602a5414613e38565b6002602a5533600052602160205260406000205480156109fd576005546001600160a01b03906109a69082161515613e75565b336000526021602052600060408120556109c582338360055416614247565b60055416906040519081527f6212d3b8329f12cd207169548d7570de1a41c72473a7313c176c13641c39aab760203392a36001602a55005b60405162461bcd60e51b81526020600482015260166024820152754e6f205553444320726566657272616c20626f6e757360501b6044820152606490fd5b346104af5760403660031901126104af57610a54613c66565b602435908115158092036104af57602060ff7fdd552374405792741cb7e6993ca7e6dd5400b9e45e80ca256ac09db4009c893792610a9d60018060a01b03600054163314613dff565b610aa68161450a565b16928360005260088252604060002060ff1981541660ff8316179055604051908152a2005b346104af5760003660031901126104af57602060405160048152f35b346104af5760203660031901126104af5760ff610b02613c66565b1660005260106020526020604060002054604051908152f35b346104af5760403660031901126104af57610b34613c2a565b60006101a0604051610b4581613f27565b8281528260208201528260408201528260608201528260808201528260a08201528260c08201528260e08201528261010082015282610120820152826101408201528261016082015282610180820152015260018060a01b0316600052601360205260406000206024356000526020526101c060406000206101a0604051610bcc81613f27565b600b83549360ff85161515835260ff8560081c161515602084015260ff8560101c1660408401526001810154606084015260028101546080840152600381015460a0840152600481015460c0840152600581015460e08401526006810154610100840152600781015461012084015260088101546101408401526009810154610160840152600a81015461018084015201548282015260ff60405193161515835260208101511515602084015260ff6040820151166040840152606081015160608401526080810151608084015260a081015160a084015260c081015160c084015260e081015160e084015261010081015161010084015261012081015161012084015261014081015161014084015261016081015161016084015261018081015161018084015201516101a0820152f35b346104af5760203660031901126104af57610d34610d1a613c66565b610d2f60018060a01b03600054163314613dff565b61450a565b604051631cd8a64360e31b8152600490fd5b346104af5760203660031901126104af576001600160a01b03610d67613c2a565b16600052600a602052604060002080808080808080808080808080806011600f600e600d600c600b600a6009600860076006600560048d549d60018060a01b0360018201541660e052600260018060a01b03910154169e600360018060a01b03910154169f01549f01549f01549f01549f01549f01549f01549f01549f01549f01549f01549f01549f6010810154608052015460c05260405160a05260ff8116151560a0515260018060a01b039060081c16602060a051015260e051604060a0510152606060a0510152608060a051015260a08051015260c060a051015260e060a051015261010060a051015261012060a051015261014060a051015261016060a051015261018060a05101526101a060a05101526101c060a05101526101e060a051015261020060a051015260805161022060a051015260c05161024060a051015261026060a051f35b346104af5760003660031901126104af5760208054604051908152f35b346104af5760203660031901126104af5760ff610eea613c66565b1660005260126020526020604060002054604051908152f35b346104af5760403660031901126104af5760c0610f2f610f21613c2a565b610f29613c56565b906140fa565b936040939193519586526020860152604085015260608401526080830152151560a0820152f35b346104af5760203660031901126104af5760ff610f71613c66565b16600052600d6020526020604060002054604051908152f35b346104af5760203660031901126104af5760ff610fa5613c66565b610fae8161450a565b1660005260296020526020610fd26040600020546028835260406000205490613fde565b604051908152f35b613c84565b346104af576020806003193601126104af57610ff9613c66565b906110086001602a5414613e38565b6002602a556110168261450a565b33600052600b815260ff60406000209216918260005281526008604060002061104560ff8254841c1615613fa0565b019081549182156110ad579060007fe478efad2d93638c429f97678f2517efcafee26463eaf608c398b94a2510eab5925533600052600a8152600e604060002001611091848254613fde565b905561109d833361419b565b6040519283523392a36001602a55005b60405162461bcd60e51b81526004810183905260086024820152674e6f207072697a6560c01b6044820152606490fd5b346104af5760203660031901126104af576001600160a01b036110fe613c2a565b1660005260216020526020604060002054604051908152f35b346104af5760203660031901126104af5760043560005260156020526020604060002054604051908152f35b346104af5760203660031901126104af5760ff61115e613c66565b1660005260096020526020604060002054604051908152f35b346104af5760003660031901126104af576001546040516001600160a01b039091168152602090f35b346104af5760403660031901126104af576111b9613c2a565b6111c1613c56565b9060018060a01b0316600052602560205260ff604060002091166000526020526020604060002054604051908152f35b346104af5760403660031901126104af5761120a613c66565b611212613c56565b60ff6001916112256001602a5414613e38565b6002602a556112338461450a565b169081158015611345575b6113265760009160ff8416908160005260209460288652604060002054936029926029885281604060002054905b611290575b5050505050600052602883526040600020556001602a55604051908152f35b869796108061131d575b156113145760008581526027808a5260408083208a84528b5280832054888452918b528083208a84528b5290912080546001600160a01b03191690556001600160a01b0316968281019081106107ae57958281018091116107ae5761130090978461576d565b84600052838852816040600020549061126c565b80969596611271565b5080861061129a565b604051631084348b60e31b815260048082018490526024820152604490fd5b506004821161123e565b346104af5760203660031901126104af5760ff61136a613c66565b6113738161450a565b16600052601260205260408060002054600e602052816000205482519182526020820152f35b346104af5760203660031901126104af5760043560005260176020526020604060002054604051908152f35b346104af5760403660031901126104af576113de613c66565b6024906113ed6024359161450a565b6007905b8082111561140457602082604051908152f35b906001808201809211611439571b600019810190811161142457906113f1565b82634e487b7160e01b60005260116004526000fd5b83634e487b7160e01b60005260116004526000fd5b346104af5760203660031901126104af5760043560005260166020526020604060002054604051908152f35b346104af5761148836613da3565b90611491614034565b50811580156115ac575b61158f57600052601460205260406000209060005260205261158b604060002060ff6005604051926114cc84613eef565b8054845282600182015460018060a01b038116602087015260a01c1660408501526002810154606085015260038101546080850152600481015460a08501520154818116151560c084015260081c16151560e08201526040519182918291909160e0806101008301948051845260018060a01b03602082015116602085015260ff6040820151166040850152606081015160608501526080810151608085015260a081015160a085015260c0810151151560c085015201511515910152565b0390f35b60449160405191631f06e1dd60e31b835260048301526024820152fd5b5080600052601560205260406000205482101561149b565b346104af5760403660031901126104af576115dd613c2a565b6115e5613c56565b906115ef8261450a565b60018060a01b0316600052600b60205260ff6040600020911660005260205260a0604060002080549060068101549061163760028201549160096008820154910154906140ed565b9160ff604051948181161515865260081c1615156020850152604084015260608301526080820152f35b346104af5760003660031901126104af57602060405160198152f35b346104af5760403660031901126104af5760ff611698613c66565b16600052600c6020526040600020602435600052602052604060002080549061158b600182015491600281015493600382015491600560048201549101549260405196879660ff808760081c1696169460ff8260a01c169160018060a01b03169089613db9565b613ce2565b346104af5760403660031901126104af5761171d613c66565b6024359061173660018060a01b03600054163314613dff565b61173f8161450a565b811561178d57604060ff7f68cb741d0779160e141ccf5dd579423de44febc76c0edddcc6167807a3c16af79216928360005260066020528160002090808254925582519182526020820152a2005b60405162461bcd60e51b8152602060048201526011602482015270141c9a58d9481a5cc81c995c5d5a5c9959607a1b6044820152606490fd5b346104af5760003660031901126104af576000546040516001600160a01b039091168152602090f35b346104af5760203660031901126104af5760ff61180a613c66565b1660005260116020526020604060002054604051908152f35b346104af5760203660031901126104af5760ff61183e613c66565b16600052600f6020526020604060002054604051908152f35b346104af5760003660031901126104af57602060ff60045460a01c166040519015158152f35b346104af5760203660031901126104af576001600160a01b0361189e613c2a565b1660005260236020526020604060002054604051908152f35b346104af5760003660031901126104af5760206040516102588152f35b346104af5760003660031901126104af5760206040516101908152f35b346104af5760403660031901126104af576020610fd261190f613c2a565b611917613c56565b90614072565b61192636613d37565b91906119366001602a5414613e38565b6002602a556101408401353414801590611f37575b611f255760018060a01b03600454169160405192637db1594f60e01b8452853560048501526020860135602485015260ff61198860408801613c76565b16604485015261199a606087016142fa565b6001600160401b039081166064860152806119b7608089016142fa565b166084860152806119ca60a089016142fa565b1660a48601526119dc60c088016142fa565b1660c485015260e086013563ffffffff81168091036104af576000859384602096819460e48301528a611a12610100820161430e565b611a5061018061ffff93848094166101048801526101208101356101248801526101408101356101448801526101608101356101648801520161430e565b16610184840152611a646101a08d0161430e565b166101a48301526102006101c4830152806102048301528061022493848401378181018301849052336101e4830152601f01601f191681010301925af1801561082d57611efa575b5060ff611abb6040840161431d565b16600052600860205260ff6040600020541615611ed45733600052600a602052611aeb6040600020913383614541565b336000526013602052604060002060208301356000526020526040600020805460ff8116611eb25760019182809262ff0000611b296040890161431d565b60101b169062ff00ff191617178155015560048101805490600182018092116107ae5755601142910155611b6d33611b636040840161431d565b6020840135614655565b90611b7c6020820135336148f8565b611b886040820161431d565b9160006020830135600052601d60205260406000205491601e6020526040600020545b831080611ea8575b15611d0d576020848101356000818152601c808452604080832088845280865290832054939092529092526001600160a01b031692611c1391611bf586614629565b95600052602052604060002060018060a01b03198154169055614629565b918060005260136020526040600020602086013560005260205260406000209060ff825416611c57575b50506020840135600052601e602052604060002054611bab565b60068201546001810181116107ae57600101600683015580600052600a602052600c60406000200180546001810181116107ae57600101905580600052600a602052600b60406000200180546001810181116107ae576001019055611cc06020870135826149f0565b611cce602087013582614a54565b6006611cdf828960208a0135614655565b920154916040519283526020830152600080516020615f718339815191526040602088013593a38580611c3d565b9190506020830135600052601d60205260406000205560ff611d316040840161431d565b1690604051906101408401358252602082015260006040820152602083013590600080516020615f9183398151915260603392a4611d7e80340291341591348404148217156107ae57612710809304926103b680340290348204148417156107ae578190049061025880340290348204148517156107ae578190049061019094853402953487041417156107ae576020940490611ddf82611dda83611dda87611dda8c34613fde565b613fde565b9285850135600052601986526040600020611dfb8882546140ed565b905533600052600a8652611e5b836040600020611e288460018060a01b036001840154168b8b0135614c59565b6002810154611e459086906001600160a01b03168a8c0135614d19565b600301546001600160a01b031687890135614dbf565b611e6784601f546140ed565b601f5560405196875285870152604086015260608501526080840152600060a0840152013590600080516020615f3183398151915260c03392a36001602a55005b5060048210611bb3565b60405163c45f473d60e01b815260208501356004820152336024820152604490fd5b6024611ee26040840161431d565b60ff60405191634a525d1b60e01b8352166004820152fd5b602090813d8311611f1e575b611f108183613f43565b810103126104af5782611aac565b503d611f06565b6040516335f3c2a160e21b8152600490fd5b506101408401351561194b565b346104af5760003660031901126104af576000546001600160a01b0390611f6e9082163314613dff565b611f7c6001602a5414613e38565b6002602a55601f54908115611fd55760207f95334f2d4e98187a454807e6ec3da804af4da5c99357a7398e2cf2505ac88218916000601f55611fc284826001541661419b565b6001541692604051908152a26001602a55005b60405162461bcd60e51b815260206004820152600f60248201526e4e6f2070726f6a656374206665657360881b6044820152606490fd5b346104af5760603660031901126104af57612025613c2a565b61202d613c40565b6001600160a01b0360443581811693908490036104af57819061205582600054163314613dff565b1691821561214857169081156121085782156120c857826060927fd2d452a5df03f60ff9bf0ef1fc3498af992b0b6165c03b2f792cf596ee96530a9460018060a01b03198481600154161760015582816002541617600255600354161760035560405192835260208301526040820152a1005b60405162461bcd60e51b815260206004820152601860248201527713dc195c985d1bdc881dd85b1b195d081c995c5d5a5c995960421b6044820152606490fd5b60405162461bcd60e51b8152602060048201526018602482015277151c99585cdd5c9e481dd85b1b195d081c995c5d5a5c995960421b6044820152606490fd5b60405162461bcd60e51b8152602060048201526017602482015276141c9bda9958dd081dd85b1b195d081c995c5d5a5c9959604a1b6044820152606490fd5b346104af5760403660031901126104af576121a0613c2a565b6121a8613c56565b906121b28261450a565b60018060a01b0316600052600b60205260ff60406000209116600052602052602060ff604060002054166040519015158152f35b346104af5760003660031901126104af576020604051611d7e8152f35b346104af5760203660031901126104af576001600160a01b03612224613c2a565b1660005260226020526020604060002054604051908152f35b346104af5761224b36613da3565b906000526014602052604060002090600052602052604060002080549061158b600182015491600281015493600382015491600560048201549101549260405196879660ff808760081c1696169460ff8260a01c169160018060a01b03169089613db9565b346104af5760203660031901126104af576122c9613c2a565b6000546001600160a01b039182916122e49083163314613dff565b1690811561232857600580546001600160a01b031981168417909155167f750dce806a7083b5c48405b1310300e4aa4241d21c26cd1348ec6f81324aeb9f600080a3005b60405162461bcd60e51b81526020600482015260136024820152721554d110c81d1bdad95b881c995c5d5a5c9959606a1b6044820152606490fd5b346104af5760403660031901126104af5761237c613c2a565b612384613c56565b9060018060a01b0316600052600b60205260ff604060002091166000526020526101606040600020805490600181015490600281015460038201546004830154600584015490600685015492600786015494600960088801549701549760ff6040519a81811615158c5260081c16151560208b015260408a01526060890152608088015260a087015260c086015260e0850152610100840152610120830152610140820152f35b346104af5760203660031901126104af57612444613c2a565b600061024060405161245581613f0b565b8281528260208201528260408201528260608201528260808201528260a08201528260c08201528260e08201528261010082015282610120820152826101408201528261016082015282610180820152826101a0820152826101c0820152826101e08201528261020082015282610220820152015260018060a01b0316600052600a60205261026060406000206102406040516124f181613f0b565b601183549360ff85161515835260018060a01b038560081c16602084015260018060a01b03600182015416604084015260018060a01b03600282015416606084015260018060a01b036003820154166080840152600481015460a0840152600581015460c0840152600681015460e0840152600781015461010084015260088101546101208401526009810154610140840152600a810154610160840152600b810154610180840152600c8101546101a0840152600d8101546101c0840152600e8101546101e0840152600f810154610200840152601081015461022084015201548282015260ff60405193161515835260018060a01b03602082015116602084015260018060a01b03604082015116604084015260018060a01b03606082015116606084015260018060a01b03608082015116608084015260a081015160a084015260c081015160c084015260e081015160e08401526101008101516101008401526101208101516101208401526101408101516101408401526101608101516101608401526101808101516101808401526101a08101516101a08401526101c08101516101c08401526101e08101516101e08401526102008101516102008401526102208101516102208401520151610240820152f35b346104af5760203660031901126104af5760ff6126e5613c66565b16600052600e6020526020604060002054604051908152f35b346104af5760203660031901126104af5760ff612719613c66565b166000526008602052602060ff604060002054166040519015158152f35b346104af5760203660031901126104af5760043560005260196020526020604060002054604051908152f35b346104af5760003660031901126104af5760206040516113888152f35b346104af576020806003193601126104af5760c0906004356000526019815260406000205490601a81526040600020546018825260406000205460178352604060002054906015845260406000205492601685526040600020549460405196875286015260408501526060840152608083015260a0820152f35b346104af5760003660031901126104af57602060405160148152f35b346104af5760403660031901126104af576060612831613c2a565b612839613c56565b906128438261450a565b60018060a01b03168060005260209060218252604060002054926024835260ff604060002091169081600052835260406000205491600052602583526040600020906000528252604060002054916040519384528301526040820152f35b346104af5760403660031901126104af576128ba613c66565b602435906128c6614034565b506128d08161450a565b81151580612942575b1561290e5760ff16600052600c60205260406000209060005260205261158b604060002060ff6005604051926114cc84613eef565b60405162461bcd60e51b815260206004820152600c60248201526b125b9d985b1a590818d95b1b60a21b6044820152606490fd5b5060ff8116600052600d60205260406000205482106128d9565b60403660031901126104af57612970613c66565b612978613c40565b6129866001602a5414613e38565b6002602a5560ff60045460a01c161561087d576129a28261450a565b60ff82169182600052602091600883526129c360ff60406000205416613feb565b83600052600683526040600020543403612b56576129e290338361432b565b90611d7e80340290341590348304148117156107ae57612710809204926103b680340290348204148317156107ae578390049061025880340290348204148417156107ae578490049261019090813402913483041417156107ae5788957fb85ef11be8aa73fba898a4935afe7d749e354cf349871a27f8934346a1b2e4ff6040958a95612b027f4b36477d57294a9cd8dbda6c13fa93d36015734ac4eabb6c235f3ee6c9034a4e998b96048097612aa582611dda87611dda88611dda8d34613fde565b9933600052600a8152600f8c600020918a600052528b600020612ac98982546140ed565b905560018060a01b03612ae4868433846001870154166155b6565b612af68784338460028701541661565f565b600333920154166156e6565b612b2487612b1281601f546140ed565b9788601f558a51948594339886613ca1565b0390a3825191825286820152a260405191348352820152600080516020615f5183398151915260403392a36001602a55005b60405162461bcd60e51b8152600481018490526018602482015277125b98dbdc9c9958dd081c185e5b595b9d08185b5bdd5b9d60421b6044820152606490fd5b346104af5760003660031901126104af576002546040516001600160a01b039091168152602090f35b346104af5760403660031901126104af57610160612bdb613c2a565b610140612be6613c56565b9160405192612bf484613ebd565b6000845260006020850152600060408501526000606085015260006080850152600060a0850152600060c0850152600060e0850152610100916000838601526000846101209682888201520152612c4a8261450a565b60018060a01b0316600052600b60205260ff6040600020911660005260205260406000209260405191612c7c83613ebd565b600985549560ff87161515855260ff8760081c1615156020860152600181015460408601526002810154606086015260038101546080860152600481015460a0860152600581015460c0860152600681015460e086015260078101548386015260088101548486015201548484015260ff60405195161515855260208301511515602086015260408301516040860152606083015160608601526080830151608086015260a083015160a086015260c083015160c086015260e083015160e0860152808301519085015280820151908401520151610140820152f35b346104af576020806003193601126104af57612d72613c66565b90612d816001602a5414613e38565b6002602a55612d8f8261450a565b6005546001600160a01b0390612da89082161515613e75565b33600052600b825260ff6040600020931692836000528252612dd560ff60406000205460081c1615613fa0565b33600052602482526040600020836000528252604060002054908115612e6f577fcb5b06c056856bb82784094d6a04f2cdd54a8ca5035447b87427f46c8d09813190336000526024845260406000208560005284526000604081205533600052602284526040600020612e49848254613fde565b9055612e5a83338360055416614247565b60055416926040519283523392a46001602a55005b60405162461bcd60e51b815260048101849052600d60248201526c4e6f2055534443207072697a6560981b6044820152606490fd5b346104af5760403660031901126104af57612ebd613c66565b60243590612ed660018060a01b03600054163314613dff565b612edf8161450a565b8115612f2d57604060ff7f3b7a8420bcf2581fac422a359ff730b951e902c11f27da90a7e97da9c068f9a69216928360005260076020528160002090808254925582519182526020820152a2005b60405162461bcd60e51b81526020600482015260166024820152751554d110c81c1c9a58d9481a5cc81c995c5d5a5c995960521b6044820152606490fd5b346104af5760203660031901126104af576004358015158091036104af5760207f59eee9122213289e523d1060fc23bf301e7d369abcb2a33ebf3496c81c614f9b91612fc260018060a01b03600054163314613dff565b6004805460ff60a01b191660a083901b60ff60a01b16179055604051908152a1005b346104af5760003660031901126104af576004546040516001600160a01b039091168152602090f35b346104af5760203660031901126104af57600435600052601a6020526020604060002054604051908152f35b346104af5761304736613d37565b91906130576001602a5414613e38565b6002602a5561016084013515613662576005546040516323b872dd60e01b81529060209082906001600160a01b03168160008161309e6101608c0135303360048501613f7e565b03925af190811561082d57600091613643575b50156136315760018060a01b03600454169160405192637db1594f60e01b8452853560048501526020860135602485015260ff6130f060408801613c76565b166044850152613102606087016142fa565b6001600160401b0390811660648601528061311f608089016142fa565b1660848601528061313260a089016142fa565b1660a486015261314460c088016142fa565b1660c485015260e086013563ffffffff81168091036104af576000859384602096819460e48301528a61317a610100820161430e565b6131b861018061ffff93848094166101048801526101208101356101248801526101408101356101448801526101608101356101648801520161430e565b166101848401526131cc6101a08d0161430e565b166101a48301526102006101c4830152806102048301528061022493848401378181018301849052336101e4830152601f01601f191681010301925af1801561082d57613606575b5060ff6132236040840161431d565b16600052600860205260ff6040600020541615611ed45733600052600a6020526132536040600020913383614541565b336000526013602052604060002060208301356000526020526040600020805460ff8116611eb25760019182809262ff00006132916040890161431d565b60101b169062ff00ff191617178155015560048101805490600182018092116107ae57556011429101556132cb33611b636040840161431d565b906132da6020820135336148f8565b6132e66040820161431d565b9160006020830135600052601d60205260406000205491601e6020526040600020545b8310806135fc575b1561344d576020848101356000818152601c808452604080832088845280865290832054939092529092526001600160a01b03169261335391611bf586614629565b918060005260136020526040600020602086013560005260205260406000209060ff825416613397575b50506020840135600052601e602052604060002054613309565b60068201546001810181116107ae57600101600683015580600052600a602052600c60406000200180546001810181116107ae57600101905580600052600a602052600b60406000200180546001810181116107ae5760010190556134006020870135826149f0565b61340e602087013582614a54565b600661341f828960208a0135614655565b920154916040519283526020830152600080516020615f718339815191526040602088013593a3858061337d565b9190506020830135600052601d60205260406000205560ff6134716040840161431d565b1690604051906101608401358252602082015260016040820152602083013590600080516020615f9183398151915260603392a4610160810135611d7e810290611d7d19908204016107ae5761271090819004916101608101356103b68102906103b519908204016107ae5782900461016082013561025881029061025719908204016107ae57839004610190938461016085013502946101608501358604036107ae57602094049061353582611dda83611dda87611dda8c6101608c0135613fde565b9285850135600052601a865260406000206135518882546140ed565b905533600052600a86526135b183604060002061357e8460018060a01b036001840154168b8b0135614be4565b600281015461359b9086906001600160a01b03168a8c0135614cc4565b600301546001600160a01b031687890135614d6a565b6135bc8487546140ed565b865560405196875285870152604086015260608501526080840152600160a0840152013590600080516020615f3183398151915260c03392a36001602a55005b5060048210613311565b602090813d831161362a575b61361c8183613f43565b810103126104af5782613214565b503d613612565b60405163022e258160e11b8152600490fd5b61365c915060203d602011610826576108188183613f43565b856130b1565b6040516304c1050d60e01b8152600490fd5b346104af5760003660031901126104af5760206040516103b68152f35b346104af5760003660031901126104af576000546001600160a01b03906136bb9082163314613dff565b6136c96001602a5414613e38565b6002602a558060055416906136df821515613e75565b60205491821561373a57826136fe916000602055836001541690614247565b7f6f09a29fa95e6ca2c4c5b55c121d7269faf4d531e64e23d432f03e95bb6caa4760208260055416926001541693604051908152a36001602a55005b60405162461bcd60e51b81526020600482015260146024820152734e6f20555344432070726f6a656374206665657360601b6044820152606490fd5b346104af5760203660031901126104af5760ff613791613c66565b1660005260066020526020604060002054604051908152f35b346104af5760403660031901126104af576001600160a01b036137cb613c2a565b16600052601360205260406000206024356000526020526101c060406000208054906001810154906002810154600382015460048301546005840154600685015490600786015492600887015494600988015496600b600a8a01549901549960ff6040519c8d828216151590528d6020838360081c16151591015260101c1660408d015260608c015260808b015260a08a015260c089015260e08801526101008701526101208601526101408501526101608401526101808301526101a0820152f35b346104af576020806003193601126104af5760ff6138aa613c66565b6138b38161450a565b16600052601081526040600020546011825261158b604060002054926012815260406000205490600e8152600d60406000205491526040600020549160405195869586613ca1565b346104af5760003660031901126104af5760206040516127108152f35b346104af576020806003193601126104af5760ff613934613c66565b61393d8161450a565b16600052600f81526040600020546011825261158b604060002054926012815260406000205490600e8152600d60406000205491526040600020549160405195869586613ca1565b346104af5760003660031901126104af576139a46001602a5414613e38565b6002602a5533600052600a602052600d604060002001548015613a115733600052600a6020526000600d6040822001556139de813361419b565b6040519081527f53473e2a2e0cc6840d80567f104277ea6daa0891e5316836bac38a686b79ea3360203392a26001602a55005b60405162461bcd60e51b81526020600482015260116024820152704e6f20726566657272616c20626f6e757360781b6044820152606490fd5b346104af5760003660031901126104af57602060405160118152f35b346104af5760003660031901126104af576020601f54604051908152f35b346104af5760203660031901126104af57613a9d613c2a565b6000546001600160a01b03918291613ab89083163314613dff565b16908115613afc57600480546001600160a01b031981168417909155167f57b8ff42eaa81bfce68c6ad04d5bf2c7ebca554a63b0ece2bb301a0b2eff716d600080a3005b60405163d92e233d60e01b8152600490fd5b346104af5760003660031901126104af576005546040516001600160a01b039091168152602090f35b346104af5760403660031901126104af57613b50613c2a565b613b58613c56565b90613b628261450a565b60018060a01b0316600052600b60205260ff60406000209116600052602052602060ff60406000205460081c166040519015158152f35b346104af5760203660031901126104af5760ff613bb4613c66565b1660005260076020526020604060002054604051908152f35b346104af5760403660031901126104af57613be6613c2a565b613bee613c56565b90613bf88261450a565b60018060a01b0316600052600b60205260ff604060002091166000526020526020600760406000200154604051908152f35b600435906001600160a01b03821682036104af57565b602435906001600160a01b03821682036104af57565b6024359060ff821682036104af57565b6004359060ff821682036104af57565b359060ff821682036104af57565b346104af5760003660031901126104af5760206040516107d08152f35b9192608093969594919660a084019784526020840152604083015260608201520152565b346104af5760003660031901126104af5760206040516101f48152f35b346104af5760003660031901126104af57602060405160648152f35b346104af5760003660031901126104af57602060405160328152f35b346104af5760003660031901126104af5760206040516103e88152f35b600319810161020081126104af576101c0136104af576004916001600160401b03916101c435908382116104af57806023830112156104af5781600401359384116104af57602484830101116104af5760240191906101e4356001600160a01b03811681036104af5790565b60409060031901126104af576004359060243590565b9693909897949160e0969360ff916101008a019b8a5260018060a01b031660208a01521660408801526060870152608086015260a0850152151560c08401521515910152565b15613e0657565b60405162461bcd60e51b815260206004820152600a60248201526927b7363c9037bbb732b960b11b6044820152606490fd5b15613e3f57565b60405162461bcd60e51b815260206004820152600e60248201526d1499595b9d1c985b9d0818d85b1b60921b6044820152606490fd5b15613e7c57565b60405162461bcd60e51b81526020600482015260196024820152781554d110c81d1bdad95b881b9bdd0818dbdb999a59dd5c9959603a1b6044820152606490fd5b61016081019081106001600160401b03821117613ed957604052565b634e487b7160e01b600052604160045260246000fd5b61010081019081106001600160401b03821117613ed957604052565b61026081019081106001600160401b03821117613ed957604052565b6101c081019081106001600160401b03821117613ed957604052565b601f909101601f19168101906001600160401b03821190821017613ed957604052565b908160209103126104af575180151581036104af5790565b6001600160a01b03918216815291166020820152604081019190915260600190565b15613fa757565b60405162461bcd60e51b815260206004820152600f60248201526e2632bb32b61034b990333937bd32b760891b6044820152606490fd5b919082039182116107ae57565b15613ff257565b60405162461bcd60e51b815260206004820152601a60248201527913195d995b081a5cc81b9bdd08185d985a5b18589b19481e595d60321b6044820152606490fd5b6040519061404182613eef565b8160e06000918281528260208201528260408201528260608201528260808201528260a08201528260c08201520152565b9060ff9061407f8161450a565b16600090808252601160205260408220549283156140e65760018060a01b03168252600b60205260408220908252602052600760408220015490612710918281029281840414901517156140d257500490565b634e487b7160e01b81526011600452602490fd5b5050905090565b919082018092116107ae57565b91906141058161450a565b60009260018060a01b03168352600b60205260ff6040842091168352602052600260408320015491821561418e57600c602052604081208382526020526040812080546002820154946003830154916004840154915b600180821115614176571c9461417090614629565b9461415b565b50509194909392600560ff9101541691959493929190565b8092509180918180918190565b811561424357600080808094819460018060a01b03165af1903d1561423d573d906001600160401b03821161422957604051916141e2601f8201601f191660200184613f43565b825260203d92013e5b156141f257565b60405162461bcd60e51b815260206004820152600f60248201526e151c985b9cd9995c8819985a5b1959608a1b6044820152606490fd5b634e487b7160e01b81526041600452602490fd5b506141eb565b5050565b82156142f55760405163a9059cbb60e01b81526001600160a01b039283166004820152602481019390935260209183916044918391600091165af190811561082d576000916142d6575b501561429957565b60405162461bcd60e51b8152602060048201526015602482015274151bdad95b881d1c985b9cd9995c8819985a5b1959605a1b6044820152606490fd5b6142ef915060203d602011610826576108188183613f43565b38614291565b505050565b35906001600160401b03821682036104af57565b359061ffff821682036104af57565b3560ff811681036104af5790565b90929160018060a01b03916000908386168252602090600a825260409384842095600b84528585209260ff81169384875285528686209260ff8454166144cc57614376908b8a614541565b600180938161ffff19825416178155018054908482018092116144b85755600497600481018054908582018092116144a45755426011918201559291906143d1816143c18d82614e10565b9c6143cc8282615141565b61540d565b869385885260288752888820549960299460298952808b8b2054905b614405575b5050505050505050906028918352522055565b8c949596979c108061449b575b1561449457878a526027808a528b8b20858c528a528b8b2054898c52908a528b8b20858c528a528b8b2080546001600160a01b0319169055861693818101908110614482579b8181018091116144825761446d90948661576d565b878a528689528a8a20549396959493816143ed565b634e487b7160e01b8b5283835260248bfd5b839b6143f2565b50818c10614412565b634e487b7160e01b89526011600452602489fd5b634e487b7160e01b88526011600452602488fd5b875162461bcd60e51b81526004810187905260176024820152764c6576656c20697320616c72656164792061637469766560481b6044820152606490fd5b60ff16600181108015614537575b61451f5750565b60249060405190633d98c85560e21b82526004820152fd5b5060118111614518565b91825460ff8116614623576001600160a81b031916600883901b610100600160a81b03161760011783554260108401556001600160a01b039081169182151590829082614616575b5050806145fe575b61459a57505050565b6003600184019260018060a01b03199381858254161790556000908152600a602052828060016040842001541660028701818782541617905580156000146145ec575050935b01921690825416179055565b825260409091206001015416936145e0565b5081600052600a60205260ff60406000205416614591565b1683141590508138614589565b50505050565b60001981146107ae5760010190565b805460ff60a01b191660a09290921b60ff60a01b16919091179055565b929091600093808552601593602060158152604093848820948554156148ef575b85549561468287614629565b905585986001988988146000146148e65781935b878352601491601487528484208a85528752848420918a83558c83016146d660018060a01b038093169a60018060a01b0319928c84825416178155614638565b876002850155600580940161ff00198154169055898652601389528686208b875289528760038d8989209060028201550155601789528d87872080549182018092116144b857558d90886147f0575b50505088845260168752848420549b8c156147e8575b929190835b61479a575b5050505081869798997f19a57ce1df8ff5b43fd57ebc398733d14bbb0da3e683f28c5b0e32955d8d19c8969783526015865281832054811060001461479357915b60168652205551908152a4565b5081614786565b9091929b898552818852858520548110806147ce575b156147c8576147be90614629565b9b92919083614740565b9b614745565b50838852858520818652885260ff838787200154166147b0565b9b508b61473b565b8b875260148a528787208988528a528c888820916003830190815415600014614837575055015416845260138752848420898552875289600486862001555b388c81614725565b9493505050600481018054156000146148c957908f918e9055600581018260ff198254161790550181815416875260138a528787208c88528a528c60058989200155541690601e89528686205491601c8a528787208388528a52878720918254161790558c81018091116148b557898552601e88528585205561482f565b634e487b7160e01b85526011600452602485fd5b60448d8b8b5191630cc237c760e31b835260048301526024820152fd5b878a1c93614696565b60018655614676565b6001600160a01b0316600081815260136020908152604080832085845282528083205460ff16156149e957838352601b8252808320858452825280832084845260138352818420868552835281842090805494614963600761495988615b8a565b9401938454615ab0565b9182156149de57846149d392600a9261499d867f9de12b3d7a04eb259125d6f36a27a748d7ce92411cdf21da63e0e0394dfeea169b6140ed565b90556149aa8587546140ed565b86558a8152601888528181206149c18682546140ed565b905589815282885220019182546140ed565b9055549051908152a3565b505050505050505050565b5050505050565b6001600160a01b0316600081815260136020908152604080832085845282528083205460ff16156149e957838352601b8252808320858452825280832084845260138352818420868552835260038285209101805494614963600761495988615b0f565b6001600160a01b0316600081815260136020908152604080832085845282528083205460ff16156149e957838352601b8252808320858452825280832084845260138352818420868552835260048285209101805494614963600761495988615adf565b6001600160a01b0316600081815260136020908152604080832085845282528083205460ff16156149e957838352601b8252808320858452825280832084845260138352818420868552835260018285209101805494614963600761495988615b38565b6001600160a01b0316600081815260136020908152604080832085845282528083205460ff16156149e957838352601b8252808320858452825280832084845260138352818420868552835260018285209101805494614963600761495988615b0f565b6001600160a01b0316600081815260136020908152604080832085845282528083205460ff16156149e957838352601b8252808320858452825280832084845260138352818420868552835260018285209101805494614963600761495988615b61565b906001600160a01b03811680158015614c40575b614c225792614c20936000526021602052614c1960406000209182546140ed565b9055614ab8565b565b5050600052601a602052614c3c60406000209182546140ed565b9055565b5080600052600a60205260ff6040600020541615614bf8565b906001600160a01b03811680158015614cab575b614c915792614c2093600052600a602052614c19600d6040600020019182546140ed565b50506000526019602052614c3c60406000209182546140ed565b5080600052600a60205260ff6040600020541615614c6d565b906001600160a01b03811680158015614d00575b614c225792614c20936000526021602052614cf960406000209182546140ed565b9055614b1c565b5080600052600a60205260ff6040600020541615614cd8565b906001600160a01b03811680158015614d51575b614c915792614c2093600052600a602052614cf9600d6040600020019182546140ed565b5080600052600a60205260ff6040600020541615614d2d565b906001600160a01b03811680158015614da6575b614c225792614c20936000526021602052614d9f60406000209182546140ed565b9055614b80565b5080600052600a60205260ff6040600020541615614d7e565b906001600160a01b03811680158015614df7575b614c915792614c2093600052600a602052614d9f600d6040600020019182546140ed565b5080600052600a60205260ff6040600020541615614dd3565b909160ff8216600052600d6020526040600020805415615138575b549260018401928385116107ae5760ff8116600052600d602052836040600020556001851460001461512e576000905b8560078110159586615123575b5050600c60209081526040600081812089825290925290208681556001810180546001600160a01b0319166001600160a01b03861617815560059190614eaf908490614638565b83600282015501805461ff0087151560081b169061ff00191617905560018060a01b038316600052600b602052604060002060ff8216600052602052816003604060002088600282015501556012602052604060002080546001810181116107ae57600101905560ff81166000526012602052604060002054600960205260406000205581615028575b60ff8116600052600e60205260406000205494851561501f575b945b60ff8216600052600d60205286604060002054821080614ffa575b15614f845750614f7f90614629565b614f55565b94957fd8a08c0c1f4b5e930e1da0bd0b50635c1f9de780c217ce3fa2a17686579146c892614fdd60ff92602094848416600052600d86526040600020548110600014614ff2575b600e8652604060002055888389615c58565b60405194855216936001600160a01b031692a4565b506000614fcb565b5050600c6020526040600020816000526020528660ff60056040600020015416614f70565b60019550614f53565b600c6020526040600020826000526020526040600020866003820180541560001461508057556001808060a01b0391015416600052600b602052604060002060ff821660005260205285600460406000200155614f39565b505060048101546150e6576001818860046150e1940155600581018260ff198254161790550160018060a01b03815416600052600b602052604060002060ff84166000526020528760056040600020015560018060a01b0390541682615bad565b614f39565b60405162461bcd60e51b815260206004820152601560248201527414185c995b9d08185b1c9958591e4818db1bdcd959605a1b6044820152606490fd5b161594508538614e68565b8460011c90614e5b565b60018155614e2b565b6001600160a01b0316600081815260266020908152604080832060ff95909516808452948252808320848452600a8352818420600b845282852087865284528285208254919590926151ab6151a4600761519a86615b8a565b9601958654615ab0565b80946140ed565b9055600586016151bc8382546140ed565b9055811561521857836149d391600a7ff3df9e133b197dfbba04af8b589dd996d7080575083d89b81dd8f5fc0377db5a986151f88688546140ed565b8755016152068582546140ed565b905589815260118752209182546140ed565b5050505050505050565b60018060a01b03166000818152602060268152604060ff8184209516948584528252808320848452600a835281842093600b84528281208782528452600183822092019081549161527a6151a4600761519a86615b38565b9055600686016151bc8382546140ed565b60018060a01b03166000818152602060268152604060ff8184209516948584528252808320848452600a835281842093600b84528281208782528452600183822092019081549161527a6151a4600761519a86615b0f565b60018060a01b03166000818152602060268152604060ff8184209516948584528252808320848452600a835281842093600b84528281208782528452600183822092019081549161527a6151a4600761519a86615b61565b60018060a01b03166000818152602060268152604060ff8184209516948584528252808320848452600a835281842093600b8452828120878252845260038382209201908154916153936151a4600761519a86615b0f565b9055600886016151bc8382546140ed565b60018060a01b03166000818152602060268152604060ff8184209516948584528252808320848452600a835281842093600b8452828120878252845260048382209201908154916153fc6151a4600761519a86615adf565b9055600986016151bc8382546140ed565b60ff80921690600191600181111561462357600191835b61542f575050505050565b84831692828410156155b057848691819560018060a01b0385166000818152602090600b8252604080822085835283528082209283549360088a86821c16615482575b5050505050505050011692615424565b7fb0f7d96751587de2fbb05ae8bb25971ba7cd777de717eb3698b701d6c77396549561ff001916825560098201918583549384615564575b50915050869150526025918282528084208785528252808420546154eb575b50505080a33880808080808080615472565b602261555a92878652848152828620898752815282862054948887528152828620898752815285838120558786526024815282862089875281528286206155338682546140ed565b90558786526023815282862061554a868254613fde565b90558786525283209182546140ed565b90553880806154d9565b55016155718282546140ed565b9055858452600a808352600f8486200161558c838254613fde565b905586855282526155a4600e848620019182546140ed565b905538808085816154ba565b506149e9565b9092916001600160a01b038083169290919083158015615646575b615624579160ff82615611604094600080516020615f118339815191529688600052600a602052600d876000200161560a8b82546140ed565b9055615222565b83519687526064602088015216951693a4565b5091505060ff91925016600052600f602052614c3c60406000209182546140ed565b5083600052600a60205260ff60406000205416156155d1565b9092916001600160a01b0380831692909190831580156156cd575b615624579160ff826156ba604094600080516020615ef18339815191529688600052600a602052600d87600020016156b38b82546140ed565b905561528b565b83519687526032602088015216951693a4565b5083600052600a60205260ff604060002054161561567a565b9092916001600160a01b038083169290919083158015615754575b615624579160ff82615741604094600080516020615ed18339815191529688600052600a602052600d876000200161573a8b82546140ed565b90556152e3565b83519687526019602088015216951693a4565b5083600052600a60205260ff6040600020541615615701565b9060018060a01b0381169060008281526020600b81526040928383209560ff9182821697888652845285852083815416156149de576006019182546001810180911161593c578355878652600a8552600c87872001805490600182018092116144b85755878652600a8552600b87872001805490600182018092116144b857936158328a947fbde1dd97b8c6b9fb71194209f50387cccf9ec5cc5c0e9aa18b13c93cf78ce6e8948b948e9855615823818361533b565b61582d81836153a4565b614e10565b905490825191825287820152a385857fc216fcbbb04c29351601c08c37331f5699a51282f48da79353b90ab10ff8948784875160018152a3848352600b825283832086845282528383209360118710928361592b575b836158ea575b5050816158db575b506158a15750505050565b7f9eedad69e1da086c8d70014edef61addc1d62bfdf25b1dcd3484ad720b9707629161010061ff001982541617905580a338808080614623565b9050825460081c161538615896565b90919250858452600b8152818420906001880184811161591757841685525282205481161590388061588e565b634e487b7160e01b86526011600452602486fd5b925060026006860154101592615888565b634e487b7160e01b87526011600452602487fd5b9092916001600160a01b0380831692909190831580156159c3575b6159a1579160ff82615611604094600080516020615f11833981519152968860005260216020528660002061560a8b82546140ed565b5091505060ff919250166000526010602052614c3c60406000209182546140ed565b5083600052600a60205260ff604060002054161561596b565b9092916001600160a01b038083169290919083158015615a2d575b6159a1579160ff826156ba604094600080516020615ef183398151915296886000526021602052866000206156b38b82546140ed565b5083600052600a60205260ff60406000205416156159f7565b9092916001600160a01b038083169290919083158015615a97575b6159a1579160ff82615741604094600080516020615ed1833981519152968860005260216020528660002061573a8b82546140ed565b5083600052600a60205260ff6040600020541615615a61565b906113889182811015615ad75782039182116107ae5781811115615ad2575090565b905090565b505050600090565b6101f49081811015615b085781039081116107ae5780600a11600014615b025790565b50600a90565b5050600090565b6107d09081811015615b085781039081116107ae5780603211600014615b325790565b50603290565b6107d09081811015615b085781039081116107ae5780606411600014615b5b5790565b50606490565b6107d09081811015615b085781039081116107ae5780601911600014615b845790565b50601990565b6103e89081811015615b085781039081116107ae5780606411600014615b5b5790565b9060018060a01b031690600091808352602092600b845260409360ff858320941693848352815260ff8583205416156149e957602981528482205460278252858320818452825285832080546001600160a01b03191685179055946001860191828711615c4457858452602990528220557fa4b179c6fa6853170e9070ad0bc16c8b91a5bc4e97009e634fb3eb26b64347a39080a4565b634e487b7160e01b84526011600452602484fd5b92156142f55760ff811691600091838352602091600f8352604080852054936101f4948581029080820487149015171561593c576127108091049588885260108352838820548181029181830414901517156144b85784918991049680615d56575b50505084615ccc575050505050505050565b84615d127f57cca56d6aea4f955145b97472f1141f1bb79a9d1bf59ea9dd3ad72466ad54ae966060968a8a5260108552858a20615d0a838254613fde565b90558b615e45565b60ff8360018060a01b0380600554169b1698898152600b85528181208b82528552205460081c16918351948552840152151590820152a43880808080808080615218565b818952600f8452848920615d6b828254613fde565b9055615d7881888d615dd4565b6001600160a01b038b16808a52600b8552858a20838b528552858a2054865192835260081c60ff16151582860152907ff349ec77f93fc0622775ad3b5561a9ba55f1a991e72df46ed77bc72c724025b8908690a4828738615cba565b60409060018060a01b031691600090838252600b60205260ff83832091168252602052818120928152600a602052209060ff815460081c16615e3057614c3c916008600e9201615e258582546140ed565b9055019182546140ed565b614c3c916009600f9201615e258582546140ed565b60018060a01b0316906000828152602092600b845260409260ff848420911690818452855260ff8484205460081c16615eab579381614c3c956022938552602483528585209085528252848420615e9d8882546140ed565b9055835252209182546140ed565b9381614c3c956023938552602583528585209085528252848420615e9d8882546140ed56feb81fbcd4b084ae8778037d60e56c538cebacb837e72623e7b204170addc1e24b76a46dbe9b38553ba3f9366dde5dfab2ae45ae902483379a3f0cb6eb5b74d422c0dc322d34d7e6a06259be3bac607c8ba2eb3200163a637ad7f20a70ebc11d7bc5a523fad910d10f2e95e81baa27487ab1f8867069e11e28424fff2c49ec980de099ace9cc029768846f2abe32ce8983d72474335b42431e129401c1e9c0886be71a25c367057ba6c32bea73ffe6eac519023fe04617b003d4ddc2781cb847cf9e2bd5f99a08e89f06d56896c56146aa32e257d0942bbd7c9b9748a26fd9d4e2a26469706673582212200c19b43e6c19e505a40bd517450493b38a4ea8d46a6252250a3e687e7cafa43664736f6c63430008180033",
  "linkReferences": {},
  "deployedLinkReferences": {}
}