{
  "_format": "hh-sol-artifact-1",
  "contractName": "EasyGameRoundManager",
  "sourceName": "contracts/EasyGameRoundManager.sol",
  "abi": [
    {
      "inputs": [
        {
          "internalType": "address",
          "name": "scheduleSigner_",
          "type": "address"
        }
      ],
      "stateMutability": "nonpayable",
      "type": "constructor"
    },
    {
      "inputs": [],
      "name": "ArenaSkillsNotConfigured",
      "type": "error"
    },
    {
      "inputs": [
        {
          "internalType": "uint256",
          "name": "roundId",
          "type": "uint256"
        }
      ],
      "name": "DuplicateSeasonRoundId",
      "type": "error"
    },
    {
      "inputs": [
        {
          "internalType": "uint16",
          "name": "expected",
          "type": "uint16"
        },
        {
          "internalType": "uint16",
          "name": "actual",
          "type": "uint16"
        }
      ],
      "name": "InvalidFreezeLimit",
      "type": "error"
    },
    {
      "inputs": [
        {
          "internalType": "uint8",
          "name": "level",
          "type": "uint8"
        }
      ],
      "name": "InvalidLevel",
      "type": "error"
    },
    {
      "inputs": [
        {
          "internalType": "uint16",
          "name": "version",
          "type": "uint16"
        }
      ],
      "name": "InvalidPaymentSplitVersion",
      "type": "error"
    },
    {
      "inputs": [
        {
          "internalType": "uint8",
          "name": "requiredLevel",
          "type": "uint8"
        },
        {
          "internalType": "uint8",
          "name": "requestedLevel",
          "type": "uint8"
        }
      ],
      "name": "InvalidPlayerLevelProgression",
      "type": "error"
    },
    {
      "inputs": [],
      "name": "InvalidRoundCapacity",
      "type": "error"
    },
    {
      "inputs": [
        {
          "internalType": "uint256",
          "name": "roundId",
          "type": "uint256"
        }
      ],
      "name": "InvalidRoundId",
      "type": "error"
    },
    {
      "inputs": [],
      "name": "InvalidRoundPrice",
      "type": "error"
    },
    {
      "inputs": [],
      "name": "InvalidRoundTimeRange",
      "type": "error"
    },
    {
      "inputs": [],
      "name": "InvalidScheduleSignature",
      "type": "error"
    },
    {
      "inputs": [
        {
          "internalType": "uint8",
          "name": "expected",
          "type": "uint8"
        },
        {
          "internalType": "uint8",
          "name": "actual",
          "type": "uint8"
        }
      ],
      "name": "InvalidSeasonLevel",
      "type": "error"
    },
    {
      "inputs": [
        {
          "internalType": "uint256",
          "name": "actual",
          "type": "uint256"
        },
        {
          "internalType": "uint256",
          "name": "expected",
          "type": "uint256"
        }
      ],
      "name": "InvalidSeasonRoundCount",
      "type": "error"
    },
    {
      "inputs": [
        {
          "internalType": "uint256",
          "name": "length",
          "type": "uint256"
        }
      ],
      "name": "InvalidSignatureLength",
      "type": "error"
    },
    {
      "inputs": [],
      "name": "InvalidSignatureS",
      "type": "error"
    },
    {
      "inputs": [
        {
          "internalType": "uint8",
          "name": "v",
          "type": "uint8"
        }
      ],
      "name": "InvalidSignatureV",
      "type": "error"
    },
    {
      "inputs": [
        {
          "internalType": "address",
          "name": "target",
          "type": "address"
        }
      ],
      "name": "InvalidSystemContract",
      "type": "error"
    },
    {
      "inputs": [
        {
          "internalType": "uint256",
          "name": "seasonId",
          "type": "uint256"
        },
        {
          "internalType": "uint8",
          "name": "lowerLevel",
          "type": "uint8"
        },
        {
          "internalType": "uint8",
          "name": "upperLevel",
          "type": "uint8"
        }
      ],
      "name": "LevelOpeningIntervalTooShort",
      "type": "error"
    },
    {
      "inputs": [
        {
          "internalType": "uint256",
          "name": "roundId",
          "type": "uint256"
        },
        {
          "internalType": "address",
          "name": "player",
          "type": "address"
        }
      ],
      "name": "PlayerProgressionFrozen",
      "type": "error"
    },
    {
      "inputs": [
        {
          "internalType": "address",
          "name": "inviter",
          "type": "address"
        },
        {
          "internalType": "uint32",
          "name": "used",
          "type": "uint32"
        },
        {
          "internalType": "uint32",
          "name": "capacity",
          "type": "uint32"
        }
      ],
      "name": "ReferralCapacityReached",
      "type": "error"
    },
    {
      "inputs": [
        {
          "internalType": "address",
          "name": "inviter",
          "type": "address"
        },
        {
          "internalType": "uint256",
          "name": "seasonId",
          "type": "uint256"
        }
      ],
      "name": "ReferralInviterNotActive",
      "type": "error"
    },
    {
      "inputs": [
        {
          "internalType": "uint256",
          "name": "roundId",
          "type": "uint256"
        }
      ],
      "name": "RoundAlreadySettled",
      "type": "error"
    },
    {
      "inputs": [
        {
          "internalType": "uint256",
          "name": "roundId",
          "type": "uint256"
        }
      ],
      "name": "RoundConfigMismatch",
      "type": "error"
    },
    {
      "inputs": [
        {
          "internalType": "uint256",
          "name": "roundId",
          "type": "uint256"
        },
        {
          "internalType": "address",
          "name": "player",
          "type": "address"
        }
      ],
      "name": "RoundEntryAlreadyRegistered",
      "type": "error"
    },
    {
      "inputs": [
        {
          "internalType": "uint256",
          "name": "roundId",
          "type": "uint256"
        }
      ],
      "name": "RoundNotInitialized",
      "type": "error"
    },
    {
      "inputs": [
        {
          "internalType": "uint256",
          "name": "roundId",
          "type": "uint256"
        }
      ],
      "name": "RoundNotStarted",
      "type": "error"
    },
    {
      "inputs": [
        {
          "internalType": "uint256",
          "name": "seasonId",
          "type": "uint256"
        }
      ],
      "name": "SeasonAlreadyCommitted",
      "type": "error"
    },
    {
      "inputs": [
        {
          "internalType": "uint256",
          "name": "seasonId",
          "type": "uint256"
        },
        {
          "internalType": "uint8",
          "name": "level",
          "type": "uint8"
        }
      ],
      "name": "SeasonLevelAlreadyConfigured",
      "type": "error"
    },
    {
      "inputs": [
        {
          "internalType": "uint256",
          "name": "seasonId",
          "type": "uint256"
        }
      ],
      "name": "SeasonNotCommitted",
      "type": "error"
    },
    {
      "inputs": [
        {
          "internalType": "uint256",
          "name": "seasonId",
          "type": "uint256"
        },
        {
          "internalType": "uint8",
          "name": "level",
          "type": "uint8"
        }
      ],
      "name": "SeasonRoundConfigMismatch",
      "type": "error"
    },
    {
      "inputs": [],
      "name": "SystemContractsAlreadyFinalized",
      "type": "error"
    },
    {
      "inputs": [],
      "name": "SystemContractsNotFinalized",
      "type": "error"
    },
    {
      "inputs": [],
      "name": "ZeroAddress",
      "type": "error"
    },
    {
      "anonymous": false,
      "inputs": [
        {
          "indexed": true,
          "internalType": "address",
          "name": "oldSkills",
          "type": "address"
        },
        {
          "indexed": true,
          "internalType": "address",
          "name": "newSkills",
          "type": "address"
        }
      ],
      "name": "ArenaSkillsChanged",
      "type": "event"
    },
    {
      "anonymous": false,
      "inputs": [
        {
          "indexed": true,
          "internalType": "uint256",
          "name": "seasonId",
          "type": "uint256"
        },
        {
          "indexed": true,
          "internalType": "address",
          "name": "inviter",
          "type": "address"
        },
        {
          "indexed": true,
          "internalType": "address",
          "name": "invitee",
          "type": "address"
        },
        {
          "indexed": false,
          "internalType": "uint32",
          "name": "used",
          "type": "uint32"
        },
        {
          "indexed": false,
          "internalType": "uint32",
          "name": "capacity",
          "type": "uint32"
        }
      ],
      "name": "DirectInviteRegistered",
      "type": "event"
    },
    {
      "anonymous": false,
      "inputs": [
        {
          "indexed": true,
          "internalType": "address",
          "name": "oldCore",
          "type": "address"
        },
        {
          "indexed": true,
          "internalType": "address",
          "name": "newCore",
          "type": "address"
        }
      ],
      "name": "GameCoreChanged",
      "type": "event"
    },
    {
      "anonymous": false,
      "inputs": [
        {
          "indexed": true,
          "internalType": "address",
          "name": "previousOwner",
          "type": "address"
        },
        {
          "indexed": true,
          "internalType": "address",
          "name": "newOwner",
          "type": "address"
        }
      ],
      "name": "OwnershipTransferred",
      "type": "event"
    },
    {
      "anonymous": false,
      "inputs": [
        {
          "indexed": true,
          "internalType": "uint256",
          "name": "seasonId",
          "type": "uint256"
        },
        {
          "indexed": true,
          "internalType": "address",
          "name": "player",
          "type": "address"
        },
        {
          "indexed": false,
          "internalType": "uint8",
          "name": "level",
          "type": "uint8"
        },
        {
          "indexed": false,
          "internalType": "uint16",
          "name": "activatedLevels",
          "type": "uint16"
        }
      ],
      "name": "PlayerSeasonAdvanced",
      "type": "event"
    },
    {
      "anonymous": false,
      "inputs": [
        {
          "indexed": true,
          "internalType": "uint256",
          "name": "seasonId",
          "type": "uint256"
        },
        {
          "indexed": true,
          "internalType": "address",
          "name": "player",
          "type": "address"
        },
        {
          "indexed": false,
          "internalType": "uint8",
          "name": "startLevel",
          "type": "uint8"
        }
      ],
      "name": "PlayerSeasonStarted",
      "type": "event"
    },
    {
      "anonymous": false,
      "inputs": [
        {
          "indexed": true,
          "internalType": "uint256",
          "name": "roundId",
          "type": "uint256"
        }
      ],
      "name": "RoundCancelled",
      "type": "event"
    },
    {
      "anonymous": false,
      "inputs": [
        {
          "indexed": true,
          "internalType": "uint256",
          "name": "roundId",
          "type": "uint256"
        },
        {
          "indexed": true,
          "internalType": "address",
          "name": "player",
          "type": "address"
        },
        {
          "indexed": false,
          "internalType": "uint32",
          "name": "occupiedCells",
          "type": "uint32"
        }
      ],
      "name": "RoundEntryRegistered",
      "type": "event"
    },
    {
      "anonymous": false,
      "inputs": [
        {
          "indexed": true,
          "internalType": "uint256",
          "name": "seasonId",
          "type": "uint256"
        },
        {
          "indexed": true,
          "internalType": "uint256",
          "name": "roundId",
          "type": "uint256"
        },
        {
          "indexed": true,
          "internalType": "uint8",
          "name": "level",
          "type": "uint8"
        },
        {
          "indexed": false,
          "internalType": "bytes32",
          "name": "configHash",
          "type": "bytes32"
        },
        {
          "indexed": false,
          "internalType": "uint64",
          "name": "startsAt",
          "type": "uint64"
        },
        {
          "indexed": false,
          "internalType": "uint64",
          "name": "entriesCloseAt",
          "type": "uint64"
        },
        {
          "indexed": false,
          "internalType": "uint64",
          "name": "endsAt",
          "type": "uint64"
        }
      ],
      "name": "RoundInitialized",
      "type": "event"
    },
    {
      "anonymous": false,
      "inputs": [
        {
          "indexed": true,
          "internalType": "uint256",
          "name": "roundId",
          "type": "uint256"
        },
        {
          "indexed": false,
          "internalType": "bool",
          "name": "paused",
          "type": "bool"
        }
      ],
      "name": "RoundPauseChanged",
      "type": "event"
    },
    {
      "anonymous": false,
      "inputs": [
        {
          "indexed": true,
          "internalType": "uint256",
          "name": "roundId",
          "type": "uint256"
        },
        {
          "indexed": false,
          "internalType": "uint16",
          "name": "winnersRegistered",
          "type": "uint16"
        }
      ],
      "name": "RoundSettled",
      "type": "event"
    },
    {
      "anonymous": false,
      "inputs": [
        {
          "indexed": true,
          "internalType": "address",
          "name": "oldSigner",
          "type": "address"
        },
        {
          "indexed": true,
          "internalType": "address",
          "name": "newSigner",
          "type": "address"
        }
      ],
      "name": "ScheduleSignerChanged",
      "type": "event"
    },
    {
      "anonymous": false,
      "inputs": [
        {
          "indexed": true,
          "internalType": "address",
          "name": "signer",
          "type": "address"
        },
        {
          "indexed": false,
          "internalType": "bool",
          "name": "allowed",
          "type": "bool"
        }
      ],
      "name": "ScheduleSignerPermissionChanged",
      "type": "event"
    },
    {
      "anonymous": false,
      "inputs": [
        {
          "indexed": true,
          "internalType": "uint256",
          "name": "seasonId",
          "type": "uint256"
        },
        {
          "indexed": true,
          "internalType": "bytes32",
          "name": "configRoot",
          "type": "bytes32"
        },
        {
          "indexed": false,
          "internalType": "uint64",
          "name": "firstStartsAt",
          "type": "uint64"
        },
        {
          "indexed": false,
          "internalType": "uint64",
          "name": "lastEndsAt",
          "type": "uint64"
        }
      ],
      "name": "SeasonCommitted",
      "type": "event"
    },
    {
      "anonymous": false,
      "inputs": [
        {
          "indexed": true,
          "internalType": "address",
          "name": "oldSettlement",
          "type": "address"
        },
        {
          "indexed": true,
          "internalType": "address",
          "name": "newSettlement",
          "type": "address"
        }
      ],
      "name": "SettlementContractChanged",
      "type": "event"
    },
    {
      "anonymous": false,
      "inputs": [
        {
          "indexed": true,
          "internalType": "address",
          "name": "gameCore",
          "type": "address"
        },
        {
          "indexed": true,
          "internalType": "address",
          "name": "arenaSkills",
          "type": "address"
        },
        {
          "indexed": true,
          "internalType": "address",
          "name": "settlementContract",
          "type": "address"
        }
      ],
      "name": "SystemContractsFinalized",
      "type": "event"
    },
    {
      "inputs": [],
      "name": "CURRENT_PAYMENT_SPLIT_VERSION",
      "outputs": [
        {
          "internalType": "uint16",
          "name": "",
          "type": "uint16"
        }
      ],
      "stateMutability": "view",
      "type": "function"
    },
    {
      "inputs": [],
      "name": "DIRECT_INVITES_PER_LEVEL",
      "outputs": [
        {
          "internalType": "uint32",
          "name": "",
          "type": "uint32"
        }
      ],
      "stateMutability": "view",
      "type": "function"
    },
    {
      "inputs": [],
      "name": "MAX_ETH_PRICE",
      "outputs": [
        {
          "internalType": "uint256",
          "name": "",
          "type": "uint256"
        }
      ],
      "stateMutability": "view",
      "type": "function"
    },
    {
      "inputs": [],
      "name": "MAX_PLAYERS_PER_ROUND",
      "outputs": [
        {
          "internalType": "uint32",
          "name": "",
          "type": "uint32"
        }
      ],
      "stateMutability": "view",
      "type": "function"
    },
    {
      "inputs": [],
      "name": "MAX_USDC_PRICE",
      "outputs": [
        {
          "internalType": "uint256",
          "name": "",
          "type": "uint256"
        }
      ],
      "stateMutability": "view",
      "type": "function"
    },
    {
      "inputs": [],
      "name": "MAX_WINNERS_PER_ROUND",
      "outputs": [
        {
          "internalType": "uint16",
          "name": "",
          "type": "uint16"
        }
      ],
      "stateMutability": "view",
      "type": "function"
    },
    {
      "inputs": [],
      "name": "MIN_LEVEL_OPEN_INTERVAL",
      "outputs": [
        {
          "internalType": "uint64",
          "name": "",
          "type": "uint64"
        }
      ],
      "stateMutability": "view",
      "type": "function"
    },
    {
      "inputs": [],
      "name": "MIN_ROUND_DURATION",
      "outputs": [
        {
          "internalType": "uint64",
          "name": "",
          "type": "uint64"
        }
      ],
      "stateMutability": "view",
      "type": "function"
    },
    {
      "inputs": [],
      "name": "ROUND_CONFIG_TYPEHASH",
      "outputs": [
        {
          "internalType": "bytes32",
          "name": "",
          "type": "bytes32"
        }
      ],
      "stateMutability": "view",
      "type": "function"
    },
    {
      "inputs": [],
      "name": "SEASON_LEVEL_COUNT",
      "outputs": [
        {
          "internalType": "uint8",
          "name": "",
          "type": "uint8"
        }
      ],
      "stateMutability": "view",
      "type": "function"
    },
    {
      "inputs": [
        {
          "internalType": "uint8",
          "name": "",
          "type": "uint8"
        }
      ],
      "name": "activeRoundByLevel",
      "outputs": [
        {
          "internalType": "uint256",
          "name": "",
          "type": "uint256"
        }
      ],
      "stateMutability": "view",
      "type": "function"
    },
    {
      "inputs": [
        {
          "internalType": "address",
          "name": "",
          "type": "address"
        }
      ],
      "name": "allowedScheduleSigners",
      "outputs": [
        {
          "internalType": "bool",
          "name": "",
          "type": "bool"
        }
      ],
      "stateMutability": "view",
      "type": "function"
    },
    {
      "inputs": [],
      "name": "arenaSkills",
      "outputs": [
        {
          "internalType": "address",
          "name": "",
          "type": "address"
        }
      ],
      "stateMutability": "view",
      "type": "function"
    },
    {
      "inputs": [
        {
          "internalType": "uint256",
          "name": "roundId",
          "type": "uint256"
        }
      ],
      "name": "cancelRound",
      "outputs": [],
      "stateMutability": "nonpayable",
      "type": "function"
    },
    {
      "inputs": [
        {
          "components": [
            {
              "internalType": "uint256",
              "name": "seasonId",
              "type": "uint256"
            },
            {
              "internalType": "uint256",
              "name": "roundId",
              "type": "uint256"
            },
            {
              "internalType": "uint8",
              "name": "level",
              "type": "uint8"
            },
            {
              "internalType": "uint64",
              "name": "startsAt",
              "type": "uint64"
            },
            {
              "internalType": "uint64",
              "name": "entriesCloseAt",
              "type": "uint64"
            },
            {
              "internalType": "uint64",
              "name": "endsAt",
              "type": "uint64"
            },
            {
              "internalType": "uint64",
              "name": "freezeClosesAt",
              "type": "uint64"
            },
            {
              "internalType": "uint32",
              "name": "maxPlayers",
              "type": "uint32"
            },
            {
              "internalType": "uint16",
              "name": "maxWinners",
              "type": "uint16"
            },
            {
              "internalType": "bytes32",
              "name": "winningCellsRoot",
              "type": "bytes32"
            },
            {
              "internalType": "uint256",
              "name": "ethPrice",
              "type": "uint256"
            },
            {
              "internalType": "uint256",
              "name": "usdcPrice",
              "type": "uint256"
            },
            {
              "internalType": "uint16",
              "name": "freezeLimit",
              "type": "uint16"
            },
            {
              "internalType": "uint16",
              "name": "paymentSplitVersion",
              "type": "uint16"
            }
          ],
          "internalType": "struct RoundConfig[]",
          "name": "configs",
          "type": "tuple[]"
        },
        {
          "internalType": "bytes[]",
          "name": "signatures",
          "type": "bytes[]"
        }
      ],
      "name": "commitSeason",
      "outputs": [
        {
          "internalType": "bytes32",
          "name": "configRoot",
          "type": "bytes32"
        }
      ],
      "stateMutability": "nonpayable",
      "type": "function"
    },
    {
      "inputs": [
        {
          "internalType": "uint256",
          "name": "",
          "type": "uint256"
        },
        {
          "internalType": "address",
          "name": "",
          "type": "address"
        },
        {
          "internalType": "address",
          "name": "",
          "type": "address"
        }
      ],
      "name": "directInviteRegistered",
      "outputs": [
        {
          "internalType": "bool",
          "name": "",
          "type": "bool"
        }
      ],
      "stateMutability": "view",
      "type": "function"
    },
    {
      "inputs": [],
      "name": "domainSeparator",
      "outputs": [
        {
          "internalType": "bytes32",
          "name": "",
          "type": "bytes32"
        }
      ],
      "stateMutability": "view",
      "type": "function"
    },
    {
      "inputs": [],
      "name": "finalizeSystemContracts",
      "outputs": [],
      "stateMutability": "nonpayable",
      "type": "function"
    },
    {
      "inputs": [],
      "name": "gameCore",
      "outputs": [
        {
          "internalType": "address",
          "name": "",
          "type": "address"
        }
      ],
      "stateMutability": "view",
      "type": "function"
    },
    {
      "inputs": [
        {
          "internalType": "uint256",
          "name": "seasonId",
          "type": "uint256"
        },
        {
          "internalType": "uint8",
          "name": "level",
          "type": "uint8"
        }
      ],
      "name": "getCommittedRoundHash",
      "outputs": [
        {
          "internalType": "bytes32",
          "name": "",
          "type": "bytes32"
        }
      ],
      "stateMutability": "view",
      "type": "function"
    },
    {
      "inputs": [
        {
          "internalType": "uint256",
          "name": "seasonId",
          "type": "uint256"
        },
        {
          "internalType": "uint8",
          "name": "level",
          "type": "uint8"
        },
        {
          "internalType": "address",
          "name": "player",
          "type": "address"
        }
      ],
      "name": "getEntryEligibility",
      "outputs": [
        {
          "internalType": "uint8",
          "name": "reason",
          "type": "uint8"
        },
        {
          "internalType": "uint8",
          "name": "requiredLevel",
          "type": "uint8"
        },
        {
          "internalType": "uint256",
          "name": "blockingRoundId",
          "type": "uint256"
        }
      ],
      "stateMutability": "view",
      "type": "function"
    },
    {
      "inputs": [
        {
          "internalType": "uint256",
          "name": "seasonId",
          "type": "uint256"
        },
        {
          "internalType": "address",
          "name": "player",
          "type": "address"
        }
      ],
      "name": "getPlayerSeasonProgress",
      "outputs": [
        {
          "internalType": "bool",
          "name": "started",
          "type": "bool"
        },
        {
          "internalType": "uint8",
          "name": "startLevel",
          "type": "uint8"
        },
        {
          "internalType": "uint8",
          "name": "highestLevel",
          "type": "uint8"
        },
        {
          "internalType": "uint16",
          "name": "activatedLevels",
          "type": "uint16"
        },
        {
          "internalType": "uint32",
          "name": "directInvites",
          "type": "uint32"
        },
        {
          "internalType": "uint32",
          "name": "inviteCapacity",
          "type": "uint32"
        }
      ],
      "stateMutability": "view",
      "type": "function"
    },
    {
      "inputs": [
        {
          "internalType": "uint256",
          "name": "roundId",
          "type": "uint256"
        }
      ],
      "name": "getRoundConfig",
      "outputs": [
        {
          "components": [
            {
              "internalType": "uint256",
              "name": "seasonId",
              "type": "uint256"
            },
            {
              "internalType": "uint256",
              "name": "roundId",
              "type": "uint256"
            },
            {
              "internalType": "uint8",
              "name": "level",
              "type": "uint8"
            },
            {
              "internalType": "uint64",
              "name": "startsAt",
              "type": "uint64"
            },
            {
              "internalType": "uint64",
              "name": "entriesCloseAt",
              "type": "uint64"
            },
            {
              "internalType": "uint64",
              "name": "endsAt",
              "type": "uint64"
            },
            {
              "internalType": "uint64",
              "name": "freezeClosesAt",
              "type": "uint64"
            },
            {
              "internalType": "uint32",
              "name": "maxPlayers",
              "type": "uint32"
            },
            {
              "internalType": "uint16",
              "name": "maxWinners",
              "type": "uint16"
            },
            {
              "internalType": "bytes32",
              "name": "winningCellsRoot",
              "type": "bytes32"
            },
            {
              "internalType": "uint256",
              "name": "ethPrice",
              "type": "uint256"
            },
            {
              "internalType": "uint256",
              "name": "usdcPrice",
              "type": "uint256"
            },
            {
              "internalType": "uint16",
              "name": "freezeLimit",
              "type": "uint16"
            },
            {
              "internalType": "uint16",
              "name": "paymentSplitVersion",
              "type": "uint16"
            }
          ],
          "internalType": "struct RoundConfig",
          "name": "",
          "type": "tuple"
        }
      ],
      "stateMutability": "view",
      "type": "function"
    },
    {
      "inputs": [
        {
          "internalType": "uint256",
          "name": "roundId",
          "type": "uint256"
        }
      ],
      "name": "getRoundPhase",
      "outputs": [
        {
          "internalType": "enum RoundPhase",
          "name": "",
          "type": "uint8"
        }
      ],
      "stateMutability": "view",
      "type": "function"
    },
    {
      "inputs": [
        {
          "internalType": "uint256",
          "name": "roundId",
          "type": "uint256"
        }
      ],
      "name": "getRoundState",
      "outputs": [
        {
          "components": [
            {
              "internalType": "bytes32",
              "name": "configHash",
              "type": "bytes32"
            },
            {
              "internalType": "uint64",
              "name": "initializedAt",
              "type": "uint64"
            },
            {
              "internalType": "uint32",
              "name": "occupiedCells",
              "type": "uint32"
            },
            {
              "internalType": "uint16",
              "name": "winnersRegistered",
              "type": "uint16"
            },
            {
              "internalType": "bool",
              "name": "initialized",
              "type": "bool"
            },
            {
              "internalType": "bool",
              "name": "settled",
              "type": "bool"
            },
            {
              "internalType": "bool",
              "name": "cancelled",
              "type": "bool"
            },
            {
              "internalType": "bool",
              "name": "paused",
              "type": "bool"
            }
          ],
          "internalType": "struct RoundState",
          "name": "",
          "type": "tuple"
        }
      ],
      "stateMutability": "view",
      "type": "function"
    },
    {
      "inputs": [
        {
          "internalType": "uint256",
          "name": "seasonId",
          "type": "uint256"
        }
      ],
      "name": "getSeasonState",
      "outputs": [
        {
          "components": [
            {
              "internalType": "bytes32",
              "name": "configRoot",
              "type": "bytes32"
            },
            {
              "internalType": "uint64",
              "name": "firstStartsAt",
              "type": "uint64"
            },
            {
              "internalType": "uint64",
              "name": "lastEndsAt",
              "type": "uint64"
            },
            {
              "internalType": "bool",
              "name": "committed",
              "type": "bool"
            }
          ],
          "internalType": "struct SeasonState",
          "name": "",
          "type": "tuple"
        }
      ],
      "stateMutability": "view",
      "type": "function"
    },
    {
      "inputs": [
        {
          "components": [
            {
              "internalType": "uint256",
              "name": "seasonId",
              "type": "uint256"
            },
            {
              "internalType": "uint256",
              "name": "roundId",
              "type": "uint256"
            },
            {
              "internalType": "uint8",
              "name": "level",
              "type": "uint8"
            },
            {
              "internalType": "uint64",
              "name": "startsAt",
              "type": "uint64"
            },
            {
              "internalType": "uint64",
              "name": "entriesCloseAt",
              "type": "uint64"
            },
            {
              "internalType": "uint64",
              "name": "endsAt",
              "type": "uint64"
            },
            {
              "internalType": "uint64",
              "name": "freezeClosesAt",
              "type": "uint64"
            },
            {
              "internalType": "uint32",
              "name": "maxPlayers",
              "type": "uint32"
            },
            {
              "internalType": "uint16",
              "name": "maxWinners",
              "type": "uint16"
            },
            {
              "internalType": "bytes32",
              "name": "winningCellsRoot",
              "type": "bytes32"
            },
            {
              "internalType": "uint256",
              "name": "ethPrice",
              "type": "uint256"
            },
            {
              "internalType": "uint256",
              "name": "usdcPrice",
              "type": "uint256"
            },
            {
              "internalType": "uint16",
              "name": "freezeLimit",
              "type": "uint16"
            },
            {
              "internalType": "uint16",
              "name": "paymentSplitVersion",
              "type": "uint16"
            }
          ],
          "internalType": "struct RoundConfig",
          "name": "config",
          "type": "tuple"
        }
      ],
      "name": "hashRoundConfig",
      "outputs": [
        {
          "internalType": "bytes32",
          "name": "",
          "type": "bytes32"
        }
      ],
      "stateMutability": "pure",
      "type": "function"
    },
    {
      "inputs": [
        {
          "components": [
            {
              "internalType": "uint256",
              "name": "seasonId",
              "type": "uint256"
            },
            {
              "internalType": "uint256",
              "name": "roundId",
              "type": "uint256"
            },
            {
              "internalType": "uint8",
              "name": "level",
              "type": "uint8"
            },
            {
              "internalType": "uint64",
              "name": "startsAt",
              "type": "uint64"
            },
            {
              "internalType": "uint64",
              "name": "entriesCloseAt",
              "type": "uint64"
            },
            {
              "internalType": "uint64",
              "name": "endsAt",
              "type": "uint64"
            },
            {
              "internalType": "uint64",
              "name": "freezeClosesAt",
              "type": "uint64"
            },
            {
              "internalType": "uint32",
              "name": "maxPlayers",
              "type": "uint32"
            },
            {
              "internalType": "uint16",
              "name": "maxWinners",
              "type": "uint16"
            },
            {
              "internalType": "bytes32",
              "name": "winningCellsRoot",
              "type": "bytes32"
            },
            {
              "internalType": "uint256",
              "name": "ethPrice",
              "type": "uint256"
            },
            {
              "internalType": "uint256",
              "name": "usdcPrice",
              "type": "uint256"
            },
            {
              "internalType": "uint16",
              "name": "freezeLimit",
              "type": "uint16"
            },
            {
              "internalType": "uint16",
              "name": "paymentSplitVersion",
              "type": "uint16"
            }
          ],
          "internalType": "struct RoundConfig",
          "name": "config",
          "type": "tuple"
        },
        {
          "internalType": "bytes",
          "name": "signature",
          "type": "bytes"
        },
        {
          "internalType": "address",
          "name": "player",
          "type": "address"
        },
        {
          "internalType": "address",
          "name": "inviter",
          "type": "address"
        }
      ],
      "name": "initializeAndRegisterEntry",
      "outputs": [
        {
          "internalType": "bytes32",
          "name": "configHash",
          "type": "bytes32"
        }
      ],
      "stateMutability": "nonpayable",
      "type": "function"
    },
    {
      "inputs": [
        {
          "components": [
            {
              "internalType": "uint256",
              "name": "seasonId",
              "type": "uint256"
            },
            {
              "internalType": "uint256",
              "name": "roundId",
              "type": "uint256"
            },
            {
              "internalType": "uint8",
              "name": "level",
              "type": "uint8"
            },
            {
              "internalType": "uint64",
              "name": "startsAt",
              "type": "uint64"
            },
            {
              "internalType": "uint64",
              "name": "entriesCloseAt",
              "type": "uint64"
            },
            {
              "internalType": "uint64",
              "name": "endsAt",
              "type": "uint64"
            },
            {
              "internalType": "uint64",
              "name": "freezeClosesAt",
              "type": "uint64"
            },
            {
              "internalType": "uint32",
              "name": "maxPlayers",
              "type": "uint32"
            },
            {
              "internalType": "uint16",
              "name": "maxWinners",
              "type": "uint16"
            },
            {
              "internalType": "bytes32",
              "name": "winningCellsRoot",
              "type": "bytes32"
            },
            {
              "internalType": "uint256",
              "name": "ethPrice",
              "type": "uint256"
            },
            {
              "internalType": "uint256",
              "name": "usdcPrice",
              "type": "uint256"
            },
            {
              "internalType": "uint16",
              "name": "freezeLimit",
              "type": "uint16"
            },
            {
              "internalType": "uint16",
              "name": "paymentSplitVersion",
              "type": "uint16"
            }
          ],
          "internalType": "struct RoundConfig",
          "name": "config",
          "type": "tuple"
        },
        {
          "internalType": "bytes",
          "name": "signature",
          "type": "bytes"
        }
      ],
      "name": "initializeRound",
      "outputs": [
        {
          "internalType": "bytes32",
          "name": "configHash",
          "type": "bytes32"
        }
      ],
      "stateMutability": "nonpayable",
      "type": "function"
    },
    {
      "inputs": [
        {
          "internalType": "uint256",
          "name": "roundId",
          "type": "uint256"
        },
        {
          "internalType": "uint16",
          "name": "winnersRegistered",
          "type": "uint16"
        }
      ],
      "name": "markRoundSettled",
      "outputs": [],
      "stateMutability": "nonpayable",
      "type": "function"
    },
    {
      "inputs": [],
      "name": "owner",
      "outputs": [
        {
          "internalType": "address",
          "name": "",
          "type": "address"
        }
      ],
      "stateMutability": "view",
      "type": "function"
    },
    {
      "inputs": [
        {
          "internalType": "uint256",
          "name": "",
          "type": "uint256"
        },
        {
          "internalType": "uint8",
          "name": "",
          "type": "uint8"
        }
      ],
      "name": "roundBySeasonLevel",
      "outputs": [
        {
          "internalType": "uint256",
          "name": "",
          "type": "uint256"
        }
      ],
      "stateMutability": "view",
      "type": "function"
    },
    {
      "inputs": [
        {
          "components": [
            {
              "internalType": "uint256",
              "name": "seasonId",
              "type": "uint256"
            },
            {
              "internalType": "uint256",
              "name": "roundId",
              "type": "uint256"
            },
            {
              "internalType": "uint8",
              "name": "level",
              "type": "uint8"
            },
            {
              "internalType": "uint64",
              "name": "startsAt",
              "type": "uint64"
            },
            {
              "internalType": "uint64",
              "name": "entriesCloseAt",
              "type": "uint64"
            },
            {
              "internalType": "uint64",
              "name": "endsAt",
              "type": "uint64"
            },
            {
              "internalType": "uint64",
              "name": "freezeClosesAt",
              "type": "uint64"
            },
            {
              "internalType": "uint32",
              "name": "maxPlayers",
              "type": "uint32"
            },
            {
              "internalType": "uint16",
              "name": "maxWinners",
              "type": "uint16"
            },
            {
              "internalType": "bytes32",
              "name": "winningCellsRoot",
              "type": "bytes32"
            },
            {
              "internalType": "uint256",
              "name": "ethPrice",
              "type": "uint256"
            },
            {
              "internalType": "uint256",
              "name": "usdcPrice",
              "type": "uint256"
            },
            {
              "internalType": "uint16",
              "name": "freezeLimit",
              "type": "uint16"
            },
            {
              "internalType": "uint16",
              "name": "paymentSplitVersion",
              "type": "uint16"
            }
          ],
          "internalType": "struct RoundConfig",
          "name": "config",
          "type": "tuple"
        }
      ],
      "name": "roundConfigDigest",
      "outputs": [
        {
          "internalType": "bytes32",
          "name": "",
          "type": "bytes32"
        }
      ],
      "stateMutability": "view",
      "type": "function"
    },
    {
      "inputs": [
        {
          "internalType": "uint256",
          "name": "",
          "type": "uint256"
        },
        {
          "internalType": "address",
          "name": "",
          "type": "address"
        }
      ],
      "name": "roundEntryRegistered",
      "outputs": [
        {
          "internalType": "bool",
          "name": "",
          "type": "bool"
        }
      ],
      "stateMutability": "view",
      "type": "function"
    },
    {
      "inputs": [],
      "name": "scheduleSigner",
      "outputs": [
        {
          "internalType": "address",
          "name": "",
          "type": "address"
        }
      ],
      "stateMutability": "view",
      "type": "function"
    },
    {
      "inputs": [
        {
          "internalType": "address",
          "name": "newSkills",
          "type": "address"
        }
      ],
      "name": "setArenaSkills",
      "outputs": [],
      "stateMutability": "nonpayable",
      "type": "function"
    },
    {
      "inputs": [
        {
          "internalType": "address",
          "name": "newCore",
          "type": "address"
        }
      ],
      "name": "setGameCore",
      "outputs": [],
      "stateMutability": "nonpayable",
      "type": "function"
    },
    {
      "inputs": [
        {
          "internalType": "uint256",
          "name": "roundId",
          "type": "uint256"
        },
        {
          "internalType": "bool",
          "name": "paused",
          "type": "bool"
        }
      ],
      "name": "setRoundPaused",
      "outputs": [],
      "stateMutability": "nonpayable",
      "type": "function"
    },
    {
      "inputs": [
        {
          "internalType": "address",
          "name": "newSigner",
          "type": "address"
        }
      ],
      "name": "setScheduleSigner",
      "outputs": [],
      "stateMutability": "nonpayable",
      "type": "function"
    },
    {
      "inputs": [
        {
          "internalType": "address",
          "name": "signer",
          "type": "address"
        },
        {
          "internalType": "bool",
          "name": "allowed",
          "type": "bool"
        }
      ],
      "name": "setScheduleSignerAllowed",
      "outputs": [],
      "stateMutability": "nonpayable",
      "type": "function"
    },
    {
      "inputs": [
        {
          "internalType": "address",
          "name": "newSettlement",
          "type": "address"
        }
      ],
      "name": "setSettlementContract",
      "outputs": [],
      "stateMutability": "nonpayable",
      "type": "function"
    },
    {
      "inputs": [],
      "name": "settlementContract",
      "outputs": [
        {
          "internalType": "address",
          "name": "",
          "type": "address"
        }
      ],
      "stateMutability": "view",
      "type": "function"
    },
    {
      "inputs": [],
      "name": "systemContractsFinalized",
      "outputs": [
        {
          "internalType": "bool",
          "name": "",
          "type": "bool"
        }
      ],
      "stateMutability": "view",
      "type": "function"
    },
    {
      "inputs": [
        {
          "internalType": "address",
          "name": "newOwner",
          "type": "address"
        }
      ],
      "name": "transferOwnership",
      "outputs": [],
      "stateMutability": "nonpayable",
      "type": "function"
    },
    {
      "inputs": [
        {
          "components": [
            {
              "internalType": "uint256",
              "name": "seasonId",
              "type": "uint256"
            },
            {
              "internalType": "uint256",
              "name": "roundId",
              "type": "uint256"
            },
            {
              "internalType": "uint8",
              "name": "level",
              "type": "uint8"
            },
            {
              "internalType": "uint64",
              "name": "startsAt",
              "type": "uint64"
            },
            {
              "internalType": "uint64",
              "name": "entriesCloseAt",
              "type": "uint64"
            },
            {
              "internalType": "uint64",
              "name": "endsAt",
              "type": "uint64"
            },
            {
              "internalType": "uint64",
              "name": "freezeClosesAt",
              "type": "uint64"
            },
            {
              "internalType": "uint32",
              "name": "maxPlayers",
              "type": "uint32"
            },
            {
              "internalType": "uint16",
              "name": "maxWinners",
              "type": "uint16"
            },
            {
              "internalType": "bytes32",
              "name": "winningCellsRoot",
              "type": "bytes32"
            },
            {
              "internalType": "uint256",
              "name": "ethPrice",
              "type": "uint256"
            },
            {
              "internalType": "uint256",
              "name": "usdcPrice",
              "type": "uint256"
            },
            {
              "internalType": "uint16",
              "name": "freezeLimit",
              "type": "uint16"
            },
            {
              "internalType": "uint16",
              "name": "paymentSplitVersion",
              "type": "uint16"
            }
          ],
          "internalType": "struct RoundConfig",
          "name": "config",
          "type": "tuple"
        },
        {
          "internalType": "bytes",
          "name": "signature",
          "type": "bytes"
        }
      ],
      "name": "verifyRoundConfig",
      "outputs": [
        {
          "internalType": "bool",
          "name": "",
          "type": "bool"
        }
      ],
      "stateMutability": "view",
      "type": "function"
    }
  ],
  "bytecode": "0x608034620000b257601f620040a538819003918201601f19168301916001600160401b03831184841017620000b757808492602094604052833981010312620000b257516001600160a01b03811690819003620000b2578015620000a0578060018060a01b031933816000541617600055600154161760015560005260026020526040600020600160ff19825416179055604051613fd79081620000ce8239f35b60405163d92e233d60e01b8152600490fd5b600080fd5b634e487b7160e01b600052604160045260246000fdfe608080604052600436101561001357600080fd5b60003560e01c90816314b1e0e4146120a45750806316c3295f14611fcb578063170b9ca414611f4957806318a1fe6014611f2057806319b6670414611f045780631cfe7edf14611ee857806321bc4dca14611e9b5780633569a16b14611e375780633719fd0514611db257806337b6493114611d905780633dd3d9cd14611ceb578063472be67714611ca8578063507e75eb1461173857806351be681a1461171b578063524dd3f4146110b35780635fc2d2831461108f57806369c4c8c014611058578063746ff3a5146110205780637e07ab0914610ee8578063827669f214610e9d5780638da5cb5b14610e745780638fc24baf14610e58578063908a88be14610e0f5780639aee50dd14610c3c5780639daea58014610ba35780639dbde39814610b8a578063ab5669ad14610b6d578063adc0787814610b4c578063c642e7bf14610a2b578063c6b902d0146109d9578063c8da51c5146109b0578063cadbcc6d14610919578063cba0b841146106d6578063d55face01461068a578063da5e5dfd146105cb578063de47cb89146105af578063dfa0ec761461056a578063e2cfe2ef14610541578063e5f3263f14610518578063ea42418b146104ef578063f2fde38b1461047c578063f698da2514610459578063f992b60514610327578063fab7c315146103015763ff68c57a1461020e57600080fd5b346102fc5760403660031901126102fc576102276120cf565b61022f6120c0565b9060018060a01b0380916102488260005416331461218b565b169182156102ea57801591826102db575b5015610297576020600080516020613f62833981519152918360005260028252604060002090159060ff1981541660ff8316179055604051908152a2005b60405162461bcd60e51b815260206004820152601c60248201527b21b0b73737ba103932bb37b5b29031bab93932b73a1039b4b3b732b960211b6044820152606490fd5b90506001541682141538610259565b60405163d92e233d60e01b8152600490fd5b600080fd5b346102fc5760003660031901126102fc57602060ff60045460a01c166040519015158152f35b346102fc576101c0806003193601126102fc5760443560ff81168091036102fc576064356001600160401b03818116918290036102fc57608435938185168095036102fc5760a435908282168092036102fc5760c4359283168093036102fc5760e43563ffffffff81168091036102fc57610104359061ffff948583168093036102fc5761018435948686168096036102fc576101a4359687168097036102fc57602099604051988b8a019a600080516020613f828339815191528c5260043560408c015260243560608c015260808b015260a08a015260c089015260e08801526101008701526101208601526101408501526101243561016085015261014435610180850152610164356101a08501528301526101e09081830152815261044e81612263565b519020604051908152f35b346102fc5760003660031901126102fc5760206104746126fa565b604051908152f35b346102fc5760203660031901126102fc576104956120cf565b600054906001600160a01b03808316916104b033841461218b565b169182156102ea576001600160a01b031916821760009081557f8be0079c531659141344cd1fd0a4f28419497f9722a3daafe3b4186f6b6457e09080a3005b346102fc5760003660031901126102fc57600f546040516001600160a01b039091168152602090f35b346102fc5760003660031901126102fc576001546040516001600160a01b039091168152602090f35b346102fc5760003660031901126102fc576003546040516001600160a01b039091168152602090f35b346102fc5760203660031901126102fc57610586600435612654565b6040516008821015610599576020918152f35b634e487b7160e01b600052602160045260246000fd5b346102fc5760003660031901126102fc57602060405160118152f35b346102fc5760403660031901126102fc576105e46120e5565b600435600052600960205260406000209060018060a01b031660005260205260c06040600020604051906106178261222d565b5460ff8116151591828152608060ff8360081c169182602082015260ff8460101c1680604083015261ffff8560181c169182606082015263ffffffff809660281c16938491015261066782612639565b9360405196875260208701526040860152606085015260808401521660a0820152f35b346102fc5760403660031901126102fc576106a3612111565b6106ac81613f0a565b600435600052600d60205260ff604060002091166000526020526020604060002054604051908152f35b346102fc5760203660031901126102fc5760043560006101a06040516106fb81612211565b8281528260208201528260408201528260608201528260808201528260a08201528260c08201528260e08201528261010082015282610120820152826101408201528261016082015282610180820152015280600052600660205260ff60016040600020015460701c16156109015760005260056020526101c0604060002061ffff6101a060405161078c81612211565b82600785549586845260018101546020850152600281015460ff8116604086015260018060401b038160081c16606086015260018060401b038160481c16608086015260018060401b039060881c1660a085015282600382015460018060401b03811660c087015263ffffffff8160401c1660e087015260601c16610100850152600481015461012085015260058101546101408501526006810154610160850152015481811661018084015260101c16828201526040519384526020810151602085015260ff604082015116604085015260018060401b03606082015116606085015260018060401b03608082015116608085015260018060401b0360a08201511660a085015260018060401b0360c08201511660c085015263ffffffff60e08201511660e0850152826101008201511661010085015261012081015161012085015261014081015161014085015261016081015161016085015282610180820151166101808501520151166101a0820152f35b60249060405190634f15c33760e01b82526004820152fd5b346102fc5760203660031901126102fc576109326120cf565b6000546001600160a01b03919061094c908316331461218b565b60ff60045460a01c1661099e5781169081156102ea57600380546001600160a01b031981168417909155167f08e50724567a8e5052ab65b222a34042007eacb64c6bb2819dcd69983850d4fc600080a3005b604051636889631360e11b8152600490fd5b346102fc5760003660031901126102fc576004546040516001600160a01b039091168152602090f35b346102fc57610a0d6109ea3661214e565b906109f6839493612a10565b6001600160a01b0393610a0890612448565b612cfe565b166000526002602052602060ff604060002054166040519015158152f35b346102fc5760203660031901126102fc57600060e0604051610a4c816121f5565b8281528260208201528260408201528260608201528260808201528260a08201528260c0820152015260043560005260066020526101006040600020604051610a94816121f5565b600182549283835201549060018060401b036020820190808416825263ffffffff60408401818660401c16815261ffff916060860191838860601c168352608087019460ff8960701c161515865260a088019660ff8a60781c161515885260ff60e060c08b019a828d60801c1615158c52019a60881c1615158a526040519a8b52511660208a01525116604088015251166060860152511515608085015251151560a084015251151560c083015251151560e0820152f35b346102fc5760203660031901126102fc576001600160a01b03610a0d6120cf565b346102fc5760003660031901126102fc576020604051610e108152f35b346102fc576020610474610b9d3661214e565b916137e8565b346102fc5760003660031901126102fc576000546001600160a01b0390610bcd908216331461218b565b6004549060ff8260a01c1661099e578060035416610bea81613ecb565b81831691610bf783613ecb565b600f541692610c0584613ecb565b60ff60a01b1916600160a01b176004557f6898422b15734a67d434d3cd7b335fcb1223be46eca35ed18d29c9bd85a30ad7600080a4005b346102fc5760403660031901126102fc57600435602480359061ffff8216918281036102fc5760ff60045460a01c1615610dfd57600f546001600160a01b03163303610dc75783600052600660205260016040600020019182549060ff8260701c1615610db15760ff8260781c16610d9b57610cb786612654565b6008811015610d8657600403610d4d575060ff60781b1916600160781b1782557f983c9902522ca2a81ad4305992c404c4941ec4f38592010f2009a942e07c1a00926020929091610d08908261261a565b805460ff60881b1916905560008481526005835260408082206002015460ff16825260078452902080548514610d43575b50604051908152a2005b6000905584610d39565b60649060126040519162461bcd60e51b83526020600484015282015271526f756e64206973206e6f7420726561647960701b6044820152fd5b50634e487b7160e01b60009081526021600452fd5b604051636516cfdb60e01b815260048101879052fd5b604051634f15c33760e01b815260048101879052fd5b60405162461bcd60e51b815260206004820152600f818401526e13db9b1e481cd95d1d1b195b595b9d608a1b6044820152606490fd5b604051636418f98160e01b8152600490fd5b346102fc5760603660031901126102fc57606060ff610e40610e2f612111565b610e376120fb565b906004356124b1565b91929081604051941684521660208301526040820152f35b346102fc5760003660031901126102fc57602060405160048152f35b346102fc5760003660031901126102fc576000546040516001600160a01b039091168152602090f35b346102fc576101c03660031901126102fc576020610eb96126fa565b610ec16127ae565b604051908382019261190160f01b8452602283015260428201526042815261044e816121c4565b346102fc5760203660031901126102fc57600435610f1160018060a01b0360005416331461218b565b8060005260066020526001604060002001805460ff8160701c16156110075760ff8160781c16610fee5763ffffffff8160401c16610fb55761ffff60801b1916600160801b17905560008181526005602090815260408083206002015460ff1683526007909152902080548214610fab575b507fbf7aeff89cf7a4c3d0145879e39aa6a19e8e64ed585090ef86bf31f4d2ae57bf600080a2005b6000905581610f83565b60405162461bcd60e51b8152602060048201526011602482015270526f756e642068617320656e747269657360781b6044820152606490fd5b604051636516cfdb60e01b815260048101849052602490fd5b604051634f15c33760e01b815260048101849052602490fd5b346102fc5760203660031901126102fc5761105661103c6120cf565b61105160018060a01b0360005416331461218b565b6123a0565b005b346102fc5760203660031901126102fc5760043560ff81168091036102fc5760005260076020526020604060002054604051908152f35b346102fc5760003660031901126102fc576020604051683635c9adc5dea000008152f35b346102fc57366003190161022081126102fc576101c0136102fc576101c4356001600160401b0381116102fc576110ee903690600401612121565b906001600160a01b03906101e43580831690036102fc57610204359282841684036102fc57826003541633036116e55761112791612de9565b90611133602435612654565b6008811015610599576002036116d457602435600052600660205260016040600020019263ffffffff845460401c1660e4359063ffffffff82168092036102fc5710156116c257602435600052600a6020526040600020826101e4351660005260205260ff604060002054166116a15760043560005260096020526040600020826101e43516600052602052604060002080549060ff821615600014611494576001815461ff006111e26122c7565b60081b169061ffff1916171781556112136111fb6122c7565b825462ff0000191660109190911b62ff000016178255565b805464ffff0000001916630100000017905561122d6122c7565b60ff60405191168152836101e43516907f5d2f5505d19901ad4d8e8953b5a2119644585f12e2691ae309eceed6fc85629e602060043592a35b60ff161580611489575b8061144f575b611307575b5063ffffffff602093602435600052600a85526040600020836101e4351660005285526040600020600160ff198254161790556112c66112c083835460401c16612368565b8261237d565b5460401c16906040519182526101e43516907f490837e84042397d6b4bb41fed96419a172fdf5d3d295b0586dc73dcfb9429718460243592a3604051908152f35b926004356000526009602052604060002082851660005260205260406000209384549460ff86161561142d5763ffffffff8061134961ffff8960181c16612639565b9760281c169616958681101561140757509063ffffffff9291602096600435600052600b8852604060002086841660005288526040600020866101e4351660005288526040600020600160ff1982541617905581548560281b6113b0878360281c16612368565b60281b16908660281b191617809255846040519260281c1682528782015284806101e435169216907f7028884083d71c35b20c0e04773a2eb2af3e312d9d54a482626959b357c20bfa604060043592a4935061127b565b82876064928760405193630426c24160e01b855216600484015260248301526044820152fd5b6044828560405191633679c40760e01b83521660048201526004356024820152fd5b50600435600052600b60205260406000208282166000526020526040600020826101e4351660005260205260ff6040600020541615611276565b508181161515611270565b601160ff8360101c1614611678576114b160ff8360101c16612487565b6114b96122c7565b60ff80831691160361164d57508360045416801561163b576004356000526008602052604060002060ff8460101c166000526020526040600020549060206040518092631ff5f1e360e31b825281806115196101e435886004840161234f565b03915afa90811561162f57600091611600575b506115da575061153d6111fb6122c7565b805461ffff6001818360181c1601116115c45764ffff000000600161ffff8360181c160160181b169064ffff00000019161780915561ffff61157d6122c7565b9160ff6040519316835260181c166020820152836101e43516907fa3edd1991ca9a1cf77cc021a7f271dfdf661467f7c19cf84ea99a08380bec037604060043592a3611266565b634e487b7160e01b600052601160045260246000fd5b60405163ce43472160e01b81529081906115fc906101e435906004840161234f565b0390fd5b611622915060203d602011611628575b61161a818361227f565b810190612499565b8861152c565b503d611610565b6040513d6000823e3d90fd5b60405163426f075960e01b8152600490fd5b6116556122c7565b604051637bfa631160e01b815260ff928316600482015291166024820152604490fd5b60446116826122c7565b60ff60405191637bfa631160e01b835260116004840152166024820152fd5b6040516398fff11560e01b8152806115fc6101e4356024356004840161234f565b60405163b027293d60e01b8152600490fd5b60405162d94a7960e41b8152600490fd5b60405162461bcd60e51b815260206004820152600e60248201526d4f6e6c792067616d6520636f726560901b6044820152606490fd5b346102fc5760003660031901126102fc5760206040516146508152f35b346102fc5760403660031901126102fc576001600160401b03600435116102fc573660236004350112156102fc576001600160401b03600480350135116102fc573660246101c060043560040135026004350101116102fc576001600160401b03602435116102fc573660236024350112156102fc576001600160401b0360046024350135116102fc5736602480356004013560051b81350101116102fc5760ff60045460a01c1615610dfd5760116004356004013514801590611c97575b611c73576004356004013515611bc25760246004350135600052600c60205260ff60016040600020015460801c16611c57576040516020810190602460043501358252601160f81b60408201526021815261185181612248565b51902061186260c4600435016122b3565b60005b6011811061195f576020838084611918608460043501611884816122b3565b60405193611891856121c4565b8585526001600160401b039182168886019081529082166040808701828152600160608901818152600435602401356000908152600c8e5284902099518a55945198018054915194516001600160881b0319909216989095169790971792901b600160401b600160801b03169190911794151560801b60ff60801b169490941790556122b3565b906040519160018060401b03168252848201527fcdd87d839f50d82f7c277e9c8243382757670bac836c0dd09757bb7b3559096760406024600435013592a3604051908152f35b61197581600435600401356024600435016122a2565b926001820182116115c4576040840160ff600184011660ff611996836122d7565b1603611c1c575060246004350135843503611bf4576020840135600052600e602052604060002054611bd8576119cb84612a10565b6119d484612448565b60243560040135831015611bc25760421960243536030160248460051b813501013512156102fc5760248035600585901b810182013501906001600160401b0390820135116102fc576024810135360360448201136102fc576001600160a01b0391611a4b91602481013591604490910190612cfe565b16600052600260205260ff6040600020541615611bb05781151580611b52575b611b195760a090611a7b856128c2565b6020860135600052600e6020526024600435013560406000205560246004350135600052600d602052604060002060ff6001860116600052602052806040600020556040519060208201928352604082015260408152611ada81612248565b5190209301611ae8816122b3565b6001600160401b03848116911611611b04575b50600101611865565b6001919250611b12906122b3565b9190611afb565b6001826115fc611b2d60ff84840116612311565b604051630ec22fd160e11b81529384930160ff16906004803560240135908501612324565b50611b5f606085016122b3565b826000198101116115c4576001600160401b03611b9e611b996060611b9360001988016004803590810135906024016122a2565b016122b3565b6122f8565b166001600160401b0390911610611a6b565b60405163a50fdd7f60e01b8152600490fd5b634e487b7160e01b600052603260045260246000fd5b604051630e59c82d60e01b815260208501356004820152602490fd5b6040516311bc7d3960e31b8152806115fc6001850160ff1660048035602401359084016122e5565b826115fc611c2b6001936122d7565b60405163976e313b60e01b81529384930160ff166004840160ff91821681529116602082015260400190565b602460405163ce035f6560e01b81528160043501356004820152fd5b604460405163598c17a960e01b815260043560040135600482015260116024820152fd5b5060116024356004013514156117f7565b346102fc5760403660031901126102fc57611cc1612111565b600435600052600860205260ff604060002091166000526020526020604060002054604051908152f35b346102fc5760203660031901126102fc5760006060604051611d0c816121c4565b8281528260208201528260408201520152600435600052600c60205260806040600020604051611d3b816121c4565b600182549283835201549060018060401b03908160208201818516815260ff60606040850194848860401c1686520195881c161515855260405195865251166020850152511660408301525115156060820152f35b346102fc5760003660031901126102fc57602060405166038d7ea4c680008152f35b346102fc5760203660031901126102fc57611dcb6120cf565b6000546001600160a01b039190611de5908316331461218b565b60ff60045460a01c1661099e5781169081156102ea57600f80546001600160a01b031981168417909155167fae0b527aec7be2a921fb601477f42ce68cfc9122d8c176909c55cd756e30dfd8600080a3005b346102fc5760603660031901126102fc57611e506120e5565b611e586120fb565b90600435600052600b602052604060002060018060a01b0380921660005260205260406000209116600052602052602060ff604060002054166040519015158152f35b346102fc5760403660031901126102fc57611eb46120e5565b600435600052600a60205260406000209060018060a01b0316600052602052602060ff604060002054166040519015158152f35b346102fc5760003660031901126102fc57602060405160088152f35b346102fc5760003660031901126102fc57602060405160018152f35b346102fc5760003660031901126102fc576020604051600080516020613f828339815191528152f35b346102fc5760203660031901126102fc57611f626120cf565b6000546001600160a01b0390611f7b908216331461218b565b6004549160ff8360a01c1661099e5781169182156102ea576001600160a01b031981168317600455167f524dc4c62b4f4c50e6c9540d2b6def95ebbb0d97401fbe0cc8223774f9c145a7600080a3005b346102fc5760403660031901126102fc57600435611fe76120c0565b611ffc60018060a01b0360005416331461218b565b816000526006602052600160406000200180549160ff8360701c161561208b5760ff8360781c166120725760ff60881b19909216911515608881901b60ff60881b169290921790556040519081527fac1a6c436284f5b44241fc61175940e1e419c6c49e5a061c3dd5c59008110c5190602090a2005b604051636516cfdb60e01b815260048101859052602490fd5b604051634f15c33760e01b815260048101859052602490fd5b346102fc5760003660031901126102fc5780620f424060209252f35b6024359081151582036102fc57565b600435906001600160a01b03821682036102fc57565b602435906001600160a01b03821682036102fc57565b604435906001600160a01b03821682036102fc57565b6024359060ff821682036102fc57565b9181601f840112156102fc578235916001600160401b0383116102fc57602083818601950101116102fc57565b9060031982016101e081126102fc576101c0136102fc576004916101c435906001600160401b0382116102fc5761218791600401612121565b9091565b1561219257565b60405162461bcd60e51b815260206004820152600a60248201526927b7363c9037bbb732b960b11b6044820152606490fd5b608081019081106001600160401b038211176121df57604052565b634e487b7160e01b600052604160045260246000fd5b61010081019081106001600160401b038211176121df57604052565b6101c081019081106001600160401b038211176121df57604052565b60a081019081106001600160401b038211176121df57604052565b606081019081106001600160401b038211176121df57604052565b61020081019081106001600160401b038211176121df57604052565b601f909101601f19168101906001600160401b038211908210176121df57604052565b9190811015611bc2576101c0020190565b356001600160401b03811681036102fc5790565b60443560ff811681036102fc5790565b3560ff811681036102fc5790565b90815260ff909116602082015260400190565b6001600160401b0390811661465001919082116115c457565b60ff6000199116019060ff82116115c457565b90815260ff91821660208201529116604082015260600190565b3563ffffffff811681036102fc5790565b9081526001600160a01b03909116602082015260400190565b90600163ffffffff809316019182116115c457565b805463ffffffff60401b191660409290921b63ffffffff60401b16919091179055565b6001600160a01b039081169081156102ea5760015416818114612444576000818152600260209081526040808320805460ff19908116909155600180546001600160a01b0319168717815586855282852080549092161790555190929184837fdb7e28dcb7910a908b1404e917a472338ba3345b2f4d5600ec60d00f4bc508278380a38152600080516020613f62833981519152928391a2602060405160018152a2565b5050565b6124596124536126fa565b916128c2565b60405190602082019261190160f01b84526022830152604282015260428152612481816121c4565b51902090565b60ff60019116019060ff82116115c457565b908160209103126102fc575180151581036102fc5790565b63ffffffff9391926000938285526020600981526040918287209460018060a01b039586861689528352838820908451916124eb8361222d565b549260ff92838516159081158152848660081c16878201526080858760101c169d8e978a840198895261ffff8160181c16606085015260281c1691015261260a57821699808b11156125fa5761254090612487565b99828b16036125ec5788526008835283882091511687528152818620549360045416928315159384612584575b5050505061257c575081929190565b600393925090565b8394509082916125a894518080968194631ff5f1e360e31b83528a6004840161234f565b03915afa9283156125e3575085926125c6575b50503880808061256d565b6125dc9250803d106116285761161a818361227f565b38806125bb565b513d87823e3d90fd5b505050505050506002929190565b9950505050505050506001929190565b5050505050505050915080918190565b805461ffff60601b191660609290921b61ffff60601b16919091179055565b60021b906403fffffffc63fffffffc8316921682036115c457565b600052600660205260016040600020015460ff8160701c16156126f45760ff8160801c166126ee5760ff8160881c166126e85760781c60ff166126e35760056020526040600020600201546001600160401b0390600881901c821642106126dc57818160481c1642106126d55760881c1642106126d057600490565b600390565b5050600290565b5050600190565b600590565b50600790565b50600690565b50600090565b60405160208101907f8b73c3c69bb8fe3d512ecc4cf759cc79239f7b179b0ffacaa9a75d522b39400f82527f67d95eccdab82baf1c2fea9d89f0a04f0ac8b85169f524965498e50c81c6c15d60408201527fad7c5bef027816a800da1736444fb58a807ef4c9603b7848673f7e3a68eb14a560608201524660808201523060a082015260a0815260c0810181811060018060401b038211176121df5760405251902090565b3561ffff811681036102fc5790565b60443560ff81168091036102fc576064356001600160401b03818116918290036102fc576084358181168091036102fc5760a435918083168093036102fc5760c4359081168091036102fc5760e43563ffffffff81168091036102fc57610104359161ffff948584168094036102fc5761018435948686168096036102fc576101a4359687168097036102fc57604051976020890199600080516020613f828339815191528b5260043560408b015260243560608b015260808a015260a089015260c088015260e08701526101008601526101208501526101408401526101243561016084015261014435610180840152610164356101a08401526101c08301526101e09081830152815261248181612263565b6128ce604082016122d7565b906128db606082016122b3565b906128e8608082016122b3565b906128f560a082016122b3565b9261290260c083016122b3565b9261290f60e0840161233e565b92610100948582016129209061279f565b946101409661016094610180938486016129399061279f565b976129476101a0880161279f565b9b604051809e60208201600080516020613f8283398151915290528935604083015260208a0135606083015260ff1690608001528d600160401b6001900380958180951660a0840152169060c001521660e08d015216908a015263ffffffff1661012089015261ffff9586809616818a0152610120830135848a01528201359088015201356101a0860152166101c08401526101e091168183015281526129ed81612263565b8051906020012090565b6001600160401b0391821690821603919082116115c457565b8035158015612cf2575b612cd557604090612a34612a2f8383016122d7565b613f0a565b6060810190612a42826122b3565b6001600160401b03929060808301908480612a5c846122b3565b1691161090811591612cb2575b508015612c8d575b8015612c69575b612c595760e0820163ffffffff80612a8f8361233e565b1615918215612c41575b50508015612c29575b8015612c0f575b8015612c02575b612bf157612ad49083612ada612ac860a086016122b3565b620151809485946122b3565b906129f7565b16018381116115c4578316600019018381116115c4578316048216600a029182168290036115c45761ffff80921661018082018184612b188361279f565b1603612bc9575050610140810135801580612bbc575b612bab57683635c9adc5dea00000108015612b96575b612b85576101a001600182612b588361279f565b1603612b6357505050565b60249350612b709061279f565b9151631f0af94d60e11b815291166004820152fd5b8251635aa4fb5d60e11b8152600490fd5b5066038d7ea4c6800061016082013511612b44565b8351635aa4fb5d60e11b8152600490fd5b5061016082013515612b2e565b908385612bd760449461279f565b90519263792b27e960e01b84526004840152166024820152fd5b835163b027293d60e01b8152600490fd5b5061012082013515612ab0565b50600861ffff612c22610100850161279f565b1611612aa9565b5061ffff612c3a610100840161279f565b1615612aa2565b620f42409250612c509061233e565b16113880612a99565b835162d94a7960e41b8152600490fd5b50610e1083612c86612c7d60a086016122b3565b612ad4856122b3565b1610612a78565b50612c9a60c083016122b3565b8380612ca860a086016122b3565b1691161415612a71565b612cbc91506122b3565b8380612cca60a086016122b3565b169116101538612a69565b60405163325a5bd760e21b81526020909101356004820152602490fd5b50602081013515612a1a565b929160418103612dd1575060409260009160208101359085810135841a6fa2a8918ca85bafe22016d0b997e4df60600160ff1b038311612dc057601b81141580612db5575b612d9e579284926080926020958951938452868401523588830152606082015282805260015afa15612d935751916001600160a01b03831615612d835750565b5163a50fdd7f60e01b8152600490fd5b8251903d90823e3d90fd5b602490875190635d3b7f8160e11b82526004820152fd5b50601c811415612d43565b86516317e97eb760e31b8152600490fd5b6024906040519063058676ad60e31b82526004820152fd5b91906004351580156137de575b6137c55760ff60443516604435036102fc57612e13604435613f0a565b6064356001600160401b038116141592836102fc576084356001600160401b038116141593846102fc576001600160401b03608435811660643590911610801590613798575b8015613765575b801561372c575b6116d45760e43563ffffffff81161415806102fc5763ffffffff60e43516158015613715575b80156136fe575b80156136e5575b80156136da575b6116c25760a4356001600160401b038116141591826102fc576102fc5762015180806001600160401b03612eda60643560a4356129f7565b16016001600160401b0381116115c4576001600160401b03908116600019019081116115c4576001600160401b03908116919091048116600a029081168190036115c45761ffff1692610184359361ffff851685036102fc578061ffff8616036136b857506101443515806136ad575b61368857683635c9adc5dea000006101443511801561369a575b6136885761ffff6101a435166101a435036102fc57600161ffff6101a4351603613669576000946064356001600160401b0316421061365057612fa56126fa565b60c435929091906001600160401b038416840361364c5761ffff6101043516610104350361364c5760408051600080516020613f82833981519152602082015260043591810191909152602435606082015260ff6044351660808201526001600160401b03606435811660a0830152608435811660c083015260a435811660e0830152851661010082015263ffffffff60e4351661012082015261ffff6101043581166101408301526101243561016083015261014435610180830152610164356101a08301528881166101c08301526101a435166101e08083019190915281526130d992919061309581612263565b602081519101209360405194602086019161190160f01b835260228701526042860152604285526130c5856121c4565b93519093206001600160a01b039390612cfe565b168552600260205260ff60408620541615611bb0576130f66127ae565b966004358652600c60205260ff600160408820015460801c1615613633576004358652600d6020526040862095809660ff604435168252602052886040822054036136135760243581526006602052604081209660ff600189015460701c166135ff57600435825260086020526040822060ff6044351683526020526040822054801515806135f3575b613596575b50600160ff60443516116134f1575b806102fc57601160ff6044351610613448575b6102fc5760ff6044351660005260076020526040600020548015158061343c575b613384575b5060243560005260056020526040600020946004358655602435600187015560028601928354926102fc576102fc576102fc5760843560481b600160481b600160881b031660643560081b610100600160481b03166001600160c81b031990921660443560ff1617919091171760a43560881b600160881b600160c81b03161790556003830180546001600160401b0319166001600160401b03929092169190911790556102fc5760079061328760e4356003830161237d565b613297610104356003830161261a565b610124356004828101919091556101443560058301556101643560068301559101805463ffffffff191661ffff909316929092176101a43560101b63ffff000016179091558382556001919091018054600166ff00000000000160401b031916426001600160401b0390811691909117600160701b1790915560443560ff16600081815260076020908152604080832060243590819055953580845260088352818420858552835292819020869055805188815260643586169281019290925260843585169082015260a4359093166060840152909291600080516020613f4283398151915290608090a4565b600052600660205260406000206005602052816040600020906102fc57600201546001600160401b03608882901c81166064359091161091908261341a575b50600101549060ff8260801c1615918261340b575b5081613403575b506133ea57386131cd565b60405163d3b1637b60e01b815260248035600483015290fd5b9050386133df565b60781c60ff16159150386133d8565b600097506001600160401b0360a435811660089290921c1610915060016133c3565b506024358114156131c8565b506004356000526008602052604060002060009060ff613469604435612487565b168252602052604081205480151590816134b1575b50156131a7576115fc613492604435612487565b604051630ec22fd160e11b815291829160443560048035908501612324565b8252506005602052604081206002015460081c6001600160401b0316826134ed576001600160401b036134e56064356122f8565b16113861347e565b5080fd5b506004358152600860205260408120819060ff61350f604435612311565b16835260205260408220548015159081613558575b5015613194576115fc613538604435612311565b604051630ec22fd160e11b81529182916044359060048035908501612324565b6000908152600560205260409020600201546001600160401b0391506135829060081c82166122f8565b166064356001600160401b03161038613524565b82526006602052600160408320015460ff8160801c16159081156135e0575b506135c05738613185565b604051633c272c0f60e21b8152806115fc604435600480359084016122e5565b63ffffffff915060401c161515386135b5565b50602435811415613180565b505050505050509180919254036133ea5790565b6040516311bc7d3960e31b8152806115fc604435600480359084016122e5565b60246040516315e82cef60e11b81526004356004820152fd5b8780fd5b604051630be47ce760e01b815260248035600483015290fd5b604051631f0af94d60e11b81526101a43561ffff166004820152602490fd5b604051635aa4fb5d60e11b8152600490fd5b5066038d7ea4c680006101643511612f64565b506101643515612f4a565b60449061ffff866040519263792b27e960e01b84526004840152166024820152fd5b506101243515612ea2565b506101043561ffff81168091036102fc57600810612e9b565b506101043561ffff81168091036102fc5715612e94565b50506000620f424063ffffffff60e4351611612e8d565b505060a4356001600160401b03811681036102fc57600090610e10906001600160401b039061375e90606435906129f7565b1610612e67565b5060c4356001600160401b038116908190036102fc5760a4356001600160401b03811691908290036102fc571415612e60565b506000945060a4356001600160401b038116908190036102fc576084356001600160401b03161015612e59565b60405163325a5bd760e21b815260248035600483015290fd5b5060243515612df6565b92916137f384612a10565b6001600160401b03613807606086016122b3565b164210613eaf576001600160a01b03916138259190610a0886612448565b16600052600260205260ff6040600020541615611bb057613845826128c2565b918035600052600c60205260ff60016040600020015460801c1615613e96578035600052600d602052604060002060ff613881604084016122d7565b166000526020528260406000205403613e6c5760208101356000526006602052604060002060ff600182015460701c16613e415781356000526008602052604060002060ff6138d2604085016122d7565b1660005260205260406000205480151580613e33575b613dc9575b50600160ff6138fe604085016122d7565b1611613d1c575b601160ff613915604085016122d7565b1610613c67575b60ff61392a604084016122d7565b16600052600760205260406000205480151580613c59575b613b8b575b506020820135600052600560205260076040600020833581556020840135600182015560ff613978604086016122d7565b60028301549116610100600160481b03613994606088016122b3565b60081b16600160481b600160881b036139af608089016122b3565b60481b1691600160881b600160c81b036139cb60a08a016122b3565b60881b169360018060c81b031916171717176002820155613a2f6003820160018060401b036139fc60c088016122b3565b82546001600160401b0319169116178155613a1c6112c060e0880161233e565b613a29610100870161279f565b9061261a565b6101208401356004820155610140840135600582015561016084013560068201550161ffff613a61610180850161279f565b1681549063ffff0000613a776101a0870161279f565b63ffffffff199093169190911760109290921b161790558381556001018054600166ff00000000000160401b031916426001600160401b031617600160701b17905560ff613ac7604083016122d7565b166000526007602052602081013560406000205580356000526008602052604060002060ff613af8604084016122d7565b166000526020526020810135604060002055613b16604082016122d7565b9060ff613b25606083016122b3565b92613b32608084016122b3565b613b3e60a085016122b3565b906040519588875260018060401b0316602087015260018060401b0316604086015260018060401b031660608501521691600080516020613f4283398151915260806020840135933592a4565b6000526006602052604060002060056020526040600020906002613bb1606086016122b3565b9201546001600160401b03608882901c81169316929092109182613c2a575b50600101549060ff8260801c16159182613c1b575b5081613c13575b50613bf75738613947565b60405163d3b1637b60e01b815260208301356004820152602490fd5b905038613bec565b60781c60ff1615915038613be5565b9091506001906001600160401b03613c4460a087016122b3565b1690828060401b039060081c16109190613bd0565b506020830135811415613942565b81356000526008602052604060002060ff613c8c613c87604086016122d7565b612487565b166000526020526040600020548015159081613ce3575b501561391c5750613cb6604082016122d7565b906115fc613cc9613c87604084016122d7565b604051630ec22fd160e11b81529384933560048501612324565b60009081526005602052604090206002015460081c6001600160401b039081169150613d14611b99606086016122b3565b161138613ca3565b81356000526008602052604060002060ff613d41613d3c604086016122d7565b612311565b166000526020526040600020548015159081613d7e575b50156139055750613d6e613d3c604083016122d7565b906115fc613cc9604083016122d7565b9050613d8c606084016122b3565b600091825260056020526040909120600201546001600160401b0390613db69060081c82166122f8565b166001600160401b039091161038613d58565b600052600660205260016040600020015460ff8160801c1615908115613e20575b50613df557386138ed565b50613e02604082016122d7565b604051633c272c0f60e21b81529182916115fc9135600484016122e5565b63ffffffff915060401c16151538613dea565b5060208301358114156138e8565b928092935403613e4f575090565b60405163d3b1637b60e01b81526020909101356004820152602490fd5b613e78604082016122d7565b6040516311bc7d3960e31b81529182916115fc9135600484016122e5565b6040516315e82cef60e11b815290356004820152602490fd5b604051630be47ce760e01b815260208501356004820152602490fd5b6001600160a01b038116908115908115613f00575b50613ee85750565b60249060405190630e05bb9160e31b82526004820152fd5b90503b1538613ee0565b60ff16600181108015613f37575b613f1f5750565b60249060405190633d98c85560e21b82526004820152fd5b5060118111613f1856fe8f81b2a2b7d5cd93c3bff32d607ad4f9c6cae7530bc246a10dbc04f3e9a65f38718c589333d07ca3a7c8cb5bd0a1e341f96fbbb9151d8fe5b7823d4771949e7288c69bf121116cdeeb92b6c451c3a5c37f4cd9ca0cfac3ab5b2ac79b94062c65a264697066735822122091835e8f65fc76e0d16dddfabd6e23adb1d7eae8e30dd5fd92c4f66e3aca071a64736f6c63430008180033",
  "linkReferences": {},
  "deployedLinkReferences": {}
}