{
  "_format": "hh-sol-artifact-1",
  "contractName": "LotteryGenerator",
  "sourceName": "contracts/Lottery_Advance.sol",
  "abi": [
    {
      "anonymous": false,
      "inputs": [
        {
          "indexed": false,
          "internalType": "address",
          "name": "lotteryAddress",
          "type": "address"
        }
      ],
      "name": "LotteryCreated",
      "type": "event"
    },
    {
      "inputs": [
        {
          "internalType": "string",
          "name": "name",
          "type": "string"
        }
      ],
      "name": "createLottery",
      "outputs": [],
      "stateMutability": "nonpayable",
      "type": "function"
    },
    {
      "inputs": [
        {
          "internalType": "address",
          "name": "lotteryAddress",
          "type": "address"
        }
      ],
      "name": "deleteLottery",
      "outputs": [],
      "stateMutability": "nonpayable",
      "type": "function"
    },
    {
      "inputs": [],
      "name": "getLotteries",
      "outputs": [
        {
          "internalType": "address[]",
          "name": "",
          "type": "address[]"
        }
      ],
      "stateMutability": "view",
      "type": "function"
    },
    {
      "inputs": [
        {
          "internalType": "uint256",
          "name": "",
          "type": "uint256"
        }
      ],
      "name": "lotteries",
      "outputs": [
        {
          "internalType": "address",
          "name": "",
          "type": "address"
        }
      ],
      "stateMutability": "view",
      "type": "function"
    }
  ],
  "bytecode": "0x60808060405234601557611c03908161001b8239f35b600080fdfe6080604052600436101561001257600080fd5b60003560e01c80631398e0761461054f5780631684258214610307578063a7e46eac146101185763bcc82ec41461004857600080fd5b346101135760003660031901126101135760405180602060005492838152018092600080527f290decd9548b62a8d60345a988386fc84ba6bc95484008f6362f93160ef3e5639060005b8181106100f457505050816100a89103826105c1565b6040519182916020830190602084525180915260408301919060005b8181106100d2575050500390f35b82516001600160a01b03168452859450602093840193909201916001016100c4565b82546001600160a01b0316845260209093019260019283019201610092565b600080fd5b34610113576020366003190112610113576004356001600160a01b038116908190036101135780600052600160205260ff60016040600020015460a01c16156102c957600081815260016020819052604090912001546001600160a01b03163303610278578060005260016020526040600020546000546000198101908111610262576101a490610591565b905460039190911b1c6001600160a01b031680830361021c575b5050600054801561020657600019016101d681610591565b81549060018060a01b039060031b1b19169055600055600052600160205260006001604082208281550155600080f35b634e487b7160e01b600052603160045260246000fd5b61024d8161022984610591565b81546001600160a01b0393841660039290921b91821b9390911b1916919091179055565b600052600160205260406000205581806101be565b634e487b7160e01b600052601160045260246000fd5b60405162461bcd60e51b815260206004820152602360248201527f4f6e6c79206d616e616765722063616e2064656c65746520746865206c6f747460448201526265727960e81b6064820152608490fd5b60405162461bcd60e51b8152602060048201526016602482015275131bdd1d195c9e48191bd95cc81b9bdd08195e1a5cdd60521b6044820152606490fd5b346101135760203660031901126101135760043567ffffffffffffffff8111610113573660238201121561011357806004013567ffffffffffffffff81116104d05760405191610361601f8301601f1916602001846105c1565b81835236602483830101116101135781600092602460209301838601378301015280511561050a57604051906115ea908183019183831067ffffffffffffffff8411176104d0579083916105e483396040835280519081604085015260005b8281106104f2575050918260006060809584010152336020830152601f8019910116010301906000f080156104e65760018060a01b0316600054680100000000000000008110156104d0578161022982600161041f9401600055610591565b6000546000198101919082116102625760405190606082019180831067ffffffffffffffff8411176104d0577fe610764cbcba803247df3450b7492f6a0084b7b5b734a7901c13fef8f84ffaf4936020936040528152828101903382526001604082019181835284600052818652604060002090518155019160018060a01b0390511682549160ff60a01b9051151560a01b16916affffffffffffffffffffff60a81b1617179055604051908152a1005b634e487b7160e01b600052604160045260246000fd5b6040513d6000823e3d90fd5b602082820181015160608784010152869450016103c0565b60405162461bcd60e51b815260206004820152601860248201527f4c6f7474657279206e616d6520697320726571756972656400000000000000006044820152606490fd5b346101135760203660031901126101135760043560005481101561011357610578602091610591565b905460405160039290921b1c6001600160a01b03168152f35b6000548110156105ab576000805260206000200190600090565b634e487b7160e01b600052603260045260246000fd5b90601f8019910116810190811067ffffffffffffffff8211176104d05760405256fe6080604052346102d3576115ea80380380610019816102ed565b9283398101906040818303126102d35780516001600160401b0381116102d357810182601f820112156102d3578051906001600160401b0382116102335761006a601f8301601f19166020016102ed565b93828552602083830101116102d35760005b8281106102d857846020856000828785010152015160018060a01b0381168091036102d35781511561028e57801561024957600180546001600160a01b03191691909117905580516001600160401b03811161023357600054600181811c91168015610229575b602082101461021357601f81116101a2575b50602091601f821160011461013f57918192600092610134575b50508160011b916000199060031b1c1916176000555b6040516112d790816103138239f35b01519050828061010f565b601f1982169260008052806000209160005b85811061018a57508360019510610171575b505050811b01600055610125565b015160001960f88460031b161c19169055828080610163565b91926020600181928685015181550194019201610151565b818111156100f55760008052601f820160051c7f290decd9548b62a8d60345a988386fc84ba6bc95484008f6362f93160ef3e5636020841061020a575b81601f9101920160051c039060005b8281106101fc5750506100f5565b6000828201556001016101ee565b600091506101df565b634e487b7160e01b600052602260045260246000fd5b90607f16906100e3565b634e487b7160e01b600052604160045260246000fd5b60405162461bcd60e51b815260206004820152601b60248201527f4d616e61676572206164647265737320697320726571756972656400000000006044820152606490fd5b60405162461bcd60e51b815260206004820152601860248201527f4c6f7474657279206e616d6520697320726571756972656400000000000000006044820152606490fd5b600080fd5b8060208092840101518282880101520161007c565b6040519190601f01601f191682016001600160401b038111838210176102335760405256fe6080806040526004361015610047575b50361561001b57600080fd5b61004560405161002c60408261098d565b60078152662ab735b737bbb760c91b6020820152610d28565b005b60003560e01c90816310c85fe51461096d5750806314034bd2146105c85780631d27769f1461055a57806323d1414914610478578063329bfc3314610429578063481c6a75146104005780635832d571146103d75780635c12cd4b146103895780635d58a74a1461036b5780637752045b1461034d5780638b5b9ccc14610281578063aa1ddd2014610263578063bdaea326146101bd578063d68895d8146101a1578063dfbf53ae1461014b5763f25266dd14610104573861000f565b34610146576020366003190112610146576004356004548110156101465761012d602091610b15565b905460405160039290921b1c6001600160a01b03168152f35b600080fd5b346101465760003660031901126101465761018d610167610a1b565b60065460075460018060a01b036008541690604051948594608086526080860190610ad4565b926020850152604084015260608301520390f35b3461014657600036600319011261014657602047604051908152f35b3461014657604036600319011261014657600435602435906101ea60018060a01b03600154163314610b61565b60095460ff811661021e5760ff191660011760095580610219575060015b600a5580610214575060015b600b55005b610208565b60405162461bcd60e51b815260206004820152601960248201527f4c6f747465727920697320616c726561647920616374697665000000000000006044820152606490fd5b34610146576000366003190112610146576020600454604051908152f35b34610146576000366003190112610146576040518060206002549283815201809260026000527f405787fa12a823e0f2b7631cc41b3ba8828b3321ca811111fa75cd3aa3bb5ace9060005b81811061032e57505050816102e291038261098d565b6040519182916020830190602084525180915260408301919060005b81811061030c575050500390f35b82516001600160a01b03168452859450602093840193909201916001016102fe565b82546001600160a01b03168452602090930192600192830192016102cc565b34610146576000366003190112610146576020600a54604051908152f35b34610146576000366003190112610146576020600b54604051908152f35b34610146576020366003190112610146576004356001600160a01b0381168103610146576103b96103cd9161116d565b604051928392604084526040840190610ad4565b9060208301520390f35b34610146576020366003190112610146576004356002548110156101465761012d602091610b46565b34610146576000366003190112610146576001546040516001600160a01b039091168152602090f35b346101465760003660031901126101465761046960065460018060a01b036008541690610454610a1b565b91604051938493606085526060850190610ad4565b91602084015260408301520390f35b346101465760003660031901126101465760405160008054610499816109e1565b808452906001811690811561053657506001146104d9575b6104d5836104c18185038261098d565b604051918291602083526020830190610ad4565b0390f35b60008080527f290decd9548b62a8d60345a988386fc84ba6bc95484008f6362f93160ef3e563939250905b80821061051c575090915081016020016104c16104b1565b919260018160209254838588010152019101909291610504565b60ff191660208086019190915291151560051b840190910191506104c190506104b1565b60203660031901126101465760043567ffffffffffffffff81116101465736602382011215610146578060040135610591816109c5565b9061059f604051928361098d565b808252366024828501011161014657602081600092602461004596018386013783010152610d28565b34610146576000366003190112610146576105ee60018060a01b03600154163314610b61565b60045480156109305761062d60405160208101904482524260408201528360608201526060815261062060808261098d565b5190209160009206610b15565b60018060a01b0391549060031b1c169047828252600360205261065260408320610c26565b82825260036020526001604083200154600655826bffffffffffffffffffffffff60a01b600854161760085560209260405161068e858261098d565b8381528336813780519067ffffffffffffffff82116108c557600160401b82116108c557859060045483600455808410610914575b500160048552845b8281106108d9575050506040516106e2858261098d565b8381528336813780519067ffffffffffffffff82116108c557600160401b82116108c5578590600254836002558084106108a9575b50600286528593929101835b82811061086b57505050818093819260ff19600954166009555af13d15610866573d61074e816109c5565b9061075c604051928361098d565b815282843d92013e5b156108295760065460405190604082528293600554610783816109e1565b9081604086015260018116908160001461080757506001146107d0575b509382917fd6d1eeba639254bd05e36261ae299af245328ab997fd9b7823d5fff17f1b74a494958301520390a180f35b6005855281852091955084915b8183106107f2575050820160600193826107a0565b805485840160600152918601916001016107dd565b60ff191660608681019190915291151560051b850190910195508390506107a0565b60405162461bcd60e51b8152600481018390526015602482015274141c9a5e99481d1c985b9cd9995c8819985a5b1959605a1b6044820152606490fd5b610765565b81516001600160a01b03167f405787fa12a823e0f2b7631cc41b3ba8828b3321ca811111fa75cd3aa3bb5ace82015586945090870190600101610723565b6108bf90600288528480858a2001910390610bb9565b87610717565b634e487b7160e01b85526041600452602485fd5b81516001600160a01b03167f8a35acfbc15ff81a39ae7d344fd709f28e8600b4aa8c65c6b64bfe7fe36bd19b820155908601906001016106cb565b61092a90600488528480858a2001910390610bb9565b876106c3565b60405162461bcd60e51b81526020600482015260156024820152744e6f20706c617965727320696e206c6f747465727960581b6044820152606490fd5b346101465760003660031901126101465760209060ff6009541615158152f35b90601f8019910116810190811067ffffffffffffffff8211176109af57604052565b634e487b7160e01b600052604160045260246000fd5b67ffffffffffffffff81116109af57601f01601f191660200190565b90600182811c92168015610a11575b60208310146109fb57565b634e487b7160e01b600052602260045260246000fd5b91607f16916109f0565b6040519060008260055491610a2f836109e1565b8083529260018116908115610ab55750600114610a55575b610a539250038361098d565b565b506005600090815290917f036b6384b5eca791c62761152d0c79bb0604c104a5fb6f4eb0703f3154bb3db05b818310610a99575050906020610a5392820101610a47565b6020919350806001915483858901015201910190918492610a81565b60209250610a5394915060ff191682840152151560051b820101610a47565b919082519283825260005b848110610b00575050826000602080949584010152601f8019910116010190565b80602080928401015182828601015201610adf565b600454811015610b3057600460005260206000200190600090565b634e487b7160e01b600052603260045260246000fd5b600254811015610b3057600260005260206000200190600090565b15610b6857565b60405162461bcd60e51b815260206004820152602360248201527f4f6e6c79206d616e616765722063616e2063616c6c20746869732066756e637460448201526234b7b760e91b6064820152608490fd5b60005b828110610bc857505050565b600082820155600101610bbc565b91601f8211610be457505050565b808211610bf057505050565b610a53926000526020600020916020601f830160051c9210610c1d575b601f82910160051c039101610bb9565b60009150610c0d565b9081600514610d2457610c3982546109e1565b67ffffffffffffffff81116109af57610c5e81610c576005546109e1565b6005610bd6565b600092601f8211600114610ca057610c9092938291600092610c95575b50508160011b916000199060031b1c19161790565b600555565b015490503880610c7b565b83526020832060058452927f036b6384b5eca791c62761152d0c79bb0604c104a5fb6f4eb0703f3154bb3db090601f198316815b818110610d0c575094836001959610610cf3575b505050811b01600555565b015460001960f88460031b161c19169055388080610ce8565b9192600180602092868a015481550194019201610cd4565b9050565b908151156111285760ff60095416156110eb57600b54670de0b6b3a7640000810290808204670de0b6b3a76400001490151715610fc75734036110af57336000526003602052600160406000200154600a54111561107457610d8933611258565b1561104d57336000908152600360205260409020600181810155825167ffffffffffffffff81116109af57610dc881610dc284546109e1565b84610bd6565b6020601f8211600114610fe8578190610df9939495600092610fdd5750508160011b916000199060031b1c19161790565b90555b3360005260036020526003604060002001336bffffffffffffffffffffffff60a01b825416179055600254600160401b8110156109af57610e46816001610e679301600255610b46565b815491926001600160a01b0360039290921b91821b199092163390911b1790565b90556002546000198101908111610fc7573360005260036020526002604060002001555b600454600160401b8110156109af57610e46816001610ead9301600455610b15565b9055336000908152600360205260408082206001810154825192835281549293929091610ed9826109e1565b91826040870152600181169081600014610f825750600114610f27575b505060208301527f76041b6e8130995874e79e751d284536c37242cb014fb0584ede1d1e64ce03c9919081900390a1565b600090815260208120929350915b818310610f6b575050820160600190807f76041b6e8130995874e79e751d284536c37242cb014fb0584ede1d1e64ce03c9610ef6565b805460608487010152602090920191600101610f35565b60ff191660608088019190915292151560051b860190920193508291507f76041b6e8130995874e79e751d284536c37242cb014fb0584ede1d1e64ce03c99050610ef6565b634e487b7160e01b600052601160045260246000fd5b015190503880610c7b565b601f1982169083600052806000209160005b8181106110355750958360019596971061101c575b505050811b019055610dfc565b015160001960f88460031b161c1916905538808061100f565b9192602060018192868b015181550194019201610ffa565b9050336000526003602052600160406000200180549060018201809211610fc75755610e8b565b60405162461bcd60e51b8152602060048201526013602482015272115b9d1c9e481b1a5b5a5d081c995858da1959606a1b6044820152606490fd5b60405162461bcd60e51b8152602060048201526014602482015273125b98dbdc9c9958dd0811551208185b5bdd5b9d60621b6044820152606490fd5b60405162461bcd60e51b81526020600482015260156024820152744c6f7474657279206973206e6f742061637469766560581b6044820152606490fd5b60405162461bcd60e51b815260206004820152601760248201527f506c61796572206e616d652069732072657175697265640000000000000000006044820152606490fd5b61117681611258565b61123f576001600160a01b03166000908152600360205260408082206001810154915181549294939092918391906111ad846109e1565b808452936001811690811561121d57506001146111d6575b506111d29250038261098d565b9190565b90506000929192526020600020906000915b8183106112015750509060206111d292820101386111c5565b60209193508060019154838588010152019101909183926111e8565b9050602092506111d294915060ff191682840152151560051b820101386111c5565b5060405161124e60208261098d565b6000815290600090565b6002541561129b576001600160a01b031660008181526003602052604090206002015461128490610b46565b905460039190911b1c6001600160a01b0316141590565b5060019056fea2646970667358221220475c8d680f174c944b8f2ed3f8f275d34134b8bb718c33ceb87a181a75941ea964736f6c63430008230033a26469706673582212202ccdf447973a258815c83849ae120732437b96dfaf6a0f999509b295612ae55c64736f6c63430008230033",
  "linkReferences": {},
  "deployedLinkReferences": {}
}