{
  "_format": "hh-sol-artifact-1",
  "contractName": "Lottery",
  "sourceName": "contracts/Lottery_Advance.sol",
  "abi": [
    {
      "inputs": [
        {
          "internalType": "string",
          "name": "name",
          "type": "string"
        },
        {
          "internalType": "address",
          "name": "creator",
          "type": "address"
        }
      ],
      "stateMutability": "nonpayable",
      "type": "constructor"
    },
    {
      "anonymous": false,
      "inputs": [
        {
          "indexed": false,
          "internalType": "string",
          "name": "name",
          "type": "string"
        },
        {
          "indexed": false,
          "internalType": "uint256",
          "name": "entryCount",
          "type": "uint256"
        }
      ],
      "name": "PlayerParticipated",
      "type": "event"
    },
    {
      "anonymous": false,
      "inputs": [
        {
          "indexed": false,
          "internalType": "string",
          "name": "name",
          "type": "string"
        },
        {
          "indexed": false,
          "internalType": "uint256",
          "name": "entryCount",
          "type": "uint256"
        }
      ],
      "name": "WinnerDeclared",
      "type": "event"
    },
    {
      "inputs": [
        {
          "internalType": "uint256",
          "name": "maxEntries",
          "type": "uint256"
        },
        {
          "internalType": "uint256",
          "name": "ethRequired",
          "type": "uint256"
        }
      ],
      "name": "activateLottery",
      "outputs": [],
      "stateMutability": "nonpayable",
      "type": "function"
    },
    {
      "inputs": [
        {
          "internalType": "uint256",
          "name": "",
          "type": "uint256"
        }
      ],
      "name": "addressIndexes",
      "outputs": [
        {
          "internalType": "address",
          "name": "",
          "type": "address"
        }
      ],
      "stateMutability": "view",
      "type": "function"
    },
    {
      "inputs": [],
      "name": "declareWinner",
      "outputs": [],
      "stateMutability": "nonpayable",
      "type": "function"
    },
    {
      "inputs": [],
      "name": "ethToParticipate",
      "outputs": [
        {
          "internalType": "uint256",
          "name": "",
          "type": "uint256"
        }
      ],
      "stateMutability": "view",
      "type": "function"
    },
    {
      "inputs": [],
      "name": "getCurrentWinner",
      "outputs": [
        {
          "internalType": "string",
          "name": "",
          "type": "string"
        },
        {
          "internalType": "uint256",
          "name": "",
          "type": "uint256"
        },
        {
          "internalType": "address",
          "name": "",
          "type": "address"
        }
      ],
      "stateMutability": "view",
      "type": "function"
    },
    {
      "inputs": [],
      "name": "getLotterySoldCount",
      "outputs": [
        {
          "internalType": "uint256",
          "name": "",
          "type": "uint256"
        }
      ],
      "stateMutability": "view",
      "type": "function"
    },
    {
      "inputs": [
        {
          "internalType": "address",
          "name": "playerAddress",
          "type": "address"
        }
      ],
      "name": "getPlayer",
      "outputs": [
        {
          "internalType": "string",
          "name": "",
          "type": "string"
        },
        {
          "internalType": "uint256",
          "name": "",
          "type": "uint256"
        }
      ],
      "stateMutability": "view",
      "type": "function"
    },
    {
      "inputs": [],
      "name": "getPlayers",
      "outputs": [
        {
          "internalType": "address[]",
          "name": "",
          "type": "address[]"
        }
      ],
      "stateMutability": "view",
      "type": "function"
    },
    {
      "inputs": [],
      "name": "getWinningPrice",
      "outputs": [
        {
          "internalType": "uint256",
          "name": "",
          "type": "uint256"
        }
      ],
      "stateMutability": "view",
      "type": "function"
    },
    {
      "inputs": [],
      "name": "isLotteryLive",
      "outputs": [
        {
          "internalType": "bool",
          "name": "",
          "type": "bool"
        }
      ],
      "stateMutability": "view",
      "type": "function"
    },
    {
      "inputs": [
        {
          "internalType": "uint256",
          "name": "",
          "type": "uint256"
        }
      ],
      "name": "lotteryBag",
      "outputs": [
        {
          "internalType": "address payable",
          "name": "",
          "type": "address"
        }
      ],
      "stateMutability": "view",
      "type": "function"
    },
    {
      "inputs": [],
      "name": "lotteryName",
      "outputs": [
        {
          "internalType": "string",
          "name": "",
          "type": "string"
        }
      ],
      "stateMutability": "view",
      "type": "function"
    },
    {
      "inputs": [],
      "name": "manager",
      "outputs": [
        {
          "internalType": "address",
          "name": "",
          "type": "address"
        }
      ],
      "stateMutability": "view",
      "type": "function"
    },
    {
      "inputs": [],
      "name": "maxEntriesForPlayer",
      "outputs": [
        {
          "internalType": "uint256",
          "name": "",
          "type": "uint256"
        }
      ],
      "stateMutability": "view",
      "type": "function"
    },
    {
      "inputs": [
        {
          "internalType": "string",
          "name": "playerName",
          "type": "string"
        }
      ],
      "name": "participate",
      "outputs": [],
      "stateMutability": "payable",
      "type": "function"
    },
    {
      "inputs": [],
      "name": "winner",
      "outputs": [
        {
          "internalType": "string",
          "name": "name",
          "type": "string"
        },
        {
          "internalType": "uint256",
          "name": "entryCount",
          "type": "uint256"
        },
        {
          "internalType": "uint256",
          "name": "index",
          "type": "uint256"
        },
        {
          "internalType": "address",
          "name": "adrs",
          "type": "address"
        }
      ],
      "stateMutability": "view",
      "type": "function"
    },
    {
      "stateMutability": "payable",
      "type": "receive"
    }
  ],
  "bytecode": "0x608060405234620002c45762001519803803806200001d81620002de565b928339810190604081830312620002c45780516001600160401b039190828111620002c457810192601f90808286011215620002c4578451928484116200022657602093601f19966200007686898785011601620002de565b93828552868383010111620002c4579085929160005b828110620002c9575050600090840183015201516001600160a01b0381169390849003620002c457815115620002805783156200023c57600180546001600160a01b0319169094178455815194851162000226576000548481811c911680156200021b575b828210146200020557838111620001ba575b50809285116001146200015057508394509083929160009462000144575b50501b916000199060031b1c1916176000555b6040516112149081620003058239f35b01519250388062000121565b9294849081166000805284600020946000905b888383106200019f575050501062000185575b505050811b0160005562000134565b015160001960f88460031b161c1916905538808062000176565b85870151885590960195948501948793509081019062000163565b60008052816000208480880160051c820192848910620001fb575b0160051c019085905b828110620001ee57505062000103565b60008155018590620001de565b92508192620001d5565b634e487b7160e01b600052602260045260246000fd5b90607f1690620000f1565b634e487b7160e01b600052604160045260246000fd5b6064906040519062461bcd60e51b82526004820152601b60248201527f4d616e61676572206164647265737320697320726571756972656400000000006044820152fd5b6064906040519062461bcd60e51b82526004820152601860248201527f4c6f7474657279206e616d6520697320726571756972656400000000000000006044820152fd5b600080fd5b8181018501518682018601528794016200008c565b6040519190601f01601f191682016001600160401b03811183821017620002265760405256fe608060408181526004918236101561006d575b50361561001e57600080fd5b805190818101906001600160401b038211838310176100585761005693505260078152662ab735b737bbb760c91b6020820152610c13565b005b604184634e487b7160e01b6000525260246000fd5b600090813560e01c90816310c85fe51461088b5750806314034bd2146105da5780631d27769f1461056a57806323d141491461049d578063329bfc331461044d578063481c6a75146104245780635832d571146103f95780635c12cd4b146103ac5780635d58a74a1461038d5780637752045b1461036e5780638b5b9ccc146102aa578063aa1ddd201461028c578063bdaea326146101dd578063d68895d8146101c2578063dfbf53ae146101675763f25266dd0361001257346101645760203660031901126101645782359254831015610164575061014e602092610a37565b905491519160018060a01b039160031b1c168152f35b80fd5b5090346101be57816003193601126101be576101ac90610185610955565b906006549060075460018060a01b03600854169180519586956080875260808701906109f7565b93602086015284015260608301520390f35b5080fd5b5090346101be57816003193601126101be5751478152602090f35b509190346102885780600319360112610288578135906024359261020c60018060a01b03600154163314610a83565b6009549160ff831661024957505060ff191660011760095580610244575060015b600a558061023f575060015b600b5580f35b610239565b61022d565b906020606492519162461bcd60e51b835282015260196024820152784c6f747465727920697320616c72656164792061637469766560381b6044820152fd5b8280fd5b50913461028857826003193601126102885760209250549051908152f35b50346101645780600319360112610164578151600280548083529083526020939284830192909183907f405787fa12a823e0f2b7631cc41b3ba8828b3321ca811111fa75cd3aa3bb5ace90845b818110610351575050508161030d9103826108dd565b83519485948186019282875251809352850193925b82811061033157505050500390f35b83516001600160a01b031685528695509381019392810192600101610322565b82546001600160a01b0316845292880192600192830192016102f7565b5090346101be57816003193601126101be57602090600a549051908152f35b5090346101be57816003193601126101be57602090600b549051908152f35b5082346101be5760203660031901126101be5735906001600160a01b038216820361016457506103db90611079565b82518381529283926103ef918401906109f7565b9060208301520390f35b509134610288576020366003190112610288573591600254831015610164575061014e602092610a68565b5090346101be57816003193601126101be5760015490516001600160a01b039091168152602090f35b5090346101be57816003193601126101be576006546008546104909291906001600160a01b031661047c610955565b9280519485946060865260608601906109f7565b9260208501528301520390f35b5034610164578060031936011261016457815191828283546104be8161091b565b9081845260209560019187600182169182600014610543575050600114610506575b50505061050292916104f39103856108dd565b519282849384528301906109f7565b0390f35b91908693508280528383205b82841061052b57505050820101816104f36105026104e0565b8054848a018601528895508794909301928101610512565b60ff19168782015293151560051b860190930193508492506104f3915061050290506104e0565b50919060203660031901126102885781359183906001600160401b0384116101be57366023850112156101be57830135926105b06105a785610900565b935193846108dd565b83835236602485830101116101be57836105d7946024602093018386013783010152610c13565b80f35b5091903461028857826003193601126102885760018060a01b039060019161060781600154163314610a83565b835490811561085057825190602092838301448152428685015260609382858201528481526080810181811060018060401b0382111761083d578752519020610651919006610a37565b90549060031b1c169486808080478a825260038852610671898320610af2565b8a82526003885288822060010154600655600880546001600160a01b0319168c179055885182906106a1816108ac565b52855482875580610825575b508582528189516106bd816108ac565b52600254826002558061080c575b506002825260ff199a8b600954166009555af13d15610807573d6106ee81610900565b906106fb875192836108dd565b815288853d92013e5b156107cc5750600654928051948186528796600554906107238261091b565b80948901526001821691826000146107a557505060011461075d575b5050508201526000805160206111bf8339815191529181900390a180f35b9192949550600587528487209187925b828410610792575050508401019291816000805160206111bf8339815191528461073f565b805488850186015292860192810161076d565b16848801525050151560051b8401019350816000805160206111bf8339815191528461073f565b835162461bcd60e51b81529081018390526015602482015274141c9a5e99481d1c985b9cd9995c8819985a5b1959605a1b6044820152606490fd5b610704565b6002835288832061081f91810190610adb565b386106cb565b86835288832061083791810190610adb565b386106ad565b634e487b7160e01b8b5260418a5260248bfd5b825162461bcd60e51b815260208187015260156024820152744e6f20706c617965727320696e206c6f747465727960581b6044820152606490fd5b9050346101be57816003193601126101be5760209060ff6009541615158152f35b602081019081106001600160401b038211176108c757604052565b634e487b7160e01b600052604160045260246000fd5b601f909101601f19168101906001600160401b038211908210176108c757604052565b6001600160401b0381116108c757601f01601f191660200190565b90600182811c9216801561094b575b602083101461093557565b634e487b7160e01b600052602260045260246000fd5b91607f169161092a565b60405190600082600554916109698361091b565b8083526020936001908181169081156109d75750600114610995575b5050610993925003836108dd565b565b90939150600560005281600020936000915b8183106109bf57505061099393508201013880610985565b855488840185015294850194879450918301916109a7565b91505061099394925060ff191682840152151560051b8201013880610985565b919082519283825260005b848110610a23575050826000602080949584010152601f8019910116010190565b602081830181015184830182015201610a02565b600454811015610a5257600460005260206000200190600090565b634e487b7160e01b600052603260045260246000fd5b600254811015610a5257600260005260206000200190600090565b15610a8a57565b60405162461bcd60e51b815260206004820152602360248201527f4f6e6c79206d616e616765722063616e2063616c6c20746869732066756e637460448201526234b7b760e91b6064820152608490fd5b818110610ae6575050565b60008155600101610adb565b600590808214610c0f57610b06815461091b565b906001600160401b0382116108c757610b1f835461091b565b601f8111610bd4575b50600090601f8311600114610b6957610b5a929160009183610b5e575b50508160011b916000199060031b1c19161790565b9055565b015490503880610b45565b815260208082208483528183209291601f1985169083905b828210610bbb575050908460019594939210610ba2575b505050811b019055565b015460001960f88460031b161c19169055388080610b98565b8495819295850154815560018091019601940190610b81565b610bff90846000526020600020601f8501861c81019160208610610c05575b601f01861c0190610adb565b38610b28565b9091508190610bf3565b5050565b9081511561103a5760ff6009541615610ffd57600b54670de0b6b3a764000090818102918183041490151715610fe7573403610fab57600033815260036020818152600191604095838786200154600a541115610f7157610c733361115e565b15610f3e57338552818352868520848101859055815190916001600160401b038211610f2a57610ca3835461091b565b601f8111610ef1575b508490601f8311600114610e9357610cdb9291889183610e885750508160011b916000199060031b1c19161790565b90555b33808552818352868520820180546001600160a01b0319169091179055600254600160401b811015610e6057610d1c8185610d3d9301600255610a68565b815491926001600160a01b0360039290921b91821b199092163390911b1790565b90556002546000198101908111610e7457338552818352600287862001555b600454600160401b811015610e6057610d1c8185610d7d9301600455610a37565b905533845281528483209482860154928151948286528097805490610da18261091b565b80958901526060918481169081600014610e265750600114610ddf575b505050505093829160008051602061119f83398151915294958301520390a1565b909180959950528784205b838510610e1357505050508201606001938160008051602061119f833981519152843880610dbe565b8054878601830152938801938201610dea565b9250505060008051602061119f83398151915297985060609250869593915060ff191682860152151560051b840101959481933880610dbe565b634e487b7160e01b85526041600452602485fd5b634e487b7160e01b85526011600452602485fd5b015190503880610b45565b8388528588208793929091601f1984168a5b89828210610edb5750508411610ec3575b505050811b019055610cde565b015160001983871b60f8161c19169055388080610eb6565b8385015186558b97909501949384019301610ea5565b610f1a90848952868920601f850160051c810191888610610f20575b601f0160051c0190610adb565b38610cac565b9091508190610f0d565b634e487b7160e01b87526041600452602487fd5b503384528082528286852001805490848201809211610f5d5755610d5c565b634e487b7160e01b86526011600452602486fd5b865162461bcd60e51b8152600481018490526013602482015272115b9d1c9e481b1a5b5a5d081c995858da1959606a1b6044820152606490fd5b60405162461bcd60e51b8152602060048201526014602482015273125b98dbdc9c9958dd0811551208185b5bdd5b9d60621b6044820152606490fd5b634e487b7160e01b600052601160045260246000fd5b60405162461bcd60e51b81526020600482015260156024820152744c6f7474657279206973206e6f742061637469766560581b6044820152606490fd5b60405162461bcd60e51b8152602060048201526017602482015276141b185e595c881b985b59481a5cc81c995c5d5a5c9959604a1b6044820152606490fd5b906110838261115e565b6111465760009160018060a01b03168252602060038152604083209060018083015494604051938492828254926110b98461091b565b808752936001811690811561112257506001146110e5575b505050506110e1925003826108dd565b9190565b815285812095935091905b81831061110a5750506110e19350820101388080806110d1565b855487840185015294850194869450918301916110f0565b93505050506110e194925060ff191682840152151560051b820101388080806110d1565b9050604051611154816108ac565b6000815290600090565b600254156111985760018060a01b038091169081600052600360205261118b600260406000200154610a68565b90549060031b1c16141590565b5060019056fe76041b6e8130995874e79e751d284536c37242cb014fb0584ede1d1e64ce03c9d6d1eeba639254bd05e36261ae299af245328ab997fd9b7823d5fff17f1b74a4a2646970667358221220531b37c0acb55c5407e05d4182baadf2795f2fb2fcbf56df7d0df88ce18cca8d64736f6c63430008180033",
  "linkReferences": {},
  "deployedLinkReferences": {}
}