{
  "_format": "hh-sol-artifact-1",
  "contractName": "EasyGame",
  "sourceName": "contracts/EasyGame.sol",
  "abi": [
    {
      "inputs": [
        {
          "internalType": "address payable",
          "name": "treasuryAddress",
          "type": "address"
        }
      ],
      "stateMutability": "nonpayable",
      "type": "constructor"
    },
    {
      "anonymous": false,
      "inputs": [
        {
          "indexed": true,
          "internalType": "address",
          "name": "player",
          "type": "address"
        },
        {
          "indexed": true,
          "internalType": "uint8",
          "name": "level",
          "type": "uint8"
        },
        {
          "indexed": false,
          "internalType": "uint256",
          "name": "amount",
          "type": "uint256"
        },
        {
          "indexed": true,
          "internalType": "address",
          "name": "inviter",
          "type": "address"
        }
      ],
      "name": "LevelActivated",
      "type": "event"
    },
    {
      "anonymous": false,
      "inputs": [
        {
          "indexed": true,
          "internalType": "address",
          "name": "player",
          "type": "address"
        },
        {
          "indexed": true,
          "internalType": "uint8",
          "name": "level",
          "type": "uint8"
        }
      ],
      "name": "LevelFrozen",
      "type": "event"
    },
    {
      "anonymous": false,
      "inputs": [
        {
          "indexed": true,
          "internalType": "uint8",
          "name": "level",
          "type": "uint8"
        },
        {
          "indexed": false,
          "internalType": "uint256",
          "name": "oldPrice",
          "type": "uint256"
        },
        {
          "indexed": false,
          "internalType": "uint256",
          "name": "newPrice",
          "type": "uint256"
        }
      ],
      "name": "LevelPriceChanged",
      "type": "event"
    },
    {
      "anonymous": false,
      "inputs": [
        {
          "indexed": true,
          "internalType": "address",
          "name": "player",
          "type": "address"
        },
        {
          "indexed": true,
          "internalType": "uint8",
          "name": "level",
          "type": "uint8"
        }
      ],
      "name": "LevelUnfrozen",
      "type": "event"
    },
    {
      "anonymous": false,
      "inputs": [
        {
          "indexed": true,
          "internalType": "address",
          "name": "player",
          "type": "address"
        },
        {
          "indexed": true,
          "internalType": "uint8",
          "name": "level",
          "type": "uint8"
        },
        {
          "indexed": false,
          "internalType": "uint256",
          "name": "positionId",
          "type": "uint256"
        },
        {
          "indexed": false,
          "internalType": "uint256",
          "name": "parentId",
          "type": "uint256"
        }
      ],
      "name": "MatrixPlaced",
      "type": "event"
    },
    {
      "anonymous": false,
      "inputs": [
        {
          "indexed": true,
          "internalType": "address",
          "name": "from",
          "type": "address"
        },
        {
          "indexed": true,
          "internalType": "address",
          "name": "to",
          "type": "address"
        },
        {
          "indexed": true,
          "internalType": "uint8",
          "name": "level",
          "type": "uint8"
        },
        {
          "indexed": false,
          "internalType": "uint256",
          "name": "amount",
          "type": "uint256"
        }
      ],
      "name": "MatrixRewardPaid",
      "type": "event"
    },
    {
      "anonymous": false,
      "inputs": [
        {
          "indexed": true,
          "internalType": "address",
          "name": "oldOperatorWallet",
          "type": "address"
        },
        {
          "indexed": true,
          "internalType": "address",
          "name": "newOperatorWallet",
          "type": "address"
        }
      ],
      "name": "OperatorWalletChanged",
      "type": "event"
    },
    {
      "anonymous": false,
      "inputs": [
        {
          "indexed": true,
          "internalType": "address",
          "name": "player",
          "type": "address"
        },
        {
          "indexed": true,
          "internalType": "uint8",
          "name": "level",
          "type": "uint8"
        },
        {
          "indexed": false,
          "internalType": "uint256",
          "name": "cycle",
          "type": "uint256"
        },
        {
          "indexed": false,
          "internalType": "uint256",
          "name": "newPositionId",
          "type": "uint256"
        }
      ],
      "name": "Recycled",
      "type": "event"
    },
    {
      "anonymous": false,
      "inputs": [
        {
          "indexed": true,
          "internalType": "address",
          "name": "player",
          "type": "address"
        },
        {
          "indexed": true,
          "internalType": "address",
          "name": "receiver",
          "type": "address"
        },
        {
          "indexed": false,
          "internalType": "uint8",
          "name": "line",
          "type": "uint8"
        },
        {
          "indexed": false,
          "internalType": "uint256",
          "name": "amount",
          "type": "uint256"
        }
      ],
      "name": "ReferralPaid",
      "type": "event"
    },
    {
      "anonymous": false,
      "inputs": [
        {
          "indexed": true,
          "internalType": "address",
          "name": "oldTreasury",
          "type": "address"
        },
        {
          "indexed": true,
          "internalType": "address",
          "name": "newTreasury",
          "type": "address"
        }
      ],
      "name": "TreasuryChanged",
      "type": "event"
    },
    {
      "inputs": [],
      "name": "LEVEL_COUNT",
      "outputs": [
        {
          "internalType": "uint8",
          "name": "",
          "type": "uint8"
        }
      ],
      "stateMutability": "view",
      "type": "function"
    },
    {
      "inputs": [
        {
          "internalType": "uint8",
          "name": "level",
          "type": "uint8"
        },
        {
          "internalType": "address",
          "name": "inviter",
          "type": "address"
        }
      ],
      "name": "activateLevel",
      "outputs": [],
      "stateMutability": "payable",
      "type": "function"
    },
    {
      "inputs": [
        {
          "internalType": "uint8",
          "name": "level",
          "type": "uint8"
        }
      ],
      "name": "getLevelMatrixStats",
      "outputs": [
        {
          "internalType": "uint256",
          "name": "size",
          "type": "uint256"
        },
        {
          "internalType": "uint256",
          "name": "nextOpenParentId",
          "type": "uint256"
        }
      ],
      "stateMutability": "view",
      "type": "function"
    },
    {
      "inputs": [
        {
          "internalType": "uint8",
          "name": "level",
          "type": "uint8"
        },
        {
          "internalType": "uint256",
          "name": "positionId",
          "type": "uint256"
        }
      ],
      "name": "getMatrixNode",
      "outputs": [
        {
          "internalType": "address",
          "name": "player",
          "type": "address"
        },
        {
          "internalType": "uint256",
          "name": "parentId",
          "type": "uint256"
        },
        {
          "internalType": "uint256",
          "name": "leftChildId",
          "type": "uint256"
        },
        {
          "internalType": "uint256",
          "name": "rightChildId",
          "type": "uint256"
        },
        {
          "internalType": "uint256",
          "name": "depth",
          "type": "uint256"
        },
        {
          "internalType": "bool",
          "name": "closed",
          "type": "bool"
        }
      ],
      "stateMutability": "view",
      "type": "function"
    },
    {
      "inputs": [
        {
          "internalType": "address",
          "name": "playerAddress",
          "type": "address"
        }
      ],
      "name": "getPlayer",
      "outputs": [
        {
          "internalType": "bool",
          "name": "exists",
          "type": "bool"
        },
        {
          "internalType": "address",
          "name": "inviter",
          "type": "address"
        },
        {
          "internalType": "uint8",
          "name": "maxActiveLevel",
          "type": "uint8"
        },
        {
          "internalType": "uint256",
          "name": "totalPaid",
          "type": "uint256"
        }
      ],
      "stateMutability": "view",
      "type": "function"
    },
    {
      "inputs": [
        {
          "internalType": "address",
          "name": "playerAddress",
          "type": "address"
        },
        {
          "internalType": "uint8",
          "name": "level",
          "type": "uint8"
        }
      ],
      "name": "getPlayerLevel",
      "outputs": [
        {
          "internalType": "bool",
          "name": "active",
          "type": "bool"
        },
        {
          "internalType": "bool",
          "name": "frozen",
          "type": "bool"
        },
        {
          "internalType": "uint256",
          "name": "cycles",
          "type": "uint256"
        },
        {
          "internalType": "uint256",
          "name": "positionId",
          "type": "uint256"
        },
        {
          "internalType": "uint256",
          "name": "earned",
          "type": "uint256"
        }
      ],
      "stateMutability": "view",
      "type": "function"
    },
    {
      "inputs": [
        {
          "internalType": "address",
          "name": "playerAddress",
          "type": "address"
        },
        {
          "internalType": "uint8",
          "name": "level",
          "type": "uint8"
        }
      ],
      "name": "getPlayerPosition",
      "outputs": [
        {
          "internalType": "uint256",
          "name": "positionId",
          "type": "uint256"
        },
        {
          "internalType": "uint256",
          "name": "parentId",
          "type": "uint256"
        },
        {
          "internalType": "uint256",
          "name": "leftChildId",
          "type": "uint256"
        },
        {
          "internalType": "uint256",
          "name": "rightChildId",
          "type": "uint256"
        },
        {
          "internalType": "uint256",
          "name": "depth",
          "type": "uint256"
        },
        {
          "internalType": "bool",
          "name": "closed",
          "type": "bool"
        }
      ],
      "stateMutability": "view",
      "type": "function"
    },
    {
      "inputs": [
        {
          "internalType": "address",
          "name": "playerAddress",
          "type": "address"
        },
        {
          "internalType": "uint8",
          "name": "level",
          "type": "uint8"
        }
      ],
      "name": "isLevelActive",
      "outputs": [
        {
          "internalType": "bool",
          "name": "",
          "type": "bool"
        }
      ],
      "stateMutability": "view",
      "type": "function"
    },
    {
      "inputs": [
        {
          "internalType": "address",
          "name": "playerAddress",
          "type": "address"
        },
        {
          "internalType": "uint8",
          "name": "level",
          "type": "uint8"
        }
      ],
      "name": "isLevelFrozen",
      "outputs": [
        {
          "internalType": "bool",
          "name": "",
          "type": "bool"
        }
      ],
      "stateMutability": "view",
      "type": "function"
    },
    {
      "inputs": [
        {
          "internalType": "uint8",
          "name": "",
          "type": "uint8"
        }
      ],
      "name": "levelMatrixSize",
      "outputs": [
        {
          "internalType": "uint256",
          "name": "",
          "type": "uint256"
        }
      ],
      "stateMutability": "view",
      "type": "function"
    },
    {
      "inputs": [
        {
          "internalType": "uint8",
          "name": "",
          "type": "uint8"
        }
      ],
      "name": "levelPrices",
      "outputs": [
        {
          "internalType": "uint256",
          "name": "",
          "type": "uint256"
        }
      ],
      "stateMutability": "view",
      "type": "function"
    },
    {
      "inputs": [],
      "name": "operatorWallet",
      "outputs": [
        {
          "internalType": "address payable",
          "name": "",
          "type": "address"
        }
      ],
      "stateMutability": "view",
      "type": "function"
    },
    {
      "inputs": [],
      "name": "owner",
      "outputs": [
        {
          "internalType": "address",
          "name": "",
          "type": "address"
        }
      ],
      "stateMutability": "view",
      "type": "function"
    },
    {
      "inputs": [
        {
          "internalType": "uint8",
          "name": "level",
          "type": "uint8"
        },
        {
          "internalType": "uint256",
          "name": "newPrice",
          "type": "uint256"
        }
      ],
      "name": "setLevelPrice",
      "outputs": [],
      "stateMutability": "nonpayable",
      "type": "function"
    },
    {
      "inputs": [
        {
          "internalType": "address payable",
          "name": "newOperatorWallet",
          "type": "address"
        }
      ],
      "name": "setOperatorWallet",
      "outputs": [],
      "stateMutability": "nonpayable",
      "type": "function"
    },
    {
      "inputs": [
        {
          "internalType": "address payable",
          "name": "newTreasury",
          "type": "address"
        }
      ],
      "name": "setTreasury",
      "outputs": [],
      "stateMutability": "nonpayable",
      "type": "function"
    },
    {
      "inputs": [
        {
          "internalType": "address",
          "name": "newOwner",
          "type": "address"
        }
      ],
      "name": "transferOwnership",
      "outputs": [],
      "stateMutability": "nonpayable",
      "type": "function"
    },
    {
      "inputs": [],
      "name": "treasury",
      "outputs": [
        {
          "internalType": "address payable",
          "name": "",
          "type": "address"
        }
      ],
      "stateMutability": "view",
      "type": "function"
    },
    {
      "stateMutability": "payable",
      "type": "receive"
    }
  ],
  "bytecode": "0x608060405234801561001057600080fd5b50604051611e26380380611e2683398101604081905261002f916103a4565b6001600160a01b0381166100895760405162461bcd60e51b815260206004820152601c60248201527f5472656173757279206164647265737320697320726571756972656400000000604482015260640160405180910390fd5b600080546001600160a01b031990811633178255600180546001600160a01b039490941693821684179055600280549091169092179091556003602052662386f26fc100007fa15bc60c955c405d20d9149c709e2460f1c2d9a497496a7f46004d1772c3054c5566354a6ba7a180007fc3a24b0501bd2c13a7e57f2db4369ec4c223447539fc0724a9d55ac4a06ebd4d5566470de4df8200007fcbc4e5fb02c3d1de23a9f1e014b4d2ee5aeaea9505df5e855c9210bf472495af55666a94d74f4300007f83ec6a1f0257b830b5e016457c9cf1435391bf56cc98f369a58a54fe9377246555668e1bc9bf0400007f405aad32e1adbac89bb7f176e338b8fc6e994ca210c9bb7bdca249b4659422505566d529ae9e8600007fc69056f16cbaa3c616b828e333ab7d3a32310765507f8f58359e99ebb7a885f35567013fbe85edc900007ff2c49132ed1cee2a7e75bde50d332a2f81f1d01e5456d8a19d1df09bd561dbd2556701cdda4faccd00007f85aaa47b6dc46495bb8824fad4583769726fea36efd831a35556690b830a8fbe556702c68af0bb1400007f8a8dc4e5242ea8b1ab1d60606dae757e6c2cca9f92a2cced9f72c19960bcb45855670429d069189e00007f9dcb9783ba5cd0b54745f65f4f918525e461e91888c334e5342cb380ac558d535567058d15e1762800007f2d72af3c1b2b2956e6f694fb741556d5ca9524373974378cdbec16afa8b8416455670853a0d2313c00007fd56a60595ebefebed7f22dcee6c2acc61b06cf8c68e84c88677840365d1ff92b55670c7d713b49da00007fa8f2d96126c6d0ad63adabaef7bf5cf47f163fb0c218a473d28f62312d197bcf5567120a871cc00200007fd6ebcc64c739277b117ce359e436534b234b76e914c80ad276abf5b56207893955671bc16d674ec800007ff60b7f6a315ec68a6ac240e69dca53652b38627f709a2caa217d9e18af4d7a60556729a2241af62c00007f47d4745e02b343689a5e7ac121d2a352b7a15c10328a8759fd7d4cf0999002bb5560119052673782dace9d9000007ffc111d09a6e2f0958402cbe16a5aef32c9d8ddb9a4df7271140de57bfed6525a556103d4565b6000602082840312156103b657600080fd5b81516001600160a01b03811681146103cd57600080fd5b9392505050565b611a43806103e36000396000f3fe60806040526004361061010d5760003560e01c80638da5cb5b11610095578063c05db4ce11610064578063c05db4ce1461041d578063d2a160801461044a578063f0f4426014610499578063f2fde38b146104b9578063f90ef4ac146104d957600080fd5b80638da5cb5b1461035e5780638eb657c41461037e578063a0978ac21461039e578063b9aee263146103e857600080fd5b806348d46be1116100dc57806348d46be1146102115780634a57c6d9146102245780635c12cd4b1461027d57806361d027b31461030657806375b7d7c11461033e57600080fd5b80630e475efd1461015857806312513f2a1461018d5780631d6a884b146101af5780632e50d906146101d657600080fd5b366101535760405162461bcd60e51b8152602060048201526011602482015270155cd9481858dd1a5d985d1953195d995b607a1b60448201526064015b60405180910390fd5b600080fd5b34801561016457600080fd5b50610178610173366004611828565b6104f9565b60405190151581526020015b60405180910390f35b34801561019957600080fd5b506101ad6101a836600461185d565b61053a565b005b3480156101bb57600080fd5b506101c4601181565b60405160ff9091168152602001610184565b3480156101e257600080fd5b506102036101f136600461187a565b60036020526000908152604090205481565b604051908152602001610184565b6101ad61021f366004611895565b61060c565b34801561023057600080fd5b5061024461023f3660046118cc565b6108c0565b604080516001600160a01b03909716875260208701959095529385019290925260608401526080830152151560a082015260c001610184565b34801561028957600080fd5b506102d461029836600461185d565b6001600160a01b039081166000908152600560205260409020805460019091015460ff80831694610100840490941693600160a81b9093041691565b6040805194151585526001600160a01b03909316602085015260ff909116918301919091526060820152608001610184565b34801561031257600080fd5b50600154610326906001600160a01b031681565b6040516001600160a01b039091168152602001610184565b34801561034a57600080fd5b50610178610359366004611828565b6109b4565b34801561036a57600080fd5b50600054610326906001600160a01b031681565b34801561038a57600080fd5b506101ad6103993660046118cc565b6109ee565b3480156103aa57600080fd5b506103be6103b9366004611828565b610abe565b6040805195151586529315156020860152928401919091526060830152608082015260a001610184565b3480156103f457600080fd5b5061040861040336600461187a565b610b21565b60408051928352602083019190915201610184565b34801561042957600080fd5b5061020361043836600461187a565b60046020526000908152604090205481565b34801561045657600080fd5b5061046a610465366004611828565b610b51565b6040805196875260208701959095529385019290925260608401526080830152151560a082015260c001610184565b3480156104a557600080fd5b506101ad6104b436600461185d565b610c23565b3480156104c557600080fd5b506101ad6104d436600461185d565b610cf5565b3480156104e557600080fd5b50600254610326906001600160a01b031681565b600061050482610d97565b506001600160a01b038216600090815260066020908152604080832060ff80861685529252909120546101009004165b92915050565b6000546001600160a01b031633146105645760405162461bcd60e51b815260040161014a906118f6565b6001600160a01b0381166105ba5760405162461bcd60e51b815260206004820152601b60248201527f4f70657261746f722077616c6c65742069732072657175697265640000000000604482015260640161014a565b600280546001600160a01b038381166001600160a01b0319831681179093556040519116919082907fffeadf6b52d061bb21846980b2783f41fbe44cbcada3cc30262a06f43f49ff5790600090a35050565b61061582610d97565b60ff821660009081526003602052604090205434146106765760405162461bcd60e51b815260206004820152601860248201527f496e636f7272656374207061796d656e7420616d6f756e740000000000000000604482015260640161014a565b3360009081526005602090815260408083206006835281842060ff8088168652935292208054909116156106ec5760405162461bcd60e51b815260206004820152601760248201527f4c6576656c20697320616c726561647920616374697665000000000000000000604482015260640161014a565b60018460ff161115610776573360009081526006602052604081209061071360018761194d565b60ff9081168252602082019290925260400160002054166107765760405162461bcd60e51b815260206004820152601c60248201527f50726576696f7573206c6576656c206973206e6f742061637469766500000000604482015260640161014a565b815460ff166107f357815460ff191660011782556001600160a01b038316158015906107ab57506001600160a01b0383163314155b80156107cf57506001600160a01b03831660009081526005602052604090205460ff165b156107f3578154610100600160a81b0319166101006001600160a01b038516021782555b805461ffff19166001908117825582018054349190600090610816908490611966565b9091555050815460ff600160a81b9091048116908516111561084957815460ff60a81b1916600160a81b60ff8616021782555b60006108558533610dee565b9050610863338634846110a8565b61086d338661116e565b82546040513481526101009091046001600160a01b03169060ff87169033907fa39f8d2643b307a6345b215d0bb56b5221ecb986b9fa3da427929b7571b92a0d9060200160405180910390a45050505050565b6000806000806000806108d288610d97565b6000871180156108f4575060ff88166000908152600760205260409020548711155b6109335760405162461bcd60e51b815260206004820152601060248201526f24b73b30b634b2103837b9b4ba34b7b760811b604482015260640161014a565b60ff8816600090815260076020526040812061095060018a611979565b815481106109605761096061198c565b60009182526020909120600690910201805460018201546002830154600384015460048501546005909501546001600160a01b039094169b509199509750955090935060ff169150505b9295509295509295565b60006109bf82610d97565b506001600160a01b0391909116600090815260066020908152604080832060ff94851684529091529020541690565b6000546001600160a01b03163314610a185760405162461bcd60e51b815260040161014a906118f6565b610a2182610d97565b60008111610a655760405162461bcd60e51b8152602060048201526011602482015270141c9a58d9481a5cc81c995c5d5a5c9959607a1b604482015260640161014a565b60ff8216600081815260036020908152604091829020805490859055825181815291820185905292917f68cb741d0779160e141ccf5dd579423de44febc76c0edddcc6167807a3c16af7910160405180910390a2505050565b6000806000806000610acf86610d97565b505050506001600160a01b0392909216600090815260066020908152604080832060ff948516845290915290208054600182015460028301546003909301548285169661010090930490941694509290565b600080610b2d83610d97565b505060ff166000908152600760209081526040808320546008909252909120549091565b600080600080600080610b6387610d97565b6001600160a01b038816600090815260066020908152604080832060ff8b16845290915281206002015490819003610bb057600080600080600080965096509650965096509650506109aa565b60ff88166000908152600760205260408120610bcd600184611979565b81548110610bdd57610bdd61198c565b600091825260209091206006909102016001810154600282015460038301546004840154600590940154959e929d50909b50995090975060ff9092169550909350505050565b6000546001600160a01b03163314610c4d5760405162461bcd60e51b815260040161014a906118f6565b6001600160a01b038116610ca35760405162461bcd60e51b815260206004820152601c60248201527f5472656173757279206164647265737320697320726571756972656400000000604482015260640161014a565b600180546001600160a01b038381166001600160a01b0319831681179093556040519116919082907f8c3aa5f43a388513435861bf27dfad7829cd248696fed367c62d441f6295449690600090a35050565b6000546001600160a01b03163314610d1f5760405162461bcd60e51b815260040161014a906118f6565b6001600160a01b038116610d755760405162461bcd60e51b815260206004820152601960248201527f4f776e6572206164647265737320697320726571756972656400000000000000604482015260640161014a565b600080546001600160a01b0319166001600160a01b0392909216919091179055565b60018160ff1610158015610daf5750601160ff821611155b610deb5760405162461bcd60e51b815260206004820152600d60248201526c125b9d985b1a59081b195d995b609a1b604482015260640161014a565b50565b60ff8216600090815260076020526040812080548290819081908103610e8f57835460019081018086556000868152918691610e2a9190611979565b81548110610e3a57610e3a61198c565b6000918252602080832060069290920290910180546001600160a01b0319166001600160a01b038b1617815560048101839055600501805460ff1916905560ff8a168252600890526040902060019055505082545b835460011080610e9d575080155b156110295760ff87166000908152600860205260408120549350839003610ec357600192505b600084610ed1600186611979565b81548110610ee157610ee161198c565b60009182526020909120600690910201600581015490915060ff1615610f495760405162461bcd60e51b815260206004820152601760248201527f4d617472697820706172656e7420697320636c6f736564000000000000000000604482015260640161014a565b6004810154610f59906001611966565b8554600190810180885560008881529295508791610f7691611979565b81548110610f8657610f8661198c565b6000918252602082206006919091020180546001600160a01b0319166001600160a01b038b16178155600181018790556004810186905560058101805460ff1916905587546002850154909550909250849103610fe557600283018190555b80836002015414611025576003830181905560058301805460ff1916600117905561100f8a611219565b8254611025908b906001600160a01b03166112c7565b5050505b6001600160a01b038616600081815260066020908152604080832060ff8c16808552908352818420600201869055885460048452938290209390935580518581529182018790529192917fd8a08c0c1f4b5e930e1da0bd0b50635c1f9de780c217ce3fa2a17686579146c8910160405180910390a39695505050505050565b60ff831660009081526007602052604081206110c5600184611979565b815481106110d5576110d561198c565b9060005260206000209060060201905060006110f585836001015461144d565b90506000612710611108611f40876119a2565b61111291906119b9565b9050611120878388846114f0565b600061112c8887611591565b9050600061113a8284611966565b90508087111561116357600154611163906001600160a01b031661115e838a611979565b6116b1565b505050505050505050565b60018160ff161161117d575050565b6001600160a01b0382166000908152600660205260408120816111a160018561194d565b60ff9081168252602082019290925260400160002080549092506101009004161561121457805461ff00191681556111da60018361194d565b60ff16836001600160a01b03167fb0f7d96751587de2fbb05ae8bb25971ba7cd777de717eb3698b701d6c773965460405160405180910390a35b505050565b60ff8116600090815260076020908152604080832060089092528220549091819003611243575060015b8154811180159061128357508161125b600183611979565b8154811061126b5761126b61198c565b600091825260209091206005600690920201015460ff165b1561129a5780611292816119db565b915050611243565b81548111156112aa5760006112ac565b805b60ff9093166000908152600860205260409020929092555050565b6001600160a01b038116600090815260066020908152604080832060ff808716855292529091208054909116158061130557508054610100900460ff165b1561130f57505050565b60018160010160008282546113249190611966565b90915550600090506113368484610dee565b90508360ff16836001600160a01b03167fbde1dd97b8c6b9fb71194209f50387cccf9ec5cc5c0e9aa18b13c93cf78ce6e8846001015484604051611384929190918252602082015260400190565b60405180910390a3601160ff85161080156113a457506002826001015410155b80156113e857506001600160a01b0383166000908152600660205260408120906113cf8660016119f4565b60ff908116825260208201929092526040016000205416155b80156113fb57508154610100900460ff16155b1561144757815461ff00191661010017825560405160ff8516906001600160a01b038516907f9eedad69e1da086c8d70014edef61addc1d62bfdf25b1dcd3484ad720b97076290600090a35b50505050565b60008160000361146957506001546001600160a01b0316610534565b60ff83166000908152600760205260408120611486600185611979565b815481106114965761149661198c565b60009182526020808320600692830201546001600160a01b0316808452918152604080842060ff808a168652925290922054909250610100900416156114e95750506001546001600160a01b0316610534565b9392505050565b6114fa83826116b1565b6001600160a01b038316600090815260066020908152604080832060ff8616845290915281206003018054839290611533908490611966565b925050819055508160ff16836001600160a01b0316856001600160a01b03167f16ba2b19bb64507cf2c1a04b1f42c44aecacda5b2b3ad30b3e05ffd1a711915b8460405161158391815260200190565b60405180910390a450505050565b6001600160a01b03808316600090815260056020526040812054909161010090910416816115c585836001876103b6611756565b6115cf9082611966565b6002549091506115ee9086906001600160a01b03166000876032611756565b6115f89082611966565b905060006001600160a01b03831615611630576001600160a01b03808416600090815260056020526040902054610100900416611633565b60005b90506116458682600288610258611756565b61164f9083611966565b915060006001600160a01b03821615611687576001600160a01b0380831660009081526005602052604090205461010090041661168a565b60005b905061169c8782600389610190611756565b6116a69084611966565b979650505050505050565b806000036116bd575050565b6000826001600160a01b03168260405160006040518083038185875af1925050503d806000811461170a576040519150601f19603f3d011682016040523d82523d6000602084013e61170f565b606091505b50509050806112145760405162461bcd60e51b8152602060048201526013602482015272115512081d1c985b9cd9995c8819985a5b1959606a1b604482015260640161014a565b60008061271061176a61ffff8516866119a2565b61177491906119b9565b905060006001600160a01b0387161561178d578661179a565b6001546001600160a01b03165b90506117a681836116b1565b6040805160ff88168152602081018490526001600160a01b0380841692908b16917f53aa79cc77a3d2e16f0f104bce3b3da868f1ec7596a2cc49a09f8103982da834910160405180910390a3509695505050505050565b6001600160a01b0381168114610deb57600080fd5b803560ff8116811461182357600080fd5b919050565b6000806040838503121561183b57600080fd5b8235611846816117fd565b915061185460208401611812565b90509250929050565b60006020828403121561186f57600080fd5b81356114e9816117fd565b60006020828403121561188c57600080fd5b6114e982611812565b600080604083850312156118a857600080fd5b6118b183611812565b915060208301356118c1816117fd565b809150509250929050565b600080604083850312156118df57600080fd5b6118e883611812565b946020939093013593505050565b60208082526021908201527f4f6e6c79206f776e65722063616e2063616c6c20746869732066756e6374696f6040820152603760f91b606082015260800190565b634e487b7160e01b600052601160045260246000fd5b60ff828116828216039081111561053457610534611937565b8082018082111561053457610534611937565b8181038181111561053457610534611937565b634e487b7160e01b600052603260045260246000fd5b808202811582820484141761053457610534611937565b6000826119d657634e487b7160e01b600052601260045260246000fd5b500490565b6000600182016119ed576119ed611937565b5060010190565b60ff81811683821601908111156105345761053461193756fea2646970667358221220fa81604f6c43147362d59837ce0f2c99de98377fddcbdbba74576d057cfd84fd64736f6c63430008180033",
  "linkReferences": {},
  "deployedLinkReferences": {}
}